S02500006C6962457661706F7261746F72416E64436F6E64657361746F7246616E2E737265636B
S1130000A0190120210400001D0400001D040000AB
S11300101D0400001D0400001D0400000000000079
S11300200000000000000000000000001D040000AB
S11300301D040000000000001D0400001D04000059
S11300401D0400001D0400001D0400001D04000028
S11300501D0400001D0400001D0400001D04000018
S11300601D0400001D0400001D040000AD5D00001F
S1130070B14B0000C14B00001D040000D14B000037
S1130080E14B0000F14B0000014C0000114C00005A
S1130090214C0000314C00001D0400001D04000030
S11300A01D0400001D0400001D0400001D040000C8
S11300B01D0400001D0400001D0400001D040000B8
S11300C01D0400001D0400001D0400001D040000A8
S11300D01D0400001D0400001D0400001D04000098
S11300E01D0400001D0400000000000000000000CA
S11300F0000000001D0400001D0400001D04000099
S11301001D0400001D0400001D0400001D04000067
S11301101D0400001D0400001D0400001D04000057
S11301201D0400001D0400001D0400001D04000047
S11301301D0400001D0400001D0400001D04000037
S11301401D0400001D0400001D0400001D04000027
S11301501D0400001D0400001D0400001D04000017
S11301601D0400001D0400001D0400001D04000007
S11301701D0400001D0400001D040000F93F0000E0
S113018029AD000039AD000049AD000059AD0000B3
S11301901D040000297700001D0400001D04000058
S11301A01D0400001D0400001D0400001D040000C7
S11301B0457700001D0400001D0400001D0400001C
S11301C01D040000617700001D0400001D040000F0
S11301D01D0400001D0400001D0400001D04000097
S11301E01D0400001D0400001D04000025840000FF
S11301F01D040000418400001D0400005D84000013
S11302007984000095840000B18400001D0400007E
S11302101D0400001D0400001D0400001D04000056
S11302201D0400001D0400001D0400001D04000046
S11302301D0400001D0400001D0400001D04000036
S11302401D0400001D0400001D0400001D04000026
S11302501D0400001D0400001D0400001D04000016
S11302601D04000010B5054C237833B9044B13B1B9
S11302700448AFF300800123237010BD3C06002026
S11302800000000078F200000C4B43B10C480D490B
S113029010B5AFF300800C48036823B910BD0A48B9
S11302A0036833B97047094B002BF7D0BDE8104001
S11302B01847064B002BF5D0184700BF000000007C
S11302C078F200004006002078F2000000000000F0
S11302D0704770470B1F0C30183153F8042F40F847
S11302E0042B8B42F9D100207047000010B504465E
S11302F0C0680A4B9847C0F30012E37862F38203A4
S1130300C0F3401262F34103C0F3801262F30003AE
S1130310E37000F07000207110BD00BFC9D500006B
S113032010B5044601220221C068024B9847607050
S113033010BD00BF81D8000010B5044681F0010251
S11303400021C068014B9847607010BD81D800003F
S113035010B50446406A024B9847607110BD00BF57
S11303604DD600002DE9F041054600210F4CA04771
S1130370FF2128460E4B984701212846A047FF2419
S11303800B4F4FF00A080B4E21462846B84740460B
S1130390B047013CE4B2102CF6D12846064B9847EE
S11303A0E878C0F38000BDE8F08100BF39030000A5
S11303B05103000091220000ED02000010B5044634
S11303C081604B7A0BB9A07810BD1146044B984755
S11303D0606A044B98472046034B9847A070F2E7A5
S11303E0D502000041D700006503000010B5054C9C
S11303F005492046054B9847054A06492046064BC1
S1130400984710BD580600201418002001D300009E
S1130410000000201DD300001DEA0000FEE70000DC
S113042008B5174B174A9A4210D0174B144A9A42F0
S11304300CD2013B9B1A23F00303043313441149E8
S113044051F8040B42F8040B9A42F9D10F4B104AAD
S11304509A420AD2013B9B1A23F003030433134448
S1130460002142F8041B9342FBD10A4A0A4B23F0B1
S11304707F039360094B9847094B9847FEE700BFF9
S11304800000002078F200003C0600209C190020A7
S11304903C06002000ED00E00000000051EA0000EE
S11304A0B108000010B504462C30034B9847204691
S11304B0024B9847204610BDD3020000E906000015
S11304C070B5054C054EA4F1C4051C3C2046B0474C
S11304D0AC42FAD170BD00BF34070020D1D4000073
S11304E010B50348034CA0470348A04710BD00BF04
S11304F060070020E90600003407002010B5044618
S11305000D4B984704F12C000C4B98470C4B03F50A
S11305108E72C4F8882003F1C402E26503F1F0028C
S1130520226603F59A726266C3F86041002384F878
S11305305930204610BD00BFD1060000D102000092
S1130540700600202DE9F04106460C4C00F16807C6
S11305500025DFF82C8047F8044BC6F8844045F0AA
S11305602001D6F88820C9B22046C04701351C3482
S1130570072DF0D10020BDE8F08100BF70060020F7
S1130580E5D4000070B50446D0F88800174B9847AE
S1130590D4F888305B7A43B9D4F888305B7ADBB21C
S11305A084F8583094F8580070BD2046104B984792
S11305B004F168052B46D4F888200021E06D0D4E27
S11305C0B0472B46D4F888200121206EB0472A4634
S11305D0D4F88810606E084B9847E36D226E1B793F
S11305E01279134084F85830D6E700BF31D30000A5
S11305F0450500000D080000BD0300002DE9F84387
S1130600224C04F5B27522492846DFF8B490C84755
S1130610204FDFF8B0803A46414628461E4EB04788
S113062004F58E751D492846C8473A464146284672
S1130630B04704F1C4052846DFF88C80C04704F1B4
S1130640F000C0473A4616490020B04704F59A78AE
S11306504046144B98473A4613494046B047134E18
S11306602046B0471C34A542FAD10A4E32461049FE
S11306700020094CA0470F4D28460F4B984732469F
S11306800E492846A047BDE8F88300BF7006002045
S113069014180020000000201DEA00003417002078
S11306A0E1040000D1020000D3020000BDD4000028
S11306B0C1040000EC070020FD040000A5040000B4
S11306C001D300001DD30000D1060000704770471D
S11306D010B50446024B9847024B1C60204610BDDF
S11306E0CD0600007808002010B50446014B984759
S11306F0204610BDCF0600000B1F0C30143153F8F8
S1130700042F40F8042B8B42F9D1002070470000DD
S113071038B504460069104B984794F8283099007E
S113072040FA01F5E25C65F3820202258D40054240
S113073014BF0125002565F3410204258D400542BF
S113074014BF0125002565F30002E25407238B4002
S11307501840C0B2607138BDC9D5000010B5044658
S1130760012290F82810C068014B9847E07010BD32
S113077081D8000010B5044690F82830012B81F090
S113078001020CBF02210121C068024B9847E070AE
S113079010BD00BF81D8000010B5044690F8283081
S11307A000EB8303D869024B984784F8290010BDF5
S11307B04DD600002DE9F041054600210F4CA0471D
S11307C0FF2128460E4B984701212846A047FF24C5
S11307D00B4F4FF00A080B4E21462846B8474046B7
S11307E0B047013CE4B20C2CF6D12846064B98479E
S11307F02878C0F38000BDE8F08100BF75070000D1
S113080099070000912200001107000010B504466A
S1130810826080F82810527A0AB9207910BD1946EE
S11308200E4B984794F828305BB194F8283004EBC9
S11308308303D8690A4B984720460A4B984720718E
S1130840EBE77021E068084B98470721E068074B05
S113085098472069064B9847E7E700BFF906000070
S113086041D70000B5070000CDD6000075D70000C1
S113087089D6000010B5054C05492046054B98471C
S1130880054A06492046064B984710BD7C080020BF
S11308901418002001D30000000000201DD3000024
S11308A01DEA00008022014B9A61704700800041DC
S11308B02DE9F84F414B98474148424B98476420F3
S11308C0414B98474148424B98474248424B9847CE
S11308D0FA2242494248434B9847DFF820813A4D77
S11308E008F1080765E04846A847DFF8E8A0DAF809
S11308F064003D4B98474846A847DAF864003B4BF0
S113090098474846A8473146DAF86400384B984778
S11309104846A8470136F6B2FF2E17D04446DFF802
S1130920E0A04846A847A3462068D0474846A847C1
S113093054F8040B2F4B98474846A8473146DBF838
S113094000002D4B9847BC42EBD1CCE7DFF8B0B0A8
S1130950C1460A20A847CA46D9F80000D8470A2049
S1130960A84759F8040B234B98470A20A847314657
S1130970DAF80000204B98474C45EAD10A20A847F2
S1130980DFF85090D9F86400174B98470A20A8471D
S1130990D9F86400154B98470A20A8473146D9F87E
S11309A06400134B98470A20A847013E16F0FF063F
S11309B0CED100264FF00A09B0E700BFF90A0000C3
S11309C080150020EDE00000C5220000D8170020AB
S11309D035270000EC07002085050000A50800006D
S11309E09408002095DB000021030000ED020000C4
S11309F05103000011070000990700004808002077
S1130A005D0700002DE9F8432B4C04F120052B4928
S1130A1028462B4FB8472B4EDFF8D8803246414644
S1130A202846294DA84704F1400928494846B847B3
S1130A30324641464846A84725492046B8473246EB
S1130A4041462046A84704F1600922494846B84770
S1130A50324641464846A84704F180091E494846A3
S1130A60B847324641464846A84704F1A0091B4905
S1130A704846B847324641464846A84704F1C009AB
S1130A8017494846B847324641464846A84704F104
S1130A90E00914494846B847324641464846A84703
S1130AA004F5807410492046104B9847324610498B
S1130AB02046A847BDE8F88394080020E4160020E7
S1130AC0B9D90000000000201DEA000078170020BA
S1130AD09C180020981700205C1800207C18002027
S1130AE054170020F41700201418002001D300002C
S1130AF01DD30000F1D9000080B500AF034B984727
S1130B00034B9847034B984700BF80BDF91E000074
S1130B102DB40000C1B3000080B485B000AFF8600C
S1130B200B467A60FB72FA7AFB682032796843F8E4
S1130B30221000BF1437BD465DF8047B704780B4B3
S1130B4083B000AF78607B681B6943F480627B6884
S1130B501A6100BF0C37BD465DF8047B704780B452
S1130B6083B000AF78607B681B6943F400527B68F4
S1130B701A6100BF0C37BD465DF8047B704780B432
S1130B8083B000AF78607B681B6943F480227B6884
S1130B901A6100BF0C37BD465DF8047B704780B412
S1130BA083B000AF78607B681B6943F400127B68F4
S1130BB01A6100BF0C37BD465DF8047B704780B4F2
S1130BC083B000AF78607B685B6943F480727B68B4
S1130BD05A6100BF0C37BD465DF8047B704780B492
S1130BE083B000AF78607B685B6943F400727B6814
S1130BF05A6100BF0C37BD465DF8047B704780B472
S1130C0083B000AF78607B685B6943F480627B6883
S1130C105A6100BF0C37BD465DF8047B704780B451
S1130C2083B000AF78607B685B6943F480427B6883
S1130C305A6100BF0C37BD465DF8047B704780B431
S1130C4083B000AF78607B689B6943F001027B68E6
S1130C509A6100BF0C37BD465DF8047B704780B4D1
S1130C6083B000AF78607B689B6943F002027B68C5
S1130C709A6100BF0C37BD465DF8047B704780B4B1
S1130C8083B000AF78607B689B6943F080027B6827
S1130C909A6100BF0C37BD465DF8047B704780B491
S1130CA083B000AF78607B689B6943F480627B68A3
S1130CB09A6100BF0C37BD465DF8047B704780B471
S1130CC083B000AF78607B689B6943F400627B6803
S1130CD09A6100BF0C37BD465DF8047B704780B451
S1130CE083B000AF78607B689B6943F480527B6873
S1130CF09A6100BF0C37BD465DF8047B704780B431
S1130D0083B000AF78607B689B6943F400527B68D2
S1130D109A6100BF0C37BD465DF8047B704780B410
S1130D2083B000AF78607B68DB6943F008027B68BE
S1130D30DA6100BF0C37BD465DF8047B704780B4B0
S1130D4083B000AF78607B68DB6943F020027B6886
S1130D50DA6100BF0C37BD465DF8047B704780B490
S1130D6083B000AF78607B68DB6943F040027B6846
S1130D70DA6100BF0C37BD465DF8047B704780B470
S1130D8083B000AF78607B68DB6943F400527B6812
S1130D90DA6100BF0C37BD465DF8047B704780B450
S1130DA083B000AF78607B681B6A43F001027B6804
S1130DB01A6200BF0C37BD465DF8047B704780B4EF
S1130DC083B000AF78607B681B6A43F002027B68E3
S1130DD01A6200BF0C37BD465DF8047B704780B4CF
S1130DE083B000AF78607B681B6A43F004027B68C1
S1130DF01A6200BF0C37BD465DF8047B704780B4AF
S1130E0083B000AF78607B681B6A43F008027B689C
S1130E101A6200BF0C37BD465DF8047B704780B48E
S1130E2083B000AF78607B681B6A43F020027B6864
S1130E301A6200BF0C37BD465DF8047B704780B46E
S1130E4083B000AF78607B681B6A43F040027B6824
S1130E501A6200BF0C37BD465DF8047B704780B44E
S1130E6085B000AFF8600B467A60FB72FB7AFA68D3
S1130E70DB01134408337A681A6000BF1437BD4697
S1130E805DF8047B704780B485B000AFF8600B4612
S1130E907A60FB72FB7AFA68DB01134404337A68E4
S1130EA01A6000BF1437BD465DF8047B704780B4F8
S1130EB085B000AFF8600B467A60FB72FB7AFA6883
S1130EC0DB01134418337A681A6000BF1437BD4637
S1130ED05DF8047B704780B485B000AFF8600B46C2
S1130EE07A60FB72FB7AFA68DB01134414337A6884
S1130EF01A6000BF1437BD465DF8047B704780B4A8
S1130F0085B000AF7860084611461A460346FB7068
S1130F100B46BB7013467B70FA78BB787968D201B4
S1130F200A44134430331B78FB73FB7B23F00F0319
S1130F30FB737B7803F00F03DAB2FB7B1343FB7381
S1130F40FA78BB787968D2010A4413443033FA7BC7
S1130F501A7000BF1437BD465DF8047B704780B437
S1130F6085B000AF7860084611461A460346FB7008
S1130F700B46BB7013467B70FA78BB787968D20154
S1130F800A44134430331B78FB73FB7B03F00F03D9
S1130F90FB737B781B01DAB2FB7B1343FB73FA7898
S1130FA0BB787968D2010A4413443033FA7B1A704F
S1130FB000BF1437BD465DF8047B704780B485B02C
S1130FC000AF7860084611461A460346FB700B468C
S1130FD0BB7013467B70FA78BB787968D2010A44F7
S1130FE0134440331B78FB73FB7B23F00103FB7337
S1130FF07A78FB7B1343FB73FA78BB787968D20168
S11310000A4413444033FA7B1A7000BF1437BD46B8
S11310105DF8047B704790B482B000AF78600B46F3
S1131020FB701346BB70FA78BB78F878B9787C68A3
S1131030C0012044014440310978C9B241F004019F
S1131040C8B27968D2010A441344403302461A7084
S113105000BF0837BD4690BC704790B482B000AF63
S113106078600B46FB701346BB70FA78BB78F8784F
S1131070B9787C68C0012044014440310978C9B280
S113108021F00401C8B27968D2010A441344403300
S113109002461A7000BF0837BD4690BC704780B442
S11310A085B000AFF8600B467A60FB72FB7AFA6891
S11310B0DB01134428337A681A6000BF1437BD4635
S11310C05DF8047B7047000080B582B000AF034632
S11310D03960FB711346BB71BB79012B1CD0022B09
S11310E037D0002B4ED1FB793A6819462A482B4B4E
S11310F098473B689BB243F08042FB7919462648E7
S1131100274B98473B681B0C43F04042FB79194638
S11311102148234B98473AE0FB793A6819461E4820
S11311201E4B98473B689BB243F0804343F4003323
S1131130F9791A4618481A4B98473B681B0C43F038
S1131140404343F40033F9791A461348144B984743
S11311501DE0FB793A6819460F48124B98473B68E3
S11311609BB243F08042FB7919460B480C4B9847DD
S11311703B681B0C43F04042FB7919460648084B78
S1131180984704E0462208490020084B984700BFCE
S11311900837BD4680BD00BF00800041870E0000B7
S11311A09F1000005F0E000090ED0000B5380000B5
S11311B080B582B000AF03463960FB711346BB7142
S11311C0BB79002B06D0FB793A6819460648074BD1
S11311D0984705E0FB793A6819460348044B984759
S11311E000BF0837BD4680BD00800041AF0E00003F
S11311F0D70E000080B582B000AF0346FB710B46EA
S1131200BB7113467B717B79012B0AD0022B1FD053
S1131210002B34D1BA79FB7919461E481E4B9847E6
S113122033E0BB7901229A40FB79194619481B4BDC
S11312309847BA79FB7919461648194B9847BB79F0
S113124001229A40FB7919461248164B98471CE034
S1131250BB7901229A40FB7919460E480F4B9847F7
S1131260BA79FB7919460B480D4B9847BB79012293
S11312709A40FB79194607480B4B984705E08922A9
S11312800A4900200A4B984700BF00BF0837BD46F3
S113129080BD00BF008000415B100000870E00008D
S11312A017100000AF0E0000D70E000090ED0000F4
S11312B0B538000090B585B000AF786039607B68C0
S11312C05B09FB737B68DBB203F01F03BB733B68F2
S11312D0B3F1FF3F06D1BA7BF97B00231248134CCC
S11312E0A0471DE0BA7BF97B01230F480F4CA047B0
S11312F0BB7B03F00103002B09D0BB7B5B08DAB294
S11313003B68DBB2F97B0848094CA04708E0BB7B8B
S11313105B08DAB23B68DBB2F97B0348054CA047B3
S113132000BF1437BD4690BD00800041BD0F0000D2
S11313305F0F0000FF0E000080B582B000AF0346CF
S11313400A46FB711346BB71FB795B09D8B2FB7982
S113135003F01F03DBB2BA791946034B984700BF69
S11313600837BD4680BD00BFF511000080B582B0CE
S113137000AF7860396039687868034B984700BFDC
S11313800837BD4680BD00BFB512000080B582B0ED
S113139000AF03460A46FB711346BB71FB795B0938
S11313A0D8B2FB7903F01F03012202FA03F3BA79DE
S11313B01946034B984700BF0837BD4680BD00BFA0
S11313C0C910000080B582B000AF03460A46FB7125
S11313D01346BB71FB795B09D8B2FB7903F01F0399
S11313E0012202FA03F3BA791946034B984700BF66
S11313F00837BD4680BD00BFB111000080B500AF05
S1131400014B984700BF80BDBD44000080B582B049
S113141000AF786039607B68002B04D03B68002BF8
S113142001D0012300E0002303F00103DBB24822D2
S113143007491846074B98477B683A681A607B68E7
S11314401846054B9847034618460837BD4680BDE5
S1131450ACED0000B538000065AE000080B500AF0B
S11314600448054B984705490548064B984700BF73
S113147080BD00BF000800405F0C00000020004158
S1131480E01800204522000080B500AF442204216A
S11314903F48404B98474048404B984701214020E3
S11314A03F4B9847002140203E4B98474FF4800122
S11314B040203D4B984701212120394B984700217A
S11314C02120384B98474FF404112120364B98477C
S11314D001210320324B984702210320314B9847C6
S11314E04FF440310320304B9847012104202C4B0A
S11314F09847022104202B4B98474FF48021042065
S1131500294B984701210520254B984702210520A6
S1131510244B98474FF4A0210520234B98470121E1
S113152056201F4B9847022156201E4B98474FF4D4
S1131530AC0156201C4B984701215720184B984763
S113154002215720174B98474FF4AE015720164BF2
S1131550984701212820124B984700212820114B3D
S113156098474FF4201128200F4B98470121292038
S11315700B4B9847002129200A4B98474FF424111C
S11315802920094B9847094B984700BF80BD00BFED
S1131590001C0040190B000000080040FF0B000075
S11315A08D130000391300006D1300000D2300009B
S11315B080B500AF44220B210748084B98474422CA
S11315C00C210548054B98470548064B9847064BA0
S11315D0984700BF80BD00BF001C0040190B0000ED
S11315E0000800407F0C0000F922000080B500AF25
S11315F001212B202B4B984700212B202A4B984765
S11316002A492B202A4B984702210820254B98472A
S113161000210820274B984700210820224B984797
S113162025490820224B9847022109201D4B984741
S1131630002109201F4B9847002109201A4B984785
S11316401E4909201A4B984702210A20154B984736
S113165000210A20174B984700210A20124B984773
S113166017490A20124B984702210B200D4B98472B
S113167000210B200F4B984700210B200A4B984761
S113168010490B200A4B984701212A20054B984703
S113169000212A20044B98470B492A20044B9847E1
S11316A000BF80BD8D1300003913000007002B001C
S11316B06D130000C51300000700080007000900AF
S11316C007000A0007000B0007002A0080B500AFDE
S11316D00548064B98470448054B98470248054B74
S11316E0984700BF80BD00BF000800405F0B0000AA
S11316F09F0B00007F0D000080B500AF044B98479E
S113170004490548054B9847054B984700BF80BDE1
S1131710CD1600000034004274170020D1270000C9
S1131720ED15000080B500AF0248034B984700BF99
S113173080BD00BF00080040DF0B000080B500AF93
S1131740034B984703490448044B984700BF80BDA6
S11317502517000000240040BC180020E9200000E8
S113176080B500AF00211120074B9847074911208D
S1131770074B984700211020034B98470549102038
S1131780034B984700BF80BD3913000003001100CC
S11317906D1300000300100080B500AF4022182133
S11317A00648074B9847432203210448044B9847B3
S11317B00448054B984700BF80BD00BF001C004093
S11317C0190B0000000800409F0C000080B500AF1A
S11317D0044B984704490548054B9847054B9847DF
S11317E000BF80BD9917000000400141141800207B
S11317F0D52500006117000080B500AF00213B2013
S1131800114B984702213B20104B984710493B202D
S1131810104B984700213A200B4B984702213A205D
S11318200A4B98470C493A200A4B984701213C201F
S1131830064B984700213C20084B984708493C2018
S1131840044B984700BF80BDC51300008D130000F2
S113185003003B006D13000003003A00391300003D
S113186003003C0080B500AF452222210648074B07
S113187098474A2203210448044B98470448054BDF
S1131880984700BF80BD00BF001C0040190B00003A
S1131890000800409F0D000080B500AF054B98473D
S11318A04FF086410448054B9847054B984700BFC5
S11318B080BD00BF651800001C170020E12800004F
S11318C0F917000080B500AF00211720074B984797
S11318D007491720074B984700211620034B9847C8
S11318E005491620034B984700BF80BD39130000FB
S11318F0030017006D1300000300160080B500AF4D
S1131900442223210648074B98474A2203210448CE
S1131910044B98470448054B984700BF80BD00BF5F
S1131920001C0040190B000000080040BF0D00001F
S113193080B500AF044B984704490548054B9847C8
S1131940054B984700BF80BDFD180000000400430C
S1131950B8170020D5250000C518000080B500AFD9
S113196000214420114B984702214420104B9847F2
S113197010494420104B9847002145200B4B9847B1
S1131980022145200A4B98470C4945200A4B9847A9
S113199001214720064B984700214720084B9847D0
S11319A008494720044B984700BF80BDC513000079
S11319B08D130000020044006D1300000200450076
S11319C0391300000200470080B500AF42222421F1
S11319D00648074B98474A2203210448044B98477A
S11319E00448054B984700BF80BD00BF001C004061
S11319F0190B000000080040DF0D000080B500AFA7
S1131A00044B984704490548054B9847054B9847AC
S1131A1000BF80BDC919000000080043041700205E
S1131A20E12800005D19000080B500AF00216820A6
S1131A30074B984707496820074B984700216920BE
S1131A40034B984705496920034B984700BF80BD65
S1131A5039130000020068006D13000002006900E1
S1131A6080B500AF442225210648074B98474A22F7
S1131A7003210448044B98470448054B984700BF8A
S1131A8080BD00BF001C0040190B0000000800408E
S1131A90FF0D000080B500AF044B9847044905488A
S1131AA0054B9847054B984700BF80BD611A00005D
S1131AB0000C004334170020D5250000291A00002B
S1131AC080B500AF0848094B9847432209210848CC
S1131AD0084B9847084B984703461A460749084855
S1131AE0084B984700BF80BD000800401F0C000051
S1131AF0001C0040190B0000FD820000003800406B
S1131B007C180020B12A000080B500AF0848094BBA
S1131B10984744221A210848084B9847084B98478D
S1131B2003461A4607490848084B984700BF80BD3A
S1131B3000080040FF0C0000001C0040190B0000CE
S1131B40FD82000000A001415C180020B12A0000C1
S1131B5080B500AF0848094B984746221E21084823
S1131B60084B9847084B984703461A4607490848C4
S1131B70084B984700BF80BD000800403F0D00009F
S1131B80001C0040190B0000FD82000000140042FC
S1131B9054170020B12A000080B500AF0848094B53
S1131BA0984746221E210848084B9847084B9847F7
S1131BB003461A4607490848084B984700BF80BDAA
S1131BC0000800405F0D0000001C0040190B0000DD
S1131BD0FD8200000018004298170020B12A00007E
S1131BE080B500AF0848094B98474622272108488A
S1131BF0084B9847084B984703461A460749084834
S1131C00084B984700BF80BD000800401F0E00002D
S1131C10001C0040190B0000FD820000001400436A
S1131C2078170020B12A000080B400AF00BFBD4681
S1131C305DF8047B7047000080B500AF0448054B95
S1131C409847402227210448044B984700BF80BD91
S1131C50000800403F0E0000001C0040190B00006B
S1131C6080B500AF064B9847064B9847064B9847FC
S1131C7003461A4605490648064B984700BF80BDEF
S1131C80391C0000291C00001183000000180043C7
S1131C90D8170020D126000080B500AF0448054BBA
S1131CA09847442219210448044B984700BF80BD3B
S1131CB000080040BF0C0000001C0040190B00008D
S1131CC080B500AF054B9847054B984703461A4625
S1131CD004490548054B984700BF80BD991C000086
S1131CE0A1760000006001419C180020B12A000088
S1131CF080B500AF0448054B984744221921044895
S1131D00044B984700BF80BD00080040DF0C000072
S1131D10001C0040190B000080B500AF054B98472C
S1131D20054B984703461A4604490548054B98470E
S1131D3000BF80BDF11C0000A176000000800141BD
S1131D40E4160020B12A000080B500AF0448054B1A
S1131D50984740221D210448044B984700BF80BD8A
S1131D60000800401F0D0000001C0040190B00007B
S1131D7080B500AF054B9847054B984703461A4674
S1131D8004490548054B984700BF80BD491D000024
S1131D90A1760000000C0042F4170020B12A0000D4
S1131DA080B500AF022118200F4B9847002118205E
S1131DB00E4B9847002118200D4B98470D491820C9
S1131DC00D4B984702211920074B984700211920F1
S1131DD0064B984700211920054B984707491920BD
S1131DE0054B984700BF80BD8D130000C51300004C
S1131DF039130000070018006D13000007001900D4
S1131E0080B500AF42220A210548064B9847064890
S1131E10064B98470448064B984700BF80BD00BF57
S1131E20001C0040190B0000000800403F0B00009C
S1131E303F0C000080B500AF034B9847034B984715
S1131E40034B984700BF80BD011E00000D33000006
S1131E50A11D000080B500AF0248034B984700BFA6
S1131E6080BD00BF00080040BF0B000080B500AF7C
S1131E70034B984703490448044B984700BF80BD6F
S1131E80551E000000200040DC1800200D14000046
S1131E9080B500AF04492D20044B984704492C20F9
S1131EA0024B984700BF80BD07002D006D13000052
S1131EB007002C0080B500AF0748084B984749221B
S1131EC01C210748074B984707490848084B98477F
S1131ED0084B984700BF80BD000800407F0B0000FE
S1131EE0001C0040190B00000004004234180020BC
S1131EF059210000911E000080B500AF5F4B984748
S1131F00002107205E4B9847022107205D4B98472C
S1131F104FF0FF3107205C4B984701210F20584BAD
S1131F20984702210F20574B98474FF0FF310F205D
S1131F30554B984701211320514B984702211320F8
S1131F40504B98474FF0FF3113204F4B98470121D6
S1131F501B204B4B984702211B204A4B98474FF0BC
S1131F60FF311B20484B984701212720444B9847B9
S1131F7002212720434B98474FF0FF312720424B43
S1131F80984701213D203E4B984702213D203D4B7F
S1131F9098474FF0FF313D203B4B984701213F20AC
S1131FA0384B984701213F20384B98474FF0FF3179
S1131FB03F20354B984700214D20314B9847022153
S1131FC04D20304B98474FF0FF314D202E4B984712
S1131FD001214E202A4B984702214E20294B984735
S1131FE04FF0FF314E20284B984700214F20244BBF
S1131FF0984702214F20234B98474FF0FF314F2041
S1132000214B9847002152201D4B98470221522012
S11320101C4B98474FF0FF3152201B4B98471C4BE9
S113202098471C4B98471C4B98471C4B98471C4B94
S113203098471C4B98471C4B98471C4B98471C4B84
S113204098471C4B98471C4B98471C4B98471C4B74
S113205098471C4B98471C4B98471C4B98471C4B64
S113206098471C4B98471C4B98471C4B98471C4B54
S113207098471C4B984700BF80BD00BFFD1300006C
S1132080C51300008D1300006D1300003913000008
S11320905D14000089140000B1150000F916000059
S11320A03D170000CD1700009918000031190000F9
S11320B0FD190000951A0000C11A0000091B000058
S11320C0511B0000991B0000E11B0000611C000073
S11320D0C11C0000191D0000711D0000351E000008
S11320E06D1E0000B51E000080B584B000AF78609E
S11320F039600023FB607B68002B14BF012300239D
S1132100DBB24FF4E07211491846114B98477B68D3
S11321101A683B689A4201D1002313E07B681B686C
S1132120002B02D06FF011030CE07B683A681A6050
S11321307B681846074B9847F8607B6840F2B27298
S11321409A61FB6818461037BD4680BDC8ED000093
S1132150B5380000715C000080B584B000AF7860D1
S113216039607B68002B04D03B68002B01D001232D
S113217000E0002303F00103DBB241220E491846BC
S11321800E4B98477B68396818460D4B9847F860A2
S1132190FB68002B01D0FB6809E07B68094A5A60A0
S11321A07B68094A9A607B68084ADA60002318460B
S11321B01037BD4680BD00BFE4ED0000B538000017
S11321C0113E0000D1210000F52100001922000079
S11321D080B584B000AF78607B68FB60FB68DB6926
S11321E0002B03D0FB68DB69F868984700BF103701
S11321F0BD4680BD80B584B000AF78607B68FB606D
S1132200FB681B6A002B03D0FB681B6AF8689847BD
S113221000BF1037BD4680BD80B584B000AF786084
S11322200B46FB707B68FB60FB685B6A002B05D088
S1132230FB685B6AFA781146F868984700BF103764
S1132240BD4680BD80B582B000AF786039607B68E0
S1132250002B04D03B68002B01D0012300E00023B5
S113226003F00103DBB22B2206491846064B9847BC
S11322707B6839681846054B984703461846083763
S1132280BD4680BD00EE0000B538000011450000D9
S113229090B583B000AF0346FB80074B1C68FB88F6
S11322A01846064B9847034619462046044B984760
S11322B000BF0C37BD4690BDAC090020654200004C
S11322C0F943000090B583B000AF0346FB80074B91
S11322D01C68FB881846064B984703461946204657
S11322E0044B984700BF0C37BD4690BDAC09002095
S11322F0D1430000F943000080B500AF024B98477A
S11323000346184680BD00BFCD4C000080B582B0A6
S113231000AF0023FB800EE0FB880C4ADB00134473
S11323204FF0FF325A60FB88084A002142F833100C
S1132330FB880133FB80FB88082BEDD90448054B4F
S11323409847034618460837BD4680BDB0090020AB
S1132350B12400005148000080B586B000AF786019
S113236039600023FB750023BB7500237B7512E0E5
S1132370FB7D4D4ADB0013445A687B689A4207D1BF
S1132380FB7D49493A6841F8332001237B7505E018
S1132390FB7D0133FB75FB7D082BE9D93B68002BE2
S11323A00ED17B7D83F00103DBB2002B02D06FF0F2
S11323B00C0374E0002178683C4B984703466EE0B8
S11323C07B7D83F00103DBB2002B5AD00023FB7525
S11323D016E0FB7D344A52F83330002B0DD1FB7DDF
S11323E031493A6841F83320FB7D2F4ADB0013441E
S11323F07A685A6001237B7505E0FB7D0133FB7528
S1132400FB7D082BE5D936E0FB7D274ADB0013442E
S11324105A68BB7D2449DB000B445B689A4227D28F
S1132420BB7D214ADB0013445B68B3F1FF3F1FD03F
S1132430BB7D1D4907F10C02DB000B4493E803004C
S113244082E80300BB7DFA7D17481749DB0003448B
S1132450D2000A4492E8030083E80300FB7D124A99
S1132460DB00134407F10C0292E8030083E8030045
S1132470BB7D0133BB75BB7D082B02D8FB7D082BCC
S1132480C2D97B7D83F00103DBB2002B02D06FF055
S11324900C0304E001217868044B9847034618466E
S11324A01837BD4680BD00BFB0090020E5490000D3
S11324B080B584B000AF78600023FB730923BB733D
S11324C02AE0BA7BFB7B13445B107B737B7B082B7A
S11324D027D87B7B164ADB0013445A687B689A42F0
S11324E00BD17B7B124A52F83330002B1BD07B7B01
S11324F00F4A52F83330984715E07B7B0C4ADB00D7
S113250013445A687B689A4203D27B7B0133FB7382
S113251002E07B7B013BBB73BA7BFB7B9A42D0D24C
S113252002E000BF00E000BF1037BD4680BD00BF21
S1132530B009002080B58AB000AFF860B9601346D6
S1132540FB80FB68143B7B627B6A9B8BBB82FB88B2
S1132550BB6148F20103FB82BB68FB617B6A07F144
S1132560140211461846064B984738623B6A002B02
S113257001D03B6A00E0FB8818462837BD4680BD81
S11325802D69000080B58AB000AFF860B9601346C9
S1132590FB80FB68143B7B627B6A9B8BBB82FB8862
S11325A0BB614FF40043FB82BB68FB617B6A07F1AC
S11325B0140211461846064B984738623B6A002BB2
S11325C001D03B6A00E0FB8818462837BD4680BD31
S11325D02D69000080B584B000AF786039607B68F5
S11325E0002B14BF01230023DBB25E220C491846E2
S11325F00C4B98477B68396818460B4B9847F86032
S1132600FB68002B01D0FB6806E07B68074A9A61EF
S11326107B68074A5A61002318461037BD4680BDBF
S11326201CEE0000B5380000CD6600003525000022
S11326308525000080B582B000AF78607B681846BD
S1132640034B9847034618460837BD4680BD00BF74
S11326501567000080B582B000AF78607B681846CB
S1132660034B9847034618460837BD4680BD00BF54
S11326705567000080B485B000AFF8600B467A60FF
S11326807B817B89C3F309031AB27B681BB203F411
S113269080631BB213431BB29AB2FB689A83FB6834
S11326A09B8B18461437BD465DF8047B704780B495
S11326B083B000AF786039607B6803F114023B6833
S11326C01A60002318460C37BD465DF8047B70473A
S11326D080B584B000AFF860B9607A60FB68002B05
S11326E004D0BB68002B01D0012300E0002303F0D9
S11326F00103DBB233220A4918460A4B9847FB68A8
S1132700B9681846084B9847FB68084A1A60FB6882
S1132710074A5A60002318461037BD4680BD00BFE3
S113272038EE0000B5380000ED7E00008927000077
S1132730AD27000080B582B000AF78607B68002BC5
S113274014BF01230023DBB24A220B4918460B4B6A
S113275098477B6818460A4B98470346002B02D0DB
S11327606FF0100304E07B681846064B984700237B
S113277018460837BD4680BD38EE0000B538000065
S1132780DD8200009981000080B584B000AF7860DC
S11327907B68FB60FB685B69002B03D0FB685B69AB
S11327A0F868984700BF1037BD4680BD80B584B037
S11327B000AF78607B68FB60FB689B69002B03D0EB
S11327C0FB689B69F868984700BF1037BD4680BD19
S11327D080B582B000AF786039607B68002B04D08C
S11327E03B68002B01D0012300E0002303F0010328
S11327F0DBB2312206491846064B98477B68396894
S11328001846054B9847034618460837BD4680BD11
S113281050EE0000B5380000AD58000080B582B01D
S113282000AF78607B68002B14BF01230023DBB268
S11328303F2206491846064B98477B681846054BC5
S11328409847034618460837BD4680BD50EE000041
S1132850B53800002159000080B582B000AF78601F
S11328607B68002B14BF01230023DBB246220649F8
S11328701846064B98477B681846054B984703460D
S113288018460837BD4680BD50EE0000B53800003C
S11328904559000080B582B000AF786039607B682C
S11328A0002B04D03B68002B01D0012300E000235F
S11328B003F00103DBB24D2206491846064B984744
S11328C07B6839681846054B98470346184608370D
S11328D0BD4680BD50EE0000B5380000915A00009E
S11328E080B584B000AF786039600023FB607B68FA
S11328F0002B04D03B68002B01D0012300E000230F
S113290003F00103DBB2402210491846104B9847EC
S11329107B683A685A607B680433396818460D4B03
S11329209847F860FB68002B01DAFB680AE07B68D3
S11329304FF400429A827B68074A1A617B68074A0F
S1132940DA60002318461037BD4680BD6CEE0000E7
S1132950B5380000C16D000061290000B9290000EC
S113296080B588B000AFF860B9601346FB80FB689F
S1132970002B14BF01230023DBB287220B49184626
S11329800B4B9847FB680C3BFB61BB687B610023E6
S11329903B61FB88BB6107F110031946F869054BDD
S11329A09847034618462037BD4680BD6CEE0000AC
S11329B0B5380000112A000080B588B000AFF86077
S11329C0B9601346FB80FB68002B14BF012300236E
S11329D0DBB2A3220B4918460B4B9847FB680C3B10
S11329E0FB6100237B61BB683B61FB88BB6107F132
S11329F010031946F869054B9847034618462037D3
S1132A00BD4680BD6CEE0000B5380000112A000000
S1132A1080B586B000AF786039607B68002B04D045
S1132A203B68002B01D0012300E0002303F00103E5
S1132A30DBB2B3220C4918460C4B98473B681B6821
S1132A40FB603B685B683B613B689B687B617B68C0
S1132A50043307F10C0211461846054B9847034608
S1132A6018461837BD4680BD6CEE0000B53800002E
S1132A702170000080B483B000AF78607B681B686D
S1132A8018460C37BD465DF8047B704780B483B0AC
S1132A9000AF78607B68002B02D07B681B6800E085
S1132AA0002318460C37BD465DF8047B70470000D0
S1132AB080B584B000AFF860B9607A60FB68002B21
S1132AC007D0BB68002B04D07B68002B01D0012306
S1132AD000E0002303F00103DBB23B220C4918465B
S1132AE00C4B9847FB687A681A60FB681B681B6884
S1132AF0FA680432B96810469847FB6800225A61A4
S1132B00FB68054A5A60002318461037BD4680BD4D
S1132B1088EE0000B5380000A12E000080B582B018
S1132B2000AF78607B68002B05D07B681B68002BA6
S1132B3001D0012300E0002303F00103DBB254229F
S1132B400E4918460E4B98477B681B689B697A6848
S1132B500432104698470346002B02D06FF010034E
S1132B6007E07B681B689B687A68043210469847C4
S1132B70002318460837BD4680BD00BF88EE00001C
S1132B80B538000080B582B000AF78607B68002B58
S1132B9005D07B681B68002B01D0012300E00023D3
S1132BA003F00103DBB262220F4918460F4B98472A
S1132BB07B681B689B697A68043210469847034611
S1132BC083F00103DBB2002B02D06FF0100307E0A7
S1132BD07B681B68DB687A680432104698470023D8
S1132BE018460837BD4680BD88EE0000B5380000A1
S1132BF080B584B000AF786039607B68002B08D062
S1132C003B68002B05D07B681B68002B01D0012397
S1132C1000E0002303F00103DBB27B222F491846B6
S1132C202F4B98477B681B7FDBB243F00103DAB27A
S1132C307B681A777B68183339681846294B98479C
S1132C400346002B0FD07B681B7FDBB223F001030C
S1132C50DAB27B681A77802220490020204B9847FB
S1132C606FF0110335E07B685A693B685A607B68F2
S1132C7003F118007B685B691A4639681A4B984758
S1132C807B681B7FDBB223F00103DAB27B681A771F
S1132C907B681B7FDBB203F00203002B18D007F123
S1132CA00C031846114B98477B681B7FDBB223F05B
S1132CB00203DAB27B681A777B681B68DB697A687F
S1132CC004321046984707F10C031846084B9847FE
S1132CD0002318461037BD4680BD00BF88EE0000B3
S1132CE0B5380000DD380000F12D00003DB40000CF
S1132CF063B4000080B584B000AF786039607B684D
S1132D00002B08D03B68002B05D07B681B68002B88
S1132D1001D0012300E0002303F00103DBB296227B
S1132D202D4918462D4B98477B681B7FDBB243F037
S1132D300103DAB27B681A777B681833396818465E
S1132D40274B9847034683F00103DBB2002B0FD0D7
S1132D507B681B7FDBB223F00103DAB27B681A774E
S1132D609B221D4900201D4B98476FF009032EE05C
S1132D707B681833396818461A4B98477B681B7F61
S1132D80DBB223F00103DAB27B681A777B681B7F1E
S1132D90DBB203F00203002B18D007F10C03184632
S1132DA0114B98477B681B7FDBB223F00203DAB236
S1132DB07B681A777B681B68DB697A680432104683
S1132DC0984707F10C031846084B98470023184608
S1132DD01037BD4680BD00BF88EE0000B538000046
S1132DE0DD3800003F3A00003DB4000063B4000049
S1132DF080B588B000AFF860B9607A600023BB6129
S1132E00F868234B984738613B69002B04D1B968B3
S1132E10F868204B984737E03B69FB6122E0FB6987
S1132E205A687B689A4208D8FB699A68FB695968B2
S1132E307B68CB1A13447B6109E0FB699A68FB69E0
S1132E405B681A447B685B42134401337B61BB6853
S1132E509A687B699A4209D9FB69BB61F8690E4B90
S1132E609847F861FB69002BD9D100E000BFFA69EB
S1132E703B699A4204D1B968F868064B984703E065
S1132E80B968B869054B98472037BD4680BD00BF77
S1132E90752A0000153900008D2A00006D390000E4
S1132EA080B586B000AF78607B68043B3B613B69CA
S1132EB018331846274B984778613B695B695A1C5D
S1132EC03B695A613B695B69FB603B691B7FDBB211
S1132ED003F00103002B06D13B691B7FDBB203F037
S1132EE00203002B27D03B691B7FDBB243F00203B4
S1132EF0DAB23B691A7729E07B69BB603B69183316
S1132F001846154B9847BB681B7C012B09D1BB683D
S1132F10FA685A603B691833FA68B96818460F4B67
S1132F2098473B69183318460A4B98477861BB6841
S1132F30DB68B86898477B69002B07D07B695B68BE
S1132F40FA68D21A7B699B689A42D5D21837BD4673
S1132F5080BD00BF752A00000D3A0000F12D00006D
S1132F6080B485B000AF0346FB710023FB7329E0F6
S1132F7097F90F30194A5B01134401331B78FA792E
S1132F809A4202D197F90F3022E097F90F30134A91
S1132F905B0113441B78002B0ED1FB7903F00F0364
S1132FA097F90F200D4952010A44013212789342D5
S1132FB002D197F90F300BE097F90F30DBB20133F0
S1132FC0DBB2FB7397F90F30032BD1DD4FF0FF33E6
S1132FD018461437BD465DF8047B7047F809002095
S1132FE080B588B000AFBA607B600346FB730B46C4
S1132FF0BB73BB687B617B68BB61BB7B002B04D06C
S1133000FB7B63F07F03DBB203E0FB7B03F00F0386
S1133010DBB23B7797F828307B7707F11403184627
S1133020034B9847034618462037BD4680BD00BF72
S113303071AA000080B485B000AFF860B9607A600E
S1133040002318461437BD465DF8047B7047000022
S113305080B586B000AF0346FB71FB7918462A4B56
S113306098470346FB7597F917305B01274A1344C9
S11330703B613B690C33FB60FB79F9681846244BD0
S113308098470346FB72FB7A082B0DD0FB7901218C
S11330901846204B9847FB7963F07F03DBB201218C
S11330A018461C4B98472BE0FB7900211846194B16
S11330B09847FB7963F07F03DBB200211846154B78
S11330C098473B6901229A703B695B69FA79F96810
S11330D010469847034683F00103DBB2002B0FD060
S11330E03B6905229A70FB7901211846094B9847E0
S11330F0FB7963F07F03DBB201211846054B984747
S11331001837BD4680BD00BF612F0000F8090020BC
S1133110C9A9000041A8000080B584B000AF0346EF
S11331203960FB71FB7918460D4B98470346FB73D6
S113313097F90F305B010B4A1344BB60BB689B7863
S1133140032B07D1BB689B69FA7939681046984705
S1133150034600E0002318461037BD4680BD00BF7B
S1133160612F0000F809002090B587B002AF7860A5
S11331707B689B78FB737B681B7B03F08003002BCD
S113318014BF01230023BB73FB7B032B3AD17B6861
S1133190DB697A6850787A680C32012198470346D3
S11331A07B737B7B002B15D07B6805229A707B6830
S11331B00222DA70BB7B002B02D07B685B7804E0D0
S11331C07B685B7863F07F03DBB201211846154B03
S11331D0984722E07B6804229A707B685878BB7B0E
S11331E0002B14BF01230023DBB283F00103DBB205
S11331F003F00103D9B201230093002300220A4CF7
S1133200A0470AE07B68DB697A6850787A680C32F8
S1133210002198477B6802229A7000BF1437BD468C
S113322090BD00BF41A80000E12F000080B586B02A
S113323000AF0346B9607A60FB73FB7B18462F4BE3
S113324098470346FB7597F917305B012C4A1344E2
S11332503B61BB68002B0ED13B690022DA703B69ED
S11332601B78002B03D13869264B984743E03B6910
S113327001229A7038E0BB68012B13D13B6902220A
S1133280DA703B691B78002B08D13B6902229A70E3
S1133290FB7B002118461C4B984725E03B6905221F
S11332A09A7021E0BB68022B0ED13B690422DA70CC
S11332B03B691B78002B03D13B6902229A701AE008
S11332C03B6901229A700FE0BB68032B06D13B696E
S11332D000229A703B690522DA7005E03B690622F8
S11332E09A703B690622DA703B69DB693A69D178E6
S11332F07A68F87B98471837BD4680BD612F000077
S1133300F80900206931000041A8000080B582B0AE
S113331000AF214B984738603B68002B01DA3B68CB
S113332036E0802200211D481D4B98470023FB7185
S11333301EE0FB79194A5B0113440133FF221A7022
S1133340FB79164A5B0113441433164A1A60FB795D
S1133350124A5B0113441833124A1A60FB790F4A6C
S11333605B0113441C330F4A1A60FB790133FB7170
S1133370FB79032BDDD90C4900200C4B98470C49F1
S113338001200A4B98470B490220084B9847002319
S113339018460837BD4680BD89A00000F809002002
S11333A0D5EB00003530000051300000D1AC0000F6
S11333B0193100002D32000080B582B000AF034601
S11333C03960FB71FB7939681846034B984700BF95
S11333D00837BD4680BD00BF89AC000080B500AF92
S11333E0024B98470346184680BD00BF79A10000F0
S11333F080B500AF014B984700BF80BDFDA1000020
S113340080B582B000AF0346FB71FB791846034BCD
S1133410984700BF0837BD4680BD00BF11A2000019
S113342080B582B000AF0346FB71FB799BB21A46AC
S113343000210020034B9847034618460837BD4631
S113344080BD00BF4934000080B586B000AF03469C
S1133450FB710B46BB711346BB80FB7918461E4BB0
S113346098470346FB7597F917305B011B4A1344D1
S11334703B6197F91730002B02DB6FF0130327E051
S1133480FF20154B98470346FB7597F91730002B1F
S113349002DA6FF014031BE097F917305B010F4A4F
S11334A013443B61BA88B979FB7918460C4B9847A9
S11334B0F860FB68002B01DAFB6809E03B69FA79E4
S11334C05A70BB7903F00303DAB23B691A70002324
S11334D018461837BD4680BD612F0000F80900204A
S11334E0B1A2000080B584B000AF0346FB71FB7944
S11334F018460D4B98470346FB7397F90F305B0151
S11335000A4A1344BB6097F90F30002B07DBFB79A1
S11335101846074B9847BB68FF225A7000E000BF6B
S11335201037BD4680BD00BF612F0000F8090020A0
S1133530E5A3000080B586B000AF0346FB71FB79BC
S11335401846154B98470346FB7597F917305B01EE
S1133550124A13443B6197F91730002B02DA6FF0DB
S1133560110314E03B691B78002B01D1022200E017
S113357001223B699A70FB791846094B9847F86019
S1133580FB68002B02DA3B6900229A70FB6818463C
S11335901837BD4680BD00BF612F0000F809002028
S11335A0C9A4000090B58DB002AF78607B681B7A27
S11335B01846514B98470346FB7797F91F305B0138
S11335C04E4A1344BB617B681B7A03F08003002BD3
S11335D014BF0123002387F827307B685B7A002B14
S11335E014BF0123002387F826307B685B683B62A5
S11335F097F91F30002B02DA6FF0110377E007F11F
S1133600080318463E4B9847BB699B78FB73FB7BCA
S1133610DBB2012B0CD1BB6903229A7007F10803BA
S11336201846384B9847BB691B78002B51D117E0DB
S113363007F108031846334B9847FB7BDBB2052B95
S113364004D0062B04D0002B05D007E002234EE063
S11336506FF00F034BE06FF0120348E0012346E0E4
S1133660BB699B7C9AB2BB69DB7C9BB21B029BB29D
S11336701344FB82FB8A002B0BD1012387F82730EC
S113368000233B62012387F82630BB6904229A7029
S11336901FE0BB691B7B03F08003002B14BF0123D5
S11336A0002387F82730FA8A3B6A9A4201D2FB8AC0
S11336B03B6297F82730002B08D0FA8A3B6A9A427B
S11336C08CBF0123002387F8263002E0002387F80B
S11336D026307B68187A7B681A6897F8263097F842
S11336E0271000933B6A084CA04738613B69184691
S11336F02C37BD4690BD00BF612F0000F8090020A3
S11337003DB4000063B40000E12F000080B584B034
S113371000AF0346FB71FB7918460E4B98470346EE
S1133720FB7397F90F305B010B4A1344BB6097F9A5
S11337300F30002B0ADBFB791846084B9847BB680F
S113374001229A70BB680422DA7000E000BF1037CF
S1133750BD4680BD612F0000F809002035AC000093
S113376080B586B000AF0346FB71FB7918461A4B4F
S113377098470346FB7597F917305B01174A1344C2
S11337803B6197F91730002B02DA6FF011031FE049
S1133790FB7902211846124B98470346002B16D09A
S11337A0FB79002118460E4B9847F860FB68002B04
S11337B001DAFB680CE03B6901229A703B69032241
S11337C0DA703B69DB69F87900220321984700230A
S11337D018461837BD4680BD612F0000F809002047
S11337E041A8000080B582B000AF03460A46FB71D1
S11337F01346BB71BB79002B05D1FB7918460C4BE2
S1133800984703460FE0BB79012B06D1FB790121D0
S11338101846084B9847034605E0FB7902211846F1
S1133820044B9847034618460837BD4680BD00BF81
S11338306137000041A8000080B586B000AF0346A0
S11338403A60FB710B46BB71FB791846164B9847DF
S11338500346FB7597F917305B01144A13443B6127
S11338603B68002B01D03B6800E0114BFB6097F9EB
S11338701730002B13DBBB79012B08D0022B0AD0A5
S1133880002B00D00CE03B69FA685A6108E03B6900
S1133890FA689A6104E03B69FA68DA6100E000BF03
S11338A01837BD4680BD00BF612F0000F809002015
S11338B03530000080B485B000AF0346B9607A604B
S11338C0FB73FB7B83F00103DBB2002B00D000BE53
S11338D000BF1437BD465DF8047B704780B485B0E3
S11338E000AF786039607B681B68FB6008E0FA68A9
S11338F03B689A4201D1012306E0FB681B68FB6028
S1133900FB68002BF3D1002318461437BD465DF83D
S1133910047B704780B582B000AF78603960396845
S113392078680F4B98470346002B14BF01230023EC
S1133930DBB283F00103DBB203F00103DBB2392213
S113394008491846084B98477B681A683B681A6010
S11339507B683A681A6000BF0837BD4680BD00BF67
S1133960DD380000A0EE0000B538000080B483B05C
S113397000AF786039607B681A683B681A607B68BE
S11339803A681A6000BF0C37BD465DF8047B704787
S113399080B584B000AF786039607B681B68FB60D9
S11339A039687868164B98470346002B14BF0123E7
S11339B00023DBB283F00103DBB203F00103DBB2CB
S11339C04F2210491846104B98477B681B68002B00
S11339D009D17B683A681A603B6800221A600CE0DF
S11339E0FB681B68FB60FB681B68002BF8D1FB6855
S11339F03A681A603B6800221A601037BD4680BDE1
S1133A00DD380000A0EE0000B538000080B485B0B9
S1133A1000AF78607B681B68002B09D07B681B684B
S1133A20FB607B681B681A687B681A60FB6800E0AF
S1133A30002318461437BD465DF8047B704780B4F4
S1133A4085B000AF786039603B68002B01D100235A
S1133A5024E07B681A683B689A4206D17B681B683D
S1133A601A687B681A60012318E07B681B68FB6096
S1133A7002E0FB681B68FB60FB68002B04D0FB685A
S1133A801A683B689A42F4D1FB68002B05D03B6866
S1133A901A68FB681A60012300E0002318461437F3
S1133AA0BD465DF8047B704780B483B000AF034625
S1133AB0FB80B7F90630002B0BDB0949B7F9063058
S1133AC05B09FA8802F01F02012000FA02F241F8B1
S1133AD0232000BF0C37BD465DF8047B704700BF50
S1133AE000E100E080B483B000AF0346FB80B7F987
S1133AF00630002B10DB0B49B7F906305B09FA8856
S1133B0002F01F02012000FA02F2203341F82320C0
S1133B10BFF34F8FBFF36F8F00BF0C37BD465DF807
S1133B20047B704700E100E080B483B000AF03463B
S1133B30FB80B7F90630002B0CDB0949B7F90630D6
S1133B405B09FA8802F01F02012000FA02F26033D6
S1133B5041F8232000BF0C37BD465DF8047B704755
S1133B6000E100E080B483B000AF78607B685B6CF8
S1133B705B0903F00103002B14BF01230023DBB214
S1133B8018460C37BD465DF8047B704780B483B09B
S1133B9000AF786039607B683A689A6000BF0C3780
S1133BA0BD465DF8047B704780B483B000AF786095
S1133BB039607B683A68DA6000BF0C37BD465DF84F
S1133BC0047B704780B483B000AF78607B689B69E6
S1133BD043F001027B689A6100BF0C37BD465DF873
S1133BE0047B704780B485B000AF78607B689B69C4
S1133BF0FB60FB6803F00103FB60FB68002B14BF50
S1133C0001230023DBB218461437BD465DF8047B5C
S1133C10704780B483B000AF78607B689B6923F001
S1133C2001027B689A6100BF0C37BD465DF8047BD6
S1133C30704780B483B000AF78607B689B6943F0C1
S1133C4002027B689A6100BF0C37BD465DF8047BB5
S1133C50704780B483B000AF78607B689B6923F0C1
S1133C6002027B689A6100BF0C37BD465DF8047B95
S1133C70704780B483B000AF786039607B689A691C
S1133C803B681A437B689A6100BF0C37BD465DF8F8
S1133C90047B704780B483B000AF786039607B6880
S1133CA03A68DA6100BF0C37BD465DF8047B7047A3
S1133CB080B483B000AF786039607B683A681A6575
S1133CC000BF0C37BD465DF8047B704780B483B0F9
S1133CD000AF78607B681B6D18460C37BD465DF8F5
S1133CE0047B704780B483B000AF786039607B6830
S1133CF03A68DA6500BF0C37BD465DF8047B70474F
S1133D0080B483B000AF786039607B683A68C3F8E8
S1133D10802000BF0C37BD465DF8047B704780B43B
S1133D2083B000AF786039607B683A68C3F8842058
S1133D3000BF0C37BD465DF8047B704780B483B088
S1133D4000AF786039607B683A68C3F8882000BFA8
S1133D500C37BD465DF8047B704780B483B000AF78
S1133D60786039607B683A68C3F8902000BF0C37EC
S1133D70BD465DF8047B704780B483B000AF7860C3
S1133D8039607B683A68C3F8A02000BF0C37BD4691
S1133D905DF8047B704780B483B000AF786039600D
S1133DA07B683A68C3F8BC2000BF0C37BD465DF899
S1133DB0047B704780B483B000AF786039607B685F
S1133DC03A68C3F8C02000BF0C37BD465DF8047BD9
S1133DD0704780B483B000AF786039607B683A681C
S1133DE0C3F8C82000BF0C37BD465DF8047B70479C
S1133DF080B483B000AF786039607B683A68C3F8F8
S1133E00F02000BF0C37BD465DF8047B704700000E
S1133E1080B582B000AF786039607B683A681A6018
S1133E207B681B681846564B984700BF7B681B6825
S1133E301846544B9847034683F00103DBB2002B2A
S1133E40F4D17B681B6818464F4B98473B684F4A30
S1133E5093427CD14E4A7B6813607B684D4A9A61D9
S1133E607B681B684FF4007118464B4B98477B687E
S1133E701B6802211846494B98477B681B6840F62B
S1133E8003211846464B98477B681B684FF423610F
S1133E901846444B98477B681A68434B9BB243F0DF
S1133EA0004343F4803319461046404B98477B68DF
S1133EB01B68072118463E4B98477B681B680721FF
S1133EC018463C4B98477B681A683B4B9BB243F0BF
S1133ED0807319461046394B98477B681A68384BEB
S1133EE09BB243F4003319461046364B98477B681F
S1133EF01B6808211846344B98477B681A68334B73
S1133F009BB243F4001319461046314B98477B6823
S1133F101A68304B9BB243F40033194610462E4BBB
S1133F2098477B681B686FF0604118462B4B984795
S1133F304F202B4B98474F202A4B98474F202A4B12
S1133F4098477B681B6801211846284B98477B6873
S1133F501B681846264B98477B681B681846254BF8
S1133F60984700BF7B681B681846064B9847034672
S1133F70002BF7D1002318460837BD4680BD00BF8B
S1133F80C53B0000E53B0000333C00000004004258
S1133F90180B002004000020733C00008D3B00003F
S1133FA0953C0000A93B00002C190020793D00003D
S1133FB0973D0000D33D0000E4180020B53D00000B
S1133FC0780A0020F13D0000013D0000880A00202D
S1133FD01F3D0000080B00203D3D00005B3D00003C
S1133FE0E53A0000293B0000A93A0000E53C000046
S1133FF0533C0000133C000090B583B000AF2C4B41
S11340001B687B607B681B6818462A4B984738609E
S11340103B6803F00103002B03D07B689B6878683E
S113402098473B6803F40073002B03D07B685B68FC
S1134030786898473B6803F00073002B04D07B68D2
S1134040DB680321786898473B6803F08073002B92
S113405004D07B68DB680021786898473B6803F4E8
S11340600003002B0FD07B68DC687B681B68184654
S1134070114B98470346002B01D0022300E0012393
S113408019467868A0473B6803F00803002B04D066
S11340907B68DB680421786898477B681B6839680B
S11340A01846064B984700BF0C37BD4690BD00BF6D
S11340B0180B0020CD3C0000653B0000B13C000023
S11340C080B483B000AF0346FB80B7F90630002B01
S11340D00CDB0949B7F906305B09FA8802F01F02C4
S11340E0012000FA02F2403341F8232000BF0C37CC
S11340F0BD465DF8047B704700E100E080B582B006
S113410000AF0346FB71FB791BB21846024B98477C
S113411000BF0837BD4680BDC140000080B483B0F5
S113412000AF03463960FB8013467B717B79043B07
S1134130052B6BD801A252F823F000BFEB4100001D
S1134140CB410000AD4100008F41000071410000EF
S113415055410000FB883A683549A1FB0212920CD4
S113416002FB03F30233334AA2FB03235B0859E047
S1134170FB883A6852093049A1FB0212D20902FBBA
S113418003F31D332D4AA2FB03231B094AE0FB88DA
S11341903A682B49A1FB0212520B02FB03F303F210
S11341A02B13284AA2FB03235B093BE0FB883A68F4
S11341B02549A1FB0212920902FB03F303F6B7336C
S11341C0224AA2FB03239B092CE0FB883A6820497E
S11341D0A1FB0212520902FB03F303F5EA432F3356
S11341E01C4AA2FB03235B0B1CE0FB883A681A49B8
S11341F0A1FB0212D20802FB03F303F5922303F29C
S1134200DF33164AA2FB03235B0C0BE0FB883A68FE
S113421002FB03F303F5371303F2BF63104AA2FB57
S113422003239B0C18460C37BD465DF8047B70478E
S113423083DE1B43ABAAAAAAC55A7C0A898888884C
S11342405917B7D1B5814E1BD34D6210F1197605BC
S11342501F85EB5173B2E745CDCCCCCC851DD96F0E
S1134260819F5E1680B582B000AF0346FB80FB8859
S1134270092204491846044B984703461846083750
S1134280BD4680BD000E27071D41000080B483B0E9
S113429000AF03463960FB8013467B717B79043B96
S11342A0052B70D801A252F823F000BF6943000027
S11342B04D430000314300000D430000E94200007B
S11342C0C5420000FB883A683749A1FB0212920CF0
S11342D002FB03F30233354AA2FB03235B084FF4CA
S11342E07A7202FB03F358E0FB883A6852093049BA
S11342F0A1FB0212D20902FB03F302332B4AA2FBF5
S113430003235B08642202FB03F346E0FB883A685C
S11343102849A1FB0212520B02FB03F30233234A86
S1134320A2FB03235A0813469B0013445B0034E0AA
S1134330FB883A682049A1FB0212920902FB03F3AD
S113434002331A4AA2FB03235B0826E0FB883A687F
S11343501A49A1FB0212520902FB03F31D33184A46
S1134360A2FB03231B0918E0FB883A681549A1FB4B
S11343700212D20802FB03F303F22B13124AA2FB2C
S113438003235B0909E0FB883A6802FB03F303F6A5
S1134390B7330E4AA2FB03239B0918460C37BD46CC
S11343A05DF8047B704700BF83DE1B43ABAAAAAA57
S11343B0C55A7C0A5917B7D1D34D62101F85EB51EA
S11343C089888888CDCCCCCCB5814E1BF119760573
S11343D080B582B000AF0346FB80FB880922044904
S11343E01846044B9847034618460837BD4680BD17
S11343F0000E27078D42000080B483B000AF7860C0
S1134400396000BFAFF300800139FDD800BF0C371D
S1134410BD465DF8047B704780B483B000AF78601C
S11344200B467B807B681B889AB27B881B029BB2FD
S113443003F470639BB213439AB27B681A8000BF83
S11344400C37BD465DF8047B704780B485B000AF7F
S1134450F8600B467A60FB72FB7AFA7AF968D2014B
S11344600A442C3211687A680A43F968DB010B4468
S11344702C331A6000BF1437BD465DF8047B7047C7
S113448080B500AF002200210A480B4B9847002258
S113449001210848084B98474EF6EF72022105485F
S11344A0054B9847002203210248034B984700BF5D
S11344B080BD00BF008000414B44000080B500AFC8
S11344C004210B480B4B98470B4B98470B4B9847D1
S11344D00B4B98474FF484600A4B98470A4B984714
S11344E040F6DF30074B9847084B984700BF80BD24
S11344F00040004119440000E54F0000AD540000A5
S1134500054F0000AD4D0000ED5400008144000053
S113451080B483B000AF786039607B683A681A6011
S1134520002318460C37BD465DF8047B7047000035
S113453080B483B000AF0346FB80B7F90630002B8C
S11345400BDB0949B7F906305B09FA8802F01F0250
S1134550012000FA02F241F8232000BF0C37BD46C7
S11345605DF8047B704700BF00E100E080B483B0D5
S113457000AF0346FB80B7F90630002B10DB0B4974
S1134580B7F906305B09FA8802F01F02012000FA2D
S113459002F2203341F82320BFF34F8FBFF36F8F14
S11345A000BF0C37BD465DF8047B704700E100E0B6
S11345B080B483B000AF0346FB80B7F90630002B0C
S11345C00CDB0949B7F906305B09FA8802F01F02CF
S11345D0012000FA02F2603341F8232000BF0C37B7
S11345E0BD465DF8047B704700E100E080B483B011
S11345F000AF7860396000BF7B685A683B6813403D
S1134600002BF9D100BF0C37BD465DF8047B704721
S113461080B483B000AF786039607B685A683B68C7
S11346201340002B14BF01230023DBB218460C37C0
S1134630BD465DF8047B704780B483B000AF7860FA
S11346407B685B6918460C37BD465DF8047B704790
S113465080B483B000AF786039607B683A685A618F
S113466000BF0C37BD465DF8047B704780B483B04F
S113467000AF786039607B683A681A6100BF0C3714
S1134680BD465DF8047B704780B483B000AF7860AA
S113469039607B683A68DA6000BF0C37BD465DF864
S11346A0047B704780B582B000AF78607B681B786C
S11346B0DBB243F00203DAB27B681A700321786834
S11346C0024B984700BF0837BD4680BDED4500004A
S11346D080B582B000AF78607B681B78DBB223F0D2
S11346E00203DAB27B681A7003217868024B984798
S11346F000BF0837BD4680BDED45000080B584B0DD
S113470000AF78600B46FB707B681B78FB73FB7B08
S113471023F01003FB73FB781B015AB297F90F3097
S113472013435BB2FB737B68FA7B1A7003217868CE
S1134730024B984700BF1037BD4680BDED450000D1
S113474080B584B000AF78600B46FB7003217868B5
S1134750064B98477B681B78FB73FA7BFB78134006
S1134760FB73FB7B18461037BD4680BDED4500004A
S113477080B582B000AF78600B46FB707B68FA7836
S11347801A7003217868034B984700BF0837BD4669
S113479080BD00BFED45000080B483B000AF7860F9
S11347A00B46FB707B68FA785A7000BF0C37BD4625
S11347B05DF8047B704780B483B000AF78603960E3
S11347C07B683A689A6000BF0C37BD465DF8047B8D
S11347D0704780B483B000AF786039607B683A6812
S11347E09A6100BF0C37BD465DF8047B704780B406
S11347F085B000AFF8600B467A60FB72FB7AFA680A
S113480006339B0013447A685A6000BF1437BD46D0
S11348105DF8047B704780B483B000AF7860396082
S11348207B683A681A6300BF0C37BD465DF8047BA9
S1134830704780B483B000AF786039607B683A68B1
S11348405A6300BF0C37BD465DF8047B7047000017
S113485080B582B000AF786001214F484F4B984734
S1134860034683F00103DBB2002B11D002214A4836
S11348704B4B98470346002B06D04748494B984773
S113488002214548484B984701214348474B9847E4
S113489001214148444B984700213F48444B9847E5
S11348A000213D48434B984700213B48424B9847E1
S11348B040F2BB313848414B984740F23B313648CF
S11348C03F4B9847002134483E4B98473E4A0021CD
S11348D031483E4B9847112201212F483B4B9847C2
S11348E02D483B4B98470C203A4B98470C203A4BA9
S11348F098470C20394B98470D20364B98470D208C
S1134900354B98470D20354B98470F20314B98472E
S11349100F20314B98470F20304B984710202D4BD8
S1134920984710202C4B984710202C4B9847112067
S1134930284B98471120284B98471120274B98471C
S11349401220244B98471220234B98471220234BC4
S1134950984713201F4B984713201F4B9847132049
S11349601E4B984714201B4B984714201A4B98470A
S113497014201A4B98471520164B98471520164BB0
S113498098471520154B9847154A7B6813600023F8
S113499018460837BD4680BD002800401146000077
S11349A041470000D1460000ED450000714700007A
S11349B0FD46000099470000B7470000D3470000B8
S11349C0174800003348000013909990EF47000007
S11349D0A54600006D450000B145000031450000CA
S11349E01C0B002080B584B000AF78600B46FB70D0
S11349F0FF23FB730023BB7310E0BB7B1C4ADB006B
S1134A0013445A687B689A4205D1BB7B184A12F852
S1134A103330FB7305E0BB7B0133BB73BB7B082BDB
S1134A20EBD9FB7BFF2B02D14FF0FF331CE0FB786B
S1134A30002B08D0FB7B012202FA03F319460D4830
S1134A400D4B98470FE0FB7B012202FA03F3194652
S1134A5008480A4B9847FB7B012202FA03F31946E4
S1134A600448074B9847002318461037BD4680BDBD
S1134A70C0EE0000002800406D460000894600009A
S1134A805146000080B584B000AF4148414B98477F
S1134A9003463B604FF0FF33BB603B6819463C481C
S1134AA03D4B98473D4B1B68002B14BF012300234B
S1134AB0DBB24FF484723A4918463A4B984760E0A7
S1134AC03B681846384B98470346DBB2013BDBB2E0
S1134AD0FB7347E00023FB710923BB7124E0BA791F
S1134AE0FB7913445B107B717B79304A12F83330C5
S1134AF01A4697F90F309A4206D17B792B4ADB008C
S1134B0013445B68BB6013E07B79284A12F83330A6
S1134B101A4697F90F309A4203DA7B790133FB7115
S1134B2002E07B79013BBB71BA79FB799A42D6D218
S1134B30BB68B3F1FF3F03D0184B1B68B8689847B4
S1134B4097F90F30012202FA03F3DA433B6813406A
S1134B503B603B681846144B98470346DBB2013B65
S1134B60DBB2FB7397F90F30B3F1FF3FB2D10848C2
S1134B70084B984703463B603B6819460448064B7C
S1134B8098473B68002B9BD100BF1037BD4680BDC2
S1134B900028004039460000514600001C0B00204C
S1134BA008EF0000B538000035EA0000C0EE000050
S1134BB080B500AF014B984700BF80BD854A000017
S1134BC080B500AF014B984700BF80BD854A000007
S1134BD080B500AF014B984700BF80BD854A0000F7
S1134BE080B500AF014B984700BF80BD854A0000E7
S1134BF080B500AF014B984700BF80BD854A0000D7
S1134C0080B500AF014B984700BF80BD854A0000C6
S1134C1080B500AF014B984700BF80BD854A0000B6
S1134C2080B500AF014B984700BF80BD854A0000A6
S1134C3080B500AF014B984700BF80BD854A000096
S1134C4080B485B000AFF8600B467A60FB72FA7AE4
S1134C50FB684832796843F8221000BF1437BD4618
S1134C605DF8047B704780B483B000AF78600B4676
S1134C70FB701346BB70FB787A680433DB00134483
S1134C80BA785A71FB78BA78D243D1B27A680433CD
S1134C90DB0013440A461A7100BF0C37BD465DF8A9
S1134CA0047B704780B485B000AFF8600B467A602F
S1134CB0FB72FA7AFB680432796843F8321000BF59
S1134CC01437BD465DF8047B7047000080B582B0A0
S1134CD000AF0023FB710BE0FB79184AD35C1A4642
S1134CE0FB7919461648174B9847FB790133FB713A
S1134CF0FB79422BF0D90023FB7116E0FB79124AB1
S1134D0032F813301A46FB7919460D480F4B984771
S1134D10FB790F4A52F82330DAB2FB791946084876
S1134D200C4B9847FB790133FB71FB791F2BE5D9B9
S1134D30002318460837BD4680BD00BF20EF0000A1
S1134D4000E00041414C000064EF0000A54C00006D
S1134D50A4EF0000674C000080B483B000AF78601B
S1134D60396000BF7B685A683B681340002BF9D157
S1134D7000BF0C37BD465DF8047B704780B584B036
S1134D8000AFF8600B467A60FB72FA7AFB6808326F
S1134D90796843F8221043F6FD71F868024B98478E
S1134DA000BF1037BD4680BD594D000080B582B0AC
S1134DB000AF78607B6803F00103002B04D03B4A0A
S1134DC000213B483B4B98477B6803F00203002BD0
S1134DD004D0394A01213648364B98477B6803F0A2
S1134DE00403002B04D0354A02213148314B984743
S1134DF07B6803F00803002B04D0314A03212C48BC
S1134E002C4B98477B6803F01003002B04D02D4AE9
S1134E1004212748274B98477B6803F02003002B85
S1134E2004D0294A05212248224B98477B6803F085
S1134E304003002B04D0254A06211D481D4B9847EA
S1134E407B6803F08003002B04D0214A0721184813
S1134E50184B98477B6803F48073002B04D01D4AD9
S1134E6008211348134B98477B6803F40073002B05
S1134E7004D0194A09210E480E4B98477B6803F465
S1134E808063002B04D0154A0A210948094B98472E
S1134E907B6803F40063002B04D0114A0B210448FF
S1134EA0044B984700BF0837BD4680BD0701010089
S1134EB0001C00407D4D00000709010006090100A7
S1134EC008090200010901000129060001290C005A
S1134ED00829080001290300081901000509010037
S1134EE00519040080B483B000AF78600B46FB70F2
S1134EF07B68FA785A7100BF0C37BD465DF8047BB5
S1134F007047000080B582B000AF054B7B60012183
S1134F107868044B984700BF0837BD4680BD00BF82
S1134F2000080040E54E000080B483B000AF786014
S1134F300B46FB707B68FA781A7400BF0C37BD46C9
S1134F405DF8047B704780B483B000AF78600B4693
S1134F507B807B687A889A8200BF0C37BD465DF8F7
S1134F60047B704780B483B000AF78600B46FB705D
S1134F707B68FA789A7500BF0C37BD465DF8047BF0
S1134F80704780B483B000AF78600B46FB707B68D9
S1134F90FA78DA7500BF0C37BD465DF8047B7047BC
S1134FA080B485B000AF78607B68DB69FB60FB6828
S1134FB01B0A03F03F03FB60FB6818461437BD4629
S1134FC05DF8047B704780B483B000AF78603960CB
S1134FD07B683A68DA6100BF0C37BD465DF8047B34
S1134FE07047000080B582B000AF134B7B60002394
S1134FF07B8042F28E017868104B984700217868D4
S11350000F4B9847002178680E4B984778680E4BF1
S1135010984703467B807B881B0203F47C53194624
S113502078680A4B984700217868094B984700BF75
S11350300837BD4680BD00BF00140040474F000044
S1135040654F0000834F0000A14F0000C74F0000D0
S1135050294F000080B483B000AF7860396000BF8E
S11350607B685A683B681340002BF9D100BF0C37AA
S1135070BD465DF8047B704780B483B000AF7860B0
S11350807B685B689B0803F00103002B14BF0123BA
S11350900023DBB218460C37BD465DF8047B70472D
S11350A080B483B000AF78607B685B6818460C37C7
S11350B0BD465DF8047B704780B586B000AFF860EC
S11350C00B467A60FB72FA7AFB68083253F8223096
S11350D07B617B6923F00F037B617B6803F00F0323
S11350E07A6913437B61FA7AFB680832796943F879
S11350F0221043F6FD71F868024B984700BF183739
S1135100BD4680BD5550000080B485B000AFF86046
S11351100B467A60FB72FA7AFB682032796843F8AE
S1135120221000BF1437BD465DF8047B704780B47D
S113513085B000AFF8600B467A60FB7200BFFA7A64
S1135140F96813469B0013449B000B443C331A68D4
S11351507B681340002BF2D100BF1437BD465DF8C5
S1135160047B704780B483B000AF78600B46FB705B
S1135170FA78796813469B0013449B000B44403330
S11351801B6803F00103002B14BF01230023DBB2CF
S113519018460C37BD465DF8047B704780B483B075
S11351A000AF78600B46FB70FA78796813469B0071
S11351B013449B000B4440331B685B0803F001035A
S11351C0002B14BF01230023DBB218460C37BD4665
S11351D05DF8047B7047000080B582B000AF786052
S11351E00B46FB701346BB70FA78796813469B0034
S11351F013449B000B443033BA781A70FB780222B4
S113520019467868024B984700BF0837BD4680BDF1
S11352102F51000080B584B000AFF8600B467A606F
S1135220FB72FA7AF96813469B0013449B000B4403
S113523034337A681A60FB7A06221946F868034BFD
S1135240984700BF1037BD4680BD00BF2F510000F6
S113525080B485B000AFF8600B467A60FB72FA7ACE
S1135260F96813469B0013449B000B4438337A6857
S11352701A6000BF1437BD465DF8047B704780B4E4
S113528083B000AF78607B681B695B0803F001039F
S1135290002B14BF01230023DBB218460C37BD4694
S11352A05DF8047B704780B483B000AF78607B689E
S11352B01B691B0A03F00103002B14BF0123002305
S11352C0DBB218460C37BD465DF8047B704780B4EA
S11352D085B000AF786039607B681B69FB60FA6851
S11352E03B681340FB60FB6818461437BD465DF805
S11352F0047B704780B485B000AFF8600B467A60D9
S1135300FB72FB7AFA6804339B0013447A685A6090
S113531000BF1437BD465DF8047B704780B483B08A
S113532000AF78600B46FB707B68FA781A7700BF91
S11353300C37BD465DF8047B704780B485B000AF80
S113534078607B6893F82030FB73FB7B03F00103E8
S1135350FB73FB7B002B14BF01230023DBB2184635
S11353601437BD465DF8047B704780B483B000AF4A
S113537078600B46FB707B68FA7883F8202000BFC6
S11353800C37BD465DF8047B704780B483B000AF32
S1135390786039607B683A685A6200BF0C37BD4652
S11353A05DF8047B704780B483B000AF78607B689D
S11353B05B6A18460C37BD465DF8047B704780B4C1
S11353C083B000AF786039607B683A689A6200BF46
S11353D00C37BD465DF8047B704780B485B000AFE0
S11353E078607B6893F82C30FB73FB7B5B08DBB243
S11353F003F00103FB73FB7B002B14BF0123002389
S1135400DBB218461437BD465DF8047B704780B4A0
S113541085B000AF78607B6893F82C30FB73FB7B1E
S11354209B08DBB203F00103FB73FB7B002B14BF6F
S113543001230023DBB218461437BD465DF8047B14
S1135440704780B485B000AF78607B6893F82C30E7
S1135450FB73FB7BDB08DBB203F00103FB73FB7B19
S1135460002B14BF01230023DBB218461437BD46BA
S11354705DF8047B704780B485B000AF78607B68CA
S113548093F82C30FB73FB7B1B09DBB203F00103A5
S1135490FB73FB7B002B14BF01230023DBB21846F4
S11354A01437BD465DF8047B7047000080B582B0B8
S11354B000AF0A4B7B600A4A01217868094B984780
S11354C000BF7868084B9847034683F00103DBB2BA
S11354D0002BF6D100BF0837BD4680BD0010004048
S11354E046260003F55200007F52000080B584B0C8
S11354F000AF6B4BFB60042200216A486A4B98475B
S113550000BF6848694B98470346002BF9D1002136
S1135510F868674B98476749F868674B984700BF36
S1135520F868664B98470346002BF9D10021F868C8
S1135530634B984700BFF868624B98470346002BBB
S1135540F9D10223FB72FB7A1946F868584B984745
S113555000BFF8685C4B98470346002BF9D1F86804
S11355605A4B984703461946F868594B984700BF69
S1135570F868584B98470346002BF9D11923FB725E
S1135580FB7A1946F8684E4B984700BFF8684D4BB4
S113559098470346002BF9D14522012141484E4B3F
S11355A098473B220021F8684C4B98474FF401621E
S11355B00021F8684A4B984742220021F868494B79
S11355C09847494A0121F868444B98474FF40362CD
S11355D00121F868424B984702220121F868414BA7
S11355E09847F868414B98470346002B0CD04FF47A
S11355F010637B6000BF7968F8683D4B98470246AA
S11356007B689A42F7D109E000BFF868394B9847A4
S1135610034683F00103DBB2002BF6D100BF002167
S1135620F868354B9847034683F00103DBB2002B3F
S113563009D00021F868314B9847034683F00103F1
S1135640DBB2002BEBD100BF0121F8682A4B98474D
S1135650034683F00103DBB2002B09D00121F86873
S1135660264B9847034683F00103DBB2002BEBD1B2
S113567000BF0C48224B98470346002BF9D1072260
S113568000210848084B984700BF0648074B984735
S11356900346002BF9D100BF1037BD4680BD00BFC3
S11356A000100040001C0040B95000007950000078
S11356B01D53000080BB0104BF5300007754000059
S11356C06B5300000F540000DB530000A75300008D
S11356D08B53000043540000095100001552000090
S11356E051520000D9510000A00704003B530000B0
S11356F0CF520000A7520000655100009D510000E8
S1135700A150000080B483B000AF78607B68DB698F
S11357109B0A03F00103002B14BF01230023DBB217
S113572018460C37BD465DF8047B704780B483B0DF
S113573000AF78607B684FF48062DA6100BF0C3799
S1135740BD465DF8047B704780B483B000AF7860D9
S113575039607B683A681A6000BF0C37BD465DF853
S1135760047B704780B483B000AF786039607B6895
S11357703A685A6000BF0C37BD465DF8047B704739
S113578080B483B000AF786039607B683A689A600F
S113579000BF0C37BD465DF8047B704780B483B00E
S11357A000AF786039607B683A681A6300BF0C37D1
S11357B0BD465DF8047B704780B485B000AF786067
S11357C039607B685B6BFB60FB6823F0FF03FB6065
S11357D03B68DBB2FA681343FB607B68FA685A6380
S11357E000BF1437BD465DF8047B704780B485B0B4
S11357F000AF786039607B685B6BFB60FB6823F407
S11358007F03FB603B681B0403F47F03FA681343C4
S1135810FB607B68FA685A6300BF1437BD465DF8C5
S1135820047B704780B483B000AF786039607B68D4
S11358303A689A6300BF0C37BD465DF8047B704735
S113584080B483B000AF78607B689B6B18460C37DC
S1135850BD465DF8047B704780B485B000AFF86046
S1135860B9607A6007E0FB685A1CFA60BA68511C98
S1135870B96012781A707B685A1E7A60002BF2D1D4
S113588000BF1437BD465DF8047B704780B582B015
S113589000AF786003497868034B984700BF083726
S11358A0BD4680BD020000014957000080B582B0AA
S11358B000AF786039607B68002B04D03B68002B14
S11358C001D0012300E0002303F00103DBB24022F6
S11358D00C4918460C4B98477B683A681A607B68F9
S11358E01B6801211846094B984709493868094B38
S11358F0984709493868094B9847002318460837E0
S1135900BD4680BD24F00000B538000049570000B2
S113591011000006655700000013240081570000A1
S113592080B582B000AF78607B681B68022118469E
S1135930034B9847002318460837BD4680BD00BF77
S11359404957000080B582B000AF78607B681B685F
S113595000211846034B9847002318460837BD46D4
S113596080BD00BF4957000080B584B000AF7860A7
S113597039607B681B68FB603B681B7803F020037D
S1135980DBB2002B05D03B689B681946F868134BC3
S113599098473B681B7803F01003DBB2002B05D05B
S11359A03B681B791946F8680D4B98473B681B7890
S11359B003F04003DBB2002B05D03B685B7919464A
S11359C0F868084B98473B681B681946F868064B0B
S11359D0984700BF1037BD4680BD00BF9D570000EB
S11359E0B9570000ED5700002558000080B584B079
S11359F000AF786039607B681B68BB604FF08063E0
S1135A00FB603B681B7803F02003DBB2002B04D05F
S1135A103B689B68FA681344FB60B868184B984766
S1135A203B681B69002B03D13B685B69002B01D0E9
S1135A30012300E0002303F00103DBB282221149B9
S1135A401846114B98473B681B69002B08D03B68EC
S1135A5019693B68DB681A46F8680C4B984707E0FD
S1135A603B6858693B68DB681A46F968074B9847F6
S1135A70BFF34F8FBFF36F8F00BF1037BD4680BD9C
S1135A804158000024F00000B538000059580000C7
S1135A9080B582B000AF7860396039687868144B9B
S1135AA098473B681B7823F07F03DBB2002B03D0BD
S1135AB0396878680F4B98477B681B6818460E4B0B
S1135AC0984700BF7B681B6818460C4B98470346F1
S1135AD083F00103DBB2002BF4D17B681B6818460A
S1135AE0074B9847002318460837BD4680BD00BFC2
S1135AF069590000ED5900008D5800000557000059
S1135B002D57000080B483B000AF7860396000BFC7
S1135B107B681A693B681340002BF9D100BF0C372E
S1135B20BD465DF8047B704780B483B000AF7860F5
S1135B307B684FF480729A8100BF0C37BD465DF8D4
S1135B40047B704780B483B000AF78607B684FF407
S1135B5080429A8100BF0C37BD465DF8047B7047D4
S1135B6080B483B000AF78607B689B899BB2184691
S1135B700C37BD465DF8047B704780B483B000AF3A
S1135B8078607B685B899BB218460C37BD465DF82C
S1135B90047B704780B582B000AF78607B681B8857
S1135BA09BB243F001039AB27B681A8001217868A2
S1135BB0024B984700BF0837BD4680BD055B000017
S1135BC080B584B000AF786048F2030178680A4B6E
S1135BD098477B681B88FB81FB895B089BB203F0B9
S1135BE00103FB81FB89002B14BF01230023DBB2DB
S1135BF018461037BD4680BD055B000080B582B0F5
S1135C0000AF78607B681B889BB223F002039AB2D2
S1135C107B681A8048F203017868034B984700BFF9
S1135C200837BD4680BD00BF055B000080B582B06B
S1135C3000AF78600B467B807B687A881A8048F2D4
S1135C4003017868024B984700BF0837BD4680BD02
S1135C50055B000080B483B000AF786039607B6876
S1135C603A681A6600BF0C37BD465DF8047B70477E
S1135C7080B582B000AF78607B68002B05D07B686C
S1135C801B68002B01D0012300E0002303F0010373
S1135C90DBB22F221B4918461B4B98471B4A7B68D3
S1135CA013607B681B681846194B98470346002B02
S1135CB00AD07B681B681846164B98477B681B689C
S1135CC002211846144B98477B681B681846134BEF
S1135CD098477B681B68012118460F4B98477B68DF
