S01700004543535F426F785F4F626A656374732E7372656381
S1130000880A0120C9070000C5070000C5070000D1
S1130010C5070000C5070000C50700000000000078
S1130020000000000000000000000000C507000000
S1130030C507000000000000C5070000C507000058
S1130040C5070000C5070000C5070000C50700007C
S1130050C5070000C5070000C5070000C50700006C
S1130060C5070000C5070000C5070000211F0000E8
S1130070C5070000C5070000C5070000C50700004C
S1130080C5070000C5070000C5070000C50700003C
S1130090C5070000C5070000C5070000C50700002C
S11300A0C5070000C5070000C5070000C50700001C
S11300B0C5070000C5070000C5070000C50700000C
S11300C0C5070000C5070000C5070000C5070000FC
S11300D0C5070000C5070000C5070000C5070000EC
S11300E0C5070000C5070000000000000000000074
S11300F000000000C5070000C5070000C507000098
S1130100C5070000C5070000C5070000C5070000BB
S1130110C5070000C5070000C5070000C5070000AB
S1130120C5070000C5070000C5070000C50700009B
S1130130C5070000C5070000C5070000C50700008B
S1130140C5070000C5070000C5070000C50700007B
S1130150C5070000C5070000C5070000C50700006B
S1130160C5070000C5070000C5070000C50700005B
S1130170C5070000C5070000C50700000D1A0000F0
S1130180A93E0000B53E0000C13E0000CD3E000087
S1130190C5070000C5070000C5070000C50700002B
S11301A0C5070000C5070000C5070000C50700001B
S11301B0C5070000C5070000C5070000C50700000B
S11301C0C5070000C5070000C5070000C5070000FB
S11301D0C5070000C5070000C5070000C5070000EB
S11301E0C5070000C5070000C5070000F12B00008B
S11301F0C5070000C5070000C5070000C5070000CB
S1130200C5070000C5070000C5070000C5070000BA
S1130210C5070000C5070000C5070000C5070000AA
S1130220C5070000C5070000C5070000C50700009A
S1130230C5070000C5070000C5070000C50700008A
S1130240C5070000C5070000C5070000C50700007A
S1130250C5070000C5070000C5070000C50700006A
S1130260C507000010B5054C237833B9044B13B10E
S11302700448AFF300800123237010BD4C05002017
S1130280000000002C5D00000C4B43B10C480D49EC
S113029010B5AFF300800C48036823B910BD0A48B9
S11302A0036833B97047094B002BF7D0BDE8104001
S11302B01847064B002BF5D0184700BF000000007C
S11302C02C5D0000500500202C5D000000000000A3
S11302D000207047024B1B6801225A7400207047AB
S11302E068050020024B1B6801221A740020704725
S11302F0680500204369B3F1FF3F01D040697047AE
S113030010B5044603685B6998476061606910BD75
S113031010B582B002AB03F8011D026854680122D3
S11303201946A04702B010BD427C02F0FF030AB197
S1130330037CDBB21846704710B582B0ADF80400F8
S113034010F0010F02D1002002B010BD05490020B9
S1130350054CA04705490120A047054B1B68012215
S11303601A74F0E7D5020000E5410000E502000040
S11303706805002010B582B00446002343740121AF
S11303800DF10700044B9847637C002BFCD09DF8CB
S1130390070002B010BD00BF7D41000008B5402138
S11303A00148024B984708BD6C050020A541000098
S11303B008B508461146014B984708BDA541000001
S11303C008B5014B984708BDCD41000000224260AA
S11303D04FF47A728260034A02604FF0FF32426146
S11303E0704700BF045A000038B505460D480E4B4F
S11303F098470E4B98470E480E4B98470E4B98471C
S11304000E4903200E4CA0470E490020A0470E4978
S11304100120A04701232B746B740C4CA0470028C7
S1130420FCD038BDAC05002049480000394100002B
S113043000000020B9480000ED4800003903000026
S1130440E5410000D5020000E50200003142000051
S113045008B5014B984708BD3142000000207047A1
S113046061B138B50D4604460846054B98472368E4
S11304705B68024629462046984738BD00207047ED
S11304800158000008B503681B68984708BD0000C0
S113049008B503685B6802220149984708BD00BF9C
S11304A0245A000038B50546034B984704462846AD
S11304B0024B9847204438BD6104000091040000B9
S11304C038B50546034B984704462846024B9847DF
S11304D0204438BD850400009104000070B58AB042
S11304E0044600238DF82430012AD8BF0A220DF1D6
S11304F02306B1FBF2F002FB1011CBB201463546E4
S1130500092BD4BF30333733DBB23370013E0028BC
S1130510EFD155B12846064B984723685B680246DD
S11305202946204698470AB070BD0020FBE700BF6B
S11305300158000070B505460C462AB10A2A08D0B5
S1130540D2B20C4B984770BD03681B68C9B2984778
S113055070BD002903DB0A22064B984770BD2D218C
S1130560054B984706460A2261422846014B9847A4
S1130570304470BDDD0400008504000038B5054634
S1130580034B984704462846024B9847204438BDFD
S1130590350500009104000008B51AB1D2B2044B2D
S11305A0984708BD03681B68C9B2984708BD00BFD7
S11305B0DD0400002DE9F04F83B001909246984687
S11305C09DF8304052464346504641465E4DA8474A
S11305D0002840F0898028F000454FF0FF325B4B43
S11305E050462946584EB04740B94FF0FF32574B5A
S11305F050462946564DA84700287BD04FF060420C
S1130600544B50464146544DA847002878D14FF0EA
S11306106042524B50464146514DA847002875D17F
S113062000220023504641464D4DA847002873D16F
S11306300025A146002C77D00026002049494A4FC6
S113064000224A4BB8470136F6B24E45F8DB024663
S11306500B4650464146464EB04706460F46454B6C
S113066098478046444B984702460B4630463946E5
S1130670424EB04706460F460A224146DDF8049032
S113068048463F4B984780462E2148463D4B984765
S113069040440544013CE4B2DFF8FC90DFF8D4A008
S11306A00022324B30463946C84706460F46D047EB
S11306B083460A2201460198314B98470544631E3C
S11306C0A046DCB258462C4B984702460B463046AF
S11306D039462A4EB04706460F46B8F1000FDFD11F
S11306E0284603B0BDE8F08F27490198274B984767
S11306F00546F5E726490198244B98470546EFE758
S113070024490198214B98470546E9E72149019876
S11307101E4B98470546E3E72D210198194B98474E
S1130720054608F1004884E700220E4B5046414636
S11307300F4CA0470F4B98470A2201460198104BD3
S113074098470544CCE700BF45530000FFFFEF7F07
S113075009530000FFFFEF4131530000FFFFEFC1D9
S1130760F55200000000E03F655000000000244006
S1130770AD4A000071530000254D0000A94A000055
S11307809905000085040000285A00006104000057
S11307902C5A0000305A0000114E000030B583B0CE
S11307A005469DF8181000910449884704462846D8
S11307B0034B9847204403B030BD00BFB50500008B
S11307C091040000FEE7000008B5174B174A9A424F
S11307D010D0174B144A9A420CD2013B9B1A23F0B7
S11307E0030304331344114951F8040B42F8040B76
S11307F09A42F9D10F4B104A9A420AD2013B9B1AF2
S113080023F0030304331344002142F8041B9342EE
S1130810FBD10A4A0A4B23F07F039360094B9847A4
S1130820094B9847FEE700BF000000202C5D000044
S11308304C050020840A00204C05002000ED00E057
S113084000000000CD5500004D080000F0B58BB04D
S11308501B4B984703A81B4B984703A81A4B984770
S11308601A4D1B4E1B4F02E064201B4B984703A8F4
S1130870A8470028F8D003A8B04704462128F3DD90
S11308800A22014603A8B847E1B203A8134B9847CC
S113089004EBD4746010124B9847124B9847022310
S11308A0009302460B4603A80F4988470F4903A843
S11308B00F4B98470F4903A80F4B9847D4E700BF45
S11308C0FD080000CD030000E9030000510400000E
S11308D0750300007D050000990F0000C1040000AD
S11308E025550000694D00009D070000345A0000A2
S11308F0A5040000405A00006104000008B5024B42
S11309009847024B984708BD350E0000794A00000D
S113091008B54022054BC3F8AC20054A936943F05F
S113092080039361034B984708BD00BF001C00403F
S113093000080040B90F0000284B10225A619A6049
S113094002F180429A624FF04041996293F8442048
S113095002F0FE0242F0010283F8442093F83220B0
S113096002F0F00242F0030283F8322020225A619E
S11309709A6002F180429A62996293F8452002F0EB
S1130980FE0242F0010283F8452093F8322002F07F
S11309900F0242F0300283F8322040225A6002F102
S11309A0804202F500329A620D4A9A6293F8462018
S11309B002F0FB0283F8462093F8462002F0FE0280
S11309C042F0010283F8462093F8332002F0F0024B
S11309D042F0030283F83320704700BF00800041D7
S11309E0000002C0064B4022C3F89C204322C3F8F7
S11309F08C20044A536943F480535361704700BF09
S1130A00001C00400008004008B5044B9847044906
S1130A100448054B9847054B984708BDE509000075
S1130A20003000406809002065100000390900000A
S1130A30284B01225A619A6002F180429A624FF077
S1130A404041996293F8402002F0FE0242F0010214
S1130A5083F8402093F8302002F0F00242F00302C1
S1130A6083F8302002225A619A6002F180429A622D
S1130A70996293F8412002F0FE0242F0010283F8E9
S1130A80412093F8302002F00F0242F0300283F844
S1130A9030204FF480225A600F4A9A6202F10042D9
S1130AA004329A6293F8522002F0FB0283F8522037
S1130AB093F8522002F0FE0242F0010283F8522021
S1130AC093F8392002F0F00242F0020283F8392050
S1130AD0704700BF0080004100000240064B4022E6
S1130AE0C3F8A0204322C3F88C20044A536943F47A
S1130AF000535361704700BF001C004000080040D1
S1130B0008B5044B984704490448054B9847054BDE
S1130B10984708BDDD0A0000003400408009002029
S1130B2065100000310A0000164B93F8562002F0BD
S1130B30FB0283F8562093F8562002F0FE0242F09E
S1130B40010283F8562093F83B2002F0F00242F0B1
S1130B50020283F83B2093F8572002F0FB0283F84B
S1130B60572093F8572002F0FE0242F0010283F866
S1130B70572093F83B2002F00F0242F0200283F842
S1130B803B20704700800041064B4022C3F8E02020
S1130B904322C3F88C20044A936943F4806393612D
S1130BA0704700BF001C00400008004008B5044B1B
S1130BB0984704490448054B9847054B984708BD96
S1130BC0890B000000400141000A002025100000AC
S1130BD0290B00002F4B4FF48072C3F89420C3F804
S1130BE0882002F18042C3F8A8204FF04041C3F8A6
S1130BF0A81093F8C82002F0FE0242F0010283F824
S1130C00C82093F8B42002F0F00242F0030283F803
S1130C10B4204FF40072C3F89420C3F8882002F182
S1130C208042C3F8A820C3F8A81093F8C92002F0A2
S1130C30FE0242F0010283F8C92093F8B42002F0C6
S1130C400F0242F0300283F8B4204FF48062C3F8FC
S1130C50842002F1804202F50032C3F8A8200E4A33
S1130C60C3F8A82093F8CA2002F0FB0283F8CA2034
S1130C7093F8CA2002F0FE0242F0010283F8CA206F
S1130C8093F8B52002F0F00242F0030283F8B52095
S1130C90704700BF00800041000002C0064B4022A4
S1130CA0C3F808214322C3F88C20044A136A43F092
S1130CB001031362704700BF001C0040000800409D
S1130CC008B5054B98474FF086410448044B9847B4
S1130CD0044B984708BD00BF9D0C0000500900203C
S1130CE065100000D50B00001E4B4FF080729A6017
S1130CF04FF0804199621C4898625A6193F85820D9
S1130D0002F0FB0283F8582093F8582002F0FE0208
S1130D1042F0010283F8582093F83C2002F0F002DC
S1130D2042F0070283F83C204FF000729A60996207
S1130D300E4999625A6193F8592002F0FB0283F834
S1130D40592093F8592002F0FE0242F0010283F880
S1130D50592093F83C2002F00F0242F0700283F80D
S1130D603C20704700800041000100C0000200C028
S1130D704222074BC3F8A820A3F5A0531A6942F4F2
S1130D8080621A619A6942F001029A61704700BF59
S1130D90001C004008B5034B9847034B9847034B8E
S1130DA0984708BD710D0000DD140000E90C000037
S1130DB0104B93F8CD2002F0FE0242F0010283F8BA
S1130DC0CD2093F8B62002F00F0242F0700283F8AF
S1130DD0B62093F8CC2002F0FE0242F0010283F820
S1130DE0CC2093F8B62002F0F00242F0070283F818
S1130DF0B62070470080004108B5084A136943F4DF
S1130E00802313614122064BC3F8F02005490648AC
S1130E10064B9847064B984708BD00BF00080040A2
S1130E20001C00400004004298090020490F000003
S1130E30B10D000038B5284B9847284B4FF00042BD
S1130E40C3F89820C3F888204FF08041C3F8A81055
S1130E50234AC3F8A82093F8DF2002F0FE0283F8A7
S1130E60DF204FF48022C3F81421C3F80821C3F80B
S1130E7028111C4AC3F8282193F8522102F0FE02DB
S1130E8083F85221184B9847184C636943F4007354
S1130E906361174B9847024616491748174DA847F0
S1130EA0174B9847174B9847174B9847174B98473A
S1130EB0636943F4804363614A22154BC3F8A42059
S1130EC0144B9847024614491448A847144B9847B2
S1130ED0144B984738BD00BFC91A00000080004178
S1130EE0008000C0040000C0110900000008004098
S1130EF0191F000000240040C00900204512000012
S1130F00090A0000010B0000AD0B0000C10C000039
S1130F10001C0040E92B000000380040E0090020DC
S1130F20950D0000F90D000008B5C36903B1984799
S1130F3008BD08B5036A03B1984708BD08B5436AFC
S1130F4003B1984708BD000038B50D460446A0B16A
S1130F50081C18BF0120412209490A4B9847294619
S1130F602046094B9847034628B9084A6260084A54
S1130F70A260084AE260184638BD0020EBE700BFD3
S1130F80505A00005918000001190000290F0000F0
S1130F90330F00003D0F000010B5044B1C68044BD8
S1130FA0984701462046034B984710BDEC050020A6
S1130FB0A51A0000C11A000008B5014B984708BDE6
S1130FC0311B000010B584B014460389ADF8043019
S1130FD002924FF40043ADF80630039101A914388E
S1130FE0034B9847002808BF204604B010BD00BF3B
S1130FF0C520000010B584B014460389ADF8043050
S1131000029248F20103ADF80630039101A91438A5
S1131010034B9847002808BF204604B010BD00BF0A
S1131020C520000038B50D4604465E22084900304C
S113103018BF0120074B984729462046064B98477E
S1131040034618B9054AA261054A6261184638BDCB
S11310506C5A00005918000095200000F50F00009C
S1131060C50F000038B50D460446B8B1081C18BFBA
S1131070012040220A490B4B9847204640F8045F60
S11310802946094B9847002807DB4FF40043A38205
S1131090064B2361064BE360002038BD0020E8E7DF
S11310A0885A000059180000E125000031110000A1
S11310B0F510000030B585B00C46054690B1081C0B
S11310C018BF0120B3220849084B984723680193AD
S11310D063680293A368039301A9281D044B9847EE
S11310E005B030BD0020EDE7885A00005918000013
S11310F07927000070B584B00E4615460446A32235
S11311000849003018BF0120074B98470023029379
S11311100196039501A9A4F10C00044B984704B06F
S113112070BD00BF885A000059180000B5100000B7
S113113070B584B00E46154604468722084900302F
S113114018BF0120074B984702960023019303958B
S113115001A9A4F10C00044B984704B070BD00BF72
S1131160885A000059180000B5100000F8B58446EC
S113117007682FB18D683C460026C2F1010E0BE0D2
S11311800E4B9847F8BD7344A0680344AB420AD29F
S11311902368264653B11C4663689342F3D8A0687B
S11311A003449B1AF2E7A74204D034462046044B7A
S11311B09847F8BD6046014B9847F8BD8118000078
S11311C0AD1800002DE9F04744690769013707614C
S11311D0037E13F0010F13D1037E13F0020F0FD11E
S11311E054B36368FB1AA268934207D3064600F11E
S11311F01408DFF84890DFF848A012E0BDE8F08753
S1131200037E43F002030376BDE8F0877569E36863
S11312102046984785B12C466B68FB1AAA6893420E
S11312200AD34046C847237C012BEFD167603A4676
S113123021464046D047E9E7BDE8F087F5180000AD
S11312406D11000070B50E461546044690B199B173
S1131250101C18BF01203B220849094B984720461F
S113126040F8045B2B683146984700206061054BC9
S1131270636070BD0020EEE70020ECE7A45A000094
S113128059180000C51100000F4B5978884218D036
S113129030B41A46002300F00F0507E001335BB2B7
S11312A0042B09D020325178814207D01478002CC5
S11312B0F4D18D42F2D101E04FF0FF33184630BC37
S11312C07047002318467047F0050020002070473F
S11312D038B504460D46094B9847094B03EB4013B8
S11312E09B78032B01D0002038BD054B03EB401045
S11312F0836929462046984738BD00BF89120000FB
S1131300F0050020F0B585B006460D4617464D4B56
S113131098470446002D5BD14B4A4301D118002065
S1131320C870D35C73B1484B03EB441301229A7029
S1131330454800EB4410C3693A46C17830469847A3
S113134005B0F0BD8B78032B0BD03F4800EB441263
S11313501446D3690C320021607898470223A370A5
S1131360EEE70B4691F90C500A46CE690C32012186
S11313705878B047A0B1344B03EB441305229A705C
S11313800222DA70002D09DB2F4800EB441040786C
S113139040F0800001212D4B9847D1E75878F9E7B8
S11313A0294800EB441004238370437800220192FF
S11313B002929542ACBF43F0800303F00F038DF813
S11313C00C3001238DF80D3001A8214B9847B7E765
S11313D0012D0AD0022D1CD0032D2AD01A4B03EB69
S11313E0401306229A70DA70A2E7174A4301D11813
S11313F00220C870D35C2BB1134B03EB44130522BA
S11314009A7095E70B469870002130460F4B984729
S11314108EE70D4A4301D1180420C870D35C2BB168
S1131420094B03EB441301229A7081E702238B706A
S113143086E7054B03EB401300229A700522DA700D
S113144076E700BF89120000F0050020913A000001
S1131450393C00002DE9F04105461C4B98470646EF
S11314601B4C04EB40140C3421462846194B984776
S1131470C0B2082809D001212846174CA0470121F1
S113148045F08000A047BDE8F08100212846124FB6
S1131490B84745F0800800214046B8470C4B03EBA1
S11314A0461301229A705B6921462846984708B181
S11314B0BDE8F081064B03EB46160523B37001210A
S11314C02846B84701214046B847F1E78912000091
S11314D0F0050020D93B0000913A000010B5114BF3
S11314E0984700281CDB104C8022002120460F4B1B
S11314F09847234604F18000FF210D4A59705A6130
S11315009A61DA6120338342F8D10A4900200A4CF7
S1131510A0470A490120A04709490220A04700200A
S113152010BD00BF85340000F005002051570000B5
S1131530CD12000055140000793E0000D1120000C5
S11315400513000008B5014B984708BD553E00003F
S113155008B5014B984708BD8135000008B5014B1B
S1131560984708BDED35000008B5014B984708BD04
S1131570FF350000F8B506460C4617460F4B984752
S1131580002814DAFF200D4B9847051E12DB3A465B
S1131590214630460A4B984700280DDB094B680169
S11315A01A18567004F003041C540020F8BD6FF0A0
S11315B01300F8BD6FF01400F8BD00BF89120000DD
S11315C00D360000F005002008B50246002108464B
S11315D0014B984708BD00BF7515000038B5054696
S11315E0064B9847041E07DB2846054B98470548D9
S11315F000EB4410FF23437038BD00BF8912000084
S113160025370000F005002038B505460E4B9847F5
S1131610041E16DB63010D4AD35C002B0CBF0222AF
S113162001220A4B03EB44139A702846084B98474F
S1131630002800DB38BD054B03EB44140023A370E2
S113164038BD6FF01100F5E789120000F0050020A5
S1131650E93700002DE9F04786B00446077A38469A
S11316603F4B9847657AD4F80480061E72DB04A8C1
S11316703C4B98473C4B03EB46139B788DF8173053
S11316809DF81730DBB2012B11D004A8374B9847D3
S11316909DF81730DBB2052B5FD0062B23D0002B2F
S11316A00CBF6FF01200012006B0BDE8F087DFF830
S11316B0B8A04FEA46190AEB090303229A7004A85A
S11316C02A4B98471AF8093083B1227A003518BF9B
S11316D0012523680193CDF8088017F0800F19D1F4
S11316E002F00F0318E06FF00F00DDE71E4B03EB71
S11316F04613DA7C9D7C05EB0225ADB2A5B91A4BE5
S113170003EB46160423B37000230125227A2168D3
S11317100191029342F080038DF80C308DF80D5046
S113172001A8134B9847BFE74346A84528BF2B465B
S11317300D4A02EB461696F90C20002A05DB227AA4
S11317402168019102930025CAE79D4294BF0025B8
S11317500125DBE76FF01100A6E70220A4E700BF34
S113176089120000854A0000F0050020934A000019
S1131770393C000038B50546074B9847041E09DB81
S11317802846064B9847064800EB44100123837013
S11317900423C37038BD00BF89120000193E000045
S11317A0F005002038B5044641B101290CBF0121E0
S11317B00221134B98470346184638BD114B9847EE
S11317C0051E19DB022120460D4B984703460028CD
S11317D0F2D0002120460A4B9847031EECDB0A4B4B
S11317E003EB451301229A700321D970DB690022AF
S11317F0204698470023DFE76FF01103DCE700BFC2
S1131800913A000089120000F005002038B50D4619
S113181014460E4B98470E4B002C08BF1C4600285C
S113182013DB012D08D015B1022D0AD038BD094BA8
S113183003EB4010446138BD064B03EB4010846158
S113184038BD044B03EB4010C46138BD891200005D
S1131850CD120000F005002000B900BE70470368F7
S11318604BB18B4209D01B681BB19942FBD10120BB
S11318707047002070470020704701207047000027
S113188038B504460D46064B984780F001003922CE
S11318900449C0B2044B984723682B60256038BDC7
S11318A05F180000BC5A00005918000003680B6060
S11318B00160704770B505460E4604680A4B9847A8
S11318C080F001004F220949C0B2094B98472B68A8
S11318D01BB92E60336070BD1C462368002BFBD1FE
S11318E02660336070BD00BF5F180000BC5A000062
S11318F05918000003680BB11A6802601846704753
S113190030B401608B6943F001038B610268936911
S113191013F0010FFBD0936943F002039361344B3E
S1131920994211D00268936923F00203936102681B
S1131930936923F0010393610268936913F0010F23
S1131940FBD1002030BC70472A4B1A4642F8040BE6
S11319502949816101688C698C61016800248C606B
S11319600168264DCD61016840F63325CD600568D8
S1131970234989B241F40031C5F8A0100168C1F8C7
S1131980BC400168C1F8C84005681E4989B241F0ED
S11319900071C5F8C010016892B242F40032C1F877
S11319A0F02002682821C2F88010016803F11402B3
S11319B092B242F40032C1F8842002681C339BB214
S11319C043F40033C2F888300368C3F890400E4BE8
S11319D04FF40042C3F88820BFF34F8FBFF36F8FDB
S11319E0C3F888219A6003680122DA659AE700BF88
S11319F0000400427006002060000020070A02066E
S1131A00400A0020200A002000E100E038B51D4B08
S1131A101D682B681C6D14F0010F1CD114F4007F99
S1131A201DD114F0007F1ED114F0807F20D114F456
S1131A30000F0AD0EA682B685B6CC3F34013002BD9
S1131A4014BF022101212846904714F0080F14D135
S1131A502B681C6538BDAB6828469847DEE76B6881
S1131A6028469847DDE7EB68032128469847DBE7DB
S1131A70EB68002128469847D9E7EB6804212846FB
S1131A809847E5E770060020430900F01F00012293
S1131A9002FA00F04033024A42F82300704700BFC4
S1131AA000E100E0C0EB0010C30002330348A0FBD8
S1131AB003235B08642000FB03F07047ABAAAAAAC7
S1131AC00139FDD8704700BF10B5124A13889BB284
S1131AD01380114B9847114B9847114B98474FF47B
S1131AE08060104CA047104B984740F6FF30A04749
S1131AF00E4BDA6ADA62D3F8AC20C3F8AC20D3F820
S1131B002C2142F08F02C3F82C21D3F8AC21C3F866
S1131B10AC2110BD004000412D1C00004D1C0000F4
S1131B20211C00008D1B0000691C00000080004186
S1131B3030B4144800F143050346134C1A1A13F841
S1131B40011B483244F82210AB42F7D10D4800F192
S1131B5042048030002134F8023FCA0002F182427C
S1131B6002F56042136250F8043FDBB282F825307C
S1131B70DB43DBB282F8243001312029EBD1002091
S1131B8030BC7047DC5A000000E0004110F0010F47
S1131B9008D01D4A1D4B1A62194643F6FD724B6864
S1131BA01342FCD110F0020F08D0194A174B5A62A5
S1131BB0194643F6FD724B681342FCD110F0040F32
S1131BC008D0144A114B9A62194643F6FD724B68C9
S1131BD01342FCD110F4806F08D00F4A0B4B9A6467
S1131BE0194643F6FD724B681342FCD110F4006FA2
S1131BF008D00A4A054BDA64194643F6FD724B686D
S1131C001342FCD1704700BF01010100001C0040D9
S1131C10080904000609010005090100040901007E
S1131C200122014B5A71704700080040064B42F2F2
S1131C3086029A8200229A75DA75D96901F47C5178
S1131C40D9611A74704700BF00140040044A054B60
S1131C509A611A46136913F0020FFBD0704700BF54
S1131C600626000300100040444A136A23F00F03C1
S1131C7043F004031362114643F6FD724B681342AA
S1131C80FCD13E4A536813F0040FFBD13C4B0022B5
S1131C901A773C4A9A621A4692F82C3013F0100FC5
S1131CA0FAD10022364B83F820201A4692F82C30C1
S1131CB013F0040FFAD10222314B1A771A4692F824
S1131CC02C3013F0020FFAD12D4B5A6A5A621A467D
S1131CD092F82C3013F0080FFAD11922284B83F80C
S1131CE020201A4692F82C3013F0040FFAD1264A19
S1131CF0234B9A641A46136D13F0060FFBD1204B45
S1131D002022DA64022283F844201A46136D13F069
S1131D10020FFBD11A4B93F8203013F0010F26D099
S1131D20174A136903F41063B3F5106FF9D1144B18
S1131D305A6D12F0010F03D15A6D12F0020FF7D051
S1131D400E4A5368002BFCD10C4A136A23F00F038C
S1131D5043F001031362114643F6FD724B681342CC
S1131D60FCD1064A536813F0040FFBD17047044AB0
S1131D70136913F4807FFBD0D9E700BF001C004037
S1131D800010004080BB0104A0070400C268116277
S1131D90136913F0600FFBD17047C268136913F025
S1131DA0600FFBD1106A7047C26848F203011369DF
S1131DB00B42FCD11088C0F340007047704700000C
S1131DC038B50C46054630221749003018BF0120AB
S1131DD0164B9847EC600123238048F203022369E1
S1131DE01342FCD1EA68136913F0010FFBD14FF4DD
S1131DF080735360EA6848F28003138048F2030159
S1131E0013690B42FCD1EA684FF4806313621369CF
S1131E1013F0600FFBD1EB684FF480725A81044BCE
S1131E201D60002038BD00BFE05B000059180000B1
S1131E309C06002010B50446C8B1C068003018BF25
S1131E40012052220B490C4B98474FF400620B4B74
S1131E50C3F88020BFF34F8FBFF36F8FE268012375
S1131E60138048F2030113690B42FCD110BD00201A
S1131E70E7E700BFE05B00005918000000E100E064
S1131E8010B5044610B3C068003018BF01205E22AC
S1131E900F49104B98474FF400620F4B1A60E268E9
S1131EA000239361136913F0080FFBD1E3681A69E7
S1131EB012F0080FFBD11A8892B242F002021A8083
S1131EC048F203011A690A42FCD110BD0020DEE782
S1131ED0E05B00005918000000E100E010B5044682
S1131EE0A0B1C068003018BF01206B220849094B1B
S1131EF09847E268138823F002031B041B0C138029
S1131F0048F2030113690B42FCD110BD0020ECE739
S1131F10E05B00005918000000487047740000207E
S1131F2010B5084B1C68E3689B8913F4807F07D0C5
S1131F3023680BB120469847E3684FF480729A8176
S1131F4010BD00BF9C06002070B489B006466C46E4
S1131F500D4D0FCD0FC495E80F0084E80F00009BD2
S1131F60B3420DD0314601AB012053F8042B8A4211
S1131F7007D001300828F8D1002009B070BC7047A0
S1131F800020C0B2F9E700BFF85B000008B5074BBA
S1131F909847032808D040F2A63205490020054B93
S1131FA098474FF0FF3008BD002008BD491F0000CE
S1131FB0645C00005918000038B505460C46084614
S1131FC0324B9847C0B2E36913F0010F22D100EB02
S1131FD040032F4A02EBC3035A6A02F01C02E3696E
S1131FE013F0030FFBD1236813F0020F0BD0236807
S1131FF023F002032360E36913F0030FFBD1E369C9
S113200013F0020FFBD142F001022260E36913F0E6
S1132010030FFBD1E36913F0010FFBD100EB400385
S11320201B4A02EBC3035A6A2260E36913F0030FED
S1132030FBD100EB4003164901EBC3039B6A6360C9
S1132040E36913F0040FFBD100EB4003104901EBEB
S1132050C303DB6AE360C2F30163AB81626A22F407
S11320608042012B94BF0023012342EA833363623D
S1132070E36913F0040FFBD100EB4000044B03EBC6
S1132080C000438EEB81002038BD00BF8D1F0000CF
S1132090F85B000038B50D4604464FF4A3620649C8
S11320A0003018BF0120054B98472561294620467A
S11320B0034B984738BD00BF645C0000591800000A
S11320C0B91F00002DE9F84305460E46046910F1D6
S11320D0000818BF4FF00108DFF8C4924FF4BA6249
S11320E049464046AD4FB847286940F2D152494667
S11320F0003018BF0120B84740F2D2524946301C84
S113210018BF0120B8476B8813F4807F40F0188211
S113211073889BB243F48073738096E8070085E864
S11321200700636843F480736360E36913F0040F8A
S1132130FBD12F69D7F8009040F2A5529849404648
S1132140964B98476B68012B5ED07B6823F4802301
S11321507B60FB6913F0040FFBD12B8813F4806FB1
S11321605ED06A8812F0010F04D06A8892B242F4F9
S113217080626A8040F2FE7202EA4302FB6913F055
S1132180040FFBD17B6A03F4804343F400431343FD
S11321907B62FB6913F0040FFBD129690B7EDBB270
S11321A04FF6FF7213F0030F03D10B7EDBB2013A3B
S11321B0F8D13968FA6912F0040FFBD17A8B92B224
S11321C013F0010F00F0A38012F0020F3CD00123A2
S11321D03B766B889BB243F480536B806B8823F40B
S11321E080731B041B0C6B8002F00102002A14BFD5
S11321F06FF004006FF003006B8823F480731B04FA
S11322001B0C6B80BDE8F88319F0006F9DD07B68D0
S113221043F480237B60FB6913F0040FFBD19CE73C
S113222069885A00D2B201F001031A43FB6913F022
S1132230040FFBD17B6A03F480431A437A62FB697F
S113224013F0040FFBD1A8E712F0040F1DD16B8823
S113225013F4806F37D02B88DB0903F00602FB6987
S113226013F0040FFBD17B6A03F4804343F0F103C2
S113227013437B62FB6913F0040FFBD16B8823F4D7
S113228080631B041B0C6B8069E06B68002B04DD0E
S11322906B889BB243F480536B806B8813F4004FBC
S11322A008D16B8823F480731B041B0C6B806FF0C4
S11322B00100A1E77B6843F440337B60FB6913F0C2
S11322C0040FFBD1EDE76B689BB96B8813F4004FE7
S11322D006D16B8823F480731B041B0C6B803EE0D7
S11322E07B6843F440337B60FB6913F0040FFBD13C
S11322F0EFE7AB681B78BB62FB6913F0040FFBD1FB
S1132300AB680133AB606B68013B6B6027E013F093
S1132310020F24D06B68002B3AD012F0040F37D18F
S1132320C1F3C061013B6B60002B40F00D810029BB
S113233000F010816B8813F4004F18D16B8823F4DC
S113234080731B041B0C6B80AA68531CAB60FB6975
S113235013F0040FFBD1BB6A137002233B760022F7
S1132360104602276FF0010C4FF0010EB0E07B68BD
S113237023F480737B60FB6913F0040FFBD17B684B
S113238043F440337B60FB6913F0040FFBD1D5E7C2
S113239002233B766FF001002EE700BF59180000BE
S11323A0645C0000636843F440336360E36913F0E2
S11323B0040FFBD1A1E012F0040F1ED16B8813F4BB
S11323C0806F37D02B88DB0903F00602E36913F032
S11323D0040FFBD1636A03F4804343F0F103134316
S11323E06362E36913F0040FFBD16B8823F4806309
S11323F01B041B0C6B8002466AE06B68002B04DD37
S11324006B889BB243F480536B806B8813F4004F4A
S113241007D16B8823F480731B041B0C6B8062460A
S113242056E0636843F440336360E36913F0040FD8
S1132430FBD1EEE76B68A3B96B8813F4004F07D1A7
S11324406B8823F480731B041B0C6B8002463FE0F3
S1132450636843F440336360E36913F0040FFBD112
S1132460EEE7AB681B78A362E36913F0040FFBD1BA
S1132470AB680133AB606B68013B6B60024627E0DD
S113248013F0020F57D06B68002B51D012F0040FD9
S11324904ED1C1F3C061013B6B60002B40F08C80D6
S11324A0002900F08F806B8813F4004F2FD16B88C4
S11324B023F480731B041B0C6B80AA68531CAB6051
S11324C0E36913F0040FFBD1A36A13702776024665
S11324D06B8813F4807F30D029690B7EDBB24FF612
S11324E0FF7213F0030F42D10B7EDBB2013AF8D135
S11324F0738813F4004F7FF455AF6B8823F4807313
S11325001B041B0C6B806FF00400BDE8F883636848
S113251023F480736360E36913F0040FFBD16368F1
S113252043F440336360E36913F0040FFBD1BEE767
S113253027766246CCE70246CAE71046BDE8F88330
S11325406FF00500BDE8F883012B7FF4FDAE002990
S11325503FF4FAAE7B6843F480237B60FB6913F09D
S1132560040FFBD16B68002B3FF4E4AEECE621686A
S1132570E26912F0040FFBD1628B92B213F0010FE7
S11325803FF47EAF12F0020F3FF415AF84F818E069
S11325906B889BB243F480536B806B8823F4807305
S11325A01B041B0C6B8002F00102002A14BF6FF0A5
S11325B004026FF003028BE7012B7FF47EAF002946
S11325C03FF47BAF636843F480236360E36913F0F3
S11325D0040FFBD16B68002B3FF465AF6DE700BFC0
S11325E070B506460C4608465F4B9847002872D0E3
S11325F001286ED0042808BF02256DD0002E00F0FB
S1132600A180002C40F0A7800025002040F63C1259
S11326105649574B9847002D00F09180E36913F019
S1132620010F1DD12B6803F01C02E36913F0030FA3
S1132630FBD1236813F0020F0BD0236823F00203AD
S11326402360E36913F0030FFBD1E36913F0020F76
S1132650FBD142F001022260E36913F0030FFBD1C6
S1132660E36913F0010FFBD134602B6803F01C0302
S1132670082B3BD040F606123C49201C18BF012011
S11326803B4B98472B6823F4817323F001032360A9
S1132690E36913F0030FFBD16B6823F4383323F49D
S11326A0107343F400336360E36913F0170FFBD135
S11326B02B7B23736B7B84F830306B6803F0070348
S11326C0002B0CBF012302233371EB89F38000201C
S11326D070BD012500E0002505EB0515254B1D44C3
S11326E0002E92D00120002C90D18EE740F61A12D1
S11326F01E49201C18BF01201D4B98472B6823F44A
S1132700817323F001032360E36913F0030FFBD10A
S11327106B6823F4083323F4107343F4003343F455
S113272010736360E36913F0170FFBD1AB68636246
S11327306B7B84F83030E369002BFCD1BDE76FF08C
S11327400C0070BD40F63C1208490020084B984725
S11327506FF00C0070BD40F63C1204490120044B9C
S113276098476FF00C0070BD491F0000645C0000C6
S113277059180000305C00002DE9F84381460E46EC
S11327800468D1F800804D680779A8B1201C18BFEF
S113279001204FF42A622E492E4B9847E36913F027
S11327A0070F34D1E06910F00300FBD1236813F064
S11327B0020F30D0024608E00020EAE7013213F0AD
S11327C0800F12D1B36883421ED9237EDBB213F08B
S11327D0040F24D0A16A002DF0D02970012F91BFDD
S11327E00135090A69700235E8E74FF6FF73638320
S11327F0802323766FF01200237E13F0030FFBD0A7
S113280003232376BDE8F8839342DED8F4E76FF020
S11328100300BDE8F8836FF01300BDE8F88390422D
S1132820CDD813F0010FCAD0B9F80610B8F1000FD3
S11328300BD098F80010012F91BF08F1010898F807
S113284001E041EA0E2108F102080130A162B6E775
S1132850645C000059180000C268136843F0020366
S11328601360136913F0030FFBD17047C268136838
S113287023F002031360136913F0030FFBD17047B5
S1132880C3681A68C2F38102022A0AD01A6812F0D5
S11328900C0F0CD189B299831A6912F0C00FFBD1C5
S11328A07047D9611A6912F0C00FFBD170471A68DA
S11328B0C2F38102012A00D07047C9B2D9761A69DD
S11328C012F0200FFBD1F7E7C3681A68C2F3810244
S11328D0022A0AD01A6812F00C0F0CD11A6912F0ED
S11328E0C00FFBD1988B80B270471A6912F0C00FE9
S11328F0FBD1D86970471A68C2F38102012A01D05A
S1132900002070471A6912F0200FFBD1D87EC0B2A4
S11329107047C268136913F0030FFBD11068C0F34A
S11329204000704770B588B006466C46124D0FCD16
S11329300FC495E80F0084E80F00009BB3420BD04E
S1132940304601AA012352F8041B814205D0013309
S1132950082BF8D100200BE0002313F0FF0F09D05F
S113296040F2491205490020054B98474FF0FF30CB
S113297008B070BD0020FBE7805C0000B45C000080
S11329805918000070B506460C460846604B984737
S11329900546F4609A225F4901205F4B98472369FA
S11329A013F0010F19D1236913F0030FFBD123682E
S11329B013F0020F0BD0236823F002032360236972
S11329C013F0030FFBD1236913F0020FFBD1012392
S11329D02360236913F0030FFBD1236913F0010F64
S11329E0FBD105EB85034D4A02EB83035A6A22604F
S11329F0236913F0030FFBD105EB8503474901EB72
S1132A00830393F82A10E1731B8DE380012323735E
S1132A1002F00C02082A48D0002A58D105EB85039D
S1132A203E4A02EB83039B8DA383236913F0C00FFB
S1132A30FBD10023E383236913F0C00FFBD10123EF
S1132A406372374B9C4204BF364B1E6005EB850313
S1132A50324A02EB8303B3F92230002B23DB5A09F9
S1132A6003F01F03012101FA03F320322E4941F838
S1132A702230BFF34F8FBFF36F8F05EB8505274BD4
S1132A8003EB8505B5F92230002B0CDB590903F063
S1132A901F03012202FA03F3234A01F1600042F802
S1132AA0203042F82130002070BD05EB85031B4A1D
S1132AB002EB8303DB6AE361236913F0C00FFBD1EC
S1132AC000232362236913F0C00FFBD1B7E7042A64
S1132AD0B5D105EB8503114A02EB830393F82C303F
S1132AE02377236913F0C00FFBD100236377236995
S1132AF013F0C00FFBD105EB8503084A02EB8303F7
S1132B0093F82B30E376236913F0200FFBD196E77B
S1132B1025290000B45C000059180000805C000006
S1132B2000380040A006002000E100E038B5C46889
S1132B302046184B98470546C72217490120174BD2
S1132B40984705EB8505164B03EB8505B5F922304F
S1132B50002B0DDB5A0903F01F03012101FA03F3D3
S1132B602032104941F82230BFF34F8FBFF36F8FEB
S1132B70236823F002032360236913F0030FFBD1BE
S1132B80236843F001032360236913F0010FFBD191
S1132B9038BD00BF25290000B45C000059180000AE
S1132BA0805C000000E100E010B5C068094B984764
S1132BB004464FF48E7208490120084B984704EBF1
S1132BC08404074B03EB840494F82200054B9847D4
S1132BD010BD00BF25290000B45C00005918000096
S1132BE0805C0000891A00000048704794000020AF
S1132BF008B5064B1868C3689A7A12F0010F00D121
S1132C0008BD01229A7203689847F9E7A0060020DC
S1132C100020704738B5837C03F00F03C27C02F0B8
S1132C20070101290BD05A0102F18242102182F8D6
S1132C3007115B0103F1824383F8081138BD12F0D8
S1132C40400F0CD0C27C6FF38612C2745A0102F199
S1132C508242802182F80411402182F80511C27C4D
S1132C606FF3C302C27409495A018C180025A57276
S1132C70A57602F182436F2483F8074102F1824270
S1132C8082F808418B6E807C984738BDA4060020EA
S1132C9008B5202303FA01F1C9B2837C03F00F03C2
S1132CA05B0103F1824383F80811034B1B6F8268B5
S1132CB00121807C984708BDA406002038B5847C97
S1132CC0FF2C03D0C37C13F0400F00D138BDC27C6D
S1132CD06FF38612C274034A156F82682046A847B0
S1132CE0F4E700BFA406002030B583B0837C25241C
S1132CF08DF804404A248DF80540FF2B1ED0C47C77
S1132D0014F0400F1AD003F00F04C9B1630103F1AA
S1132D108243802583F804510B4602A90B4413F81F
S1132D20041C630103F1824383F80711630103F177
S1132D30824383F808111146054B984703B030BD10
S1132D40630103F18243402583F80551E4E700BFA2
S1132D50BD2C000030B583B0837C03F00F03042244
S1132D608DF8042008228DF805205A010C4691B3F1
S1132D7002F1824191F80051C5F3021502EB0411EE
S1132D80324A0A44917AC9B2022D2CD011F0020FB2
S1132D9045D0C57C917A6FF34101917202AA224415
S1132DA012F8041C5A0102F1824282F807115B01F5
S1132DB003F1824383F8081105F00703012B43D183
S1132DC0C37C13F0400F3FD0D9098C423CD0002281
S1132DD01F4B984738E0590101F1824191F80051A5
S1132DE005F00705CAE711F0010FCFD0917A6FF310
S1132DF00001917202AA224412F8041C5A0102F141
S1132E00824282F807115B0103F1824383F80811BF
S1132E100422211C18BF01210D4B984714E004EB38
S1132E2043010A4A02EB01120021917202AA1444DE
S1132E3014F8041C5A0102F1824282F807115B0162
S1132E4003F1824383F8081103B030BDA4060020C7
S1132E50E92C00002DE9F0410C4D05F1740405F551
S1132E6094754FF003080A4FFF2641462046B847A1
S1132E70A6740023E3741434AC42F6D160221946DC
S1132E800248044B9847BDE8F08100BFA406002027
S1132E90BD2C0000515700002DE9F0410546847C0B
S1132EA004F00F048846002900F09F80584B03EB80
S1132EB044135869C0F30D0E2B8A40F2FF3293423B
S1132EC000F08D80013B98B2EF7C07F00707B8F162
S1132ED0000F05D0620102F18242022382F8073119
S1132EE0A9680EEB0103AB606E68B3423FD2F61AD9
S1132EF0B6B2EA7C12F0200F2DD02A8A964228BF5F
S1132F001646296832461944E868424B9847EA68ED
S1132F103F4B03EB44131A613D4B03EB44135A69D3
S1132F2066F30D025A615A696FF39B325A61B8F124
S1132F30000F08D1012F0CBF4E224A22630103F176
S1132F40824383F80921640104F18244802384F8D4
S1132F500531BDE8F081B6F5005F28BF4FF4005697
S1132F6029680B442A4A02EB44121361D4E7EB7C30
S1132F7013F0100F0FD0EB7C6FF30413EB74244B9E
S1132F8003EB44135A696FF30D025A615A696FF3E4
S1132F909B325A61CBE7012F4FEA441404F1824477
S1132FA00CBF4B234A2384F808312A8A00EA0E0313
S1132FB09A4205D000212846174B9847BDE8F08176
S1132FC0EB7C6FF38613EB74114BDB6EA968A87C62
S1132FD09847D0B9EB7C43F04003EB74EAE7EF7C0D
S1132FE007F0070740F2FF3074E7038A40F2FF322C
S1132FF0934207D1EF7C07F007074FF0000E40F231
S1133000FF306DE74FF0000E5CE7BDE8F08100BFD4
S1133010A40600201D560000BD2C00002DE9F84F29
S11330200446857C05F00F058946002956D0744B6B
S113303003EB45135A68C2F38D3A5F68C7F30D0773
S1133040BB46068A40F2FF339E4200F0BA80013E3E
S1133050B6B206EA0B0794F8138008F00708B9F132
S1133060000F05D06B0103F18243012283F807218D
S1133070E37C13F0200F0DD06268002A37D0A068DB
S1133080121A92B22368BA4228BF3A46E168184439
S11330905C4B9847636853B3B9F1000F40D0228A60
S11330A0BA423DD9E37C6FF30413E374A3685B4431
S11330B0A360B8F1010F4FEA451303F182430CBF3B
S11330C02D22252283F8082115B9E2684C4B1A6099
S11330D0002120464C4B9847BDE8F88F068A40F201
S11330E0FF339E427BD04FF0000BDA46AFE7E37C20
S11330F013F0100F6CD0E37C03F0EF0343F02003D4
S1133100E374E0683E496A018B188850218A5A6842
S113311061F39B325A605A686FF30D025A601DE0E6
S1133120A2685244A2609342C3D99B1A9BB2E17C29
S113313011F0200F26D0228A934228BF1346E0685C
S11331406A012F4988502E4A02EB4512516863F3F5
S11331509B31516053686FF30D035360B9F1000F55
S113316008D1B8F1010F25D025226B0103F1824368
S113317083F809216D0105F18245402385F8043166
S1133180BDE8F88F218A8B420AD9B3F5005F0ED8C7
S113319023EA060321680A44690119484250D2E728
S11331A08B42F7D2E17C41F02001E174F2E74FF465
S11331B00053EFE7124B03EB451300229A762D22BE
S11331C0D3E7C7F3090790F8138008F0070849E725
S11331D0B9F1000F0BD1A3685344A36069E790F8D9
S11331E0138008F007080027BB46BA4640E7238A45
S11331F0BB423FF657AFA3685344A36059E700BFEF
S1133200A40600201D560000BD2C00002DE9F84343
S11332104FF082431E8CB6B246B1914D0024A5F105
S11332207407DFF85892DFF85882D3E0998B1B8B30
S11332309BB20B4013F0040F1DD113F4007F23D174
S113324013F0800F47D113F0700F4FD113F0080F14
S11332506ED113F0010FE0D04FF0824340F201220F
S11332609A839A8270221A837E4B5B6E002104201B
S11332709847BDE8F88304224FF082439A83794B40
S11332801B6E9847BDE8F8834FF0824340F2012259
S11332909A839A8270221A83724B1B8903F00F035C
S11332A0032B0ED06F4B1B8D03F00F03032B08BFB2
S11332B0012207D000216B4B5B6E03209847BDE8C9
S11332C0F8830022674B03EB42131989C1F30A11F7
S11332D000221A81EFE780224FF082439A83614BE8
S11332E05B6E002105209847BDE8F8834FF08243C8
S11332F070229A839A8240F201221A835A4B93F8DD
S1133300203013F0010F0DD0574A136903F41063F2
S1133310B3F5106FF9D1534B5B6E0021022098472F
S1133320BDE8F883504A136913F4807FFBD0F2E7B9
S11333304FF08243002483F8004108229A837022CC
S11333409A8240F201221A83484B9847454B5B6EA0
S1133350214601209847BDE8F88311F0100F09D1E8
S113336011F0400F08D111F0200F2FD00021404B55
S113337098472BE0C84729E001213D4B984725E0B9
S113338011F0400F11D111F0080F12D111F0020FFA
S113339012D103F00703012B18D111F0040F0FD140
S11333A011F0100F12D0C84710E00121304B98479C
S11333B00CE00121C04709E001212E4B984705E0AC
S11333C00021C04702E00021294B984701341435FD
S11333D0092C42D02846AB7CFF2BF7D003F00F0317
S11333E0012199403142F1D0590101F1824101F5A5
S11333F08071C9795B0103F1824393F80931194063
S1133400E4D004EB840207EB820292F8873003F0E5
S11334104702012AA1D013F0800FB1D111F0200F7F
S1133420D1D111F0040F0ED111F0010F0ED103F020
S11334300703012BCAD111F0080F0BD111F0100FA3
S1133440C4D0C847C2E70021C047BFE701210A4BE7
S11334509847BBE70121C047B8E7BDE8F88300BF40
S113346018070020A406002000100040552E00007C
S1133470912C0000992E00001D300000152C000036
S1133480552D000008B54FF082439B7813F0010FCF
S113349024D14FF08242937813F0030FFBD14FF005
S11334A082431B7813F0020F0FD04FF0824213783F
S11334B003F0FD031370937813F0030FFBD14FF067
S11334C08242937813F0020FFBD101224FF0824322
S11334D01A701A46937813F0030FFBD14FF082420F
S11334E0937813F0010FFBD1214B224A1A665A66D6
S11334F09A66DA661A67204B9847204B1968C1F31D
S11335004413C1F3822211F01F012BD01F2908BFDD
S113351009214BB31F2B08BF19233AB3072A08BF4D
S1133520062203F01F0343EA8113120302F4E0426C
S113353013434FF082421385D37843F00303D370CF
S1133540D37843F00C03D37004231370937813F0EF
S1133550030FFBD14FF08243054A5A6201221A81BC
S1133560002008BD0921D4E71923D6E70622D8E7AD
S1133570A4060020112C0000552E000084008000B9
S11335804FF082439B7813F0030F29D14FF082420E
S1133590937813F0030FFBD14FF082431B78DBB217
S11335A013F0020F08D143F002034FF0824213706C
S11335B0937813F0030FFBD10B4B4FF480329A60D6
S11335C04FF400329A604FF480229A604FF4002244
S11335D09A6040F28D224FF082431A830020704794
S11335E06FF01000704700BF00E100E04FF082422E
S11335F0138923F001031B041B0C1381704740F053
S113360080004FF08243987270470000F0B54FFA83
S113361080FE10F00F054DD0BEF1000FB4BFAC1CFE
S11336202C4601F003012B46022D47D96FF01100FF
S1133630F0BDBEF1000F1BDB03EB4305374E56F81C
S11336402550002D5ED103EB4303344D55F8237010
S1133650334DA600331905EB8303C3F88070A3F838
S11336608420013183F8871083F886000020F0BDA0
S113367003EB4305294E06EB85056D6835B903EB6D
S11336804303264D05EB83035F68E1E703EB430542
S1133690224E06EB85056D899542F0DA6FF0120033
S11336A0F0BD6FF01300F0BD6FF01300F0BD6FF0CC
S11336B01200F0BD01F003010024234604EB84064C
S11336C0174F07EB860696F88660FF2EE9D100298E
S11336D0AFD125B1BEF1000FA4BF0235EDB205EBA9
S11336E085050F4E06EB850595F88650FF2DDBD139
S11336F003EB4305094E56F82550002DD7D0BEF1F3
S1133700000FB5DB03EB4305044E06EB85052D895D
S1133710954298DA6FF01200F0BD00BFC85C00005B
S1133720A4060020F8B547B210F00F060ED0002F03
S1133730B4BFB31C3346022E00D9F8BD1D46013375
S113374003EB8303244A02EB830E02E0DFF894E0E8
S1133750002505EB8503214A02EB830393F88620B9
S1133760FF2AEAD004460322F90F70461C4B9847FF
S113377005EB8503194A02EB830393F8873003F0C2
S11337800703012B16D0002F1BDB600100F18240E0
S113379090F8003103F0F80380F800310F4BAA00D1
S11337A0511903EB8101002081F88700FF2281F881
S11337B08620C2E7600100F18240002380F80031D6
S11337C0ECE7760106F1824696F8003103F08F03A8
S11337D086F80031E2E700BF04070020A4060020B9
S11337E0E92C000018070020F0B547B210F00F00D4
S11337F000F0A680002FB4BF831C03460646420196
S113380002F1824292F80041E4B2022840F29F8021
S11338106FF01100F0BD14F0770F40F0888002F1D2
S11338208242112182F80011974C04EB8E01B1F809
S11338308440964901EA8431B4F5007F00F2CC80DB
S1133840B4F5807F00F20A81802C00F2F980402CCC
S113385000F20B81202C00F2FA80102C00F20C8173
S1133860082C94BF0027012741EA07714160C4F383
S11338700D01B7E014F0700F5CD1834D9F00F9186F
S113388005EB810191F88710090101F070010C43E7
S113389002F1824282F800413B4405EB8305B5F80E
S11338A08430C3F30D01B3F5007F0FD8B3F5807FE7
S11338B019D8802B19D8402B19D8202B19D8102BA4
S11338C019D8082B94BF0023012300E0072341EA01
S11338D003734361802382F804316B4B03EB461678
S11338E00020B076F0BD0623F1E70523EFE70423BB
S11338F0EDE70323EBE70223E9E7072143EA01733A
S11339004360402382F805315F4B03EB46160020E9
S1133910B072F0BD0621F1E70521EFE70421EDE7E0
S11339200321EBE70221E9E76FF01100F0BD6FF02E
S11339301300F0BD6FF01300F0BD6FF01300F0BD85
S11339404FF0824393F80041E4B20026334603EB80
S113395083024D4901EB820292F88650FF2DE3D099
S11339607201881803EB830E01EB8E0191F8871026
S113397001F0070101293FF44EAF002FFFF67AAFA3
S113398014F0070FD9D1404D9F00F91805EB8101C0
S113399091F8871001F007010C4302F1824282F88A
S11339A000413B4405EB8305B5F88410374B03EA2B
S11339B08133B1F5007FA0D8B1F5807FAAD88029E2
S11339C0AAD84029AAD82029AAD81029AAD80829CF
S11339D094BF0021012191E741F0E0414160C4F32B
S11339E00D01072741EA07714161402182F8051161
S11339F0802082F80401244A02EB46160020B072AB
S1133A00B07605F00F0503EB830302EB8303D3F8D1
S1133A1080606D01531956515A6864F39B325A60A1
S1133A205A6860F30D025A6005F18243B02283F8AC
S1133A30042183F805111D46102385F80931F0BDD2
S1133A4041F0A0414160C4F30D010527CAE741F0EC
S1133A5040514160C4F30D010327C3E741F0C04165
S1133A604160C4F30D010627BCE741F08041416089
S1133A70C4F30D010427B5E741F000514160C4F3DC
S1133A800D010227AEE700BFA406002000C0FF0F0F
S1133A9070B443B2DC0F10F00F0008D0002BB4BF99
S1133AA0831C0346022803D96FF0110018E0002399
S1133AB0012917D000293AD003EB8303454A02EBCE
S1133AC0830393F8863003F00F035B0103F1824311
S1133AD093F806211023A3401A4214BF01200020AA
S1133AE070BC70471025A540EDB23A499E00F2180B
S1133AF001EB820292F8862002F00F02500100F1DD
S1133B00824080F80551202000FA04F4E4B2520106
S1133B1002F1824282F80941334401EB830393F8B2
S1133B20872042F0080283F887200020D8E703EBBF
S1133B308302284901EB820292F8862002F00F02E8
S1133B40510101F1824191F806511020A040054233
S1133B503CD0C0B281F804012020A040C5B281F855
S1133B60085191F80721024207D081F80751012238
S1133B7002FA04F4E4B281F8044103EB8302154829
S1133B8000EB820292F8872002F00702012A0CD08F
S1133B9003EB83030F4A02EB830393F887206FF34D
S1133BA0C30283F8872000209AE791F8062112F0D7
S1133BB0300F0DD103EB830200EB820393F88720CF
S1133BC06FF3C30283F88720002089E7002087E78A
S1133BD0002085E7A406002030B400F00F04630140
S1133BE0144AD018D5584068C0F30D00022C17D8D9
S1133BF0C9B103F1824393F80021D2B2112A15D13D
S1133C0093F8072112F0100F02D1002030BC704746
S1133C102C686A680C604A60102283F80721F5E773
S1133C206FF01100F2E76FF01100EFE76FF0120090
S1133C30ECE700BFA40600202DE9F04F83B0037A1F
S1133C405EB213F00F0300F0C280002EB4BF9A1CC2
S1133C501A461446694901F16007551C05EB8505B0
S1133C6007EB850702EB820201EB8202B2F88420A3
S1133C7040F2FF318A4225D0551EADB241680D4055
S1133C80022B00F292800368B3F1005F1CD303EBB4
S1133C90010CDFF880E1F44516D813F0030F13D1BB
S1133CA0002E2ADB8A4200F29C804DB304EB84038D
S1133CB0524A02EB8303D3F88030002B7BD04FF0C1
S1133CC000080CE01546D9E704EB84034B4A02EBE9
S1133CD08303D3F88030002B6AD04FF0010804EB43
S1133CE08403464A02EB830393F8873013F0080FEA
S1133CF009D0022003B0BDE8F08F4FF00008EEE7D2
S1133D004FF00008EBE7824601A83D4B984704EBCF
S1133D1084033A4A02EB830393F8873013F0400F8D
S1133D203CD104EB8409354B03EB890999F88730BE
S1133D3043F0400389F8873001A8324B9847DAF8FA
S1133D400030C9F87430DAF80430C9F87830002348
S1133D50C9F87C30F20F99F8873062F3C71368F31F
S1133D60451389F887309AF80930E3B1B5FA85F537
S1133D706D0904EB8404214B03EB840494F887302D
S1133D8065F3041384F88730002E4FF000013846A1
S1133D90B4BF1D4B1D4B98470020ABE701A8194B3E
S1133DA098470120A6E70025E3E76FF01100A1E79B
S1133DB06FF012009EE76FF011009BE76FF01200A6
S1133DC098E74168C1F30905114F00245BE70B4AEA
S1133DD0B2F8842040F2FF318A42F2D00C4F002422
S1133DE04AE704EB8403054A02EB8303D3F88030EB
S1133DF0002BE3D04FF0010871E700BFA4060020B8
S1133E00854A0000934A0000992E00001D300000EE
S1133E1018070020FF1F042008B541B210F00F005E
S1133E200CD00029B4BF831C0346022800D908BD66
S1133E30142003FB00030448184400E00348022252
S1133E40C90F034B9847F2E7040700201807002026
S1133E50E92C0000064B002908BF1946012803D0AD
S1133E6008B9044B19667047024B5966704700BF86
S1133E70112C0000A4060020094B002908BF194694
S1133E80034630B1012807D0022804BF054B196747
S1133E907047044B99667047024BD966704700BF60
S1133EA0112C0000A406002008B5014B984708BD5A
S1133EB00D32000008B5014B984708BD0D320000D3
S1133EC008B5014B984708BD0D32000008B5014BF9
S1133ED0984708BD0D320000F0B583B00B78C3F3EA
S1133EE04114012C5ED18C88354D2D78A54203D028
S1133EF0334D6D78A54258D116460C46054613F04D
S1133F00800F0CD1CF882F4B984701466378202B24
S1133F1013D0222B32D06FF00C0003B0F0BD012A75
S1133F2046D04B78212B45D1CB88072B45D1002394
S1133F3007222549254CA047EFE7072F2BD1BEB117
S1133F40006800908A888B79ADF804208DF80630DB
S1133F501B4B1B6913B168469847F8B1184B02AA6A
S1133F6012E9030098609981090C99730020D4E741
S1133F70002307222846154CA047CEE700231A4603
S1133F8019461846114DA8470D4B5B6943B160882B
S1133F9098470020C1E74FF0FF30BEE70020BCE7A0
S1133FA00020BAE76FF00900B7E76FF00900B4E743
S1133FB00020B2E76FF00C00AFE74FF0FF30ACE742
S1133FC08C080020F948000094080020D543000024
S1133FD02DE9F04F83B01646012966D041B102297C
S1133FE00CBF6FF01A006FF00C0003B0BDE8F08F47
S1133FF0D0F808A01068002800F085800AF1FF3B83
S11340000AF101030093464FDFF82491DFF824817D
S11340108278437903F0F703022B02D06FF0090092
S1134020E3E70BF1010B9BF800309A426ED0FF2BB3
S11340306FD18BF80020052271683A4B98470446EB
S1134040F8B1CDF804B0A5786379227902EB0322A4
S113405092B2E1782846B84700285DD115F0800F68
S113406014BF8BF802508AF804502846C8473460BD
S1134070207871682044C04704460028E3D1DDF865
S113408004B033681878042271681844254B9847A3
S1134090009B9B4504D00028BAD16FF00900A4E727
S11340A00122214B5A7100209FE7846842B11368B2
S11340B05B7903F0F703022B02D06FF0090094E759
S11340C02378FF2B08D0FF232370A078984203D0D5
S11340D0164B9847FF23A3706378FF2B08D0FF2368
S11340E06370E078984203D0104B9847FF23E37045
S11340F02079FF2803D00D4B9847FF23237100201C
S1134100094B587171E76FF009006EE76FF0110009
S11341106BE76FF01B0068E76FF0130065E700BF03
S113412075150000194900008C080020DD150000F9
S1134130091600005349000008B50A4B98470128A6
S11341400CD80948094BC36100621830084B9847E2
S113415008490120084B9847002008BD6FF0100063
S113416008BD00BF054900008C080020D13F0000B5
S1134170A5480000B400002011480000074B5B79FB
S113418043B110B50A460146002304480079044CA3
S1134190A04710BD6FF01000704700BF8C080020CE
S11341A0D5430000074B5B7943B110B50A4601467D
S11341B001230448C078044CA04710BD6FF01000E0
S11341C0704700BF8C080020D543000038B5034D6C
S11341D0E878034CA0472879A04738BD8C08002014
S11341E07517000008B503281BD8DFE800F0020AA1
S11341F012160A4602210C4B18790C4B98470020E2
S113420008BD0A460221084BD878084B984700207D
S113421008BD054B1961002008BD034B59610020FE
S113422008BD6FF00C0008BD8C0800200D180000BC
S1134230014B5879704700BF8C08002070B5074BBC
S11342401C694CB100260125636832462946204684
S113425098472468002CF7D170BD00BFB008002037
S113426070B506460D46074BDC681CB970BD246862
S1134270002CFBD06368002BF9D0294630469847C0
S1134280F5E700BFB0080020F8B507460E4615460E
S11342900C4B9C681CB90020F8BD24686CB16368A1
S11342A0002BFAD02A4631463846984738B110F1E7
S11342B00A0FF2D04FF0FF30F8BD0020F8BD012006
S11342C0F8BD00BFB008002010B5064B5C681CB9EF
S11342D010BD2468002CFBD06368002BF9D09847EC
S11342E0F7E700BFB008002010B5144619B1012942
S11342F026D0002010BD1378002BFAD15378052B5B
S11343000FD0092BF5D15288104BDA766388002B35
S113431014BF042103210D4B997601200C4B9847BF
S1134320E7E75088C0B20B4B98476388002B14BF53
S113433003210221054B99760120054B9847D8E7C4
S1134340012221460020044B9847D2E7B008002000
S113435061420000691500008942000070B50D4BF0
S113436098470D4D0226AE760024EC766C772046F5
S11343700A4B9847287F0A4B98470A4A2146204609
S1134380094DA847094A31462046A8472046084B0C
S1134390984770BD3D420000B0080020DD150000C4
S11343A0C9150000F54300000D180000E9420000A3
S11343B00916000008B510B1012804D008BD00207A
S11343C0024B984708BD024B984708BD6142000064
S11343D05D43000000B585B0019102928DF80C0098
S11343E08DF80D3001A8024B984705B05DF804FB29
S11343F0551600002DE9F04383B005460C46002213
S11344009B4B9847B0F1FF3F0BD0012800F0E381AC
S1134410237813F0E00208D0802A00F0F480002012
S113442000E0002003B0BDE8F0836278013A0A2A74
S113443000F2D381DFE812F06000D1017600D101EF
S11344400B00D101D101D1011500D1018C00012350
S1134450002211462846874CA047B0FA80F0400954
S1134460E0E76288D2B2CAB1834B1B685968186806
S1134470824B9847002800F0BE81C278817801EB16
S1134480022110FA81F1019104227D4B984700909A
S113449030B1FF24DFF8E081794F18E0794B984779
S11344A00123002211462846724CA047B0FA80F03E
S11344B04009B7E74C4600E04C460098037818449E
S11344C0009004220199B84700900028E8D090F8A1
S11344D00290A145F1D0D8F81040002CEAD0002673
S11344E063686A463146204698470028E4D0246829
S11344F0002CF5D14C46E0E703F01F03022B40F0FB
S11345006E81E3880BB100208CE7A0880021C0B243
S11345105D4B98470123002211462846554CA0477D
S113452001207FE703F01F03022B40F05A81E38848
S11345300BB1002076E7A0880121C0B2524B984706
S113454001230022114628464A4CA047012069E76E
S11345506688A488484A1368D27E59681868474B0D
S11345609847002845D00090C278817801EB022159
S113457010FA81F101910422414B98470346002827
S113458039D004273E4D08E0009803781844009081
S11345903A460199A847034678B39A78A242F3D1E0
S11345A0DA78B242F0D10093334B1D693DB3012751
S11345B06B686A4639462846984720B12D68002D15
S11345C0F6D100202EE76B686A46002128469847FA
S11345D0B8B936B1284A012303FA04F4537F2343BC
S11345E0537700231A4619461846224CA047012047
S11345F018E7002016E7002014E7002012E7002047
S113460010E700200EE762780A2A00F2EC80DFE867
S113461012F08E00EA00EA00EA00EA00EA000B0069
S1134620EA008200EA00B2006288130A022B2DD04D
S1134630032B50D0012B01D00020F3E6E288122A8C
S113464028BF122214460C4B1B68012259681868B3
S11346500B4B98470146002800F0C78000232246F0
S11346602846044CA047B0FA80F04009DAE600BFBF
S113467089420000D5430000B00800209949000099
S1134680194900003D420000A5170000E4885B4B77
S11346901E7F1B680132D2B259681868584B98477C
S11346A00146002800F0A380C378827802EB03223D
S11346B092B294420DD9013E26420CBF012300233D
S11346C01446224628464F4CA047B0FA80F04009D1
S11346D0A8E60023F5E7E488484B1E7F1B68D2B2A6
S11346E059681868484B98470146002800F08180B3
S11346F0027894420DD9013E26420CBF01230023C7
S11347001446224628463F4CA047B0FA80F04009A0
S113471088E60023F5E739494B69CA7E1A700023FD
S1134720012249692846374CA04701207AE603F064
S11347301F03012B03D9022B10D0002072E60023A3
S113474000932E494B69BDF800201A8000230222F1
S1134750496928462B4CA047012063E6A088022122
S1134760C0B22A4B9847002803DB00F001000090F8
S1134770E7E7002056E6214B5B7FA288134113F044
S1134780010F12D01D4B1D690020002D3FF44AAECD
S113479002266B68224631462846984700280FDADD
S11347A02D68002DF5D100203CE614494B6900200A
S11347B01870034601224969124CA047012031E6D2
S11347C00E494B69187000230122496918460D4CA3
S11347D0A047012026E6012024E6002022E600204E
S11347E020E600201EE600201CE600201AE6002039
S11347F018E6002016E6002014E600BFB0080020EA
S113480099490000D5430000014A0000A5170000A3
S113481008B5012807D010B1022808D008BD064801
S1134820064B984708BD0648044B984708BD054801
S1134830024B984708BD00BFB4080020B51800001B
S1134840B8080020BC08002038B5054640F25532AF
S11348500C49003018BF01200B4B98470B4B98476D
S113486000280EDB0A4C202200212046094B9847E1
S1134870656109490020094CA04709490120A04766
S1134880002038BDEC5C000059180000DD14000065
S1134890B008002051570000C9420000451500002F
S11348A0B543000008B501460148024B984708BDCE
S11348B0C0080020B518000008B50A4B9B7E5BB900
S11348C068B1084B18600268D2791A7701229A7687
S11348D0054B9847002008BD6FF0030008BD6FF03A
S11348E0080008BDB00800205115000008B5014BB0
S11348F0984708BD5D150000014B5869704700BF1B
S1134900B0080020034B987E00F01003002B18BF62
S113491010207047B0080020884214D20378012B7D
S113492013D910B4447894420AD01844814206D969
S11349300378012B0BD944789442F6D100E000208F
S11349405DF8044B7047002070470020704700203A
S1134950F6E7884216D20378012B15D94278042A47
S113496014D0052A0BD01844814209D90378012BAD
S11349700ED94278042A0DD0052AF4D10BE07047F1
S113498000207047002070470020704700207047C7
S1134990002070470020704738B50C4615460222A7
S11349A0164B98470346E8B184421DD90278012A80
S11349B01CD94278022A1BD14279AA4212D0D97852
S11349C09A7802EB012213FA82F39C4209D91A78ED
S11349D0012A0FD95A78022A0ED15A79AA42EED165
S11349E000E00023184638BD0023FBE70023F9E765
S11349F00023F7E70023F5E70023F3E71949000054
S1134A00884217D22DE9F0410D46164600244FF096
S1134A1003080C4F42462946B847034670B1007854
S1134A2001280AD9A64209D0184401348542F1D894
S1134A30002303E000231846704700231846BDE80E
S1134A40F08100BF1949000008B50548054B984797
S1134A50054B98470548064B9847064B984708BDB1
S1134A60100900204948000039410000BC00002022
S1134A70B9480000ED48000008B5014B984708BD4F
S1134A80494A0000EFF31083036072B6BFF35F8FEF
S1134A907047BFF35F8F036883F31088704700008B
S1134AA081F0004102E000BF83F0004330B54FEADB
S1134AB041044FEA430594EA050F08BF90EA020F48
S1134AC01FBF54EA000C55EA020C7FEA645C7FEADB
S1134AD0655C00F0E2804FEA5454D4EB5555B8BFFE
S1134AE06D420CDD2C4480EA020281EA030382EA6F
S1134AF0000083EA010180EA020281EA0303362D01
S1134B0088BF30BD11F0004F4FEA01314FF4801CD3
S1134B104CEA113102D0404261EB410113F0004FE5
S1134B204FEA03334CEA133302D0524263EB43039C
S1134B3094EA050F00F0A780A4F10104D5F1200E3A
S1134B400DDB02FA0EFC22FA05F2801841F1000195
S1134B5003FA0EF2801843FA05F359410EE0A5F169
S1134B6020050EF1200E012A03FA0EFC28BF4CF09A
S1134B70020C43FA05F3C01851EBE37101F0004550
S1134B8007D54FF0000EDCF1000C7EEB00006EEB5D
S1134B900101B1F5801F1BD3B1F5001F0CD34908E7
S1134BA05FEA30004FEA3C0C04F101044FEA44523E
S1134BB012F5800F80F09A80BCF1004F08BF5FEAC5
S1134BC0500C50F1000041EB045141EA050130BDA5
S1134BD05FEA4C0C404141EB010111F4801FA4F148
S1134BE00104E9D191F0000F04BF01460020B1FA9D
S1134BF081F308BF2033A3F10B03B3F120020CDAD5
S1134C000C3208DD02F1140CC2F10C0201FA0CF0B2
S1134C1021FA02F10CE002F11402D8BFC2F1200C17
S1134C2001FA02F120FA0CFCDCBF41EA0C019040CD
S1134C30E41AA2BF01EB0451294330BD6FEA040416
S1134C401F3C1CDA0C340EDC04F11404C4F1200201
S1134C5020FA04F001FA02F340EA030021FA04F313
S1134C6045EA030130BDC4F10C04C4F1200220FA6A
S1134C7002F001FA04F340EA0300294630BD21FAA8
S1134C8004F0294630BD94F0000F83F4801306BF6E
S1134C9081F480110134013D4EE77FEA645C18BF62
S1134CA07FEA655C29D094EA050F08BF90EA020FF9
S1134CB005D054EA000C04BF1946104630BD91EAF1
S1134CC0030F1EBF0021002030BD5FEA545C05D1F4
S1134CD04000494128BF41F0004130BD14F5800433
S1134CE03CBF01F5801130BD01F0004545F0FE41A7
S1134CF041F470014FF0000030BD7FEA645C1ABFDC
S1134D00194610467FEA655C1CBF0B46024650EA12
S1134D10013406BF52EA033591EA030F41F400213E
S1134D2030BD00BF90F0000F04BF0021704730B5C4
S1134D304FF4806404F132044FF000054FF0000199
S1134D4050E700BF90F0000F04BF0021704730B55A
S1134D504FF4806404F1320410F0004548BF40422F
S1134D604FF000013EE700BF42004FEAE2014FEA84
S1134D7031014FEA02701FBF12F07F4393F07F4F5F
S1134D8081F06051704792F0000F14BF93F07F4F91
S1134D90704730B54FF4607401F0004521F00041D4
S1134DA020E700BF50EA010208BF704730B54FF05A
S1134DB000050AE050EA010208BF704730B511F05F
S1134DC0004502D5404261EB41014FF4806404F197
S1134DD032045FEA915C3FF4DCAE4FF003025FEA19
S1134DE0DC0C18BF03325FEADC0C18BF033202EBA1
S1134DF0DC02C2F1200300FA03FC20FA02F001FAFB
S1134E0003FE40EA0E0021FA02F11444C1E600BF99
S1134E1070B54FF0FF0C4CF4E06C1CEA11541DBF4C
S1134E201CEA135594EA0C0F95EA0C0F00F0DEF817
S1134E302C4481EA030621EA4C5123EA4C5350EAFC
S1134E40013518BF52EA033541F4801143F480134D
S1134E5038D0A0FB02CE4FF00005E1FB02E506F0DE
S1134E600042E0FB03E54FF00006E1FB03569CF033
S1134E70000F18BF4EF0010EA4F1FF04B6F5007F39
S1134E8064F5407404D25FEA4E0E6D4146EB0606AB
S1134E9042EAC62141EA55514FEAC52040EA5E5034
S1134EA04FEACE2EB4F1FD0C88BFBCF5E06F1ED8DE
S1134EB0BEF1004F08BF5FEA500E50F1000041EB15
S1134EC0045170BD06F0004646EA010140EA0200C2
S1134ED081EA0301B4EB5C04C2BFD4EB0C0541EAE4
S1134EE0045170BD41F480114FF0000E013C00F3F9
S1134EF0AB8014F1360FDEBF002001F0004170BD1D
S1134F00C4F10004203C35DA0C341BDC04F1140435
S1134F10C4F1200500FA05F320FA04F001FA05F2C1
S1134F2040EA020001F0004221F0004110EBD3708E
S1134F3021FA04F642EB06015EEA430E08BF20EABA
S1134F40D37070BDC4F10C04C4F1200500FA04F35D
S1134F5020FA05F001FA04F240EA020001F00041EF
S1134F6010EBD37041F100015EEA430E08BF20EA62
S1134F70D37070BDC4F1200500FA05F24EEA020EAA
S1134F8020FA04F301FA05F243EA020321FA04F0D9
S1134F9001F0004121FA04F220EA020000EBD37090
S1134FA05EEA430E08BF20EAD37070BD94F0000F90
S1134FB00FD101F00046400041EB010111F4801FC4
S1134FC008BF013CF7D041EA060195F0000F18BF75
S1134FD0704703F00046520043EB030313F4801FB1
S1134FE008BF013DF7D043EA0603704794EA0C0F6B
S1134FF00CEA135518BF95EA0C0F0CD050EA410681
S113500018BF52EA4306D1D181EA030101F00041FD
S11350104FF0000070BD50EA410606BF1046194625
S113502052EA430619D094EA0C0F02D150EA013631
S113503013D195EA0C0F05D152EA03361CBF104672
S113504019460AD181EA030101F0004141F0FE4111
S113505041F470014FF0000070BD41F0FE4141F495
S1135060780170BD70B54FF0FF0C4CF4E06C1CEA95
S113507011541DBF1CEA135594EA0C0F95EA0C0F4A
S113508000F0A7F8A4EB050481EA030E52EA033505
S11350904FEA013100F088804FEA03334FF0805526
S11350A045EA131343EA12634FEA022245EA111553
S11350B045EA10654FEA00260EF000419D4208BF04
S11350C0964244F1FD0404F5407402D25B084FEAB1
S11350D03202B61A65EB03055B084FEA32024FF45D
S11350E080104FF4002CB6EB020E75EB030E22BFBA
S11350F0B61A754640EA0C005B084FEA3202B6EB7A
S1135100020E75EB030E22BFB61A754640EA5C0028
S11351105B084FEA3202B6EB020E75EB030E22BFB8
S1135120B61A754640EA9C005B084FEA3202B6EBB9
S1135130020E75EB030E22BFB61A754640EADC0078
S113514055EA060E18D04FEA051545EA16754FEADA
S113515006164FEAC30343EA52734FEAC2025FEAF8
S11351601C1CC0D111F4801F0BD141EA00014FF087
S113517000004FF0004CB6E711F4801F04BF014358
S11351800020B4F1FD0C88BFBCF5E06F3FF6AFAE74
S1135190B5EB030C04BFB6EB020C5FEA500C50F104
S11351A0000041EB045170BD0EF0004E4EEA113187
S11351B014EB5C04C2BFD4EB0C0541EA045170BD8E
S11351C041F480114FF0000E013C90E645EA060ED2
S11351D08DE60CEA135594EA0C0F08BF95EA0C0F00
S11351E03FF43BAF94EA0C0F0AD150EA01347FF448
S11351F034AF95EA0C0F7FF425AF104619462CE71F
S113520095EA0C0F06D152EA03353FF4FDAE104681
S1135210194622E750EA410618BF52EA43067FF4D2
S1135220C5AE50EA41047FF40DAF52EA43057FF462
S1135230EBAE12E74FF0FF3C06E000BF4FF0010C6D
S113524002E000BF4FF0010C4DF804CD4FEA410CD1
S11352507FEA6C5C4FEA430C18BF7FEA6C5C1BD09E
S113526001B050EA410C0CBF52EA430C91EA030F1F
S113527002BF90EA020F0020704710F1000F91EA7C
S1135280030F58BF994208BF90422CBFD8176FEA4A
S1135290E37040F0010070474FEA410C7FEA6C5C18
S11352A002D150EA013C07D14FEA430C7FEA6C5C1F
S11352B0D6D152EA033CD3D05DF8040B704700BF4B
S11352C08446104662468C461946634600E000BF99
S11352D001B5FFF7B7FF002848BF10F1000F01BD6B
S11352E04DF808EDFFF7F4FF0CBF012000205DF836
S11352F008FB00BF4DF808EDFFF7EAFF34BF0120BB
S113530000205DF808FB00BF4DF808EDFFF7E0FF53
S113531094BF012000205DF808FB00BF4DF808EDA4
S1135320FFF7CEFF94BF012000205DF808FB00BF0B
S11353304DF808EDFFF7C4FF34BF012000205DF8ED
S113534008FB00BF4FEA410C7FEA6C5C02D150EAD3
S1135350013C0AD14FEA430C7FEA6C5C02D152EA69
S1135360033C02D14FF0000070474FF0010070473A
S11353704A0011D212F5001211D20DD56FF47873D0
S1135380B3EB62520ED44FEAC12343F0004343EA25
S1135390505323FA02F070474FF00000704750EA70
S11353A0013002D14FF0FF3070474FF000007047DA
S11353B080F0004002E000BF81F0004142001FBFC6
S11353C05FEA410392EA030F7FEA226C7FEA236CCF
S11353D06AD04FEA1262D2EB1363C1BFD2184140C4
S11353E048404140B8BF5B42192B88BF704710F05A
S11353F0004F40F4000020F07F4018BF404211F0FD
S1135400004F41F4000121F07F4118BF494292EA64
S1135410030F3FD0A2F1010241FA03FC10EB0C0090
S1135420C3F1200301FA03F100F0004302D549421D
S113543060EB4000B0F5000F13D3B0F1807F06D3CA
S113544040084FEA310102F10102FE2A51D2B1F1C2
S1135450004F40EBC25008BF20F0010040EA0300B7
S11354607047490040EB000010F4000FA2F1010264
S1135470EDD1B0FA80FCACF1080CB2EB0C0200FAEE
S11354800CF0AABF00EBC25052421843BCBFD0403C
S11354901843704792F0000F81F4000106BF80F4B6
S11354A000000132013BB5E74FEA41037FEA226C79
S11354B018BF7FEA236C21D092EA030F04D092F044
S11354C0000F08BF0846704790EA010F1CBF002078
S11354D0704712F07F4F04D1400028BF40F00040D5
S11354E0704712F100723CBF00F50000704700F0F5
S11354F0004343F0FE4040F4000070477FEA22621C
S113550016BF08467FEA23630146420206BF5FEAEC
S1135510412390EA010F40F4800070474FF00003EC
S113552004E000BF10F0004348BF40425FEA000CB3
S113553008BF704743F0964301464FF000001CE05B
S113554050EA010208BF70474FF000030AE000BFB1
S113555050EA010208BF704711F0004302D54042EF
S113556061EB41015FEA010C02BF84460146002061
S113557043F0B64308BFA3F18053A3F50003BCFA7C
S11355808CF2083AA3EBC25310DB01FA02FC634429
S113559000FA02FCC2F12002BCF1004F20FA02F230
S11355A043EB020008BF20F00100704702F1200223
S11355B001FA02FCC2F1200250EA4C0021FA02F284
S11355C043EB020008BF20EADC70704770B50F4E51
S11355D00F4D761BB61018BF002405D0013455F8C2
S11355E0043B9847A642F9D10A4E0B4D761B00F0B6
S11355F08BFBB61018BF002406D0013455F8043BC9
S11356009847A642F9D170BD70BD00BF145D00007B
S1135610145D00001C5D0000145D0000844641EA36
S1135620000313F003036DD1403A41D351F8043B16
S113563040F8043B51F8043B40F8043B51F8043B68
S113564040F8043B51F8043B40F8043B51F8043B58
S113565040F8043B51F8043B40F8043B51F8043B48
S113566040F8043B51F8043B40F8043B51F8043B38
S113567040F8043B51F8043B40F8043B51F8043B28
S113568040F8043B51F8043B40F8043B51F8043B18
S113569040F8043B51F8043B40F8043B51F8043B08
S11356A040F8043B51F8043B40F8043B403ABDD277
S11356B0303211D351F8043B40F8043B51F8043B19
S11356C040F8043B51F8043B40F8043B51F8043BD8
S11356D040F8043B103AEDD20C3205D351F8043BA8
S11356E040F8043B043AF9D2043208D0D2071CBF74
S11356F011F8013B00F8013B01D30B88038060469D
S1135700704700BF082A13D38B078DD010F0030312
S11357108AD0C3F10403D21ADB071CBF11F8013B82
S113572000F8013B80D331F8023B20F8023B7BE7D1
S1135730043AD9D3013A11F8013B00F8013BF9D2FC
S11357400B7803704B7843708B7883706046704796
S113575070B4860746D0541E002A41D0CAB203460C
S113576002E014F1FF343BD303F8012B9D07F8D179
S1135770032C2ED9CDB245EA05250F2C45EA054563
S113578019D903F110022646103E0F2E42F8105C80
S113579042F80C5C42F8085C42F8045C02F1100226
S11357A0F2D8A4F1100222F00F0204F00F04103218
S11357B0032C13440DD91E462246043A032A46F804
S11357C0045BFAD8221F22F003020432134404F0CB
S11357D003042CB1C9B21C4403F8011B9C42FBD145
S11357E070BC704714460346C2E700BF00000000C7
S11357F000000000000000000000000000000000A5
S113580090F800F06DE9024520F007016FF0000CFC
S113581010F0070491F820F040F049804FF00004A4
S11358206FF00700D1E9002391F840F000F108007F
S113583082FA4CF2A4FA8CF283FA4CF3A2FA8CF3B7
S11358404BBBD1E9022382FA4CF200F10800A4FA1E
S11358508CF283FA4CF3A2FA8CF3E3B9D1E9042372
S113586082FA4CF200F10800A4FA8CF283FA4CF3A9
S1135870A2FA8CF37BB9D1E9062301F1200182FA63
S11358804CF200F10800A4FA8CF283FA4CF3A2FA69
S11358908CF3002BC6D0002A04BF04301A4612BA77
S11358A0B2FA82F2FDE8024500EBD2007047D1E97A
S11358B0002304F00305C4F100004FEAC50514F009
S11358C0040F91F840F00CFA05F562EA05021CBFDA
S11358D063EA050362464FF00004A9E7024B13B1E3
S11358E0024800F005B8704700000000FD580000B1
S11358F0002301461A46184600F01EB838B50A4C73
S11359000A4D641BA4100AD004F18043013B05EB4B
S11359108305013C55F804399847002CF9D1BDE8BA
S1135920384000F0FBB900BF2C5D0000285D00008A
S1135930704700BF704700BF2DE9F8432C4D064661
S1135940286898460F469146FFF7F2FF294B1C68DA
S1135950D4F84831002B3ED05A681F2A1CDC02F1CF
S1135960010E76B103EB82010124C1F88890D3F8CB
S1135970880194402043022EC3F88801C1F80881AD
S113598023D00232C3F804E0286843F82270FFF7FA
S1135990D1FF0020BDE8F883174B0BB34FF4C87058
S11359A0FAF75CFD0346D8B1D4F84821026000211F
S11359B041600A46C4F848014FF0010EC0F888114E
S11359C0C0F88C11002EDCD0CCE7D3F88C110C433A
S11359D0C3F88C41D5E704F5A673C4F84831BBE796
S11359E02868FFF7A7FF4FF0FF30BDE8F88300BF3A
S11359F048050020045D00005D0400000000000074
S1135A000000000011030000B1030000D1020000F7
S1135A109D0300002903000075030000F502000047
S1135A20C10300000D0A00006E616E00696E66001D
S1135A306F766600697420776F726B7300000000E4
S1135A40697420646F657320776F726B00000000C7
S1135A502E2E2F68616C2F7372632F68616C5F63E5
S1135A60616E5F6173796E632E6300002E2E2F6862
S1135A70616C2F7372632F68616C5F6932635F6D51
S1135A805F73796E632E63002E2E2F68616C2F7303
S1135A9072632F68616C5F7370695F6D5F73796E99
S1135AA0632E63002E2E2F68616C2F7372632F6830
S1135AB0616C5F74696D65722E6300002E2E2F6811
S1135AC0616C2F7574696C732F7372632F757469AD
S1135AD06C735F6C6973742E630000000001000036
S1135AE000000000000000000000000000000000B2
S1135AF000000000000000000000000000000000A2
S1135B000000000000000000000000000000000091
S1135B100000000000000000000000000000000081
S1135B200C0600000000000000000000000000005F
S1135B300000000000000000000000000000000061
S1135B400000000000000000000000000000000051
S1135B500000000000000000000000000000000041
S1135B600000000000000000000000000000000031
S1135B700000000000000000000000000000000021
S1135B800000000000000000000000000000000011
S1135B900000000000000000000000000000000001
S1135BA000000000000000000000000000000000F1
S1135BB000000000000000000000000000000000E1
S1135BC000000000000000000000000000000000D1
S1135BD000000000000000000000000000000000C1
S1135BE02E2E2F68706C2F7274632F68706C5F7226
S1135BF074632E6300000000003000400034004055
S1135C000020014100400141000000430004004322
S1135C1000080043000C00430300000014002000AF
S1135C2000010000353600000000D700001BB7005B
S1135C300C00200000000200000000007700FF01BB
S1135C40000C00200000000200000000007700FFAC
S1135C5001010C0020000000020000000000770099
S1135C60FF0104002E2E2F68706C2F736572636F12
S1135C706D2F68706C5F736572636F6D2E630000C7
S1135C8000380040003C004000A0014100C0014138
S1135C90001400420018004200140043001800439E
S1135CA000006B0008030000000000000400000076
S1135CB0000000002E2E2F68706C2F74632F687004
S1135CC06C5F74632E6300004C0800200000000029
S1135CD0400000000C08002000000000400000000C
S1135CE0CC07002000000000400000002E2E2F757D
