:10000000E0E101206D0C0000690C0000690C0000AB
:10001000690C0000690C0000690C00000000000081
:10002000000000000000000000000000690C00005B
:10003000690C000000000000690C0000690C000061
:10004000690C0000690C0000690C0000690C0000DC
:10005000690C0000690C0000690C0000690C0000CC
:10006000690C0000690C0000690C0000A579000013
:100070003D6600004D660000690C00005D660000F2
:100080006D6600007D6600008D6600009D660000C4
:10009000AD660000BD660000CD660000690C000082
:1000A000690C0000690C0000690C0000690C00007C
:1000B000690C0000690C0000690C0000690C00006C
:1000C000690C0000690C0000690C0000690C00005C
:1000D000690C0000690C0000690C0000690C00004C
:1000E000690C0000690C0000000000000000000026
:1000F00000000000690C0000690C0000690C0000A1
:10010000690C0000690C0000690C0000690C00001B
:10011000690C0000690C0000690C0000690C00000B
:10012000690C0000690C0000690C0000690C0000FB
:10013000690C0000690C0000690C0000690C0000EB
:10014000690C0000690C0000690C0000690C0000DB
:10015000690C0000690C0000690C0000690C0000CB
:10016000690C0000690C0000690C0000690C0000BB
:10017000690C0000690C0000690C0000715A000055
:1001800011CA000021CA000031CA000041CA0000A3
:10019000690C000051940000690C0000690C00001B
:1001A000690C0000690C0000690C0000690C00007B
:1001B0006D940000690C0000690C0000690C0000DF
:1001C000690C000089940000690C0000690C0000B3
:1001D000690C0000690C0000690C0000690C00004B
:1001E000690C0000690C0000690C00000DA1000002
:1001F000690C000029A10000690C000045A1000065
:1002000061A100007DA1000099A10000690C00001F
:10021000690C0000690C0000690C0000690C00000A
:10022000690C0000690C0000690C0000690C0000FA
:10023000690C0000690C0000690C0000690C0000EA
:10024000690C0000690C0000690C0000690C0000DA
:10025000690C0000690C0000690C0000690C0000CA
:10026000690C000010B5054C237833B9044B13B169
:100270000448AFF300800123237010BD480A00201A
:1002800000000000C8C201000C4B43B10C480D49EE
:1002900010B5AFF300800C48036823B910BD0A48BD
:1002A000036833B97047094B002BF7D0BDE8104005
:1002B0001847064B002BF5D0184700BF0000000080
:1002C000C8C201004C0A0020C8C2010000000000A2
:1002D00070B40A68026000226426067163254571C5
:1002E000622484716121C171427206744574847400
:1002F000C174427580F8806080F8815080F8824037
:1003000080F8831080F88520024AC0F8902070BCE5
:10031000704700BF640A00200B680360704700004C
:10032000C160034BC0F88C30024B8365704700BF3F
:10033000680A0020681A002010B50C4611F0010F61
:1003400014BF01210021034BD86D034B9847204671
:1003500010BD00BFA83700206D18010038B5054654
:100360000C4611F0020F14BF01210021044B186E3E
:10037000044B984721462846034B984738BD00BF99
:10038000A83700206D1801003903000038B5054674
:100390000C4611F0040F14BF01210021044B586ECC
:1003A000044B984721462846034B984738BD00BF69
:1003B000A8370020B11401005D03000010B5C36828
:1003C0001968416099889B7901818372437A4B2B2C
:1003D0000CBF0124002401D0204610BD817A014BBE
:1003E0009847F9E78D030000F8B5C36800F11002E3
:1003F00003F140011F685E689D68DC681760566005
:100400009560D460103310328B42F3D1437D4C2B76
:100410000CBF0125002512D10446817D19B1094B7D
:10042000D86D094B9847E17D19B1064B186E064B04
:100430009847217E19B1034B586E044B98472846C4
:10044000F8BD00BFA837002091180100C9140100B1
:100450002DE9F843C36800F1100203F140011F6861
:100460005E689D68DC68176056609560D4601033E4
:1004700010328B42F3D1437D4F2B0CBF0127002755
:1004800002D03846BDE8F8830C4E00F1160500F1A5
:100490001804DFF82C90DFF82C8003E0C04701350A
:1004A000A542EED056F8040B90F87C30002BF6D025
:1004B0002B7813F0010FF1D1C847F0E7405400202A
:1004C00095310100793301002DE9F047C36800F14F
:1004D000100203F140011F685E689D68DC681760C8
:1004E00056609560D460103310328B42F3D1437D57
:1004F000502B0CBF0127002702D03846BDE8F087FB
:100500000F4D00F1160600F118044FF00009DFF856
:1005100034A007E0D8F8003083F87990043501362C
:10052000A642EAD0A846286890F87C30002BF5D087
:1005300090F87A30002BEDD03178D047EAE700BF51
:1005400040540020D931010010B5C36819684160DA
:100550009C88997904818172427A472A01D00020CF
:1005600010BDDB88014621F85C3F0348034B9847E8
:10057000B0FA80F0400910BDE86A0020B5450100DE
:100580002DE9F047C3681968416099889B7901811A
:100590008372437A492B0CBF4FF0010A4FF0000AD7
:1005A00002D05046BDE8F08790F8602080F85F20C8
:1005B000837A80F860309A42F3D005460026DFF84F
:1005C0003090DFF83080002406EB090795F86020B2
:1005D00033191A4102F0010285F86120E1B2786A0C
:1005E000C0470134042CF1D10436082EEBD1D8E7F2
:1005F000EC2D00205142010010B5C368196841601C
:1006000099889B7901818372437A532B0CBF012413
:10061000002401D0204610BD817A80F86210C1F319
:10062000400180F861100248024B9847F2E700BF92
:1006300038CE0020AD470100F8B5C36800F11002C4
:1006400003F140011F685E689D68DC6817605660B2
:100650009560D460103310328B42F3D1437D552B1B
:100660000CBF0125002501D02846F8BD0446827D37
:1006700080F86220C17D037E03EB0123A0F8643083
:1006800012F0010F14D01348134B984758B1B4F827
:10069000641019B11148124B9847E5E700210D4845
:1006A000104B9847E0E701210A480E4B9847DBE7DB
:1006B0000848094B984738B9B4F864100029D3D0DA
:1006C0000648074B9847CFE700210248054B98475B
:1006D000CAE700BFC82A0020D1F400001829002072
:1006E000E9F800009DF400002DE9F8432C4CA4F13A
:1006F000DC052C4928462C4B98472C4E32462C4979
:1007000028462C4DA847A4F1C4092B4948462B4F35
:10071000B847DFF8C880324641464846A847A4F1AA
:10072000A40927494846B847324641464846A847A3
:10073000A4F1840923494846B84732464146484611
:10074000A847A4F1640920494846B84732464146C3
:100750004846A847A4F144091C494846B8473246D0
:1007600041464846A847A4F1240919494846B847D4
:10077000324641464846A847A4F10409154948466F
:10078000B847324641464846A8471C3412492046DD
:10079000B847324641462046A847BDE8F88300BF27
:1007A0005C1B002058E000206DFC000000000020D1
:1007B00089FC000011A6010028DF0020410401008F
:1007C000BCDF0020E0E00020DCDF0020A0E0002013
:1007D000C0E0002098DF002038E00020790401000C
:1007E00030B583B0C3681968416099889B790181ED
:1007F0008372437A512B0CBF0125002502D0284675
:1008000003B030BD044669460848094B9847236841
:1008100053F80C0C6A46E1682044064B9847402286
:10082000E1680548054B9847E9E700BFA837002075
:10083000ED160100CD100000B0340020710E010053
:100840002DE9F0478CB0C3681968416099889B799D
:1008500001818372437A4E2B0CBF4FF001084FF099
:10086000000803D040460CB0BDE8F0870546224F93
:1008700000260DF10409DFF890A0386890F87C306C
:1008800023BB06EB090E00F184040FCC46F80900E7
:10089000CEF80410CEF80820CEF80C302068CEF840
:1008A000100023798EF81430043715362A2EE4D13F
:1008B0002B6853F80C0C01AAE96828440F4B9847A1
:1008C0004022E9680E480F4B9847CBE7D0473C6879
:1008D00006EB090E84340FCC46F80900CEF804105C
:1008E000CEF80820CEF80C302068CEF8100023791E
:1008F0008EF81430D8E700BF40540020CD1000001F
:10090000B0340020710E0100D533010038B5C36842
:100910001968416099889B7901818372437A482BD9
:100920000CBF0125002501D0284638BD044600F142
:100930005C011148114B9847E368114A1A60002284
:100940001A715A71E368B4F85C20DA800D480E4BD6
:10095000984784F85E0048B1E36894F85D201A7205
:100960004022E16809480A4B9847DDE7E36894F8BC
:100970005C201A72F4E700BFE86A00208944010095
:10098000646362615C5300204D210100B03400209B
:10099000710E0100F0B583B0C1680C684A68C0F8F8
:1009A0008040C0F884200A89A0F8882090F885301B
:1009B000572B02D0002003B0F0BD0446564BD3F8AD
:1009C000EC351B680193D0F88600834240D2524B2D
:1009D000D3F8F4351B68C4F89430504A1268934237
:1009E00040F28A809B1AC4F898309BB243F02A43A5
:1009F00043F42A032367A367474F3846484B984779
:100A00006067E067236853F80C0C04F17802E16832
:100A10002044444B9847444E4022E1683046434DC1
:100A2000A8476420424B9847D7F8F0153B4B1B680A
:100A3000D4F8982019443046A847E06600284BD0E7
:100A4000354BD3F8F4351A68344B1A600020B2E7FE
:100A50002067D4F88C2001463648374B9847A0666B
:100A600048BB236FA3672C4D28462D4B98476067E2
:100A7000E067236853F80C0C04F17802E168204425
:100A8000284B9847284F4022E1683846274EB04708
:100A90006420274B98474FF48052D4F88C10384686
:100AA000B047E066D5F8F4351A681C4B1A60B0FA06
:100AB00080F040097FE700252567236853F80C0C78
:100AC00001AAE1682044174B98474022E168164884
:100AD000164B984728466EE7104DD7F8F0052B685F
:100AE000D4F8982000211844144B9847D7F8F435CF
:100AF0002A681A6001205EE700252567236853F8FD
:100B00000C0C01AA2044074B98474022E168064894
:100B1000064B984728464EE7683A0020640A0020B2
:100B2000891C0100CD100000B0340020710E0100BE
:100B300081360000E86A002029440100C5AC0100AC
:100B400070B5C3681968416099889B790181837287
:100B5000437A4A2B0CBF0125002501D0284670BDE1
:100B6000044600F1530631460848094B984723686C
:100B700053F80C0C3246E1682044064B984740225B
:100B8000E1680548054B9847E8E700BFEC2D0020D9
:100B9000BDFB0000CD100000B0340020710E01003C
:100BA00038B5C3681968416099889B79018183725F
:100BB000437A522B0CBF0125002501D0284638BDB1
:100BC00004460948094B9847224602F8620F2368F9
:100BD00053F80C0CE1682044054B98474022E1682B
:100BE0000448054B9847E9E738CE002089470100C3
:100BF000CD100000B0340020710E010038B5C3687C
:100C00001968416099889B7901818372437A542BDA
:100C10000CBF0125002501D0284638BD0446816D52
:100C20000B480C4B9847A26D0B4BD96E1161A26D0E
:100C30001B6F5361236853F80C0CA26DE1682044CC
:100C4000064B98474022E1680548064B9847E3E782
:100C5000182900203DF100004CCE0020CD100000EE
:100C6000B0340020710E010000BFFDE708B5174B3E
:100C7000174A9A4210D0174B144A9A420CD2013BA1
:100C80009B1A23F0030304331344114951F8040B56
:100C900042F8040B9A42F9D10F4B104A9A420AD2F9
:100CA000013B9B1A23F0030304331344002142F851
:100CB000041B9342FBD10A4A0A4B23F07F03936043
:100CC000094B9847094B9847FEE700BF00000020FA
:100CD000C8C20100440A0020E0E10020480A0020C8
:100CE00000ED00E00000000041AB0100250D000018
:100CF00080220A4B9A610A4B1A685B689A4209D0B3
:100D0000074B5A60054B4FF48022C3F81C21042284
:100D1000C3F81C210122024B1A7270470080004167
:100D2000981B00202DE9F8430422714BC3F81421CD
:100D3000704B9847C820704B98477048704B984745
:100D4000704E714D6C4C4FF400113046A84738B9C5
:100D50006420A0474FF48022654BC3F81C21F2E7C2
:100D6000684B93F8E03233B16648684B984768495E
:100D70006248684B9847684E684D5F4C3046A847BC
:100D800038B96420A0474FF48022594BC3F81C2186
:100D9000F4E76348634B984710B16148624B98474A
:100DA0004FF48022524BC3F81821604E604D524CD4
:100DB0003046A84738B96420A0474FF480224C4BF6
:100DC000C3F81C21F4E75B4E5B4D4B4C3046A84703
:100DD00038B96420A0474FF48022454BC3F81C214A
:100DE000F4E7544C0021606E544B98470021E06DAD
:100DF000534DA8470021206EA847524E524D3E4CFD
:100E00003046A84738B96420A0474FF48022384BB9
:100E1000C3F81C21F4E700214A484C4B98474C4E3C
:100E20004C4D354C3046A84738B96420A0474FF4A4
:100E300080222F4BC3F81C21F4E700214648474B82
:100E400098474748474B98474FF40022284BC3F830
:100E50001821454C4FF47A72444904F10C00444B7C
:100E6000984704F12C00434B98472448424B98473D
:100E70002546DFF82081DFF820912C4E35E03846FA
:100E8000C8470EE02648284B984700BF30483B4BE8
:100E900098472B6801332B600BB33846C0470028B6
:100EA000EDD1D6F8DC00364CA047D6F8E000A047DC
:100EB0001B4B93F86930002BE8D01948314B984709
:100EC0000028E3D0164C20462F4B984794F89C30CE
:100ED000012BD7D1D4F8A030C5F80032D2E70123D6
:100EE00000222A4905482A4CA04705F12C07D4E7DF
:100EF000008000410518000081360000683A00209B
:100F0000511A0100E86A00206D450100B544010056
:100F1000BCB00100E91D0100EC2D002029FB000000
:100F20004CCE0020D1490100854A01005C530020CD
:100F3000DD200100A837002075160100B114010062
:100F40006D18010038CE0020E5470100AD470100D3
:100F50001829002071F00000C82A00209DF400002C
:100F6000B0340020A10B0100981B0020F10C000000
:100F70001D0601009D120000A91B010059F7000089
:100F80003D280100614B0100CD4A0100D0B00100B5
:100F9000D91D01007D1700009D1600002DE9F843C2
:100FA000304C04F5017530492846304FB847304E73
:100FB000DFF8F4803246414628462E4DA84704F516
:100FC00009792D494846B847324641464846A84720
:100FD00004F10C0929494846B8473246414648467B
:100FE000A84704F5117926494846B8473246414694
:100FF0004846A84704F5197922494846B847324679
:1010000041464846A84704F521791F494846B84754
:10101000324641464846A84704F529791B494846C7
:10102000B847324641464846A84704F53179184941
:101030004846B847324641464846A84704F53977FE
:1010400014493846144B9847324614493846A84745
:101050002C342046124B9847324612492046A84766
:10106000BDE8F883981B002028DF00204104010020
:101070000000002011A60100BCDF0020E0E00020FD
:10108000DCDF0020A0E00020C0E0002098DF00208E
:1010900038E0002058E000206DFC000089FC0000D2
:1010A000751100002911000079040100642202700A
:1010B00063224270622282706122C27000224271F9
:1010C0003A2280F8402070477047000070B505460E
:1010D0000C46114690F840200630094B98472B46A5
:1010E000214640351E685C689868DA680E604C607E
:1010F0008860CA6010331031AB42F3D1002070BD5C
:1011000091AB0100034B1A68D2F89C300133C2F84E
:101110009C307047981E0020024B1B68002283F809
:10112000A0207047981E002038B504460A4B036083
:101130000023C0F89C30094D2846094B98472846A3
:10114000084B984708492046084B984704F5C87053
:10115000074B9847204638BD0CB101009C1E00206B
:10116000A105010091060100FCB001001903000077
:10117000C910000038B5044600F5C870174B9847F1
:1011800017492046174B9847174B236000236425C7
:1011900084F8F450632084F8F500622184F8F61096
:1011A000612284F8F72084F8F93084F8825184F8B9
:1011B000830184F8841184F8852184F887310B4AEF
:1011C00042F8244B84F8B030C4F8A430C4F8A830F6
:1011D000C4F89C30C4F88C21204638BDAD10000006
:1011E000FCB00100D10200000CB10100981E0020EB
:1011F00010B4044600231946D4F88C21D154581C4D
:10120000C0B20133402BF7D110BC704790F8B0301A
:1012100033B9C0F8A430012380F8B03080F8B13081
:1012200090F85801704730B4550807D0002433F8BF
:10123000140041400134A4B2AC42F8DB12F0010FBB
:101240001DBF9B1813F8010C4840084630BC70477E
:1012500038B504460025A0F85E510B460622294603
:10126000024DA847A4F85E0138BD00BF2712000058
:10127000064B1B680B60064B1B684B60054B1B68DD
:101280008B60054B1B68CB60704700BF1820004186
:101290001C2000412020004124200041F8B50446D4
:1012A0000026C0F89C60144D2846144B98474FF414
:1012B0007A7213492846134B9847D4F88C1120466C
:1012C000114B984704F26515294620460F4B984765
:1012D000D4F88C31D4F86571D4F86901D4F86D1163
:1012E000D4F871211F6058609960DA6084F8596100
:1012F00094F85801F8BD00BF9C1E00202D05010088
:1013000005110000690601002103000071120000B0
:101310002DE9F843314C04F1640531492846314F39
:10132000B847314EDFF8F8803246414628462F4D07
:10133000A84704F184092E494846B8473246414639
:101340004846A84704F1A4092A494846B847324606
:1013500041464846A84704F1C40927494846B847CA
:10136000324641464846A84704F1E4092349484625
:10137000B847324641464846A84704F58279204995
:101380004846B847324641464846A84704F1040952
:101390001C494846B847324641464846A84704F5E6
:1013A000927919494846B847324641464846A847C7
:1013B00004F5A27715493846154B9847324615492A
:1013C0003846A84704F5AE742046134B984732467A
:1013D00012492046A847BDE8F88300BF981E0020A8
:1013E00028DF0020410401000000002011A60100B8
:1013F000BCDF0020E0E00020DCDF0020A0E00020D7
:10140000C0E0002098DF002038E0002058E00020F5
:101410006DFC000089FC000075110000291100001E
:101420007904010038B505460C46054B9847A5F8E8
:101430005E01062221460348034B984738BD00BF92
:1014400051120000B0340020D90D01002DE9F04107
:1014500090F8F9304D2B0CBF0125002502D028460D
:10146000BDE8F081184B93F89C80D0F88C31174A76
:101470001A6000221A714D225A7183F806800723E0
:10148000114903F161020A4403F1100752F8044FB5
:10149000D0F88C61F4500433BB42F7D1372BF0D134
:1014A00004464022D0F88C1109480A4B9847074B54
:1014B000C4F88231002284F886214D2384F88731D4
:1014C00084F88881CBE700BF4CCE00206463626162
:1014D000B0340020710E010070B5044600F1F4052F
:1014E000D0F88C311A68C0F8F4209B88AB8090F853
:1014F000F930413BDBB21C2B1BD8012380F85B3158
:1015000080F8583194F8F930413B1C2B00F29A8056
:10151000DFE803F022291F2F1F1F383E4A506E7448
:1015200080868C927A5C56686298441F1F1F989838
:101530001F00002380F85B31444E402200F5C67145
:101540003046434B9847737DDBB284F85831002B0B
:10155000D8D194F8580170BD294620463D4B984794
:1015600084F85801F5E7002384F8B03084F8B130EE
:10157000EFE7012229462046374B9847012384F89C
:101580005831E6E72046354B984784F85801E0E7A4
:101590002046334B984784F85801DAE72046314B10
:1015A000984784F85801D4E720462F4B984784F891
:1015B0005801CEE720462D4B984784F85801C8E7DC
:1015C00020462B4B984784F85801C2E72046294B08
:1015D000984784F85801BCE72046274B984784F881
:1015E0005801B6E72046254B984784F85801B0E7E4
:1015F0002046234B984784F85801AAE72046214B00
:10160000984784F85801A4E720461F4B984784F870
:1016100058019EE720461D4B984784F8580198E7EB
:1016200020461B4B984784F8580192E72046194BF7
:10163000984784F858018CE72046174B984784F860
:10164000580186E7002384F8583182E7B03400203F
:10165000ED0C01000D1200002514000049050000EA
:101660000D0900009509000081050000410B0000F4
:10167000F9050000A10B000039060000FD0B000079
:10168000BD030000E9030000E10700004D14000065
:101690004108000051040000C9040000F8B50446E8
:1016A000002380F8583190F85931002B50D02A4B44
:1016B0005B7D5BB9002380F85A314022D4F88C114D
:1016C0002548264B984794F85801F8BDD0F88C313E
:1016D0001A68C0F8F4209B88A0F8F83090F8F83029
:1016E0003D2B17D03E2B10D03C2B03D0002380F88D
:1016F0005A3106E0012380F85A31194B984784F893
:1017000058012046174B9847D7E7154B984784F860
:101710005801F6E7012580F8A050134E3046134BD0
:101720009847134F39463046124B984742F2107291
:1017300039463046104B98470023C4F8A43084F84B
:10174000B05084F8B15094F8A03084F85831D8E7FC
:10175000002380F85A31B6E7B0340020ED0C0100C8
:10176000D9140000F11100009C1E0020A105010009
:1017700019110000BD0601001507010010B504464F
:10178000002380F85831C0F87C3190F859312BB1E2
:10179000012380F8583194F8580110BD154B5B7D3A
:1017A000B3B1D0F88C01411E0330D4F87C311B0258
:1017B000C4F87C3111F8012F1343C4F87C31814205
:1017C000F3D10D4A83EA0201C4F87811934206D09E
:1017D0004022D4F88C110748084B9847DBE70123D7
:1017E00084F8593184F8583184F8A0302046044BED
:1017F000984710BDB034002064636261ED0C0100B5
:101800009D16000080B500AF034B9847034B9847E7
:10181000034B984700BF80BD1D2C000015D1000070
:10182000A9D0000080B485B000AFF8600B467A60A4
:10183000FB72FA7AFB682032796843F8221000BF05
:101840001437BD465DF8047B704780B483B000AFA9
:1018500078607B681B6943F480627B681A6100BF13
:101860000C37BD465DF8047B704780B483B000AF91
:1018700078607B681B6943F400527B681A6100BF83
:101880000C37BD465DF8047B704780B483B000AF71
:1018900078607B681B6943F480227B681A6100BF13
:1018A0000C37BD465DF8047B704780B483B000AF51
:1018B00078607B681B6943F400127B681A6100BF83
:1018C0000C37BD465DF8047B704780B483B000AF31
:1018D00078607B685B6943F480727B685A6100BF03
:1018E0000C37BD465DF8047B704780B483B000AF11
:1018F00078607B685B6943F400727B685A6100BF63
:101900000C37BD465DF8047B704780B483B000AFF0
:1019100078607B685B6943F480627B685A6100BFD2
:101920000C37BD465DF8047B704780B483B000AFD0
:1019300078607B685B6943F480427B685A6100BFD2
:101940000C37BD465DF8047B704780B483B000AFB0
:1019500078607B689B6943F001027B689A6100BFF5
:101960000C37BD465DF8047B704780B483B000AF90
:1019700078607B689B6943F002027B689A6100BFD4
:101980000C37BD465DF8047B704780B483B000AF70
:1019900078607B689B6943F080027B689A6100BF36
:1019A0000C37BD465DF8047B704780B483B000AF50
:1019B00078607B689B6943F480627B689A6100BFB2
:1019C0000C37BD465DF8047B704780B483B000AF30
:1019D00078607B689B6943F400627B689A6100BF12
:1019E0000C37BD465DF8047B704780B483B000AF10
:1019F00078607B689B6943F480527B689A6100BF82
:101A00000C37BD465DF8047B704780B483B000AFEF
:101A100078607B689B6943F400527B689A6100BFE1
:101A20000C37BD465DF8047B704780B483B000AFCF
:101A300078607B68DB6943F008027B68DA6100BF8D
:101A40000C37BD465DF8047B704780B483B000AFAF
:101A500078607B68DB6943F020027B68DA6100BF55
:101A60000C37BD465DF8047B704780B483B000AF8F
:101A700078607B68DB6943F040027B68DA6100BF15
:101A80000C37BD465DF8047B704780B483B000AF6F
:101A900078607B68DB6943F400527B68DA6100BFE1
:101AA0000C37BD465DF8047B704780B483B000AF4F
:101AB00078607B681B6A43F001027B681A6200BF92
:101AC0000C37BD465DF8047B704780B483B000AF2F
:101AD00078607B681B6A43F002027B681A6200BF71
:101AE0000C37BD465DF8047B704780B483B000AF0F
:101AF00078607B681B6A43F004027B681A6200BF4F
:101B00000C37BD465DF8047B704780B483B000AFEE
:101B100078607B681B6A43F008027B681A6200BF2A
:101B20000C37BD465DF8047B704780B483B000AFCE
:101B300078607B681B6A43F020027B681A6200BFF2
:101B40000C37BD465DF8047B704780B483B000AFAE
:101B500078607B681B6A43F040027B681A6200BFB2
:101B60000C37BD465DF8047B704780B485B000AF8C
:101B7000F8600B467A60FB72FB7AFA68DB0113446B
:101B800008337A681A6000BF1437BD465DF8047BDD
:101B9000704780B485B000AFF8600B467A60FB7286
:101BA000FB7AFA68DB01134404337A681A6000BFD9
:101BB0001437BD465DF8047B704780B485B000AF34
:101BC000F8600B467A60FB72FB7AFA68DB0113441B
:101BD00018337A681A6000BF1437BD465DF8047B7D
:101BE000704780B485B000AFF8600B467A60FB7236
:101BF000FB7AFA68DB01134414337A681A6000BF79
:101C00001437BD465DF8047B704780B485B000AFE3
:101C10007860084611461A460346FB700B46BB70B7
:101C200013467B70FA78BB787968D2010A44134472
:101C300030331B78FB73FB7B23F00F03FB737B7844
:101C400003F00F03DAB2FB7B1343FB73FA78BB7824
:101C50007968D2010A4413443033FA7B1A7000BF0A
:101C60001437BD465DF8047B704780B485B000AF83
:101C70007860084611461A460346FB700B46BB7057
:101C800013467B70FA78BB787968D2010A44134412
:101C900030331B78FB73FB7B03F00F03FB737B7804
:101CA0001B01DAB2FB7B1343FB73FA78BB787968CC
:101CB000D2010A4413443033FA7B1A7000BF143740
:101CC000BD465DF8047B704780B485B000AF786096
:101CD000084611461A460346FB700B46BB70134676
:101CE0007B70FA78BB787968D2010A441344403398
:101CF0001B78FB73FB7B23F00103FB737A78FB7B80
:101D00001343FB73FA78BB787968D2010A44134411
:101D10004033FA7B1A7000BF1437BD465DF8047B70
:101D2000704790B482B000AF78600B46FB701346EA
:101D3000BB70FA78BB78F878B9787C68C001204429
:101D4000014440310978C9B241F00401C8B2796850
:101D5000D2010A441344403302461A7000BF0837C8
:101D6000BD4690BC704790B482B000AF78600B461F
:101D7000FB701346BB70FA78BB78F878B9787C684A
:101D8000C0012044014440310978C9B221F0040166
:101D9000C8B27968D2010A441344403302461A702B
:101DA00000BF0837BD4690BC704780B485B000AF17
:101DB000F8600B467A60FB72FB7AFA68DB01134429
:101DC00028337A681A6000BF1437BD465DF8047B7B
:101DD0007047000080B582B000AF03463960FB71E8
:101DE0001346BB71BB79012B1CD0022B37D0002BC3
:101DF0004ED1FB793A6819462A482B4B98473B68E5
:101E00009BB243F08042FB7919462648274B9847FE
:101E10003B681B0C43F04042FB7919462148234B99
:101E200098473AE0FB793A6819461E481E4B984796
:101E30003B689BB243F0804343F40033F9791A4680
:101E400018481A4B98473B681B0C43F0404343F437
:101E50000033F9791A461348144B98471DE0FB7973
:101E60003A6819460F48124B98473B689BB243F0BB
:101E70008042FB7919460B480C4B98473B681B0C7A
:101E800043F04042FB7919460648084B984704E066
:101E9000462208490020084B984700BF0837BD4636
:101EA00080BD00BF00800041931B0000AB1D0000FF
:101EB0006B1B00000CB10100DD4C000080B582B04E
:101EC00000AF03463960FB711346BB71BB79002B31
:101ED00006D0FB793A6819460648074B984705E053
:101EE000FB793A6819460348044B984700BF083706
:101EF000BD4680BD00800041BB1B0000E31B00000D
:101F000080B582B000AF0346FB710B46BB71134630
:101F10007B717B79012B0AD0022B1FD0002B34D18F
:101F2000BA79FB7919461E481E4B984733E0BB79B6
:101F300001229A40FB79194619481B4B9847BA79F8
:101F4000FB7919461648194B9847BB7901229A40EC
:101F5000FB7919461248164B98471CE0BB790122C1
:101F60009A40FB7919460E480F4B9847BA79FB798E
:101F700019460B480D4B9847BB7901229A40FB79D3
:101F8000194607480B4B984705E089220A4900206B
:101F90000A4B984700BF00BF0837BD4680BD00BF51
:101FA00000800041671D0000931B0000231D0000FE
:101FB000BB1B0000E31B00000CB10100DD4C000066
:101FC00090B585B000AF786039607B685B09FB73C2
:101FD0007B68DBB203F01F03BB733B68B3F1FF3FC9
:101FE00006D1BA7BF97B00231248134CA0471DE0B1
:101FF000BA7BF97B01230F480F4CA047BB7B03F052
:102000000103002B09D0BB7B5B08DAB23B68DBB273
:10201000F97B0848094CA04708E0BB7B5B08DAB2B3
:102020003B68DBB2F97B0348054CA04700BF14377F
:10203000BD4690BD00800041C91C00006B1C000023
:102040000B1C000080B582B000AF03460A46FB714E
:102050001346BB71FB795B09D8B2FB7903F01F0310
:10206000DBB2BA791946034B984700BF0837BD4623
:1020700080BD00BF011F000080B582B000AF786056
:10208000396039687868034B984700BF0837BD4608
:1020900080BD00BFC11F000080B582B000AF034605
:1020A0000A46FB711346BB71FB795B09D8B2FB7919
:1020B00003F01F03012202FA03F3BA791946034B16
:1020C000984700BF0837BD4680BD00BFD51D000042
:1020D00080B582B000AF03460A46FB711346BB7160
:1020E000FB795B09D8B2FB7903F01F03012202FAE6
:1020F00003F3BA791946034B984700BF0837BD462A
:1021000080BD00BFBD1E000080B500AF014B9847E9
:1021100000BF80BD355F000080B582B000AF786041
:1021200039607B68002B04D03B68002B01D0012371
:1021300000E0002303F00103DBB248220749184600
:10214000074B98477B683A681A607B681846054BCE
:102150009847034618460837BD4680BD28B10100A0
:10216000DD4C00004DCB000080B500AF0448054BAE
:10217000984705490548064B984700BF80BD00BFFA
:10218000000800406B1900000020004124E10020FD
:102190000136000080B500AF442204214548464B7B
:1021A00098474648464B984701214020454B984761
:1021B00000214020444B98474FF480014020434B7E
:1021C0009847012121203F4B9847002121203E4B79
:1021D00098474FF4041121203C4B984701210320DC
:1021E000384B984702210320374B98474FF4403132
:1021F0000320364B984701210420324B9847022197
:102200000420314B98474FF4802104202F4B9847EE
:10221000012105202B4B9847022105202A4B984786
:102220004FF4A0210520294B984701215620254B2A
:10223000984702215620244B98474FF4AC01562072
:10224000224B9847012157201E4B984702215720C7
:102250001D4B98474FF4AE0157201C4B9847012166
:102260002820184B984700212820174B98474FF4F7
:1022700020112820154B984701212920114B984700
:1022800000212920104B98474FF4241129200F4B8F
:10229000984701214A200B4B984700214A200A4BBE
:1022A00098474FF494014A20084B9847084B9847A9
:1022B00000BF80BD001C0040251800000008004041
:1022C0000B19000099200000452000007920000033
:1022D000C936000080B500AF44220B210748084BE7
:1022E000984744220C210548054B98470548064B62
:1022F0009847064B984700BF80BD00BF001C0040B8
:1023000025180000000800408B190000B5360000B9
:1023100080B500AF01212B202B4B984700212B20AB
:102320002A4B98472A492B202A4B984702210820FC
:10233000254B984700210820274B9847002108206B
:10234000224B984725490820224B98470221092013
:102350001D4B9847002109201F4B98470021092059
:102360001A4B98471E4909201A4B984702210A2008
:10237000154B984700210A20174B984700210A2047
:10238000124B984717490A20124B984702210B20FD
:102390000D4B984700210B200F4B984700210B2035
:1023A0000A4B984710490B200A4B984701212A20D5
:1023B000054B984700212A20044B98470B492A20B7
:1023C000044B984700BF80BD9920000045200000C5
:1023D00007002B0079200000D12000000700080032
:1023E0000700090007000A0007000B0007002A0089
:1023F00080B500AF0548064B98470448054B984701
:102400000248054B984700BF80BD00BF0008004050
:102410006B180000AB1800008B1A000080B500AFED
:10242000044B984704490548054B9847054B984786
:1024300000BF80BDF123000000340042B8DF00205F
:10244000393B00001123000080B500AF0248034B68
:10245000984700BF80BD00BF00080040EB18000097
:1024600080B500AF034B984703490448044B984795
:1024700000BF80BD492400000024004000E100208E
:102480006931000080B500AF00211120074B98474B
:1024900007491120074B984700211020034B98470C
:1024A00005491020034B984700BF80BD4520000020
:1024B00003001100792000000300100080B500AF78
:1024C000402218210648074B98474322032104481D
:1024D000044B98470448054B984700BF80BD00BF98
:1024E000001C00402518000000080040AB19000047
:1024F00080B500AF044B984704490548054B984701
:10250000054B984700BF80BDBD240000004001413D
:1025100058E00020913900008524000080B500AF0C
:1025200000213B20114B984702213B20104B98473C
:1025300010493B20104B984700213A200B4B9847FD
:1025400002213A200A4B98470C493A200A4B9847F7
:1025500001213C20064B984700213C20084B98471E
:1025600008493C20044B984700BF80BDD1200000A3
:102570009920000003003B007920000003003A008E
:102580004520000003003C0080B500AF4522222119
:102590000648074B98474A2203210448044B9847B2
:1025A0000448054B984700BF80BD00BF001C004099
:1025B0002518000000080040AB1A000080B500AFED
:1025C000054B98474FF086410448054B9847054B0B
:1025D000984700BF80BD00BF8925000060DF002054
:1025E000493C00001D25000080B500AF00211720E8
:1025F000074B984707491720074B9847002116209B
:10260000034B984705491620034B984700BF80BDF0
:102610004520000003001700792000000300160089
:1026200080B500AF442223210648074B98474A2231
:1026300003210448044B98470448054B984700BFC2
:1026400080BD00BF001C00402518000000080040AD
:10265000CB1A000080B500AF044B984704490548E9
:10266000054B9847054B984700BF80BD21260000C9
:1026700000040043FCDF002091390000E925000040
:1026800080B500AF00214420114B9847022144201F
:10269000104B984710494420104B98470021452083
:1026A0000B4B9847022145200A4B98470C4945207F
:1026B0000A4B984701214720064B984700214720A5
:1026C000084B984708494720044B984700BF80BDF6
:1026D000D120000099200000020044007920000071
:1026E00002004500452000000200470080B500AF11
:1026F000422224210648074B98474A2203210448D6
:10270000044B98470448054B984700BF80BD00BF65
:10271000001C00402518000000080040EB1A0000D3
:1027200080B500AF044B984704490548054B9847CE
:10273000054B984700BF80BDED2600000008004310
:1027400048DF0020493C00008126000080B500AF32
:1027500000216820074B984707496820074B984796
:1027600000216920034B984705496920034B98478E
:1027700000BF80BD452000000200680079200000F5
:102780000200690080B500AF442225210648074BAE
:1027900098474A2203210448044B98470448054BB4
:1027A000984700BF80BD00BF001C004025180000F6
:1027B000000800400B1B000080B500AF044B984799
:1027C00004490548054B9847054B984700BF80BD15
:1027D00085270000000C004378DF002091390000BD
:1027E0004D27000080B500AF0848094B98474322A9
:1027F00009210848084B9847084B984703461A4652
:1028000007490848084B984700BF80BD00080040B2
:102810002B190000001C004025180000E59F000057
:1028200000380040C0E00020D93E000080B500AF75
:102830000848094B984744221A210848084B9847F2
:10284000084B984703461A4607490848084B9847DB
:1028500000BF80BD000800400B1A0000001C0040B3
:1028600025180000E59F000000A00141A0E0002025
:10287000D93E000080B500AF0848094B9847462272
:102880001E210848084B9847084B984703461A46AC
:1028900007490848084B984700BF80BD0008004022
:1028A0004B1A0000001C004025180000E59F0000A6
:1028B0000014004298DF0020D93E000080B500AF30
:1028C0000848094B984746221E210848084B98475C
:1028D000084B984703461A4607490848084B98474B
:1028E00000BF80BD000800406B1A0000001C0040C3
:1028F00025180000E59F000000180042DCDF0020E2
:10290000D93E000080B500AF0848094B98474622E1
:1029100027210848084B9847084B984703461A4612
:1029200007490848084B984700BF80BD0008004091
:102930002B1B0000001C004025180000E59F000034
:1029400000140043BCDF0020D93E000080B400AF7B
:1029500000BFBD465DF8047B7047000080B500AF46
:102960000448054B9847402227210448044B9847C8
:1029700000BF80BD000800404B1B0000001C004051
:102980002518000080B500AF064B9847064B9847C6
:10299000064B984703461A4605490648064B984792
:1029A00000BF80BD5D2900004D290000F99F000097
:1029B000001800431CE000208D3A000080B500AFF5
:1029C0000448054B9847442219210448044B984772
:1029D00000BF80BD00080040CB190000001C004073
:1029E0002518000080B500AF054B9847054B984768
:1029F00003461A4604490548054B984700BF80BD69
:102A0000BD290000C993000000600141E0E0002002
:102A1000D93E000080B500AF0448054B98474422DA
:102A200019210448044B984700BF80BD00080040AE
:102A3000EB190000001C00402518000080B500AF15
:102A4000054B9847054B984703461A4604490548E5
:102A5000054B984700BF80BD152A0000C9930000B0
:102A60000080014128DF0020D93E000080B500AF82
:102A70000448054B984740221D210448044B9847C1
:102A800000BF80BD000800402B1A0000001C004061
:102A90002518000080B500AF054B9847054B9847B7
:102AA00003461A4604490548054B984700BF80BDB8
:102AB0006D2A0000C9930000000C004238E000209D
:102AC000D93E000080B500AF022118200F4B984777
:102AD000002118200E4B9847002118200D4B9847D5
:102AE0000D4918200D4B984702211920074B984794
:102AF00000211920064B984700211920054B9847C3
:102B000007491920054B984700BF80BD9920000058
:102B1000D1200000452000000700180079200000A7
:102B20000700190080B500AF42220A210548064B74
:102B300098470648064B98470448064B984700BFFD
:102B400080BD00BF001C00402518000000080040A8
:102B50004B1800004B19000080B500AF034B98479D
:102B6000034B9847034B984700BF80BD252B0000BF
:102B700035470000C52A000080B500AF0248034B6E
:102B8000984700BF80BD00BF00080040CB18000080
:102B900080B500AF034B984703490448044B98475E
:102BA00000BF80BD792B00000020004020E1002004
:102BB0001921000080B500AF04492D20044B98472F
:102BC00004492C20024B984700BF80BD07002D0010
:102BD0007920000007002C0080B500AF0748084BA3
:102BE000984749221C210748074B9847074908483E
:102BF000084B9847084B984700BF80BD000800402D
:102C00008B180000001C0040251800000004004242
:102C100078E0002079330000B52B000080B500AFCC
:102C20006C4B9847002107206B4B984702210720E7
:102C30006A4B98474FF0FF310720694B98470121B5
:102C40000F20654B984702210F20644B98474FF0A7
:102C5000FF310F20624B9847012113205E4B9847AC
:102C6000022113205D4B98474FF0FF3113205C4B3E
:102C7000984701211B20584B984702211B20574B96
:102C800098474FF0FF311B20554B984701212720D3
:102C9000514B984702212720504B98474FF0FF3166
:102CA00027204F4B984701213D204B4B984702214D
:102CB0003D204A4B98474FF0FF313D20484B984705
:102CC00001213F20454B984701213F20454B984724
:102CD0004FF0FF313F20424B9847002142203E4BAE
:102CE0009847022142203D4B98474FF0FF31422048
:102CF0003B4B984700214D20374B984702214D20F0
:102D0000364B98474FF0FF314D20354B9847012106
:102D10004E20314B984702214E20304B98474FF0C0
:102D2000FF314E202E4B984700214F202A4B9847C9
:102D300002214F20294B98474FF0FF314F20284B5D
:102D4000984700215220244B984702215220234BC0
:102D500098474FF0FF315220214B984700215320D4
:102D60001D4B9847022153201C4B98474FF0FF31D1
:102D700053201B4B98471C4B98471C4B98471C4BA8
:102D800098471C4B98471C4B98471C4B98471C4B2B
:102D900098471C4B98471C4B98471C4B98471C4B1B
:102DA00098471C4B98471C4B98471C4B98471C4B0B
:102DB00098471C4B98471C4B98471C4B98471C4BFB
:102DC00098471C4B98471C4B98471C4B984700BF93
:102DD00080BD00BF09210000D12000009920000023
:102DE00079200000452000006921000095210000A5
:102DF000D52200001D24000061240000F124000001
:102E0000BD2500005526000021270000B92700003D
:102E1000E52700002D28000075280000BD280000CF
:102E20000529000085290000E52900003D2A000051
:102E3000952A0000592B0000912B0000D92B00008F
:102E400080B483B000AF0346FB80FB8803F003032C
:102E5000002B01D0002300E0012318460C37BD46AB
:102E60005DF8047B7047000080B584B000AF7860E7
:102E70000B46FB700023FB607B689BB218462F4B10
:102E800098470346002B28D0FB78013B0B2B4CD8EE
:102E900001A252F823F000BFC92E0000CF2E00007F
:102EA000C92E0000D52E0000C92E0000D52E00002E
:102EB000C92E0000C92E0000D52E0000C92E00002A
:102EC000D52E0000C92E00001D4BFB6030E01D4BCD
:102ED000FB602DE01C4BFB602AE0FB78013B0B2BD9
:102EE00025D801A252F823F0192F00001F2F00004F
:102EF000192F0000252F0000192F0000252F00009A
:102F0000192F0000192F0000252F0000192F000095
:102F1000252F0000192F0000094BFB6008E00B4B28
:102F2000FB6005E0084BFB6002E000BF00E000BF73
:102F3000FB6818461037BD4680BD00BF412E00001B
:102F400080DE2800803B2600008D270000EA240058
:102F500080B58AB000AFF860B9607A60FB689B69A1
:102F60003B620123FB770123BB7700237B770023A0
:102F70003B77BB687B623B6A9BB21846324B9847F3
:102F80000346002B01D0314B00E0314BBB617A6A24
:102F9000BB699A4207D37A6ABB69D31A7B623B6AE0
:102FA00001333B62E7E7FB7F1946386A294B9847B4
:102FB00078617A6A7B699A4207D37A6A7B69D31A05
:102FC0007B62FB7F0133FB77EDE77B6A224A93420A
:102FD00009D97B6AA3F5A833A3F5C0737B62BB7FD5
:102FE0000133BB77F1E77B6AB3F5616F07D37B6A87
:102FF000A3F561637B627B7F01337B77F3E77B6AB9
:103000003B2B06D97B6A3C3B7B623B7F01333B77A2
:10301000F5E700BF3B6A9AB27B68DA807B68FA7F8B
:103020005A717B68BA7F1A717B687A7F9A707B6865
:103030003A7F5A707B6ADAB27B681A7000231846AE
:103040002837BD4680BD00BF412E00000085E2014B
:103050008033E101692E00007F51010080B586B008
:1030600000AF7860396000237B6100233B613B68DF
:10307000DB88DAB27B689B69DBB2D31AFB733B68EF
:103080005B79BB733B681B797B733B689B783B73B5
:103090003B685B78FB723B681B78BB7200233B612B
:1030A0001AE07B689B699AB23B699BB213449BB25E
:1030B0001846294B98470346002B06D07B6903F13D
:1030C000F17303F505437B6103E07A69234B1344F5
:1030D0007B613B6901333B61FA7B3B699A42E0D8F3
:1030E00001233B610FE03B68DB881A463B69DBB29A
:1030F000194610461A4B984702467B6913447B6178
:103100003B6901333B61BA7B3B699A42EBD87B7BDD
:10311000013B144A02FB03F31A467B6913447B61AB
:103120003B7B4FF4616202FB03F31A467B69134455
:103130007B61FA7A13461B019B1A9B001A467B6936
:1031400013447B61BB7A7A6913447B617B691846BF
:103150001837BD4680BD00BF412E00008033E1011D
:10316000692E00008051010080B584B000AF786006
:1031700039600023FB607B68002B14BF0123002310
:10318000DBB24FF4E07211491846114B98477B6847
:103190001A683B689A4201D1002313E07B681B68E0
:1031A000002B02D06FF011030CE07B683A681A60C4
:1031B0007B681846074B9847F8607B6840F2B2720C
:1031C0009A61FB6818461037BD4680BD44B10100C6
:1031D000DD4C00008177000080B582B000AF7860E0
:1031E0007B68002B14BF01230023DBB240F2E51201
:1031F00006491846064B98477B681846054B984782
:10320000002318460837BD4680BD00BF44B1010009
:10321000DD4C00003978000080B586B000AF7860E2
:1032200039607B68002B14BF01230023DBB24FF40D
:10323000037215491846154B98477B681846144B7E
:103240009847786107F108031A4679697868114B45
:1032500098473B681B783B723B685B787B723B68A6
:103260009B78BB7207F10803194678680A4B9847A8
:1032700038617B6839691846084B9847002318461F
:103280001837BD4680BD00BF44B10100DD4C0000D1
:10329000D5780000512F00005D30000085780000D7
:1032A00080B586B000AF786039607B68002B14BFB2
:1032B00001230023DBB24FF4097215491846154B60
:1032C00098477B681846144B9847786107F10803C4
:1032D0001A4679697868114B98473B681B783B73AD
:1032E0003B685B787B733B685B88FB8107F1080375
:1032F000194678680A4B984738617B6839691846DF
:10330000084B9847002318461837BD4680BD00BFBC
:1033100044B10100DD4C0000D5780000512F0000C1
:103320005D3000008578000080B584B000AF786023
:1033300039607B68002B14BF01230023DBB240F20D
:103340003B2209491846094B98477B681846084BA9
:103350009847F8603A68F9687868064B9847002300
:1033600018461037BD4680BD44B10100DD4C000059
:10337000D5780000512F000080B584B000AF786090
:1033800039607B68002B04D03B68002B01D00123FF
:1033900000E0002303F00103DBB241220E4918468E
:1033A0000E4B98477B68396818460D4B9847F86074
:1033B000FB68002B01D0FB6809E07B68094A5A6072
:1033C0007B68094A9A607B68084ADA6000231846DD
:1033D0001037BD4680BD00BF60B10100DD4C00006C
:1033E000455400008D350000B1350000D535000092
:1033F00080B582B000AF78607B68002B14BF0123DA
:103400000023DBB25C2206491846064B98477B68CE
:103410001846054B9847034618460837BD4680BDF9
:1034200060B10100DD4C00002D56000080B582B077
:1034300000AF786039607B68002B04D03B68002BBC
:1034400001D0012300E0002303F00103DBB26E2270
:1034500006491846064B98477B6839681846054B5D
:103460009847034618460837BD4680BD60B1010045
:10347000DD4C00004D56000080B582B000AF786092
:1034800039607B68002B04D03B68002B01D00123FE
:1034900000E0002303F00103DBB27722064918465F
:1034A000064B98477B6839681846054B9847034692
:1034B00018460837BD4680BD60B10100DD4C0000F4
:1034C0005D57000080B584B000AFF8600B467A60AD
:1034D000FB72FB68002B14BF01230023DBB28122A7
:1034E00014491846144B9847FB7A012B07D0022B3E
:1034F00009D0002B0BD1FB687A681A620AE0FB68DE
:103500007A68DA6106E0FB687A685A6202E06FF076
:103510000C030BE0F8687B68002B14BF0123002329
:10352000DAB2FB7A1946054B984700231846103744
:10353000BD4680BD60B10100DD4C0000195900009E
:1035400090B585B000AFF8607B600B46FB72134608
:10355000BB72FB68002B14BF01230023DBB2B8222F
:1035600007491846074B9847F868BA7AF97A7B6892
:10357000054CA047034618461437BD4690BD00BF12
:1035800060B10100DD4C0000A959000080B584B095
:1035900000AF78607B68FB60FB68DB69002B03D0C1
:1035A000FB68DB69F868984700BF1037BD4680BDEF
:1035B00080B584B000AF78607B68FB60FB681B6AF5
:1035C000002B03D0FB681B6AF868984700BF1037D0
:1035D000BD4680BD80B584B000AF78600B46FB70FF
:1035E0007B68FB60FB685B6A002B05D0FB685B6A4D
:1035F000FA781146F868984700BF1037BD4680BD7D
:1036000080B582B000AF786039607B68002B04D051
:103610003B68002B01D0012300E0002303F00103ED
:10362000DBB22B2206491846064B98477B6839685F
:103630001846054B9847034618460837BD4680BDD7
:103640007CB10100DD4C0000895F000090B583B0C3
:1036500000AF0346FB80074B1C68FB881846064BEF
:103660009847034619462046044B984700BF0C373D
:10367000BD4690BDC8210020DD5C0000715E0000E9
:1036800090B583B000AF0346FB80074B1C68FB88F6
:103690001846064B9847034619462046044B984760
:1036A00000BF0C37BD4690BDC8210020495E000018
:1036B000715E000080B500AF024B98470346184684
:1036C00080BD00BF6967000080B582B000AF0023F5
:1036D000FB800EE0FB880C4ADB0013444FF0FF3206
:1036E0005A60FB88084A002142F83310FB880133F6
:1036F000FB80FB88092BEDD90448054B984703460E
:1037000018460837BD4680BDCC2100206D3800002A
:10371000C962000080B586B000AF786039600023D0
:10372000FB750023BB7500237B7512E0FB7D4D4AC2
:10373000DB0013445A687B689A4207D1FB7D4949F4
:103740003A6841F8332001237B7505E0FB7D0133A6
:10375000FB75FB7D092BE9D93B68002B0ED17B7DE6
:1037600083F00103DBB2002B02D06FF00C0374E096
:10377000002178683C4B984703466EE07B7D83F0E0
:103780000103DBB2002B5AD00023FB7516E0FB7D52
:10379000344A52F83330002B0DD1FB7D31493A6861
:1037A00041F83320FB7D2F4ADB0013447A685A60CE
:1037B00001237B7505E0FB7D0133FB75FB7D092B48
:1037C000E5D936E0FB7D274ADB0013445A68BB7D10
:1037D0002449DB000B445B689A4227D2BB7D214A17
:1037E000DB0013445B68B3F1FF3F1FD0BB7D1D4975
:1037F00007F10C02DB000B4493E8030082E80300AE
:10380000BB7DFA7D17481749DB000344D2000A4408
:1038100092E8030083E80300FB7D124ADB001344B7
:1038200007F10C0292E8030083E80300BB7D01333B
:10383000BB75BB7D092B02D8FB7D092BC2D97B7DD3
:1038400083F00103DBB2002B02D06FF00C0304E025
:1038500001217868044B9847034618461837BD463F
:1038600080BD00BFCC2100207164000080B584B011
:1038700000AF78600023FB730A23BB732AE0BA7B96
:10388000FB7B13445B107B737B7B092B27D87B7BF3
:10389000164ADB0013445A687B689A420BD17B7B43
:1038A000124A52F83330002B1BD07B7B0F4A52F860
:1038B0003330984715E07B7B0C4ADB0013445A6891
:1038C0007B689A4203D27B7B0133FB7302E07B7BF4
:1038D000013BBB73BA7BFB7B9A42D0D202E000BFB4
:1038E00000E000BF1037BD4680BD00BFCC210020E6
:1038F00080B58AB000AFF860B9601346FB80FB6802
:10390000143B7B627B6A9B8BBB82FB88BB6148F26A
:103910000103FB82BB68FB617B6A07F1140211465D
:103920001846064B984738623B6A002B01D03B6A29
:1039300000E0FB8818462837BD4680BD4D85000055
:1039400080B58AB000AFF860B9601346FB80FB68B1
:10395000143B7B627B6A9B8BBB82FB88BB614FF411
:103960000043FB82BB68FB617B6A07F114021146CE
:103970001846064B984738623B6A002B01D03B6AD9
:1039800000E0FB8818462837BD4680BD4D85000005
:1039900080B584B000AF786039607B68002B14BFBD
:1039A00001230023DBB25E220C4918460C4B9847DA
:1039B0007B68396818460B4B9847F860FB68002B0A
:1039C00001D0FB6806E07B68074A9A617B68074A7A
:1039D0005A61002318461037BD4680BD98B10100DA
:1039E000DD4C0000ED820000F1380000413900009C
:1039F00080B582B000AF78607B681846034B98476B
:103A0000034618460837BD4680BD00BF3583000019
:103A100080B582B000AF78607B681846034B98474A
:103A2000034618460837BD4680BD00BF75830000B9
:103A300080B485B000AFF8600B467A607B817B89EB
:103A4000C3F309031AB27B681BB203F480631BB291
:103A500013431BB29AB2FB689A83FB689B8B184690
:103A60001437BD465DF8047B704780B483B000AF67
:103A7000786039607B6803F114023B681A600023A8
:103A800018460C37BD465DF8047B704780B584B09E
:103A900000AFF860B9607A60FB68002B04D0BB68A7
:103AA000002B01D0012300E0002303F00103DBB26F
:103AB00033220A4918460A4B9847FB68B9681846EA
:103AC000084B9847FB68084A1A60FB68074A5A6027
:103AD000002318461037BD4680BD00BFB4B10100B9
:103AE000DD4C0000159C0000F13A0000153B000081
:103AF00080B584B000AF78607B68FB60FB685B6971
:103B0000002B03D0FB685B69F868984700BF10374B
:103B1000BD4680BD80B584B000AF78607B68FB6037
:103B2000FB689B69002B03D0FB689B69F86898478A
:103B300000BF1037BD4680BD80B582B000AF786051
:103B400039607B68002B04D03B68002B01D0012337
:103B500000E0002303F00103DBB2312206491846DE
:103B6000064B98477B6839681846054B98470346CB
:103B700018460837BD4680BDCCB10100DD4C0000C1
:103B80004973000080B582B000AF78607B68002B7D
:103B900014BF01230023DBB23F2206491846064B1F
:103BA00098477B681846054B9847034618460837E0
:103BB000BD4680BDCCB10100DD4C0000BD730000EE
:103BC00080B582B000AF78607B68002B14BF012302
:103BD0000023DBB2462206491846064B98477B680D
:103BE0001846054B9847034618460837BD4680BD22
:103BF000CCB10100DD4C0000E173000080B582B063
:103C000000AF786039607B68002B04D03B68002BE4
:103C100001D0012300E0002303F00103DBB24D22B9
:103C200006491846064B98477B6839681846054B85
:103C30009847034618460837BD4680BDCCB1010001
:103C4000DD4C00002D75000080B584B000AF7860B9
:103C500039600023FB607B68002B04D03B68002B9D
:103C600001D0012300E0002303F00103DBB2402276
:103C700010491846104B98477B683A685A607B6831
:103C80000433396818460D4B9847F860FB68002BE1
:103C900001DAFB680AE07B684FF400429A827B6895
:103CA000074A1A617B68074ADA6000231846103712
:103CB000BD4680BDE8B10100DD4C0000498A00002E
:103CC000413D0000993D000080B582B000AF7860B2
:103CD0007B68002B14BF01230023DBB25722064967
:103CE0001846064B98477B6804331846044B9847A0
:103CF00000BF0837BD4680BDE8B10100DD4C0000C3
:103D0000558B000080B582B000AF78607B68002BD7
:103D100014BF01230023DBB25D2206491846064B7F
:103D200098477B6804331846044B984700BF083710
:103D3000BD4680BDE8B10100DD4C0000A58B000050
:103D400080B588B000AFF860B9601346FB80FB68AF
:103D5000002B14BF01230023DBB287220B49184636
:103D60000B4B9847FB680C3BFB61BB687B610023F6
:103D70003B61FB88BB6107F110031946F869054BED
:103D80009847034618462037BD4680BDE8B101007C
:103D9000DD4C0000F13D000080B588B000AFF86058
:103DA000B9601346FB80FB68002B14BF012300237E
:103DB000DBB2A3220B4918460B4B9847FB680C3B20
:103DC000FB6100237B61BB683B61FB88BB6107F142
:103DD00010031946F869054B9847034618462037E3
:103DE000BD4680BDE8B10100DD4C0000F13D0000A2
:103DF00080B586B000AF786039607B68002B04D056
:103E00003B68002B01D0012300E0002303F00103F5
:103E1000DBB2B3220C4918460C4B98473B681B6831
:103E2000FB603B685B683B613B689B687B617B68D0
:103E3000043307F10C0211461846054B9847034618
:103E400018461837BD4680BDE8B10100DD4C0000C2
:103E5000498D000080B582B000AF786039607B6822
:103E6000002B04D03B68002B01D0012300E000238D
:103E700003F00103DBB2BD2206491846064B984702
:103E80007B6803F10C023B681A6000231846083770
:103E9000BD4680BDE8B10100DD4C000080B483B0B8
:103EA00000AF78607B681B6818460C37BD465DF82C
:103EB000047B704780B483B000AF78607B68002BD0
:103EC00002D07B681B6800E0002318460C37BD4613
:103ED0005DF8047B7047000080B584B000AFF860E7
:103EE000B9607A60FB68002B07D0BB68002B04D058
:103EF0007B68002B01D0012300E0002303F00103C5
:103F0000DBB23B220C4918460C4B9847FB687A6899
:103F10001A60FB681B681B68FA680432B9681046AF
:103F20009847FB6800225A61FB68054A5A600023E3
:103F300018461037BD4680BD04B20100DD4C0000BC
:103F4000C942000080B582B000AF78607B68002B6A
:103F500005D07B681B68002B01D0012300E0002303
:103F600003F00103DBB254220E4918460E4B98476A
:103F70007B681B689B697A68043210469847034641
:103F8000002B02D06FF0100307E07B681B689B6872
:103F90007A68043210469847002318460837BD4611
:103FA00080BD00BF04B20100DD4C000080B582B0CE
:103FB00000AF78607B68002B05D07B681B68002B06
:103FC00001D0012300E0002303F00103DBB26222F1
:103FD0000F4918460F4B98477B681B689B697A68A6
:103FE000043210469847034683F00103DBB2002BEE
:103FF00002D06FF0100307E07B681B68DB687A680B
:10400000043210469847002318460837BD4680BD45
:1040100004B20100DD4C000080B584B000AF7860D0
:1040200039607B68002B08D03B68002B05D07B688B
:104030001B68002B01D0012300E0002303F00103E3
:10404000DBB27B222F4918462F4B98477B681B7F9A
:10405000DBB243F00103DAB27B681A777B6818336E
:1040600039681846294B98470346002B0FD07B68C8
:104070001B7FDBB223F00103DAB27B681A77802260
:1040800020490020204B98476FF0110335E07B68F2
:104090005A693B685A607B6803F118007B685B696A
:1040A0001A4639681A4B98477B681B7FDBB223F0AE
:1040B0000103DAB27B681A777B681B7FDBB203F0FF
:1040C0000203002B18D007F10C031846114B984738
:1040D0007B681B7FDBB223F00203DAB27B681A77BE
:1040E0007B681B68DB697A6804321046984707F1E1
:1040F0000C031846084B9847002318461037BD4656
:1041000080BD00BF04B20100DD4C0000054D000081
:104110001942000025D100004BD1000080B584B0C9
:1041200000AF786039607B68002B08D03B68002BBB
:1041300005D07B681B68002B01D0012300E0002321
:1041400003F00103DBB296222D4918462D4B984708
:104150007B681B7FDBB243F00103DAB27B681A771E
:104160007B68183339681846274B9847034683F015
:104170000103DBB2002B0FD07B681B7FDBB223F087
:104180000103DAB27B681A779B221D4900201D4B80
:1041900098476FF009032EE07B681833396818469A
:1041A0001A4B98477B681B7FDBB223F00103DAB21E
:1041B0007B681A777B681B7FDBB203F00203002B5E
:1041C00018D007F10C031846114B98477B681B7FEA
:1041D000DBB223F00203DAB27B681A777B681B68D4
:1041E000DB697A6804321046984707F10C031846D9
:1041F000084B9847002318461037BD4680BD00BFC6
:1042000004B20100DD4C0000054D0000674E0000C7
:1042100025D100004BD1000080B588B000AFF86018
:10422000B9607A600023BB61F868234B9847386116
:104230003B69002B04D1B968F868204B984737E0F8
:104240003B69FB6122E0FB695A687B689A4208D8A7
:10425000FB699A68FB6959687B68CB1A13447B61D8
:1042600009E0FB699A68FB695B681A447B685B42FA
:10427000134401337B61BB689A687B699A4209D910
:10428000FB69BB61F8690E4B9847F861FB69002B2D
:10429000D9D100E000BFFA693B699A4204D1B968FC
:1042A000F868064B984703E0B968B869054B98472A
:1042B0002037BD4680BD00BF9D3E00003D4D000043
:1042C000B53E0000954D000080B586B000AF786027
:1042D0007B68043B3B613B6918331846274B984782
:1042E00078613B695B695A1C3B695A613B695B6950
:1042F000FB603B691B7FDBB203F00103002B06D19F
:104300003B691B7FDBB203F00203002B27D03B6924
:104310001B7FDBB243F00203DAB23B691A7729E074
:104320007B69BB603B6918331846154B9847BB68DF
:104330001B7C012B09D1BB68FA685A603B691833B2
:10434000FA68B96818460F4B98473B691833184606
:104350000A4B98477861BB68DB68B86898477B6907
:10436000002B07D07B695B68FA68D21A7B699B686F
:104370009A42D5D21837BD4680BD00BF9D3E000091
:10438000354E00001942000080B485B000AF0346EE
:10439000FB710023FB7329E097F90F30194A5B0189
:1043A000134401331B78FA799A4202D197F90F30FE
:1043B00022E097F90F30134A5B0113441B78002B5E
:1043C0000ED1FB7903F00F0397F90F200D4952012D
:1043D0000A4401321278934202D197F90F300BE070
:1043E00097F90F30DBB20133DBB2FB7397F90F3073
:1043F000032BD1DD4FF0FF3318461437BD465DF86F
:10440000047B70471C22002080B588B000AFBA60E2
:104410007B600346FB730B46BB73BB687B617B68A9
:10442000BB61BB7B002B04D0FB7B63F07F03DBB263
:1044300003E0FB7B03F00F03DBB23B7797F82830F8
:104440007B7707F114031846034B98470346184639
:104450002037BD4680BD00BF59C7000080B485B07D
:1044600000AFF860B9607A60002318461437BD4683
:104470005DF8047B7047000080B586B000AF03464E
:10448000FB71FB7918462A4B98470346FB7597F951
:1044900017305B01274A13443B613B690C33FB60D7
:1044A000FB79F9681846244B98470346FB72FB7A60
:1044B000082B0DD0FB7901211846204B9847FB793A
:1044C00063F07F03DBB2012118461C4B98472BE0B9
:1044D000FB7900211846194B9847FB7963F07F035D
:1044E000DBB200211846154B98473B6901229A70B0
:1044F0003B695B69FA79F96810469847034683F08F
:104500000103DBB2002B0FD03B6905229A70FB79C7
:1045100001211846094B9847FB7963F07F03DBB212
:1045200001211846054B98471837BD4680BD00BF8E
:10453000894300001C220020B1C6000029C50000EC
:1045400080B584B000AF03463960FB71FB79184633
:104550000D4B98470346FB7397F90F305B010B4AED
:104560001344BB60BB689B78032B07D1BB689B6976
:10457000FA79396810469847034600E00023184648
:104580001037BD4680BD00BF894300001C220020BB
:1045900090B587B002AF78607B689B78FB737B68CF
:1045A0001B7B03F08003002B14BF01230023BB738C
:1045B000FB7B032B3AD17B68DB697A6850787A6899
:1045C0000C320121984703467B737B7B002B15D06F
:1045D0007B6805229A707B680222DA70BB7B002B15
:1045E00002D07B685B7804E07B685B7863F07F03D4
:1045F000DBB201211846154B984722E07B68042264
:104600009A707B685878BB7B002B14BF0123002372
:10461000DBB283F00103DBB203F00103D9B2012363
:104620000093002300220A4CA0470AE07B68DB6964
:104630007A6850787A680C32002198477B680222A9
:104640009A7000BF1437BD4690BD00BF29C5000059
:104650000944000080B586B000AF0346B9607A60B7
:10466000FB73FB7B18462F4B98470346FB7597F966
:1046700017305B012C4A13443B61BB68002B0ED101
:104680003B690022DA703B691B78002B03D1386943
:10469000264B984743E03B6901229A7038E0BB689B
:1046A000012B13D13B690222DA703B691B78002B86
:1046B00008D13B6902229A70FB7B002118461C4BF3
:1046C000984725E03B6905229A7021E0BB68022BE0
:1046D0000ED13B690422DA703B691B78002B03D1B1
:1046E0003B6902229A701AE03B6901229A700FE03E
:1046F000BB68032B06D13B6900229A703B690522F7
:10470000DA7005E03B6906229A703B690622DA708E
:104710003B69DB693A69D1787A68F87B9847183742
:10472000BD4680BD894300001C2200209145000049
:1047300029C5000080B582B000AF214B9847386092
:104740003B68002B01DA3B6836E0802200211D48DF
:104750001D4B98470023FB711EE0FB79194A5B0152
:1047600013440133FF221A70FB79164A5B0113448C
:104770001433164A1A60FB79124A5B01134418334A
:10478000124A1A60FB790F4A5B0113441C330F4A2B
:104790001A60FB790133FB71FB79032BDDD90C49DE
:1047A00000200C4B98470C4901200A4B98470B49B5
:1047B0000220084B9847002318460837BD4680BDA5
:1047C00071BD00001C220020C5AC01005D4400004A
:1047D00079440000B9C90000414500005546000079
:1047E00080B582B000AF03463960FB71FB79396850
:1047F0001846034B984700BF0837BD4680BD00BF31
:1048000071C9000080B500AF024B984703461846B7
:1048100080BD00BF61BE000080B500AF014B98476E
:1048200000BF80BDE5BE000080B582B000AF03468A
:10483000FB71FB791846034B984700BF0837BD460C
:1048400080BD00BFF9BE000080B582B000AF034656
:10485000FB71FB799BB21A4600210020034B98475D
:10486000034618460837BD4680BD00BF71480000AA
:1048700080B586B000AF0346FB710B46BB71134693
:10488000BB80FB7918461E4B98470346FB7597F98A
:1048900017305B011B4A13443B6197F91730002B1B
:1048A00002DB6FF0130327E0FF20154B9847034608
:1048B000FB7597F91730002B02DA6FF014031BE039
:1048C00097F917305B010F4A13443B61BA88B979F5
:1048D000FB7918460C4B9847F860FB68002B01DA0F
:1048E000FB6809E03B69FA795A70BB7903F003036E
:1048F000DAB23B691A70002318461837BD4680BDEE
:10490000894300001C22002099BF000080B584B0BC
:1049100000AF0346FB71FB7918460D4B98470346E1
:10492000FB7397F90F305B010A4A1344BB6097F998
:104930000F30002B07DBFB791846074B9847BB6805
:10494000FF225A7000E000BF1037BD4680BD00BF97
:10495000894300001C220020CDC0000080B586B035
:1049600000AF0346FB71FB791846154B9847034689
:10497000FB7597F917305B01124A13443B6197F9B5
:104980001730002B02DA6FF0110314E03B691B783B
:10499000002B01D1022200E001223B699A70FB79D1
:1049A0001846094B9847F860FB68002B02DA3B6910
:1049B00000229A70FB6818461837BD4680BD00BFBC
:1049C000894300001C220020B1C1000090B58DB0C9
:1049D00002AF78607B681B7A1846514B98470346B4
:1049E000FB7797F91F305B014E4A1344BB617B682C
:1049F0001B7A03F08003002B14BF0123002387F8E8
:104A000027307B685B7A002B14BF0123002387F8D3
:104A100026307B685B683B6297F91F30002B02DA17
:104A20006FF0110377E007F1080318463E4B9847F3
:104A3000BB699B78FB73FB7BDBB2012B0CD1BB69A1
:104A400003229A7007F108031846384B9847BB6950
:104A50001B78002B51D117E007F108031846334BA0
:104A60009847FB7BDBB2052B04D0062B04D0002B30
:104A700005D007E002234EE06FF00F034BE06FF02C
:104A8000120348E0012346E0BB699B7C9AB2BB69F4
:104A9000DB7C9BB21B029BB21344FB82FB8A002B84
:104AA0000BD1012387F8273000233B62012387F8CD
:104AB0002630BB6904229A701FE0BB691B7B03F0A0
:104AC0008003002B14BF0123002387F82730FA8AC4
:104AD0003B6A9A4201D2FB8A3B6297F82730002B4F
:104AE00008D0FA8A3B6A9A428CBF0123002387F8D8
:104AF000263002E0002387F826307B68187A7B682E
:104B00001A6897F8263097F8271000933B6A084CEC
:104B1000A04738613B6918462C37BD4690BD00BFA1
:104B2000894300001C22002025D100004BD1000049
:104B30000944000080B584B000AF0346FB71FB79E7
:104B400018460E4B98470346FB7397F90F305B01ED
:104B50000B4A1344BB6097F90F30002B0ADBFB793B
:104B60001846084B9847BB6801229A70BB6804221C
:104B7000DA7000E000BF1037BD4680BD89430000F9
:104B80001C2200201DC9000080B586B000AF03467E
:104B9000FB71FB7918461A4B98470346FB7597F94A
:104BA00017305B01174A13443B6197F91730002B0C
:104BB00002DA6FF011031FE0FB7902211846124B55
:104BC00098470346002B16D0FB79002118460E4B60
:104BD0009847F860FB68002B01DAFB680CE03B6942
:104BE00001229A703B690322DA703B69DB69F8792C
:104BF000002203219847002318461837BD4680BD80
:104C0000894300001C22002029C5000080B582B025
:104C100000AF03460A46FB711346BB71BB79002BFC
:104C200005D1FB7918460C4B984703460FE0BB793A
:104C3000012B06D1FB7901211846084B9847034602
:104C400005E0FB7902211846044B984703461846B5
:104C50000837BD4680BD00BF894B000029C5000054
:104C600080B586B000AF03463A60FB710B46BB715E
:104C7000FB791846164B98470346FB7597F9173092
:104C80005B01144A13443B613B68002B01D03B6835
:104C900000E0114BFB6097F91730002B13DBBB7959
:104CA000012B08D0022B0AD0002B00D00CE03B696E
:104CB000FA685A6108E03B69FA689A6104E03B6966
:104CC000FA68DA6100E000BF1837BD4680BD00BF5A
:104CD000894300001C2200205D44000080B485B0A0
:104CE00000AF0346B9607A60FB73FB7B83F001037E
:104CF000DBB2002B00D000BE00BF1437BD465DF80C
:104D0000047B704780B485B000AF786039607B6801
:104D10001B68FB6008E0FA683B689A4201D10123F6
:104D200006E0FB681B68FB60FB68002BF3D10023E7
:104D300018461437BD465DF8047B704780B582B0D5
:104D400000AF78603960396878680F4B9847034640
:104D5000002B14BF01230023DBB283F00103DBB27D
:104D600003F00103DBB2392208491846084B984783
:104D70007B681A683B681A607B683A681A6000BFF3
:104D80000837BD4680BD00BF054D00001CB20100C4
:104D9000DD4C000080B483B000AF786039607B6880
:104DA0001A683B681A607B683A681A6000BF0C3763
:104DB000BD465DF8047B704780B584B000AF786075
:104DC00039607B681B68FB6039687868164B9847C8
:104DD0000346002B14BF01230023DBB283F0010341
:104DE000DBB203F00103DBB24F2210491846104B2F
:104DF00098477B681B68002B09D17B683A681A606A
:104E00003B6800221A600CE0FB681B68FB60FB68D3
:104E10001B68002BF8D1FB683A681A603B680022D7
:104E20001A601037BD4680BD054D00001CB2010060
:104E3000DD4C000080B485B000AF78607B681B68F3
:104E4000002B09D07B681B68FB607B681B681A68B5
:104E50007B681A60FB6800E0002318461437BD46E3
:104E60005DF8047B704780B485B000AF786039602E
:104E70003B68002B01D1002324E07B681A683B6863
:104E80009A4206D17B681B681A687B681A60012306
:104E900018E07B681B68FB6002E0FB681B68FB6036
:104EA000FB68002B04D0FB681A683B689A42F4D177
:104EB000FB68002B05D03B681A68FB681A60012369
:104EC00000E0002318461437BD465DF8047B7047A8
:104ED00080B483B000AF0346FB80B7F90630002BE7
:104EE0000BDB0949B7F906305B09FA8802F01F02AB
:104EF000012000FA02F241F8232000BF0C37BD4622
:104F00005DF8047B704700BF00E100E080B483B02F
:104F100000AF0346FB80B7F90630002B10DB0B49CE
:104F2000B7F906305B09FA8802F01F02012000FA87
:104F300002F2203341F82320BFF34F8FBFF36F8F6E
:104F400000BF0C37BD465DF8047B704700E100E010
:104F500080B483B000AF0346FB80B7F90630002B66
:104F60000CDB0949B7F906305B09FA8802F01F0229
:104F7000012000FA02F2603341F8232000BF0C3711
:104F8000BD465DF8047B704700E100E080B483B06B
:104F900000AF78607B685B6C5B0903F00103002B5A
:104FA00014BF01230023DBB218460C37BD465DF861
:104FB000047B704780B483B000AF78607B68D3F81F
:104FC000A43003F07F0318460C37BD465DF8047B20
:104FD000704780B483B000AF78607B68D3F8A430AA
:104FE0001B0A03F03F0318460C37BD465DF8047BEF
:104FF000704780B483B000AF78607B68D3F8C4306A
:105000005B0D03F00103002B14BF01230023DBB26F
:1050100018460C37BD465DF8047B704780B483B0FA
:1050200000AF78607B68D3F8C4301B0C03F01F031B
:1050300018460C37BD465DF8047B704780B483B0DA
:1050400000AF786039607B683A689A6000BF0C37BF
:10505000BD465DF8047B704780B483B000AF7860D4
:1050600039607B683A68DA6000BF0C37BD465DF88E
:10507000047B704780B483B000AF78607B689B6925
:1050800043F001027B689A6100BF0C37BD465DF8B2
:10509000047B704780B485B000AF78607B689B6903
:1050A000FB60FB6803F00103FB60FB68002B14BF8F
:1050B00001230023DBB218461437BD465DF8047B9C
:1050C000704780B483B000AF78607B689B6923F041
:1050D00001027B689A6100BF0C37BD465DF8047B16
:1050E000704780B483B000AF78607B689B6943F001
:1050F00002027B689A6100BF0C37BD465DF8047BF5
:10510000704780B483B000AF78607B689B6923F000
:1051100002027B689A6100BF0C37BD465DF8047BD4
:10512000704780B485B000AF78607B689B69FB6096
:10513000FB681B0A03F00103FB60FB68002B14BF34
:1051400001230023DBB218461437BD465DF8047B0B
:10515000704780B485B000AF78607B689B69FB6066
:10516000FB685B0A03F00103FB60FB68002B14BFC4
:1051700001230023DBB218461437BD465DF8047BDB
:10518000704780B483B000AF786039607B689A69FB
:105190003B681A437B689A6100BF0C37BD465DF8D7
:1051A000047B704780B483B000AF786039607B685F
:1051B0003A68DA6100BF0C37BD465DF8047B704782
:1051C00080B483B000AF786039607B683A681A6554
:1051D00000BF0C37BD465DF8047B704780B483B0D8
:1051E00000AF78607B681B6D18460C37BD465DF8D4
:1051F000047B704780B485B000AF78600B46FB70CD
:105200007B685B6DFB60FB6823F00103FB60FB7850
:10521000FA681343FB607B68FA685A6500BF14376D
:10522000BD465DF8047B704780B485B000AF786000
:105230000B46FB707B685B6DFB60FB6823F40073BF
:10524000FB60FB785B021A46FB681343FB607B68DC
:10525000FA685A6500BF1437BD465DF8047B704795
:1052600080B485B000AF786039607B685B6DFB60AF
:10527000FA683B681340FB60FB6818461437BD466C
:105280005DF8047B704780B483B000AF786039600C
:105290007B683A685A6500BF0C37BD465DF8047BF1
:1052A000704780B483B000AF786039607B683A683B
:1052B000DA6500BF0C37BD465DF8047B704780B4EB
:1052C00083B000AF786039607B683A68C3F88020AB
:1052D00000BF0C37BD465DF8047B704780B483B0D7
:1052E00000AF786039607B683A68C3F8842000BFFB
:1052F0000C37BD465DF8047B704780B483B000AFC7
:10530000786039607B683A68C3F8882000BF0C3742
:10531000BD465DF8047B704780B483B000AF786011
:1053200039607B683A68C3F8902000BF0C37BD46EF
:105330005DF8047B704780B483B000AF786039605B
:105340007B683A68C3F8A02000BF0C37BD465DF803
:10535000047B704780B485B000AF786039607B68AB
:10536000D3F8A830FB60FB6823F03F03FB603B6889
:1053700003F03F03FA681343FB607B68FA68C3F8E5
:10538000A82000BF1437BD465DF8047B704780B489
:1053900083B000AF786039607B683A68C3F8BC209E
:1053A00000BF0C37BD465DF8047B704780B483B006
:1053B00000AF786039607B683A68C3F8C02000BFEE
:1053C0000C37BD465DF8047B704780B483B000AFF6
:1053D000786039607B683A68C3F8C82000BF0C3732
:1053E000BD465DF8047B704780B483B000AF786041
:1053F00039607B683A68C3F8D02000BF0C37BD46DF
:105400005DF8047B704780B483B000AF786039608A
:105410007B683A68C3F8E02000BF0C37BD465DF8F2
:10542000047B704780B483B000AF786039607B68DC
:105430003A68C3F8F02000BF0C37BD465DF8047B26
:105440007047000080B582B000AF786039607B683B
:105450003A681A607B681B681846564B984700BF2D
:105460007B681B681846544B9847034683F001033A
:10547000DBB2002BF4D17B681B6818464F4B984772
:105480003B684F4A93427CD14E4A7B6813607B68ED
:105490004D4A9A617B681B684FF4007118464B4B6C
:1054A00098477B681B6802211846494B98477B68E0
:1054B0001B6840F603211846464B98477B681B68DB
:1054C0004FF423611846444B98477B681A68434B56
:1054D0009BB243F0004343F4803319461046404BDF
:1054E00098477B681B68072118463E4B98477B68A6
:1054F0001B68072118463C4B98477B681A683B4B52
:105500009BB243F0807319461046394B98477B682D
:105510001A68384B9BB243F4003319461046364B99
:1055200098477B681B6808211846344B98477B686E
:105530001A68334B9BB243F4001319461046314BA3
:1055400098477B681A68304B9BB243F40033194686
:1055500010462E4B98477B681B686FF060411846D9
:105560002B4B98474F202B4B98474F202A4B98475F
:105570004F202A4B98477B681B6801211846284B0F
:1055800098477B681B681846264B98477B681B68C2
:105590001846254B984700BF7B681B681846064B8A
:1055A00098470346002BF7D1002318460837BD461D
:1055B00080BD00BF7550000095500000E350000012
:1055C000000400423C23002004000020835100001E
:1055D0003D500000A55100005950000070E100202E
:1055E000375300008F530000CB53000028E1002008
:1055F000AD5300009C22002025540000BF52000043
:10560000AC220020DD5200002C230020FB520000C1
:10561000195300000D4F0000514F0000D14E000003
:10562000A352000003510000C350000080B582B0B7
:1056300000AF78607B681B681846034B98470023CF
:1056400018460837BD4680BDC350000090B589B0EC
:1056500000AF786039600023FB617B681B681846E7
:10566000374B98470346002B02D16FF0090363E0E4
:105670007B681B681846334B9847B8617B681B688A
:10568000314A934208D1BA691346DB001344DB0068
:105690001A462E4B1344FB61FB69002B02D16FF0BD
:1056A0001B0349E0FB691B68C3F38073DBB2012B6A
:1056B0000AD13B6801225A73FB691B68C3F31C03C0
:1056C0001A463B681A600AE03B6800225A73FB697D
:1056D0001B68C3F31C039B141A463B681A60FB69E2
:1056E0001B68C3F34073DBB2012B02D13B6801227C
:1056F0001A71174B07F108040FCB84E80F00FB6900
:105700005B68C3F30343DBB207F12002134413F8D1
:10571000182C3B681A733B689868FB6903F1080111
:105720003B681B7B1A460B4B98477B681B68B96923
:105730001846094B9847002318462437BD4690BDAC
:10574000B54F0000D34F00000004004270E100207C
:105750003CB2010091AB01005553000090B585B0FB
:1057600000AF786039600023FB607B681B681846D7
:10577000614B98470346002B02D06FF01B03B7E044
:105780007B681B6818465D4B9847B8607B681B6850
:105790005B4A934208D1BA681346DB001344DB002E
:1057A0001A46584B1344FB60FB68002B02D16FF084
:1057B0001B039DE03B685B7B012B09D13B681A68AA
:1057C000FB681A60FA68136843F08043136004E0D2
:1057D0003B681B689A04FB681A603B681B7B082BBC
:1057E0000AD83B681B7B03F00F03D9B2FA685368F1
:1057F00061F3134353604AE03B681B7B0C2B06D8D4
:10580000FA685368092161F3134353603FE03B6832
:105810001B7B102B06D8FA6853680A2161F31343E7
:10582000536034E03B681B7B142B06D8FA6853683E
:105830000B2161F31343536029E03B681B7B182B5A
:1058400006D8FA6853680C2161F3134353601EE0D5
:105850003B681B7B202B06D8FA6853680D2161F347
:105860001343536013E03B681B7B302B06D8FA6868
:1058700053680E2161F31343536008E03B681B7BC0
:10588000402B04D8FA68536843F4702353607B6854
:105890001B6818461C4B984703461946FA6853681C
:1058A00061F3555353607B681B681846174B984744
:1058B00003461946FA68536861F314535360FB6852
:1058C00003F108003B6899683B681B7B1A46104B44
:1058D00098477B681C687B681B681846074B98478D
:1058E000024601239340194620460A4B984700235D
:1058F00018461437BD4690BDF34F00001D50000000
:105900000004004228E10020235100005351000010
:1059100091AB0100E953000080B584B000AF78601E
:105920000B46FB701346BB70FB78002B07D17B68DE
:105930001B68BA7811461846164B984726E0FB7844
:10594000012B0ED17B681B68BA7811461846124BA2
:1059500098477B681B684FF0FF3118460F4B9847FC
:1059600014E0FB78022B11D17B681B6840F2012107
:1059700018460B4B9847F8607B681A68FB6843F43D
:10598000000319461046074B984700BF00BF103769
:10599000BD4680BDF55100002952000007540000AB
:1059A000615200008752000080B487B000AFF860F9
:1059B0007B600B46FB721346BB72FB689B69DA681F
:1059C000FB7A9B0013447B61FB689B691A69FB7A35
:1059D000DB0013443B61BB7A002B23D17B68002B97
:1059E00004D17B6900221A6000233BE07B685A687F
:1059F0007B691A607B681B689BB2C3F30A0399B288
:105A00007A69136861F31A4313607A691368022193
:105A100061F39F7313607A691368012161F3DD6399
:105A200013601EE0BB7A012B1BD17B68002B04D1D5
:105A30003B6900221A60002314E07B681A683B6906
:105A40001A603A691368012161F35F7313607B6820
:105A50005A683B695A603A695368022161F39F733F
:105A60005360002318461C37BD465DF8047B704721
:105A700090B583B000AF2C4B1B687B607B681B68C4
:105A800018462A4B984738603B6803F00103002B07
:105A900003D07B689B68786898473B6803F4007381
:105AA000002B03D07B685B68786898473B6803F0FD
:105AB0000073002B04D07B68DB680321786898476B
:105AC0003B6803F08073002B04D07B68DB68002107
:105AD000786898473B6803F40003002B0FD07B687D
