S01400004D656D6F72696573546573742E737265632F
S113000028260020150100000D0200000D0200004A
S113001000000000000000000000000000000000DC
S11300200000000000000000000000000D020000BD
S113003000000000000000000D0200000D0200009E
S11300400D0200000D0200000D0200000D02000070
S11300500D0200000D0200000D0200000D02000060
S11300600D0200000D0200000D0200000D02000050
S11300700D0200000D0200000D0200000D02000040
S11300800D0200000D020000211C0000591C00009C
S11300906D1C00000D020000811C00000D02000018
S11300A00D0200000D0200000D0200000D02000010
S11300B00000000010B5064C2378002B07D1054B37
S11300C0002B02D0044800E000BF0123237010BDC0
S11300D08404002000000000E0210000084B10B55B
S11300E0002B03D00749084800E000BF0748036815
S11300F0002B00D110BD064B002BFBD09847F9E72D
S11301000000000088040020E0210000E02100003D
S11301100000000080B582B000AF2F4B7B602F4BF6
S11301203B607A683B689A420CD007E03B681A1D32
S11301303A607A68111D796012681A603A68284B2F
S11301409A42F3D3274B3B6004E03B681A1D3A60A4
S113015000221A603A68244B9A42F6D3234B7B6000
S1130160234B7A68FF218A439A60224A90235B00DA
S11301700221D150204AD37803218B43191C022336
S11301800B43D3701C4AD3780C218B43191C0823CE
S11301900B43D370194A937B30218B43191C2023C2
S11301A00B439373154A937B0C218B43191C08232F
S11301B00B439373114A937B03218B43191C022332
S11301C00B4393730E4A536880210B4353600D4BCA
S11301D098470D4B9847FEE7E021000000000020FF
S11301E0840400208404002028060020000000006D
S11301F000ED00E000700041005000410048004163
S113020000400041211E00005D0B000080B500AFDE
S1130210FEE780B584B000AFF8607A600B23FB186A
S11302200A1C1A700B23FB181B78FA68DB01D3181D
S113023018337A681A60C046BD4604B080BD80B5E4
S113024084B000AFF8607A600B23FB180A1C1A70A4
S11302500B23FB181B78FA68DB01D31814337A6874
S11302601A60C046BD4604B080BD000080B582B0AF
S113027000AF39601100FB1D021C1A70BB1D0A1C63
S11302801A70BB1D1B78002B08D03A68FB1D197827
S1130290C023DB051800074B984707E03A68FB1DAD
S11302A01978C023DB051800034B9847C046BD46A8
S11302B002B080BD130200003F02000080B582B08E
S11302C000AF0200FB1D1A70BB1D0A1C1A70FB1D37
S11302D01B785B11D8B2FB1D1B781A001F23134037
S11302E001229A401100BB1D1B781A00024B98474B
S11302F0C046BD4602B080BD6D02000080B582B02C
S113030000AF786039607B68903318000B4B9847D6
S11303107B680B4A043311007C221800094B984770
S11303207B688C213A685A50074B1A687B681A60BC
S11303307B681800BD4602B080BDC046750C000045
S113034078200000691E0000A004002080B582B05F
S113035000AF78607B6890331800034B98477B6844
S11303601800BD4602B080BD910C000080B582B07B
S113037000AF78607B68903318007B688C229B58B0
S113038019000F4B98477B68903318000D4B984722
S11303907B6800221A607B6818000B4B98477B68C7
S11303A018000A4B9847030019007B68BC22995433
S11303B07B681800064B9847C046BD4602B080BD16
S11303C0E50C0000A50C0000D50300002D0700007B
S11303D0C107000080B582B000AF78607B689033BD
S11303E01800054B9847030019007B688022995038
S11303F0C046BD4602B080BD090D000080B582B084
S113040000AF78607B6880220021995000211B2076
S1130410044B984701211C20024B9847C046BD4617
S113042002B080BDBD02000080B582B000AF78602C
S11304307B6880220021995001211B20044B98479E
S113044001211C20024B9847C046BD4602B080BD26
S1130450BD02000080B582B000AF78600A00FB1CCA
S11304601A707B689033F91C01221800034B9847DB
S1130470FB1C1B781800BD4602B080BD450D000072
S113048080B584B000AF78607B6890330F22B918D0
S113049001221800044B98470F23FB181B781800FF
S11304A0BD4604B080BDC046850D000080B582B055
S11304B000AF78607B6818000E4B98477B68062174
S11304C018000D4B98477B6818000C4B98477B68C5
S11304D018000B4B9847030019007B68BC22995401
S11304E07B68BC229B5C002B00D1E3E7C046BD4681
S11304F002B080BDFD030000550400002904000083
S11305002D07000080B582B000AF78607B681800CA
S1130510074B98477B6804211800064B98477B6873
S11305201800054B9847C046BD4602B080BDC04682
S1130530FD030000550400002904000080B586B0C6
S113054000AFF860B9607A607B687B61BB683B612F
S1130550FB681800294B98477B69002B45D0FB6842
S11305601800274B98477A6980235B019A4208D880
S11305703A69FB6811001800224B984700237B61FD
S11305802AE07B69204A934211D83A69FB6811003A
S113059018001C4B98473B698022520194466344DF
S11305A03B617B69194A944663447B6114E07B692F
S11305B0154A934210D93A69FB6811001800144B8C
S11305C098473B6980225202944663443B617B69AD
S11305D0104A944663447B61FB6818000E4B9847AD
S11305E0FB6818000D4B9847B6E7FB6818000C4BE6
S11305F09847C046BD4606B080BDC046D50300003E
S1130600AD040000E9070000FFFF000000F0FFFF59
S1130610250600000000FFFF8D0600000505000010
S1130620C107000080B582B000AF786039607B6894
S11306301800134B98477B68D8211800114B984732
S11306403B681B0CDAB27B68110018000D4B98470D
S11306503B681B0ADAB27B6811001800094B984703
S11306603B68DAB27B6811001800064B98477B6838
S11306701800054B9847C046BD4602B080BDC04631
S1130680FD030000550400002904000080B582B079
S113069000AF78607B6818000F4B9847030019007F
S11306A07B68BC2299547B68BC229B5C1A000123A2
S11306B0134009D07B681800074B984703001900C2
S11306C07B68BC229954EEE77B68BC229B5C1800D3
S11306D0BD4602B080BDC0462D07000080B582B083
S11306E000AF78607B6818000D4B98477B68180052
S11306F00C4B9847030019007B68BC2299547B6813
S11307001800094B98477B68BC229B5C1A000123A4
S113071013405A425341DBB21800BD4602B080BDBB
S1130720D50300002D070000C107000080B582B08A
S113073000AF78607B6805211800074B98470300D9
S113074019007B68BC2299547B68BC229B5C18000E
S1130750BD4602B080BDC0465D07000090B585B0BF
S113076000AF78600A00FB1C1A700F23FB180022EC
S11307701A707B6818000E4B9847FB1C1A787B682C
S1130780110018000B4B98470F23FC187B681800C6
S1130790094B9847030023707B681800074B984760
S11307A00F23FB181B781800BD4605B090BDC0464A
S11307B0FD0300005504000081040000290400002A
S11307C080B582B000AF78607B68802200219950A8
S11307D07B6890331800034B9847C046BD4602B06F
S11307E080BDC046C50D000080B582B000AF786002
S11307F039607B681800134B98477B6820211800E8
S1130800114B98473B681B0CDAB27B681100180047
S11308100D4B98473B681B0ADAB27B68110018003D
S1130820094B98473B68DAB27B6811001800064B05
S113083098477B681800054B9847C046BD4602B0F0
S113084080BDC046FD0300005504000029040000DB
S113085080B586B000AFF860B9607A603B60FB6831
S11308601800304B984703001A0001235340DBB2B1
S1130870002B00D0F3E7FB6818002B4B9847FB686C
S113088018002A4B9847FB681800294B9847FB68C7
S1130890A422022199547B681B0CD9B2FB68A522BF
S11308A099547B681B0AD9B2FB68A62299547B68C9
S11308B0D9B2FB68A722995404237B613B681A1DB3
S11308C07B699A420FD9BB681878FA68A4217B69BE
S11308D0D3185B18021C1A70BB680133BB607B69B8
S11308E001337B61EAE7FB6890331800FB68A433AB
S11308F019003B6804331A000E4B984703003B6110
S1130900FB6818000C4B9847FB6818000B4B984782
S1130910FB6818000A4B98473B691800BD4606B0AF
S113092080BDC046DD060000D5030000AD04000014
S1130930FD030000450D000029040000050500002A
S1130940C107000080B586B000AFF860B9607A6076
S11309503B60FB681800244B984703001A000123EE
S11309605340DBB2002B00D0F3E7FB6818001F4BA9
S11309709847FB6818001E4B9847FB68B822032170
S113098099547B681B0CD9B2FB68B92299547B68D3
S11309901B0AD9B2FB68BA2299547B68D9B2FB68A6
S11309A0BB229954FB6890331800FB68B8330422C7
S11309B01900104B984703007B61FB6890333A6839
S11309C0B96818000C4B984703007B61FB6818005A
S11309D00A4B9847FB681800094B98477B69180035
S11309E0BD4606B080BDC046DD060000D50300004C
S11309F0FD030000450D0000850D000029040000E2
S1130A00C107000080B582B000AF786039607B68B0
S1130A10012B0FD13B68094A93420BD1084A094B79
S1130A2011001800084B9847084A0949054B18005B
S1130A30084B9847C046BD4602B080BDFFFF00008A
S1130A40D0050020A4040020FD02000000000020C6
S1130A504D030000951C000080B500AF034B190046
S1130A600120034B9847BD4680BDC046FFFF0000F0
S1130A70050A000080B584B000AFF8607A600B23EB
S1130A80FB180A1C1A700B23FB181B78FA68DB018D
S1130A90D31818337A681A60C046BD4604B080BDC6
S1130AA080B584B000AFF8607A600B23FB180A1C91
S1130AB01A700B23FB181B78FA68DB01D318143364
S1130AC07A681A60C046BD4604B080BD80B582B065
S1130AD000AF39601100FB1D021C1A70BB1D0A1CFB
S1130AE01A70BB1D1B78002B08D03A68FB1D1978BF
S1130AF0C023DB051800074B984707E03A68FB1D45
S1130B001978C023DB051800034B9847C046BD463F
S1130B1002B080BD750A0000A10A000080B582B051
S1130B2000AF0200FB1D1A70BB1D0A1C1A70FB1DCE
S1130B301B785B11D8B2FB1D1B781A001F231340CE
S1130B4001229A401100BB1D1B781A00024B9847E2
S1130B50C046BD4602B080BDCD0A000090B58FB03E
S1130B6000AF3B4B98472723FB1800221A70394BE0
S1130B701800394B984700237B637B6B0F2B0BDCEE
S1130B807B6BD9B21423FA187B6BD3180A1C1A7026
S1130B907B6B01337B63F0E780235A012D4B0021EB
S1130BA018002E4B984700233B633A6B1423F91823
S1130BB0284810232A4CA04764202A4B98473A6BB4
S1130BC0391D24481023284CA0472723FB18002252
S1130BD01A7001210820254B98470123FB62FB6A08
S1130BE00F2B19DC1423FA18FB6AD3181A78391D51
S1130BF0FB6ACB181B789A420AD02723FB180122E0
S1130C001A701023FB6200210820184B984703E058
S1130C10FB6A0133FB62E2E76420124B98473B6BAB
S1130C2010331B051B0D3B630023BB62BB6A0F2BF8
S1130C30BBDC0F4B98470300D9B21423FA18BB6AE4
S1130C40D3180A1C1A70BB6A0133BB62EEE7C046B4
S1130C50E50D0000A40400206D0300003D05000024
S1130C605108000055100000450900001D0B00004C
S1130C70ED1E000080B582B000AF7860034B7A6847
S1130C801A607B681800BD4602B080BD6405002070
S1130C9080B582B000AF78607B681800BD4602B0B2
S1130CA080BD000080B582B000AF78607B685A6870
S1130CB07B68083319001000084B98477B685B6811
S1130CC01800074B98477B6801221A707B68012241
S1130CD05A70C046BD4602B080BDC046A112000095
S1130CE09111000080B582B000AF78603960054B87
S1130CF07A681A607B683A685A60C046BD4602B09A
S1130D0080BDC0466405002080B582B000AF786025
S1130D107B685A687B68083319001000074B9847B2
S1130D207B685B681800064B98477B6801221A7041
S1130D3000231800BD4602B080BDC046A1120000C9
S1130D409111000080B586B000AFF860B9607A6098
S1130D50FB6801221A74FB689B687A6892B2B968CE
S1130D601800074B984703007B617B695A1E934127
S1130D70DAB2FB681A747B691800BD4606B080BD00
S1130D807510000080B586B000AFF860B9607A6075
S1130D90FB6801225A74FB689B687A6892B2B9684E
S1130DA01800074B984703007B617B695A1E9341E7
S1130DB0DAB2FB685A747B691800BD4606B080BD80
S1130DC0A910000080B582B000AF78607B685B68D2
S1130DD01800034B9847C046BD4602B080BDC046CC
S1130DE0B911000010B5014B984710BD410F000028
S1130DF0F0B5CE46474680B5C021C90580239B0087
S1130E004B60254B254A9A62254A9A6249241A5D09
S1130E10042082431A55185D0126B0430122104371
S1130E20C0B218553427D85D0F2528402024A14688
S1130E304C462043C0B2D8558020C0004861886029
S1130E4018489862C0200006844698621637D85D18
S1130E50B0431043C0B2D85535201F5C0F24A743BC
S1130E600D3C27431F5480273F014F618F600E497B
S1130E709962614699624B27D95DB1431143C9B266
S1130E80D9551A5C2A4049460A43D2B21A540CBCBA
S1130E9090469946F0BDC04600440041000202401D
S1130EA0000002C00004004000080040044A136A25
S1130EB004210B431362034A034B5A807047C04614
S1130EC00004004014400000000C004010B5044B26
S1130ED0984704490448054B9847054B984710BD6B
S1130EE0AD0E000000080042D00500203D110000B6
S1130EF0F10D0000044A116A80231B010B431362A5
S1130F00024A034B5A807047000400401B43000010
S1130F10000C004010B5054B9847054B984702005C
S1130F2004490548054B984710BDC046F50E00001E
S1130F301D1C0000002C004298050020F510000044
S1130F40F0B5C64600B52F4B9847C022D205802085
S1130F50400050602C4B2D4999622D499962506094
S1130F6048215C5C04252C435C5490615C5CFF3834
S1130F7084435C5480210905916191608024E405D7
S1130F809C62244999625735595D814359558021A2
S1130F904905916191609C621F4A9A625C215A5C86
S1130FA082435A541D4B98471D4B98471D4C226A47
S1130FB080235B01134323621B4F1C4B98467B80A9
S1130FC01B4EB04702001B491B481C4DA847226A10
S1130FD080239B011343236243467B80B047020076
S1130FE017491848A847226A80231B021343236227
S1130FF0154B7B80B047020014491548A84704BC30
S11310009046F0BDA51400000044004100010240D8
S1131010000002C0000800C0001000C0CD0E000097
S1131020150F000000040040000C00401C430000A9
S1131030191C000000300042B4050020CD1300004C
S1131040003400427C0500201D430000003C0042A7
S1131050E805002010B5044B1C68044B98470100B8
S11310602000034B984710BD680500208114000040
S11310709D14000070B506000C00150000280DD06A
S11310800800431E9841C0B234220549054B9847D5
S113109033682A0021003000984770BD0020F3E730
S11310A0FC2000001114000070B506000C001500AF
S11310B000280DD00800431E9841C0B23D220549C6
S11310C0054B984773682A0021003000984770BD8B
S11310D00020F3E7FC2000001114000010B5436960
S11310E0002B00D0984710BD10B58369002B00D0A9
S11310F0984710BD70B505000C00002811D00800F9
S1131100431E9841C0B233220749084B9847210037
S11311102800074B9847074B2B60074B6B60002058
S113112070BD0020EFE7C04610210000111400003C
S11311303D1B0000DD100000E910000070B5040044
S11311400D00002816D00800431E9841C0B240226A
S113115009490A4B98476560201D2900084B9847A8
S1131160002806DB074BA382074B2361074BE36090
S1131170002070BD0020EAE72821000011140000BF
S11311800D1600000080FFFF651200002912000008
S113119010B50400431E9841C0B257220349044BC2
S11311A09847201D034B984710BDC04628210000D6
S11311B0111400000517000010B50400431E9841E7
S11311C0C0B25D220349044B9847201D034B984746
S11311D010BDC0462821000011140000391700007A
S11311E030B587B004000D00002814D00800431E59
S11311F09841C0B2B3220949094B98472B6803931D
S11312006B680493AB6801930593201D03A9054BF8
S1131210984707B030BD0020ECE7C0462821000005
S1131220111400006D17000070B584B004000E00A6
S11312301500431E9841C0B2A3220749074B9847A3
S1131240002302930196039520000C3801A9044B56
S1131250984704B070BDC046282100001114000056
S1131260E111000070B584B004000E001500431EA7
S11312709841C0B287220749074B9847029600233A
S11312800193039520000C3801A9044B984704B03E
S113129070BDC0462821000011140000E1110000B7
S11312A070B504000D0000280BD00800431E9841BF
S11312B0C0B2BD220449054B98470C342C60002071
S11312C070BD0020F5E7C04628210000111400007D
S11312D0F8B5CE46474680B5814603689C46002B48
S11312E005D08E681C0000250127BF1A0DE0124BA3
S11312F0984718E0FB18A06880464344B3420CD2D8
S113130023682500002B0BD01C0063689342F1D89E
S1131310A068804643449B1AF0E7A44507D02C00FC
S11313202000064B98470CBC90469946F8BD4846A9
S1131330014B9847F7E7C0463D14000069140000CC
S1131340F0B5C64600B582B00700446903690133AD
S113135098460361037EDB0711D4037E9B070ED4FA
S1131360002C10D0434662689B1AA26893420AD3A9
S113137014239C46844463460193124E14E03B7E3E
S1131380022213433B7602B004BC9046F0BD7D6953
S1131390E36820009847002DF5D02C0043466A6886
S11313A09B1AAA689342EED30198B047237C012B81
S11313B0EDD143466360424621000198024B9847B1
S11313C0E5E7C04671140000D112000070B50500B5
S11313D00C00002811D00800431E9841C0B23B22E3
S11313E00749084B984721002800074B98470023DA
S11313F02B61064B2B60002070BD0020EFE7C04638
S11314004421000011140000311A000041130000AF
S1131410002800D100BE70470368002B0AD08B421D
S11314200AD01B68002B03D09942FAD1012000E0B6
S1131430002070470020FCE70120FAE770B50400A3
S11314400D00064B984701235840C0B23922044985
S1131450044B984723682B60256070BD1914000065
S11314605C2100001114000003680B6001607047E8
S11314700368002B01D01A6802601800704700004E
S113148010B50301181A400102300321024B98479A
S11314906423584310BDC046A51C00000139FDD883
S11314A07047000010B5084A536810210B4353607D
S11314B0064B9847064B98471020064CA047064B0E
S11314C09847EF20A04710BD00400041AD15000033
S11314D07D180000DD140000C1180000C30709D501
S11314E0274B802252009A60264A5A601A00537889
S11314F0DB09FCD1830709D5214B0222FF329A6014
S1131500214A5A601A005378DB09FCD1430708D5F5
S11315101B4B1E4A9A601E4A5A601A005378DB0914
S1131520FCD1030709D5164B0422FF329A60194AED
S11315305A601A005378DB09FCD1C30608D5104B56
S1131540154A9A60154A5A601A005378DB09FCD18F
S1131550830608D50A4B124A9A60124A5A601A0046
S11315605378DB09FCD1030609D5054B0822FF3269
S11315709A600D4A5A601A005378DB09FCD170470F
S1131580000C0040000809000107090002080000DF
S11315900206090003060900040400000406090009
S11315A0052000000503090007030900064B1A7A09
S11315B0D2B21A725A7AD2B25A729A7AD2B29A724F
S11315C0DA7AD2B2DA72704700040040C369DB07EA
S11315D009D403680222134303600132C3691A4227
S11315E0FCD10020704704204042FBE7C369DB07BD
S11315F009D403680222934303600132C3691A4287
S1131600FCD10020704704204042FBE770B5050080
S11316100C00354BCB189B0ADBB2002B0BD00028F7
S113162051D0601E8441E0B2304A3149314B984771
S11316300D20404246E000284DD12C4A2C49002080
S11316402C4B9847E369DB0718D40322E3691A4259
S1131650FCD123689B070BD52368022293432360A4
S11316600132E3691A42FCD10222E3691A42FCD135
S11316700D2323600322E3691A42FCD10122E369AA
S11316801A42FCD12C602000431E9841C0B21A4A71
S11316901749184B9847194B23600322E3691A42F0
S11316A0FCD180239B0263600722E3691A42FCD1C8
S11316B00223237300222E33E2542F3B2B71104B51
S11316C0EB80002070BD094A09490020094B984766
S11316D00D204042F6E70800431E9841C0B2034A79
S11316E00349044B9847ADE700F8FFBD210900000A
S11316F07C21000011140000EB0800000C00110014
S1131700FF01000010B5041E0BD00068431E984171
S1131710C0B2054A0549064B98472068054B9847CF
S113172010BD0020F5E7C0467C0900007C210000C4
S113173011140000CD15000010B5041E0BD0006874
S1131740431E9841C0B2054A0549064B9847206894
S1131750054B984710BD0020F5E7C04698090000E6
S11317607C21000011140000ED150000F0B5DE46E8
S113177057464E464546E0B583B081460E000468A0
S11317800B6898464D6803790193002815D0200012
S1131790431E9841C0B2364A3649374B9847E369ED
S11317A05B073FD10323E0691840FCD123689B0702
S11317B03BD5020001239C4609E00020EBE70135FC
S11317C001325BB2002B16DBB368834227D9237E38
S11317D0DBB2042119422BD0A76A002DF0D02F7060
S11317E001990129EBD93F0A6F700235E8E701211D
S11317F08B46D84437E001235B42638381332376ED
S1131800132040420322237E1342FCD00323237679
S113181003B03CBC90469946A246AB46F0BD934209
S1131820D5D8EFE704204042F2E714204042EFE726
S11318309042C6D867461F42C3D04F46FF88BA4677
S11318404746002F0FD03F78BA4601990129CED9D7
S113185047467F783F02BB46574659460F43BA4630
S113186002218B46D84401305746A762A9E7C046F7
S1131870810A00007C210000111400000E4B196A3B
S11318801A6A0E480140920F9207022002430A434B
S11318901A629A6902439A611A7F1F210A401A77D1
S11318A019000822CB681A42FCD0034A136A80212B
S11318B00B4313627047C046000800400000FF0F4E
S11318C030B50222254B9A8419000E32CB681A4295
S11318D0FCD0234A214BDA62224B1B689B0E3F2B20
S11318E032D09B02802292001A431C4B9A629322AC
S11318F052009A841C491D4A518002214422995461
S11319002D3A9A640932DA649B8C5B071FD513491C
S1131910103ACB681A42FCD0104A50230420012408
S11319200225D15C014205D1D15C214202D1D15CB6
S11319302942F6D00D4A5378DB09FCD1074A936952
S113194002218B43936130BDFC22D201CDE70349D0
S11319501022CB681A42FCD0DEE7C04600080040E3
S113196080BB01042460800001440000000C00409E
S113197010B5C3689A7BD20700D410BD01229A73B4
S113198003689847F9E700000C4B984209D00C4BC8
S1131990984209D00B4B984209D00B4B984209D07E
S11319A070470A4B1960F8E7084B5960F8E7074B92
S11319B09960F5E7054BD960F2E7C046002C004278
S11319C00030004200340042003C00426C0500201C
S11319D010B5134BC3189B0A0333DBB2114A1278B8
S11319E09A421AD00F4A127D9A4212D028220D49E7
S11319F08A5C9A420FD03C228A5C03209A420DD022
S1131A00FA22FF3208490020084B9847012040423F
S1131A1010BD012002E0022000E0002040B2F7E700
S1131A2000D4FFBD04000020982100001114000020
S1131A3070B506000C000800394B98470500F460A7
S1131A40912238490120384B9847E37BDB09FCD1CC
S1131A5023889B0704D500232380E37BDB09FCD187
S1131A6001232380E37BDB09FCD1AB005B199A00E3
S1131A702E4B9B185A88228019792172DB88638146
S1131A800C231340082B2CD0002B37D12749AB0053
S1131A905A1992008A18928922835B199B00CB18E9
S1131AA01B8A63830123637331002000204B984712
S1131AB0204B9C466444A40A1234E3B222060ED49A
S1131AC01F221A40012393401B4A80215350BFF325
S1131AD04F8FBFF36F8F0131FF31535013600020DC
S1131AE070BD1249AB005A1992008A18D268A261DB
S1131AF05B199B00CB181B69E361D3E7042BD1D19D
S1131B000A49AB005A1992008A18107B2076127C7D
S1131B1062765B199B00CB181B7A2375C2E7C0461B
S1131B20D1190000982100001114000004000020C5
S1131B308919000000D4FFBD00E100E070B5050084
S1131B400C0008002F4B98472C61E37BDB09FCD188
S1131B5023889B0704D500232380E37BDB09FCD186
S1131B6001232380E37BDB09FCD183001B189A004B
S1131B70254B9B185A88228019792172DB8863814E
S1131B800C231340082B2AD0002B35D11E49830087
S1131B901A1892008A18928922831818800008184B
S1131BA0038A638329002000184B9847184B9C46EE
S1131BB06444A40A1234E3B2220620D41F221A4039
S1131BC001239340134A80215350BFF34F8FBFF337
S1131BD06F8F0131FF3153501360002070BD0A49EB
S1131BE083001A1892008A18D268A261181880001B
S1131BF008180369E361D5E701204042EEE70020BD
S1131C00ECE7C046D1190000040000208919000047
S1131C1000D4FFBD00E100E00020704700207047C1
S1131C2070B50C4B1D682C69A37BDB0706D501231B
S1131C30A3732B68002B01D028009847637B9B0774
S1131C4006D50223A3736B68002B01D028009847A4
S1131C5070BDC0466C05002010B5024B5868024B9D
S1131C60984710BD6C0500207119000010B5024B97
S1131C709868024B984710BD6C050020711900004C
S1131C8010B5024BD868024B984710BD6C05002074
S1131C90711900000B0010B50100180000F0B8F82D
S1131CA010BDC046002243088B4274D303098B4203
S1131CB05FD3030A8B4244D3030B8B4228D3030C18
S1131CC08B420DD3FF22090212BA030C8B4202D3BA
S1131CD01212090265D0030B8B4219D300E0090AE2
S1131CE0C30B8B4201D3CB03C01A5241830B8B42EB
S1131CF001D38B03C01A5241430B8B4201D34B03D4
S1131D00C01A5241030B8B4201D30B03C01A524138
S1131D10C30A8B4201D3CB02C01A5241830A8B42BD
S1131D2001D38B02C01A5241430A8B4201D34B02A6
S1131D30C01A5241030A8B4201D30B02C01A52410A
S1131D40CDD2C3098B4201D3CB01C01A52418309BE
S1131D508B4201D38B01C01A524143098B4201D3F8
S1131D604B01C01A524103098B4201D30B01C01A23
S1131D705241C3088B4201D3CB00C01A524183089D
S1131D808B4201D38B00C01A524143088B4201D3CA
S1131D904B00C01A5241411A00D20146524110462A
S1131DA07047FFE701B5002000F006F802BDC04609
S1131DB00029F7D076E770477047C046F0B5CE46A5
S1131DC0474615042D0C2E0080B50704140C3F0C57
S1131DD09946030C7E435D43674363437F19340C88
S1131DE0E4199C46A54203D980235B029846C44467
S1131DF04B46514343433604360C250C24046544B6
S1131E00A4195918491920000CBC90469946F0BDF4
S1131E1010B513000A000100022000F081F810BD83
S1131E2070B50D4E0D4D0024AD1BAD1005D0A300B3
S1131E30F35801349847A542F9D100F0B9F9084E96
S1131E40084D0024AD1BAD1005D0A300F358013498
S1131E509847A542F9D170BDBC210000BC21000007
S1131E60BC210000C8210000F0B505000F2A2FD9BD
S1131E700B0003439B0734D116000C000300103EF3
S1131E80350901352D01451927681F6067685F60B2
S1131E90A7689F60E7681034DF6010339D42F3D178
S1131EA00F239E431036851989191340032B1AD921
S1131EB01E1F0023B4080134A400CF58EF5004338C
S1131EC0A342FAD10324A643331D2240C918ED18B6
S1131ED0002A05D00023CC5CEC5401339342FAD1A0
S1131EE0F0BD0500F6E71A00F2E7C04610B5094B4D
S1131EF0094A1C68094BA83420686168FFF75EFF33
S1131F000122002380185941206061604800400884
S1131F1010BDC046540000202D7F954C2DF451581F
S1131F20F0B54E464546DE465746E0B5364D83B0DD
S1131F300600286898460F00914600F099F8334B44
S1131F401C68A4235B00E058002852D043681F2B70
S1131F5013DC5A1C0192002E28D1019A02339B00F3
S1131F6042601F50286800F085F8002003B03CBC94
S1131F7090469946A246AB46F0BD254B002B3DD07A
S1131F80C820400000E000BF002837D0A42200236E
S1131F905200A15843600160A05040328350043283
S1131FA08350013301930023002ED6D09A00924629
S1131FB082444A46882154466250C42252009146C3
S1131FC081444A468739994012688B460A439446AD
S1131FD04A4661461160842241465200A150022EB5
S1131FE0BBD102005C468D32FF3211680C43146091
S1131FF0B3E720004D30FF30E050A7E7286800F039
S113200039F801204042B1E780040020AC210000EF
S113201000000000034B10B5002B02D0024800F072
S113202005F810BD000000003D20000010B50100BF
S1132030002300220020FFF773FF10BD70B5094B89
S1132040094CE41AA41009D0084AA518AD00ED18EB
S11320502B68013C9847043D002CF9D100F0B4F8FA
S113206070BDC046D4210000D8210000FFFFFF3F0F
S11320707047C0467047C046EE02BC02D007EE026D
S11320802003D00700E00D456ADE0D40000040410A
S113209000009A420000C040000040410000A442F9
S11320A000000C430000024389D27E3E00800444B9
S11320B0008004440000A0410000F0410000803F83
S11320C000401C4500803B45401F0000401F0000AD
S11320D0401F0000401F0000881300008813000008
S11320E064000000640000000000004100008C4215
S11320F000000000FA000000320000002E2E2F68BD
S1132100616C2F7372632F68616C5F696F2E63005B
S11321102E2E2F68616C2F7372632F68616C5F7051
S1132120776D2E63000000002E2E2F68616C2F73D4
S113213072632F68616C5F7370695F6D5F73796E32
S1132140632E63002E2E2F68616C2F7372632F68C9
S1132150616C5F74696D65722E6300002E2E2F68AA
S1132160616C2F7574696C732F7372632F75746946
S11321706C735F6C6973742E630000002E2E2F68DD
S1132180706C2F736572636F6D2F68706C5F73650D
S113219072636F6D2E6300002E2E2F68706C2F7487
S11321A0632F68706C5F74632E6300005800002016
S11321B0F8B5C046F8BC08BC9E4670471520000020
S11321C0DD000000590A0000F8B5C046F8BC08BCA0
S10B21D09E467047B5000000B3
S10B21D8BCFAFF7F01000000C6
S11321E00000000003006800000005003200000049
S11321F07F3801003F9C00000400680000000000DC
S113220000000000401F00000000000005006800FE
S11322100000000000000000401F0000000000005B
S113222007006800000000000000000040060000F5
S113223000000000580000200000000044030020BB
S1132240AC03002014040020000000000000000083
S1132250000000000000000000000000000000007A
S1132260000000000000000000000000000000006A
S1132270000000000000000000000000000000005A
S1132280000000000000000000000000000000004A
S1132290000000000000000000000000000000003A
S11322A0000000000000000000000000000000002A
S11322B0000000000000000000000000000000001A
S11322C0000000000000000000000000000000000A
S11322D000000000000000000000000000000000FA
S11322E001000000000000000E33CDAB34126DE697
S11322F0ECDE05000B000000000000000000000000
S113230000000000000000000000000000000000C9
S113231000000000000000000000000000000000B9
S113232000000000000000000000000000000000A9
S11323300000000000000000000000000000000099
S10726600406002048
S9030000FC
