S01400004D656D6F72696573546573742E737265632F
S113000090260020150100000D0200000D020000E2
S113001000000000000000000000000000000000DC
S11300200000000000000000000000000D020000BD
S113003000000000000000000D0200000D0200009E
S11300400D0200000D0200000D0200000D02000070
S11300500D0200000D0200000D0200000D02000060
S11300600D0200000D0200000D0200000D02000050
S11300700D0200000D0200000D020000751B0000BF
S11300800D0200000D0200003D1F0000751F00005E
S1130090891F00000D0200000D0200000D02000087
S11300A00D0200000D0200000D0200000D02000010
S11300B00000000010B5064C2378002B07D1054B37
S11300C0002B02D0044800E000BF0123237010BDC0
S11300D0DC04002000000000E8240000084B10B5F8
S11300E0002B03D00749084800E000BF0748036815
S11300F0002B00D110BD064B002BFBD09847F9E72D
S113010000000000E0040020E8240000E8240000CF
S11301100000000080B582B000AF2F4B7B602F4BF6
S11301203B607A683B689A420CD007E03B681A1D32
S11301303A607A68111D796012681A603A68284B2F
S11301409A42F3D3274B3B6004E03B681A1D3A60A4
S113015000221A603A68244B9A42F6D3234B7B6000
S1130160234B7A68FF218A439A60224A90235B00DA
S11301700221D150204AD37803218B43191C022336
S11301800B43D3701C4AD3780C218B43191C0823CE
S11301900B43D370194A937B30218B43191C2023C2
S11301A00B439373154A937B0C218B43191C08232F
S11301B00B439373114A937B03218B43191C022332
S11301C00B4393730E4A536880210B4353600D4BCA
S11301D098470D4B9847FEE7E824000000000020F4
S11301E0DC040020DC0400208C0600200000000059
S11301F000ED00E000700041005000410048004163
S11302000040004129210000550B000080B500AFDB
S1130210FEE780B584B000AFF8607A600B23FB186A
S11302200A1C1A700B23FB181B78FA68DB01D3181D
S113023018337A681A60C046BD4604B080BD80B5E4
S113024084B000AFF8607A600B23FB180A1C1A70A4
S11302500B23FB181B78FA68DB01D31814337A6874
S11302601A60C046BD4604B080BD000080B582B0AF
S113027000AF39601100FB1D021C1A70BB1D0A1C63
S11302801A70BB1D1B78002B08D03A68FB1D197827
S1130290C023DB051800074B984707E03A68FB1DAD
S11302A01978C023DB051800034B9847C046BD46A8
S11302B002B080BD130200003F02000080B582B08E
S11302C000AF0200FB1D1A70BB1D0A1C1A70FB1D37
S11302D01B785B11D8B2FB1D1B781A001F23134037
S11302E001229A401100BB1D1B781A00024B98474B
S11302F0C046BD4602B080BD6D02000080B582B02C
S113030000AF786039607B68903318000B4B9847D6
S11303107B680B4A043311007C221800094B984770
S11303207B688C213A685A50074B1A687B681A60BC
S11303307B681800BD4602B080BDC0467D0C00003D
S11303408023000071210000F804002080B582B0F1
S113035000AF78607B6890331800034B98477B6844
S11303601800BD4602B080BD990C000080B582B073
S113037000AF78607B68903318007B688C229B58B0
S113038019000F4B98477B68903318000D4B984722
S11303907B6800221A607B6818000B4B98477B68C7
S11303A018000A4B9847030019007B68BC22995433
S11303B07B681800064B9847C046BD4602B080BD16
S11303C0ED0C0000AD0C0000D50300002D0700006B
S11303D0C107000080B582B000AF78607B689033BD
S11303E01800054B9847030019007B688022995038
S11303F0C046BD4602B080BD110D000080B582B07C
S113040000AF78607B6880220021995000211B2076
S1130410044B984701211C20024B9847C046BD4617
S113042002B080BDBD02000080B582B000AF78602C
S11304307B6880220021995001211B20044B98479E
S113044001211C20024B9847C046BD4602B080BD26
S1130450BD02000080B582B000AF78600A00FB1CCA
S11304601A707B689033F91C01221800034B9847DB
S1130470FB1C1B781800BD4602B080BD4D0D00006A
S113048080B584B000AF78607B6890330F22B918D0
S113049001221800044B98470F23FB181B781800FF
S11304A0BD4604B080BDC0468D0D000080B582B04D
S11304B000AF78607B6818000E4B98477B68062174
S11304C018000D4B98477B6818000C4B98477B68C5
S11304D018000B4B9847030019007B68BC22995401
S11304E07B68BC229B5C002B00D1E3E7C046BD4681
S11304F002B080BDFD030000550400002904000083
S11305002D07000080B582B000AF78607B681800CA
S1130510074B98477B6804211800064B98477B6873
S11305201800054B9847C046BD4602B080BDC04682
S1130530FD030000550400002904000080B586B0C6
S113054000AFF860B9607A607B687B61BB683B612F
S1130550FB681800294B98477B69002B45D0FB6842
S11305601800274B98477A6980235B019A4208D880
S11305703A69FB6811001800224B984700237B61FD
S11305802AE07B69204A934211D83A69FB6811003A
S113059018001C4B98473B698022520194466344DF
S11305A03B617B69194A944663447B6114E07B692F
S11305B0154A934210D93A69FB6811001800144B8C
S11305C098473B6980225202944663443B617B69AD
S11305D0104A944663447B61FB6818000E4B9847AD
S11305E0FB6818000D4B9847B6E7FB6818000C4BE6
S11305F09847C046BD4606B080BDC046D50300003E
S1130600AD040000E9070000FFFF000000F0FFFF59
S1130610250600000000FFFF8D0600000505000010
S1130620C107000080B582B000AF786039607B6894
S11306301800134B98477B68D8211800114B984732
S11306403B681B0CDAB27B68110018000D4B98470D
S11306503B681B0ADAB27B6811001800094B984703
S11306603B68DAB27B6811001800064B98477B6838
S11306701800054B9847C046BD4602B080BDC04631
S1130680FD030000550400002904000080B582B079
S113069000AF78607B6818000F4B9847030019007F
S11306A07B68BC2299547B68BC229B5C1A000123A2
S11306B0134009D07B681800074B984703001900C2
S11306C07B68BC229954EEE77B68BC229B5C1800D3
S11306D0BD4602B080BDC0462D07000080B582B083
S11306E000AF78607B6818000D4B98477B68180052
S11306F00C4B9847030019007B68BC2299547B6813
S11307001800094B98477B68BC229B5C1A000123A4
S113071013405A425341DBB21800BD4602B080BDBB
S1130720D50300002D070000C107000080B582B08A
S113073000AF78607B6805211800074B98470300D9
S113074019007B68BC2299547B68BC229B5C18000E
S1130750BD4602B080BDC0465D07000090B585B0BF
S113076000AF78600A00FB1C1A700F23FB180022EC
S11307701A707B6818000E4B9847FB1C1A787B682C
S1130780110018000B4B98470F23FC187B681800C6
S1130790094B9847030023707B681800074B984760
S11307A00F23FB181B781800BD4605B090BDC0464A
S11307B0FD0300005504000081040000290400002A
S11307C080B582B000AF78607B68802200219950A8
S11307D07B6890331800034B9847C046BD4602B06F
S11307E080BDC046CD0D000080B582B000AF7860FA
S11307F039607B681800134B98477B6820211800E8
S1130800114B98473B681B0CDAB27B681100180047
S11308100D4B98473B681B0ADAB27B68110018003D
S1130820094B98473B68DAB27B6811001800064B05
S113083098477B681800054B9847C046BD4602B0F0
S113084080BDC046FD0300005504000029040000DB
S113085080B586B000AFF860B9607A603B60FB6831
S11308601800304B984703001A0001235340DBB2B1
S1130870002B00D0F3E7FB6818002B4B9847FB686C
S113088018002A4B9847FB68A422022199547B68DC
S11308901B0CD9B2FB68A52299547B681B0AD9B2F8
S11308A0FB68A62299547B68D9B2FB68A7229954A5
S11308B004237B613B681A1D7B699A420FD9BB688C
S11308C01878FA68A4217B69D3185B18021C1A7083
S11308D0BB680133BB607B6901337B61EAE7FB687A
S11308E01800134B9847FB6890331800FB68A43337
S11308F019003B6804331A000E4B984703003B6110
S1130900FB6818000C4B9847FB6818000B4B984782
S1130910FB6818000A4B98473B691800BD4606B0AF
S113092080BDC046DD060000D5030000AD04000014
S1130930FD0300004D0D0000290400000505000022
S1130940C107000080B586B000AFF860B9607A6076
S11309503B60FB681800234B9847FB681800224B48
S11309609847FB68B822032199547B681B0CD9B2C1
S1130970FB68B92299547B681B0AD9B2FB68BA2276
S113098099547B68D9B2FB68BB229954FB689033B5
S11309901800FB68B83304221900144B984703006D
S11309A07B61FB6890333A68B9681800104B98472C
S11309B003007B61FB6891229B5CDBB20122534004
S11309C0DBB2002B00D0F5E7FB681800094B984711
S11309D0FB681800084B98477B691800BD4606B0B1
S11309E080BDC046D5030000FD0300004D0D00008E
S11309F08D0D000029040000C107000080B582B0FD
S1130A0000AF786039607B68012B0FD13B68094ADD
S1130A1093420BD1084A094B11001800084B984720
S1130A20084A0949054B1800084B9847C046BD467B
S1130A3002B080BDFFFF000030060020FC0400204F
S1130A40FD020000000000204D0300009D1F000077
S1130A5080B500AF034B19000120034B9847BD46F6
S1130A6080BDC046FFFF0000FD09000080B584B0D2
S1130A7000AFF8607A600B23FB180A1C1A700B2372
S1130A80FB181B78FA68DB01D31818337A681A60EC
S1130A90C046BD4604B080BD80B584B000AFF860E8
S1130AA07A600B23FB180A1C1A700B23FB181B78A3
S1130AB0FA68DB01D31814337A681A60C046BD465D
S1130AC004B080BD80B582B000AF39601100FB1D59
S1130AD0021C1A70BB1D0A1C1A70BB1D1B78002B4C
S1130AE008D03A68FB1D1978C023DB051800074BB2
S1130AF0984707E03A68FB1D1978C023DB05180006
S1130B00034B9847C046BD4602B080BD6D0A000045
S1130B10990A000080B582B000AF0200FB1D1A7074
S1130B20BB1D0A1C1A70FB1D1B785B11D8B2FB1D80
S1130B301B781A001F23134001229A401100BB1D89
S1130B401B781A00024B9847C046BD4602B080BDD0
S1130B50C50A000090B58FB000AF3D4B98472723DE
S1130B60FB1800221A703B4B18003B4B984700239C
S1130B707B637B6B0F2B0BDC7B6BD9B21423FA18D2
S1130B807B6BD3180A1C1A707B6B01337B63F0E711
S1130B908023DA002F4B00211800304B98470023A4
S1130BA03B633A6B1423F9182A4810232C4CA047B2
S1130BB064202C4B98473A6B391D264810232A4C45
S1130BC0A0472723FB1800221A7001210820274B75
S1130BD098470123FB62FB6A0F2B19DC1423FA18D4
S1130BE0FB6AD3181A78391DFB6ACB181B789A4212
S1130BF00AD02723FB1801221A701023FB6200215C
S1130C0008201A4B984703E0FB6A0133FB62E2E7D2
S1130C106420144B98473B6B10331A00144B15494E
S1130C20100098470B003B630023BB62BB6A0F2B89
S1130C30B7DC114B98470300D9B21423FA18BB6AE6
S1130C40D3180A1C1A70BB6A0133BB62EEE7C046B4
S1130C50ED0D0000FC0400206D0300003D050000C4
S1130C60510800008D10000045090000150B00001C
S1130C70B9200000FF0F0000F521000080B582B00C
S1130C8000AF7860034B7A681A607B681800BD4631
S1130C9002B080BDBC05002080B582B000AF786092
S1130CA07B681800BD4602B080BD000080B582B0EC
S1130CB000AF78607B685A687B68083319001000BD
S1130CC0084B98477B685B681800074B98477B681C
S1130CD001221A707B6801225A70C046BD4602B0D8
S1130CE080BDC046D9120000C911000080B582B091
S1130CF000AF78603960054B7A681A607B683A689F
S1130D005A60C046BD4602B080BDC046BC05002046
S1130D1080B582B000AF78607B685A687B6808331E
S1130D2019001000074B98477B685B681800064B56
S1130D3098477B6801221A7000231800BD4602B050
S1130D4080BDC046D9120000C911000080B586B02C
S1130D5000AFF860B9607A60FB6801221A74FB681E
S1130D609B687A6892B2B9681800074B98470300E9
S1130D707B617B695A1E9341DAB2FB681A747B6902
S1130D801800BD4606B080BDAD10000080B586B029
S1130D9000AFF860B9607A60FB6801225A74FB689E
S1130DA09B687A6892B2B9681800074B98470300A9
S1130DB07B617B695A1E9341DAB2FB685A747B6982
S1130DC01800BD4606B080BDE110000080B582B0B9
S1130DD000AF78607B685B681800034B9847C04697
S1130DE0BD4602B080BDC046F111000010B5014BF4
S1130DF0984710BD950F0000F0B5CE46474680B524
S1130E00C021C90580239B004B60254B254A9A626B
S1130E10254A9A6249241A5D042082431A55185DB2
S1130E200126B04301221043C0B218553427D85DBF
S1130E300F2528402024A1464C462043C0B2D85553
S1130E408020C0004861886018489862C02000066D
S1130E50844698621637D85DB0431043C0B2D85563
S1130E6035201F5C0F24A7430D3C27431F548027C4
S1130E703F014F618F600E499962614699624B2729
S1130E80D95DB1431143C9B2D9551A5C2A404946C8
S1130E900A43D2B21A540CBC90469946F0BDC046DF
S1130EA00044004100020240000002C0000400406F
S1130EB000080040044A136A04210B431362034AE6
S1130EC0034B5A807047C0460004004014400000A1
S1130ED0000C004010B5044B984704490448054BE6
S1130EE09847054B984710BDB50E00000008004216
S1130EF03006002075110000F90D0000044A116A43
S1130F0080231B010B431362024A034B5A80704730
S1130F10000400401B430000000C004010B5054BCA
S1130F209847054B9847020004490548054B9847E4
S1130F3010BDC046FD0E0000391F0000002C004209
S1130F40F40500202D110000044A116A80235B007F
S1130F500B431362024A034B5A807047000400405B
S1130F601A420000000C004010B5054B9847054B91
S1130F709847020004490548054B984710BDC046F0
S1130F80490F0000691B00000020004248060020B1
S1130F9005140000F0B5C64600B52A4B9847C02298
S1130FA0D205802040005060274B28499962284987
S1130FB09962506048215C5C04252C435C54906128
S1130FC05C5CFF3884435C54802109059161916025
S1130FD08024E4059C621F4999625735595D814319
S1130FE0595580214905916191609C621A4A9A621F
S1130FF05C215A5C82435A54184B9847184B9847C3
S1131000184C226A80235B0113432362164F174B4B
S113101098467B80164EB047020016491648174D75
S1131020A847226A80239B011343236243467B80A3
S1131030B047020012491348A847134B984704BC11
S11310409046F0BDFD140000004400410001024040
S1131050000002C0000800C0001000C0D50E00004F
S11310601D0F000000040040000C00401C43000061
S11310702D1F00000030004210060020051400005F
S113108000340042D4050020690F000010B5044B61
S11310901C68044B984701002000034B984710BD7F
S11310A0C0050020D9140000F514000070B5060036
S11310B00C00150000280DD00800431E9841C0B252
S11310C034220549054B984733682A002100300033
S11310D0984770BD0020F3E7042400004D1400007D
S11310E070B506000C00150000280DD00800431E42
S11310F09841C0B23D220549054B984773682A00C0
S113110021003000984770BD0020F3E7042400005C
S11311104D14000010B54369002B00D0984710BD52
S113112010B58369002B00D0984710BD70B5050039
S11311300C00002811D00800431E9841C0B233228D
S11311400749084B984721002800074B9847074B4D
S11311502B60074B6B60002070BD0020EFE7C0469A
S1131160182400004D140000211E00001511000079
S11311702111000070B504000D00002816D00800ED
S1131180431E9841C0B2402209490A4B9847656002
S1131190201D2900084B9847002806DB074BA38233
S11311A0074B2361074BE360002070BD0020EAE792
S11311B0302400004D140000491600000080FFFF99
S11311C09D1200006112000010B50400431E9841F6
S11311D0C0B257220349044B9847201D034B98473C
S11311E010BDC046302400004D140000411700001B
S11311F010B50400431E9841C0B25D220349044B5C
S11312009847201D034B984710BDC046302400006A
S11312104D1400007517000030B587B004000D00B0
S1131220002814D00800431E9841C0B2B3220949D3
S1131230094B98472B6803936B680493AB6801933D
S11312400593201D03A9054B984707B030BD002026
S1131250ECE7C046302400004D140000A91700003C
S113126070B584B004000E001500431E9841C0B24E
S1131270A3220749074B984700230293019603953D
S113128020000C3801A9044B984704B070BDC04637
S1131290302400004D1400001912000070B584B011
S11312A004000E001500431E9841C0B2872207496E
S11312B0074B9847029600230193039520000C38AE
S11312C001A9044B984704B070BDC0463024000007
S11312D04D1400001912000070B504000D00002820
S11312E00BD00800431E9841C0B2BD220449054BEF
S11312F098470C342C60002070BD0020F5E7C046F0
S1131300302400004D140000F8B5CE46474680B5A1
S1131310814603689C46002B05D08E681C0000257E
S11313200127BF1A0DE0124B984718E0FB18A0687C
S113133080464344B3420CD223682500002B0BD0D3
S11313401C0063689342F1D8A068804643449B1A0A
S1131350F0E7A44507D02C002000064B98470CBCAE
S113136090469946F8BD4846014B9847F7E7C04672
S113137079140000A5140000F0B5C64600B582B08B
S1131380070044690269013290460261037EDB076B
S113139011D4037E9B070ED4002C10D01300626876
S11313A09B1AA26893420AD314239C46844463463E
S11313B00193124E14E03B7E022213433B7602B0AB
S11313C004BC9046F0BD7D69E36820009847002D79
S11313D0F5D02C0043466A689B1AAA689342EED360
S11313E00198B047237C012BEDD14346636042460C
S11313F021000198024B9847E5E7C046AD14000070
S11314000913000070B504000D001600002813D065
S1131410002913D01000431E98413B220849094B70
S11314209847200040C0336829009847002363612F
S1131430054B6360002070BD0020EEE70020ECE760
S11314404C2400004D14000079130000002800D142
S113145000BE70470368002B0AD08B420AD01B6879
S1131460002B03D09942FAD1012000E000207047FC
S11314700020FCE70120FAE770B504000D00064BDC
S1131480984701235840C0B239220449044B984775
S113149023682B60256070BD55140000642400008F
S11314A04D14000003680B60016070470368002B53
S11314B001D01A68026018007047000043B2002B84
S11314C007DB1F2318401E3B834080225200014942
S11314D08B50704700E100E010B503011B1A5B015B
S11314E0181A02300321024B98476423584310BD55
S11314F0AD1F00000139FDD87047000010B5084A3F
S1131500536808210B435360064B9847064B984792
S11315108020064CA047064B98477F20A04710BD6B
S113152000400041E9150000B9180000351500001D
S1131530FD180000C30709D5224B802252009A608F
S1131540214A5A601A005378DB09FCD1830709D574
S11315501C4B0222FF329A601C4A5A601A005378CC
S1131560DB09FCD1430708D5164B194A9A60194A7E
S11315705A601A005378DB09FCD1030709D5114BD3
S11315800422FF329A60144A5A601A005378DB0925
S1131590FCD1830608D50B4B104A9A60104A5A6056
S11315A01A005378DB09FCD1030609D5054B082240
S11315B0FF329A600B4A5A601A005378DB09FCD157
S11315C07047C046000C00400008090001070900EC
S11315D002080000020609000306090005200000B5
S11315E00503090007030900064B1A7AD2B21A72DE
S11315F05A7AD2B25A729A7AD2B29A72DA7AD2B247
S1131600DA72704700040040C369DB0709D4036839
S11316100222134303600132C3691A42FCD1002041
S1131620704704204042FBE7C369DB0709D4036821
S11316300222934303600132C3691A42FCD10020A1
S1131640704704204042FBE770B505000C00354BA1
S1131650CB189B0ADBB2002B0BD0002850D0601EA5
S11316608441E0B2304A3149314B98470D20404221
S113167045E000284CD12C4A2C4900202C4B98479B
S1131680E369DB0718D40322E3691A42FCD1236817
S11316909B070BD523680222934323600132E3693D
S11316A01A42FCD10222E3691A42FCD10D232360C1
S11316B00322E3691A42FCD10122E3691A42FCD1F4
S11316C02C602000431E9841C0B21A4A1749184B97
S11316D09847194B23600322E3691A42FCD1802303
S11316E09B0263600722E3691A42FCD1012323733E
S11316F000213022A1542B71104BEB80002070BDCF
S1131700094A0A4900200A4B98470D204042F6E74F
S11317100800431E9841C0B2034A0449044B984749
S1131720AEE7C04600F8FFBD210900008424000094
S11317304D140000EB0800000C001100FF01000034
S113174010B5041E0BD00068431E9841C0B2054A70
S11317500549064B98472068054B984710BD002063
S1131760F5E7C0467C090000842400004D14000005
S11317700916000010B5041E0BD00068431E9841E2
S1131780C0B2054A0549064B98472068054B98475F
S113179010BD0020F5E7C04698090000842400002D
S11317A04D14000029160000F0B5DE4657464E469B
S11317B04546E0B583B081460E0004680B68984640
S11317C04D6803790193002815D02000431E9841E9
S11317D0C0B2364A3649374B9847E3695B073FD175
S11317E00323E0691840FCD123689B073BD5020022
S11317F001239C4609E00020EBE7013501325BB28E
S1131800002B16DBB368834227D9237EDBB2042185
S113181019422BD0A76A002DF0D02F70019901290D
S1131820EBD93F0A6F700235E8E701218B46D844B3
S113183037E001235B4263838133237613204042E4
S11318400322237E1342FCD00323237603B03CBC43
S113185090469946A246AB46F0BD9342D5D8EFE7F1
S113186004204042F2E714204042EFE79042C6D8F9
S113187067461F42C3D04F46FF88BA464746002FEB
S11318800FD03F78BA4601990129CED947467F78CF
S11318903F02BB46574659460F43BA4602218B4680
S11318A0D84401305746A762A9E7C046810A000020
S11318B0842400004D1400000E4B196A1A6A0E4865
S11318C00140920F9207022002430A431A629A6966
S11318D002439A611A7F1F210A401A7719000822CD
S11318E0CB681A42FCD0034A136A80210B4313626B
S11318F07047C046000800400000FF0F30B50222C8
S1131900254B9A8419000E32CB681A42FCD0234A24
S1131910214BDA62224B1B689B0E3F2B32D09B0279
S1131920802292001A431C4B9A62932252009A849A
S11319301C491D4A51800221442299541B4A9A642D
S11319402022DA649B8C5B071FD51349103ACB68BD
S11319501A42FCD0104A5023042001240225D15CF1
S1131960014205D1D15C214202D1D15C2942F6D099
S11319700D4A5378DB09FCD1074A936902218B4352
S1131980936130BDFC22D201CDE703491022CB681C
S11319901A42FCD0DEE7C0460008004080BB0104C8
S11319A02460800001470000000C0040B7050D00D2
S11319B0C268136802210B43136001319368194212
S11319C0FCD17047C268136802218B431360013154
S11319D093681942FCD17047C268116480219368EE
S11319E01942FCD17047C268802193681942FCD126
S11319F0106C7047C268032193681942FCD11068C7
S1131A008007C00F7047000010B5364B1B68994221
S1131A1002D00A20404210BDC1608B68DB0718D495
S1131A2003228B681A42FCD10B689B070BD50B6809
S1131A30022293430B6001328B681A42FCD10222CA
S1131A408B681A42FCD101230B6003228B681A4273
S1131A50FCD101228B681A42FCD1224B9B680B609B
S1131A6003228B681A42FCD11E4B1A7B4A715A7BA3
S1131A708A771A690A625B6A0B6480228B681A424D
S1131A80FCD101238B62184B994225D0154B1B794D
S1131A905BB2002B23DB1F221A40012393408022D8
S1131AA012498B50BFF34F8FBFF36F8F0D4B04213F
S1131AB0595600200029AEDB613A114001231C0075
S1131AC08C400A498130FF300C50064800790240AE
S1131AD093400B6000209EE7054B1860D6E700207A
S1131AE099E7C046040000200020004200E100E025
S1131AF0C405002010B5C268044B1B689A4200D08C
S1131B0010BD024B1879024B9847F9E704000020F6
S1131B10BD140000C368124A1268934200D0704793
S1131B200F4A127952B2002A0ADB1F211140012206
S1131B308A4080210B484250BFF34F8FBFF36F8F11
S1131B401A6802218A431A6001319A681142FCD151
S1131B501A6801210A431A609A681142FCD1DEE72F
S1131B600400002000E100E0014828307047C0462E
S1131B700400002010B5064B1868C368DA6AD2075F
S1131B8000D410BD0122DA6203689847F9E7C04621
S1131B90C4050020C268138802210B4313807047D8
S1131BA0C268138802218B4313807047C26813886C
S1131BB01B079B0F022B0BD013881B079B0F09D00D
S1131BC013881B079B0F012B06D1C9B2117503E0C3
S1131BD0916101E089B211837047C26813881B07C1
S1131BE09B0F022B0CD013881B079B0F0AD0138862
S1131BF01B079B0F0020012B06D1107DC0B203E010
S1131C00906901E0108B80B27047C3681888800720
S1131C10C00F704710B5C3689A7BD20700D410BDBB
S1131C2001229A7303689847F9E70000C2680D4BD4
S1131C30D3189B0A1233D8B21B060AD41F210140C1
S1131C4001238B40802108484350BFF34F8FBFF3DB
S1131C506F8F138802218B431380138801390B4340
S1131C601380704700D4FFBD00E100E010B5C068E8
S1131C70044B9C466044800A1230C0B2024B984721
S1131C8010BDC04600D4FFBDBD14000010B5104BFC
S1131C90C3189B0A0333DBB20E4A12789A4214D05B
S1131CA00C4A127D9A420ED028220A498A5C0220EC
S1131CB09A420BD0FE22520007490020074B984756
S1131CC00120404210BD012000E0002040B2F9E7AD
S1131CD000D4FFBD4C000020A02400004D140000DF
S1131CE070B506000C000800434B98470500F460EB
S1131CF09C2242490120424B9847E37BDB09FCD1FB
S1131D0023889B0704D500232380E37BDB09FCD1D4
S1131D1001232380E37BDB09FCD1AB005B199A0030
S1131D20384B9B185A88228019792172DB88638189
S1131D300C231340082B31D0002B3CD13149AB008C
S1131D405A1992008A18928922835B199B00CB1836
S1131D501B8A6383012363732B4B9C423CD02B4B24
S1131D609C423CD02A4B9C4241D02A4B9C46644422
S1131D70A40A1234E3B222060ED41F221A4001230D
S1131D809340254A80215350BFF34F8FBFF36F8F89
S1131D900131FF3153501360002070BD1949AB006D
S1131DA05A1992008A18D268A2615B199B00CB1859
S1131DB01B69E361CEE7042BCCD11249AB005A195D
S1131DC092008A18107B2076127C62765B199B0045
S1131DD0CB181B7A2375BDE7104B1E60C5E70F4B6C
S1131DE05E600C4BE218920A1232D3B2C5E70B4B79
S1131DF09E601423C1E7C0468D1C0000A02400008F
S1131E004D1400004C000020002C00420030004221
S1131E100034004200D4FFBD00E100E0C80500200A
S1131E2070B505000C000800384B98472C61E37B23
S1131E30DB09FCD123889B0704D500232380E37BA3
S1131E40DB09FCD101232380E37BDB09FCD1830084
S1131E501B189A002E4B9B185A88228019792172DC
S1131E60DB8863810C231340082B30D0002B4AD12C
S1131E70274983001A1892008A1892892283181815
S1131E8080000818038A6383224B9C422CD0224B87
S1131E909C422CD0214B9C4231D0214B9C46644423
S1131EA0A40A1234E3B2002022060FD41F221A40DF
S1131EB0012393401B4A80215350BFF34F8FBFF33C
S1131EC06F8F0131FF3153501360002070BD1049F2
S1131ED083001A1892008A18D268A2611818800028
S1131EE008180369E361CFE70F4B1D60D5E70E4B7C
S1131EF05D600B4BE218920A1232D3B2D6E70A4B5A
S1131F009D601423D2E701204042DFE78D1C0000CE
S1131F104C000020002C00420030004200340042FB
S1131F2000D4FFBD00E100E0C805002001483C30BA
S1131F307047C0464C0000200020704770B50C4B21
S1131F401D682C69A37BDB0706D50123A3732B68CB
S1131F50002B01D028009847637B9B0706D50223FA
S1131F60A3736B68002B01D02800984770BDC0464E
S1131F70C805002010B5024B5868024B984710BDA5
S1131F80C8050020151C000010B5024B9868024BD0
S1131F90984710BDC8050020151C00000B0010B5A3
S1131FA00100180000F0B8F810BDC0460022430834
S1131FB08B4274D303098B425FD3030A8B4244D30D
S1131FC0030B8B4228D3030C8B420DD3FF2209024F
S1131FD012BA030C8B4202D31212090265D0030B0E
S1131FE08B4219D300E0090AC30B8B4201D3CB0304
S1131FF0C01A5241830B8B4201D38B03C01A524146
S1132000430B8B4201D34B03C01A5241030B8B4247
S113201001D30B03C01A5241C30A8B4201D3CB0232
S1132020C01A5241830A8B4201D38B02C01A524117
S1132030430A8B4201D34B02C01A5241030A8B421A
S113204001D30B02C01A5241CDD2C3098B4201D332
S1132050CB01C01A524183098B4201D38B01C01AB0
S1132060524143098B4201D34B01C01A5241030927
S11320708B4201D30B01C01A5241C3088B4201D3D6
S1132080CB00C01A524183088B4201D38B00C01A83
S1132090524143088B4201D34B00C01A5241411AAA
S11320A000D20146524110467047FFE701B50020B7
S11320B000F006F802BDC0460029F7D076E7704765
S11320C07047C046F0B5CE46474615042D0C2E0089
S11320D080B50704140C3F0C9946030C7E435D4302
S11320E0674363437F19340CE4199C46A54203D922
S11320F080235B029846C4444B4651434343360411
S1132100360C250C24046544A419591849192000D7
S11321100CBC90469946F0BD10B513000A000100AE
S1132120022000F081F810BD70B50D4E0D4D002455
S1132130AD1BAD1005D0A300F35801349847A54258
S1132140F9D100F0B9F9084E084D0024AD1BAD10CB
S113215005D0A300F35801349847A542F9D170BDC6
S1132160C4240000C4240000C4240000D0240000BF
S1132170F0B505000F2A2FD90B0003439B0734D178
S113218016000C000300103E350901352D014519D8
S113219027681F6067685F60A7689F60E7681034FE
S11321A0DF6010339D42F3D10F239E43103685190F
S11321B089191340032B1AD91E1F0023B4080134B4
S11321C0A400CF58EF500433A342FAD10324A6430A
S11321D0331D2240C918ED18002A05D00023CC5C19
S11321E0EC5401339342FAD1F0BD0500F6E71A002E
S11321F0F2E7C04610B5094B094A1C68094BA834DC
S113220020686168FFF75EFF0122002380185941AE
S1132210206061604800400810BDC046A80000204E
S11322202D7F954C2DF45158F0B54E464546DE466B
S11322305746E0B5364D83B00600286898460F002F
S1132240914600F099F8334B1C68A4235B00E058D6
S1132250002852D043681F2B13DC5A1C0192002E15
S113226028D1019A02339B0042601F50286800F075
S113227085F8002003B03CBC90469946A246AB4684
S1132280F0BD254B002B3DD0C820400000E000BF2E
S1132290002837D0A42200235200A15843600160D3
S11322A0A050403283500432835001330193002301
S11322B0002ED6D09A00924682444A46882154463B
S11322C06250C4225200914681444A46873999405B
S11322D012688B460A4394464A466146116084223A
S11322E041465200A150022EBBD102005C468D3201
S11322F0FF3211680C431460B3E720004D30FF3007
S1132300E050A7E7286800F039F801204042B1E71F
S1132310D8040020B424000000000000034B10B5D2
S1132320002B02D0024800F005F810BD00000000A8
S11323304523000010B50100002300220020FFF710
S113234073FF10BD70B5094B094CE41AA41009D0F1
S1132350084AA518AD00ED182B68013C9847043DC8
S1132360002CF9D100F0B4F870BDC046DC240000A4
S1132370E0240000FFFFFF3F7047C0467047C0469F
S1132380EE02BC02D007EE022003D00700E00D45A8
S11323906ADE0D400000404100009A420000C04047
S11323A0000040410000A44200000C43000002432E
S11323B089D27E3E00800444008004440000A04191
S11323C00000F0410000803F00401C4500803B4578
S11323D0401F0000401F0000401F0000401F00007D
S11323E088130000881300006400000064000000EB
S11323F00000004100008C4200000000FA000000D0
S1132400320000002E2E2F68616C2F7372632F68C8
S1132410616C5F696F2E63002E2E2F68616C2F73C1
S113242072632F68616C5F70776D2E63000000002B
S11324302E2E2F68616C2F7372632F68616C5F732B
S113244070695F6D5F73796E632E63002E2E2F6843
S1132450616C2F7372632F68616C5F74696D657250
S11324602E6300002E2E2F68616C2F7574696C73B7
S11324702F7372632F7574696C735F6C6973742E38
S1132480630000002E2E2F68706C2F736572636FCB
S11324906D2F68706C5F736572636F6D2E630000DF
S11324A02E2E2F68706C2F74632F68706C5F7463AA
S11324B02E630000B0000020F8B5C046F8BC08BC8C
S11324C09E4670471D230000DD000000510A0000F5
S11324D0F8B5C046F8BC08BC9E467047B50000007D
S10B24E0BCFAFF7F01000000BB
S11324E800000000002000420F000000000100006E
S11324F800000000000000000000000000000000D0
S1132508000000000000000032000000091A00006A
S1132518151B0000B1190000C5190000D9190000E5
S1132528E7190000F5190000F51A00000300680017
S11325380000050032000000174100008B20000055
S11325480400680000000000000000008001000092
S11325580000000005006801000000000000000001
S1132568A00F000000000000E11C00002D1C00006A
S1132578951B0000A11B0000AD1B0000DB1B000025
S11325880B1C00006D1C0000B000002000000000BF
S1132598000000009C030020040400206C040020B8
S11325A8000000000000000000000000000000001F
S11325B8000000000000000000000000000000000F
S11325C800000000000000000000000000000000FF
S11325D800000000000000000000000000000000EF
S11325E800000000000000000000000000000000DF
S11325F800000000000000000000000000000000CF
S113260800000000000000000000000000000000BE
S113261800000000000000000000000000000000AE
S1132628000000000000000000000000000000009E
S1132638000000000000000001000000000000008D
S11326480E33CDAB34126DE6ECDE05000B00000052
S1132658000000000000000000000000000000006E
S1132668000000000000000000000000000000005E
S1132678000000000000000000000000000000004E
S1132688000000000000000000000000000000003E
S10F29B800000000000000006806002081
S9030000FC
