S015000043414E4F70656E4D61737465722E737265633F
S214000000281D0120D5020000D1020000D102000008
S214000010D1020000D1020000D10200000000000062
S214000020000000000000000000000000D1020000F8
S214000030D102000000000000D1020000D102000042
S214000040D1020000D1020000D1020000D10200005F
S214000050D1020000D1020000D1020000D10200004F
S214000060D1020000D1020000D10200003D5700007E
S2140000705945000069450000D1020000794500009E
S2140000808945000099450000A9450000B9450000D3
S214000090C9450000D9450000D1020000D102000089
S2140000A0D1020000D1020000D1020000D1020000FF
S2140000B0D1020000D1020000D1020000D1020000EF
S2140000C0D1020000D1020000D1020000D1020000DF
S2140000D0D1020000D1020000D1020000D1020000CF
S2140000E0D1020000D1020000000000000000000065
S2140000F000000000D1020000D1020000D102000082
S214000100D1020000D1020000D1020000D10200009E
S214000110D1020000D1020000D1020000D10200008E
S214000120D1020000D1020000D1020000D10200007E
S214000130D1020000D1020000D1020000D10200006E
S214000140D1020000D1020000D1020000D10200005E
S214000150D1020000D1020000D1020000D10200004E
S214000160D1020000D1020000D1020000D10200003E
S214000170D1020000D1020000D1020000793A00004E
S21400018051A4000061A4000071A4000081A4000036
S214000190D1020000016F0000D1020000D102000071
S2140001A0D1020000D1020000D1020000D1020000FE
S2140001B01D6F0000D1020000D1020000D102000035
S2140001C0D1020000D1020000D1020000D1020000DE
S2140001D0D1020000D1020000D1020000D1020000CE
S2140001E0D1020000D1020000D1020000A17B000075
S2140001F0D1020000BD7B0000D1020000D97B0000C8
S214000200F57B0000117C00002D7C0000D102000070
S214000210D1020000D1020000D1020000D10200008D
S214000220D1020000D1020000D1020000D10200007D
S214000230D1020000D1020000D1020000D10200006D
S214000240D1020000D1020000D1020000D10200005D
S214000250D1020000D1020000D1020000D10200004D
S214000260D102000010B5054C237833B9044B13B106
S2140002700448AFF300800123237010BD040A002059
S214000280000000009C4101000C4B43B10C480D4996
S21400029010B5AFF300800C48036823B910BD0A48B8
S2140002A0036833B97047094B002BF7D0BDE8104000
S2140002B01847064B002BF5D0184700BF000000007B
S2140002C09C410100080A00209C410100000000003B
S2140002D0FEE7000008B5174B174A9A4210D0174B96
S2140002E0144A9A420CD2013B9B1A23F003030433B0
S2140002F01344114951F8040B42F8040B9A42F9D101
S2140003000F4B104A9A420AD2013B9B1A23F0030372
S21400031004331344002142F8041B9342FBD10A4ADB
S2140003200A4B23F07F039360094B9847094B984785
S214000330FEE700BF000000209C410100040A0020E8
S214000340281D0020040A002000ED00E00000000048
S214000350952D01005903000080B50F4B98470121E9
S2140003600E480F4B98470D4D0E4C2846A0470028C8
S214000370FBD00A4E0C4F4FF4FA740022012130468F
S214000380B8472046094DA84721463046084B9847AF
S2140003902046A847F1E700BFE5030000200A00203A
S2140003A051C9000071CA000035D40000991C000035
S2140003B005CA000010B5054C05492046054B984770
S2140003C0054A06492046064B984710BD200A0020DD
S2140003D0C01B0020EDC800000000002029C9000056
S2140003E0612D010080B500AF034B9847034B98473B
S2140003F0034B984700BF80BD6D17000055AB00004B
S214000400E9AA000080B485B000AFF8600B467A60B9
S214000410FB72FA7AFB682032796843F8221000BF34
S2140004201437BD465DF8047B704780B483B000AFD8
S21400043078607B681B6943F480627B681A6100BF42
S2140004400C37BD465DF8047B704780B483B000AFC0
S21400045078607B681B6943F400527B681A6100BFB2
S2140004600C37BD465DF8047B704780B483B000AFA0
S21400047078607B681B6943F480227B681A6100BF42
S2140004800C37BD465DF8047B704780B483B000AF80
S21400049078607B681B6943F400127B681A6100BFB2
S2140004A00C37BD465DF8047B704780B483B000AF60
S2140004B078607B685B6943F480727B685A6100BF32
S2140004C00C37BD465DF8047B704780B483B000AF40
S2140004D078607B685B6943F400727B685A6100BF92
S2140004E00C37BD465DF8047B704780B483B000AF20
S2140004F078607B685B6943F480627B685A6100BF02
S2140005000C37BD465DF8047B704780B483B000AFFF
S21400051078607B685B6943F400527B685A6100BF71
S2140005200C37BD465DF8047B704780B483B000AFDF
S21400053078607B685B6943F480427B685A6100BFE1
S2140005400C37BD465DF8047B704780B483B000AFBF
S21400055078607B689B6943F001027B689A6100BF04
S2140005600C37BD465DF8047B704780B483B000AF9F
S21400057078607B689B6943F002027B689A6100BFE3
S2140005800C37BD465DF8047B704780B483B000AF7F
S21400059078607B689B6943F080027B689A6100BF45
S2140005A00C37BD465DF8047B704780B483B000AF5F
S2140005B078607B689B6943F400627B689A6100BF41
S2140005C00C37BD465DF8047B704780B483B000AF3F
S2140005D078607B689B6943F480527B689A6100BFB1
S2140005E00C37BD465DF8047B704780B483B000AF1F
S2140005F078607B689B6943F400527B689A6100BF11
S2140006000C37BD465DF8047B704780B483B000AFFE
S21400061078607B68DB6943F020027B68DA6100BFA4
S2140006200C37BD465DF8047B704780B483B000AFDE
S21400063078607B68DB6943F040027B68DA6100BF64
S2140006400C37BD465DF8047B704780B483B000AFBE
S21400065078607B68DB6943F400527B68DA6100BF30
S2140006600C37BD465DF8047B704780B483B000AF9E
S21400067078607B681B6A43F001027B681A6200BFE1
S2140006800C37BD465DF8047B704780B483B000AF7E
S21400069078607B681B6A43F002027B681A6200BFC0
S2140006A00C37BD465DF8047B704780B483B000AF5E
S2140006B078607B681B6A43F004027B681A6200BF9E
S2140006C00C37BD465DF8047B704780B483B000AF3E
S2140006D078607B681B6A43F008027B681A6200BF7A
S2140006E00C37BD465DF8047B704780B483B000AF1E
S2140006F078607B681B6A43F020027B681A6200BF42
S2140007000C37BD465DF8047B704780B483B000AFFD
S21400071078607B681B6A43F040027B681A6200BF01
S2140007200C37BD465DF8047B704780B485B000AFDB
S214000730F8600B467A60FB72FB7AFA68DB011344BA
S21400074008337A681A6000BF1437BD465DF8047B2C
S214000750704780B485B000AFF8600B467A60FB72D5
S214000760FB7AFA68DB01134404337A681A6000BF28
S2140007701437BD465DF8047B704780B485B000AF83
S214000780F8600B467A60FB72FB7AFA68DB0113446A
S21400079018337A681A6000BF1437BD465DF8047BCC
S2140007A0704780B485B000AFF8600B467A60FB7285
S2140007B0FB7AFA68DB01134414337A681A6000BFC8
S2140007C01437BD465DF8047B704780B485B000AF33
S2140007D07860084611461A460346FB700B46BB7007
S2140007E013467B70FA78BB787968D2010A441344C2
S2140007F030331B78FB73FB7B23F00F03FB737B7894
S21400080003F00F03DAB2FB7B1343FB73FA78BB7873
S2140008107968D2010A4413443033FA7B1A7000BF59
S2140008201437BD465DF8047B704780B485B000AFD2
S2140008307860084611461A460346FB700B46BB70A6
S21400084013467B70FA78BB787968D2010A44134461
S21400085030331B78FB73FB7B03F00F03FB737B7853
S2140008601B01DAB2FB7B1343FB73FA78BB7879681B
S214000870D2010A4413443033FA7B1A7000BF14378F
S214000880BD465DF8047B704780B485B000AF7860E5
S214000890084611461A460346FB700B46BB701346C5
S2140008A07B70FA78BB787968D2010A4413444033E7
S2140008B01B78FB73FB7B23F00103FB737A78FB7BCF
S2140008C01343FB73FA78BB787968D2010A44134461
S2140008D04033FA7B1A7000BF1437BD465DF8047BC0
S2140008E0704790B482B000AF78600B46FB7013463A
S2140008F0BB70FA78BB78F878B9787C68C001204479
S214000900014440310978C9B241F00401C8B279689F
S214000910D2010A441344403302461A7000BF083717
S214000920BD4690BC704790B482B000AF78600B466E
S214000930FB701346BB70FA78BB78F878B9787C6899
S214000940C0012044014440310978C9B221F00401B5
S214000950C8B27968D2010A441344403302461A707A
S21400096000BF0837BD4690BC704780B485B000AF66
S214000970F8600B467A60FB72FB7AFA68DB01134478
S21400098028337A681A6000BF1437BD465DF8047BCA
S2140009907047000080B582B000AF03463960FB7137
S2140009A01346BB71BB79012B1CD0022B37D0002B12
S2140009B04ED1FB793A6819462A482B4B98473B6834
S2140009C09BB243F08042FB7919462648274B98474E
S2140009D03B681B0C43F04042FB7919462148234BE9
S2140009E098473AE0FB793A6819461E481E4B9847E6
S2140009F03B689BB243F0804343F40033F9791A46D0
S214000A0018481A4B98473B681B0C43F0404343F486
S214000A100033F9791A461348144B98471DE0FB79C2
S214000A203A6819460F48124B98473B689BB243F00A
S214000A308042FB7919460B480C4B98473B681B0CC9
S214000A4043F04042FB7919460648084B984704E0B5
S214000A50462208490020084B984700BF0837BD4685
S214000A6080BD00BF00800041530700006B090000F6
S214000A702B070000D43001004D2D000080B582B059
S214000A8000AF03463960FB711346BB71BB79002B80
S214000A9006D0FB793A6819460648074B984705E0A2
S214000AA0FB793A6819460348044B984700BF083755
S214000AB0BD4680BD008000417B070000A307000004
S214000AC080B582B000AF0346FB710B46BB71134680
S214000AD07B717B79012B0AD0022B1FD0002B34D1DF
S214000AE0BA79FB7919461E481E4B984733E0BB7906
S214000AF001229A40FB79194619481B4B9847BA7948
S214000B00FB7919461648194B9847BB7901229A403B
S214000B10FB7919461248164B98471CE0BB79012210
S214000B209A40FB7919460E480F4B9847BA79FB79DD
S214000B3019460B480D4B9847BB7901229A40FB7922
S214000B40194607480B4B984705E089220A490020BA
S214000B500A4B984700BF00BF0837BD4680BD00BFA0
S214000B60008000412709000053070000E30800004A
S214000B707B070000A3070000D43001004D2D0000C5
S214000B8090B585B000AF786039607B685B09FB7311
S214000B907B68DBB203F01F03BB733B68B3F1FF3F18
S214000BA006D1BA7BF97B00231248134CA0471DE000
S214000BB0BA7BF97B01230F480F4CA047BB7B03F0A1
S214000BC00103002B09D0BB7B5B08DAB23B68DBB2C3
S214000BD0F97B0848094CA04708E0BB7B5B08DAB203
S214000BE03B68DBB2F97B0348054CA04700BF1437CF
S214000BF0BD4690BD00800041890800002B0800001B
S214000C00CB07000080B582B000AF03460A46FB71F2
S214000C101346BB71FB795B09D8B2FB7903F01F035F
S214000C20DBB2BA791946034B984700BF0837BD4672
S214000C3080BD00BFC10A000080B582B000AF7860FA
S214000C40396039687868034B984700BF0837BD4657
S214000C5080BD00BF810B000080B582B000AF0346A8
S214000C600A46FB711346BB71FB795B09D8B2FB7968
S214000C7003F01F03012202FA03F3BA791946034B65
S214000C80984700BF0837BD4680BD00BF95090000E5
S214000C9080B582B000AF03460A46FB711346BB71AF
S214000CA0FB795B09D8B2FB7903F01F03012202FA35
S214000CB003F3BA791946034B984700BF0837BD4679
S214000CC080BD00BF7D0A000080B500AF014B98478D
S214000CD000BF80BD3D3F000080B582B000AF7860A9
S214000CE039607B68002B04D03B68002B01D00123C1
S214000CF000E0002303F00103DBB248220749184650
S214000D00074B98477B683A681A607B681846054B1D
S214000D109847034618460837BD4680BDF0300100A8
S214000D204D2D00008DA5000080B500AF0448054B92
S214000D30984705490548064B984700BF80BD00BF49
S214000D40000800406B050000002000416C1C0020DD
S214000D504D1C000080B500AF442204213F48404BA4
S214000D6098474048404B9847012140203F4B9847C2
S214000D70002140203E4B98474FF4800140203D4BD9
S214000D80984701212120394B984700212120384BD4
S214000D9098474FF404112120364B98470121032031
S214000DA0324B984702210320314B98474FF440318D
S214000DB00320304B9847012104202C4B98470221F2
S214000DC004202B4B98474FF480210420294B98474A
S214000DD001210520254B984702210520244B9847E2
S214000DE04FF4A0210520234B9847012156201F4B86
S214000DF09847022156201E4B98474FF4AC015620C8
S214000E001C4B984701215720184B98470221572022
S214000E10174B98474FF4AE015720164B98470121C1
S214000E202820124B984700212820114B98474FF452
S214000E30201128200F4B9847012129200B4B98475B
S214000E40002129200A4B98474FF424112920094BEA
S214000E509847094B984700BF80BD00BF001C004064
S214000E600504000000080040EB040000590C0000D8
S214000E70050C0000390C0000151D000080B500AF01
S214000E8044220B210748084B984744220C2105486A
S214000E90054B98470548064B9847064B984700BFB2
S214000EA080BD00BF001C0040050400000008004094
S214000EB08B050000011D000080B500AF01212B202E
S214000EC02B4B984700212B202A4B98472A492B204A
S214000ED02A4B984702210820254B984700210820D6
S214000EE0274B984700210820224B98472549082081
S214000EF0224B9847022109201D4B984700210920C4
S214000F001F4B9847002109201A4B98471E49092075
S214000F101A4B984702210A20154B984700210A20B1
S214000F20174B984700210A20124B984717490A206A
S214000F30124B984702210B200D4B984700210B209F
S214000F400F4B984700210B200A4B984710490B205F
S214000F500A4B984701212A20054B984700212A2052
S214000F60044B98470B492A20044B984700BF80BD86
S214000F70590C0000050C000007002B00390C00007F
S214000F80910C0000070008000700090007000A008F
S214000F9007000B0007002A0080B500AF0548064B87
S214000FA098470448054B98470248054B984700BFAA
S214000FB080BD00BF000800404B0400008B0400000A
S214000FC04B06000080B500AF044B9847044905481F
S214000FD0054B9847054B984700BF80BD990F00000A
S214000FE000340042201B0020911F0000B90E0000B4
S214000FF080B500AF0248034B984700BF80BD00BFD6
S21400100000080040CB04000080B500AF034B9847B3
S21400101003490448044B984700BF80BDF10F000009
S21400102000240040481C00205519000080B500AF81
S21400103001211020074B984707491020074B984777
S21400104001211120034B984705491120034B98476F
S21400105000BF80BD050C000002001000390C000027
S2140010600200110080B500AF422208210648074B57
S21400107098474A2203210448044B98470448054BE6
S214001080984700BF80BD00BF001C0040050400005C
S214001090000800400B05000080B500AF044B9847E1
S2140010A004490548054B9847054B984700BF80BD47
S2140010B06510000000340040A01B0020851E0000C4
S2140010C02D10000080B500AF00213B20114B984743
S2140010D002213B20104B984710493B20104B984765
S2140010E000213A200B4B984702213A200A4B98479A
S2140010F00C493A200A4B984701213C20064B98475A
S21400110000213C20084B984708493C20044B984750
S21400111000BF80BD910C0000590C000003003B008E
S214001120390C000003003A00050C000003003C00E8
S21400113080B500AF452222210648074B98474A2231
S21400114003210448044B98470448054B984700BFC2
S21400115080BD00BF001C00400504000000080040E1
S2140011606B06000080B500AF054B98474FF08641F0
S2140011700448054B9847054B984700BF80BD00BF05
S21400118031110000C81A0020A1200000C510000080
S21400119080B500AF00211720074B98470749172056
S2140011A0074B984700211620034B98470549162001
S2140011B0034B984700BF80BD050C000003001700D6
S2140011C0390C00000300160080B500AF442223212E
S2140011D00648074B98474A2203210448044B984781
S2140011E00448054B984700BF80BD00BF001C004068
S2140011F005040000000800408B06000080B500AF24
S214001200044B984704490548054B9847054B9847B3
S21400121000BF80BDC911000000040043641B00200D
S214001220851E00009111000080B500AF002144200B
S214001230114B984702214420104B984710494420F0
S214001240104B9847002145200B4B9847022145201C
S2140012500A4B98470C4945200A4B984701214720DE
S214001260064B984700214720084B984708494720D7
S214001270044B984700BF80BD910C0000590C00003D
S21400128002004400390C000002004500050C000076
S2140012900200470080B500AF422224210648074BD3
S2140012A098474A2203210448044B98470448054BB4
S2140012B0984700BF80BD00BF001C0040050400002A
S2140012C000080040AB06000080B500AF044B98470E
S2140012D004490548054B9847054B984700BF80BD15
S2140012E09512000000080043B01A0020A12000005C
S2140012F02912000080B500AF00216820074B9847F0
S21400130007496820074B984700216920034B9847F8
S21400131005496920034B984700BF80BD050C0000B7
S21400132002006800390C00000200690080B500AFBA
S214001330442225210648074B98474A2203210448A1
S214001340044B98470448054B984700BF80BD00BF34
S214001350001C00400504000000080040CB0600000A
S21400136080B500AF044B984704490548054B98479D
S214001370054B984700BF80BD2D130000000C0043AE
S214001380E01A0020851E0000F512000080B500AFB0
S2140013900848094B9847432209210848084B9847B4
S2140013A0084B984703461A4607490848084B98478B
S2140013B000BF80BD000800402B050000001C004058
S2140013C005040000797A000000380040081C002060
S2140013D07122000080B500AF0848094B98474422A8
S2140013E01A210848084B9847084B984703461A4660
S2140013F007490848084B984700BF80BD00080040D2
S214001400EB050000001C004005040000797A00008F
S21400141000A00141E81B00207122000080B500AF4B
S2140014200848094B984746221E210848084B98470B
S214001430084B984703461A4607490848084B9847FA
S21400144000BF80BD000800400B060000001C0040E6
S21400145005040000797A000000140042001B0020FA
S2140014607122000080B500AF0848094B9847462215
S2140014701E210848084B9847084B984703461A46CB
S21400148007490848084B984700BF80BD0008004041
S2140014902B060000001C004005040000797A0000BE
S2140014A000180042441B00207122000080B500AFE7
S2140014B00848094B9847462227210848084B984772
S2140014C0084B984703461A4607490848084B98476A
S2140014D000BF80BD00080040EB060000001C004076
S2140014E005040000797A000000140043241B002045
S2140014F07122000080B400AF00BFBD465DF8047BDB
S2140015007047000080B500AF0448054B984740225E
S21400151027210448044B984700BF80BD00080040C0
S2140015200B070000001C00400504000080B500AF5B
S214001530064B9847064B9847064B984703461A466D
S21400154005490648064B984700BF80BD05150000B4
S214001550F51400008D7A000000180043841B00205C
S214001560E51E000080B500AF0448054B98474422AE
S21400157019210448044B984700BF80BD000800406E
S214001580AB050000001C00400504000080B500AF5D
S214001590054B9847054B984703461A4604490548A5
S2140015A0054B984700BF80BD65150000796E0000AA
S2140015B000600141281C00207122000080B500AFA9
S2140015C00448054B9847442219210448044B984781
S2140015D000BF80BD00080040CB050000001C004096
S2140015E00504000080B500AF054B9847054B9847AB
S2140015F003461A4604490548054B984700BF80BD78
S214001600BD150000796E000000800141901A002090
S2140016107122000080B500AF022118200F4B9847BA
S214001620002118200E4B9847002118200D4B984794
S2140016300D4918200D4B984702211920074B984753
S21400164000211920064B984700211920054B984782
S21400165007491920054B984700BF80BD590C00006C
S214001660910C0000050C000007001800390C000063
S2140016700700190080B500AF42220A210548064B34
S21400168098470648064B98470448064B984700BFBD
S21400169080BD00BF001C004005040000000800409C
S2140016A02B0400004B05000080B500AF034B9847A5
S2140016B0034B9847034B984700BF80BD7516000044
S2140016C0F92700001516000080B500AF0248034B4E
S2140016D0984700BF80BD00BF00080040AB04000074
S2140016E080B500AF034B984703490448044B98471E
S2140016F000BF80BDC916000000200040681C002006
S214001700D90C000080B500AF04492D20044B984743
S21400171004492C20024B984700BF80BD07002D00CF
S214001720390C000007002C0080B500AF0748084BB6
S214001730984743221C210748074B98470749084803
S214001740084B9847084B984700BF80BD00080040EC
S2140017506B040000001C004005040000000400426A
S214001760C01B0020C51900000517000080B500AF9B
S2140017705E4B9847002107205D4B984702210720C3
S2140017805C4B98474FF0FF3107205B4B9847012191
S2140017900F20574B984702210F20564B98474FF083
S2140017A0FF310F20544B984701211320504B984788
S2140017B0022113204F4B98474FF0FF3113204E4B1A
S2140017C0984701211B204A4B984702211B20494B72
S2140017D098474FF0FF311B20474B984701212720A1
S2140017E0434B984702212720424B98474FF0FF3142
S2140017F02720414B984701213D203D4B9847022129
S2140018003D203C4B98474FF0FF313D203A4B9847E0
S21400181001213F20374B984701213F20374B9847FF
S2140018204FF0FF313F20344B984700214D20304B7E
S214001830984702214D202F4B98474FF0FF314D20FF
S2140018402D4B984701214E20294B984702214E20C8
S214001850284B98474FF0FF314E20274B98470021E2
S2140018604F20234B984702214F20224B98474FF09A
S214001870FF314F20204B9847002152201C4B9847A1
S214001880022152201B4B98474FF0FF3152201A4B33
S21400189098471B4B98471B4B98471B4B98471B4B2F
S2140018A098471B4B98471B4B98471B4B98471B4B1F
S2140018B098471B4B98471B4B98471B4B98471B4B0F
S2140018C098471B4B98471B4B98471B4B98471B4BFF
S2140018D098471B4B98471B4B98471B4B98471B4BEF
S2140018E098471B4B984700BF80BD00BFC90C00003F
S2140018F0910C0000590C0000390C0000050C00008B
S214001900290D0000550D00007D0E0000C50F0000DB
S214001910091000009910000065110000FD1100007C
S214001920C9120000611300008D130000D5130000DB
S2140019301D14000065140000AD1400002D150000F5
S2140019408D150000E5150000A9160000E116000040
S2140019502917000080B584B000AF78603960002396
S214001960FB607B68002B14BF01230023DBB24FF41F
S214001970E07211491846114B98477B681A683B6815
S2140019809A4201D1002313E07B681B68002B02D02B
S2140019906FF011030CE07B683A681A607B681846A3
S2140019A0074B9847F8607B6840F2B2729A61FB6812
S2140019B018461037BD4680BD0C3101004D2D000085
S2140019C00156000080B584B000AF786039607B684F
S2140019D0002B04D03B68002B01D0012300E000233D
S2140019E003F00103DBB241220E4918460E4B98471E
S2140019F07B68396818460D4B9847F860FB68002BE3
S214001A0001D0FB6809E07B68094A5A607B68094A8E
S214001A109A607B68084ADA60002318461037BD468D
S214001A2080BD00BF283101004D2D00004D34000060
S214001A30D91B0000FD1B0000211C000080B582B0F1
S214001A4000AF78607B68002B14BF01230023DBB255
S214001A505C2206491846064B98477B681846054B95
S214001A609847034618460837BD4680BD2831010012
S214001A704D2D00003936000080B582B000AF78608A
S214001A8039607B68002B04D03B68002B01D0012313
S214001A9000E0002303F00103DBB26E22064918467D
S214001AA0064B98477B6839681846054B98470346A7
S214001AB018460837BD4680BD283101004D2D000070
S214001AC05936000080B582B000AF786039607B6818
S214001AD0002B04D03B68002B01D0012300E000233C
S214001AE003F00103DBB2772206491846064B9847F7
S214001AF07B6839681846054B9847034618460837EA
S214001B00BD4680BD283101004D2D0000693700001C
S214001B1080B584B000AFF8600B467A60FB72FB6855
S214001B20002B14BF01230023DBB281221449184680
S214001B30144B9847FB7A012B07D0022B09D0002BB9
S214001B400BD1FB687A681A620AE0FB687A68DA6189
S214001B5006E0FB687A685A6202E06FF00C030BE05E
S214001B60F8687B68002B14BF01230023DAB2FB7AE7
S214001B701946054B9847002318461037BD4680BDCA
S214001B80283101004D2D00002539000090B585B0A4
S214001B9000AFF8607B600B46FB721346BB72FB68B7
S214001BA0002B14BF01230023DBB2B82207491846D6
S214001BB0074B9847F868BA7AF97A7B68054CA047CD
S214001BC0034618461437BD4690BD00BF28310100B5
S214001BD04D2D0000B139000080B584B000AF7860AC
S214001BE07B68FB60FB68DB69002B03D0FB68DB6966
S214001BF0F868984700BF1037BD4680BD80B584B0F2
S214001C0000AF78607B68FB60FB681B6A002B03D024
S214001C10FB681B6AF868984700BF1037BD4680BD52
S214001C2080B584B000AF78600B46FB707B68FB60C5
S214001C30FB685B6A002B05D0FB685B6AFA78114686
S214001C40F868984700BF1037BD4680BD80B582B0A3
S214001C5000AF786039607B68002B04D03B68002BAF
S214001C6001D0012300E0002303F00103DBB22B22A6
S214001C7006491846064B98477B6839681846054B50
S214001C809847034618460837BD4680BD44310100D4
S214001C904D2D0000913F000090B583B000AF034685
S214001CA0FB80074B1C68FB881846064B9847034684
S214001CB019462046044B984700BF0C37BD4690BDDA
S214001CC0740B0020E53C0000793E000090B583B020
S214001CD000AF0346FB80074B1C68FB881846064B84
S214001CE09847034619462046044B984700BF0C37D2
S214001CF0BD4690BD740B0020513E0000793E0000AA
S214001D0080B500AF024B98470346184680BD00BF1B
S214001D107546000080B582B000AF0023FB800EE061
S214001D20FB880C4ADB0013444FF0FF325A60FB88F6
S214001D30084A002142F83310FB880133FB80FB88F9
S214001D40082BEDD90448054B984703461846083734
S214001D50BD4680BD780B0020611D00009942000042
S214001D6080B584B000AF78600023FB730923BB7393
S214001D702AE0BA7BFB7B13445B107B737B7B082BD0
S214001D8027D87B7B164ADB0013445A687B689A4246
S214001D900BD17B7B124A52F83330002B1BD07B7B57
S214001DA00F4A52F83330984715E07B7B0C4ADB002D
S214001DB013445A687B689A4203D27B7B0133FB73D9
S214001DC002E07B7B013BBB73BA7BFB7B9A42D0D2A3
S214001DD002E000BF00E000BF1037BD4680BD00BF78
S214001DE0780B002080B58AB000AFF860B960134663
S214001DF0FB80FB68143B7B627B6A9B8BBB82FB8809
S214001E00BB6148F20103FB82BB68FB617B6A07F19A
S214001E10140211461846064B984738623B6A002B58
S214001E2001D03B6A00E0FB8818462837BD4680BDD7
S214001E30A561000080B58AB000AFF860B9601346AF
S214001E40FB80FB68143B7B627B6A9B8BBB82FB88B8
S214001E50BB614FF40043FB82BB68FB617B6A07F102
S214001E60140211461846064B984738623B6A002B08
S214001E7001D03B6A00E0FB8818462837BD4680BD87
S214001E80A561000080B584B000AF786039607B68DB
S214001E90002B14BF01230023DBB25E220C49184638
S214001EA00C4B98477B68396818460B4B9847F86088
S214001EB0FB68002B01D0FB6806E07B68074A9A6146
S214001EC07B68074A5A61002318461037BD4680BD16
S214001ED0603101004D2D0000E15F0000E51D0000AF
S214001EE0351E000080B584B000AFF860B9607A6037
S214001EF0FB68002B04D0BB68002B01D0012300E058
S214001F00002303F00103DBB233220A4918460A4BCA
S214001F109847FB68B9681846084B9847FB68084A14
S214001F201A60FB68074A5A60002318461037BD46F9
S214001F3080BD00BF7C3101004D2D0000A976000059
S214001F40491F00006D1F000080B584B000AF7860A8
S214001F507B68FB60FB685B69002B03D0FB685B69F2
S214001F60F868984700BF1037BD4680BD80B584B07E
S214001F7000AF78607B68FB60FB689B69002B03D032
S214001F80FB689B69F868984700BF1037BD4680BD60
S214001F9080B582B000AF786039607B68002B04D0D3
S214001FA03B68002B01D0012300E0002303F001036F
S214001FB0DBB2312206491846064B98477B683968DB
S214001FC01846054B9847034618460837BD4680BD59
S214001FD0943101004D2D00003D52000080B582B0C6
S214001FE000AF78607B68002B14BF01230023DBB2B0
S214001FF03F2206491846064B98477B681846054B0D
S2140020009847034618460837BD4680BD9431010000
S2140020104D2D0000B152000080B582B000AF786050
S2140020207B68002B14BF01230023DBB2462206493F
S2140020301846064B98477B681846054B9847034654
S21400204018460837BD4680BD943101004D2D00006E
S214002050D552000080B582B000AF786039607B68EA
S214002060002B04D03B68002B01D0012300E00023A6
S21400207003F00103DBB24D2206491846064B98478B
S2140020807B6839681846054B984703461846083754
S214002090BD4680BD943101004D2D00002154000046
S2140020A080B584B000AF786039600023FB607B6841
S2140020B0002B04D03B68002B01D0012300E0002356
S2140020C003F00103DBB2402210491846104B984734
S2140020D07B683A685A607B680433396818460D4B4B
S2140020E09847F860FB68002B01DAFB680AE07B681B
S2140020F04FF400429A827B68074A1A617B68074A57
S214002100DA60002318461037BD4680BDB0310100A6
S2140021104D2D0000AD650000212100007921000052
S21400212080B588B000AFF860B9601346FB80FB68E6
S214002130002B14BF01230023DBB287220B4918466D
S2140021400B4B9847FB680C3BFB61BB687B6100232D
S2140021503B61FB88BB6107F110031946F869054B24
S2140021609847034618462037BD4680BDB03101006B
S2140021704D2D0000D121000080B588B000AFF8607A
S214002180B9601346FB80FB68002B14BF01230023B5
S214002190DBB2A3220B4918460B4B9847FB680C3B57
S2140021A0FB6100237B61BB683B61FB88BB6107F179
S2140021B010031946F869054B98470346184620371A
S2140021C0BD4680BDB03101004D2D0000D12100007C
S2140021D080B586B000AF786039607B68002B04D08D
S2140021E03B68002B01D0012300E0002303F001032D
S2140021F0DBB2B3220C4918460C4B98473B681B6869
S214002200FB603B685B683B613B689B687B617B6807
S214002210043307F10C0211461846054B984703464F
S21400222018461837BD4680BDB03101004D2D000060
S2140022300D68000080B483B000AF78607B681B68D0
S21400224018460C37BD465DF8047B704780B483B0F3
S21400225000AF78607B68002B02D07B681B6800E0CC
S214002260002318460C37BD465DF8047B7047000017
S21400227080B584B000AFF860B9607A60FB68002B68
S21400228007D0BB68002B04D07B68002B01D001234D
S21400229000E0002303F00103DBB23B220C491846A2
S2140022A00C4B9847FB687A681A60FB681B681B68CB
S2140022B0FA680432B96810469847FB6800225A61EB
S2140022C0FB68054A5A60002318461037BD4680BD95
S2140022D0CC3101004D2D00008D23000080B588B064
S2140022E000AFF860B9607A600023BB61F868234BE2
S2140022F0984738613B69002B04D1B968F868204BD1
S214002300984737E03B69FB6122E0FB695A687B68C7
S2140023109A4208D8FB699A68FB6959687B68CB1AA9
S21400232013447B6109E0FB699A68FB695B681A44A1
S2140023307B685B42134401337B61BB689A687B69A8
S2140023409A4209D9FB69BB61F8690E4B9847F86158
S214002350FB69002BD9D100E000BFFA693B699A42BD
S21400236004D1B968F868064B984703E0B968B869BD
S214002370054B98472037BD4680BD00BF352200007C
S214002380AD2D00004D220000052E000080B586B061
S21400239000AF78607B68043B3B613B6918331846A6
S2140023A0274B984778613B695B695A1C3B695A61C1
S2140023B03B695B69FB603B691B7FDBB203F0010393
S2140023C0002B06D13B691B7FDBB203F00203002B18
S2140023D027D03B691B7FDBB243F00203DAB23B69CE
S2140023E01A7729E07B69BB603B6918331846154BA2
S2140023F09847BB681B7C012B09D1BB68FA685A60FA
S2140024003B691833FA68B96818460F4B98473B691A
S214002410183318460A4B98477861BB68DB68B8687B
S21400242098477B69002B07D07B695B68FA68D21AED
S2140024307B699B689A42D5D21837BD4680BD00BFDF
S21400244035220000A52E0000DD22000080B485B0F5
S21400245000AF0346FB710023FB7329E097F90F30AA
S214002460194A5B01134401331B78FA799A4202D168
S21400247097F90F3022E097F90F30134A5B011344A7
S2140024801B78002B0ED1FB7903F00F0397F90F2072
S2140024900D4952010A4401321278934202D197F94B
S2140024A00F300BE097F90F30DBB20133DBB2FB7372
S2140024B097F90F30032BD1DD4FF0FF331846143752
S2140024C0BD465DF8047B7047C00B002080B588B021
S2140024D000AFBA607B600346FB730B46BB73BB68FA
S2140024E07B617B68BB61BB7B002B04D0FB7B63F00E
S2140024F07F03DBB203E0FB7B03F00F03DBB23B772B
S21400250097F828307B7707F114031846034B984753
S214002510034618462037BD4680BD00BFEDA100002B
S21400252080B485B000AFF860B9607A6000231846C2
S2140025301437BD465DF8047B7047000080B586B052
S21400254000AF0346FB71FB7918462A4B98470346B3
S214002550FB7597F917305B01274A13443B613B69CB
S2140025600C33FB60FB79F9681846244B9847034602
S214002570FB72FB7A082B0DD0FB7901211846204B05
S2140025809847FB7963F07F03DBB2012118461C4BAA
S21400259098472BE0FB7900211846194B9847FB79A2
S2140025A063F07F03DBB200211846154B98473B6962
S2140025B001229A703B695B69FA79F9681046984778
S2140025C0034683F00103DBB2002B0FD03B690522E4
S2140025D09A70FB7901211846094B9847FB7963F0FE
S2140025E07F03DBB201211846054B98471837BD46D6
S2140025F080BD00BF4D240000C00B002045A1000098
S214002600BD9F000080B584B000AF03463960FB7103
S214002610FB7918460D4B98470346FB7397F90F3026
S2140026205B010B4A1344BB60BB689B78032B07D146
S214002630BB689B69FA79396810469847034600E0FC
S214002640002318461037BD4680BD00BF4D2400004D
S214002650C00B002090B587B002AF78607B689B788F
S214002660FB737B681B7B03F08003002B14BF0123E6
S2140026700023BB73FB7B032B3AD17B68DB697A684C
S21400268050787A680C320121984703467B737B7B2F
S214002690002B15D07B6805229A707B680222DA70C0
S2140026A0BB7B002B02D07B685B7804E07B685B78A2
S2140026B063F07F03DBB201211846154B984722E0F2
S2140026C07B6804229A707B685878BB7B002B14BF0B
S2140026D001230023DBB283F00103DBB203F0010326
S2140026E0D9B201230093002300220A4CA0470AE037
S2140026F07B68DB697A6850787A680C3200219847E4
S2140027007B6802229A7000BF1437BD4690BD00BF9A
S214002710BD9F0000CD24000080B586B000AF034604
S214002720B9607A60FB73FB7B18462F4B98470346CD
S214002730FB7597F917305B012C4A13443B61BB6865
S214002740002B0ED13B690022DA703B691B78002B08
S21400275003D13869264B984743E03B6901229A70BB
S21400276038E0BB68012B13D13B690222DA703B6963
S2140027701B78002B08D13B6902229A70FB7B002154
S21400278018461C4B984725E03B6905229A7021E0C5
S214002790BB68022B0ED13B690422DA703B691B78BA
S2140027A0002B03D13B6902229A701AE03B69012292
S2140027B09A700FE0BB68032B06D13B6900229A7023
S2140027C03B690522DA7005E03B6906229A703B6990
S2140027D00622DA703B69DB693A69D1787A68F87B59
S2140027E098471837BD4680BD4D240000C00B00201A
S2140027F055260000BD9F000080B582B000AF214B7B
S214002800984738603B68002B01DA3B6836E0802248
S21400281000211D481D4B98470023FB711EE0FB79E5
S214002820194A5B0113440133FF221A70FB79164ADA
S2140028305B0113441433164A1A60FB79124A5B0193
S21400284013441833124A1A60FB790F4A5B0113448B
S2140028501C330F4A1A60FB790133FB71FB79032B9B
S214002860DDD90C4900200C4B98470C4901200A4B37
S21400287098470B490220084B98470023184608370C
S214002880BD4680BD05980000C00B0020192F010032
S214002890212500003D250000F9A3000005260000C4
S2140028A01927000080B582B000AF03463960FB717F
S2140028B0FB7939681846034B984700BF0837BD4672
S2140028C080BD00BFB1A3000080B500AF024B9847A3
S2140028D00346184680BD00BFF598000080B500AFDF
S2140028E0014B984700BF80BD7999000080B582B043
S2140028F000AF0346FB71FB791846034B984700BFB1
S2140029000837BD4680BD00BF8D99000080B582B0F7
S21400291000AF0346FB71FB799BB21A4600210020EC
S214002920034B9847034618460837BD4680BD00BF90
S2140029303529000080B586B000AF0346FB710B4614
S214002940BB711346BB80FB7918461E4B984703465F
S214002950FB7597F917305B011B4A13443B6197F9E7
S2140029601730002B02DB6FF0130327E0FF20154B18
S21400297098470346FB7597F91730002B02DA6FF07D
S21400298014031BE097F917305B010F4A13443B61B1
S214002990BA88B979FB7918460C4B9847F860FB68FB
S2140029A0002B01DAFB6809E03B69FA795A70BB79BB
S2140029B003F00303DAB23B691A700023184618378F
S2140029C0BD4680BD4D240000C00B00202D9A00009F
S2140029D080B584B000AF0346FB71FB7918460D4BFB
S2140029E098470346FB7397F90F305B010A4A134476
S2140029F0BB6097F90F30002B07DBFB791846074BB7
S214002A009847BB68FF225A7000E000BF1037BD46EB
S214002A1080BD00BF4D240000C00B0020619B00005D
S214002A2080B586B000AF0346FB71FB791846154BA0
S214002A3098470346FB7597F917305B01124A134413
S214002A403B6197F91730002B02DA6FF0110314E0A0
S214002A503B691B78002B01D1022200E001223B6972
S214002A609A70FB791846094B9847F860FB68002B6C
S214002A7002DA3B6900229A70FB6818461837BD4692
S214002A8080BD00BF4D240000C00B0020459C000008
S214002A9090B58DB002AF78607B681B7A1846514BB4
S214002AA098470346FB7797F91F305B014E4A13445D
S214002AB0BB617B681B7A03F08003002B14BF0123E5
S214002AC0002387F827307B685B7A002B14BF01232E
S214002AD0002387F826307B685B683B6297F91F30D7
S214002AE0002B02DA6FF0110377E007F108031846AF
S214002AF03E4B9847BB699B78FB73FB7BDBB2012B95
S214002B000CD1BB6903229A7007F108031846384BAC
S214002B109847BB691B78002B51D117E007F10803D3
S214002B201846334B9847FB7BDBB2052B04D0062BAD
S214002B3004D0002B05D007E002234EE06FF00F0311
S214002B404BE06FF0120348E0012346E0BB699B7C34
S214002B509AB2BB69DB7C9BB21B029BB21344FB821E
S214002B60FB8A002B0BD1012387F8273000233B621A
S214002B70012387F82630BB6904229A701FE0BB69E0
S214002B801B7B03F08003002B14BF0123002387F870
S214002B902730FA8A3B6A9A4201D2FB8A3B6297F850
S214002BA02730002B08D0FA8A3B6A9A428CBF012352
S214002BB0002387F8263002E0002387F826307B685B
S214002BC0187A7B681A6897F8263097F827100093CB
S214002BD03B6A084CA04738613B6918462C37BD460F
S214002BE090BD00BF4D240000C00B002065AB000068
S214002BF08BAB0000CD24000080B586B000AF034646
S214002C00FB71FB7918461A4B98470346FB7597F9F4
S214002C1017305B01174A13443B6197F91730002BB6
S214002C2002DA6FF011031FE0FB7902211846124BFF
S214002C3098470346002B16D0FB79002118460E4B0A
S214002C409847F860FB68002B01DAFB680CE03B69EC
S214002C5001229A703B690322DA703B69DB69F879D6
S214002C60002203219847002318461837BD4680BD2A
S214002C704D240000C00B0020BD9F000080B582B030
S214002C8000AF03460A46FB711346BB71BB79002BA7
S214002C9005D1FB7918460C4B984703460FE0BB79E5
S214002CA0012B06D1FB7901211846084B98470346AD
S214002CB005E0FB7902211846044B98470346184660
S214002CC00837BD4680BD00BFF92B0000BD9F000041
S214002CD080B586B000AF03463A60FB710B46BB7109
S214002CE0FB791846164B98470346FB7597F917303D
S214002CF05B01144A13443B613B68002B01D03B68E0
S214002D0000E0114BFB6097F91730002B13DBBB7903
S214002D10012B08D0022B0AD0002B00D00CE03B6918
S214002D20FA685A6108E03B69FA689A6104E03B6910
S214002D30FA68DA6100E000BF1837BD4680BD00BF04
S214002D404D240000C00B00202125000080B485B073
S214002D5000AF0346B9607A60FB73FB7B83F0010328
S214002D60DBB2002B00D000BE00BF1437BD465DF8B6
S214002D70047B704780B485B000AF786039607B68AC
S214002D801B68FB6008E0FA683B689A4201D10123A1
S214002D9006E0FB681B68FB60FB68002BF3D1002392
S214002DA018461437BD465DF8047B704780B582B080
S214002DB000AF78603960396878680F4B98470346EB
S214002DC0002B14BF01230023DBB283F00103DBB228
S214002DD003F00103DBB2392208491846084B98472E
S214002DE07B681A683B681A607B683A681A6000BF9E
S214002DF00837BD4680BD00BF752D0000E4310100D8
S214002E004D2D000080B483B000AF786039607B68D9
S214002E101A683B681A607B683A681A6000BF0C370D
S214002E20BD465DF8047B704780B584B000AF78601F
S214002E3039607B681B68FB6039687868164B984772
S214002E400346002B14BF01230023DBB283F00103EB
S214002E50DBB203F00103DBB24F2210491846104BD9
S214002E6098477B681B68002B09D17B683A681A6014
S214002E703B6800221A600CE0FB681B68FB60FB687E
S214002E801B68002BF8D1FB683A681A603B68002282
S214002E901A601037BD4680BD752D0000E431010074
S214002EA04D2D000080B485B000AF78607B681B684D
S214002EB0002B09D07B681B68FB607B681B681A6860
S214002EC07B681A60FB6800E0002318461437BD468E
S214002ED05DF8047B7047000080B483B000AF034603
S214002EE0FB80B7F90630002B0BDB0949B7F9063033
S214002EF05B09FA8802F01F02012000FA02F241F88C
S214002F00232000BF0C37BD465DF8047B704700BF2A
S214002F1000E100E080B483B000AF0346FB80B7F961
S214002F200630002B10DB0B49B7F906305B09FA8830
S214002F3002F01F02012000FA02F2203341F823209B
S214002F40BFF34F8FBFF36F8F00BF0C37BD465DF8E2
S214002F50047B704700E100E080B483B000AF034616
S214002F60FB80B7F90630002B0CDB0949B7F90630B1
S214002F705B09FA8802F01F02012000FA02F26033B1
S214002F8041F8232000BF0C37BD465DF8047B704730
S214002F9000E100E080B483B000AF78607B685B6CD3
S214002FA05B0903F00103002B14BF01230023DBB2EF
S214002FB018460C37BD465DF8047B704780B483B076
S214002FC000AF78607B68D3F8A43003F07F03184620
S214002FD00C37BD465DF8047B704780B483B000AF05
S214002FE078607B68D3F8A4301B0A03F03F031846CA
S214002FF00C37BD465DF8047B704780B483B000AFE5
S21400300078607B68D3F8C4305B0D03F00103002BB7
S21400301014BF01230023DBB218460C37BD465DF80B
S214003020047B704780B483B000AF78607B68D3F8C9
S214003030C4301B0C03F01F0318460C37BD465DF862
S214003040047B704780B483B000AF786039607B68DB
S2140030503A689A6000BF0C37BD465DF8047B70473F
S21400306080B483B000AF786039607B683A68DA6015
S21400307000BF0C37BD465DF8047B704780B483B054
S21400308000AF78607B689B6943F001027B689A61B9
S21400309000BF0C37BD465DF8047B704780B485B032
S2140030A000AF78607B689B69FB60FB6803F00103F8
S2140030B0FB60FB68002B14BF01230023DBB218461D
S2140030C01437BD465DF8047B704780B483B000AF0C
S2140030D078607B689B6923F001027B689A6100BF79
S2140030E00C37BD465DF8047B704780B483B000AFF4
S2140030F078607B689B6943F002027B689A6100BF38
S2140031000C37BD465DF8047B704780B483B000AFD3
S21400311078607B689B6923F002027B689A6100BF37
S2140031200C37BD465DF8047B704780B485B000AFB1
S21400313078607B689B69FB60FB681B0A03F00103F1
S214003140FB60FB68002B14BF01230023DBB218468C
S2140031501437BD465DF8047B704780B485B000AF79
S21400316078607B689B69FB60FB685B0A03F0010381
S214003170FB60FB68002B14BF01230023DBB218465C
S2140031801437BD465DF8047B704780B483B000AF4B
S214003190786039607B689A693B681A437B689A61F5
S2140031A000BF0C37BD465DF8047B704780B483B023
S2140031B000AF786039607B683A68DA6100BF0C3728
S2140031C0BD465DF8047B704780B483B000AF78607E
S2140031D039607B683A681A6500BF0C37BD465DF8F3
S2140031E0047B704780B483B000AF78607B681B6D4B
S2140031F018460C37BD465DF8047B704780B485B032
S21400320000AF78600B46FB707B685B6DFB60FB680D
S21400321023F00103FB60FB78FA681343FB607B68CE
S214003220FA685A6500BF1437BD465DF8047B7047E0
S21400323080B485B000AF78600B46FB707B685B6D32
S214003240FB60FB6823F40073FB60FB785B021A46A6
S214003250FB681343FB607B68FA685A6500BF143747
S214003260BD465DF8047B704780B485B000AF7860DB
S21400327039607B685B6DFB60FA683B681340FB60F7
S214003280FB6818461437BD465DF8047B704780B46B
S21400329083B000AF786039607B683A685A6500BFD3
S2140032A00C37BD465DF8047B704780B483B000AF32
S2140032B0786039607B683A68DA6500BF0C37BD46CF
S2140032C05DF8047B704780B483B000AF78603960E7
S2140032D07B683A68C3F8802000BF0C37BD465DF8AF
S2140032E0047B704780B483B000AF786039607B6839
S2140032F03A68C3F8842000BF0C37BD465DF8047BEF
S214003300704780B483B000AF786039607B683A68F5
S214003310C3F8882000BF0C37BD465DF8047B7047B5
S21400332080B483B000AF786039607B683A68C3F8D1
S214003330902000BF0C37BD465DF8047B704780B414
S21400334083B000AF786039607B683A68C3F8A02025
S21400335000BF0C37BD465DF8047B704780B485B06F
S21400336000AF786039607B68D3F8A830FB60FB68F4
S21400337023F03F03FB603B6803F03F03FA68134308
S214003380FB607B68FA68C3F8A82000BF1437BD4608
S2140033905DF8047B704780B483B000AF7860396016
S2140033A07B683A68C3F8BC2000BF0C37BD465DF8A2
S2140033B0047B704780B483B000AF786039607B6868
S2140033C03A68C3F8C02000BF0C37BD465DF8047BE2
S2140033D0704780B483B000AF786039607B683A6825
S2140033E0C3F8C82000BF0C37BD465DF8047B7047A5
S2140033F080B483B000AF786039607B683A68C3F801
S214003400D02000BF0C37BD465DF8047B704780B403
S21400341083B000AF786039607B683A68C3F8E02014
S21400342000BF0C37BD465DF8047B704780B483B0A0
S21400343000AF786039607B683A68C3F8F02000BF58
S2140034400C37BD465DF8047B7047000080B582B03F
S21400345000AF786039607B683A681A607B681B68E2
S2140034601846554B984700BF7B681B681846534B59
S2140034709847034683F00103DBB2002BF4D17B6848
S2140034801B6818464E4B98473B684E4A93427AD183
S2140034904D4A7B6813607B684C4A9A617B681B6860
S2140034A04FF4407118464A4B98477B681B680221C8
S2140034B01846484B98477B681B6847491846474B51
S2140034C098477B681B6846491846464B98477B6872
S2140034D01A68454B9BB243F0004343F480331946C9
S2140034E01046424B98477B681B6807211846404B9E
S2140034F098477B681B68072118463E4B98477B68B1
S2140035001A683D4B9BB243F08073194610463B4BFE
S21400351098477B681A683A4B9BB243F400331946C7
S2140035201046384B98477B681B6808211846364B70
S21400353098477B681A68354B9BB243F400131946CC
S2140035401046334B98477B681A68324B9BB243F45D
S214003550003319461046304B98477B681B686FF05F
S214003560604118462D4B98474F202D4B98474F20CB
S2140035702C4B98474F202C4B98477B681B680121A3
S21400358018462A4B98477B681B681846284B98476E
S2140035907B681B681846274B984700BF7B681B68EC
S2140035A01846064B98470346002BF7D100231846CB
S2140035B00837BD4680BD00BF7D3000009D3000004E
S2140035C0EB30000000040042E00C00200400002065
S2140035D08B31000045300000010C0100AD310000C9
S2140035E0100C010061300000B81C00203F330000C2
S2140035F097330000D3330000701C0020B533000062
S214003600400C00202D340000C7320000500C002073
S214003610E5320000D00C0020033300002133000008
S214003620152F0000592F0000D92E0000AB320000E5
S2140036300B310000CB30000080B582B000AF786060
S2140036407B681B681846034B9847002318460837C4
S214003650BD4680BDCB30000090B589B000AF786025
S21400366039600023FB617B681B681846374B984718
S2140036700346002B02D16FF0090363E07B681B68EA
S2140036801846334B9847B8617B681B68314A9342AB
S21400369008D1BA691346DB001344DB001A462E4BEA
S2140036A01344FB61FB69002B02D16FF01B0349E05A
S2140036B0FB691B68C3F38073DBB2012B0AD13B683E
S2140036C001225A73FB691B68C3F31C031A463B6846
S2140036D01A600AE03B6800225A73FB691B68C3F352
S2140036E01C039B141A463B681A60FB691B68C3F3ED
S2140036F04073DBB2012B02D13B6801221A71174BD3
S21400370007F108040FCB84E80F00FB695B68C3F37E
S2140037100343DBB207F12002134413F8182C3B686E
S2140037201A733B689868FB6903F108013B681B7BCA
S2140037301A460B4B98477B681B68B9691846094BB5
S2140037409847002318462437BD4690BDBD2F00007D
S214003750DB2F000000040042B81C002004320100E9
S214003760E52D01005D33000090B585B000AF7860B0
S21400377039600023FB607B681B681846614B9847DE
S2140037800346002B02D06FF01B03B7E07B681B6874
S21400379018465D4B9847B8607B681B685B4A934247
S2140037A008D1BA681346DB001344DB001A46584BB0
S2140037B01344FB60FB68002B02D16FF01B039DE0F7
S2140037C03B685B7B012B09D13B681A68FB681A6073
S2140037D0FA68136843F08043136004E03B681B6894
S2140037E09A04FB681A603B681B7B082B0AD83B6868
S2140037F01B7B03F00F03D9B2FA68536861F31343D7
S21400380053604AE03B681B7B0C2B06D8FA6853686B
S214003810092161F3134353603FE03B681B7B102B89
S21400382006D8FA6853680A2161F31343536034E0FC
S2140038303B681B7B142B06D8FA6853680B2161F390
S2140038401343536029E03B681B7B182B06D8FA68A5
S21400385053680C2161F3134353601EE03B681B7BE7
S214003860202B06D8FA6853680D2161F31343536082
S21400387013E03B681B7B302B06D8FA6853680E2192
S21400388061F31343536008E03B681B7B402B04D86E
S214003890FA68536843F4702353607B681B681846C5
S2140038A01C4B984703461946FA68536861F355530C
S2140038B053607B681B681846174B984703461946A3
S2140038C0FA68536861F314535360FB6803F1080009
S2140038D03B6899683B681B7B1A46104B98477B6889
S2140038E01C687B681B681846074B984702460123EE
S2140038F09340194620460A4B98470023184614372B
S214003900BD4690BDFB2F000025300000000400429D
S214003910701C00202B3100005B310000E52D0100FB
S214003920F133000080B584B000AF78600B46FB70C2
S2140039301346BB70FB78002B07D17B681B68BA78F0
S21400394011461846154B984723E0FB78012B0ED1FD
S2140039507B681B68BA7811461846114B98477B68F7
S2140039601B684FF0FF3118460E4B984711E0FB7866
S214003970022B0ED17B681B6840F2012118460A4BC9
S2140039809847F8607B681B68F9681846074B9847A5
S21400399000BF00BF1037BD4680BD00BFFD31000030
S2140039A0313200000F340000693200008F32000010
S2140039B080B487B000AFF8607B600B46FB7213469E
S2140039C0BB72FB689B69DA68FB7A9B0013447B61D9
S2140039D0FB689B691A69FB7ADB0013443B61BB7A80
S2140039E0002B23D17B68002B04D17B6900221A6050
S2140039F000233BE07B685A687B691A607B681B681B
S214003A009BB2C3F30A0399B27A69136861F31A4347
S214003A1013607A691368022161F39F7313607A69F1
S214003A201368012161F3DD6313601EE0BB7A012B8E
S214003A301BD17B68002B04D13B6900221A6000234F
S214003A4014E07B681A683B691A603A6913680121BA
S214003A5061F35F7313607B685A683B695A603A6922
S214003A605368022161F39F735360002318461C3786
S214003A70BD465DF8047B704790B583B000AF2C4B15
S214003A801B687B607B681B6818462A4B9847386023
S214003A903B6803F00103002B03D07B689B687868C3
S214003AA098473B6803F40073002B03D07B685B6881
S214003AB0786898473B6803F00073002B04D07B6857
S214003AC0DB680321786898473B6803F08073002B17
S214003AD004D07B68DB680021786898473B6803F46D
S214003AE00003002B0FD07B68DC687B681B681846D9
S214003AF0114B98470346002B01D0022300E0012318
S214003B0019467868A0473B6803F00803002B04D0EA
S214003B107B68DB680421786898477B681B6839688F
S214003B201846064B984700BF0C37BD4690BD00BFF1
S214003B30E00C0020E5310000952F0000C9310000A0
S214003B4080B483B000AF0346FB80B7F90630002B85
S214003B500CDB0949B7F906305B09FA8802F01F0248
S214003B60012000FA02F2403341F8232000BF0C3750
S214003B70BD465DF8047B704700E100E080B582B08A
S214003B8000AF0346FB71FB791BB21846024B984701
S214003B9000BF0837BD4680BD413B000080B483B0FF
S214003BA000AF03463960FB8013467B717B79043B8C
S214003BB0052B6BD801A252F823F000BF6B3C000027
S214003BC04B3C00002D3C00000F3C0000F13B000089
S214003BD0D53B0000FB883A683549A1FB0212920CDF
S214003BE002FB03F30233334AA2FB03235B0859E0CC
S214003BF0FB883A6852093049A1FB0212D20902FB3F
S214003C0003F31D332D4AA2FB03231B094AE0FB885E
S214003C103A682B49A1FB0212520B02FB03F303F294
S214003C202B13284AA2FB03235B093BE0FB883A6878
S214003C302549A1FB0212920902FB03F303F6B733F0
S214003C40224AA2FB03239B092CE0FB883A68204902
S214003C50A1FB0212520902FB03F303F5EA432F33DA
S214003C601C4AA2FB03235B0B1CE0FB883A681A493C
S214003C70A1FB0212D20802FB03F303F5922303F220
S214003C80DF33164AA2FB03235B0C0BE0FB883A6883
S214003C9002FB03F303F5371303F2BF63104AA2FBDC
S214003CA003239B0C18460C37BD465DF8047B704713
S214003CB083DE1B43ABAAAAAAC55A7C0A89888888D1
S214003CC05917B7D1B5814E1BD34D6210F119760541
S214003CD01F85EB5173B2E745CDCCCCCC851DD96F93
S214003CE0819F5E1680B582B000AF0346FB80FB88DE
S214003CF0092204491846044B9847034618460837D5
S214003D00BD4680BD000E27079D3B000080B483B0F3
S214003D1000AF03463960FB8013467B717B79043B1A
S214003D20052B70D801A252F823F000BFE93D000031
S214003D30CD3D0000B13D00008D3D0000693D000016
S214003D40453D0000FB883A683749A1FB0212920CF9
S214003D5002FB03F30233354AA2FB03235B084FF44E
S214003D607A7202FB03F358E0FB883A68520930493E
S214003D70A1FB0212D20902FB03F302332B4AA2FB79
S214003D8003235B08642202FB03F346E0FB883A68E1
S214003D902849A1FB0212520B02FB03F30233234A0B
S214003DA0A2FB03235A0813469B0013445B0034E02F
S214003DB0FB883A682049A1FB0212920902FB03F332
S214003DC002331A4AA2FB03235B0826E0FB883A6804
S214003DD01A49A1FB0212520902FB03F31D33184ACB
S214003DE0A2FB03231B0918E0FB883A681549A1FBD0
S214003DF00212D20802FB03F303F22B13124AA2FBB1
S214003E0003235B0909E0FB883A6802FB03F303F629
S214003E10B7330E4AA2FB03239B0918460C37BD4650
S214003E205DF8047B704700BF83DE1B43ABAAAAAADB
S214003E30C55A7C0A5917B7D1D34D62101F85EB516E
S214003E4089888888CDCCCCCCB5814E1BF1197605F7
S214003E5080B582B000AF0346FB80FB880922044988
S214003E601846044B9847034618460837BD4680BD9B
S214003E70000E27070D3D000080B483B000AF7860C9
S214003E80396000BFAFF300800139FDD800BF0C37A2
S214003E90BD465DF8047B704780B483B000AF7860A1
S214003EA00B467B807B681B889AB27B881B029BB282
S214003EB003F470639BB213439AB27B681A8000BF08
S214003EC00C37BD465DF8047B704780B485B000AF04
S214003ED0F8600B467A60FB72FB7AFA7AF968D201D0
S214003EE00A442C3211687A680A43F968DB010B44ED
S214003EF02C331A6000BF1437BD465DF8047B70474C
S214003F0080B500AF002200210A480B4B98470022DC
S214003F1001210848084B98474EF6EF7202210548E3
S214003F20054B9847002203210248034B984700BFE1
S214003F3080BD00BF00800041CB3E000080B500AFD2
S214003F4004210B480B4B98470B4B98470B4B984755
S214003F500B4B98474FF484600A4B98470A4B984798
S214003F6040F6DF30074B9847084B984700BF80BDA8
S214003F7000400041993E0000754900003D4E00009B
S214003F8095480000554700007D4E0000013F0000A8
S214003F9080B483B000AF786039607B683A681A6096
S214003FA0002318460C37BD465DF8047B70470000BA
S214003FB080B483B000AF0346FB80B7F90630002B11
S214003FC00BDB0949B7F906305B09FA8802F01F02D5
S214003FD0012000FA02F241F8232000BF0C37BD464C
S214003FE05DF8047B704700BF00E100E080B483B05A
S214003FF000AF0346FB80B7F90630002B10DB0B49F9
S214004000B7F906305B09FA8802F01F02012000FAB1
S21400401002F2203341F82320BFF34F8FBFF36F8F98
S21400402000BF0C37BD465DF8047B704700E100E03A
S21400403080B483B000AF0346FB80B7F90630002B90
S2140040400CDB0949B7F906305B09FA8802F01F0253
S214004050012000FA02F2603341F8232000BF0C373B
S214004060BD465DF8047B704700E100E080B483B095
S21400407000AF7860396000BF7B685A683B681340C1
S214004080002BF9D100BF0C37BD465DF8047B7047A6
S21400409080B483B000AF786039607B685A683B684C
S2140040A01340002B14BF01230023DBB218460C3745
S2140040B0BD465DF8047B704780B483B000AF78607F
S2140040C07B685B6918460C37BD465DF8047B704715
S2140040D080B483B000AF786039607B683A685A6114
S2140040E000BF0C37BD465DF8047B704780B582B0D4
S2140040F000AF78607B681B78DBB243F00203DAB26D
S2140041007B681A7003217868024B984700BF08370F
S214004110BD4680BD6D40000080B582B000AF7860BF
S2140041207B681B78DBB223F00203DAB27B681A7076
S21400413003217868024B984700BF0837BD4680BD0C
S2140041406D40000080B584B000AF78600B46FB7011
S2140041507B681B78FB73FB7B23F01003FB73FB78F9
S2140041601B015AB297F90F3013435BB2FB737B689F
S214004170FA7B1A7003217868024B984700BF103705
S214004180BD4680BD6D40000080B584B000AF78604D
S2140041900B46FB7003217868064B98477B681B78B4
S2140041A0FB73FA7BFB781340FB73FB7B18461037D8
S2140041B0BD4680BD6D40000080B582B000AF78601F
S2140041C00B46FB707B68FA781A7003217868034BFD
S2140041D0984700BF0837BD4680BD00BF6D40000051
S2140041E080B483B000AF78600B46FB707B68FA78CB
S2140041F05A7000BF0C37BD465DF8047B704780B42C
S21400420083B000AF786039607B683A689A6000BF18
S2140042100C37BD465DF8047B704780B483B000AFB2
S214004220786039607B683A689A6100BF0C37BD4693
S2140042305DF8047B704780B485B000AFF8600B462D
S2140042407A60FB72FB7AFA6806339B0013447A683E
S2140042505A6000BF1437BD465DF8047B704780B4D3
S21400426083B000AF786039607B683A681A6300BF35
S2140042700C37BD465DF8047B704780B483B000AF52
S214004280786039607B683A685A6300BF0C37BD4671
S2140042905DF8047B7047000080B582B000AF7860A0
S2140042A001214F484F4B9847034683F00103DBB28A
S2140042B0002B11D002214A484B4B98470346002B4F
S2140042C006D04748494B984702214548484B9847EF
S2140042D001214348474B984701214148444B9847A2
S2140042E000213F48444B984700213D48434B9847A0
S2140042F000213B48424B984740F2BB313848414B7F
S214004300984740F23B3136483F4B984700213448A7
S2140043103E4B98473E4A002131483E4B9847112273
S21400432001212F483B4B98472D483B4B98470C2084
S2140043303A4B98470C203A4B98470C20394B9847F5
S2140043400D20364B98470D20354B98470D20354BA2
S21400435098470F20314B98470F20314B98470F2036
S214004360304B984710202D4B984710202C4B9847E1
S21400437010202C4B98471120284B98471120284B8B
S21400438098471120274B98471220244B9847122015
S214004390234B98471220234B984713201F4B9847D0
S2140043A013201F4B984713201E4B984714201B4B77
S2140043B0984714201A4B984714201A4B98471520F4
S2140043C0164B98471520164B98471520154B9847BF
S2140043D0154A7B681360002318460837BD4680BD23
S2140043E0002800409140000089410000194100006B
S2140043F06D400000B941000045410000E141000069
S214004400FF4100001B4200005F4200007B420000AC
S2140044101390999037420000ED400000ED3F0000F9
S21400442031400000B13F0000E40C002080B584B0AD
S21400443000AF4148414B984703463B604FF0FF337F
S214004440BB603B6819463C483D4B98473D4B1B6854
S214004450002B14BF01230023DBB24FF484723A49C9
S21400446018463A4B984760E03B681846384B9847E2
S2140044700346DBB2013BDBB2FB7347E00023FB7174
S2140044800923BB7124E0BA79FB7913445B107B7176
S2140044907B79304A12F833301A4697F90F309A4231
S2140044A006D17B792B4ADB0013445B68BB6013E0C4
S2140044B07B79284A12F833301A4697F90F309A4219
S2140044C003DA7B790133FB7102E07B79013BBB7138
S2140044D0BA79FB799A42D6D2BB68B3F1FF3F03D0D4
S2140044E0184B1B68B868984797F90F30012202FAF4
S2140044F003F3DA433B6813403B603B681846144BB3
S21400450098470346DBB2013BDBB2FB7397F90F30EB
S214004510B3F1FF3FB2D10848084B984703463B60CB
S2140045203B6819460448064B98473B68002B9BD1CE
S21400453000BF1037BD4680BD00280040B9400000CF
S214004540D1400000E40C00205C3201004D2D00003C
S214004550792D01001432010080B500AF014B984759
S21400456000BF80BD2D44000080B500AF014B9847CA
S21400457000BF80BD2D44000080B500AF014B9847BA
S21400458000BF80BD2D44000080B500AF014B9847AA
S21400459000BF80BD2D44000080B500AF014B98479A
S2140045A000BF80BD2D44000080B500AF014B98478A
S2140045B000BF80BD2D44000080B500AF014B98477A
S2140045C000BF80BD2D44000080B500AF014B98476A
S2140045D000BF80BD2D44000080B500AF014B98475A
S2140045E000BF80BD2D44000080B485B000AFF860E9
S2140045F00B467A60FB72FA7AFB684832796843F8B1
S214004600221000BF1437BD465DF8047B704780B4A7
S21400461083B000AF78600B46FB701346BB70FB7828
S2140046207A680433DB001344BA785A71FB78BA7898
S214004630D243D1B27A680433DB0013440A461A71B7
S21400464000BF0C37BD465DF8047B704780B485B06C
S21400465000AFF8600B467A60FB72FA7AFB680432A9
S214004660796843F8321000BF1437BD465DF8047B06
S2140046707047000080B582B000AF0023FB710BE0EE
S214004680FB79184AD35C1A46FB7919461648174B2D
S2140046909847FB790133FB71FB79422BF0D9002355
S2140046A0FB7116E0FB79124A32F813301A46FB7992
S2140046B019460D480F4B9847FB790F4A52F823309E
S2140046C0DAB2FB79194608480C4B9847FB79013358
S2140046D0FB71FB791F2BE5D9002318460837BD462A
S2140046E080BD00BF7432010000E00041E9450000D3
S2140046F0B83201004D460000F83201000F460000B7
S21400470080B483B000AF7860396000BF7B685A68B9
S2140047103B681340002BF9D100BF0C37BD465DF84F
S214004720047B704780B584B000AFF8600B467A60B3
S214004730FB72FA7AFB680832796843F8221043F66F
S214004740FD71F868024B984700BF1037BD4680BD24
S2140047500147000080B582B000AF78607B6803F048
S2140047600103002B04D0364A00213648364B9847C2
S2140047707B6803F00203002B04D0344A0121314841
S214004780314B98477B6803F00403002B04D0304A73
S21400479002212C482C4B98477B6803F00803002B1B
S2140047A004D02C4A03212748274B98477B6803F000
S2140047B01003002B04D0284A04212248224B984795
S2140047C07B6803F02003002B04D0244A05211D48F3
S2140047D01D4B98477B6803F04003002B04D0204A0B
S2140047E006211848184B98477B6803F08003002B77
S2140047F004D01C4A07211348134B98477B6803F4E0
S2140048008073002B04D0184A08210E480E4B984798
S2140048107B6803F48063002B04D0144A0A210948FD
S214004820094B98477B6803F40063002B04D0104ABA
S2140048300B210448044B984700BF0837BD4680BD8F
S21400484007010100001C0040254700000709010081
S21400485006090100080902000109010001290600F5
S21400486001290C0008290800012903000509010098
S2140048700519040080B483B000AF78600B46FB7067
S2140048807B68FA785A7100BF0C37BD465DF8047B2A
S2140048907047000080B582B000AF054B7B600121F9
S2140048A07868044B984700BF0837BD4680BD00BFF8
S2140048B0000800407548000080B483B000AF786000
S2140048C00B46FB707B68FA781A7400BF0C37BD463F
S2140048D05DF8047B704780B483B000AF78600B4609
S2140048E07B807B687A889A8200BF0C37BD465DF86D
S2140048F0047B704780B483B000AF78600B46FB70D3
S2140049007B68FA789A7500BF0C37BD465DF8047B65
S214004910704780B483B000AF78600B46FB707B684E
S214004920FA78DA7500BF0C37BD465DF8047B704731
S21400493080B485B000AF78607B68DB69FB60FB689D
S2140049401B0A03F03F03FB60FB6818461437BD469E
S2140049505DF8047B704780B483B000AF7860396040
S2140049607B683A68DA6100BF0C37BD465DF8047BA9
S2140049707047000080B582B000AF134B7B60002309
S2140049807B8042F28E017868104B98470021786849
S2140049900F4B9847002178680E4B984778680E4B67
S2140049A0984703467B807B881B0203F47C5319469A
S2140049B078680A4B984700217868094B984700BFEB
S2140049C00837BD4680BD00BF00140040D748000031
S2140049D0F54800001349000031490000574900001F
S2140049E0B948000080B483B000AF7860396000BF7B
S2140049F07B685A683B681340002BF9D100BF0C3720
S214004A00BD465DF8047B704780B483B000AF786025
S214004A107B685B689B0803F00103002B14BF01232F
S214004A200023DBB218460C37BD465DF8047B7047A2
S214004A3080B483B000AF78607B685B6818460C373C
S214004A40BD465DF8047B704780B586B000AFF86061
S214004A500B467A60FB72FA7AFB68083253F822300B
S214004A607B617B6923F00F037B617B6803F00F0398
S214004A707A6913437B61FA7AFB680832796943F8EE
S214004A80221043F6FD71F868024B984700BF1837AE
S214004A90BD4680BDE549000080B485B000AFF86033
S214004AA00B467A60FB72FA7AFB682032796843F824
S214004AB0221000BF1437BD465DF8047B704780B4F3
S214004AC085B000AFF8600B467A60FB7200BFFA7ADA
S214004AD0F96813469B0013449B000B443C331A684A
S214004AE07B681340002BF2D100BF1437BD465DF83B
S214004AF0047B704780B483B000AF78600B46FB70D1
S214004B00FA78796813469B0013449B000B444033A5
S214004B101B6803F00103002B14BF01230023DBB244
S214004B2018460C37BD465DF8047B704780B483B0EA
S214004B3000AF78600B46FB70FA78796813469B00E6
S214004B4013449B000B4440331B685B0803F00103CF
S214004B50002B14BF01230023DBB218460C37BD46DA
S214004B605DF8047B7047000080B582B000AF7860C7
S214004B700B46FB701346BB70FA78796813469B00A9
S214004B8013449B000B443033BA781A70FB78022229
S214004B9019467868024B984700BF0837BD4680BD67
S214004BA0BF4A000080B584B000AFF8600B467A605C
S214004BB0FB72FA7AF96813469B0013449B000B4479
S214004BC034337A681A60FB7A06221946F868034B73
S214004BD0984700BF1037BD4680BD00BFBF4A0000E3
S214004BE080B485B000AFF8600B467A60FB72FA7A44
S214004BF0F96813469B0013449B000B4438337A68CD
S214004C001A6000BF1437BD465DF8047B704780B459
S214004C1083B000AF78607B681B695B0803F0010314
S214004C20002B14BF01230023DBB218460C37BD4609
S214004C305DF8047B704780B483B000AF78607B6813
S214004C401B691B0A03F00103002B14BF012300237A
S214004C50DBB218460C37BD465DF8047B704780B45F
S214004C6085B000AF786039607B681B69FB60FA68C6
S214004C703B681340FB60FB6818461437BD465DF87A
S214004C80047B704780B485B000AFF8600B467A604E
S214004C90FB72FB7AFA6804339B0013447A685A6006
S214004CA000BF1437BD465DF8047B704780B483B000
S214004CB000AF78600B46FB707B68FA781A7700BF07
S214004CC00C37BD465DF8047B704780B485B000AFF6
S214004CD078607B6893F82030FB73FB7B03F001035E
S214004CE0FB73FB7B002B14BF01230023DBB21846AB
S214004CF01437BD465DF8047B704780B483B000AFC0
S214004D0078600B46FB707B68FA7883F8202000BF3B
S214004D100C37BD465DF8047B704780B483B000AFA7
S214004D20786039607B683A685A6200BF0C37BD46C7
S214004D305DF8047B704780B483B000AF78607B6812
S214004D405B6A18460C37BD465DF8047B704780B436
S214004D5083B000AF786039607B683A689A6200BFBB
S214004D600C37BD465DF8047B704780B485B000AF55
S214004D7078607B6893F82C30FB73FB7B5B08DBB2B8
S214004D8003F00103FB73FB7B002B14BF01230023FE
S214004D90DBB218461437BD465DF8047B704780B416
S214004DA085B000AF78607B6893F82C30FB73FB7B94
S214004DB09B08DBB203F00103FB73FB7B002B14BFE5
S214004DC001230023DBB218461437BD465DF8047B8A
S214004DD0704780B485B000AF78607B6893F82C305D
S214004DE0FB73FB7BDB08DBB203F00103FB73FB7B8F
S214004DF0002B14BF01230023DBB218461437BD4630
S214004E005DF8047B704780B485B000AF78607B683F
S214004E1093F82C30FB73FB7B1B09DBB203F001031A
S214004E20FB73FB7B002B14BF01230023DBB2184669
S214004E301437BD465DF8047B7047000080B582B02D
S214004E4000AF0A4B7B600A4A01217868094B9847F5
S214004E5000BF7868084B9847034683F00103DBB22F
S214004E60002BF6D100BF0837BD4680BD00100040BD
S214004E7046260003854C00000F4C000080B584B029
S214004E8000AF6B4BFB60042200216A486A4B9847D0
S214004E9000BF6848694B98470346002BF9D10021AC
S214004EA0F868674B98476749F868674B984700BFAC
S214004EB0F868664B98470346002BF9D10021F8683E
S214004EC0634B984700BFF868624B98470346002B31
S214004ED0F9D10223FB72FB7A1946F868584B9847BB
S214004EE000BFF8685C4B98470346002BF9D1F8687A
S214004EF05A4B984703461946F868594B984700BFDF
S214004F00F868584B98470346002BF9D11923FB72D3
S214004F10FB7A1946F8684E4B984700BFF8684D4B29
S214004F2098470346002BF9D14522012141484E4BB4
S214004F3098473B220021F8684C4B98474FF4016293
S214004F400021F8684A4B984742220021F868494BEE
S214004F509847494A0121F868444B98474FF4036242
S214004F600121F868424B984702220121F868414B1C
S214004F709847F868414B98470346002B0CD04FF4EF
S214004F8010637B6000BF7968F8683D4B984702461F
S214004F907B689A42F7D109E000BFF868394B98471A
S214004FA0034683F00103DBB2002BF6D100BF0021DD
S214004FB0F868354B9847034683F00103DBB2002BB5
S214004FC009D00021F868314B9847034683F0010367
S214004FD0DBB2002BEBD100BF0121F8682A4B9847C3
S214004FE0034683F00103DBB2002B09D00121F868E9
S214004FF0264B9847034683F00103DBB2002BEBD128
S21400500000BF0C48224B98470346002BF9D10722D5
S21400501000210848084B984700BF0648074B9847AA
S2140050200346002BF9D100BF1037BD4680BD00BF38
S21400503000100040001C0040494A0000094A0000D9
S214005040AD4C000080BB01044F4D0000074E000031
S214005050FB4C00009F4D00006B4D0000374D0000DC
S2140050601B4D0000D34D0000994A0000A54B0000E0
S214005070E14B0000694B0000A0070400CB4C000089
S2140050805F4C0000374C0000F54A00002D4B000036
S214005090314A000080B483B000AF78607B68DB697B
S2140050A09B0A03F00103002B14BF01230023DBB28D
S2140050B018460C37BD465DF8047B704780B483B055
S2140050C000AF78607B684FF48062DA6100BF0C370F
S2140050D0BD465DF8047B704780B483B000AF78604F
S2140050E039607B683A681A6000BF0C37BD465DF8C9
S2140050F0047B704780B483B000AF786039607B680B
S2140051003A685A6000BF0C37BD465DF8047B7047AE
S21400511080B483B000AF786039607B683A689A6084
S21400512000BF0C37BD465DF8047B704780B483B083
S21400513000AF786039607B683A681A6300BF0C3746
S214005140BD465DF8047B704780B485B000AF7860DC
S21400515039607B685B6BFB60FB6823F0FF03FB60DA
S2140051603B68DBB2FA681343FB607B68FA685A63F5
S21400517000BF1437BD465DF8047B704780B485B029
S21400518000AF786039607B685B6BFB60FB6823F47C
S2140051907F03FB603B681B0403F47F03FA6813433A
S2140051A0FB607B68FA685A6300BF1437BD465DF83B
S2140051B0047B704780B483B000AF786039607B684A
S2140051C03A689A6300BF0C37BD465DF8047B7047AB
S2140051D080B483B000AF78607B689B6B18460C3752
S2140051E0BD465DF8047B704780B485B000AFF860BC
S2140051F0B9607A6007E0FB685A1CFA60BA68511C0E
S214005200B96012781A707B685A1E7A60002BF2D149
S21400521000BF1437BD465DF8047B704780B582B08A
S21400522000AF786003497868034B984700BF08379B
S214005230BD4680BD02000001D950000080B582B096
S21400524000AF786039607B68002B04D03B68002B89
S21400525001D0012300E0002303F00103DBB240226B
S2140052600C4918460C4B98477B683A681A607B686E
S2140052701B6801211846094B984709493868094BAD
S214005280984709493868094B984700231846083755
S214005290BD4680BD783301004D2D0000D95000007A
S2140052A011000006F5500000001324001151000004
S2140052B080B582B000AF78607B681B680221184614
S2140052C0034B9847002318460837BD4680BD00BFED
S2140052D0D950000080B582B000AF78607B681B684C
S2140052E000211846034B9847002318460837BD464A
S2140052F080BD00BFD950000080B584B000AF786094
S21400530039607B681B68FB603B681B7803F02003F2
S214005310DBB2002B05D03B689B681946F868134B38
S21400532098473B681B7803F01003DBB2002B05D0D0
S2140053303B681B791946F8680D4B98473B681B7805
S21400534003F04003DBB2002B05D03B685B791946BF
S214005350F868084B98473B681B681946F868064B80
S214005360984700BF1037BD4680BD00BF2D510000D6
S214005370495100007D510000B551000080B584B051
S21400538000AF786039607B681B68BB604FF0806355
S214005390FB603B681B7803F02003DBB2002B04D0D5
S2140053A03B689B68FA681344FB60B868184B9847DC
S2140053B03B681B69002B03D13B685B69002B01D05F
S2140053C0012300E0002303F00103DBB2822211492F
S2140053D01846114B98473B681B69002B08D03B6862
S2140053E019693B68DB681A46F8680C4B984707E073
S2140053F03B6858693B68DB681A46F968074B98476C
S214005400BFF34F8FBFF36F8F00BF1037BD4680BD11
S214005410D1510000783301004D2D0000E951000005
S21400542080B582B000AF7860396039687868144B10
S21400543098473B681B7823F07F03DBB2002B03D032
S214005440396878680F4B98477B681B6818460E4B80
S214005450984700BF7B681B6818460C4B9847034666
S21400546083F00103DBB2002BF4D17B681B6818467F
S214005470074B9847002318460837BD4680BD00BF37
S214005480F95200007D5300001D52000095500000A8
S214005490BD50000080B483B000AF7860396000BFB4
S2140054A07B681A693B681340002BF9D100BF0C37A4
S2140054B0BD465DF8047B704780B483B000AF78606B
S2140054C07B684FF480729A8100BF0C37BD465DF84A
S2140054D0047B704780B483B000AF78607B684FF47D
S2140054E080429A8100BF0C37BD465DF8047B70474A
S2140054F080B483B000AF78607B689B899BB2184607
S2140055000C37BD465DF8047B704780B483B000AFAF
S21400551078607B685B899BB218460C37BD465DF8A1
S214005520047B704780B582B000AF78607B681B88CC
S2140055309BB243F001039AB27B681A800121786817
S214005540024B984700BF0837BD4680BD9554000003
S21400555080B584B000AF786048F2030178680A4BE3
S21400556098477B681B88FB81FB895B089BB203F02E
S2140055700103FB81FB89002B14BF01230023DBB250
S21400558018461037BD4680BD9554000080B582B0E1
S21400559000AF78607B681B889BB223F002039AB248
S2140055A07B681A8048F203017868034B984700BF6F
S2140055B00837BD4680BD00BF9554000080B582B058
S2140055C000AF78600B467B807B687A881A8048F24A
S2140055D003017868024B984700BF0837BD4680BD78
S2140055E09554000080B483B000AF786039607B6863
S2140055F03A681A6600BF0C37BD465DF8047B7047F4
S21400560080B582B000AF78607B68002B05D07B68E1
S2140056101B68002B01D0012300E0002303F00103E8
S214005620DBB22F221B4918461B4B98471B4A7B6848
S21400563013607B681B681846194B98470346002B77
S2140056400AD07B681B681846164B98477B681B6811
S21400565002211846144B98477B681B681846134B64
S21400566098477B681B68012118460F4B98477B6854
S2140056701B684FF40B4118460D4B98477B681B6818
S214005680002118460B4B9847002318460837BD469E
S21400569080BD00BF903301004D2D0000E80C0020B7
S2140056A0515500008D55000095540000255500000A
S2140056B0BD550000E555000080B584B000AF7860A9
S2140056C07B681B681846194B98470346FB817B6826
S2140056D01B681846164B98470346BB81FA89BB8958
S2140056E013409BB203F48073002B09D07B685B6881
S2140056F0786898477B681B6818460E4B984710E0FA
S214005700FA89BB8913409BB203F48043002B08D070
S2140057107B689B68786898477B681B681846064BCA
S214005720984700BF1037BD4680BD00BFF15400004B
S2140057300B550000B9540000D554000080B500AFEA
S214005740034B1B681846034B984700BF80BD00BF3D
S214005750E80C0020B956000080B483B000AF786033
S214005760396000BF7B68DA693B681340002BF9D1CB
S21400577000BF0C37BD465DF8047B704780B483B02D
S21400578000AF786039607B68DA693B681340002BAD
S21400579014BF01230023DBB218460C37BD465DF864
S2140057A0047B704780B483B000AF7860396000BF78
S2140057B07B68DA693B681340002BF9D100BF0C37D1
S2140057C0BD465DF8047B704780B483B000AF786058
S2140057D039607B68DA693B681340002B14BF0123ED
S2140057E00023DBB218460C37BD465DF8047B7047D5
S2140057F080B483B000AF78607B6801221A7600BF61
S2140058000C37BD465DF8047B704780B483B000AFAC
S21400581078607B6802221A7600BF0C37BD465DF8BA
S214005820047B704780B483B000AF78607B681B7ED3
S214005830DBB218460C37BD465DF8047B704780B473
S21400584085B000AF78600B46FB707B681B7EFB73F1
S214005850FA7BFB781340FB73FB7B18461437BD4678
S2140058605DF8047B704780B483B000AF78607B68D7
S2140058701B7EDBB218460C37BD465DF8047B7047CE
S21400588080B483B000AF78600B46FB707B68FA7814
S2140058901A7600BF0C37BD465DF8047B70470000E3
S2140058A080B582B000AF78607B681B6823F0020288
S2140058B07B681A6003217868024B984700BF083758
S2140058C0BD4680BD5957000080B485B000AF7860F3
