S01200005553425F4472697665722E737265635D
S113000098020120E1020000DD020000DD02000090
S1130010DD020000DD020000DD020000000000003F
S1130020000000000000000000000000DD020000ED
S1130030DD02000000000000DD020000DD0200001F
S1130040DD020000DD020000DD020000DD02000030
S1130050DD020000DD020000DD020000DD02000020
S1130060DD020000DD020000DD020000DD02000010
S1130070DD020000DD020000DD020000DD02000000
S1130080DD020000DD020000DD020000DD020000F0
S1130090DD020000DD020000DD020000DD020000E0
S11300A0DD020000DD020000DD020000DD020000D0
S11300B0DD020000DD020000DD020000DD020000C0
S11300C0DD020000DD020000DD020000DD020000B0
S11300D0DD020000DD020000DD020000DD020000A0
S11300E0DD020000DD02000000000000000000004E
S11300F000000000FD070000DD020000DD0200003A
S1130100DD020000DD020000DD020000DD0200006F
S1130110DD020000DD020000DD020000DD0200005F
S1130120DD020000DD020000DD020000DD0200004F
S1130130DD020000DD020000DD020000DD0200003F
S1130140DD020000DD020000DD020000DD0200002F
S1130150DD020000DD020000DD020000DD0200001F
S1130160DD020000DD020000DD020000DD0200000F
S1130170DD020000DD020000DD020000DD020000FF
S11301807D1500008915000095150000A1150000DB
S1130190DD020000DD020000DD020000DD020000DF
S11301A0DD020000DD020000DD020000DD020000CF
S11301B0DD020000DD020000DD020000DD020000BF
S11301C0DD020000DD020000DD020000DD020000AF
S11301D0DD020000DD020000DD020000DD0200009F
S11301E0DD020000DD020000DD020000DD0200008F
S11301F0DD020000DD020000DD020000DD0200007F
S1130200DD020000DD020000DD020000DD0200006E
S1130210DD020000DD020000DD020000DD0200005E
S1130220DD020000DD020000DD020000DD0200004E
S1130230DD020000DD020000DD020000DD0200003E
S1130240DD020000DD020000DD020000DD0200002E
S1130250DD020000DD020000DD020000DD0200001E
S1130260DD02000010B5054C237833B9044B13B1FB
S11302700448AFF300800123237010BD0000002068
S113028000000000481600000C4B43B10C480D4917
S113029010B5AFF300800C48036823B910BD0A48B9
S11302A0036833B97047094B002BF7D0BDE8104001
S11302B01847064B002BF5D0184700BF000000007C
S11302C0481600000400002048160000000000004A
S11302D008B5014B984708BD55040000FEE700002F
S11302E008B51C4B1C4A9A4210D01C4B194A9A421E
S11302F00CD2013B9B1A23F0030304331344164925
S113030051F8040B42F8040B9A42F9D1144B154AE4
S11303109A420AD2013B9B1A23F003030433134489
S1130320002142F8041B9342FBD10F4B0F4A22F0E9
S11303307F029A60D3F8882042F47002C3F88820C0
S1130340BFF34F8FBFF36F8F094B9847094B984703
S1130350FEE700BF00000020481600000000002057
S1130360980200200000002000ED00E000000000E2
S1130370B9150000AD15000008B50248024B9847B6
S113038008BD00BF10E000E08D0400001E4B4FF0DC
S113039080729A604FF0804199621C4898625A6159
S11303A093F8582002F0FB0283F8582093F8582061
S11303B002F0FE0242F0010283F8582093F83C2038
S11303C002F0F00242F0070283F83C204FF0007282
S11303D09A6099620E4999625A6193F8592002F021
S11303E0FB0283F8592093F8592002F0FE0242F0F0
S11303F0010283F8592093F83C2002F00F0242F0E6
S1130400700283F83C20704700800041000100C066
S1130410000200C04022074BC3F8A820A3F5A05354
S11304201A6942F480621A619A6942F001029A617F
S1130430704700BF001C004008B5034B9847034BAE
S11304409847034B984708BD15040000F5060000C3
S11304508D03000008B5034B9847034B9847034BA3
S1130460984708BD5D0700007903000039040000C7
S1130470EFF31083036072B6BFF35F8F7047BFF36F
S11304805F8F036883F310887047000008B5024B40
S11304901860024B984708BD1C000020410800006A
S11304A00F4B5978884218D030B41A46002300F014
S11304B00F0507E001335BB2042B09D020325178D9
S11304C0814207D01478002CF4D18D42F2D101E09E
S11304D04FF0FF33184630BC70470023184670476E
S11304E0200000200020704738B504460D46094B13
S11304F09847094B03EB40139B78032B01D0002052
S113050038BD054B03EB40108369294620469847C4
S113051038BD00BFA104000020000020F0B585B064
S113052006460D4617464D4B98470446002D5BD1B1
S11305304B4A4301D1180020C870D35C73B1484BB7
S113054003EB441301229A70454800EB4410C3693D
S11305503A46C1783046984705B0F0BD8B78032BF6
S11305600BD03F4800EB44121446D3690C320021EF
S1130570607898470223A370EEE70B4691F90C507C
S11305800A46CE690C3201215878B047A0B1344BE9
S113059003EB441305229A700222DA70002D09DB62
S11305A02F4800EB4410407840F0800001212D4B8F
S11305B09847D1E75878F9E7294800EB4410042319
S11305C0837043780022019202929542ACBF43F0BB
S11305D0800303F00F038DF80C3001238DF80D30E8
S11305E001A8214B9847B7E7012D0AD0022D1CD052
S11305F0032D2AD01A4B03EB401306229A70DA70AB
S1130600A2E7174A4301D1180220C870D35C2BB16A
S1130610134B03EB441305229A7095E70B4698702D
S1130620002130460F4B98478EE70D4A4301D118FD
S11306300420C870D35C2BB1094B03EB4413012293
S11306409A7081E702238B7086E7054B03EB401316
S113065000229A700522DA7076E700BFA104000038
S113066020000020C51100006D1300002DE9F041A9
S113067005461C4B984706461B4C04EB40140C34AF
S113068021462846194B9847C0B2082809D00121B1
S11306902846174CA047012145F08000A047BDE83B
S11306A0F08100212846124FB84745F08008002108
S11306B04046B8470C4B03EB461301229A705B6922
S11306C021462846984708B1BDE8F081064B03EB64
S11306D046160523B37001212846B8470121404638
S11306E0B847F1E7A1040000200000200D1300002A
S11306F0C511000010B5114B984700281CDB104CA5
S11307008022002120460F4B9847234604F18000A5
S1130710FF210D4A59705A619A61DA61203383428C
S1130720F8D10A4900200A4CA0470A490120A047F1
S113073009490220A047002010BD00BFC9100000D5
S11307402000002017160000E50400006D060000DC
S11307504D150000E90400001D05000008B5084A15
S113076013889BB21380074B9847074B9847074B56
S11307709847074B984740F6FF70064B984708BDCB
S113078000400041C9070000DD070000BD0700006C
S1130790F90700009907000010F0010F08D0054A7E
S11307A0054B1A62194643F6FD724B681342FCD19D
S11307B0704700BF01010100001C00400122014BF1
S11307C05A71704700080040034BDA6902F47C5206
S11307D0DA6101221A74704700140040044A054B80
S11307E09A611A46136913F0020FFBD0704700BFD9
S11307F006260003001000407047000000B583B0D7
S11308000D4B9B78DBB20193019B13F0020F06D0D2
S11308100A4B1B681BB1084A5068984709E0019BC2
S113082013F0010F05D0054B5B6813B1024A506801
S1130830984703B05DF804FB0000024188020020E1
S1130840034B6FF07F425A6005221A60704700BF65
S113085010E000E00020704738B5837C03F00F03FC
S1130860C27C02F0070101290BD05A0102F1824235
S1130870102182F807115B0103F1824383F8081108
S113088038BD12F0400F0CD0C27C6FF38612C274D4
S11308905A0102F18242802182F80411402182F837
S11308A00511C27C6FF3C302C27409495A018C1842
S11308B00025A572A57602F182436F2483F80741CF
S11308C002F1824282F808418B6E807C984738BDE1
S11308D0A000002008B5202303FA01F1C9B2837CEB
S11308E003F00F035B0103F1824383F80811034B08
S11308F01B6F82680121807C984708BDA0000020FE
S113090038B5847CFF2C03D0C37C13F0400F00D196
S113091038BDC27C6FF38612C274034A156F8268B5
S11309202046A847F4E700BFA000002030B583B0FC
S1130930837C25248DF804404A248DF80540FF2B40
S11309401ED0C47C14F0400F1AD003F00F04C9B1B8
S1130950630103F18243802583F804510B4602A905
S11309600B4413F8041C630103F1824383F8071159
S1130970630103F1824383F808111146054B98473C
S113098003B030BD630103F18243402583F8055170
S1130990E4E700BF0109000030B583B0837C03F0B5
S11309A00F0304228DF8042008228DF805205A0133
S11309B00C4691B302F1824191F80051C5F302153E
S11309C002EB0411324A0A44917AC9B2022D2CD0A6
S11309D011F0020F45D0C57C917A6FF341019172F9
S11309E002AA224412F8041C5A0102F1824282F83B
S11309F007115B0103F1824383F8081105F0070333
S1130A00012B43D1C37C13F0400F3FD0D9098C4252
S1130A103CD000221F4B984738E0590101F1824134
S1130A2091F8005105F00705CAE711F0010FCFD086
S1130A30917A6FF30001917202AA224412F8041C05
S1130A405A0102F1824282F807115B0103F18243E9
S1130A5083F808110422211C18BF01210D4B98476B
S1130A6014E004EB43010A4A02EB011200219172E3
S1130A7002AA144414F8041C5A0102F1824282F8B6
S1130A8007115B0103F1824383F8081103B030BD01
S1130A90A00000202D0900002DE9F0410C4D05F1C6
S1130AA0740405F594754FF003080A4FFF26414678
S1130AB02046B847A6740023E3741434AC42F6D13C
S1130AC0602219460248044B9847BDE8F08100BFF4
S1130AD0A000002001090000171600002DE9F041D4
S1130AE00546847C04F00F048846002900F09F80AA
S1130AF0584B03EB44135869C0F30D0E2B8A40F294
S1130B00FF32934200F08D80013B98B2EF7C07F0F6
S1130B100707B8F1000F05D0620102F182420223F7
S1130B2082F80731A9680EEB0103AB606E68B3422B
S1130B303FD2F61AB6B2EA7C12F0200F2DD02A8AE0
S1130B40964228BF1646296832461944E868424B43
S1130B509847EA683F4B03EB44131A613D4B03EBA0
S1130B6044135A6966F30D025A615A696FF39B3252
S1130B705A61B8F1000F08D1012F0CBF4E224A224E
S1130B80630103F1824383F80921640104F182447F
S1130B90802384F80531BDE8F081B6F5005F28BFF5
S1130BA04FF4005629680B442A4A02EB441213619D
S1130BB0D4E7EB7C13F0100F0FD0EB7C6FF304132E
S1130BC0EB74244B03EB44135A696FF30D025A611F
S1130BD05A696FF39B325A61CBE7012F4FEA4414F1
S1130BE004F182440CBF4B234A2384F808312A8A37
S1130BF000EA0E039A4205D000212846174B984775
S1130C00BDE8F081EB7C6FF38613EB74114BDB6E64
S1130C10A968A87C9847D0B9EB7C43F04003EB74F7
S1130C20EAE7EF7C07F0070740F2FF3074E7038A36
S1130C3040F2FF32934207D1EF7C07F007074FF0F1
S1130C40000E40F2FF306DE74FF0000E5CE7BDE8A8
S1130C50F08100BFA000002001160000010900007F
S1130C602DE9F84F0446857C05F00F0589460029D7
S1130C7056D0744B03EB45135A68C2F38D3A5F6840
S1130C80C7F30D07BB46068A40F2FF339E4200F0CD
S1130C90BA80013EB6B206EA0B0794F8138008F056
S1130CA00708B9F1000F05D06B0103F1824301225B
S1130CB083F80721E37C13F0200F0DD06268002A2B
S1130CC037D0A068121A92B22368BA4228BF3A46B3
S1130CD0E16818445C4B9847636853B3B9F1000F5B
S1130CE040D0228ABA423DD9E37C6FF30413E37403
S1130CF0A3685B44A360B8F1010F4FEA451303F105
S1130D0082430CBF2D22252283F8082115B9E268FD
S1130D104C4B1A60002120464C4B9847BDE8F88F95
S1130D20068A40F2FF339E427BD04FF0000BDA4636
S1130D30AFE7E37C13F0100F6CD0E37C03F0EF0318
S1130D4043F02003E374E0683E496A018B1888503D
S1130D50218A5A6861F39B325A605A686FF30D0214
S1130D605A601DE0A2685244A2609342C3D99B1A00
S1130D709BB2E17C11F0200F26D0228A934228BF37
S1130D801346E0686A012F4988502E4A02EB451247
S1130D90516863F39B31516053686FF30D035360E3
S1130DA0B9F1000F08D1B8F1010F25D025226B014C
S1130DB003F1824383F809216D0105F18245402343
S1130DC085F80431BDE8F88F218A8B420AD9B3F53E
S1130DD0005F0ED823EA060321680A446901194812
S1130DE04250D2E78B42F7D2E17C41F02001E1741A
S1130DF0F2E74FF40053EFE7124B03EB45130022E5
S1130E009A762D22D3E7C7F3090790F8138008F0E8
S1130E10070849E7B9F1000F0BD1A3685344A36055
S1130E2069E790F8138008F007080027BB46BA4624
S1130E3040E7238ABB423FF657AFA3685344A360FD
S1130E4059E700BFA00000200116000001090000BE
S1130E502DE9F8434FF082431E8CB6B246B1914D52
S1130E600024A5F17407DFF85892DFF85882D3E024
S1130E70998B1B8B9BB20B4013F0040F1DD113F401
S1130E80007F23D113F0800F47D113F0700F4FD19F
S1130E9013F0080F6ED113F0010FE0D04FF082432E
S1130EA040F201229A839A8270221A837E4B5B6EEF
S1130EB0002104209847BDE8F88304224FF08243C0
S1130EC09A83794B1B6E9847BDE8F8834FF08243B1
S1130ED040F201229A839A8270221A83724B1B89F0
S1130EE003F00F03032B0ED06F4B1B8D03F00F0386
S1130EF0032B08BF012207D000216B4B5B6E03203C
S1130F009847BDE8F8830022674B03EB4213198925
S1130F10C1F30A1100221A81EFE780224FF08243C5
S1130F209A83614B5B6E002105209847BDE8F883E6
S1130F304FF0824370229A839A8240F201221A83EC
S1130F405A4B93F8203013F0010F0DD0574A136910
S1130F5003F41063B3F5106FF9D1534B5B6E0021AA
S1130F6002209847BDE8F883504A136913F4807F40
S1130F70FBD0F2E74FF08243002483F800410822BB
S1130F809A8370229A8240F201221A83484B98472E
S1130F90454B5B6E214601209847BDE8F88311F06C
S1130FA0100F09D111F0400F08D111F0200F2FD0EC
S1130FB00021404B98472BE0C84729E001213D4BD5
S1130FC0984725E011F0400F11D111F0080F12D10C
S1130FD011F0020F12D103F00703012B18D111F005
S1130FE0040F0FD111F0100F12D0C84710E00121E7
S1130FF0304B98470CE00121C04709E001212E4BFA
S1131000984705E00021C04702E00021294B98479A
S113101001341435092C42D02846AB7CFF2BF7D081
S113102003F00F03012199403142F1D0590101F13C
S1131030824101F58071C9795B0103F1824393F820
S113104009311940E4D004EB840207EB820292F8E0
S1131050873003F04702012AA1D013F0800FB1D1E9
S113106011F0200FD1D111F0040F0ED111F0010FA6
S11310700ED103F00703012BCAD111F0080F0BD1D5
S113108011F0100FC4D0C847C2E70021C047BFE722
S113109001210A4B9847BBE70121C047B8E7BDE8E7
S11310A0F88300BF14010020A000002000100040BD
S11310B0990A0000D5080000DD0A0000610C000058
S11310C0590800009909000008B54FF082439B7845
S11310D013F0010F24D14FF08242937813F0030FE1
S11310E0FBD14FF082431B7813F0020F0FD04FF067
S11310F08242137803F0FD031370937813F0030F07
S1131100FBD14FF08242937813F0020FFBD10122FE
S11311104FF082431A701A46937813F0030FFBD1F1
S11311204FF08242937813F0010FFBD1214B224AF6
S11311301A665A669A66DA661A67204B9847204BF5
S11311401968C1F34413C1F3822211F01F012BD09B
S11311501F2908BF09214BB31F2B08BF19233AB31A
S1131160072A08BF062203F01F0343EA8113120370
S113117002F4E04213434FF082421385D37843F0E4
S11311800303D370D37843F00C03D3700423137098
S1131190937813F0030FFBD14FF08243054A5A6250
S11311A001221A81002008BD0921D4E71923D6E7BA
S11311B00622D8E7A000002055080000990A000084
S11311C08400800070B443B2DC0F10F00F0008D02C
S11311D0002BB4BF831C0346022803D96FF011000F
S11311E018E00023012917D000293AD003EB830328
S11311F0454A02EB830393F8863003F00F035B0147
S113120003F1824393F806211023A3401A4214BF2A
S11312100120002070BC70471025A540EDB23A496A
S11312209E00F21801EB820292F8862002F00F026F
S1131230500100F1824080F80551202000FA04F4A6
S1131240E4B2520102F1824282F80941334401EBD3
S1131250830393F8872042F0080283F88720002054
S1131260D8E703EB8302284901EB820292F8862037
S113127002F00F02510101F1824191F80651102050
S1131280A04005423CD0C0B281F804012020A04017
S1131290C5B281F8085191F80721024207D081F8BC
S11312A00751012202FA04F4E4B281F8044103EB89
S11312B08302154800EB820292F8872002F00702AD
S11312C0012A0CD003EB83030F4A02EB830393F848
S11312D087206FF3C30283F8872000209AE791F8F0
S11312E0062112F0300F0DD103EB830200EB8203D1
S11312F093F887206FF3C30283F88720002089E7DF
S1131300002087E7002085E7A000002030B400F02B
S11313100F046301144AD018D5584068C0F30D0077
S1131320022C17D8C9B103F1824393F80021D2B239
S1131330112A15D193F8072112F0100F02D10020C1
S113134030BC70472C686A680C604A60102283F8CD
S11313500721F5E76FF01100F2E76FF01100EFE7F6
S11313606FF01200ECE700BFA00000202DE9F04F61
S113137083B0037A5EB213F00F0300F0C280002E34
S1131380B4BF9A1C1A461446694901F16007551CFA
S113139005EB850507EB850702EB820201EB820270
S11313A0B2F8842040F2FF318A4225D0551EADB2F6
S11313B041680D40022B00F292800368B3F1005F94
S11313C01CD303EB010CDFF880E1F44516D813F0CD
S11313D0030F13D1002E2ADB8A4200F29C804DB306
S11313E004EB8403524A02EB8303D3F88030002BCE
S11313F07BD04FF000080CE01546D9E704EB8403DA
S11314004B4A02EB8303D3F88030002B6AD04FF0B1
S1131410010804EB8403464A02EB830393F8873004
S113142013F0080F09D0022003B0BDE8F08F4FF08D
S11314300008EEE74FF00008EBE7824601A83D4BB9
S1131440984704EB84033A4A02EB830393F887300A
S113145013F0400F3CD104EB8409354B03EB8909AD
S113146099F8873043F0400389F8873001A8324B5C
S11314709847DAF80030C9F87430DAF80430C9F85B
S113148078300023C9F87C30F20F99F8873062F382
S1131490C71368F3451389F887309AF80930E3B124
S11314A0B5FA85F56D0904EB8404214B03EB840440
S11314B094F8873065F3041384F88730002E4FF0D6
S11314C000013846B4BF1D4B1D4B98470020ABE7C5
S11314D001A8194B98470120A6E70025E3E76FF020
S11314E01100A1E76FF012009EE76FF011009BE777
S11314F06FF0120098E74168C1F30905114F002409
S11315005BE70B4AB2F8842040F2FF318A42F2D002
S11315100C4F00244AE704EB8403054A02EB8303DF
S1131520D3F88030002BE3D04FF0010871E700BFFF
S1131530A0000020710400007F040000DD0A000008
S1131540610C000014010020FF1F0420094B002936
S113155008BF1946034630B1012807D0022804BF4A
S1131560054B19677047044B99667047024BD9665F
S1131570704700BF55080000A000002008B5014BCB
S1131580984708BD510E000008B5014B984708BDA7
S1131590510E000008B5014B984708BD510E0000DC
S11315A008B5014B984708BD510E000008B5014B22
S11315B09847FEE7D102000070B50D4E0D4CA41BF8
S11315C0A4100025A54209D10B4E0C4C00F02CF8B8
S11315D0A41BA4100025A54205D170BD56F82530E2
S11315E098470135EEE756F8253098470135F2E77C
S11315F034160000341600003416000038160000BB
S113160010B5431E0A44914200D110BD11F8014B9C
S113161003F8014FF7E702440346934200D17047B1
S113162003F8011BF9E70000F8B500BFF8BC08BCDB
S11316309E46704789020000F8B500BFF8BC08BC9C
S10B16409E467047650200009C
S9030000FC
