S01600005350495F53796E5F4472697665722E73726563BE
S113000048000120E1020000DD020000DD020000E2
S1130010DD020000DD020000DD020000000000003F
S1130020000000000000000000000000DD020000ED
S1130030DD02000000000000DD020000DD0200001F
S1130040DD020000DD020000DD020000DD02000030
S1130050DD020000DD020000DD020000DD02000020
S1130060DD020000DD020000DD020000DD02000010
S1130070DD020000DD020000DD020000DD02000000
S1130080DD020000DD020000DD020000DD020000F0
S1130090DD020000DD020000DD020000DD020000E0
S11300A0DD020000DD020000DD020000DD020000D0
S11300B0DD020000DD020000DD020000DD020000C0
S11300C0DD020000DD020000DD020000DD020000B0
S11300D0DD020000DD020000DD020000DD020000A0
S11300E0DD020000DD02000000000000000000004E
S11300F000000000AD060000DD020000DD0200008B
S1130100DD020000DD020000DD020000DD0200006F
S1130110DD020000DD020000DD020000DD0200005F
S1130120DD020000DD020000DD020000DD0200004F
S1130130DD020000DD020000DD020000DD0200003F
S1130140DD020000DD020000DD020000DD0200002F
S1130150DD020000DD020000DD020000DD0200001F
S1130160DD020000DD020000DD020000DD0200000F
S1130170DD020000DD020000DD020000DD020000FF
S1130180DD020000DD020000DD020000DD020000EF
S1130190DD020000DD020000DD020000DD020000DF
S11301A0DD020000DD020000DD020000DD020000CF
S11301B0DD020000DD020000DD020000DD020000BF
S11301C0DD020000DD020000DD020000DD020000AF
S11301D0DD020000DD020000DD020000DD0200009F
S11301E0DD020000DD020000DD020000DD0200008F
S11301F0DD020000DD020000DD020000DD0200007F
S1130200DD020000DD020000DD020000DD0200006E
S1130210DD020000DD020000DD020000DD0200005E
S1130220DD020000DD020000DD020000DD0200004E
S1130230DD020000DD020000DD020000DD0200003E
S1130240DD020000DD020000DD020000DD0200002E
S1130250DD020000DD020000DD020000DD0200001E
S1130260DD02000010B5054C237833B9044B13B1FB
S11302700448AFF300800123237010BD0000002068
S113028000000000000A00000C4B43B10C480D496B
S113029010B5AFF300800C48036823B910BD0A48B9
S11302A0036833B97047094B002BF7D0BDE8104001
S11302B01847064B002BF5D0184700BF000000007C
S11302C0000A000004000020000A000000000000F2
S11302D008B5014B984708BD9D040000FEE70000E7
S11302E008B51C4B1C4A9A4210D01C4B194A9A421E
S11302F00CD2013B9B1A23F0030304331344164925
S113030051F8040B42F8040B9A42F9D1144B154AE4
S11303109A420AD2013B9B1A23F003030433134489
S1130320002142F8041B9342FBD10F4B0F4A22F0E9
S11303307F029A60D3F8882042F47002C3F88820C0
S1130340BFF34F8FBFF36F8F094B9847094B984703
S1130350FEE700BF00000020000A000000000020AB
S1130360480000200000002000ED00E00000000034
S1130370290900001D0900002D4B4FF48072C3F8B9
S11303809420C3F8882002F18042C3F8A8204FF0DB
S11303904041C3F8A81093F8C82002F0FE0242F0CE
S11303A0010283F8C82093F8B42002F0F00242F06E
S11303B0030283F8B4204FF40072C3F89420C3F806
S11303C0882002F18042C3F8A820C3F8A81093F84B
S11303D0C92002F0FE0242F0010283F8C92093F81A
S11303E0B42002F00F0242F0300283F8B4204FF43C
S11303F08042C3F884200F4AC3F8A8200E4AC3F8E9
S1130400A82093F8CE2002F0FB0283F8CE2093F8C4
S1130410CE2002F0FE0242F0010283F8CE2093F8CF
S1130420B72002F0F00242F0020283F8B7207047CE
S11304300080004100400240000002C0064B402200
S1130440C3F808214322C3F88C20044A136A43F0FA
S113045001031362704700BF001C00400008004005
S113046008B5054B98474FF086410448044B98471C
S1130470044B984708BD00BF3D0400002000002045
S1130480FD0400007903000008B50248024B9847B8
S113049008BD00BF10E000E0E904000008B50D4B02
S11304A098470D4B4FF08052C3F89820C3F888202A
S11304B04FF08042C3F8A820084AC3F8A82093F854
S11304C0DC2002F0FE0283F8DC20054B9847054B44
S11304D0984708BD0D06000000800041001000C0D0
S11304E0610400008904000008B5024B1860024B47
S11304F0984708BD1C0000200909000038B50D46C6
S11305000446B8B1081C18BF012040220A490B4B0D
S11305109847204640F8045F2946094B984700282D
S113052007DB4FF40043A382064B2361064BE360D1
S1130530002038BD0020E8E770090000050600002F
S113054035070000C90500008D05000030B585B0F1
S11305500C46054690B1081C18BF0120B322084977
S1130560084B98472368019363680293A368039335
S113057001A9281D044B984705B030BD0020EDE7C4
S113058070090000050600002908000070B584B059
S11305900E4615460446A3220849003018BF012020
S11305A0074B9847002302930196039501A9A4F1F0
S11305B00C00044B984704B070BD00BF70090000E4
S11305C0050600004D05000070B584B00E461546C2
S11305D0044687220849003018BF0120074B98477A
S11305E0029600230193039501A9A4F10C00044B86
S11305F0984704B070BD00BF7009000005060000F4
S11306004D05000000B900BE7047000008B5084A57
S113061013889BB21380074B9847074B9847074BA7
S11306209847074B984740F6FF70064B984708BD1C
S113063000400041790600008D0600006D060000B0
S1130640A90600004906000010F0010F08D0054A71
S1130650054B1A62194643F6FD724B681342FCD1EE
S1130660704700BF01010100001C00400122014B42
S11306705A71704700080040034BDA6902F47C5257
S1130680DA6101221A74704700140040044A054BD1
S11306909A611A46136913F0020FFBD0704700BF2A
S11306A006260003001000407047000000B583B028
S11306B00D4B9B78DBB20193019B13F0020F06D024
S11306C00A4B1B681BB1084A5068984709E0019B14
S11306D013F0010F05D0054B5B6813B1024A506853
S11306E0984703B05DF804FB000002413800002085
S11306F070B489B006466C460D4D0FCD0FC495E815
S11307000F0084E80F00009BB3420DD0314601ABCB
S1130710012053F8042B8A4207D001300828F8D16D
S1130720002009B070BC70470020C0B2F9E700BFD8
S11307308C09000038B505460C460846364B9847E8
S113074004280CD0002D55D040F63C123349201C0F
S113075018BF0120324B98476FF00C0038BD002DB4
S113076051D140F63C122D4900202D4B9847E369A6
S113077013F0010F19D1E36913F0030FFBD12368C0
S113078013F0020F0BD0236823F002032360E36904
S113079013F0030FFBD1E36913F0020FFBD10D2318
S11307A02360E36913F0030FFBD1E36913F0010F36
S11307B0FBD12C6040F606121849201C18BF0120FA
S11307C0174B9847174B2360E36913F0030FFBD1D2
S11307D04FF400336360E36913F0170FFBD1772301
S11307E02373002084F8300001232B7140F2FF139F
S11307F0EB8038BD40F63C1208490020084B98476E
S11308006FF00C0038BD40F63C120449201C18BFA0
S11308100120034B9847AAE7F1060000C409000031
S1130820050600000C0020002DE9F84381460E4621
S11308300468D1F800804D680779A8B1201C18BF5E
S113084001204FF42A622E492E4B9847E36913F096
S1130850070F34D1E06910F00300FBD1236813F0D3
S1130860020F30D0024608E00020EAE7013213F01C
S1130870800F12D1B36883421ED9237EDBB213F0FA
S1130880040F24D0A16A002DF0D02970012F91BF4C
S11308900135090A69700235E8E74FF6FF7363838F
S11308A0802323766FF01200237E13F0030FFBD016
S11308B003232376BDE8F8839342DED8F4E76FF090
S11308C00300BDE8F8836FF01300BDE8F88390429D
S11308D0CDD813F0010FCAD0B9F80610B8F1000F43
S11308E00BD098F80010012F91BF08F1010898F877
S11308F001E041EA0E2108F102080130A162B6E7E5
S1130900C409000005060000034B6FF07F425A60E3
S113091005221A60704700BF10E000E008B5014BE3
S11309209847FEE7D102000070B50D4E0D4CA41B94
S1130930A4100025A54209D10B4E0C4C00F050F830
S1130940A41BA4100025A54205D170BD56F825307E
S113095098470135EEE756F8253098470135F2E718
S1130960EC090000EC090000EC090000F0090000AB
S11309702E2E2F68616C2F7372632F68616C5F7306
S113098070695F6D5F73796E632E630000300040A1
S113099000340040002001410040014100000043B8
S11309A00004004300080043000C00430000000062
S11309B00000000000000000000000000000000033
S11309C0000000002E2E2F68706C2F736572636F09
S11309D06D2F68706C5F736572636F6D2E630000BA
S11309E0F8B500BFF8BC08BC9E46704789020000F9
S11309F0F8B500BFF8BC08BC9E467047650200000D
S9030000FC
