S01600004D4D4138343532515F42617369632E73726563CE
S11300000C94D6000C94FE000C94FE000C94FE009C
S11300100C94FE000C94FE000C94FE000C94FE0064
S11300200C94FE000C94FE000C94DD0A0C947909E7
S11300300C94FE000C94FE000C94FE000C94FE0044
S11300400C94FE000C94FE000C94FE000C94FE0034
S11300500C94FE000C94FE000C94FE000C94710BA6
S11300600C94FE000C94FE000C94FE000C94FE0014
S11300700C94FE000C94FE000C94FE000C94FE0004
S11300800C94FE000C94FE000C94FE000C94FE00F4
S11300900C94750F0C94FE000C94FE000C94FE005E
S11300A00C94FE000C94FE000C94FE00BA10BD10DB
S11300B0AC10B010B610DE10DE10DE10C110C5108A
S11300C0C910CF10D310DE10D910080B00020202A1
S11300D000000904000001020200000524001001D0
S11300E00524010101042402060524060001070574
S11300F0810310004009040100020A000000070502
S113010002024000000705830240000012010002C1
S1130110EF020140412341800001010203014172C9
S11301206475696E6F204C4C430041726475696E4E
S11301306F2059756E0004030904000000020009D1
S11301400F0000030401000C000000000000000088
S113015000000000000000000004080201104080BC
S1130160401020408040800802040180402010029A
S113017001108010204040200404040404030405FA
S11301800202020204030202020206060606060630
S11301900404020202040400000000250028002BCD
S11301A0002E003100009403A205D90D11241FBEB6
S11301B0CFEFDAE0DEBFCDBF11E0A0E0B1E0E2EFC7
S11301C0F4E202C005900D92AA39B107D9F722E0F2
S11301D0AAE9B1E001C01D92A23EB207E1F710E026
S11301E0C6EDD0E004C02197FE010E947112C33D08
S11301F0D107C9F70E94B8050C9477120C9400003B
S1130200FC01628B0895EF92FF920F931F93CF939B
S1130210DF93C62F7A01022FFC01628982E192E00A
S11302200E94520D6C2F82E192E00E94010DE701C1
S113023010E0CE018E199F098017910734F469915B
S113024082E192E00E94010DF4CF82E192E0DF911D
S1130250CF911F910F91FF90EF900C94D60DCF93F7
S1130260DF931F92CDB7DEB7498321E0AE014F5F24
S11302705F4F0E9403010F90DF91CF910895FF9289
S11302800F931F93CF93DF938C01F42ED22F67FD2E
S113029006C0462F63E20E942F01C3E001C0C0E004
S11302A0F7FC06C0CC604F2D64E2C8010E942F0108
S11302B0D7FD06C0C0634D2F65E2C8010E942F011F
S11302C04C2F406461E2C8010E942F0140E366E2C2
S11302D0C8010E942F0140EA67E2C8010E942F0171
S11302E04FEF68E2C801DF91CF911F910F91FF900A
S11302F00C942F011F93CF93DF93EC01162F6A897F
S113030082E192E00E94520D612F82E192E00E940C
S1130310010D60E082E192E00E945C0D41E06A8997
S113032082E192E00E94D30D82E192E00E94720C7D
S1130330892BD1F382E192E00E947A0CDF91CF9174
S11303401F91089560E00E947A0183FB882780F959
S113035008950F931F93CF938C01C62F6EE00E94D4
S11303607A014C2F469546958C7F482B6EE0C80148
S1130370CF911F910F910C942F010F931F93CF9343
S11303808C01C62F6AE20E947A0198E0C99FB001ED
S113039011248F7C482F462B6AE2C801CF911F910C
S11303A00F910C942F01CF93DF93EC0161E10E9434
S11303B07A01482F406461E1CE010E942F0140E59B
S11303C062E1CE01DF91CF910C942F0160E10E9494
S11303D07A0186FD03C086708695089580E40895A9
S11303E0CF93DF93EC016AE20E947A01482F4E7F9B
S11303F06AE2CE01DF91CF910C942F01CF93DF936A
S1130400EC016AE20E947A01482F41606AE2CE015F
S1130410DF91CF910C942F011F93CF93DF93EC01C5
S1130420142F6B8B82E192E00E94400D6DE0CE01AF
S11304300E947A018A32C9F4CE010E94F0016B89CC
S1130440CE010E94A901612FCE010E94BD01CE01FF
S11304500E94D30128E040E860E8CE010E943F01F9
S1130460CE010E94FE0181E001C080E0DF91CF91C6
S11304701F910895EF92FF920F931F93CF93DF93F1
S11304808C01D62F7A01C22FFC01628982E192E0AD
S11304900E94520D6D2F82E192E00E94010D60E0F6
S11304A082E192E00E945C0D4C2FF801628982E1A6
S11304B092E00E94D30DD0E082E192E00E94720C9F
S11304C08C179D07CCF38701CE0DDF1DC017D10714
S11304D041F082E192E00E947A0CF80181938F014D
S11304E0F5CFDF91CF911F910F91FF90EF90089579
S11304F04F925F926F927F92AF92BF92CF92DF92B0
S1130500EF92FF920F931F93CF93DF9300D000D00D
S113051000D0CDB7DEB78C0126E0AE014F5F5F4F50
S113052061E00E943A02A980BA80BA24AB24BA24BA
S113053084E0B594A7948A95E1F7F801B182A0828A
S1130540CB80DC80DC24CD24DC2494E0D594C794D7
S11305509A95E1F7D382C282ED80FE80FE24EF24D7
S1130560FE2424E0F594E7942A95E1F7F582E482E9
S1130570638970E080E090E00E9499032B013C01C4
S1130580B501BB0C880B990B0E949B0320E030E063
S113059040E05AE30E94D603A30192010E94D603CD
S11305A0F8016683778380879187B601DD0C880B19
S11305B0990B0E949B0320E030E040E05AE30E9444
S11305C0D603A30192010E94D603F80162877387C0
S11305D084879587B701FF0C880B990B0E949B03B6
S11305E020E030E040E05AE30E94D603A3019201E8
S11305F00E94D603F80166877787808B918B2696B5
S11306000FB6F894DEBF0FBECDBFDF91CF911F911F
S11306100F91FF90EF90DF90CF90BF90AF907F90BD
S11306206F905F904F90089540E855E260E070E06D
S11306308EEA91E00E949C0563E171E08EEA91E00C
S11306400E94ED0540E062E08AE991E00C940C021E
S1130650CF93DF93CAE9D1E04E815F8168857985C4
S113066023E030E08EEA91E00E94360767E271E011
S11306708EEA91E00E94E0054A855B856C857D8564
S113068023E030E08EEA91E00E94360767E271E0F1
S11306908EEA91E00E94E0054E855F85688979893C
S11306A023E030E08EEA91E00E94360767E271E0D1
S11306B08EEA91E0DF91CF910C94E0058AE991E014
S11306C00E94E601823089F028F4882341F08130C9
S11306D049F00895833061F0803469F0089569E247
S11306E071E00BC065E371E008C063E471E005C02C
S11306F063E571E002C062E671E08EEA91E00C9479
S1130700E0058AE991E00E94A201882361F08AE968
S113071091E00E9478020E9428030E945E038EEA00
S113072091E00C94E90508956DE18AE991E00C9457
S11307300001E89409C097FB3EF49095809570956C
S113074061957F4F8F4F9F4F9923A9F0F92F96E919
S1130750BB279395F695879577956795B795F1118E
S1130760F8CFFAF4BB0F11F460FF1BC06F5F7F4F2B
S11307708F4F9F4F16C0882311F096E911C077233D
S113078021F09EE8872F762F05C0662371F096E846
S1130790862F70E060E02AF09A95660F771F881F15
S11307A0DAF7880F9695879597F908950E94E903DB
S11307B00C945A040E944C0438F00E94530420F014
S11307C0952311F00C9443040C94490411240C94C3
S11307D08E040E946B0470F3959FC1F3950F50E053
S11307E0551F629FF001729FBB27F00DB11D639FDF
S11307F0AA27F00DB11DAA1F649F6627B00DA11D85
S1130800661F829F2227B00DA11D621F739FB00D2A
S1130810A11D621F839FA00D611D221F749F33279A
S1130820A00D611D231F849F600D211D822F762F33
S11308306A2F11249F5750409AF0F1F088234AF010
S1130840EE0FFF1FBB1F661F771F881F915050407C
S1130850A9F79E3F510580F00C9443040C948E0438
S11308605F3FE4F3983ED4F3869577956795B79503
S1130870F795E7959F5FC1F7FE2B880F911D96951D
S1130880879597F9089597F99F6780E870E060E08D
S113089008959FEF80EC089500240A941616170615
S11308A018060906089500240A941216130614065D
S11308B005060895092E0394000C11F4882352F0C0
S11308C0BB0F40F4BF2B11F460FF04C06F5F7F4F78
S11308D08F4F9F4F089557FD9058440F551F59F05F
S11308E05F3F71F04795880F97FB991F61F09F3F19
S11308F079F087950895121613061406551FF2CF42
S11309004695F1DF08C0161617061806991FF1CF91
S113091086957105610508940895E894BB276627B8
S11309207727CB0197F9089580E090E00895CF935D
S1130930DF931F92CDB7DEB76983DC01ED91FC91A3
S11309400280F381E02D41E050E0BE016F5F7F4FF4
S113095009950F90DF91CF910895CF93DF93EC0128
S11309608C859D8597FF05C082E00E943E089D8787
S11309708C878C859D85DF91CF91089583E00E94BB
S1130980550890E0089583E00C94D30AFC01848513
S1130990958597FD06C082E00E94E90790E00196E4
S11309A0089582E00E94E90790E00895FC0184859F
S11309B0958597FD05C02FEF3FEF35872487089570
S11309C082E00C943E08CF93DF93EC0180910B01FD
S11309D0882331F083E00E946F081816190634F05A
S11309E081E090E09B838A8380E090E0DF91CF9167
S11309F00895EEEFFFE72591349181E02B3F3C4DC4
S1130A0009F080E00895FC0190819E5F908342E4A8
S1130A1050E06AEC70E080E80C941F09FC018181CD
S1130A209081913A59F4813209F065C047E050E071
S1130A3064E071E080E00E941F095BC0913209F01C
S1130A405AC0833269F482819381A0E0B0E080933C
S1130A50000190930101A0930201B093030149C0E6
S1130A60803239F467E070E084E091E00E94460946
S1130A7040C0823209F03DC0828180930B010E9404
S1130A80F904882319F0EEEFFAE002C0E0E0F8E0A0
S1130A908091040190910501A0910601B091070194
S1130AA0803B9440A105B10541F580910B0180FD87
S1130AB024C0EE3F8AE0F80751F0808191818737A6
S1130AC027E7920721F09093FF0A8093FE0A87E7B5
S1130AD097E791838083809160008093FE019BE07F
S1130AE088E10FB6F894A895809360000FBE9093A8
S1130AF0600081E0089580E00895808191818737C6
S1130B009747B9F7A8958091600088618093600049
S1130B108091FE0180936000EE3F8AE0F80739F08F
S1130B208091FE0A9091FF0A91838083E2CF109214
S1130B30FF0A1092FE0ADDCF2FEF3FEFFC0135874D
S1130B4024870895EEEAF1E01382128288EE93E09E
S1130B50A0E0B0E084839583A683B7838BE691E01D
S1130B60918380838FEF9FEF9587848708950895FD
S1130B700E941C0C0E94B7058FEF91E00E945E0B4F
S1130B800E941403C0E0D0E00E9481032097E1F3A7
S1130B900E940000F9CF6115710579F0FB01019005
S1130BA00020E9F73197AF01461B570BDC01ED91AB
S1130BB0FC910280F381E02D099480E090E0089597
S1130BC00C94CB05DC01ED91FC910190F081E02DBA
S1130BD0099469E771E00C94CB050F931F93CF93AD
S1130BE0DF93EC010E94CB058C01CE010E94E90544
S1130BF0800F911FDF91CF911F910F9108958F92D4
S1130C009F92AF92BF92EF92FF920F931F93CF9355
S1130C10DF93CDB7DEB7A1970FB6F894DEBF0FBE52
S1130C20CDBF7C01FA01CB0119A2223008F42AE0DD
S1130C308E010F5D1F4F822E912CA12CB12CBF0170
S1130C40A50194010E944F12F901CA010150110932
S1130C506A3010F4605D01C0695CD8016C93232B89
S1130C60242B252B61F7B801C7010E94CB05A1965F
S1130C700FB6F894DEBF0FBECDBFDF91CF911F91A9
S1130C800F91FF90EF90BF90AF909F908F90089539
S1130C902115310541F4DC01ED91FC910190F081C5
S1130CA0E02D642F09940C94FF059A01AB0160E0D8
S1130CB070E00C9448067F928F929F92AF92BF92FD
S1130CC0CF92DF92EF92FF920F931F93CF93DF9314
S1130CD08C016A017B01722E9A01AB01C701B60136
S1130CE00E944A12882319F06CE771E027C046017C
S1130CF05701E894B7F82FEF3FEF4FE75FE7C501DF
S1130D00B4010E944A1281110DC02FEF3FEF4FE74B
S1130D105FE7C501B4010E947B1118161CF460E85A
S1130D2071E00CC02FEF3FEF4FE75FE4C701B6015E
S1130D300E944512181694F464E871E0C801DF912A
S1130D40CF911F910F91FF90EF90DF90CF90BF90C4
S1130D50AF909F908F907F900C94CB052FEF3FEF37
S1130D604FE75FECC701B6010E947B1187FDE4CF1A
S1130D7020E030E0A901C701B6010E947B1187FF82
S1130D800AC06DE2C8010E94E205EC01F7FAF09492
S1130D90F7F8F09402C0C0E0D0E0B12C60E070E05D
S1130DA080E09FE37B1441F020E030E040E251E436
S1130DB00E948011B394F6CFA70196010E940F11EF
S1130DC06B017C010E94F2114B015C012AE0AB0132
S1130DD0BC01C8010E94FF05C80FD91F7720B9F1D3
S1130DE0C501B4010E9499039B01AC01C701B6017E
S1130DF00E940E116B017C016EE2C8010E94E205A3
S1130E00C80FD91F20E030E040E251E4C701B60129
S1130E100E94D6034B015C010E94F2116B017C011C
S1130E204AE050E0C8010E945506C80FD91FB60118
S1130E3080E090E00E9499039B01AC01C501B401DC
S1130E400E940E116B017C017A947110DBCFCE01EC
S1130E50DF91CF911F910F91FF90EF90DF90CF9092
S1130E60BF90AF909F908F907F9008950C945B06F5
S1130E70615030F02091F100FC0120830196F8CFFD
S1130E80289884E6809307020895409102025091C5
S1130E900302209100023091010242175307B4F477
S1130EA09091E8009570E1F39091E80092FD19C0EB
S1130EB08093F100809102029091030201968F7356
S1130EC09927892B19F48EEF8093E8008091020210
S1130ED0909103020196909303028093020281E0B1
S1130EE0089580E00895DF92EF92FF920F931F938D
S1130EF0CF93DF93D82EF92EE42E062F10E0C801ED
S1130F000196880F0E94450783E00E944507CD2D76
S1130F10DF2D0C0F1D1FC017D10789F0E7FE03C09A
S1130F20FE01849101C088810E944507F82E80E06B
S1130F300E9445078F2121968111EDCF01C081E0E8
S1130F40DF91CF911F910F91FF90EF90DF90089563
S1130F508091D70081608093D70080EA8093D80085
S1130F6089B5806189BD89B5826089BD09B400FEF7
S1130F70FDCF61E070E080E090E00E94E00B8091A2
S1130F80D8008F7C80618093D8008091E000807FBE
S1130F908093E0000895CF93DF931F92CDB7DEB71F
S1130FA01982CE0101960E9403050E94630EBE01C0
S1130FB06F5F7F4F0E94DE0D89810F90DF91CF918B
S1130FC008952FB7FC012083F89467706093E900BB
S1130FD00895CF93DF931F92CDB7DEB7682FCE016C
S1130FE001960E94E1078091F20099819FBF0F90C2
S1130FF0DF91CF910895EF92FF920F931F93CF93B8
S1131000DF931F92CDB7DEB790910602992311F0BA
S113101057FF03C08FEF9FEF29C08A017B01682F20
S1131020CE0101960E94E1072091F20030E0021700
S113103013070CF49801822FF70194E6815038F0DD
S11310402898909307024091F1004193F7CF21151E
S1131050310521F08091F200882321F089818FBF2E
S1131060C90104C08BE68093E800F8CF0F90DF91AC
S1131070CF911F910F91FF90EF900895CF93DF933D
S11310801F92CDB7DEB741E050E0BE016F5F7F4FE6
S11310900E94FB07019719F4898190E002C08FEF49
S11310A09FEF0F90DF91CF910895CF93DF931F921D
S11310B0CDB7DEB7682FCE0101960E94E10790916B
S11310C0E800892F807295FF04C09091F20080E4BB
S11310D0891B99819FBF0F90DF91CF9108955F92F3
S11310E06F927F928F929F92AF92BF92CF92DF9234
S11310F0EF92FF920F931F93CF93DF931F92CDB77D
S1131100DEB7982E6B01B42E052F80910602811153
S113111003C08FEF9FEF77C08091040280FF05C06A
S11311208091E00082608093E000EB2CF02EA12CF3
S11311308AEF882E892D8072682E892D8074582E0E
S11311409AE3792EE114F10419F4AA2009F455C0A4
S1131150892D0E945508182F81110AC08A9488206D
S1131160C1F261E070E080E090E00E94E00BEACF21
S113117090E0E816F9060CF41E2D692DCE010196B7
S11311800E94E1078091E80085FF34C0812F90E040
S1131190E81AF90A662029F01150A0F01092F10023
S11311A0FBCFF60197FE0AC0115050F02491209312
S11311B0F1003196F9CF21912093F1001150D8F725
S11311C0C80ED91EAA2019F07092E8000BC08091B5
S11311D0E80085FD09C07092E800AA24A394E114F4
S11311E0F10441F0A12C06C0E114F10419F45110EA
S11311F07092E80089818FBFA5CF5D9884E68093C3
S113120008028B2D902F0F90DF91CF911F910F919A
S1131210FF90EF90DF90CF90BF90AF909F908F9012
S11312207F906F905F9008951092E90010920302EE
S11312301092020290930102809300020895DF92BB
S1131240EF92FF920F931F93CF93DF93D82E8A01CF
S11312507B01E40EF51EEB01CE15DF0571F0D7FE20
S113126003C0FE01849101C088810E944507219634
S11312708111F2CF8FEF9FEF01C0C801DF91CF91B1
S11312801F910F91FF90EF90DF900895AF92BF925E
S1131290DF92EF92FF920F931F93CF93DF935C0142
S11312A08B01EB019BEFD92E2097C1F07E01C13455
S11312B0D1051CF080E4E82EF12C8091E80082FF37
S11312C0FCCFC8018C1B9D0B6E2D8A0D9B1D0E94AB
S11312D03807D092E800CE19DF09E6CFC801DF91C4
S11312E0CF911F910F91FF90EF90DF90BF90AF903F
S11312F008951F920F920FB60F921124CF92DF928E
S1131300EF92FF920F931F932F933F934F935F930B
S11313106F937F938F939F93AF93BF93EF93FF93B9
S1131320CF93DF93CDB7DEB76C97DEBFCDBF1092FE
S1131330E9008091E80083FF17C168E0CE0145967B
S11313400E94380782EF8093E8008D8987FF05C0EB
S11313509091E80090FFFCCF03C09EEF9093E800CB
S1131360982F907609F0D8C09E894F89588D2F897F
S1131370188D91110CC0803829F480910502809356
S1131380F10002C01092F1001092F100E6C0913019
S113139051F48111E2C04130510509F0DEC0809161
S11313A005028D7F0BC0933061F48111D6C04130AA
S11313B0510509F0D2C08091050282608093050234
S11313C0CCC0953049F48091E80080FFFCCF822F97
S11313D080688093E300C1C0963009F070C0EB8C44
S11313E0FC8C123069F580E090E00E9414090E94A0
S11313F0CB0799E09E012F5F3F4F6901F901292F27
S113140011922A95E9F799831A8391E09E8390EAD1
S113141098879AEF99872091020230910302275FFF
S11314203F4F3C832B838D83C7010E94140949E0FD
S113143050E0B60180E00E941F090E94CB078DC0D6
S1131440C7010E9414090E94630EBE016B5E7F4FA8
S11314500E94070E009719F00CF07FC082C0113073
S113146009F470C0133009F07CC08F89882309F413
S11314706CC0823029F440E86BE08AE291E006C057
S1131480813039F440E86BE08EE191E00E9473070B
S113149056C0833009F065C00E94630E8E010F5F51
S11314A01F4FB8010E94260EF80101900020E9F7B1
S11314B03197BF01601B710B40E0C801E7CF973043
S11314C009F44FC0983021F481E08093F10045C0C5
S11314D0993009F042C0837009F043C0EDE0F1E0B7
S11314E081E031E096E32081211109C08EE78093E9
S11314F0EA001092EA008F89809306022EC080933E
S1131500E9003093EB0021912093EC009093ED00DF
S11315108F5F873041F7EACF8B8D9C8D0E94140931
S1131520898D811105C0CE0145960E940E0507C024
S11315300E94630EBE016B5E7F4F0E94450E88239E
S113154081F00BC06CE071E002C066E371E0FB0166
S1131550449150E080E80E941F098EEF8093E800D8
S113156003C081E28093EB006C960FB6F894DEBF63
S11315700FBECDBFDF91CF91FF91EF91BF91AF919E
S11315809F918F917F916F915F914F913F912F9197
S11315901F910F91FF90EF90DF90CF900F900FBEAF
S11315A00F901F9018958093E9008091F200882392
S11315B019F08AE38093E80008951F920F920FB602
S11315C00F9211242F933F934F935F936F937F93C5
S11315D08F939F93AF93BF93CF93EF93FF93C09158
S11315E0E1008091E100837F8093E100C3FF0FC09D
S11315F01092E90081E08093EB001092EC0082E30A
S11316008093ED001092060288E08093F000C2FF00
S113161019C083E00E94D30A80910802882339F01C
S113162080910802815080930802882389F1809177
S11316300702882339F080910702815080930702C2
S1131640882341F1C4FF10C08091E2008E7E816046
S11316508093E2008091E1008F7E8093E10080918D
S113166004028E7E806111C0C0FF16C08091E2002A
S11316708E7E80618093E2008091E1008E7E809373
S1131680E100809104028E7E81608093040204C094
S11316905D9ACDCF289AD6CFFF91EF91CF91BF918C
S11316A0AF919F918F917F916F915F914F913F91F6
S11316B02F910F900FBE0F901F9018951092060255
S11316C010920502109204020E94A807E1EEF0E0D5
S11316D080818E7E80838DE08093E200559A209AEB
S11316E008951F920F920FB60F9211242F933F93D8
S11316F08F939F93AF93BF9380910A0290910B02B3
S1131700A0910C02B0910D023091090223E0230F45
S11317102D3720F40196A11DB11D05C026E8230F25
S11317200296A11DB11D2093090280930A02909391
S11317300B02A0930C02B0930D0280910E029091C3
S11317400F02A0911002B09111020196A11DB11DCA
S113175080930E0290930F02A0931002B093110293
S1131760BF91AF919F918F913F912F910F900FBE99
S11317700F901F9018953FB7F89480910E029091A6
S11317800F02A0911002B091110226B5A89B05C0CA
S11317902F3F19F00196A11DB11D3FBFBA2FA92FEC
S11317A0982F8827820F911DA11DB11DBC01CD0169
S11317B042E0660F771F881F991F4A95D1F7089555
S11317C08F929F92AF92BF92CF92DF92EF92FF924D
S11317D06B017C010E94BB0B4B015C01C114D10461
S11317E0E104F10401F10E94DD0D0E94BB0BDC0158
S11317F0CB0188199909AA09BB09883E9340A10520
S1131800B10560F321E0C21AD108E108F10888EEBD
S1131810880E83E0981EA11CB11CC114D104E104FC
S1131820F10419F7DBCFFF90EF90DF90CF90BF90DA
S1131830AF909F908F900895789484B5826084BD12
S113184084B5816084BD85B5826085BD85B58160C0
S113185085BDEEE6F0E0808181608083E1E8F0E020
S11318601082808182608083808181608083E0E84F
S1131870F0E0808181608083E1E9F0E08081826032
S11318808083808181608083E0E9F0E080818160F1
S11318908083E1ECF0E080818460808380818260D9
S11318A08083808181608083E3ECF0E080818160CB
S11318B08083E0ECF0E0808182608083E2ECF0E001
S11318C0808181608083EAE7F0E0808184608083A6
S11318D08081826080838081816080838081806850
S11318E0808308958091460290E020914702821BF4
S11318F0910908959091470280914602981750F4F7
S1131900E92FF0E0E85BFD4F208130E09F5F90938A
S1131910470202C02FEF3FEFC9010895E09147024B
S113192080914602E81730F4F0E0E85BFD4F8081D7
S113193090E008958FEF9FEF08950895CF93DF937C
S1131940EC01E0911E02F0911F023097F1F09091AA
S11319504702809146029817C0F090E0292F30E0AA
S11319602617370754F4DE01A20FB31F4C91D90197
S1131970A85BBD4F4C939F5FF1CF109247026093D9
S11319804602CB01DF91CF910994DF91CF91089565
S1131990E0912002F0912102309729F01092240264
S11319A01092230209940895CF92DF92EF92FF924E
S11319B00F931F93CF93DF937C01CB018A01209176
S11319C02202222389F0EB016B01C40ED51ECC1533
S11319D0DD0569F06991D701ED91FC910190F081E9
S11319E0E02DC7010995F3CF642F0E94330FC8017E
S11319F0DF91CF911F910F91FF90EF90DF90CF90E7
S1131A000895CF93DF931F92CDB7DEB769832091FA
S1131A1022022223D1F020912302203240F021E03F
S1131A2030E0FC013383228380E090E015C0809194
S1131A302402E82FF0E0EB5DFD4F998190838F5FE6
S1131A40809324028093230205C061E0CE010196B5
S1131A500E94330F81E090E00F90DF91CF910895C1
S1131A60FC011382128288EE93E0A0E0B0E084834C
S1131A709583A683B7838CE891E09183808308954E
S1131A8010924702109246021092240210922302EE
S1131A900E94770E88EC9CE00E94600F8EE99CE027
S1131AA00C945B0F81E080932202609345021092B4
S1131AB024021092230208950F93062F21E04091EF
S1131AC0230265E272E0809145020E94DD0E1092CD
S1131AD0240210922302109222020F9108954F9231
S1131AE05F926F927F92AF92BF92CF92EF92FF92EA
S1131AF00F931F93CF93DF935C01F62ED42F28010D
S1131B003901EE2021F10E94520DCE2DC43008F08F
S1131B10C3E0C150C0F028E0C29FC0011124A3015A
S1131B20920104C056954795379527958A95D2F723
S1131B30CA01B901D501ED91FC910190F081E02D2C
S1131B40C5010995E6CF60E0C5010E945C0D4D2FEB
S1131B50D13208F040E22C2D68E472E08F2D0E940F
S1131B60950E1092470280934602DF91CF911F9108
S1131B700F91FF90EF90CF90BF90AF907F906F90B8
S1131B805F904F900895CF92EF920F931F93C22EC0
S1131B90E12C00E010E098010E946F0D1F910F915D
S1131BA0EF90CF90089521E00C94C30D61E00C9464
S1131BB05C0D82E192E00C94300D0895EF92FF9257
S1131BC00F931F93CF93DF937B01FC01C281D381D9
S1131BD000E010E0209781F0E881F9810280F38130
S1131BE0E02DB701CE01099597FD08C0080F191F14
S1131BF00884D985C02DEECFC80102C08FEF9FEFB6
S1131C00DF91CF911F910F91FF90EF9008950F9363
S1131C101F93CF93DF938B01FC01C281D381209763
S1131C2071F0E881F9810480F581E02DB801CE01DD
S1131C300995009731F40884D985C02DF0CF80E050
S1131C4090E0DF91CF911F910F9108950F931F930F
S1131C50CF93DF938B01FC01C281D381209771F074
S1131C60E881F9810680F781E02DB801CE0109955C
S1131C70080F111D0884D985C02DF0CFF8011082FA
S1131C80DF91CF911F910F9108950F931F93CF93DD
S1131C90DF938B01FC01C281D381209771F0E8812D
S1131CA0F9810190F081E02DB801CE0109958111EF
S1131CB005C00884D985C02DF0CF80E0DF91CF9195
S1131CC01F910F91089580916C0281110DC082E0E3
S1131CD08093680284E08093690210926B021092F0
S1131CE06A0281E080936C0288E692E00895109283
S1131CF0E10281E08093DF021092DE0261E082E083
S1131D000E94DF1061E083E00E94DF10E9EBF0E065
S1131D1080818E7F808380818D7F808388E480931F
S1131D20B80085E48093BC000895413208F043C0B4
S1131D309091E1029111FCCF91E09093E102209304
S1131D40DF022FEF209374021092B902240F209324
S1131D50B8029093E0029091E002880F892B80935F
S1131D60E0028091DE02813061F41092DE02809103
S1131D70E0028093BB008091BC0083FDF8CF85EC2A
S1131D8001C085EE8093BC008091E1028130E1F3D3
S1131D908091B902841710F44091B902AAEBB2E021
S1131DA0962FFB018E2F891B841718F48D91819334
S1131DB0F9CF842F089580E008950F93413208F0FD
S1131DC04AC09091E1029111FCCF32E03093E102DC
S1131DD00093DF023FEF309374021092B9024093F4
S1131DE0B802562FAAEBB2E0FB013E2F351B341785
S1131DF018F431913D93F9CF1092E0023091E00252
S1131E00880F832B8093E0028091DE02813061F49D
S1131E101092DE028091E0028093BB008091BC00AE
S1131E2083FDF8CF85EC01C085EE8093BC002223AE
S1131E3021F08091E1028230D1F3809174028F3FCE
S1131E4079F080917402803241F080917402803381
S1131E5031F094E005C091E003C092E001C093E04A
S1131E60892F0F91089540919602262F30E0240F78
S1131E70311D21323105DCF42091E1022430C9F412
S1131E80FC0180E090E0861758F43091960221918D
S1131E90DC01A856BD4FA30FB11D2C930196F3CFBF
S1131EA080919602680F6093960280E0089581E025
S1131EB0089582E008959093DB028093DA020895F6
S1131EC09093DD028093DC02089585ED8093BC003D
S1131ED08091BC0084FDFCCF1092E102089585EC52
S1131EE08093BC001092E10208951F920F920FB6E6
S1131EF00F9211242F933F934F935F936F937F938C
S1131F008F939F93AF93BF93EF93FF938091B90007
S1131F10887F803609F49EC078F5883209F45DC064
S1131F2090F4803109F456C038F4882309F4F5C0DC
S1131F30883009F44FC0F5C0883109F44EC08032AE
S1131F4009F45FC0EEC0803409F46AC058F48033E9
S1131F5009F457C0883309F0E4C0809374020E94E6
S1131F606F0FDFC0803509F44FC0883509F45DC0B8
S1131F70883409F0D6C0D3C0883909F4C4C0A8F4A1
S1131F80883709F467C038F4883609F463C08037A9
S1131F9009F460C0C6C0883809F4B5C0803909F4B2
S1131FA05FC0803809F0BDC05BC0803B09F483C0CA
S1131FB038F4803A09F466C0883A09F47CC0B1C0A8
S1131FC0803C09F4A4C0883C09F4A1C0883B09F40E
S1131FD087C0A7C08091E00210C09091B90280919F
S1131FE0B802981770F5E091B90281E08E0F8093E2
S1131FF0B902F0E0E654FD4F80818093BB0085EC8C
S113200083C0809374028BC0E091B90281E08E0F8B
S11320108093B9028091BB00F0E0E654FD4F8083C9
S11320209091B9028091B8026BC0E091B90281E04D
S11320308E0F8093B9028091BB00F0E0E654FD4F0F
S113204080838091DF0281116AC081E08093DE0287
S113205084EA5EC083E08093E10210927502CFCFE0
S113206080917502803208F04EC0E091750281E0E3
S11320708E0F809375028091BB00F0E0EA58FD4F0B
S11320808083BDCF0E946F0F80917502803230F43F
S1132090E0917502F0E0EA58FD4F108260917502FC
S11320A070E0E091DA02F091DB0286E792E00995B4
S11320B01092750236C084E08093E1021092970278
S11320C010929602E091DC02F091DD020995809174
S11320D09602811105C081E08093960210929802C5
S11320E0E091970281E08E0F80939702F0E0E8562A
S11320F0FD4F80818093BB0090919702809196025E
S1132100981708F47CCF85E88093BC000AC085EC5E
S11321108093BC001092E10204C0109274020E94E9
S1132120650FFF91EF91BF91AF919F918F917F9137
S11321306F915F914F913F912F910F900FBE0F9030
S11321401F90189590E0FC013197EF30F105B0F540
S1132150EA5AFF4F0C947112809180008F7703C06C
S1132160809180008F7D809380000895809180000D
S1132170877FF9CF84B58F7702C084B58F7D84BD06
S11321800895809190008F7707C0809190008F7D93
S113219003C080919000877F809390000895809180
S11321A0C0008F7703C08091C0008F7D8093C000F2
S11321B008958091C200877F8093C20008951F9381
S11321C0CF93DF93282F30E0F901E65CFE4F849132
S11321D0F901E75AFE4FD491F901E858FE4FC49132
S11321E0CC23C1F0162F81110E94A210EC2FF0E035
S11321F0EE0FFF1FE956FE4FA591B4919FB7F894D7
S1132200111104C08C91D095D82302C0EC91DE2B1F
S1132210DC939FBFDF91CF911F9108955058BB2746
S1132220AA270E9426110C945A040E944C0438F0E8
S11322300E94530420F039F49F3F19F426F40C94BF
S113224049040EF4E095E7FB0C944304E92F0E9443
S11322506B0458F3BA17620773078407950720F0D5
S113226079F4A6F50C948D040EF4E0950B2EBA2F98
S1132270A02D0B01B90190010C01CA01A001112488
S1132280FF27591B99F0593F50F4503E68F11A1634
S1132290F040A22F232F342F4427585FF3CF4695C5
S11322A037952795A795F0405395C9F77EF41F16E7
S11322B0BA0B620B730B840BBAF09150A1F0FF0FB1
S11322C0BB1F661F771F881FC2F70EC0BA0F621F9D
S11322D0731F841F48F4879577956795B795F7958D
S11322E09E3F08F0B0CF9395880F08F09927EE0F22
S11322F09795879508950E94211208F481E0089526
S11323000E9494110C945A040E94530458F00E94A1
S11323104C0440F029F45F3F29F00C94430451111C
S11323200C948E040C9449040E946B0468F3992362
S1132330B1F3552391F3951B550BBB27AA276217BD
S11323407307840738F09F5F5F4F220F331F441FCA
S1132350AA1FA9F335D00E2E3AF0E0E832D09150FE
S11323605040E695001CCAF72BD0FE2F29D0660FEB
S1132370771F881FBB1F261737074807AB07B0E82E
S113238009F0BB0B802DBF01FF2793585F4F3AF034
S11323909E3F510578F00C9443040C948E045F3FE7
S11323A0E4F3983ED4F3869577956795B795F795BA
S11323B09F5FC9F7880F911D9695879597F90895A2
S11323C0E1E0660F771F881FBB1F6217730784073E
S11323D0BA0720F0621B730B840BBA0BEE1F88F74D
S11323E0E09508950E94730488F09F5798F0B92FE0
S11323F09927B751B0F0E1F0660F771F881F991F36
S11324001AF0BA95C9F714C0B13091F00E948D0446
S1132410B1E008950C948D04672F782F8827B85F56
S113242039F0B93FCCF3869577956795B395D9F78D
S11324303EF490958095709561957F4F8F4F9F4F97
S11324400895990F0008550FAA0BE0E8FEEF161641
S11324501706E807F907C0F012161306E407F50794
S113246098F0621B730B840B950B39F40A2661F008
S1132470232B242B252B21F408950A2609F4A140AB
S1132480A6958FEF811D811D08950E94211208F4E5
S11324908FEF08950E942112880B990B0895A1E2F1
S11324A01A2EAA1BBB1BFD010DC0AA1FBB1FEE1FCA
S11324B0FF1FA217B307E407F50720F0A21BB30B15
S11324C0E40BF50B661F771F881F991F1A9469F791
S11324D060957095809590959B01AC01BD01CF01ED
S11324E00895EE0FFF1F0590F491E02D0994F894E0
S10524F0FFCF18
S11324F2FFFFFFFF00E100000000000000C1808137
S11325020000004D4D413834353251205465737406
S113251220436F646521000900506F72747261690F
S11325227420557000506F72747261697420446F24
S1132532776E004C616E64736361706520526967E3
S11325426874004C616E647363617065204C6566E7
S11325527400466C617400000000009704E304BE3A
S113256204C304C604D604AD040D0A006E616E00F1
S1132572696E66006F76660000000000010DD40CDF
S10D258294049D0C720C7A0C8E0C6C
S9030000FC
