S01700004465646963617465644472697665722E737265632A
S1130000B8020120E9020000E5020000E502000058
S1130010E5020000E5020000E50200000000000027
S1130020000000000000000000000000E5020000E5
S1130030E502000000000000E5020000E502000007
S1130040E5020000E5020000E5020000E502000010
S1130050E5020000E5020000E5020000E502000000
S1130060E5020000E5020000E5020000E5020000F0
S1130070E5020000E5020000E5020000E5020000E0
S1130080E5020000E5020000E5020000E5020000D0
S1130090E5020000E5020000E5020000E5020000C0
S11300A0E5020000E5020000E5020000E5020000B0
S11300B0E5020000E5020000E5020000E5020000A0
S11300C0E5020000E5020000E5020000E502000090
S11300D0E5020000E5020000E5020000E502000080
S11300E0E5020000E502000000000000000000003E
S11300F000000000050D0000E5020000E50200001C
S1130100E5020000E5020000E5020000E50200004F
S1130110E5020000E5020000E5020000E50200003F
S1130120E5020000E5020000E5020000E50200002F
S1130130E5020000E5020000E5020000E50200001F
S1130140E5020000E5020000E5020000E50200000F
S1130150E5020000E5020000E5020000E5020000FF
S1130160E5020000E5020000E5020000E5020000EF
S1130170E5020000E5020000E5020000E5020000DF
S1130180E5020000E5020000E5020000E5020000CF
S1130190E5020000E5020000E5020000E5020000BF
S11301A0E5020000E5020000E5020000E5020000AF
S11301B0E5020000E5020000E5020000E50200009F
S11301C0E5020000E5020000E5020000E50200008F
S11301D0E5020000E5020000E5020000E50200007F
S11301E0E5020000E5020000E5020000E50200006F
S11301F0E5020000E5020000E5020000E50200005F
S1130200E5020000E5020000E5020000E50200004E
S1130210E5020000E5020000E5020000E50200003E
S1130220E5020000E5020000E5020000E50200002E
S1130230E5020000E5020000E5020000E50200001E
S1130240E5020000E5020000E5020000E50200000E
S1130250E5020000E5020000E5020000E5020000FE
S1130260E502000010B5054C237833B9044B13B1F3
S11302700448AFF300800123237010BD3C0000202C
S113028000000000B41000000C4B43B10C480D49B1
S113029010B5AFF300800C48036823B910BD0A48B9
S11302A0036833B97047094B002BF7D0BDE8104001
S11302B01847064B002BF5D0184700BF000000007C
S11302C0B410000040000020B41000000000000042
S11302D008B5024B9847024B984708BD9D0400009F
S11302E0950A0000FEE7000008B51C4B1C4A9A4220
S11302F010D01C4B194A9A420CD2013B9B1A23F092
S1130300030304331344164951F8040B42F8040B55
S11303109A42F9D1144B154A9A420AD2013B9B1ACC
S113032023F0030304331344002142F8041B9342D3
S1130330FBD10F4B0F4A22F07F029A60D3F888203A
S113034042F47002C3F88820BFF34F8FBFF36F8F5E
S1130350094B9847094B9847FEE700BF000000206F
S1130360B41000003C000020B40200203C00002037
S113037000ED00E000000000DD0F0000D10F0000E0
S11303802D4B1022C3F81421C3F8082102F1804236
S1130390C3F828214FF04041C3F8281193F84421B1
S11303A002F0FE0242F0010283F8442193F8322164
S11303B002F0F00242F0020283F832212022C3F854
S11303C01421C3F8082102F18042C3F82821C3F89C
S11303D0281193F8452102F0FE0242F0010283F84D
S11303E0452193F8322102F00F0242F0200283F8F3
S11303F032218022C3F8042102F1804202F5003246
S1130400C3F828210D4AC3F8282193F8472102F0A4
S1130410FB0283F8472193F8472102F0FE0242F0E1
S1130420010283F8472193F8332102F00F0242F0CE
S1130430200283F83321704700800041000002C08D
S1130440054B4022C3F81021C3F88C20034A136AD9
S113045043F0040313627047001C0040000800408E
S113046008B5044B984704490448054B9847054B85
S1130470984708BD4104000000080043840200209E
S11304803D0B00008103000008B50248024B984769
S113049008BD00BF10E000E0090B000008B5204BC8
S11304A09847204B0222C3F81421C3F8082102F113
S11304B08042C3F828214FF04041C3F8281193F833
S11304C0412102F0FE0283F841214FF48042C3F837
S11304D01421C3F808214FF04022C3F82821C3F89F
S11304E0281193F84E2102F0FE0283F84E214FF0BA
S11304F00042C3F81421C3F808214FF08042C3F826
S1130500282102F18022C3F8282193F85F2102F008
S1130510FE0283F85F21044B9847044B984708BDBB
S1130520650C0000008000416104000089040000A3
S113053010B4016002714371019B83605DF8044B48
S1130540704770B5044616461D46006843689B68AC
S1130550984720684368DB683146984720684368B9
S11305601B682946984770BD2DE9F04104460E46A4
S1130570174698469DF8185083681B6898470346A9
S1130580012D0AD06DB1022D0FD0A26855683A46EC
S113059031462046A847BDE8F08140EA0803DBB2B3
S11305A0F3E720EA0803DBB2EFE780EA0803DBB2F3
S11305B0EBE72DE9F8439DF82040013CA14204DC1F
S11305C09DF82440013CA24201DDBDE8F8831E46AB
S11305D00C4607469DF82850B2FBF5F5A2EBC50280
S11305E0012303FA02F85FFA88F983681B680A4654
S11305F0294698470346012E09D066B1022E0ED033
S1130600BA685668224629463846B047DDE749EAC3
S11306100003DBB2F4E720EA0803DBB2F0E789EA7F
S11306200003DBB2ECE7F8B506460F461C4600684B
S113063043689B681146984730684368DB682146E5
S113064098477C1E9DF81850013D57FA85F530688F
S113065043681B6814F8011F9847AC42F7D1F8BDF2
S11306602DE9F047054688469246006818B143686C
S11306701B6900219847BAF1000F02D00027B94640
S113068010E0BDE8F087AB685E684B462246394609
S11306902846B0470134E4B2A045F4D10137FFB293
S11306A0BA4504D04C46B8F1000FECD1F6E7BDE8EA
S11306B0F08710B4047902FB0433C2681344581E53
S11306C09DF80420013A53FA82F211F8013B00F834
S11306D0013F9042F9D15DF8044B704710B404799E
S11306E0C06801FB04018B545DF8044B7047037927
S11306F0C06801FB0301885C7047000030B585B019
S1130700082502954579019504790094014CA04788
S113071005B030BDB305000010B582B09DF810409F
S11307200094024CA04702B010BD00BF6905000050
S113073070B582B004460D46044900910021044E70
S1130740B047E560204602B070BD00BF0000002045
S1130750310500002DE9F04383B004460E461746E8
S113076098469DF8285000951830DFF81C90C8472B
S1130770009543463A4631462046024CA04703B012
S1130780BDE8F08327060000B306000010B584B06E
S1130790082402942024019480240094014CA0474E
S11307A004B010BDB30500002DE9F04104460D4628
S11307B016461F461830DFF81880C0473B463246BD
S11307C029462046014CA047BDE8F08143050000BE
S11307D0DD06000008B51830014B984708BD00BF7E
S11307E0EF06000010B582B09DF810400094024C52
S11307F0A04702B010BD00BF690500002DE9F04319
S113080083B0044689461746984600F10C05104B00
S113081000932023802229460E4EB0479DF82C30A9
S113082000939DF828304246394628460A4DA84789
S113083020238022494604F11800084DA8470422C9
S113084080212046064B9847204603B0BDE8F0833C
S11308501400002031050000D10900003107000018
S1130860610600000160426070470000F8B500F0C6
S11308701F0301259D404409E40104F1824404F569
S1130880004465618FB23846024EB047A5613846D0
S1130890B047F8BD1D0B0000F0B583B0064602AFAB
S11308A007F8011D0068B37A03F01F02012404FA5B
S11308B002F25B090D4D05EBC3139A61337A03F021
S11308C01F0204FA02F25B0905EBC3135A610368C1
S11308D0224639469847337A03F01F0294405B0955
S11308E005EBC315AC6103B0F0BD00BF008000414F
S11308F000207047F0B583B0064602AF07F8011D2B
S11309000068B37A03F01F02012404FA02F25B09BF
S11309100D4D05EBC3135A61337A03F01F0204FA39
S113092002F25B0905EBC3135A6103682246394698
S11309309847337A03F01F0294405B0905EBC31513
S1130940AC6103B0F0BD00BF0080004108B501F008
S1130950070141F0B001014B984708BDF5080000BC
S113096070B506460D46C1F3021141F01001034C67
S1130970A04705F00F013046A04770BDF508000000
S113098008B501F03F0141F04001014B984708BD13
S1130990F508000008B50A21407A014B984708BDC4
S11309A06D08000008B5AF21014B984708BD00BF92
S11309B0F508000070B506460C468121034DA84792
S11309C021463046A847204670BD00BFF508000008
S11309D070B5044616461D46264A274B984726728C
S11309E065729DF81030A3722046244B9847A821C5
S11309F02046234DA8471F212046A847D32120463F
S1130A00A84700212046A84740212046A847A12105
S1130A102046A847C8212046A847DA212046A847EF
S1130A2002212046A8478F212046164B9847A4212F
S1130A302046A847A6212046A847D5212046A847F6
S1130A4080212046A8478D212046A847142120460E
S1130A50A847DB212046A84740212046A847D921A2
S1130A602046A847F1212046A8472046064B984730
S1130A70204670BD2800002065080000950900008C
S1130A80F5080000B5090000A509000001607047E1
S1130A900160704730B583B0124B01229A6012484E
S1130AA098624FF0404199629A60986299629A60A4
S1130AB0986299629A619A619A610C4901F500758C
S1130AC00023019300930A4A28460A4CA0470A4C83
S1130AD029462046094B984721460948094B98471F
S1130AE003B030BD008000410100004058000020E8
S1130AF090020020FD070000A00200208D0A0000E3
S1130B009C020020910A000008B5024B1860024BB9
S1130B10984708BD80020020610F000010B5044B07
S1130B201C68044B984701462046034B984710BD68
S1130B30800200204D0C0000750F000038B50D46F2
S1130B400446B8B1081C18BF012040220A490B4BC7
S1130B509847204640F8045F2946094B98470028E7
S1130B6007DB4FF40043A382064B2361064BE3608B
S1130B70002038BD0020E8E724100000450C0000E8
S1130B808D0D0000090C0000CD0B000030B585B0C0
S1130B900C46054690B1081C18BF0120B322084931
S1130BA0084B98472368019363680293A3680393EF
S1130BB001A9281D044B984705B030BD0020EDE77E
S1130BC024100000450C0000810E000070B584B0B4
S1130BD00E4615460446A3220849003018BF0120DA
S1130BE0074B9847002302930196039501A9A4F1AA
S1130BF00C00044B984704B070BD00BF24100000E3
S1130C00450C00008D0B000070B584B00E461546EF
S1130C10044687220849003018BF0120074B984733
S1130C20029600230193039501A9A4F10C00044B3F
S1130C30984704B070BD00BF24100000450C0000AC
S1130C408D0B000000B900BE70470000C0EB00101F
S1130C50C0000138024BA3FB0030C00801307047CC
S1130C60CDCCCCCC08B5084A13889BB21380074B73
S1130C709847074B9847074B9847074B984740F6C8
S1130C80FF70064B984708BD00400041D10C00009E
S1130C90E50C0000C50C0000010D0000A10C0000D3
S1130CA010F0010F08D0054A054B1A62194643F6A5
S1130CB0FD724B681342FCD1704700BF0101010073
S1130CC0001C00400122014B5A717047000800408B
S1130CD0034BDA6902F47C52DA6101221A74704718
S1130CE000140040044A054B9A611A46136913F034
S1130CF0020FFBD0704700BF06260003001000401F
S1130D007047000000B583B00D4B9B78DBB20193B4
S1130D10019B13F0020F06D00A4B1B681BB1084A53
S1130D205068984709E0019B13F0010F05D0054B6B
S1130D305B6813B1024A5068984703B05DF804FB3E
S1130D4000000241A402002070B489B006466C463B
S1130D500D4D0FCD0FC495E80F0084E80F00009BE4
S1130D60B3420DD0314601AB012053F8042B8A4223
S1130D7007D001300828F8D1002009B070BC7047B2
S1130D800020C0B2F9E700BF4010000038B50546A6
S1130D900C460846364B984706280CD0002D55D0F3
S1130DA040F63C123349201C18BF0120324B9847AF
S1130DB06FF00C0038BD002D51D140F63C122D4986
S1130DC000202D4B9847E36913F0010F19D1E36913
S1130DD013F0030FFBD1236813F0020F0BD0236829
S1130DE023F002032360E36913F0030FFBD1E369EB
S1130DF013F0020FFBD10D232360E36913F0030FFB
S1130E00FBD1E36913F0010FFBD12C6040F606120D
S1130E101849201C18BF0120174B9847174B236013
S1130E20E36913F0030FFBD14FF400336360E3690C
S1130E3013F0170FFBD177232373002084F83000BD
S1130E4001232B7140F2FF13EB8038BD40F63C12B6
S1130E5008490020084B98476FF00C0038BD40F655
S1130E603C120449201C18BF0120034B9847AAE7F1
S1130E70490D000078100000450C00000C00300003
S1130E802DE9F84381460E460468D1F800804D6888
S1130E900779A8B1201C18BF01204FF42A622E49FB
S1130EA02E4B9847E36913F0070F34D1E06910F033
S1130EB00300FBD1236813F0020F30D0024608E090
S1130EC00020EAE7013213F0800F12D1B3688342A5
S1130ED01ED9237EDBB213F0040F24D0A16A002DA7
S1130EE0F0D02970012F91BF0135090A69700235CC
S1130EF0E8E74FF6FF736383802323766FF01200D5
S1130F00237E13F0030FFBD003232376BDE8F8837D
S1130F109342DED8F4E76FF00300BDE8F8836FF086
S1130F201300BDE8F8839042CDD813F0010FCAD066
S1130F30B9F80610B8F1000F0BD098F80010012F83
S1130F4091BF08F1010898F801E041EA0E2108F187
S1130F5002080130A162B6E778100000450C0000D9
S1130F60034B6FF07F425A6005221A60704700BF3E
S1130F7010E000E00B0E03B330B45D1EEDB2284662
S1130F80124A6FF07F4454609460136813F4803FF6
S1130F90FBD00138C0B2FF28F5D1A5EB056501F1FE
S1130FA07F4101312944094B596099601A461368FD
S1130FB013F4803FFBD030BC7047044B59609960F8
S1130FC01A46136813F4803FFBD0704710E000E02A
S1130FD008B5014B9847FEE7D102000070B50D4EED
S1130FE00D4CA41BA4100025A54209D10B4E0C4C9A
S1130FF000F050F8A41BA4100025A54205D170BD33
S113100056F8253098470135EEE756F825309847CD
S11310100135F2E7A0100000A0100000A0100000AD
S1131020A41000002E2E2F68616C2F7372632F683A
S1131030616C5F7370695F6D5F73796E632E6300BB
S113104000300040003400400020014100400141D4
S1131050000000430004004300080043000C004368
S1131060000000000000000000000000000000007C
S113107000000000000000002E2E2F68706C2F73FB
S11310806572636F6D2F68706C5F736572636F6DEB
S11310902E630000F8B500BFF8BC08BC9E4670473C
S11310A089020000F8B500BFF8BC08BC9E46704732
S10710B065020000D1
S11310B4EF060000DD060000B3060000FD06000094
S11310C419070000D5070000A90700005507000010
S11310D48D070000E507000099080000F1080000EE
S10F10E44D0900006109000081090000B2
S9030000FC
