S01700004152494E435F496E746572666163652E73726563B0
S214000000881601206D0900006909000069090000D2
S2140000106909000069090000690900000000000085
S2140000200000000000000000000000006909000059
S2140000306909000000000000690900006909000065
S21400004069090000690900006909000069090000E3
S21400005069090000690900006909000069090000D3
S214000060690900006909000069090000456100008F
S214000070614F0000714F000069090000814F0000C9
S214000080914F0000A14F0000B14F0000C14F00008B
S214000090D14F0000E14F0000690900006909000027
S2140000A06909000069090000690900006909000083
S2140000B06909000069090000690900006909000073
S2140000C06909000069090000690900006909000063
S2140000D06909000069090000690900006909000053
S2140000E06909000069090000000000000000000027
S2140000F000000000690900006909000069090000A5
S2140001006909000069090000690900006909000022
S2140001106909000069090000690900006909000012
S2140001206909000069090000690900006909000002
S21400013069090000690900006909000069090000F2
S21400014069090000690900006909000069090000E2
S21400015069090000690900006909000069090000D2
S21400016069090000690900006909000069090000C2
S214000170690900006909000069090000A943000038
S214000180DDAF0000EDAF0000FDAF00000DB00000D9
S21400019069090000397A0000690900006909000051
S2140001A06909000069090000690900006909000082
S2140001B0557A000069090000690900006909000015
S2140001C06909000069090000690900006909000062
S2140001D06909000069090000690900006909000052
S2140001E0690900006909000069090000D986000055
S2140001F069090000F5860000690900001187000003
S2140002002D87000049870000658700006909000007
S2140002106909000069090000690900006909000011
S2140002206909000069090000690900006909000001
S21400023069090000690900006909000069090000F1
S21400024069090000690900006909000069090000E1
S21400025069090000690900006909000069090000D1
S2140002606909000010B5054C237833B9044B13B167
S2140002700448AFF300800123237010BD1C06002045
S21400028000000000201201000C4B43B10C480D4941
S21400029010B5AFF300800C48036823B910BD0A48B8
S2140002A0036833B97047094B002BF7D0BDE8104000
S2140002B01847064B002BF5D0184700BF000000007B
S2140002C0201201002006002020120100000000007D
S2140002D070470000F8B5064F064E074D3A463146C1
S2140002E02846064CA0473A463146281DA047F8BD8A
S2140002F000000020D10200003806002025E30000A0
S21400030010B40A6802604C6852F80C2C8450896855
S214000310026852F8102C815010BC704710B40A685E
S21400032002604C6852F80C2C84508968026852F8B7
S214000330102C815010BC704730B4104D456005F14C
S2140003402003836005F14003C36005F1600300F1FC
S214000350200405F1E00200F1A001154641F8043F33
S21400036044F8042F04330432AB42F7D100F1A4035F
S214000370036100F12403436130BC7047440600204B
S214000380002314E00133202B0CD08268D25C002AB4
S214000390F8D0CC789442F5D1026952F823200C6844
S2140003A01460EFE710BC70470133202B05D082683D
S2140003B0D25C002AF8D010B4EBE77047002318464A
S2140003C041FA03F202F0010242EA4000C0B20133F1
S2140003D0082BF5D1704700002DE9F04F85B0804618
S2140003E008464FF0020A4FF00009234F4E46C34618
S2140003F0224B984704460D465046B847CDE90201C1
S21400040002460B4600201E49DFF88080C0470246A1
S2140004100B46CDE90045204629461A4CA0471A4D02
S214000420A847C4B2DDE9022300201549C04780462C
S21400043089462046B84742464B46DFF85480C047B8
S21400044002460B46DDE90001DFF84880C047A847B2
S2140004500AEB4A039C402643F6B20AF1FF3ABAF189
S214000460FF3FC5D1DBF800301B6831465846984739
S21400047005B0BDE8F08F00BF21F7000001F70000CF
S2140004800000244041FA00004DFD000035E3000066
S214000490EDF7000085F40000014B0360704700BFD5
S2140004A004020100704713788B4209D00120135CC8
S2140004B08B4206D00130C0B21F28F8DD20207047DE
S2140004C00020704710B4002383600139182211F809
S2140004D0013F9340846823438360083A12F1080F73
S2140004E0F5D1184610BC704710B50446D0F8B002D7
S2140004F0034B984784F8AC0294F8AC0210BD00BFDA
S214000500E1060000D0F8B03293F8240170470000EE
S21400051010B504460121D0F8B002034B9847D4F832
S214000520B03293F8240110BDF507000008B5D0F8E6
S214000530B002024B9847002008BD00BF2509000006
S21400054010B5054C2046054B9847054A05492046F8
S214000550054B984710BD00BFA40700208106000089
S214000560000000209105000025E300007047000011
S214000570024B1B68012283F826217047800A002060
S214000580024B1B68012283F824217047800A002052
S21400059038B50446104D05F11003036005F12C0331
S2140005A0C0F8AC3205F14803C0F8BC3200F5C8709C
S2140005B00A4B984705F158012046094B984705F124
S2140005C06C0104F52F70074B984704F52B70064B0B
S2140005D09847204638BD00BF0C020100FD09000008
S2140005E01D030000F90E0000A504000008B503680E
S2140005F053F8103C1844014B984708BD910500007D
S21400060010B50446044B98474FF436712046034B0A
S2140006109847204610BD00BF9105000031E300005A
S21400062008B5036853F8103C1844014B984708BDBA
S2140006300106000038B505692A68D3788B420BD0CE
S214000640012355F82320D4788C4205D00133DBB241
S2140006501F2BF6DD002038BD036853F80C3C11460E
S2140006601844014B984738BDC504000008B5036818
S21400067053F8143C1844014B984708BD3506000053
S21400068038B5044600F52B70104B9847104D05F111
S2140006908003C4F8BC3205F19C03C4F8AC3205F103
S2140006A0580120460B4B984705F11003236005F1CF
S2140006B02C03C4F8AC324835C4F8BC5204F5C870F4
S2140006C0054B9847054B1C60204638BD9904000032
S2140006D00C02010001030000F1090000800A00205E
S2140006E070B50446002380F8553180F87C3180F8D8
S2140006F07D3180F8583180F8593180F85A3180F8C9
S2140007005B3101202A4B984720462A4B984704F530
S214000710C8763046284B984784F87F0101281FD0BA
S21400072026492748274B9847002384F88031264DD2
S2140007302846264B98474FF47A7225492846254E78
S214000740B0474FF4FA7224492846B0472349572049
S214000750234B98472846234B984794F8800170BD52
S214000760012384F88031002584F8245184F825512B
S214000770C4F8845184F855511D2384F8883184F8D0
S2140007808951C4F82751C4F82B51C4F82F51C4F826
S21400079033513046144B98473046144B98473046F2
S2140007A0134B984784F88A5184F88B51BFE700BFF3
S2140007B06D26000039030000A90D000000030100AB
S2140007C0F812002059DF0000D812002095D700004C
S2140007D06D05000059D80000710500008105000075
S2140007E035270000E5D70000990A0000190B000025
S2140007F0610C00002DE9F04FC3B006468B462B492E
S2140008002B482C4B9847BFF35F8F72B64FEA4B18B6
S214000810A8F190085FFA88F80BF104035B01DBB2DD
S21400082001930024254606F5C877DFF89090DFF898
S21400083090A041463846C84786F87E0110F0010F62
S21400084011D106F5B27201993846D047D6F8643110
S21400085042AA02EB8404A4F5807423600135EDB24D
S2140008602C463F2DE5DDBFF35F8F62B6BBF1010F6F
S21400087018D0BBF1020F04BF002386F8253164B1FF
S21400088000210D460C4F02AB03EB81013046B84702
S2140008900135EDB22946A542F5DB96F87E0143B058
S2140008A0BDE8F08F002386F82431E8E74403010012
S2140008B0F812002059DF000081030000250D00001B
S2140008C0650B000038B504460D46036853F80C0C5B
S2140008D062682044114B984784F88C01636953F88A
S2140008E02020D37891780B435178002918BF43F025
S2140008F001030BB9284638BD1368C4F86031BFF34E
S2140009005F8F72B604F5B0720C2104F5C870044B04
S2140009109847BFF35F8F62B6ECE700BFA7040000FE
S214000920E10B000070B505464FF480220C4BC3F86F
S214000930142100240B4E02E00134202C06D06B68F4
S214000940195D0029F8D02846B047F5E7002385F85A
S21400095026314FF48022024BC3F8182170BD00BF29
S21400096000800041C5080000FEE7000008B5174BF0
S214000970174A9A4210D0174B144A9A420CD2013B9F
S2140009809B1A23F0030304331344114951F8040B54
S21400099042F8040B9A42F9D10F4B104A9A420AD2F7
S2140009A0013B9B1A23F0030304331344002142F84F
S2140009B0041B9342FBD10A4A0A4B23F07F03936041
S2140009C0094B9847094B9847FEE700BF00000020F8
S2140009D0201201001C060020881600201C0600209D
S2140009E000ED00E000000000C1FD0000790E0000F0
S2140009F0014B8361704700BF840A002070470000E7
S214000A0008B58069034B98474FF48042024BC3F801
S214000A10142108BDC5D500000080004108B54FF47C
S214000A208042034BC3F818218069024B984708BDE3
S214000A300080004189D6000030B583B004468DF8AA
S214000A4007100A4DA069A8470028FBD001220DF127
S214000A500701A069064B9847044DA069A8470028DF
S214000A60FBD09DF8070003B030BD00BFA9D600003C
S214000A7001D6000070B504460E461546044B98474E
S214000A8025B1044DA069A8470028FBD0304670BDAC
S214000A90390A0000A9D600002DE9F04106460C4BA5
S214000AA098470122142130460A4B98470A4D05F113
S214000AB020044FF00108074F424614F8011D304647
S214000AC0B847AC42F8D13046044B9847BDE8F081B1
S214000AD0010A0000750A00000C0D01001D0A000046
S214000AE030B583B004460A4DA069A8470028FBD05D
S214000AF001220DF10701A069064B9847044DA06935
S214000B00A8470028FBD09DF8070003B030BD00BF03
S214000B10A9D6000045D600002DE9F04106460D4B4B
S214000B2098470122282130460B4B98470B4D05F17C
S214000B303C041C354FF00108074F424614F8011DCF
S214000B403046B847AC42F8D13046054B9847BDE82A
S214000B50F08100BF010A0000750A0000840A002028
S214000B601D0A00002DE9F04105460C469046A029D6
S214000B7019D0C02914BF0326042628460B4B9847D5
S214000B80214628460A4B984700240A4F2846B8476D
S214000B9008F804000134E4B2B442F7DB2846064BFA
S214000BA09847BDE8F0810426E7E700BF010A000089
S214000BB0390A0000E10A00001D0A000070B504466C
S214000BC00E461546044B984725B1044DA069A84724
S214000BD00028FBD0304670BD390A0000A9D60000B8
S214000BE02DE9F04105460C461646194B9847182C39
S214000BF029D02C2C27D00422164B83F83C20012227
S214000C0021462846144B9847124B002283F83D2075
S214000C1093F83C3093B113464FF001080E4F0D4C3D
S214000C204246F15C2846B84794F83D300133DBB2C3
S214000C3084F83D3094F83C209342F1DB2846074B7D
S214000C409847BDE8F0810322024B83F83C20D6E7A4
S214000C50010A0000840A0020BD0B00001D0A0000E7
S214000C6070B504460D4B1A7842715A7882719B789B
S214000C70C371461D32461821094DA847094B93F803
S214000C804020627193F84120A27193F84230E371DC
S214000C9032462C212046A84770BD00BF0400002025
S214000CA0E10B0000840A002038B504460D46074BC9
S214000CB0984729462046064B9847064DA069A84700
S214000CC00028FBD02046044B984738BD010A000098
S214000CD0390A0000A9D600001D0A000070B50446B7
S214000CE00D4616460B4B9847294620460A4B984712
S214000CF00A4DA069A8470028FBD031462046064B7F
S214000D009847064DA069A8470028FBD02046044B0C
S214000D10984770BD010A0000390A0000A9D60000F5
S214000D201D0A000038B504460D46084B98470122B8
S214000D3029462046064B98472046064B98470546C8
S214000D402046054B9847284638BD00BF010A0000DC
S214000D50BD0B0000E10A00001D0A0000F8B50446BD
S214000D600D4617461E4604210C4B98472A46382146
S214000D7020460B4DA8479DF8182042EA47129DF8DA
S214000D801C3042EA831242EA0612D2B208212046FA
S214000D90A84780212046034B9847F8BDA90C0000C1
S214000DA0DD0C0000250D0000F0B583B00446806918
S214000DB01B4B9847402301930023009301220421F4
S214000DC02046184CA047184F7A1E184B1F3702F1C2
S214000DD0010CDFF864E012F8015F5D70A2EB0C0115
S214000DE0DEF80040D4F8B062B66875545E78D4F881
S214000DF0B052ED686E5413F8015FD4F8B0426468E0
S214000E006554BA42E7D10A4B0A4A117883F8401073
S214000E10517883F84110927883F8422003B0F0BDF1
S214000E207DD500005D0D00000C0D01009F0A00201E
S214000E30840A0020040000207C0A002010B5054C1F
S214000E4005492046054B9847054A06492046064B65
S214000E50984710BD840A00201014002041D50000D9
S214000E600000002069D5000025E300000122014BA8
S214000E701A707047C70A002008B5144B9847C82058
S214000E80134B9847134B1868134B98474FF4FA7256
S214000E9012491348134B9847134C0E4D134E02E05D
S214000EA02868B04770B92378002BF9D02868104B13
S214000EB09847002323704FF4FA7208490848094BF4
S214000EC09847F0E728680B4B9847ECE7090F0000B7
S214000ED0A12600007C0A0020E90400006D0E000038
S214000EE0D812002081D80000C70A0020050500009F
S214000EF02D050000110500000A680260496852F8D6
S214000F000C2C81507047000080B500AF034B98470B
S214000F10034B9847034B984700BF80BD91220000C3
S214000F20E1B6000075B6000080B485B000AFF8608A
S214000F300B467A60FB72FA7AFB682032796843F8CF
S214000F40221000BF1437BD465DF8047B704780B49E
S214000F5083B000AF78607B681B6943F480627B686F
S214000F601A6100BF0C37BD465DF8047B704780B43D
S214000F7083B000AF78607B681B6943F400527B68DF
S214000F801A6100BF0C37BD465DF8047B704780B41D
S214000F9083B000AF78607B681B6943F480227B686F
S214000FA01A6100BF0C37BD465DF8047B704780B4FD
S214000FB083B000AF78607B681B6943F400127B68DF
S214000FC01A6100BF0C37BD465DF8047B704780B4DD
S214000FD083B000AF78607B685B6943F480727B689F
S214000FE05A6100BF0C37BD465DF8047B704780B47D
S214000FF083B000AF78607B685B6943F400727B68FF
S2140010005A6100BF0C37BD465DF8047B704780B45C
S21400101083B000AF78607B685B6943F480627B686E
S2140010205A6100BF0C37BD465DF8047B704780B43C
S21400103083B000AF78607B685B6943F400527B68DE
S2140010405A6100BF0C37BD465DF8047B704780B41C
S21400105083B000AF78607B685B6943F480427B684E
S2140010605A6100BF0C37BD465DF8047B704780B4FC
S21400107083B000AF78607B689B6943F001027B68B1
S2140010809A6100BF0C37BD465DF8047B704780B49C
S21400109083B000AF78607B689B6943F002027B6890
S2140010A09A6100BF0C37BD465DF8047B704780B47C
S2140010B083B000AF78607B689B6943F080027B68F2
S2140010C09A6100BF0C37BD465DF8047B704780B45C
S2140010D083B000AF78607B689B6943F400627B68EE
S2140010E09A6100BF0C37BD465DF8047B704780B43C
S2140010F083B000AF78607B689B6943F480527B685E
S2140011009A6100BF0C37BD465DF8047B704780B41B
S21400111083B000AF78607B689B6943F400527B68BD
S2140011209A6100BF0C37BD465DF8047B704780B4FB
S21400113083B000AF78607B68DB6943F020027B6891
S214001140DA6100BF0C37BD465DF8047B704780B49B
S21400115083B000AF78607B68DB6943F040027B6851
S214001160DA6100BF0C37BD465DF8047B704780B47B
S21400117083B000AF78607B68DB6943F400527B681D
S214001180DA6100BF0C37BD465DF8047B704780B45B
S21400119083B000AF78607B681B6A43F001027B680F
S2140011A01A6200BF0C37BD465DF8047B704780B4FA
S2140011B083B000AF78607B681B6A43F002027B68EE
S2140011C01A6200BF0C37BD465DF8047B704780B4DA
S2140011D083B000AF78607B681B6A43F004027B68CC
S2140011E01A6200BF0C37BD465DF8047B704780B4BA
S2140011F083B000AF78607B681B6A43F008027B68A8
S2140012001A6200BF0C37BD465DF8047B704780B499
S21400121083B000AF78607B681B6A43F020027B686F
S2140012201A6200BF0C37BD465DF8047B704780B479
S21400123083B000AF78607B681B6A43F040027B682F
S2140012401A6200BF0C37BD465DF8047B704780B459
S21400125085B000AFF8600B467A60FB72FB7AFA68DE
S214001260DB01134408337A681A6000BF1437BD46A2
S2140012705DF8047B704780B485B000AFF8600B461D
S2140012807A60FB72FB7AFA68DB01134404337A68EF
S2140012901A6000BF1437BD465DF8047B704780B403
S2140012A085B000AFF8600B467A60FB72FB7AFA688E
S2140012B0DB01134418337A681A6000BF1437BD4642
S2140012C05DF8047B704780B485B000AFF8600B46CD
S2140012D07A60FB72FB7AFA68DB01134414337A688F
S2140012E01A6000BF1437BD465DF8047B704780B4B3
S2140012F085B000AF7860084611461A460346FB7074
S2140013000B46BB7013467B70FA78BB787968D201BF
S2140013100A44134430331B78FB73FB7B23F00F0324
S214001320FB737B7803F00F03DAB2FB7B1343FB738C
S214001330FA78BB787968D2010A4413443033FA7BD2
S2140013401A7000BF1437BD465DF8047B704780B442
S21400135085B000AF7860084611461A460346FB7013
S2140013600B46BB7013467B70FA78BB787968D2015F
S2140013700A44134430331B78FB73FB7B03F00F03E4
S214001380FB737B781B01DAB2FB7B1343FB73FA78A3
S214001390BB787968D2010A4413443033FA7B1A705A
S2140013A000BF1437BD465DF8047B704780B485B037
S2140013B000AF7860084611461A460346FB700B4697
S2140013C0BB7013467B70FA78BB787968D2010A4402
S2140013D0134440331B78FB73FB7B23F00103FB7342
S2140013E07A78FB7B1343FB73FA78BB787968D20173
S2140013F00A4413444033FA7B1A7000BF1437BD46C4
S2140014005DF8047B704790B482B000AF78600B46FE
S214001410FB701346BB70FA78BB78F878B9787C68AE
S214001420C0012044014440310978C9B241F00401AA
S214001430C8B27968D2010A441344403302461A708F
S21400144000BF0837BD4690BC704790B482B000AF6E
S21400145078600B46FB701346BB70FA78BB78F8785A
S214001460B9787C68C0012044014440310978C9B28B
S21400147021F00401C8B27968D2010A44134440330B
S21400148002461A7000BF0837BD4690BC704780B44D
S21400149085B000AFF8600B467A60FB72FB7AFA689C
S2140014A0DB01134428337A681A6000BF1437BD4640
S2140014B05DF8047B7047000080B582B000AF03463D
S2140014C03960FB711346BB71BB79012B1CD0022B14
S2140014D037D0002B4ED1FB793A6819462A482B4B59
S2140014E098473B689BB243F08042FB7919462648F2
S2140014F0274B98473B681B0C43F04042FB79194644
S2140015002148234B98473AE0FB793A6819461E482B
S2140015101E4B98473B689BB243F0804343F400332E
S214001520F9791A4618481A4B98473B681B0C43F043
S214001530404343F40033F9791A461348144B98474E
S2140015401DE0FB793A6819460F48124B98473B68EE
S2140015509BB243F08042FB7919460B480C4B9847E8
S2140015603B681B0C43F04042FB7919460648084B83
S214001570984704E0462208490020084B984700BFD9
S2140015800837BD4680BD00BF0080004177120000CE
S2140015908F1400004F1200002C0D0100613C00006B
S2140015A080B582B000AF03463960FB711346BB714D
S2140015B0BB79002B06D0FB793A6819460648074BDC
S2140015C0984705E0FB793A6819460348044B984764
S2140015D000BF0837BD4680BD008000419F12000056
S2140015E0C712000080B582B000AF0346FB710B4601
S2140015F0BB7113467B717B79012B0AD0022B1FD05F
S214001600002B34D1BA79FB7919461E481E4B9847F1
S21400161033E0BB7901229A40FB79194619481B4BE7
S2140016209847BA79FB7919461648194B9847BB79FB
S21400163001229A40FB7919461248164B98471CE03F
S214001640BB7901229A40FB7919460E480F4B984702
S214001650BA79FB7919460B480D4B9847BB7901229E
S2140016609A40FB79194607480B4B984705E08922B4
S2140016700A4900200A4B984700BF00BF0837BD46FE
S21400168080BD00BF008000414B14000077120000B0
S214001690071400009F120000C71200002C0D010066
S2140016A0613C000090B585B000AF786039607B681B
S2140016B05B09FB737B68DBB203F01F03BB733B68FD
S2140016C0B3F1FF3F06D1BA7BF97B00231248134CD7
S2140016D0A0471DE0BA7BF97B01230F480F4CA047BB
S2140016E0BB7B03F00103002B09D0BB7B5B08DAB29F
S2140016F03B68DBB2F97B0848094CA04708E0BB7B97
S2140017005B08DAB23B68DBB2F97B0348054CA047BE
S21400171000BF1437BD4690BD00800041AD130000E9
S2140017204F130000EF12000080B582B000AF0346F2
S2140017300A46FB711346BB71FB795B09D8B2FB798D
S21400174003F01F03DBB2BA791946034B984700BF74
S2140017500837BD4680BD00BFE515000080B582B0E5
S21400176000AF7860396039687868034B984700BFE7
S2140017700837BD4680BD00BFA516000080B582B004
S21400178000AF03460A46FB711346BB71FB795B0943
S214001790D8B2FB7903F01F03012202FA03F3BA79E9
S2140017A01946034B984700BF0837BD4680BD00BFAB
S2140017B0B914000080B582B000AF03460A46FB713C
S2140017C01346BB71FB795B09D8B2FB7903F01F03A4
S2140017D0012202FA03F3BA791946034B984700BF71
S2140017E00837BD4680BD00BFA115000080B500AF1C
S2140017F0014B984700BF80BD6D48000080B582B0A1
S21400180000AF786039607B68002B04D03B68002B03
S21400181001D0012300E0002303F00103DBB24822DD
S21400182007491846074B98477B683A681A607B68F2
S2140018301846054B9847034618460837BD4680BDF0
S214001840480D0100613C000019B1000080B500AFF2
S2140018500448054B984705490548064B984700BF7E
S21400186080BD00BF000800408F100000002000412F
S214001870CC1500202126000080B500AF44220421AC
S2140018803F48404B98474048404B984701214020EE
S2140018903F4B9847002140203E4B98474FF480012D
S2140018A040203D4B984701212120394B9847002185
S2140018B02120384B98474FF404112120364B984787
S2140018C001210320324B984702210320314B9847D1
S2140018D04FF440310320304B9847012104202C4B15
S2140018E09847022104202B4B98474FF48021042070
S2140018F0294B984701210520254B984702210520B2
S214001900244B98474FF4A0210520234B98470121EC
S21400191056201F4B9847022156201E4B98474FF4DF
S214001920AC0156201C4B984701215720184B98476E
S21400193002215720174B98474FF4AE015720164BFD
S214001940984701212820124B984700212820114B48
S21400195098474FF4201128200F4B98470121292043
S2140019600B4B9847002129200A4B98474FF4241127
S2140019702920094B9847094B984700BF80BD00BFF8
S214001980001C0040290F0000000800400F10000057
S2140019907D170000291700005D170000E9260000EB
S2140019A080B500AF44220B210748084B98474422D5
S2140019B00C210548054B98470548064B9847064BAB
S2140019C0984700BF80BD00BF001C0040290F0000E4
S2140019D000080040AF100000D526000080B500AF1C
S2140019E001212B202B4B984700212B202A4B984770
S2140019F02A492B202A4B984702210820254B984736
S214001A0000210820274B984700210820224B9847A2
S214001A1025490820224B9847022109201D4B98474C
S214001A20002109201F4B9847002109201A4B984790
S214001A301E4909201A4B984702210A20154B984741
S214001A4000210A20174B984700210A20124B98477E
S214001A5017490A20124B984702210B200D4B984736
S214001A6000210B200F4B984700210B200A4B98476C
S214001A7010490B200A4B984701212A20054B98470E
S214001A8000212A20044B98470B492A20044B9847EC
S214001A9000BF80BD7D1700002917000007002B003F
S214001AA05D170000B51700000700080007000900D2
S214001AB007000A0007000B0007002A0080B500AFE9
S214001AC00548064B98470448054B98470248054B7F
S214001AD0984700BF80BD00BF000800406F0F0000A1
S214001AE0AF0F00006F11000080B500AF044B9847A1
S214001AF004490548054B9847054B984700BF80BDED
S214001B00BD1A00000034004280140020BD2A0000E8
S214001B10DD19000080B500AF0248034B984700BFB0
S214001B2080BD00BF00080040EF0F000080B500AF8A
S214001B30034B984703490448044B984700BF80BDB1
S214001B40151B000000240040A8150020C524000036
S214001B5080B500AF01211020074B98470749102099
S214001B60074B984701211120034B98470549112040
S214001B70034B984700BF80BD2917000002001000E5
S214001B805D1700000200110080B500AF4222082158
S214001B900648074B98474A2203210448044B9847B7
S214001BA00448054B984700BF80BD00BF001C00409E
S214001BB0290F0000000800402F10000080B500AF7D
S214001BC0044B984704490548054B9847054B9847EA
S214001BD000BF80BD891B00000034004000150020B7
S214001BE0B1290000511B000080B500AF00213B204A
S214001BF0114B984702213B20104B984710493B2039
S214001C00104B984700213A200B4B984702213A2068
S214001C100A4B98470C493A200A4B984701213C202A
S214001C20064B984700213C20084B984708493C2023
S214001C30044B984700BF80BDB51700007D17000015
S214001C4003003B005D17000003003A002917000060
S214001C5003003C0080B500AF452222210648074B12
S214001C6098474A2203210448044B98470448054BEA
S214001C70984700BF80BD00BF001C0040290F000031
S214001C80000800408F11000080B500AF054B984754
S214001C904FF086410448054B9847054B984700BFD0
S214001CA080BD00BF551C000028140020CD2B00006E
S214001CB0E91B000080B500AF00211720074B9847AE
S214001CC007491720074B984700211620034B9847D3
S214001CD005491620034B984700BF80BD2917000012
S214001CE0030017005D1700000300160080B500AF64
S214001CF0442223210648074B98474A2203210448DA
S214001D00044B98470448054B984700BF80BD00BF6A
S214001D10001C0040290F000000080040AF11000022
S214001D2080B500AF044B984704490548054B9847D3
S214001D30054B984700BF80BDED1C00000004004323
S214001D40C4140020B1290000B51C000080B500AF07
S214001D5000214420114B984702214420104B9847FD
S214001D6010494420104B9847002145200B4B9847BC
S214001D70022145200A4B98470C4945200A4B9847B4
S214001D8001214720064B984700214720084B9847DB
S214001D9008494720044B984700BF80BDB517000090
S214001DA07D170000020044005D1700000200450099
S214001DB0291700000200470080B500AF4222242108
S214001DC00648074B98474A2203210448044B984785
S214001DD00448054B984700BF80BD00BF001C00406C
S214001DE0290F000000080040CF11000080B500AFAA
S214001DF0044B984704490548054B9847054B9847B8
S214001E0000BF80BDB91D000000080043101400206C
S214001E10CD2B00004D1D000080B500AF00216820CE
S214001E20074B984707496820074B984700216920C9
S214001E30034B984705496920034B984700BF80BD70
S214001E4029170000020068005D1700000200690004
S214001E5080B500AF442225210648074B98474A2202
S214001E6003210448044B98470448054B984700BF95
S214001E7080BD00BF001C0040290F00000008004085
S214001E80EF11000080B500AF044B984704490548A1
S214001E90054B9847054B984700BF80BD511E000074
S214001EA0000C004340140020B1290000191E000059
S214001EB080B500AF0848094B9847432209210848D7
S214001EC0084B9847084B984703461A460749084860
S214001ED0084B984700BF80BD000800404F10000028
S214001EE0001C0040290F0000B185000000380040AB
S214001EF0681500205D2E000080B500AF0848094B2D
S214001F00984744221A210848084B9847084B984798
S214001F1003461A4607490848084B984700BF80BD45
S214001F20000800400F110000001C0040290F0000B0
S214001F30B185000000A00141481500205D2E00007C
S214001F4080B500AF0848094B984746221E2108482E
S214001F50084B9847084B984703461A4607490848CF
S214001F60084B984700BF80BD000800402F110000B6
S214001F70001C0040290F0000B1850000001400423C
S214001F80601400205D2E000080B500AF0848094BA5
S214001F90984746221E210848084B9847084B984702
S214001FA003461A4607490848084B984700BF80BDB5
S214001FB0000800404F110000001C0040290F0000E0
S214001FC0B185000000180042A41400205D2E000019
S214001FD080B500AF0848094B984746222721084895
S214001FE0084B9847084B984703461A46074908483F
S214001FF0084B984700BF80BD000800400F12000045
S214002000001C0040290F0000B185000000140043AA
S214002010841400205D2E000080B400AF00BFBD46D3
S2140020205DF8047B7047000080B500AF0448054BA0
S2140020309847402227210448044B984700BF80BD9C
S214002040000800402F120000001C0040290F00006E
S21400205080B500AF064B9847064B9847064B984707
S21400206003461A4605490648064B984700BF80BDFA
S2140020702920000019200000C58500000018004334
S214002080E4140020112A000080B500AF0448054B78
S2140020909847442219210448044B984700BF80BD46
S2140020A000080040CF100000001C0040290F000070
S2140020B080B500AF054B9847054B984703461A4630
S2140020C004490548054B984700BF80BD892000009D
S2140020D0B179000000600141881500205D2E0000E7
S2140020E080B500AF0448054B9847442219210448A0
S2140020F0044B984700BF80BD00080040EF1000006A
S214002100001C0040290F000080B500AF054B984723
S214002110054B984703461A4604490548054B984719
S21400212000BF80BDE1200000B179000000800141C1
S214002130F01300205D2E000080B500AF02211820AD
S2140021400F4B9847002118200E4B98470021182067
S2140021500D4B98470D4918200D4B98470221192022
S214002160074B984700211920064B98470021192055
S214002170054B984707491920054B984700BF80BD77
S2140021807D170000B517000029170000070018008B
S2140021905D1700000700190080B500AF42220A2133
S2140021A00548064B98470648064B98470448064B92
S2140021B0984700BF80BD00BF001C0040290F0000EC
S2140021C0000800404F0F00006F10000080B500AF01
S2140021D0034B9847034B9847034B984700BF80BD77
S2140021E099210000B93600003921000080B500AF03
S2140021F00248034B984700BF80BD00BF0008004060
S214002200CF0F000080B500AF034B98470349044842
S214002210044B984700BF80BDED2100000020004021
S214002220C8150020FD17000080B500AF04492D201A
S214002230044B984704492C20024B984700BF80BDAA
S21400224007002D005D17000007002C0080B500AFCA
S2140022500748084B984743221C210748074B9847D6
S21400226007490848084B9847084B984700BF80BD69
S214002270000800408F0F0000001C0040290F0000DF
S2140022800004004220150020352500002922000009
S21400229080B500AF5E4B9847002107205D4B9847FE
S2140022A0022107205C4B98474FF0FF3107205B4B1D
S2140022B0984701210F20574B984702210F20564B75
S2140022C098474FF0FF310F20544B984701211320B9
S2140022D0504B9847022113204F4B98474FF0FF3141
S2140022E013204E4B984701211B204A4B984702214A
S2140022F01B20494B98474FF0FF311B20474B984710
S21400230001212720434B984702212720424B98471C
S2140023104FF0FF312720414B984701213D203D4B90
S214002320984702213D203C4B98474FF0FF313D2017
S2140023303A4B984701213F20374B984701213F20D1
S214002340374B98474FF0FF313F20344B98470021DA
S2140023504D20304B984702214D202F4B98474FF089
S214002360FF314D202D4B984701214E20294B984791
S21400237002214E20284B98474FF0FF314E20274B26
S214002380984700214F20234B984702214F20224B8D
S21400239098474FF0FF314F20204B9847002152209E
S2140023A01C4B9847022152201B4B98474FF0FF3199
S2140023B052201A4B98471B4B98471B4B98471B4B72
S2140023C098471B4B98471B4B98471B4B98471B4BF4
S2140023D098471B4B98471B4B98471B4B98471B4BE4
S2140023E098471B4B98471B4B98471B4B98471B4BD4
S2140023F098471B4B98471B4B98471B4B98471B4BC4
S21400240098471B4B98471B4B984700BF80BD00BFA3
S214002410ED170000B51700007D1700005D170000DF
S214002420291700004D18000079180000A1190000B7
S214002430E91A00002D1B0000BD1B0000891C0000CF
S214002440211D0000ED1D0000851E0000B11E0000CD
S214002450F91E0000411F0000891F0000D11F000068
S21400246051200000B120000009210000CD2100000D
S214002470052200004D22000080B485B000AF7860D1
S214002480EFF31083FB60FA687B681A6072B6BFF3DE
S2140024905F8F00BF1437BD465DF8047B704780B47D
S2140024A085B000AF7860BFF35F8F7B681B68FB600A
S2140024B0FB6883F3108800BF1437BD465DF8047BC5
S2140024C07047000080B584B000AF786039600023A4
S2140024D0FB607B68002B14BF01230023DBB24FF4A4
S2140024E0E07211491846114B98477B681A683B689A
S2140024F09A4201D1002313E07B681B68002B02D0B0
S2140025006FF011030CE07B683A681A607B68184627
S214002510074B9847F8607B6840F2B2729A61FB6896
S21400252018461037BD4680BD640D0100613C0000B2
S2140025300960000080B584B000AF786039607B68C1
S214002540002B04D03B68002B01D0012300E00023C1
S21400255003F00103DBB241220E4918460E4B9847A2
S2140025607B68396818460D4B9847F860FB68002B67
S21400257001D0FB6809E07B68094A5A607B68094A13
S2140025809A607B68084ADA60002318461037BD4612
S21400259080BD00BF800D0100613C0000BD41000011
S2140025A0AD250000D1250000F525000080B584B0DB
S2140025B000AF78607B68FB60FB68DB69002B03D0AC
S2140025C0FB68DB69F868984700BF1037BD4680BDDA
S2140025D080B584B000AF78607B68FB60FB681B6AE0
S2140025E0002B03D0FB681B6AF868984700BF1037BB
S2140025F0BD4680BD80B584B000AF78600B46FB70EA
S2140026007B68FB60FB685B6A002B05D0FB685B6A37
S214002610FA781146F868984700BF1037BD4680BD67
S21400262080B582B000AF786039607B68002B04D03C
S2140026303B68002B01D0012300E0002303F00103D8
S214002640DBB22B2206491846064B98477B6839684A
S2140026501846054B9847034618460837BD4680BDC2
S2140026609C0D0100613C0000C148000090B583B09D
S21400267000AF0346FB80074B1C68FB881846064BDA
S2140026809847034619462046044B984700BF0C3728
S214002690BD4690BDC80A002015460000A9470000A8
S2140026A090B583B000AF0346FB80074B1C68FB88E1
S2140026B01846064B9847034619462046044B98474B
S2140026C000BF0C37BD4690BDC80A002081470000F9
S2140026D0A947000080B500AF024B9847034618464E
S2140026E080BD00BF7D50000080B582B000AF0023E3
S2140026F0FB800EE0FB880C4ADB0013444FF0FF32F1
S2140027005A60FB88084A002142F83310FB880133E0
S214002710FB80FB88082BEDD90448054B98470346F9
S21400272018460837BD4680BDCC0A00208D2800001C
S214002730014C000080B586B000AF78603960002399
S214002740FB750023BB7500237B7512E0FB7D4D4AAD
S214002750DB0013445A687B689A4207D1FB7D4949DF
S2140027603A6841F8332001237B7505E0FB7D013391
S214002770FB75FB7D082BE9D93B68002B0ED17B7DD2
S21400278083F00103DBB2002B02D06FF00C0374E081
S214002790002178683C4B984703466EE07B7D83F0CB
S2140027A00103DBB2002B5AD00023FB7516E0FB7D3D
S2140027B0344A52F83330002B0DD1FB7D31493A684C
S2140027C041F83320FB7D2F4ADB0013447A685A60B9
S2140027D001237B7505E0FB7D0133FB75FB7D082B34
S2140027E0E5D936E0FB7D274ADB0013445A68BB7DFB
S2140027F02449DB000B445B689A4227D2BB7D214A02
S214002800DB0013445B68B3F1FF3F1FD0BB7D1D495F
S21400281007F10C02DB000B4493E8030082E8030098
S214002820BB7DFA7D17481749DB000344D2000A44F3
S21400283092E8030083E80300FB7D124ADB001344A2
S21400284007F10C0292E8030083E80300BB7D013326
S214002850BB75BB7D082B02D8FB7D082BC2D97B7DC0
S21400286083F00103DBB2002B02D06FF00C0304E010
S21400287001217868044B9847034618461837BD462A
S21400288080BD00BFCC0A0020954D000080B584B006
S21400289000AF78600023FB730923BB732AE0BA7B82
S2140028A0FB7B13445B107B737B7B082B27D87B7BDF
S2140028B0164ADB0013445A687B689A420BD17B7B2E
S2140028C0124A52F83330002B1BD07B7B0F4A52F84B
S2140028D03330984715E07B7B0C4ADB0013445A687C
S2140028E07B689A4203D27B7B0133FB7302E07B7BDF
S2140028F0013BBB73BA7BFB7B9A42D0D202E000BF9F
S21400290000E000BF1037BD4680BD00BFCC0A0020E7
S21400291080B58AB000AFF860B9601346FB80FB68EC
S214002920143B7B627B6A9B8BBB82FB88BB6148F255
S2140029300103FB82BB68FB617B6A07F11402114648
S2140029401846064B984738623B6A002B01D03B6A14
S21400295000E0FB8818462837BD4680BDD56B0000D2
S21400296080B58AB000AFF860B9601346FB80FB689C
S214002970143B7B627B6A9B8BBB82FB88BB614FF4FC
S2140029800043FB82BB68FB617B6A07F114021146B9
S2140029901846064B984738623B6A002B01D03B6AC4
S2140029A000E0FB8818462837BD4680BDD56B000082
S2140029B080B584B000AF786039607B68002B14BFA8
S2140029C001230023DBB25E220C4918460C4B9847C5
S2140029D07B68396818460B4B9847F860FB68002BF5
S2140029E001D0FB6806E07B68074A9A617B68074A65
S2140029F05A61002318461037BD4680BDB80D010049
S214002A00613C0000116A00001129000061290000E5
S214002A1080B584B000AFF860B9607A60FB68002BC0
S214002A2004D0BB68002B01D0012300E0002303F094
S214002A300103DBB233220A4918460A4B9847FB6863
S214002A40B9681846084B9847FB68084A1A60FB683E
S214002A50074A5A60002318461037BD4680BD00BF9F
S214002A60D40D0100613C0000E1810000752A0000E1
S214002A70992A000080B584B000AF78607B68FB6060
S214002A80FB685B69002B03D0FB685B69F8689847B6
S214002A9000BF1037BD4680BD80B584B000AF7860FB
S214002AA07B68FB60FB689B69002B03D0FB689B6917
S214002AB0F868984700BF1037BD4680BD80B582B025
S214002AC000AF786039607B68002B04D03B68002B31
S214002AD001D0012300E0002303F00103DBB2312222
S214002AE006491846064B98477B6839681846054BD2
S214002AF09847034618460837BD4680BDEC0D0100D2
S214002B00613C0000455C000080B582B000AF786094
S214002B107B68002B14BF01230023DBB23F2206494B
S214002B201846064B98477B681846054B9847034659
S214002B3018460837BD4680BDEC0D0100613C00001C
S214002B40B95C000080B582B000AF78607B68002B6F
S214002B5014BF01230023DBB2462206491846064B63
S214002B6098477B681846054B98470346184608372B
S214002B70BD4680BDEC0D0100613C0000DD5C000040
S214002B8080B582B000AF786039607B68002B04D0D7
S214002B903B68002B01D0012300E0002303F0010373
S214002BA0DBB24D2206491846064B98477B683968C3
S214002BB01846054B9847034618460837BD4680BD5D
S214002BC0EC0D0100613C0000295E000080B584B079
S214002BD000AF786039600023FB607B68002B04D070
S214002BE03B68002B01D0012300E0002303F0010323
S214002BF0DBB2402210491846104B98477B683A686B
S214002C005A607B680433396818460D4B9847F8605D
S214002C10FB68002B01DAFB680AE07B684FF4004291
S214002C209A827B68074A1A617B68074ADA60002343
S214002C3018461037BD4680BD080E0100613C0000F6
S214002C4045700000C52C00001D2D000080B582B028
S214002C5000AF78607B68002B14BF01230023DBB233
S214002C60572206491846064B98477B680433184691
S214002C70044B984700BF0837BD4680BD080E0100CC
S214002C80613C00005171000080B582B000AF7860F2
S214002C907B68002B14BF01230023DBB25D220649AC
S214002CA01846064B98477B6804331846044B9847EB
S214002CB000BF0837BD4680BD080E0100613C00001D
S214002CC0A171000080B588B000AFF860B960134607
S214002CD0FB80FB68002B14BF01230023DBB2872296
S214002CE00B4918460B4B9847FB680C3BFB61BB68CF
S214002CF07B6100233B61FB88BB6107F1100319462B
S214002D00F869054B9847034618462037BD4680BDF0
S214002D10080E0100613C0000752D000080B588B0EB
S214002D2000AFF860B9601346FB80FB68002B14BF49
S214002D3001230023DBB2A3220B4918460B4B98470E
S214002D40FB680C3BFB6100237B61BB683B61FB8837
S214002D50BB6107F110031946F869054B984703460F
S214002D6018462037BD4680BD080E0100613C0000B5
S214002D70752D000080B586B000AF786039607B683E
S214002D80002B04D03B68002B01D0012300E0002379
S214002D9003F00103DBB2B3220C4918460C4B9847EC
S214002DA03B681B68FB603B685B683B613B689B68F5
S214002DB07B617B68043307F10C0211461846054B0D
S214002DC09847034618461837BD4680BD080E0100D2
S214002DD0613C00004573000080B582B000AF7860AB
S214002DE039607B68002B04D03B68002B01D00123A0
S214002DF000E0002303F00103DBB2BD2206491846BB
S214002E00064B98477B6803F10C023B681A60002368
S214002E1018460837BD4680BD080E0100613C00001C
S214002E2080B483B000AF78607B681B6818460C37A8
S214002E30BD465DF8047B704780B483B000AF786011
S214002E407B68002B02D07B681B6800E000231846D6
S214002E500C37BD465DF8047B7047000080B584B033
S214002E6000AFF860B9607A60FB68002B07D0BB68DB
S214002E70002B04D07B68002B01D0012300E0002348
S214002E8003F00103DBB23B220C4918460C4B984773
S214002E90FB687A681A60FB681B681B68FA6804326D
S214002EA0B96810469847FB6800225A61FB68054AD5
S214002EB05A60002318461037BD4680BD240E010018
S214002EC0613C00004D32000080B582B000AF7860F3
S214002ED07B68002B05D07B681B68002B01D0012384
S214002EE000E0002303F00103DBB254220E4918462B
S214002EF00E4B98477B681B689B697A6804321046BD
S214002F0098470346002B02D06FF0100307E07B685B
S214002F101B689B687A680432104698470023184658
S214002F200837BD4680BD00BF240E0100613C00008E
S214002F3080B582B000AF78607B68002B05D07B68D8
S214002F401B68002B01D0012300E0002303F00103DF
S214002F50DBB262220F4918460F4B98477B681B6806
S214002F609B697A68043210469847034683F001034B
S214002F70DBB2002B02D06FF0100307E07B681B6803
S214002F80DB687A68043210469847002318460837EC
S214002F90BD4680BD240E0100613C000080B584B0B3
S214002FA000AF786039607B68002B08D03B68002B48
S214002FB005D07B681B68002B01D0012300E00023AE
S214002FC003F00103DBB27B222F4918462F4B9847AC
S214002FD07B681B7FDBB243F00103DAB27B681A77AB
S214002FE07B68183339681846294B98470346002BE8
S214002FF00FD07B681B7FDBB223F00103DAB27B685D
S2140030001A77802220490020204B98476FF0110342
S21400301035E07B685A693B685A607B6803F11800A4
S2140030207B685B691A4639681A4B98477B681B7F32
S214003030DBB223F00103DAB27B681A777B681B7F6A
S214003040DBB203F00203002B18D007F10C0318467E
S214003050114B98477B681B7FDBB223F00203DAB282
S2140030607B681A777B681B68DB697A6804321046CF
S214003070984707F10C031846084B98470023184654
S2140030801037BD4680BD00BF240E0100613C000025
S214003090893C00009D310000792400009F24000038
S2140030A080B584B000AF786039607B68002B08D0AC
S2140030B03B68002B05D07B681B68002B01D00123E2
S2140030C000E0002303F00103DBB296222D491846E8
S2140030D02D4B98477B681B7FDBB243F00103DAB2C7
S2140030E07B681A777B68183339681846274B9847E9
S2140030F0034683F00103DBB2002B0FD07B681B7FF7
S214003100DBB223F00103DAB27B681A779B221D49F3
S21400311000201D4B98476FF009032EE07B6818339C
S214003120396818461A4B98477B681B7FDBB223F03A
S2140031300103DAB27B681A777B681B7FDBB203F089
S2140031400203002B18D007F10C031846114B9847C2
S2140031507B681B7FDBB223F00203DAB27B681A7748
S2140031607B681B68DB697A6804321046984707F16B
S2140031700C031846084B9847002318461037BD46E0
S21400318080BD00BF240E0100613C0000893C0000A9
S214003190EB3D0000792400009F24000080B588B035
S2140031A000AFF860B9607A600023BB61F868234B13
S2140031B0984738613B69002B04D1B968F868204B02
S2140031C0984737E03B69FB6122E0FB695A687B68F9
S2140031D09A4208D8FB699A68FB6959687B68CB1ADB
S2140031E013447B6109E0FB699A68FB695B681A44D3
S2140031F07B685B42134401337B61BB689A687B69DA
S2140032009A4209D9FB69BB61F8690E4B9847F86189
S214003210FB69002BD9D100E000BFFA693B699A42EE
S21400322004D1B968F868064B984703E0B968B869EE
S214003230054B98472037BD4680BD00BF212E0000B5
S214003240C13C0000392E0000193D000080B586B054
S21400325000AF78607B68043B3B613B6918331846D7
S214003260274B984778613B695B695A1C3B695A61F2
S2140032703B695B69FB603B691B7FDBB203F00103C4
S214003280002B06D13B691B7FDBB203F00203002B49
S21400329027D03B691B7FDBB243F00203DAB23B69FF
S2140032A01A7729E07B69BB603B6918331846154BD3
S2140032B09847BB681B7C012B09D1BB68FA685A602B
S2140032C03B691833FA68B96818460F4B98473B694C
S2140032D0183318460A4B98477861BB68DB68B868AD
S2140032E098477B69002B07D07B695B68FA68D21A1F
S2140032F07B699B689A42D5D21837BD4680BD00BF11
S214003300212E0000B93D00009D31000080B485B03C
S21400331000AF0346FB710023FB7329E097F90F30DB
S214003320194A5B01134401331B78FA799A4202D199
S21400333097F90F3022E097F90F30134A5B011344D8
S2140033401B78002B0ED1FB7903F00F0397F90F20A3
S2140033500D4952010A4401321278934202D197F97C
S2140033600F300BE097F90F30DBB20133DBB2FB73A3
S21400337097F90F30032BD1DD4FF0FF331846143783
S214003380BD465DF8047B7047140B002080B588B0FE
S21400339000AFBA607B600346FB730B46BB73BB682B
S2140033A07B617B68BB61BB7B002B04D0FB7B63F03F
S2140033B07F03DBB203E0FB7B03F00F03DBB23B775C
S2140033C097F828307B7707F114031846034B984785
S2140033D0034618462037BD4680BD00BF25AD000019
S2140033E080B485B000AFF860B9607A6000231846F4
S2140033F01437BD465DF8047B7047000080B586B084
S21400340000AF0346FB71FB7918462A4B98470346E4
S214003410FB7597F917305B01274A13443B613B69FC
S2140034200C33FB60FB79F9681846244B9847034633
S214003430FB72FB7A082B0DD0FB7901211846204B36
S2140034409847FB7963F07F03DBB2012118461C4BDB
S21400345098472BE0FB7900211846194B9847FB79D3
S21400346063F07F03DBB200211846154B98473B6993
S21400347001229A703B695B69FA79F96810469847A9
S214003480034683F00103DBB2002B0FD03B69052215
S2140034909A70FB7901211846094B9847FB7963F02F
S2140034A07F03DBB201211846054B98471837BD4607
S2140034B080BD00BF0D330000140B00207DAC000063
S2140034C0F5AA000080B584B000AF03463960FB71F2
S2140034D0FB7918460D4B98470346FB7397F90F3058
S2140034E05B010B4A1344BB60BB689B78032B07D178
S2140034F0BB689B69FA79396810469847034600E02E
S214003500002318461037BD4680BD00BF0D330000AF
S214003510140B002090B587B002AF78607B689B786C
S214003520FB737B681B7B03F08003002B14BF012317
S2140035300023BB73FB7B032B3AD17B68DB697A687D
S21400354050787A680C320121984703467B737B7B60
S214003550002B15D07B6805229A707B680222DA70F1
S214003560BB7B002B02D07B685B7804E07B685B78D3
S21400357063F07F03DBB201211846154B984722E023
S2140035807B6804229A707B685878BB7B002B14BF3C
S21400359001230023DBB283F00103DBB203F0010357
S2140035A0D9B201230093002300220A4CA0470AE068
S2140035B07B68DB697A6850787A680C320021984715
S2140035C07B6802229A7000BF1437BD4690BD00BFCC
S2140035D0F5AA00008D33000080B586B000AF034624
S2140035E0B9607A60FB73FB7B18462F4B98470346FF
S2140035F0FB7597F917305B012C4A13443B61BB6897
S214003600002B0ED13B690022DA703B691B78002B39
S21400361003D13869264B984743E03B6901229A70EC
S21400362038E0BB68012B13D13B690222DA703B6994
S2140036301B78002B08D13B6902229A70FB7B002185
S21400364018461C4B984725E03B6905229A7021E0F6
S214003650BB68022B0ED13B690422DA703B691B78EB
S214003660002B03D13B6902229A701AE03B690122C3
S2140036709A700FE0BB68032B06D13B6900229A7054
S2140036803B690522DA7005E03B6906229A703B69C1
S2140036900622DA703B69DB693A69D1787A68F87B8A
S2140036A098471837BD4680BD0D330000140B002028
S2140036B015350000F5AA000080B582B000AF214B9A
S2140036C0984738603B68002B01DA3B6836E080227A
S2140036D000211D481D4B98470023FB711EE0FB7917
S2140036E0194A5B0113440133FF221A70FB79164A0C
S2140036F05B0113441433164A1A60FB79124A5B01C5
S21400370013441833124A1A60FB790F4A5B011344BC
S2140037101C330F4A1A60FB790133FB71FB79032BCC
S214003720DDD90C4900200C4B98470C4901200A4B68
S21400373098470B490220084B98470023184608373D
S214003740BD4680BD3DA30000140B002045FF0000D1
S214003750E1330000FD33000085AF0000C5340000F3
S214003760D935000080B582B000AF03463960FB71E2
S214003770FB7939681846034B984700BF0837BD46A3
S21400378080BD00BF3DAF000080B500AF024B98473C
S2140037900346184680BD00BF2DA4000080B500AFCC
S2140037A0014B984700BF80BDB1A4000080B582B031
S2140037B000AF0346FB71FB791846034B984700BFE2
S2140037C00837BD4680BD00BFC5A4000080B582B0E6
S2140037D000AF0346FB71FB799BB21A46002100201E
S2140037E0034B9847034618460837BD4680BD00BFC2
S2140037F0F537000080B586B000AF0346FB710B4678
S214003800BB711346BB80FB7918461E4B9847034690
S214003810FB7597F917305B011B4A13443B6197F918
S2140038201730002B02DB6FF0130327E0FF20154B49
S21400383098470346FB7597F91730002B02DA6FF0AE
S21400384014031BE097F917305B010F4A13443B61E2
S214003850BA88B979FB7918460C4B9847F860FB682C
S214003860002B01DAFB6809E03B69FA795A70BB79EC
S21400387003F00303DAB23B691A70002318461837C0
S214003880BD4680BD0D330000140B002065A500006A
S21400389080B584B000AF0346FB71FB7918460D4B2C
S2140038A098470346FB7397F90F305B010A4A1344A7
S2140038B0BB6097F90F30002B07DBFB791846074BE8
S2140038C09847BB68FF225A7000E000BF1037BD461D
S2140038D080BD00BF0D330000140B002099A6000029
S2140038E080B586B000AF0346FB71FB791846154BD2
S2140038F098470346FB7597F917305B01124A134445
S2140039003B6197F91730002B02DA6FF0110314E0D1
S2140039103B691B78002B01D1022200E001223B69A3
S2140039209A70FB791846094B9847F860FB68002B9D
S21400393002DA3B6900229A70FB6818461837BD46C3
S21400394080BD00BF0D330000140B00207DA70000D3
S21400395090B58DB002AF78607B681B7A1846514BE5
S21400396098470346FB7797F91F305B014E4A13448E
S214003970BB617B681B7A03F08003002B14BF012316
S214003980002387F827307B685B7A002B14BF01235F
S214003990002387F826307B685B683B6297F91F3008
S2140039A0002B02DA6FF0110377E007F108031846E0
S2140039B03E4B9847BB699B78FB73FB7BDBB2012BC6
S2140039C00CD1BB6903229A7007F108031846384BDE
S2140039D09847BB691B78002B51D117E007F1080305
S2140039E01846334B9847FB7BDBB2052B04D0062BDF
S2140039F004D0002B05D007E002234EE06FF00F0343
S214003A004BE06FF0120348E0012346E0BB699B7C65
S214003A109AB2BB69DB7C9BB21B029BB21344FB824F
S214003A20FB8A002B0BD1012387F8273000233B624B
S214003A30012387F82630BB6904229A701FE0BB6911
S214003A401B7B03F08003002B14BF0123002387F8A1
S214003A502730FA8A3B6A9A4201D2FB8A3B6297F881
S214003A602730002B08D0FA8A3B6A9A428CBF012383
S214003A70002387F8263002E0002387F826307B688C
S214003A80187A7B681A6897F8263097F827100093FC
S214003A903B6A084CA04738613B6918462C37BD4640
S214003AA090BD00BF0D330000140B002079240000E9
S214003AB09F2400008D33000080B584B000AF03461D
S214003AC0FB71FB7918460E4B98470346FB7397F934
S214003AD00F305B010B4A1344BB6097F90F30002B85
S214003AE00ADBFB791846084B9847BB6801229A7098
S214003AF0BB680422DA7000E000BF1037BD4680BD08
S214003B000D330000140B0020E9AE000080B586B02F
S214003B1000AF0346FB71FB7918461A4B98470346DD
S214003B20FB7597F917305B01174A13443B6197F909
S214003B301730002B02DA6FF011031FE0FB79022129
S214003B401846124B98470346002B16D0FB790021E7
S214003B5018460E4B9847F860FB68002B01DAFB68A6
S214003B600CE03B6901229A703B690322DA703B69DC
S214003B70DB69F87900220321984700231846183796
S214003B80BD4680BD0D330000140B0020F5AA0000D2
S214003B9080B582B000AF03460A46FB711346BB7180
S214003BA0BB79002B05D1FB7918460C4B984703468A
S214003BB00FE0BB79012B06D1FB7901211846084B93
S214003BC09847034605E0FB7902211846044B9847C0
S214003BD0034618460837BD4680BD00BF0D3B0000B3
S214003BE0F5AA000080B586B000AF03463A60FB71C8
S214003BF00B46BB71FB791846164B98470346FB7578
S214003C0097F917305B01144A13443B613B68002B5D
S214003C1001D03B6800E0114BFB6097F91730002B92
S214003C2013DBBB79012B08D0022B0AD0002B00D067
S214003C300CE03B69FA685A6108E03B69FA689A61E9
S214003C4004E03B69FA68DA6100E000BF1837BD4659
S214003C5080BD00BF0D330000140B0020E1330000D0
S214003C6080B485B000AF0346B9607A60FB73FB7B17
S214003C7083F00103DBB2002B00D000BE00BF143778
S214003C80BD465DF8047B704780B485B000AF7860B1
S214003C9039607B681B68FB6008E0FA683B689A42FC
S214003CA001D1012306E0FB681B68FB60FB68002B64
S214003CB0F3D1002318461437BD465DF8047B7047E1
S214003CC080B582B000AF78603960396878680F4B8D
S214003CD098470346002B14BF01230023DBB283F072
S214003CE00103DBB203F00103DBB2392208491846B0
S214003CF0084B98477B681A683B681A607B683A6886
S214003D001A6000BF0837BD4680BD00BF893C000072
S214003D103C0E0100613C000080B483B000AF7860C8
S214003D2039607B681A683B681A607B683A681A6074
S214003D3000BF0C37BD465DF8047B704780B584B085
S214003D4000AF786039607B681B68FB60396878680C
S214003D50164B98470346002B14BF01230023DBB203
S214003D6083F00103DBB203F00103DBB24F221049FC
S214003D701846104B98477B681B68002B09D17B6858
S214003D803A681A603B6800221A600CE0FB681B6801
S214003D90FB60FB681B68002BF8D1FB683A681A606A
S214003DA03B6800221A601037BD4680BD893C000083
S214003DB03C0E0100613C000080B485B000AF786026
S214003DC07B681B68002B09D07B681B68FB607B68E0
S214003DD01B681A687B681A60FB6800E000231846B8
S214003DE01437BD465DF8047B704780B485B000AFDD
S214003DF0786039603B68002B01D1002324E07B68A3
S214003E001A683B689A4206D17B681B681A687B680A
S214003E101A60012318E07B681B68FB6002E0FB6801
S214003E201B68FB60FB68002B04D0FB681A683B68C5
S214003E309A42F4D1FB68002B05D03B681A68FB68F1
S214003E401A60012300E0002318461437BD465DF8CB
S214003E50047B704780B483B000AF0346FB80B7F99D
S214003E600630002B0BDB0949B7F906305B09FA88E8
S214003E7002F01F02012000FA02F241F8232000BFE0
S214003E800C37BD465DF8047B704700BF00E100E0DC
S214003E9080B483B000AF0346FB80B7F90630002B32
S214003EA010DB0B49B7F906305B09FA8802F01F02EF
S214003EB0012000FA02F2203341F82320BFF34F8F8F
S214003EC0BFF36F8F00BF0C37BD465DF8047B7047AD
S214003ED000E100E080B483B000AF0346FB80B7F992
S214003EE00630002B0CDB0949B7F906305B09FA8867
S214003EF002F01F02012000FA02F2603341F823208C
S214003F0000BF0C37BD465DF8047B704700E100E05B
S214003F1080B483B000AF78607B685B6C5B0903F0AD
S214003F200103002B14BF01230023DBB218460C3715
S214003F30BD465DF8047B704780B483B000AF786000
S214003F4039607B683A689A6000BF0C37BD465DF8FA
S214003F50047B704780B483B000AF786039607B68BC
S214003F603A68DA6000BF0C37BD465DF8047B7047E0
S214003F7080B483B000AF78607B689B6943F0010231
S214003F807B689A6100BF0C37BD465DF8047B7047BE
S214003F9080B485B000AF78607B689B69FB60FB6887
S214003FA003F00103FB60FB68002B14BF0123002312
S214003FB0DBB218461437BD465DF8047B704780B404
S214003FC083B000AF78607B689B6923F001027B6852
S214003FD09A6100BF0C37BD465DF8047B704780B41D
S214003FE083B000AF78607B689B6943F002027B6811
S214003FF09A6100BF0C37BD465DF8047B704780B4FD
S21400400083B000AF78607B689B6923F002027B6810
S2140040109A6100BF0C37BD465DF8047B704780B4DC
S21400402083B000AF786039607B689A693B681A4352
S2140040307B689A6100BF0C37BD465DF8047B70470D
S21400404080B483B000AF786039607B683A68DA6124
S21400405000BF0C37BD465DF8047B704780B483B064
S21400406000AF786039607B683A681A6500BF0C3725
S214004070BD465DF8047B704780B483B000AF7860BF
S2140040807B681B6D18460C37BD465DF8047B704791
S21400409080B483B000AF786039607B683A68DA65D0
S2140040A000BF0C37BD465DF8047B704780B483B014
S2140040B000AF786039607B683A68C3F8802000BF3C
S2140040C00C37BD465DF8047B704780B483B000AF04
S2140040D0786039607B683A68C3F8842000BF0C3784
S2140040E0BD465DF8047B704780B483B000AF78604F
S2140040F039607B683A68C3F8882000BF0C37BD4635
S2140041005DF8047B704780B483B000AF7860396098
S2140041107B683A68C3F8902000BF0C37BD465DF850
S214004120047B704780B483B000AF786039607B68EA
S2140041303A68C3F8A02000BF0C37BD465DF8047B84
S214004140704780B483B000AF786039607B683A68A7
S214004150C3F8BC2000BF0C37BD465DF8047B704733
S21400416080B483B000AF786039607B683A68C3F883
S214004170C02000BF0C37BD465DF8047B704780B496
S21400418083B000AF786039607B683A68C3F8C820AF
S21400419000BF0C37BD465DF8047B704780B483B023
S2140041A000AF786039607B683A68C3F8F02000BFDB
S2140041B00C37BD465DF8047B7047000080B582B0C2
S2140041C000AF786039607B683A681A607B681B6865
S2140041D01846554B984700BF7B681B681846534BDC
S2140041E09847034683F00103DBB2002BF4D17B68CB
S2140041F01B6818464E4B98473B684E4A93427AD106
S2140042004D4A7B6813607B684C4A9A617B681B68E2
S2140042104FF4407118464A4B98477B681B6802214A
S2140042201846484B98477B681B6847491846474BD3
S21400423098477B681B6846491846464B98477B68F4
S2140042401A68454B9BB243F0004343F4803319464B
S2140042501046424B98477B681B6807211846404B20
S21400426098477B681B68072118463E4B98477B6833
S2140042701A683D4B9BB243F08073194610463B4B81
S21400428098477B681A683A4B9BB243F4003319464A
S2140042901046384B98477B681B6808211846364BF3
S2140042A098477B681A68354B9BB243F4001319464F
S2140042B01046334B98477B681A68324B9BB243F4E0
S2140042C0003319461046304B98477B681B686FF0E2
S2140042D0604118462D4B98474F202D4B98474F204E
S2140042E02C4B98474F202C4B98477B681B68012126
S2140042F018462A4B98477B681B681846284B9847F1
S2140043007B681B681846274B984700BF7B681B686E
S2140043101846064B98470346002BF7D1002318464D
S2140043200837BD4680BD00BF713F0000913F0000CA
S214004330DF3F000000040042340C0020080000208C
S2140043401F400000393F0000010C01004140000002
S214004350100C0100553F00001816002025410000F3
S214004360434100007F410000D0150020614100005D
S214004370940B00209D410000AD400000A40B0020DF
S214004380CB400000240C0020E9400000074100005C
S214004390913E0000D53E0000553E000091400000D2
S2140043A0FF3F0000BF3F000090B583B000AF2C4B2E
S2140043B01B687B607B681B6818462A4B98473860EA
S2140043C03B6803F00103002B03D07B689B6878688A
S2140043D098473B6803F40073002B03D07B685B6848
S2140043E0786898473B6803F00073002B04D07B681E
S2140043F0DB680321786898473B6803F08073002BDE
S21400440004D07B68DB680021786898473B6803F433
S2140044100003002B0FD07B68DC687B681B6818469F
S214004420114B98470346002B01D0022300E00123DE
S21400443019467868A0473B6803F00803002B04D0B1
S2140044407B68DB680421786898477B681B68396856
S2140044501846064B984700BF0C37BD4690BD00BFB8
S214004460340C002079400000113F00005D40000041
S21400447080B483B000AF0346FB80B7F90630002B4C
S2140044800CDB0949B7F906305B09FA8802F01F020F
S214004490012000FA02F2403341F8232000BF0C3717
S2140044A0BD465DF8047B704700E100E080B582B051
S2140044B000AF0346FB71FB791BB21846024B9847C8
S2140044C000BF0837BD4680BD7144000080B483B08D
S2140044D000AF03463960FB8013467B717B79043B53
S2140044E0052B6BD801A252F823F000BF9B450000B5
S2140044F07B4500005D4500003F450000214500006B
S21400450005450000FB883A683549A1FB0212920C6B
S21400451002FB03F30233334AA2FB03235B0859E092
S214004520FB883A6852093049A1FB0212D20902FB05
S21400453003F31D332D4AA2FB03231B094AE0FB8825
S2140045403A682B49A1FB0212520B02FB03F303F25B
S2140045502B13284AA2FB03235B093BE0FB883A683F
S2140045602549A1FB0212920902FB03F303F6B733B7
S214004570224AA2FB03239B092CE0FB883A682049C9
S214004580A1FB0212520902FB03F303F5EA432F33A1
S2140045901C4AA2FB03235B0B1CE0FB883A681A4903
S2140045A0A1FB0212D20802FB03F303F5922303F2E7
S2140045B0DF33164AA2FB03235B0C0BE0FB883A684A
S2140045C002FB03F303F5371303F2BF63104AA2FBA3
S2140045D003239B0C18460C37BD465DF8047B7047DA
S2140045E083DE1B43ABAAAAAAC55A7C0A8988888898
S2140045F05917B7D1B5814E1BD34D6210F119760508
S2140046001F85EB5173B2E745CDCCCCCC851DD96F59
S214004610819F5E1680B582B000AF0346FB80FB88A4
S214004620092204491846044B98470346184608379B
S214004630BD4680BD000E2707CD44000080B483B081
S21400464000AF03463960FB8013467B717B79043BE1
S214004650052B70D801A252F823F000BF19470000BE
S214004660FD460000E1460000BD46000099460000F9
S21400467075460000FB883A683749A1FB0212920C87
S21400468002FB03F30233354AA2FB03235B084FF415
S2140046907A7202FB03F358E0FB883A685209304905
S2140046A0A1FB0212D20902FB03F302332B4AA2FB40
S2140046B003235B08642202FB03F346E0FB883A68A8
S2140046C02849A1FB0212520B02FB03F30233234AD2
S2140046D0A2FB03235A0813469B0013445B0034E0F6
S2140046E0FB883A682049A1FB0212920902FB03F3F9
S2140046F002331A4AA2FB03235B0826E0FB883A68CB
S2140047001A49A1FB0212520902FB03F31D33184A91
S214004710A2FB03231B0918E0FB883A681549A1FB96
S2140047200212D20802FB03F303F22B13124AA2FB77
S21400473003235B0909E0FB883A6802FB03F303F6F0
S214004740B7330E4AA2FB03239B0918460C37BD4617
S2140047505DF8047B704700BF83DE1B43ABAAAAAAA2
S214004760C55A7C0A5917B7D1D34D62101F85EB5135
S21400477089888888CDCCCCCCB5814E1BF1197605BE
S21400478080B582B000AF0346FB80FB88092204494F
S2140047901846044B9847034618460837BD4680BD62
S2140047A0000E27073D46000080B483B000AF786057
S2140047B0396000BFAFF300800139FDD800BF0C3769
S2140047C0BD465DF8047B704780B483B000AF786068
S2140047D00B467B807B681B889AB27B881B029BB249
S2140047E003F470639BB213439AB27B681A8000BFCF
S2140047F00C37BD465DF8047B704780B485B000AFCB
S214004800F8600B467A60FB72FB7AFA7AF968D20196
S2140048100A442C3211687A680A43F968DB010B44B3
S2140048202C331A6000BF1437BD465DF8047B704712
S21400483080B500AF002200210A480B4B98470022A3
S21400484001210848084B98474EF6EF7202210548AA
S214004850054B9847002203210248034B984700BFA8
S21400486080BD00BF00800041FB47000080B500AF60
S21400487004210B480B4B98470B4B98470B4B98471C
S2140048800B4B98474FF484600A4B98470A4B98475F
S21400489040F6DF30074B9847084B984700BF80BD6F
S2140048A000400041C94700007D5300004558000005
S2140048B09D5200005D510000855800003148000000
S2140048C080B483B000AF786039607B683A681A605D
S2140048D0002318460C37BD465DF8047B7047000081
S2140048E080B483B000AF0346FB80B7F90630002BD8
S2140048F00BDB0949B7F906305B09FA8802F01F029C
S214004900012000FA02F241F8232000BF0C37BD4612
S2140049105DF8047B704700BF00E100E080B483B020
S21400492000AF0346FB80B7F90630002B10DB0B49BF
S214004930B7F906305B09FA8802F01F02012000FA78
S21400494002F2203341F82320BFF34F8FBFF36F8F5F
S21400495000BF0C37BD465DF8047B704700E100E001
S21400496080B483B000AF0346FB80B7F90630002B57
S2140049700CDB0949B7F906305B09FA8802F01F021A
S214004980012000FA02F2603341F8232000BF0C3702
S214004990BD465DF8047B704700E100E080B483B05C
S2140049A000AF7860396000BF7B685A683B68134088
S2140049B0002BF9D100BF0C37BD465DF8047B70476D
S2140049C080B483B000AF786039607B685A683B6813
S2140049D01340002B14BF01230023DBB218460C370C
S2140049E0BD465DF8047B704780B483B000AF786046
S2140049F07B685B6918460C37BD465DF8047B7047DC
S214004A0080B483B000AF786039607B683A685A61DA
S214004A1000BF0C37BD465DF8047B704780B483B09A
S214004A2000AF786039607B683A681A6100BF0C375F
S214004A30BD465DF8047B704780B483B000AF7860F5
S214004A4039607B683A68DA6000BF0C37BD465DF8AF
S214004A50047B704780B582B000AF78607B681B78B7
S214004A60DBB243F00203DAB27B681A70032178687F
S214004A70024B984700BF0837BD4680BD9D490000E1
S214004A8080B582B000AF78607B681B78DBB223F01D
S214004A900203DAB27B681A7003217868024B9847E3
S214004AA000BF0837BD4680BD9D49000080B584B074
S214004AB000AF78600B46FB707B681B78FB73FB7B54
S214004AC023F01003FB73FB781B015AB297F90F30E3
S214004AD013435BB2FB737B68FA7B1A70032178681A
S214004AE0024B984700BF1037BD4680BD9D49000069
S214004AF080B584B000AF78600B46FB700321786801
S214004B00064B98477B681B78FB73FA7BFB78134051
S214004B10FB73FB7B18461037BD4680BD9D490000E1
S214004B2080B582B000AF78600B46FB707B68FA7881
S214004B301A7003217868034B984700BF0837BD46B4
S214004B4080BD00BF9D49000080B483B000AF786090
S214004B500B46FB707B68FA785A7000BF0C37BD4670
S214004B605DF8047B704780B483B000AF786039602E
S214004B707B683A689A6000BF0C37BD465DF8047BD8
S214004B80704780B483B000AF786039607B683A685D
S214004B909A6100BF0C37BD465DF8047B704780B451
S214004BA085B000AFF8600B467A60FB72FB7AFA6855
S214004BB006339B0013447A685A6000BF1437BD461C
S214004BC05DF8047B704780B483B000AF78603960CE
S214004BD07B683A681A6300BF0C37BD465DF8047BF5
S214004BE0704780B483B000AF786039607B683A68FD
S214004BF05A6300BF0C37BD465DF8047B7047000063
S214004C0080B582B000AF786001214F484F4B98477F
S214004C10034683F00103DBB2002B11D002214A4881
S214004C204B4B98470346002B06D04748494B9847BE
S214004C3002214548484B984701214348474B98472F
S214004C4001214148444B984700213F48444B984730
S214004C5000213D48434B984700213B48424B98472C
S214004C6040F2BB313848414B984740F23B3136481A
S214004C703F4B9847002134483E4B98473E4A002118
S214004C8031483E4B9847112201212F483B4B98470D
S214004C902D483B4B98470C203A4B98470C203A4BF4
S214004CA098470C20394B98470D20364B98470D20D7
S214004CB0354B98470D20354B98470F20314B98477A
S214004CC00F20314B98470F20304B984710202D4B24
S214004CD0984710202C4B984710202C4B98471120B3
S214004CE0284B98471120284B98471120274B984768
S214004CF01220244B98471220234B98471220234B10
S214004D00984713201F4B984713201F4B9847132094
S214004D101E4B984714201B4B984714201A4B984755
S214004D2014201A4B98471520164B98471520164BFB
S214004D3098471520154B9847154A7B681360002343
S214004D4018460837BD4680BD00280040C14900000F
S214004D50F14A0000814A00009D490000214B0000F6
S214004D60AD4A0000494B0000674B0000834B000033
S214004D70C74B0000E34B0000139099909F4B000038
S214004D80554A00001D49000061490000E148000046
S214004D90380C002080B584B000AF78600B46FB70FE
S214004DA0FF23FB730023BB7310E0BB7B1C4ADB00B6
S214004DB013445A687B689A4205D1BB7B184A12F89E
S214004DC03330FB7305E0BB7B0133BB73BB7B082B27
S214004DD0EBD9FB7BFF2B02D14FF0FF331CE0FB78B7
S214004DE0002B08D0FB7B012202FA03F319460D487C
S214004DF00D4B98470FE0FB7B012202FA03F319469E
S214004E0008480A4B9847FB7B012202FA03F319462F
S214004E100448074B9847002318461037BD4680BD08
S214004E205C0E0100002800401D4A0000394A0000C0
S214004E30014A000080B584B000AF4148414B984716
S214004E4003463B604FF0FF33BB603B6819463C4867
S214004E503D4B98473D4B1B68002B14BF0123002396
S214004E60DBB24FF484723A4918463A4B984760E0F2
S214004E703B681846384B98470346DBB2013BDBB22B
S214004E80FB7347E00023FB710923BB7124E0BA796A
S214004E90FB7913445B107B717B79304A12F8333010
S214004EA01A4697F90F309A4206D17B792B4ADB00D7
S214004EB013445B68BB6013E07B79284A12F83330F2
S214004EC01A4697F90F309A4203DA7B790133FB7161
S214004ED002E07B79013BBB71BA79FB799A42D6D264
S214004EE0BB68B3F1FF3F03D0184B1B68B868984700
S214004EF097F90F30012202FA03F3DA433B681340B6
S214004F003B603B681846144B98470346DBB2013BB0
S214004F10DBB2FB7397F90F30B3F1FF3FB2D108480D
S214004F20084B984703463B603B6819460448064BC7
S214004F3098473B68002B9BD100BF1037BD4680BD0D
S214004F4000280040E9490000014A0000380C002013
S214004F50A40E0100613C0000A5FD00005C0E0100EF
S214004F6080B500AF014B984700BF80BD354E0000AE
S214004F7080B500AF014B984700BF80BD354E00009E
S214004F8080B500AF014B984700BF80BD354E00008E
S214004F9080B500AF014B984700BF80BD354E00007E
S214004FA080B500AF014B984700BF80BD354E00006E
S214004FB080B500AF014B984700BF80BD354E00005E
S214004FC080B500AF014B984700BF80BD354E00004E
S214004FD080B500AF014B984700BF80BD354E00003E
S214004FE080B500AF014B984700BF80BD354E00002E
S214004FF080B485B000AFF8600B467A60FB72FA7A30
S214005000FB684832796843F8221000BF1437BD4663
S2140050105DF8047B704780B483B000AF78600B46C1
S214005020FB701346BB70FB787A680433DB001344CE
S214005030BA785A71FB78BA78D243D1B27A68043318
S214005040DB0013440A461A7100BF0C37BD465DF8F4
S214005050047B704780B485B000AFF8600B467A607A
S214005060FB72FA7AFB680432796843F8321000BFA4
S2140050701437BD465DF8047B7047000080B582B0EB
S21400508000AF0023FB710BE0FB79184AD35C1A468D
S214005090FB7919461648174B9847FB790133FB7185
S2140050A0FB79422BF0D90023FB7116E0FB79124AFC
S2140050B032F813301A46FB7919460D480F4B9847BD
S2140050C0FB790F4A52F82330DAB2FB7919460848C2
S2140050D00C4B9847FB790133FB71FB791F2BE5D905
S2140050E0002318460837BD4680BD00BFBC0E010031
S2140050F000E00041F14F0000000F01005550000095
S214005100400F01001750000080B483B000AF7860F5
S214005110396000BF7B685A683B681340002BF9D1A2
S21400512000BF0C37BD465DF8047B704780B584B081
S21400513000AFF8600B467A60FB72FA7AFB680832BA
S214005140796843F8221043F6FD71F868024B9847D9
S21400515000BF1037BD4680BD0951000080B582B043
S21400516000AF78607B6803F00103002B04D0364A5A
S21400517000213648364B98477B6803F00203002B25
S21400518004D0344A01213148314B98477B6803F0FC
S2140051900403002B04D0304A02212C482C4B98479D
S2140051A07B6803F00803002B04D02C4A0321274811
S2140051B0274B98477B6803F01003002B04D0284A3F
S2140051C004212248224B98477B6803F02003002BDB
S2140051D004D0244A05211D481D4B98477B6803F0E0
S2140051E04003002B04D0204A06211848184B984745
S2140051F07B6803F08003002B04D01C4A0721134869
S214005200134B98477B6803F48073002B04D0184A2E
S21400521008210E480E4B98477B6803F48063002BEA
S21400522004D0144A0A210948094B98477B6803F4BE
S2140052300063002B04D0104A0B210448044B984707
S21400524000BF0837BD4680BD07010100001C0040B6
S2140052502D51000007090100060901000809020097
S214005260010901000129060001290C00082908008F
S21400527001290300050901000519040080B483B064
S21400528000AF78600B46FB707B68FA785A7100BFF7
S2140052900C37BD465DF8047B7047000080B582B0D1
S2140052A000AF054B7B6001217868044B984700BF30
S2140052B00837BD4680BD00BF000800407D52000094
S2140052C080B483B000AF78600B46FB707B68FA78DA
S2140052D01A7400BF0C37BD465DF8047B704780B477
S2140052E083B000AF78600B467B807B687A889A82B2
S2140052F000BF0C37BD465DF8047B704780B483B0B2
S21400530000AF78600B46FB707B68FA789A7500BF32
S2140053100C37BD465DF8047B704780B483B000AFA1
S21400532078600B46FB707B68FA78DA7500BF0C373E
S214005330BD465DF8047B704780B485B000AF7860EA
S2140053407B68DB69FB60FB681B0A03F03F03FB60BE
S214005350FB6818461437BD465DF8047B704780B47A
S21400536083B000AF786039607B683A68DA6100BF66
S2140053700C37BD465DF8047B7047000080B582B0F0
S21400538000AF134B7B6000237B8042F28E0178686F
S214005390104B9847002178680F4B98470021786893
S2140053A00E4B984778680E4B984703467B807B8861
S2140053B01B0203F47C53194678680A4B9847002171
S2140053C07868094B984700BF0837BD4680BD00BFC8
S2140053D000140040DF520000FD5200001B53000086
S2140053E0395300005F530000C152000080B483B000
S2140053F000AF7860396000BF7B685A683B6813402E
S214005400002BF9D100BF0C37BD465DF8047B704712
S21400541080B483B000AF78607B685B689B0803F05D
S2140054200103002B14BF01230023DBB218460C3700
S214005430BD465DF8047B704780B483B000AF7860EB
S2140054407B685B6818460C37BD465DF8047B704782
S21400545080B586B000AFF8600B467A60FB72FA7AC9
S214005460FB68083253F822307B617B6923F00F0318
S2140054707B617B6803F00F037A6913437B61FA7ADA
S214005480FB680832796943F8221043F6FD71F86824
S214005490024B984700BF1837BD4680BDED5300004D
S2140054A080B485B000AFF8600B467A60FB72FA7A7B
S2140054B0FB682032796843F8221000BF1437BD46D7
S2140054C05DF8047B704780B485B000AFF8600B468B
S2140054D07A60FB7200BFFA7AF96813469B001344A1
S2140054E09B000B443C331A687B681340002BF2D1B8
S2140054F000BF1437BD465DF8047B704780B483B0A8
S21400550000AF78600B46FB70FA78796813469B000C
S21400551013449B000B4440331B6803F00103002B2D
S21400552014BF01230023DBB218460C37BD465DF8D6
S214005530047B704780B483B000AF78600B46FB7086
S214005540FA78796813469B0013449B000B4440335B
S2140055501B685B0803F00103002B14BF0123002324
S214005560DBB218460C37BD465DF8047B704700007A
S21400557080B582B000AF78600B46FB701346BB70F8
S214005580FA78796813469B0013449B000B4430332B
S214005590BA781A70FB78022219467868024B984748
S2140055A000BF0837BD4680BDC754000080B584B034
S2140055B000AFF8600B467A60FB72FA7AF968134619
S2140055C09B0013449B000B4434337A681A60FB7AC2
S2140055D006221946F868034B984700BF1037BD46A9
S2140055E080BD00BFC754000080B485B000AFF8602F
S2140055F00B467A60FB72FA7AF96813469B001344EE
S2140056009B000B4438337A681A6000BF1437BD46D7
S2140056105DF8047B704780B483B000AF78607B6829
S2140056201B695B0803F00103002B14BF0123002352
S214005630DBB218460C37BD465DF8047B704780B475
S21400564083B000AF78607B681B691B0A03F0010318
S214005650002B14BF01230023DBB218460C37BD46CF
S2140056605DF8047B704780B485B000AF7860396021
S2140056707B681B69FB60FA683B681340FB60FB684D
S21400568018461437BD465DF8047B704780B485B075
S21400569000AFF8600B467A60FB72FB7AFA68043358
S2140056A09B0013447A685A6000BF1437BD465DF805
S2140056B0047B704780B483B000AF78600B46FB7005
S2140056C07B68FA781A7700BF0C37BD465DF8047B16
S2140056D0704780B485B000AF78607B6893F8203060
S2140056E0FB73FB7B03F00103FB73FB7B002B14BFF8
S2140056F001230023DBB218461437BD465DF8047B51
S214005700704780B483B000AF78600B46FB707B6850
S214005710FA7883F8202000BF0C37BD465DF8047B7E
S214005720704780B483B000AF786039607B683A68B1
S2140057305A6200BF0C37BD465DF8047B704780B4E4
S21400574083B000AF78607B685B6A18460C37BD464E
S2140057505DF8047B704780B483B000AF7860396032
S2140057607B683A689A6200BF0C37BD465DF8047BDA
S214005770704780B485B000AF78607B6893F82C30B3
S214005780FB73FB7B5B08DBB203F00103FB73FB7B65
S214005790002B14BF01230023DBB218461437BD4686
S2140057A05DF8047B704780B485B000AF78607B6896
S2140057B093F82C30FB73FB7B9B08DBB203F00103F2
S2140057C0FB73FB7B002B14BF01230023DBB21846C0
S2140057D01437BD465DF8047B704780B485B000AFD3
S2140057E078607B6893F82C30FB73FB7BDB08DBB2BE
S2140057F003F00103FB73FB7B002B14BF0123002384
S214005800DBB218461437BD465DF8047B704780B49B
S21400581085B000AF78607B6893F82C30FB73FB7B19
S2140058201B09DBB203F00103FB73FB7B002B14BFE9
S21400583001230023DBB218461437BD465DF8047B0F
S2140058407047000080B582B000AF0A4B7B600A4A02
S21400585001217868094B984700BF7868084B98473D
S214005860034683F00103DBB2002BF6D100BF0837F6
S214005870BD4680BD00100040462600038D56000041
S2140058801756000080B584B000AF6B4BFB60042257
S21400589000216A486A4B984700BF6848694B98479A
S2140058A00346002BF9D10021F868674B98476749F3
S2140058B0F868674B984700BFF868664B98470346FA
S2140058C0002BF9D10021F868634B984700BFF868B1
