:10000000E82800201901000015010000150100007A
:1000100000000000000000000000000000000000E0
:1000200000000000000000000000000015010000BA
:100030000000000000000000150100001501000094
:100040001501000015010000150100001501000058
:100050001501000015010000150100009D2C000095
:100060001501000029170000150100007917000094
:100070001501000015010000150100001501000028
:100080001501000015010000150100001501000018
:100090001501000015010000150100001501000008
:1000A00015010000150100001501000015010000F8
:1000B0000000000010B5064C2378002B07D1054B3B
:1000C000002B02D0044800E000BF0123237010BDC4
:1000D000B404002000000000A83E0000084B10B54A
:1000E000002B03D00749084800E000BF0748036819
:1000F000002B00D110BD064B002BFBD09847F9E731
:1001000000000000B8040020A83E0000A83E000047
:1001100000000000FEE70000F8B52A4A2A4B9A4288
:1001200011D01A00294B9A420DD2294A03339B1A47
:100130009B0801339B000022234822498C5884509D
:1001400004329A42FAD1234A234B9A420AD2D34329
:1001500021495B1803218B4304339B18002102C201
:100160009342FCD11D4AFF211D4B8B439360FD3907
:1001700090235B001B4AD1501B4AD3780325AB4325
:1001800002242343D370D3780C27BB430826334380
:10019000D370164B987B30229043202210439873E3
:1001A000997BB943314399739A7BAA4322439A734B
:1001B0000F4A536880210B4353600E4B98470E4BF8
:1001C0009847FEE7A83E000000000020B40400208D
:1001D00004000020B4040020E808002000ED00E046
:1001E0000000000000700041005000410048004144
:1001F00000400041A53A0000FD01000070B598B034
:100200000C4B9847002168460B4B984768460B4BB0
:1002100098470B4E0B4D0C4C6846B04719222900ED
:100220006846A047FA204000084B98476846084BAC
:100230009847F1E7710300007502000021030000F8
:100240009D02000000000020E5020000750700008C
:1002500001030000024B1B6801225A707047C04620
:10026000D0040020024B1B6801221A707047C04660
:10027000D004002010B504005823C1540830502287
:100280000349044B9847044B1C60200010BDC04636
:1002900074080020ED3A0000D004002070B504007E
:1002A000050008350A4A012128000A4EB0470A4ACB
:1002B00000212800B047211D2800084B984728003E
:1002C000074B9847012363702370002070BDC04620
:1002D00065020000290D000055020000FD0C000021
:1002E000A50C000010B50378002BFCD00023037090
:1002F00092B24068014B984710BDC0469507000078
:1003000010B50830014B984710BDC046D10C000015
:100310000378DBB2002B01D04378DBB218007047C2
:1003200070B582B004000C4B98470C4D2A1D20007C
:10033000083000230093103309490A4EB0470A4B96
:100340009847E4652C600123637023702000074BFD
:10035000984702B070BDC04689040000D004002058
:10036000001000420D0C0000A90400001103000061
:1003700010B5024B9847024B984710BD010600008C
:100380000D2F0000F0B5CE46474680B5C021C90507
:1003900080239B004B60254B254A9A62254A9A622E
:1003A00049241A5D042082431A55185D0126B04382
:1003B00001221043C0B218553427D85D0F252840BC
:1003C0002024A1464C462043C0B2D8558020C0000E
:1003D0004861886018489862C02000068446986288
:1003E0001637D85DB0431043C0B2D85535201F5CD6
:1003F0000F24A7430D3C27431F5480273F014F6123
:100400008F600E499962614699624B27D95DB1436D
:100410001143C9B2D9551A5C2A4049460A43D2B29F
:100420001A540CBC90469946F0BDC04600440041A9
:1004300000020240000002C000040040000800402A
:10044000044A136A04210B431362034A034B5A8084
:100450007047C0460004004014400000000C0040FB
:1004600010B5044B984704490448054B9847054B81
:10047000984710BD41040000000800422C080020ED
:10048000C509000085030000044A136A10210B43CC
:100490001362034A034B5A807047C0460004004071
:1004A00016400000000C004030B50E4B4C22995C09
:1004B0000125A94301242143C9B299543620195C6E
:1004C0003D3A91430D3A114319544D215A5CAA43C8
:1004D0002243D2B25A541A5C3E390A4011310A43BF
:1004E0001A5430BD0044004110B582B0064B984705
:1004F000002300931033054A05490648064CA047DF
:10050000064B984702B010BD89040000E4040020A7
:1005100000100042740800200D0C0000A904000027
:1005200010B50248024B984710BDC04610E000E0ED
:1005300061070000F0B5C64600B5C024E40580227E
:100540005204A2601A4B8027FF059F6219499962E5
:1005500062615820195C0422904691431954195C39
:100560000126B14301252943C9B219541C38195C2D
:100570000B329143093A1143195480218904A16037
:100580009F620D4F9F62616159215C5C42469443BA
:100590005C545A5CB2432A43D2B25A541A5C4A3968
:1005A0000A4051310A431A5404BC9046F0BDC0467B
:1005B00000440041000100C0000200C0064BDA699F
:1005C00020210A43DA615A6920310A435A61034AF9
:1005D000034B5A807047C0460004004006420000AA
:1005E000000C004010B5034B9847034B9847034B52
:1005F000984710BDBD050000111000003505000032
:10060000F0B5D6464F464646C0B5464B9847C02241
:10061000D205042353619360434B44499962C0243B
:1006200024069C624225585D0121884358550820C4
:10063000506190603E4898629C620135585D8843E5
:1006400058551020506190603A4898629C6201357C
:10065000585D88435855802040005061906036486E
:1006600098629C620435585D884358558020000587
:10067000906190608020C0059862304D9D625B263D
:100680009D5D8D439D5580256D05956195609862B2
:100690002B4D9D6201369D5D8D439D55506190604F
:1006A0009862284D9D6202369D5D8D439D55802642
:1006B0003606566196609862234DAA469D625F2574
:1006C000AC465D5D8D436746DD559425A8466D3586
:1006D000FF354746D5510C3FBC46D551593DFF3DEE
:1006E0001A4F5F515C51C924A1461C5D8C434F4693
:1006F000DC554446165164461651585152465A51DB
:10070000DF201A5C8A431A54114B9847114B9847C3
:10071000114B9847114B98471CBC90469946A246EE
:10072000F0BDC046751400000044004104000040C4
:10073000080000401000004000010040000800C018
:10074000001000C0004000C0008000C00002004057
:1007500061040000E904000021050000E505000037
:1007600010B5024B1860024B984710BDF4040020EE
:10077000651B000010B5044B1C68044B9847010032
:100780002000034B984710BDF40400206D140000B6
:10079000791B000070B506000C00150000280DD074
:1007A0000800431E9841C0B234220549054B9847C2
:1007B00033682A0021003000984770BD0020F3E71D
:1007C0005C3D00006513000070B504000E001500CC
:1007D000431E9841C0B22822FF320A490A4B98476B
:1007E00023000022A2616661E5612262243B1021A0
:1007F0002C329954200020380F39044B98470020A0
:1008000070BDC046703D0000651300004119000036
:1008100070B504000E001500431E9841C0B20622B8
:10082000FF320C490C4B98472300A66100226261FD
:10083000E5612262243B10212C329954203C0F396F
:100840002000064B984706492000064B9847002099
:1008500070BDC046703D0000651300007D190000AA
:10086000FF010000051A000070B504000E00051F0E
:1008700000210A4B984700212000094B984700218E
:100880002000084B984700222C23EA54236B002BAE
:1008900002D031002800984770BDC04641190000C1
:1008A0007D190000C519000010B50400026CC36B6F
:1008B0009A4200D210BD0021054B9847231F00210A
:1008C0002C229954E36A002BF4D0201F9847F1E7BB
:1008D000C519000010B504000379012B0DD9416B37
:1008E000036C581C20645B00595A20000C4B98473D
:1008F000226CE36B9A4209D010BD416B026C501C14
:100900002064895C2000064B9847F1E70021200015
:10091000044B984701212000034B9847ECE7C04661
:10092000051A000041190000C519000070B5040047
:10093000836B002B22D00279012A17D9056C691C20
:1009400001646D005D191C4B98472880236CE26B95
:10095000934223D2626B002A1BD02179012913D93B
:100960005B00995A2000154B984770BD056C691CB7
:1009700001645D19104B98472870E7E70E4B9847C4
:10098000236C01332364E1E7D15C20000B4B9847D3
:10099000EBE7E1882000094B9847E6E700212000BB
:1009A000074B9847231F00212C229954E36A002B00
:1009B000DBD0201F9847D8E7391A0000051A00003D
:1009C0007D19000070B504000E00002826D0080034
:1009D000431E9841C0B2A5221149124B9847666048
:1009E000251D31002800104B9847002815DB0F4AC1
:1009F000002128000E4EB0470E4A01212800B047C2
:100A00000D4A02212800B0470C4A03212800B047B4
:100A10000B4BA3620B4B6362002070BD0020DAE732
:100A2000703D000065130000DD180000D5080000CF
:100A3000691A00002D090000A908000069080000DB
:100A400011080000C907000010B50838002303632F
:100A5000436A002B00D0984710BD10B5083800231A
:100A60000363C36A002B00D0984710BD10B5040083
:100A70002C30044B9847236A083C002B01D02000FF
:100A8000984710BD0914000070B504000E00150051
:100A900000281DD000291DD01000431E98413C2283
:100AA000FF320F490F4B98474423E25A0833E35A69
:100AB0009A4211D1A6644C23E5520022083BE2522F
:100AC000433B236320000830074B9847280070BD44
:100AD0000020E4E70020E2E71C204042F7E7C046A0
:100AE000903D000065130000A516000070B50400DD
:100AF00001000839838F4C228A5A9A420CD00A008E
:100B0000896C5D1C44201552C95C2000044B984739
:100B10002000044B984770BD034B9847FBE7C04645
:100B20009D160000A5160000AD160000F0B5CE46DB
:100B3000474680B585B005000E001700002815D087
:100B4000002913D0002A2AD1AC22520029490020C2
:100B5000294B984703A8294B984728003430284B45
:100B6000984703A8274B984700253CE0AC22520049
:100B700020490020204B984703A8204B9847343544
:100B8000280001951E4B9847804603A81D4B9847A7
:100B900000254346002B26D0002F16D123E0AC229F
:100BA000520014490120144B984703A8134B98474F
:100BB000343528000195124B9847804603A8114B05
:100BC000984743460025002B0DD000240E4B994634
:100BD000651CADB231190198C8470134444502D2B1
:100BE000A3B29F42F4D8280005B00CBC90469946A9
:100BF000F0BDC046903D000065130000192F0000B5
:100C000049140000272F0000C1130000F8B50400AC
:100C10000D0016001F00002826D0002926D0002A2B
:100C200026D01800431E98413A221449144B984785
:100C3000200034303A003100124B9847002819D177
:100C4000200008302900104B984700280BD10F4B8B
:100C500063600F4B23600F4BA3600F4BE3600F4BA0
:100C600023610F4B6361F8BD0020DDE70020DBE767
:100C70000020D9E70D204042F5E7C046903D000036
:100C8000651300006D130000011600002D0B00001D
:100C9000890A0000ED0A00006D0A0000490A000000
:100CA0005B0A000010B50400431E9841C0B26122E7
:100CB0000449054B984720000830044B9847002012
:100CC00010BDC046903D0000651300007516000081
:100CD00010B50400431E9841C0B26C220449054B74
:100CE000984720000830044B9847002010BDC046AC
:100CF000903D0000651300008916000070B50400E7
:100D00000D0000280AD00800431E9841C0B2772287
:100D10000349044B98472C60002070BD0020F6E783
:100D2000903D00006513000070B505000E00140032
:100D3000431E9841C0B283221649174B9847012E93
:100D400011D0002E04D0022E18D00D20404209E010
:100D5000AC62621E9441E2B22800083001210F4BC0
:100D60009847002070BD6C62621E9441E2B2280078
:100D700008300221094B98470020F3E7EC62621E1D
:100D80009441E2B2280008300321044B9847002028
:100D9000E8E7C046903D000065130000B51600006E
:100DA000F0B504000E4B5A78904217D00023002073
:100DB0000B4F0F2626403D0008E0013040B20428CA
:100DC0000AD02033EA185278A24206D0D95D002911
:100DD000F3D19642F1D100E00538F0BD0020FCE7E8
:100DE000F80400200020704770B504000D000A4B85
:100DF00098474201094B9B189A780023032A01D097
:100E0000180070BD4001054B1818836929002000A7
:100E100098470300F4E7C046A10D0000F804002045
:100E2000F0B585B005000F001600514B984704003F
:100E3000002F62D14F4B420199180020C870D35C3B
:100E4000002B0ED062014B4B9B1801229A7064015B
:100E5000484B1C19E178E36932002800984705B037
:100E6000F0BD8B78032B0CD0424B62010C329A18E8
:100E700064011C1960780021E36998470223A3707C
:100E8000EDE73C4A0B000C254D5761010C3152181F
:100E90005878DB6901219847002817D06201354B4B
:100EA0009B1805229A70033ADA70002D09DB640161
:100EB000304B1C1960788023184301212E4B984732
:100EC000CDE764012B4B1C196078F6E76401294BD0
:100ED0001C190423A3706378002201920292002D52
:100EE00008DB8032134301A8037201234372234BB2
:100EF0009847B4E70F221340F5E7012F0AD0022FDD
:100F00001DD0032F2CD042011A4B9B1806229A7039
:100F1000DA709CE7174B420199180220C870D35C25
:100F2000002B05D06201134B9B1805229A708EE7A7
:100F300002228A70002128000F4B984787E70D4B4B
:100F4000420199180420C870D35C002B05D06201BF
:100F5000084B9B1801229A7079E702238B707EE779
:100F60004201044B9B1800229A700532DA706EE73A
:100F7000A10D0000F804002061280000352A0000BF
:100F8000F0B5C64600B504001D4B98470600450164
:100F90000C351C4B5D19290020001B4B9847C0B233
:100FA00008280AD001212000184DA847802020439E
:100FB0000121A84704BC9046F0BD00212000134B3E
:100FC000984698478027274300213800C047720180
:100FD0000C4B9B1801229A705B69290020009847EE
:100FE0000028E7D17601074B9E190523B370012134
:100FF0002000064CA04701213800A047DAE7C04690
:10100000A10D0000F8040020C5290000612800009F
:1010100010B5104B984700281BDB0F4C8022002195
:1010200020000E4B984723008034FF210C4A597052
:101030005A619A61DA612033A342F8D1094900204C
:10104000094CA04709490120A04709490220A047AF
:10105000002010BD41220000F8040020713B000078
:10106000E50D0000810F00006D2C0000E90D00006F
:10107000210E000010B5014B984710BD492C00000F
:1010800010B5014B984710BD1D23000010B5014B52
:10109000984710BD6D23000010B5014B984710BD57
:1010A0007D230000F8B505000E0017000F4B984790
:1010B000002814DAFF200D4B9847041E12DB3A007B
:1010C000310028000A4B9847002807DB094A6401D1
:1010D00013195D7003231E40A6540020F8BD142090
:1010E0004042FBE715204042F8E7C046A10D000052
:1010F0008D230000F804002010B582B200210020EA
:10110000014B984710BDC046A510000070B5050002
:10111000064B9847041E07DB2800054B98476401DF
:10112000044B1C19FF23637070BDC046A10D000065
:10113000B9240000F804002070B504000E4B984755
:10114000051E15DB43010D4A9B5C5A425341013396
:1011500041010A4A521893702000094B9847002811
:1011600000DB70BD6D01054B5D190023AB70F8E726
:1011700012204042F5E7C046A10D0000F80400200F
:1011800085250000F0B5D6464F464646C0B586B028
:101190000400077A3800404B98470500667A636878
:1011A0009846002800DA71E004A83C4B98476A0191
:1011B0003B4B9B189A7817236B441A701B78012BB2
:1011C00010D004A8374B984717236B441B78DBB229
:1011D000052B5ED0062B23D00120002B3CD1132001
:1011E000404239E02E4B99466B019A464B46534498
:1011F00003229A7004A82B4B98474B465246D35C67
:10120000002B10D0237A721E9641F6B2226801920A
:10121000424602927FB2002F17DB0F22134016E0E6
:101220001020404218E06B011D4AD218D17C0902FF
:10123000937C5B189BB2002B14D104239370002283
:101240000126237A2168019102928022134301A88A
:1012500003724672144B984706B01CBC90469946E0
:10126000A246F0BD42469A4200D91A006D010C49CF
:101270004D19297B7F2905D8237A21680191029293
:101280000026CAE79A42B6417642DAE71220404287
:10129000E2E70220E0E7C046A10D0000192F0000A0
:1012A000F8040020272F0000352A000070B5040044
:1012B000002905D0012921D00221134B984770BD88
:1012C000124B9847051E1CDB022120000E4B98474D
:1012D0000028F4D0002120000B4B98470028EEDBBB
:1012E0006D010B4B5D190123AB700233EB70EB69A1
:1012F00000220321200098470020E0E7024B984796
:10130000DDE712204042DAE761280000A10D00006D
:10131000F804002070B50D0014000F4B984703002F
:10132000221E08D0002B05DB012D0BD0002D04D090
:10133000022D0CD070BD094AF4E74001084B181883
:101340004261F7E74001064B18188261F2E740015D
:10135000034B1818C261EDE7A10D0000E50D000078
:10136000F8040020002800D100BE704770B50400CA
:101370000E00150000280BD0002918D00120002AEB
:1013800007D128220C4900200C4B98476B1E07E020
:10139000002028220849094B98476B1E2B4208D190
:1013A00063600023A360E3602660002070BD00201E
:1013B000EFE70D204042F9E7B03D00006513000063
:1013C00070B504000D00002815D00800431E984198
:1013D000C0B240220A490B4B9847A368E2689A4280
:1013E0000BD0626813402268D35C2B70A368013372
:1013F000A360002070BD0020EBE70A204042F9E71F
:10140000B03D00006513000070B504000D00431EE0
:101410009841C0B251220A490A4B98476368E26872
:1014200013402268D554E3686168A2689A1A8A4218
:1014300001D9591AA1600133E360002070BDC04694
:10144000B03D00006513000010B50400431E984134
:10145000C0B267220349044B9847E068A368C01AEA
:1014600010BDC046B03D000065130000FA239B008C
:101470005843704710B5064B5A685A60054B984759
:10148000054B9847054B9847FF20054B984710BDE3
:10149000004000411D150000A51A0000ED1A0000D3
:1014A000A5140000C30709D5174B802252009A608B
:1014B000164A5A601A005378DB09FCD1830709D514
:1014C000114B0222FF329A60114A5A601A00537877
:1014D000DB09FCD1430709D50B4B812252009A60EE
:1014E0000C4A5A601A005378DB09FCD1030709D56E
:1014F000054B0422FF329A60074A5A601A0053785B
:10150000DB09FCD17047C046000C00400006090012
:10151000010401000207090003030100064B1A7AC7
:10152000D2B21A725A7AD2B25A729A7AD2B29A72E3
:10153000DA7AD2B2DA72704700040040064B984261
:1015400003D0064B984203D07047054B1960FBE768
:10155000034B5960F8E7C046000800420010004203
:101560007805002010B50400204BC3189B0ADBB29D
:10157000022B05D0982292001D4900201D4B984750
:10158000E369DB0718D40322E3691A42FCD123681C
:101590009B070BD523680222934323600132E36942
:1015A0001A42FCD10222E3691A42FCD105232360CE
:1015B0000322E3691A42FCD10122E3691A42FCD1F9
:1015C0000D4B23600322E3691A42FCD1C0239B0226
:1015D00063600722E3691A42FCD1084BA381002310
:1015E000A3733022A354002010BDC04600F8FFBDF5
:1015F000D43D00006513000004001040ADD8FFFF8B
:1016000070B506000C00431E9841C0B2C6221349B3
:10161000134B98472000134B9847051E01D0280014
:1016200070BDB461310020000F4B98470F4B9C46B2
:101630006444A40A0934E3B22206F0D41F221A40FB
:10164000012393400A4A80215350BFF34F8FBFF3C9
:101650006F8F0131FF3153501360E0E7D43D00003C
:1016600065130000651500003D15000000F8FFBD82
:1016700000E100E08269136802210B43136001312D
:10168000D3691942FCD170478269136802218B43E8
:1016900013600131D3691942FCD17047836989B263
:1016A00019857047836901229A7570478369022200
:1016B0009A75704770B504000D001600431E9841DE
:1016C000C0B2882292001649164B984702232A007E
:1016D0009A430ED1A369002E05D101221A75A36980
:1016E00001321A7570BD01229A75A36901329A758B
:1016F000F8E7012D07D0032DF4D1A369002E0BD0FC
:1017000080229A75EEE7A369002E02D104221A7591
:10171000E8E704229A75E5E780221A75E2E7C046F9
:10172000D43D00006513000010B5124B1868026824
:10173000117E937D0B40D90707D4590708D4990728
:1017400009D45BB2002B0BDB10BD83689847FBE725
:10175000C3689847F8E70223137603699847F3E7CD
:10176000042353837C3313764369132149429847FA
:10177000EAE7C0467805002010B5194B586884691F
:10178000237EDB0702D5A37DDB070FD4237E9B07D7
:1017900002D5A37D9B070ED4237E5B0715D5628BF4
:1017A00037231A420CD00833638310BD01232375FD
:1017B00003689847F9E70223237583689847F4E79D
:1017C000218DC9B243689847EFE7237EDB09ECD04F
:1017D00080232376C3689847638B9BB26383E4E7D7
:1017E0007805002070B505000C00354BCB189B0A1E
:1017F000DBB2002B0BD0002851D0601E8441E0B238
:10180000304A3149314B98470D20404246E000288C
:101810004DD12C4A2C4900202C4B9847E369DB071B
:1018200018D40322E3691A42FCD123689B070BD525
:1018300023680222934323600132E3691A42FCD1F8
:101840000222E3691A42FCD10D2323600322E369DB
:101850001A42FCD10122E3691A42FCD12C6020001B
:10186000431E9841C0B21A4A1749184B9847194B62
:1018700023600322E3691A42FCD180239B02636048
:101880000722E3691A42FCD1FF2323730022CF3BD6
:10189000E2542F3B2B71104BEB80002070BD094AA6
:1018A00009490020094B98470D204042F6E70800FF
:1018B000431E9841C0B2034A0349044B9847ADE721
:1018C00000F8FFBD6D090000D43D00006513000065
:1018D000130900000C001100FF01000070B50500A5
:1018E0000C00134B984700281EDB29002000114BE9
:1018F000984700232B61EB60AB600F4B9C46644420
:10190000A40A0934E3B222060FD41F221A4001238D
:1019100093400A4A80215350BFF34F8FBFF36F8F1C
:101920000131FF315350002070BD0020FCE7C0465C
:10193000E51700003D15000000F8FFBD00E100E0E4
:1019400070B50D00046800280DD02000431E98419A
:10195000C0B2074A0749084B9847002D05D101231B
:101960002375002070BD0020F3E70123A375F8E77D
:10197000F90A0000D43D000065130000F8B50E0020
:1019800005680C4C431E9841C0B20B4A21000B4F16
:10199000B8472800431E9841C0B2094A2100B84701
:1019A000002E03D104232B750020F8BD0423AB7552
:1019B000FAE7C046D43D00000D0B0000651300009F
:1019C0000E0B000070B504000D0000280FD0006859
:1019D000431E9841C0B2B22212010849084B9847F1
:1019E000002D06D1236802221A75002070BD002048
:1019F000F1E7236802229A75F7E7C046D43D00005C
:101A00006513000070B504000D0000280BD00068BD
:101A1000431E9841C0B2054A0549064B98472368C2
:101A20009D62002070BD0020F5E7C046320B00002B
:101A3000D43D00006513000010B5041E0BD00068F3
:101A4000431E9841C0B2054A0549064B9847236892
:101A5000986A80B210BD0020F5E7C0464D0B00002B
:101A6000D43D00006513000070B504000D001600A1
:101A700000280FD0002003238B424041C0B2012335
:101A80001840054A0549064B9847AD006419A66001
:101A9000002070BD0020F2E7660B0000D43D00007E
:101AA000651300000E4B1A6A196A0E480240890F2E
:101AB00089070D4801430A431A629A690A229A610A
:101AC0001900063ACB681A42FCD005490822CB68B7
:101AD0001A42FCD0024A136A80210B4313627047FA
:101AE000000800400000FF0F020300000222194B13
:101AF0009A8419000E32CB681A42FCD0164A154B54
:101B0000DA62164B1B689B0E3F2B1AD09B02802279
:101B1000920013430F4A936293235B009384938C48
:101B20005B0711D511001022CB681A42FCD0094A7C
:101B3000938C80210B439384094A5378DB09FCD1B1
:101B40007047FC23DB01E5E702491022CB681A420B
:101B5000FCD0ECE70008004080BB0104246080005A
:101B6000000C0040024B034A5A6005221A6070477D
:101B700010E000E0FFFFFF0070B50B0E5E1EF6B236
:101B8000002B13D034000E4A0E4D802040025560C9
:101B9000956013680342FCD0013CE4B2FF2CF6D1FF
:101BA0003306F61A084B9C4661447118044B596081
:101BB00099601900802252020B681342FCD070BD5C
:101BC00010E000E0FFFFFF00010000FF0020704771
:101BD00070B5837C0F221340C17C083A0A40012A69
:101BE0000BD05A0119498C4662441021D1715B0116
:101BF000174A94466344197070BD4A060ED5C27CDC
:101C000040218A43C2745A01124CA4466244802582
:101C10008224640015550624FF341155C27C082126
:101C20008A43C2740C495A018C180025A572A57606
:101C30001300064CA44663446F24DC71044B9C469D
:101C400062441470807C8B6E9847D5E70051004148
:101C500008510041005000418005002010B52022AD
:101C60008A40D2B2817C0F230B405B0105498C4630
:101C700063441A708268807C034B1B6F0121984774
:101C800010BDC046085100418005002010B5837C7E
:101C9000FF2B02D0C27C520600D410BDC27C40246F
:101CA000A243C27482680248046F1800A047F4E798
:101CB0008005002030B583B0837C01AC25252570DC
:101CC00025356570FF2B1BD0C47C640618D50F2406
:101CD0002340002916D05C010E4DAC46644480259B
:101CE000257101AC645C59010A4DAC466144CC716C
:101CF0005B0109498C4663441C701100074B9847EF
:101D000003B030BD5C01034DAC46644440256571B1
:101D1000E7E7C04600510041085100418D1C00001A
:101D200070B582B0837C0F22134001AA0424147082
:101D3000043454705D01002931D01A000832520178
:101D4000324C145D6406640F0A015219304DAA1812
:101D5000957AEDB2022C2AD0AC0741D5C57C947A95
:101D60000226B443947201AA545C5A01294EB44627
:101D70006244D4715B01284A944663441C70072373
:101D80002B40012B3FD1C37C5B063CD5C37CDB09D8
:101D9000994238D000221900204B984733E01A00AE
:101DA00008325201194C145D07221440CCE7EC07AD
:101DB000D2D5947A0125AC43947201AA545C5A019D
:101DC000144DAC466244D4715B01134A944663449B
:101DD0001C704B1E9941C9B20422104B984712E067
:101DE0005A00521812010A4882180020907201AA63
:101DF000515C5A01074884466244D1715B01064A2E
:101E000094466344197002B070BDC0460050004152
:101E1000800500200051004108510041B51C000020
:101E2000F0B5C64600B50C4D2C0074342935FF358D
:101E30000A4B9846FF27002603212000C047A774BD
:101E4000E6741434AC42F7D1602200210248044BFE
:101E5000984704BC9046F0BD800500208D1C000012
:101E6000713B0000F0B5C64600B504000E00837C4F
:101E70000F251D40002900D1AAE06A015A4B9B188A
:101E800058698004800C238A584A934200D19AE012
:101E9000013B9AB2E37C07271F40002E05D06B015F
:101EA00053498C4663440221D971A368C118A160CB
:101EB000636899424AD25B1A9BB2E27C920635D59E
:101EC000228A101C92B29A4200D9181C83B29846FA
:101ED00023689C4661444246E068464B9847E16867
:101EE0006A01414B9B1819616A013F4B9B185A6963
:101EF00041468904890C920B92030A435A615A693C
:101F00003D490A405A61002E07D1012F59D04A227B
:101F10006B013A498C4663441A706D01344B9C4600
:101F2000654480236B7104BC9046F0BD1A1C802070
:101F30008001834201D9324B1A8893B298462368B4
:101F400059186A01284B9B181961CDE7E37CDB0621
:101F50000FD5E37C10229343E3746A01224B9B1854
:101F60005A69920B92035A615A6923490A405A618D
:101F7000C9E7012F0ED06D01224B9C4665444A23D0
:101F80002B70218A024091420BD0002120001E4B71
:101F90009847C8E76D011B4B9C4665444B232B704B
:101FA000EFE7E37C40229343E374A07C0E4BDB6EAF
:101FB000A16898470028B6D1E37C40221343E3741C
:101FC000E3E74E22A4E7E77C07231F40074A66E7C2
:101FD000038A064A0020934200D059E7E37C072792
:101FE0001F400020014A60E780050020FF03000039
:101FF00000510041ED3A0000FF3F00F0095100415F
:10200000F03D0000085100418D1C0000F8B5DE468F
:1020100057464E464546E0B504008846837C0F256A
:102020001D40002957D06A017D4B9B185A68120148
:10203000920C92465F68BF04BF0CBB46068A794B80
:102040009E4200D1CDE0013EB6B25F463740E37C10
:1020500007221A4091464346002B05D06B01724A75
:10206000944663440122DA71E37C9B060FD56368D2
:10207000002B39D0A0681B1A9BB22268944660449A
:10208000E1681A00BB4200D93A00684B9847636880
:10209000002B29D04246002A42D0228ABA423FD998
:1020A000E37C10229343E374A3685B44A3604B4634
:1020B000012B00D187E06B015D4A944663442522E1
:1020C0001A70002D02D1564BE2681A6000212000E0
:1020D000584B984759E0068A524B9E4200D18EE0F9
:1020E00000239B469A46AEE7E37CDB0600D47FE004
:1020F000E37C1022934320221343E374484A6B018C
:10210000E1689950218AD3185A68890409094A4814
:1021100002400A435A605A68920B92035A6022E0C6
:10212000A2685244A2609342C1D99B1A9BB2E17C3F
:10213000890630D5228A111C92B29A4200D9191C04
:102140008BB2E0686A01364950506A0134498918F7
:102150004A689B041B093848024013434B604B6894
:102160009B0B9B034B604346002B08D125224B461B
:10217000012B2FD06B0131498C4663441A706D01DD
:10218000294B9C46654440232B713CBC90469946A4
:10219000A246AB46F8BD218A8B420AD9802189012B
:1021A0008B420DD8B34321688A1869011C480A5034
:1021B000CBE78B42F7D2E17C20200143E174F2E7C8
:1021C00080239B01EFE76B01194A944663442D225B
:1021D0001A7076E76A01124B9B1800229A762D320C
:1021E000C8E7BF05BF0DC37C07221A40914635E7FB
:1021F0004346002B0CD1A3685344A36057E7C37C2C
:1022000007221A409146002700239B469A462BE757
:10221000238ABB4200D943E7A3685344A36046E73F
:1022200080050020FF03000000510041ED3A00004E
:10223000085100418D1C0000FF3F00F00951004192
:1022400010B5314B9B78DB071FD42F4903228B78C5
:102250001342FCD12C4B1B789B070ED52A4A1378CE
:1022600002218B431370110003228B781342FCD19F
:10227000254902228B781342FCD10122224B1A708D
:10228000190002328B781342FCD11F4901228B784E
:102290001342FCD11D4B1E4A1A665A669A66DA66CC
:1022A0001A671C4B98471C4B1B685A0B1F210A408E
:1022B000980C01409B015B0F1F2A1FD01F291FD0C4
:1022C000072B1FD092010A431B0313430E4A1385A9
:1022D000D37803210B43D370D3780C210B43D370F5
:1022E00004231370110003228B781342FCD1064B98
:1022F000064A5A6201221A81002010BD1A3ADDE70F
:102300000239DDE7023BDDE7005000418005002097
:10231000CD1B0000211E000024608000104B9B7824
:102320009B071AD10E4903228B781342FCD10C4B28
:102330001B78DBB29A0708D402221343084A1370B1
:10234000110003228B781342FCD18022054B1A60C6
:10235000054A034B1A830020704711204042FBE7D7
:102360000050004100E100E08D020000024A1389A4
:1023700001218B4313817047005000418023184393
:10238000014B98727047C04600500041F0B50F24D1
:10239000044043B29C46002C54D02500002B07DBA0
:1023A000032319402700022C50D91220404225E077
:1023B000A51CF5E76346002B21DB7B00DB199B00A6
:1023C0003B4C1B59002B66D17B00DF19BF00384BFB
:1023D000FF58384BAE007419A4001C1980342760D4
:1023E00060337419A4001C19A284273401312170B0
:1023F0007519AD005B19263318700020F0BD7B0005
:10240000DB199B002A4CE3185B68002B06D17B008C
:10241000DF19BF00264BDF197F68DAE77B00DB1985
:102420009B00234CE3185B899342F0DA132040426F
:10243000E4E714204042E1E714204042DEE71320A5
:102440004042DBE70323194000250027AB005B195E
:102450009E00184B9B1986331B78FF2BE9D100296E
:10246000A8D1002C04D06346002B01DB0234E4B277
:10247000A3001B199B000F4CE41886342378FF2B14
:10248000DAD17B00DB199B00094C1B59002BD6D0FD
:102490006346002BB3DB7B00DB199B00044CE31885
:1024A0001B89934200DB8FE713204042A6E7C0461A
:1024B000F43D000080050020F8B505000F2404401D
:1024C00047B2002C10D02000002F02DB022C02D9D2
:1024D000F8BDA01CFAE70600013083001818800040
:1024E000254B6033181802E0234874300026B300EF
:1024F0009B199A00204B9B1886331B78FF2BE7D043
:10250000F90F03221D4B9847B3009B199A001A4BF1
:102510009B188033DA7907231340012B1BD0002F3F
:102520001FDB6D01164B9C46654480225200AB5C5C
:1025300007218B43AB54104B6033B1008A199200D2
:102540009A182732002010708E19B6009B19263376
:10255000FF221A70BCE708356D010022084BEA54CF
:10256000E9E76401064B9C46644480225200A35C68
:1025700070218B43A354DEE780050020B51C0000CA
:1025800000500041F0B5C64600B50F22024040B2EF
:10259000002A00D192E0130000280BDB1100083262
:1025A0005201AA4C155DEDB2022900D88DE012202F
:1025B0004042E5E0931CF1E776322A4275D1A34A06
:1025C00090464444112080225200A0549A00D21810
:1025D00095009F4A60325219928C95039D480540A0
:1025E00080208000824200D9CDE00138FF3882424D
:1025F00000D913E1802A00D900E1402A00D915E171
:10260000202A00D902E1102A00D917E1F8389042B7
:1026100080414042060735437D609504AD0CB9E02A
:1026200070222A4244D18A489E00F21892008218F1
:102630008032D2795207520E1543844A944664443C
:1026400080225200A5546030F618B6008019808CA4
:102650008504AD0C0132FF320723904214D8013AB1
:10266000FF3A013B90420FD8013B80280CD8013B38
:10267000402809D8013B202806D8013B102803D860
:10268000F83A8242924153421B072B437B618022DE
:1026900082235B00E25449016D4B591800238B766D
:1026A00000206DE0122040426AE01420404267E0C2
:1026B0001420404264E01420404261E080235B002B
:1026C000624AD55CEDB2002100239A00D218940032
:1026D0005F4A1219863212789446FF2AE2D04C01E2
:1026E0005B4A17199E00F618B60092198032D67907
:1026F00007223240012A00D15EE7002890DB6A07FA
:10270000D9D153489E00F218920082188032D279B3
:102710005207520F15434D4A94466444802252009A
:10272000A5546030F618B6008019858CAB03494873
:1027300018400132FF320723954214D8013AFF3A7C
:10274000013B95420FD8013B802D0CD8013B402D19
:1027500009D8013B202D06D8013B102D03D8F83AAB
:10276000AA42924153421B0703437B604022062347
:10277000FF33E2544901364B591800238B72002075
:1027800004BC9046F0BDE020C00505437D60950483
:10279000AD0C07200007284378610625FF35402649
:1027A000665582277F008020E0552948490141185D
:1027B00000248C728C760F3461460C409900C91845
:1027C000890041188031096863011950C0184168B7
:1027D00092041409204A0A40224342604268920B44
:1027E00092034260194A9A18B021D15556551B4A96
:1027F0009446634410221A700020C1E7A020C0054F
:1028000005437D609504AD0C0520C3E7C02080051D
:1028100005437D609504AD0C0320BBE7C020C005D7
:1028200005437D609504AD0C0620B3E78020C0050C
:1028300005437D609504AD0C0420ABE78020800546
:1028400005437D609504AD0C0220A3E700500041D4
:102850008005002000C0FF0FFF3F00F0095100413C
:10286000F0B50F23034040B2C40F002B09D01A006B
:10287000002804DB022B05D91220404219E09A1CE3
:10288000F8E70022012915D0002936D093009B18C3
:102890009B00474AD218863212780F2313405B01FF
:1028A000444A9446634498791023A3401840431E39
:1028B0009841F0BD1025A540EDB23D499000831828
:1028C0009B00CB1886331E780F2333405E01394FAF
:1028D000BC46664475712025A540ECB25B01364DBF
:1028E000AC4663441C70821892008A188032D379F7
:1028F00008210B43D3710020DBE793009B1899005C
:102900002B4B5B1886331B780F210B405D012B4945
:102910008C466544832149006E5CF639A140002055
:102920000E42C6D0C9B20530FF3029542021A14043
:10293000C8B25B01224EB446634418700823FF33CB
:10294000EB5C0B4209D00823FF33E854073BFF3B05
:10295000A340DBB2822149006B5493009B1899007D
:10296000134B5B188033D97907230B40012B0BD015
:1029700093009A1892000E4B9B188033DA79082145
:102980008A43DA71002094E70633FF33E95CD63BD3
:102990000020194200D08CE793009A189200044B53
:1029A0009B188033DA7908218A43DA7181E7C046BF
:1029B00080050020005100410951004100500041B4
:1029C0000851004170B50D000F2318404401164B0B
:1029D0001B1919685B689B049E0C02281AD8002DED
:1029E0001BD0124B9C46644480235B00E35C112B9C
:1029F00016D10823FF33E35C0020DB0600D470BD52
:102A0000082228000A4B984710220823FF33E2547B
:102A10003000F4E712204042F1E712204042EEE796
:102A200013204042EBE7C0468005002000500041E3
:102A3000ED3A0000F0B5DE4657464E464546E0B555
:102A400085B08046067A0F23334076B2002B00D142
:102A5000D3E01800002E39DB0400734A6032411CB9
:102A60008D006D18AD0055198100091889005218A4
:102A7000918C6E4A91422BD04F1EBFB24246526893
:102A80001740022B00D9A4E043461B6868488342E4
:102A900020D998180190674884460198604519D854
:102AA0009B0717D1002E32DB914200D9AFE0002FF7
:102AB00030D0A3001B199A005B4B9B1880331B6816
:102AC000002B00D18BE0002399460FE0981CC3E750
:102AD0000F00D3E7A3001B199A00534B9B188033B8
:102AE0001B68002B00D177E001239946A3001B1936
:102AF0009A004D4B9B188033DB7902201B070CD5C5
:102B000005B03CBC90469946A246AB46F0BD0023BA
:102B10009946EBE700239946E8E703A8464B984718
:102B2000A3001B199A00404B9B188033DB795B068E
:102B300044D4A3001B199B003B4A93469B4480232B
:102B40005B449A46DB79402213435246D37103A873
:102B50003A4B98475B46424612685A67424652686B
:102B60009A6700235A46D367F20FD2015346D979A8
:102B70007F230B40494649011343202293430B43D3
:102B80005246D37143465B7A0022002B02D07A4230
:102B90007A41D2B2A3001C19A400234B1B19803325
:102BA0001201DF7910218F431743DF71002E0ADBFA
:102BB00000212800224B98470020A1E703A81F4BC3
:102BC000984701209CE7002128001E4B98470020D1
:102BD00096E71220404293E71320404290E71220EC
:102BE00040428DE7132040428AE743465A689705E2
:102BF000BF0D0D4D7435002446E70B4A6032918CB1
:102C00000A4A9142F1D0084D7435002434E7A300FC
:102C10001B199A00044B9B1880331B68002BE1D0D2
:102C20000123994662E7C04680050020FF030000AB
:102C3000FFFFFF1FFF7F0020192F0000272F00003C
:102C40000D200000651E00000B1E06D0012806D0D6
:102C5000002801D1034A13667047034BF6E7014A87
:102C60005366F9E780050020CD1B00000B1E08D03D
:102C7000002808D0012809D0022806D1054A136788
:102C800003E0054BF4E7034A93667047014AD366B5
:102C9000FBE7C04680050020CD1B0000F8B5824B45
:102CA0001E8CB6B2002E03D0804C74340025B9E0DF
:102CB000998B1B8B0B405A0717D49A051CD41A0604
:102CC0003ED470221A4244D11A075ED4DB07EBD5FA
:102CD000754B774A9A839A82923AFF3A1A83734BDA
:102CE0005B6E00210420984705E004226E4B9A8316
:102CF0006E4B1B6E9847F8BD6B4B6D4A9A839A8258
:102D0000923AFF3A1A83694B1B891B071B0F032B4F
:102D10000CD0664B1B8D1B071B0F00216F3A032B3A
:102D200005D0624B5B6E03209847E4E70022520116
:102D30005E4B9B1819894904490D00221A81F0E75E
:102D40008022594B9A83594B5B6E0021052098478E
:102D5000D1E7554B9A839A82554A1A83554B9B8CDF
:102D60009B060CD45349323AFF3ACB681340D02B20
:102D7000FBD14E4B5B6E002102209847BBE74D49CB
:102D80001022CB681A42FCD0F3E7474B0021802287
:102D900052009954F83A9A8368329A82444A1A83C4
:102DA000454B9847414B5B6E002101209847A2E7B5
:102DB000CB0607D44B0608D48B062ED500213F4BFB
:102DC00098472AE03E4B984727E001213B4B984724
:102DD00023E04B060ED40B0710D48B0712D4072325
:102DE0001A40012A19D14B0710D4CB0615D5344B04
:102DF000984712E00121314B98470EE00121314BF9
:102E000098470AE00121304B984706E000212D4BFE
:102E1000984702E00021294B984701351434092DC9
:102E200000D168E72000A17CFF29F6D00F230B40DA
:102E3000012199400E42F0D05901244FBC46614413
:102E4000C9795B01224FBC4663441B781940E4D02A
:102E5000AB005A199200154B9C4662447032D27DE9
:102E600047231340012BA3D053B2002BB1DB8B06B9
:102E7000D0D44B070CD4CB070ED407231A40012A19
:102E8000CBD10B070CD4CB06C7D50D4B9847C4E765
:102E900000210C4B9847C0E701210E4B9847BCE737
:102EA0000121084B9847B8E70050004180050020F9
:102EB0000102000000080040211E00005D1C00000F
:102EC000D11B0000211D0000651E000000510041C3
:102ED000095100410D20000010B506484030064B56
:102EE0009847064B98470648064B9847064B984725
:102EF00010BDC0466807002049380000CD310000F1
:102F00001C000020C1380000F938000010B5014B4A
:102F1000984710BDD92E0000EFF31083036072B6FE
:102F2000BFF35F8F7047BFF35F8F036883F3108831
:102F300070470000F0B583B006000C0015000A7859
:102F400053069B0F012B00D06CE0097963791B02BB
:102F50000B433B490978994203D039494978994252
:102F600063D152B2002A0EDBA779E3791B021F431B
:102F7000344B98476378202B18D0222B3CD00D205F
:102F8000404203B0F0BD012D52D06378212B51D1C6
:102F9000A279E3791B021343072B4ED100230722AA
:102FA000274908313000284CA047EAE7072F34D1E1
:102FB000002D1AD0072201006846244B9847204B69
:102FC0001B69002B05D06846984703000020002BA2
:102FD000D7D01B4A1300009991606A4692889A8163
:102FE0006A4692799A730020CBE7002307220100FA
:102FF0003000154CA047C4E7002300220021002028
:10300000114DA8470E4B5B69002B09D0A278E078E0
:103010000002104398470020B3E701204042B0E788
:103020000020AEE70A204042ABE70A204042A8E772
:103030000020A6E70D204042A3E701204042A0E780
:10304000E807002005390000B5330000ED3A000024
:10305000F0B5DE4657464E464546E0B583B016000D
:10306000012968D000290BD0022900D193E00D205E
:10307000404203B03CBC90469946A246AB46F0BDE8
:10308000836898461068002800D187E001930123E7
:1030900043449B46474F484B9946827843790821E1
:1030A0008B43022B02D00A204042E2E701998A4674
:1030B0000B789A4275D0FF2B76D10A700522716881
:1030C0003E4B9847041E1ED130680378C018042276
:1030D00071683A4B9847019B5B4527D0019B0133B0
:1030E00001930028D9D10A204042C2E753469D707F
:1030F0002800314B98473460207820187168304B95
:103100009847041EE0D0A57863791B022279D21873
:1031100092B2E1782800B847002848D16BB2002B62
:10312000E4DB43461D712800C847E4E70122254B34
:103130005A7100209DE78468002A08D013685B79E3
:1031400008229343022B02D00A20404291E72378C1
:10315000FF2B08D0FF232370A078FF2803D01A4B41
:103160009847FF23A3706378FF2B08D0FF23637079
:10317000E078FF2803D0144B9847FF23E3702079B1
:10318000FF2803D0104B9847FF23237100220D4BDB
:103190005A7100206DE71B2040426AE70A20404236
:1031A00067E71220404264E71C20404261E7142098
:1031B00040425EE7A51000003911000021390000EF
:1031C00057390000E80700200D11000010B50A4B28
:1031D000984701280CD80948094BC3610062183090
:1031E000084B984708490120084B9847002010BD1C
:1031F00011204042FBE7C04611390000E8070020DB
:1032000051300000A93800007C0000201138000077
:1032100010B5064B1C69002C07D0002201212000AC
:10322000636898472468002CF7D110BD0C08002073
:1032300070B506000D00074BDC68002C03D170BD93
:103240002468002CFBD06368002BF9D029003000E3
:103250009847F5E70C080020F8B507000E001500A8
:103260000D4B9C68002C04D1002011E02468002C38
:103270000DD06368002BF9D02A0031003800984740
:10328000002806D00A30F1D00120404200E00020A2
:10329000F8BD0120FCE7C0460C08002010B5064B25
:1032A0005C68002C03D110BD2468002CFBD063683F
:1032B000002BF9D09847F7E70C08002010B5140050
:1032C000002903D0012929D0002010BD1378002B3C
:1032D000FAD15378052B11D0092BF5D19278124BE6
:1032E000DA76A378E178090219434B1E994103313C
:1032F0000D4B997601200D4B9847E5E790780C4BE4
:103300009847A378E178090219434B1E994102318D
:10331000054B99760120054B9847D5E701222100FE
:103320000020044B9847CFE70C0800203132000002
:10333000991000005932000010B50D4B98470D4C04
:103340000223A3760023E376637700200A4B984795
:10335000207F0A4B98470A4A00210020094CA047C9
:10336000094A02210020A0470020084B984710BDC1
:10337000113200000C0800200D110000F9100000AF
:10338000D133000015130000BD32000039110000D8
:1033900010B5002802D0012804D010BD0020034B36
:1033A0009847FAE7024B9847F7E7C04631320000EA
:1033B0003933000010B584B001AC01910292207243
:1033C00063722000014B984704B010BD85110000C6
:1033D000F0B5C64600B584B005000C000022B54B20
:1033E0009847431C0DD0012301280BD022781F23BE
:1033F000110099430BD0CBB2802B00D1F8E0002311
:1034000000E00023180004B004BC9046F0BD6378CF
:103410000B2B00D9E4E19B00A749CB589F46012321
:10342000002200212800A54CA04743424341DBB2C3
:10343000E8E7A278002A1AD0A14B1B6859681868DF
:10344000A04B9847002800D1D4E1C3781B028178B3
:10345000C91889B24118039104229B4B98470290E6
:10346000002806D0FF24964F974B98461AE0974BBA
:1034700098470123002200212800904CA047434296
:103480004341DBB2BEE7340000E034000298037829
:10349000C0180290039B019304221900C0470290B8
:1034A0000028E6D08678A642F0D03C69002CEAD00D
:1034B00002AA00212000636898470028E5D024680C
:1034C000002CF5D13400E1E71F231A400023022A23
:1034D00098D1A379E27912021A430023002A00D07E
:1034E00090E7207900217A4B9847012300220021A0
:1034F0002800724CA047012384E71F231A400023B1
:10350000022A00D07EE7A379E27912021A4300234F
:10351000002A00D076E7207901216D4B98470123DE
:10352000002200212800654CA04701236AE7A37808
:10353000E5782D021D432379647924021C43604AF7
:103540001368D27E596818685E4B9847002847D0A8
:103550000290C3781B028178C91889B2411803917F
:103560000422594B984700283CD0574E08E0029857
:103570000378C018029004220399B047002833D082
:103580008378A342F3D1C378AB42F0D102904C4B85
:103590001E69002E2AD002AA0121300073689847C4
:1035A000002804D03668002EF5D100232AE773687E
:1035B00002AA0021300098470023002800D021E70C
:1035C000002D05D03E490122A2404B7F13434B778B
:1035D0000023002200210020384CA047012311E7DE
:1035E00000230FE700230DE700230BE7002309E783
:1035F0006378062B33D0D9B2062922D9082B00D103
:10360000AFE00A2B00D0EDE02D4B5A7F2179637992
:103610001B020B431A41D30700D4CAE0284B1D6993
:103620000023002D00D1EDE62200022128006B6866
:103630009847002800DBC8E02D68002DF4D1002356
:10364000E0E6002B00D0CDE01F231A40D3B2012BBF
:1036500000D892E0022A00D19FE00023D2E6A378AE
:10366000E27812021A43130A022B33D0032B56D0EE
:10367000012B01D00023C5E6A279E3791B02134395
:103680001A1C122B00D9122294B20D4B1B685968D8
:10369000186801220C4B9847002800D1A4E00023B1
:1036A000220001002800054CA04743424341DBB201
:1036B000A8E6C04659320000183E0000B5330000AD
:1036C0000C0800209D390000213900001132000053
:1036D000AD120000A379E67936021E43464B1F7FE8
:1036E0001B680132D2B259681868444B9847011ED2
:1036F0007CD0C3781B028478E418A4B20023A642CD
:1037000005D9013F3E4073427341DBB226003200CF
:1037100028003B4CA04743424341DBB272E6A37909
:10372000E179090219430C00334B1E7F1B68D2B2AA
:1037300059681868334B9847011E59D00278002306
:10374000944206D9731E2340180043424341DBB222
:103750001400220028002A4CA04743424341DBB218
:1037600050E6254BDA7E59690A7059690023012217
:103770002800234CA047012344E6002302931E4C5B
:10378000022202A96069204B984761690023022246
:1037900028001B4CA047012334E6207902211B4B53
:1037A0009847002803DB012318400290E7E7002335
:1037B00028E6114B002259690A7059690023013229
:1037C00000200F4CA04701231CE60B4B5A691070D8
:1037D0005969002301220020094CA047012311E66A
:1037E00000230FE600230DE600230BE6002309E685
:1037F000002307E6002305E60C0800209D390000A1
:10380000B5330000053A0000ED3A0000AD120000AB
:1038100010B5012809D0002802D002280AD010BD16
:1038200007480430074B9847F9E705480830054B2F
:103830009847F4E702480C30024B9847EFE7C04640
:103840000C080020653A000070B50400431E984142
:10385000C0B20C4A0C490D4B98470D4B98470028B5
:103860000EDB0C4D2022002128000B4B98476C6189
:103870000A4900200A4CA0470A490120A04700201D
:1038800070BDC04655030000483E000065130000AF
:10389000111000000C080020713B00009D32000058
:1038A000751000009133000010B50100024810307F
:1038B000024B984710BDC0460C080020653A000036
:1038C00010B50B4B9B7E002B0CD100280DD0084B64
:1038D00018600268D2791A7701229A76054B9847C8
:1038E000002010BD04204042FBE709204042F8E7D9
:1038F0000C0800208110000010B5014B984710BD46
:103900008D100000014B58697047C0460C0800201C
:10391000024B987EC30600D5102070470C0800208B
:1039200010B5884211D20378012B10D94478944203
:103930000AD0C018814206D90378012B09D94478EE
:103940009442F6D100E0002010BD0020FCE70020EA
:10395000FAE70020F8E7884215D20378012B14D942
:103960004278042A13D0052A0CD0C018814208D905
:103970000378012B0DD94278042A0CD0052AF4D102
:1039800000E0002070470020FCE70020FAE700205C
:10399000F8E70020F6E70020F4E7000070B50C001F
:1039A00015000222164B984700281DD084421CD9CE
:1039B0000378012B1BD94378022B1AD14379AB42F0
:1039C00012D0C278120283789B189BB2C01884422E
:1039D00009D90378012B0ED94378022B0DD14379F5
:1039E000AB42EED100E0002070BD0020FCE70020DB
:1039F000FAE70020F8E70020F6E70020F4E7C046E9
:103A000021390000F8B50D001700884212D20024B9
:103A10000A4E03222900B04700280ED00378012B5C
:103A20000AD9A74209D00134E4B2C0188542F0D8BF
:103A3000002002E0002000E00020F8BD2139000055
:103A40000368002B0AD08B420AD01B68002B03D0DE
:103A50009942FAD1012000E0002070470020FCE7E5
:103A60000120FAE770B505000E0004680A4B98477C
:103A700001235840C0B24F220849094B98472B6890
:103A8000002B03D12E60336005E01C002368002B5F
:103A9000FBD12660336070BD413A0000603E0000FB
:103AA0006513000070B50D4E0D4D0024AD1BAD101B
:103AB00005D0A300F35801349847A542F9D100F08E
:103AC000E1F9084E084D0024AD1BAD1005D0A30050
:103AD000F35801349847A542F9D170BD903E0000DB
:103AE000903E0000903E0000983E0000F0B50500BA
:103AF0000F2A2FD90B0003439B0734D116000C006B
:103B00000300103E350901352D01451927681F6056
:103B100067685F60A7689F60E7681034DF601033F4
:103B20009D42F3D10F239E43103685198919134006
:103B3000032B1AD91E1F0023B4080134A400CF5848
:103B4000EF500433A342FAD10324A643331D22408D
:103B5000C918ED18002A05D00023CC5CEC540133C1
:103B60009342FAD1F0BD0500F6E71A00F2E7C0462D
:103B7000F0B5830743D0541E002A3FD0CEB20200D6
:103B8000032502E01A00013C38D3531C16702B4267
:103B9000F8D1032C2AD9FF220A40150215432A0422
:103BA00015430F2C14D927001A00103F3E09013687
:103BB00036019E19156055609560D56010329642A9
:103BC000F8D10F2297431037DB191440032C0DD97D
:103BD0001A00271FBE080136B6009E1920C2B24245
:103BE000FCD1032297430437DB191440002C05D085
:103BF000C9B21C19197001339C42FBD1F0BD1400ED
:103C00000300C6E7034B10B5002B02D0024800F0BA
:103C100005F810BD000000002D3C000010B50100AB
:103C200000230022002000F01FF810BD70B5094BE2
:103C3000094CE41AA41009D0084AA518AD00ED18E3
:103C40002B68013C9847043D002CF9D100F024F981
:103C500070BDC046A43E0000A83E0000FFFFFF3F2D
:103C60007047C0467047C046F0B54E464546DE46F2
:103C70005746E0B5364D83B00600286898460F00D9
:103C80009146FFF7EDFF334B1C68A4235B00E0581F
:103C9000002852D043681F2B13DC5A1C0192002EBF
:103CA00028D1019A02339B0042601F502868FFF719
:103CB000D9FF002003B03CBC90469946A246AB46D3
:103CC000F0BD254B002B3DD0C820400000E000BFD8
:103CD000002837D0A42200235200A158436001607D
:103CE000A0504032835004328350013301930023AB
:103CF000002ED6D09A00924682444A4688215446E5
:103D00006250C4225200914681444A468739994004
:103D100012688B460A4394464A46614611608422E3
:103D200041465200A150022EBBD102005C468D32AA
:103D3000FF3211680C431460B3E720004D30FF30B0
:103D4000E050A7E72868FFF78DFF01204042B1E768
:103D5000B0040020803E0000000000002E2E2F68DE
:103D6000616C2F7372632F68616C5F696F2E6300E3
:103D70002E2E2F68616C2F7372632F68616C5F73D6
:103D800070695F6D5F6173796E632E630000000080
:103D90002E2E2F68616C2F7372632F68616C5F75B4
:103DA000736172745F6173796E632E63000000004B
:103DB0002E2E2F68616C2F7574696C732F7372636C
:103DC0002F7574696C735F72696E6762756666657C
:103DD000722E63002E2E2F68706C2F736572636FC6
:103DE0006D2F68706C5F736572636F6D2E6300007A
:103DF0000020000028070020000000004000000014
:103E0000E80600200000000040000000A806002096
:103E10000000000040000000E0370000C83400004F
:103E2000E0370000FA340000E03700001E340000E4
:103E3000E0370000E0370000E037000032340000D7
:103E4000E03700002E3500002E2E2F7573622F6490
:103E500065766963652F75736264632E6300000085
:103E60002E2E2F68616C2F7574696C732F737263BB
:103E70002F7574696C735F6C6973742E6300000036
:103E800088000020F8B5C046F8BC08BC9E467047C4
:103E9000053C0000DD000000F8B5C046F8BC08BCD9
:083EA0009E467047B5000000CA
:103EA80054686520706172616D6574657273206114
:103EB80072653A2020200D0A00000000240000202E
:103EC800790000201201000202000040EB030424E4
:103ED80000010000000109024300020100803209CC
:103EE800040000010202000005240001100524015D
:103EF800010004240202052406000107058203408C
:103F0800000A09040100020A000000070501024036
:103F180000000705810240000000000000000000CA
:103F2800352F00000000000000000000740300208E
:103F3800DC03002044040020000000000000000012
:103F48000000000000000000000000000000000069
:103F58000000000000000000000000000000000059
:103F68000000000000000000000000000000000049
:103F78000000000000000000000000000000000039
:103F88000000000000000000000000000000000029
:103F98000000000000000000000000000000000019
:103FA8000000000000000000000000000000000009
:103FB80000000000000000000000000000000000F9
:103FC80000000000000000000000000000000000E9
:103FD80001000000000000000E33CDAB34126DE686
:103FE800ECDE05000B0000000000000000000000EF
:103FF80000000000000000000000000000000000B9
:1040080000000000000000000000000000000000A8
:104018000000000000000000000000000000000098
:104028000000000000000000000000000000000088
:04435800C408002075
:00000001FF
