S0220000457661706F7261746F72416E64436F6E64657361746F7246616E2E73726563A5
S214000000E8190120A5030000A1030000A1030000D9
S214000010A1030000A1030000A103000000000000EF
S214000020000000000000000000000000A103000027
S214000030A103000000000000A1030000A1030000CF
S214000040A1030000A1030000A1030000A10300001B
S214000050A1030000A1030000A1030000A10300000B
S214000060A1030000A1030000A1030000BD6400007E
S214000070D9520000E9520000A1030000F952000026
S214000080095300001953000029530000395300009B
S2140000904953000059530000A1030000A1030000CB
S2140000A0A1030000A1030000A1030000A1030000BB
S2140000B0A1030000A1030000A1030000A1030000AB
S2140000C0A1030000A1030000A1030000A10300009B
S2140000D0A1030000A1030000A1030000A10300008B
S2140000E0A1030000A10300000000000000000000C3
S2140000F000000000A1030000A1030000A10300000F
S214000100A1030000A1030000A1030000A10300005A
S214000110A1030000A1030000A1030000A10300004A
S214000120A1030000A1030000A1030000A10300003A
S214000130A1030000A1030000A1030000A10300002A
S214000140A1030000A1030000A1030000A10300001A
S214000150A1030000A1030000A1030000A10300000A
S214000160A1030000A1030000F9790000157A000041
S214000170317A00004D7A0000A10300001D47000000
S21400018041BA000051BA000061BA000071BA00001E
S214000190A10300005D840000A1030000A10300008D
S2140001A0A1030000A1030000A1030000A1030000BA
S2140001B079840000A1030000A1030000A103000051
S2140001C0A1030000A1030000A1030000A10300009A
S2140001D0A1030000A1030000A1030000A10300008A
S2140001E0A1030000A1030000A10300003D91000050
S2140001F0A103000059910000A103000075910000C2
S21400020091910000AD910000C9910000A10300008B
S214000210A1030000A1030000A1030000A103000049
S214000220A1030000A1030000A1030000A103000039
S214000230A1030000A1030000A1030000A103000029
S214000240A1030000A1030000A1030000A103000019
S214000250A1030000A1030000A1030000A103000009
S214000260A103000010B5054C237833B9044B13B135
S2140002700448AFF300800123237010BD0C06002055
S21400028000000000940801000C4B43B10C480D49D7
S21400029010B5AFF300800C48036823B910BD0A48B8
S2140002A0036833B97047094B002BF7D0BDE8104000
S2140002B01847064B002BF5D0184700BF000000007B
S2140002C094080100100600209408010000000000B9
S2140002D0704770470B1F0C30183153F8042F40F846
S2140002E0042B8B42F9D100207047000010B504465D
S2140002F081604B7A0BB9A07810BD1146034B984726
S214000300606A034B98470123A370F4E7D502000008
S214000310B9E3000010B50446C068084B9847C0F320
S2140003200011E37861F38203C0F3401161F34103E7
S214000330C0F3801262F30003E37010BD45E20000D4
S21400034010B5044601220221C068024B984760702F
S21400035010BD00BFB1E4000010B504460A460221F5
S214000360C068024B9847607010BD00BFB1E4000043
S21400037010B5044600220221C068034B984780F05F
S2140003800100C0B2607010BDB1E4000010B50446B4
S214000390406A024B9847207110BD00BFC5E20000BE
S2140003A0FEE7000008B5174B174A9A4210D0174BC5
S2140003B0144A9A420CD2013B9B1A23F003030433DF
S2140003C01344114951F8040B42F8040B9A42F9D130
S2140003D00F4B104A9A420AD2013B9B1A23F00303A2
S2140003E004331344002142F8041B9342FBD10A4A0B
S2140003F00A4B23F07F039360094B9847094B9847B5
S214000400FEE700BF00000020940801000C06002054
S214000410E81900200C06002000ED00E000000000B7
S2140004203D0001008507000010B504462C30034B44
S21400043098472046024B9847204610BDD30200003E
S2140004404506000070B5054C054EA4F1C4051C3CDD
S2140004502046B047AC42FAD170BD00BFEC06002083
S21400046049E1000010B50348034CA0470348A047E5
S21400047010BD00BF1807002045060000EC0600204F
S21400048010B504460D4B984704F12C000C4B9847CA
S2140004900C4B03F58E72C4F8882003F1C402E265A3
S2140004A003F1F002226603F598726266C3F85C41B7
S2140004B0002384F85930204610BD00BF2D060000EA
S2140004C0D1020000280600202DE9F04106460C4C1B
S2140004D000F168070025DFF82C8047F8044BC6F8C3
S2140004E0844045F02001D6F88820C9B22046C0478F
S2140004F001351C34072DF0D10020BDE8F08100BF87
S214000500280600205DE1000070B50446D0F888009B
S214000510144B9847D4F888305B7A13B994F858008F
S21400052070BD2046104B984704F168052B46D4F85A
S21400053088200021E06D0D4EB0472B46D4F8882069
S2140005400121206EB0472A46D4F88810606E084B0A
S2140005509847E36D226E1B791279134084F8583061
S214000560DCE700BF49E00000C90400006D0600009B
S214000570ED0200002DE9F0411C4C04F58E751C4977
S21400058028461C4B98471C4F3A461C4928461C4E8A
S214000590B04704F1C4052846DFF88880C04704F158
S2140005A0F000C0473A4617490020B04704F598784F
S2140005B04046154B98473A4614494046B047144EB5
S2140005C02046B0471C34A542FAD10B4E324611499C
S2140005D000200B4CA047104D2846104B984732463B
S2140005E00F492846A047BDE8F08100BF2806002036
S2140005F06818002019E000000000002035E0000028
S2140006000900010065040000D1020000D3020000CA
S21400061035E1000045040000880700208104000042
S214000620290400002D0600007047704710B50446E8
S214000630024B9847024B1C60204610BD290600005E
S2140006401408002010B50446014B9847204610BDFC
S2140006502B0600000B1F0C30143153F8042F40F803
S214000660042B8B42F9D100207047000010B50446D9
S214000670826080F82810527A0AB9207910BD19468F
S2140006800B4B984794F828304BB194F8283004EB7D
S2140006908303D869074B984701232371EDE7702140
S2140006A0E068054B98472069044B9847EDE700BF84
S2140006B055060000B9E3000045E3000001E3000032
S2140006C070B5044600690E4B9847014694F82820FA
S2140006D0960040FA06F5A35C65F382030225B54052
S2140006E0054214BF0125002565F341030425B540E6
S2140006F0054214BF0121002161F30003A35470BD1D
S21400070045E2000010B50446012290F82810C068A3
S214000710014B9847E07010BDB1E4000010B50446E8
S21400072090F82830C3F1010381F00102D9B2C06805
S214000730014B9847E07010BDB1E4000010B50446C8
S214000740002290F82810C068034B984780F00100FC
S214000750C0B2E07010BD00BFB1E4000010B50446A2
S21400076090F8283000EB8303D869024B984784F84A
S214000770290010BDC5E200008022014B9A61704737
S214000780008000412DE9F84F2E4B98472E482F4BFE
S214000790984764202E4B98472E482F4B98472F4853
S2140007A02F4B9847FA222F492F48304B984730480E
S2140007B0304B9847DFF8B890254E48462E4B984762
S2140007C000283AD100276425DFF8D4802B4C04F1AA
S2140007D0080A2846B047A3462068C0472846B047C0
S2140007E02068274B98472846B047394654F8040BEC
S2140007F0244B98472846B047DBF80000224B984722
S2140008005445E6D12846B047144C606E1F4B9847B7
S2140008102846B047606E1E4B98472846B047394674
S214000820606E1C4B98472846B047606E1A4B984738
S2140008300137FFB2FF2FC0D0C8E74846174B98478E
S214000840C0E700BF2910000058130020B1F00000D8
S21400085075270000E4170020952D0000880700206B
S21400086009050000790700000013002035ED0000A0
S21400087018080020210C000095090000E40700205D
S214000880C10600005D0700003D07000041030000B0
S214000890150300008D03000071030000510F0000D7
S2140008A00507000010B5054C2046054B9847054A3D
S2140008B005492046054B984710BD00BF1808002084
S2140008C01909000000000020F108000009000100DE
S2140008D0024B1A6813680133136070474009002002
S2140008E0024B1B6800221A71704700BF40090020A7
S2140008F038B5044600230360044D2846044B984749
S2140009002846044B9847204638BD00BF30140020C8
S21400091041F8000059F9000070B40022642680F8FF
S2140009204560632580F84650622480F84740612180
S21400093080F8481080F84A2080F89C6080F89D5027
S21400094080F89E4080F89F1080F8A1200449086037
S21400095080F85820C2640265026070BC704700BF11
S2140009604009002008B580F8581019B90548064B0C
S214000970984708BD4EF6602204490248044B984743
S21400098008BD00BF3014002041F80000E108000058
S21400099021F9000010B50446002380F80031C0F8A5
S2140009A0203190F801312BB1012380F8003194F802
S2140009B0000110BD134B5B7D8BB1431D0930002237
S2140009C013F8011B41EA02228342F9D1C4F8202120
S2140009D00D4B82EA0301C4F81C119A4205D040224E
S2140009E0611D0848094B9847E1E7012184F8011189
S2140009F084F8001121712046054B984794F80001B1
S214000A0010BD00BF5813002064636261FDF1000052
S214000A1065090000021D0123002102F8011FD8B25B
S214000A200133412BF9D1704790F858302BB9C36485
S214000A30012380F8583080F8593090F8000170474C
S214000A400B79472B01D00020704770B504460C4E3A
S214000A5031680C4D012201F5002128460A4B9847C3
S214000A60637B84F808313268012302F5002204F51E
S214000A7084712846054CA047B0FA80F0400970BD46
S214000A802C1100203011002001E80000A5EA00002B
S214000A902DE9F041034653F8051FC0F84510998824
S214000AA09B79A0F8491080F84B3090F8A130492B7C
S214000AB00CBF4FF001084FF0000802D04046BDE8DA
S214000AC0F08190F8252180F8242190F84B3080F8AA
S214000AD025319A42F2D005460024074F074E95F876
S214000AE02521224102F00102E1B23846B047013426
S214000AF0042CF4D1E2E700BFE4140020E5FC00007B
S214000B00F8B5034653F8051FC0F8451099889B7939
S214000B10A0F8491080F84B3090F8A1304B2B0CBF52
S214000B200124002401D02046F8BD90F84B5005F073
S214000B300703032B0ADC094F05F00101F86D084E88
S214000B40B047C5F34001386EB047ECE7C5F3800107
S214000B50024B586E034B9847E5E700BF8807002016
S214000B601D0700005903000010B5034653F8051F83
S214000B70C0F8451099889B79A0F8491080F84B304A
S214000B8090F8A1304C2B0CBF0124002401D0204645
S214000B9010BD90F84B10024BD86D024B9847F6E705
S214000BA0880700205D07000030B4550807D00024F1
S214000BB033F8140041400134A4B2AC42F8DB12F022
S214000BC0010F1DBF9B1813F8010C4840084630BCA7
S214000BD07047000038B504460025A0F804510B46BF
S214000BE006222946024DA847A4F8040138BD00BFD6
S214000BF0A90B0000064B1B680B60064B1B684B607E
S214000C00054B1B688B60054B1B68CB60704700BFAD
S214000C10182000411C2000412020004124200041D3
S214000C20F8B5044600260660124D2846124B984733
S214000C304FF47A7211492846114B984704F585758A
S214000C40294620460F4B9847D4F80A71D4F80E016F
S214000C50D4F81211D4F81621C4F80570C4F80900A7
S214000C60C4F80D10C4F8112084F8016194F800014E
S214000C70F8BD00BF30140020E5F70000D1080000E2
S214000C80D1F80000F50B000010B5054C2046054BCA
S214000C909847054A05492046054B984710BD00BFB2
S214000CA0440900201909000000000020F108000097
S214000CB00900010038B505460C46054B9847A5F8CF
S214000CC00401062221460348034B984738BD00BF5F
S214000CD0D50B000058130020E9F2000038B50B7958
S214000CE0482B01D0002038BD04460D4B1A6801235E
S214000CF002F5002200F584710A480B4DA84708B992
S214000D00012038BD94F8083163730120074B9847DB
S214000D104022611D0648074B9847002038BD00BF9B
S214000D202C1100203011002085EB00004127000028
S214000D305813002081F30000F8B590F8A1304A2B34
S214000D400CBF0125002501D02846F8BD0446104FEB
S214000D503846104B984706460F4BC4F8053000231C
S214000D6063724A23A372E0727B785BB10A4BC4F8C5
S214000D704530002384F849304A2384F84A3084F802
S214000D804B60E1E74022611D0448054B9847EDE7BC
S214000D90E414002079FC00006463626158130020AC
S214000DA081F30000F8B590F8A1304D2B0CBF01255B
S214000DB0002501D02846F8BD174F97F89C60174BC2
S214000DC0C0F80530002343724D238372C67268371D
S214000DD000F10C0300F13C0E03F110043A4652F801
S214000DE0041F43F8041BA342F9D110372346A64537
S214000DF0F2D104464022411D09480A4B9847074B4A
S214000E00C4F84530002384F849304D2384F84A302E
S214000E1084F84B60CEE700BF18150020646362615B
S214000E205813002081F3000070B5044600F19C05BD
S214000E30014651F8053FC0F89C308B88AB8090F88F
S214000E40A130413BDBB2122B15D8012380F80331C9
S214000E5080F8003194F8A130413B122B5ED8DFE8D1
S214000E6003F01B221828181831383F454B515718E5
S214000E7018185D5D1800002380F80331294E4022C3
S214000E803046294B9847737DDBB284F80031002B3F
S214000E90E0D194F8000170BD29462046234B9847C0
S214000EA084F80001F5E7002384F8583084F85930B8
S214000EB0EFE70122294620461D4B9847012384F878
S214000EC00031E6E7294620461A4B984784F8000189
S214000ED0DFE729462046184B984784F80001D8E7F4
S214000EE02046164B984784F80001D2E72046144B5C
S214000EF0984784F80001CCE72046124B984784F8C0
S214000F000001C6E72046104B984784F80001C0E76A
S214000F1020460E4B984784F80001BAE7002384F871
S214000F200031B6E758130020FDF10000290A000042
S214000F30B50C0000410A0000DD0C0000910A00001C
S214000F40390D0000010B0000690B0000A50D000024
S214000F50F8B50446002380F8003190F80131002BE4
S214000F604CD0284B5B7D53B9002380F802314022D9
S214000F70611D2448244B984794F80001F8BD0346A9
S214000F8053F8052FC0F89C209B88A0F8A03090F856
S214000F90A0303D2B17D03E2B10D03C2B03D0002387
S214000FA080F8023106E0012380F80231174B98479B
S214000FB084F800012046164B9847D8E7134B98470D
S214000FC084F80001F6E701250571124E3046124BF3
S214000FD09847124F39463046114B984742F21072E6
S214000FE0394630460F4B98470023E36484F8585040
S214000FF084F85950237984F80031DBE7002380F821
S2140010000231B9E758130020FDF10000290E000058
S214001010150A00003014002041F80000E108000026
S21400102085F9000021F9000080B500AF034B984712
S214001030034B9847034B984700BF80BDB123000081
S21400104045C10000D9C0000080B485B000AFF8608C
S2140010500B467A60FB72FA7AFB682032796843F8AE
S214001060221000BF1437BD465DF8047B704780B47D
S21400107083B000AF78607B681B6943F480627B684E
S2140010801A6100BF0C37BD465DF8047B704780B41C
S21400109083B000AF78607B681B6943F400527B68BE
S2140010A01A6100BF0C37BD465DF8047B704780B4FC
S2140010B083B000AF78607B681B6943F480227B684E
S2140010C01A6100BF0C37BD465DF8047B704780B4DC
S2140010D083B000AF78607B681B6943F400127B68BE
S2140010E01A6100BF0C37BD465DF8047B704780B4BC
S2140010F083B000AF78607B685B6943F480727B687E
S2140011005A6100BF0C37BD465DF8047B704780B45B
S21400111083B000AF78607B685B6943F400727B68DD
S2140011205A6100BF0C37BD465DF8047B704780B43B
S21400113083B000AF78607B685B6943F480627B684D
S2140011405A6100BF0C37BD465DF8047B704780B41B
S21400115083B000AF78607B685B6943F400527B68BD
S2140011605A6100BF0C37BD465DF8047B704780B4FB
S21400117083B000AF78607B685B6943F480427B682D
S2140011805A6100BF0C37BD465DF8047B704780B4DB
S21400119083B000AF78607B689B6943F001027B6890
S2140011A09A6100BF0C37BD465DF8047B704780B47B
S2140011B083B000AF78607B689B6943F002027B686F
S2140011C09A6100BF0C37BD465DF8047B704780B45B
S2140011D083B000AF78607B689B6943F080027B68D1
S2140011E09A6100BF0C37BD465DF8047B704780B43B
S2140011F083B000AF78607B689B6943F400627B68CD
S2140012009A6100BF0C37BD465DF8047B704780B41A
S21400121083B000AF78607B689B6943F480527B683C
S2140012209A6100BF0C37BD465DF8047B704780B4FA
S21400123083B000AF78607B689B6943F400527B689C
S2140012409A6100BF0C37BD465DF8047B704780B4DA
S21400125083B000AF78607B68DB6943F020027B6870
S214001260DA6100BF0C37BD465DF8047B704780B47A
S21400127083B000AF78607B68DB6943F040027B6830
S214001280DA6100BF0C37BD465DF8047B704780B45A
S21400129083B000AF78607B68DB6943F400527B68FC
S2140012A0DA6100BF0C37BD465DF8047B704780B43A
S2140012B083B000AF78607B681B6A43F001027B68EE
S2140012C01A6200BF0C37BD465DF8047B704780B4D9
S2140012D083B000AF78607B681B6A43F002027B68CD
S2140012E01A6200BF0C37BD465DF8047B704780B4B9
S2140012F083B000AF78607B681B6A43F004027B68AB
S2140013001A6200BF0C37BD465DF8047B704780B498
S21400131083B000AF78607B681B6A43F008027B6886
S2140013201A6200BF0C37BD465DF8047B704780B478
S21400133083B000AF78607B681B6A43F020027B684E
S2140013401A6200BF0C37BD465DF8047B704780B458
S21400135083B000AF78607B681B6A43F040027B680E
S2140013601A6200BF0C37BD465DF8047B704780B438
S21400137085B000AFF8600B467A60FB72FB7AFA68BD
S214001380DB01134408337A681A6000BF1437BD4681
S2140013905DF8047B704780B485B000AFF8600B46FC
S2140013A07A60FB72FB7AFA68DB01134404337A68CE
S2140013B01A6000BF1437BD465DF8047B704780B4E2
S2140013C085B000AFF8600B467A60FB72FB7AFA686D
S2140013D0DB01134418337A681A6000BF1437BD4621
S2140013E05DF8047B704780B485B000AFF8600B46AC
S2140013F07A60FB72FB7AFA68DB01134414337A686E
S2140014001A6000BF1437BD465DF8047B704780B491
S21400141085B000AF7860084611461A460346FB7052
S2140014200B46BB7013467B70FA78BB787968D2019E
S2140014300A44134430331B78FB73FB7B23F00F0303
S214001440FB737B7803F00F03DAB2FB7B1343FB736B
S214001450FA78BB787968D2010A4413443033FA7BB1
S2140014601A7000BF1437BD465DF8047B704780B421
S21400147085B000AF7860084611461A460346FB70F2
S2140014800B46BB7013467B70FA78BB787968D2013E
S2140014900A44134430331B78FB73FB7B03F00F03C3
S2140014A0FB737B781B01DAB2FB7B1343FB73FA7882
S2140014B0BB787968D2010A4413443033FA7B1A7039
S2140014C000BF1437BD465DF8047B704780B485B016
S2140014D000AF7860084611461A460346FB700B4676
S2140014E0BB7013467B70FA78BB787968D2010A44E1
S2140014F0134440331B78FB73FB7B23F00103FB7321
S2140015007A78FB7B1343FB73FA78BB787968D20151
S2140015100A4413444033FA7B1A7000BF1437BD46A2
S2140015205DF8047B704790B482B000AF78600B46DD
S214001530FB701346BB70FA78BB78F878B9787C688D
S214001540C0012044014440310978C9B241F0040189
S214001550C8B27968D2010A441344403302461A706E
S21400156000BF0837BD4690BC704790B482B000AF4D
S21400157078600B46FB701346BB70FA78BB78F87839
S214001580B9787C68C0012044014440310978C9B26A
S21400159021F00401C8B27968D2010A4413444033EA
S2140015A002461A7000BF0837BD4690BC704780B42C
S2140015B085B000AFF8600B467A60FB72FB7AFA687B
S2140015C0DB01134428337A681A6000BF1437BD461F
S2140015D05DF8047B7047000080B582B000AF03461C
S2140015E03960FB711346BB71BB79012B1CD0022BF3
S2140015F037D0002B4ED1FB793A6819462A482B4B38
S21400160098473B689BB243F08042FB7919462648D0
S214001610274B98473B681B0C43F04042FB79194622
S2140016202148234B98473AE0FB793A6819461E480A
S2140016301E4B98473B689BB243F0804343F400330D
S214001640F9791A4618481A4B98473B681B0C43F022
S214001650404343F40033F9791A461348144B98472D
S2140016601DE0FB793A6819460F48124B98473B68CD
S2140016709BB243F08042FB7919460B480C4B9847C7
S2140016803B681B0C43F04042FB7919460648084B62
S214001690984704E0462208490020084B984700BFB8
S2140016A00837BD4680BD00BF00800041971300008C
S2140016B0AF1500006F1300007C030100D53F00004B
S2140016C080B582B000AF03463960FB711346BB712C
S2140016D0BB79002B06D0FB793A6819460648074BBB
S2140016E0984705E0FB793A6819460348044B984743
S2140016F000BF0837BD4680BD00800041BF13000014
S214001700E713000080B582B000AF0346FB710B46BE
S214001710BB7113467B717B79012B0AD0022B1FD03D
S214001720002B34D1BA79FB7919461E481E4B9847D0
S21400173033E0BB7901229A40FB79194619481B4BC6
S2140017409847BA79FB7919461648194B9847BB79DA
S21400175001229A40FB7919461248164B98471CE01E
S214001760BB7901229A40FB7919460E480F4B9847E1
S214001770BA79FB7919460B480D4B9847BB7901227D
S2140017809A40FB79194607480B4B984705E0892293
S2140017900A4900200A4B984700BF00BF0837BD46DD
S2140017A080BD00BF008000416B150000971300004D
S2140017B027150000BF130000E71300007C0301009C
S2140017C0D53F000090B585B000AF786039607B6883
S2140017D05B09FB737B68DBB203F01F03BB733B68DC
S2140017E0B3F1FF3F06D1BA7BF97B00231248134CB6
S2140017F0A0471DE0BA7BF97B01230F480F4CA0479A
S214001800BB7B03F00103002B09D0BB7B5B08DAB27D
S2140018103B68DBB2F97B0848094CA04708E0BB7B75
S2140018205B08DAB23B68DBB2F97B0348054CA0479D
S21400183000BF1437BD4690BD00800041CD140000A7
S2140018406F1400000F14000080B582B000AF03468E
S2140018500A46FB711346BB71FB795B09D8B2FB796C
S21400186003F01F03DBB2BA791946034B984700BF53
S2140018700837BD4680BD00BF0517000080B582B0A2
S21400188000AF7860396039687868034B984700BFC6
S2140018900837BD4680BD00BFC517000080B582B0C2
S2140018A000AF03460A46FB711346BB71FB795B0922
S2140018B0D8B2FB7903F01F03012202FA03F3BA79C8
S2140018C01946034B984700BF0837BD4680BD00BF8A
S2140018D0D915000080B582B000AF03460A46FB71FA
S2140018E01346BB71FB795B09D8B2FB7903F01F0383
S2140018F0012202FA03F3BA791946034B984700BF50
S2140019000837BD4680BD00BFC116000080B500AFD9
S214001910014B984700BF80BDE54B000080B582B004
S21400192000AF786039607B68002B04D03B68002BE2
S21400193001D0012300E0002303F00103DBB24822BC
S21400194007491846074B98477B683A681A607B68D1
S2140019501846054B9847034618460837BD4680BDCF
S21400196098030100D53F00007DBB000080B500AFA6
S2140019700448054B984705490548064B984700BF5D
S21400198080BD00BF00080040AF11000000200041ED
S2140019902C190020F526000080B500AF4422042153
S2140019A03F48404B98474048404B984701214020CD
S2140019B03F4B9847002140203E4B98474FF480010C
S2140019C040203D4B984701212120394B9847002164
S2140019D02120384B98474FF404112120364B984766
S2140019E001210320324B984702210320314B9847B0
S2140019F04FF440310320304B9847012104202C4BF4
S214001A009847022104202B4B98474FF4802104204E
S214001A10294B984701210520254B98470221052090
S214001A20244B98474FF4A0210520234B98470121CB
S214001A3056201F4B9847022156201E4B98474FF4BE
S214001A40AC0156201C4B984701215720184B98474D
S214001A5002215720174B98474FF4AE015720164BDC
S214001A60984701212820124B984700212820114B27
S214001A7098474FF4201128200F4B98470121292022
S214001A800B4B9847002129200A4B98474FF4241106
S214001A902920094B9847094B984700BF80BD00BFD7
S214001AA0001C004049100000000800402F110000F4
S214001AB09D180000491800007D180000BD27000092
S214001AC080B500AF44220B210748084B98474422B4
S214001AD00C210548054B98470548064B9847064B8A
S214001AE0984700BF80BD00BF001C004049100000A2
S214001AF000080040CF110000A927000080B500AF05
S214001B0001212B202B4B984700212B202A4B98474E
S214001B102A492B202A4B984702210820254B984714
S214001B2000210820274B984700210820224B984781
S214001B3025490820224B9847022109201D4B98472B
S214001B40002109201F4B9847002109201A4B98476F
S214001B501E4909201A4B984702210A20154B984720
S214001B6000210A20174B984700210A20124B98475D
S214001B7017490A20124B984702210B200D4B984715
S214001B8000210B200F4B984700210B200A4B98474B
S214001B9010490B200A4B984701212A20054B9847ED
S214001BA000212A20044B98470B492A20044B9847CB
S214001BB000BF80BD9D1800004918000007002B00DC
S214001BC07D180000D518000007000800070009006F
S214001BD007000A0007000B0007002A0080B500AFC8
S214001BE00548064B98470448054B98470248054B5E
S214001BF0984700BF80BD00BF000800408F1000005F
S214001C00CF1000008F12000080B500AF044B98473D
S214001C1004490548054B9847054B984700BF80BDCB
S214001C20DD1B000000340042A0170020312E00000B
S214001C30FD1A000080B500AF0248034B984700BF6E
S214001C4080BD00BF000800400F11000080B500AF47
S214001C50034B984703490448044B984700BF80BD90
S214001C60351C0000002400400819002099250000BB
S214001C7080B500AF00211020074B98470749102079
S214001C80074B984700211120034B98470549112020
S214001C90034B984700BF80BD4918000002001000A3
S214001CA07D1800000200110080B500AF4522082113
S214001CB00648074B98474A2203210448044B984796
S214001CC00448054B984700BF80BD00BF001C00407D
S214001CD049100000000800404F11000080B500AF1A
S214001CE0044B984704490548054B9847054B9847C9
S214001CF000BF80BDA91C00000034004088180020EA
S214001D00552C0000711C000080B500AF00213B2060
S214001D10114B984702213B20104B984710493B2017
S214001D20104B984700213A200B4B984702213A2047
S214001D300A4B98470C493A200A4B984701213C2009
S214001D40064B984700213C20084B984708493C2002
S214001D50044B984700BF80BDD51800009D180000B2
S214001D6003003B007D18000003003A0049180000FD
S214001D7003003C0080B500AF452222210648074BF1
S214001D8098474A2203210448044B98470448054BC9
S214001D90984700BF80BD00BF001C004049100000EF
S214001DA000080040AF12000080B500AF054B984712
S214001DB04FF086410448054B9847054B984700BFAF
S214001DC080BD00BF751D000068170020412F000071
S214001DD0091D000080B500AF00211720074B98476B
S214001DE007491720074B984700211620034B9847B2
S214001DF005491620034B984700BF80BD49180000D0
S214001E00030017007D1800000300160080B500AF21
S214001E10442223210648074B98474A2203210448B8
S214001E20044B98470448054B984700BF80BD00BF49
S214001E30001C00404910000000080040CF120000BF
S214001E4080B500AF044B984704490548054B9847B2
S214001E50054B984700BF80BD0D1E000000040043E0
S214001E6068180020552C0000D51D000080B500AF76
S214001E7000214420114B984702214420104B9847DC
S214001E8010494420104B9847002145200B4B98479B
S214001E90022145200A4B98470C4945200A4B984793
S214001EA001214720064B984700214720084B9847BA
S214001EB008494720044B984700BF80BDD51800004E
S214001EC09D180000020044007D1800000200450036
S214001ED0491800000200470080B500AF42222421C6
S214001EE00648074B98474A2203210448044B984764
S214001EF00448054B984700BF80BD00BF001C00404B
S214001F004910000000080040EF12000080B500AF46
S214001F10044B984704490548054B9847054B984796
S214001F2000BF80BDD91E00000008004350170020E7
S214001F30412F00006D1E000080B500AF0021682014
S214001F40074B984707496820074B984700216920A8
S214001F50034B984705496920034B984700BF80BD4F
S214001F6049180000020068007D18000002006900A1
S214001F7080B500AF482225210648074B98474A22DD
S214001F8003210448044B98470448054B984700BF74
S214001F9080BD00BF001C0040491000000008004043
S214001FA00F13000080B500AF044B9847044905485E
S214001FB0054B9847054B984700BF80BD711F000032
S214001FC0000C0043C8180020212B0000391F000019
S214001FD080B500AF0848094B9847432209210848B6
S214001FE0084B9847084B984703461A46074908483F
S214001FF0084B984700BF80BD000800406F110000E6
S214002000001C0040491000001590000000380040F9
S21400201048180020D131000080B500AF0848094BB1
S214002020984744221A210848084B9847084B984777
S21400203003461A4607490848084B984700BF80BD24
S214002040000800402F120000001C0040491000004D
S2140020501590000000A0014128180020D131000092
S21400206080B500AF0848094B984746221E2108480D
S214002070084B9847084B984703461A4607490848AE
S214002080084B984700BF80BD000800404F12000074
S214002090001C00404910000015900000001400428B
S2140020A080170020D131000080B500AF0848094BEA
S2140020B0984746221E210848084B9847084B9847E1
S2140020C003461A4607490848084B984700BF80BD94
S2140020D0000800406F120000001C0040491000007D
S2140020E01590000000180042C4170020D1310000EF
S2140020F080B500AF0848094B984746222721084874
S214002100084B9847084B984703461A46074908481D
S214002110084B984700BF80BD000800402F13000002
S214002120001C0040491000001590000000140043F9
S214002130A4170020D131000080B400AF00BFBD4618
S2140021405DF8047B7047000080B500AF0448054B7F
S2140021509847402227210448044B984700BF80BD7B
S214002160000800404F130000001C0040491000000B
S21400217080B500AF064B9847064B9847064B9847E6
S21400218003461A4605490648064B984700BF80BDD9
S2140021904921000039210000299000000018004362
S2140021A0E4170020312D000080B500AF0448054B31
S2140021B09847442219210448044B984700BF80BD25
S2140021C000080040EF110000001C0040491000000D
S2140021D080B500AF054B9847054B984703461A460F
S2140021E004490548054B984700BF80BDA92100005B
S2140021F0D583000000600141A8180020D1310000FE
S21400220080B500AF0448054B98474422192104487E
S214002210044B984700BF80BD000800400F12000026
S214002220001C00404910000080B500AF054B9847E1
S214002230054B984703461A4604490548054B9847F8
S21400224000BF80BD01220000D58300000080014150
S21400225030170020D131000080B500AF02211820D1
S2140022600F4B9847002118200E4B98470021182046
S2140022700D4B98470D4918200D4B98470221192001
S214002280074B984700211920064B98470021192034
S214002290054B984707491920054B984700BF80BD56
S2140022A09D180000D5180000491800000700180007
S2140022B07D1800000700190080B500AF42220A21F1
S2140022C00548064B98470648064B98470448064B71
S2140022D0984700BF80BD00BF001C004049100000AA
S2140022E0000800406F1000008F11000080B500AF9E
S2140022F0034B9847034B9847034B984700BF80BD56
S214002300B92200002D3A00005922000080B500AF27
S2140023100248034B984700BF80BD00BF000800403E
S214002320EF10000080B500AF034B98470349044800
S214002330044B984700BF80BD0D23000000200040DE
S214002340281900201D19000080B500AF04492D2073
S214002350044B984704492C20024B984700BF80BD89
S21400236007002D007D18000007002C0080B500AF88
S2140023700748084B984743221C210748074B9847B5
S21400238007490848084B9847084B984700BF80BD48
S21400239000080040AF100000001C0040491000007C
S2140023A0000400420018002009260000492300000F
S2140023B080B500AF5E4B9847002107205D4B9847DD
S2140023C0022107205C4B98474FF0FF3107205B4BFC
S2140023D0984701210F20574B984702210F20564B54
S2140023E098474FF0FF310F20544B98470121132098
S2140023F0504B9847022113204F4B98474FF0FF3120
S21400240013204E4B984701211B204A4B9847022128
S2140024101B20494B98474FF0FF311B20474B9847EE
S21400242001212720434B984702212720424B9847FB
S2140024304FF0FF312720414B984701213D203D4B6F
S214002440984702213D203C4B98474FF0FF313D20F6
S2140024503A4B984701213F20374B984701213F20B0
S214002460374B98474FF0FF313F20344B98470021B9
S2140024704D20304B984702214D202F4B98474FF068
S214002480FF314D202D4B984701214E20294B984770
S21400249002214E20284B98474FF0FF314E20274B05
S2140024A0984700214F20234B984702214F20224B6C
S2140024B098474FF0FF314F20204B9847002152207D
S2140024C01C4B9847022152201B4B98474FF0FF3178
S2140024D052201A4B98471B4B98471B4B98471B4B51
S2140024E098471B4B98471B4B98471B4B98471B4BD3
S2140024F098471B4B98471B4B98471B4B98471B4BC3
S21400250098471B4B98471B4B98471B4B98471B4BB2
S21400251098471B4B98471B4B98471B4B98471B4BA2
S21400252098471B4B98471B4B984700BF80BD00BF82
S2140025300D190000D51800009D1800007D18000039
S214002540491800006D19000099190000C11A000012
S214002550091C00004D1C0000DD1C0000A91D000029
S214002560411E00000D1F0000A51F0000D11F000027
S2140025701920000061200000A9200000F1200000C2
S21400258071210000D121000029220000ED22000068
S214002590252300006D23000080B584B000AF78606E
S2140025A039600023FB607B68002B14BF01230023E7
S2140025B0DBB24FF4E07211491846114B98477B681E
S2140025C01A683B689A4201D1002313E07B681B68B7
S2140025D0002B02D06FF011030CE07B683A681A609B
S2140025E07B681846074B9847F8607B6840F2B272E3
S2140025F09A61FB6818461037BD4680BDB4030100DB
S214002600D53F00008163000080B584B000AF7860DD
S21400261039607B68002B04D03B68002B01D0012377
S21400262000E0002303F00103DBB241220E49184606
S2140026300E4B98477B68396818460D4B9847F860EC
S214002640FB68002B01D0FB6809E07B68094A5A60EA
S2140026507B68094A9A607B68084ADA600023184655
S2140026601037BD4680BD00BFD0030100D53F000037
S2140026703145000081260000A5260000C92600007E
S21400268080B584B000AF78607B68FB60FB68DB6970
S214002690002B03D0FB68DB69F868984700BF10374B
S2140026A0BD4680BD80B584B000AF78607B68FB60B7
S2140026B0FB681B6A002B03D0FB681B6AF868984708
S2140026C000BF1037BD4680BD80B584B000AF7860CF
S2140026D00B46FB707B68FB60FB685B6A002B05D0D3
S2140026E0FB685B6AFA781146F868984700BF1037AF
S2140026F0BD4680BD80B582B000AF786039607B682B
S214002700002B04D03B68002B01D0012300E00023FF
S21400271003F00103DBB22B2206491846064B984706
S2140027207B6839681846054B9847034618460837AD
S214002730BD4680BDEC030100D53F0000394C0000CB
S21400274090B583B000AF0346FB80074B1C68FB8840
S2140027501846064B9847034619462046044B9847AA
S21400276000BF0C37BD4690BD6C0A002089490000AA
S214002770214B000090B583B000AF0346FB80074BAB
S2140027801C68FB881846064B9847034619462046A1
S214002790044B984700BF0C37BD4690BD6C0A00201E
S2140027A0F54A0000214B000080B500AF024B984769
S2140027B00346184680BD00BFF553000080B582B0C2
S2140027C000AF0023FB800EE0FB880C4ADB001344BE
S2140027D04FF0FF325A60FB88084A002142F8331057
S2140027E0FB880133FB80FB88082BEDD90448054B9A
S2140027F09847034618460837BD4680BD700A002035
S21400280061290000794F000080B586B000AF78607F
S21400281039600023FB750023BB7500237B7512E02F
S214002820FB7D4D4ADB0013445A687B689A4207D109
S214002830FB7D49493A6841F8332001237B7505E062
S214002840FB7D0133FB75FB7D082BE9D93B68002B2C
S2140028500ED17B7D83F00103DBB2002B02D06FF03C
S2140028600C0374E0002178683C4B984703466EE002
S2140028707B7D83F00103DBB2002B5AD00023FB756F
S21400288016E0FB7D344A52F83330002B0DD1FB7D29
S21400289031493A6841F83320FB7D2F4ADB00134468
S2140028A07A685A6001237B7505E0FB7D0133FB7572
S2140028B0FB7D082BE5D936E0FB7D274ADB00134479
S2140028C05A68BB7D2449DB000B445B689A4227D2DA
S2140028D0BB7D214ADB0013445B68B3F1FF3F1FD08A
S2140028E0BB7D1D4907F10C02DB000B4493E8030097
S2140028F082E80300BB7DFA7D17481749DB000344D6
S214002900D2000A4492E8030083E80300FB7D124AE3
S214002910DB00134407F10C0292E8030083E803008F
S214002920BB7D0133BB75BB7D082B02D8FB7D082B16
S214002930C2D97B7D83F00103DBB2002B02D06FF09F
S2140029400C0304E001217868044B984703461846B8
S2140029501837BD4680BD00BF700A00200D5100002C
S21400296080B584B000AF78600023FB730923BB7387
S2140029702AE0BA7BFB7B13445B107B737B7B082BC4
S21400298027D87B7B164ADB0013445A687B689A423A
S2140029900BD17B7B124A52F83330002B1BD07B7B4B
S2140029A00F4A52F83330984715E07B7B0C4ADB0021
S2140029B013445A687B689A4203D27B7B0133FB73CD
S2140029C002E07B7B013BBB73BA7BFB7B9A42D0D297
S2140029D002E000BF00E000BF1037BD4680BD00BF6C
S2140029E0700A002080B584B000AF78607B68FB601A
S2140029F07B685B889BB203F48073002B07D1FB686F
S214002A005B6B002B03D0FB685B6BF868984700BFD6
S214002A101037BD4680BD80B584B000AF78607B6857
S214002A20FB607B685B889BB203F48073002B07D146
S214002A30FB689B6B002B03D0FB689B6BF868984782
S214002A4000BF1037BD4680BD80B584B000AF78604B
S214002A5039607B68FB607B685B889BB203F480739D
S214002A60002B08D1FB681B6B002B04D0FB681B6B8C
S214002A703968F868984700BF1037BD4680BD00002B
S214002A8080B58AB000AFF860B9601346FB80FB687B
S214002A90283B7B627B6A9B8FBB82FB88BB6148F2CC
S214002AA00103FB82BB68FB617B6A07F114021146D7
S214002AB01846064B984738623B6A002B01D03B6AA3
S214002AC000E0FB8818462837BD4680BDE17100004F
S214002AD080B58AB000AFF860B9601346FB80FB682B
S214002AE0283B7B627B6A9B8FBB82FB88BB614FF473
S214002AF00043FB82BB68FB617B6A07F11402114648
S214002B001846064B984738623B6A002B01D03B6A52
S214002B1000E0FB8818462837BD4680BDE1710000FE
S214002B2080B584B000AF786039607B68002B14BF36
S214002B3001230023DBB2892215491846154B984716
S214002B407B6839681846144B9847F860FB68002B7A
S214002B5001D0FB6818E07B68104ADA627B68104A8E
S214002B609A627B680F4A012118460F4B98477B688C
S214002B700E4A022118460C4B98477B680C4A0021E7
S214002B801846094B9847002318461037BD4680BDA7
S214002B9008040100D53F000031700000812A0000C3
S214002BA0D12A0000E5290000B5720000172A0000AF
S214002BB0492A000080B58AB000AFF860B9601346B5
S214002BC0FB80FB68143B7B627B6A9B8BBB82FB882B
S214002BD0BB6148F20103FB82BB68FB617B6A07F1BD
S214002BE0140211461846064B984738623B6A002B7B
S214002BF001D03B6A00E0FB8818462837BD4680BDFA
S214002C00FD74000080B58AB000AFF860B960134666
S214002C10FB80FB68143B7B627B6A9B8BBB82FB88DA
S214002C20BB614FF40043FB82BB68FB617B6A07F124
S214002C30140211461846064B984738623B6A002B2A
S214002C4001D03B6A00E0FB8818462837BD4680BDA9
S214002C50FD74000080B584B000AF786039607B6892
S214002C60002B14BF01230023DBB25E220C4918465A
S214002C700C4B98477B68396818460B4B9847F860AA
S214002C80FB68002B01D0FB6806E07B68074A9A6168
S214002C907B68074A5A61002318461037BD4680BD38
S214002CA028040100D53F0000F9720000B52B000093
S214002CB0052C000080B582B000AF78607B681846AF
S214002CC0034B9847034618460837BD4680BD00BFED
S214002CD04173000080B485B000AFF8600B467A60A0
S214002CE07B817B89C3F309031AB27B681BB203F4AA
S214002CF080631BB213431BB29AB2FB689A83FB68CD
S214002D009B8B18461437BD465DF8047B704780B42D
S214002D1083B000AF786039607B6803F114023B68CB
S214002D201A60002318460C37BD465DF8047B7047D2
S214002D3080B584B000AFF860B9607A60FB68002B9D
S214002D4004D0BB68002B01D0012300E0002303F071
S214002D500103DBB233220A4918460A4B9847FB6840
S214002D60B9681846084B9847FB68084A1A60FB681B
S214002D70074A5A60002318461037BD4680BD00BF7C
S214002D8044040100D53F0000058C0000E92D00003A
S214002D900D2E000080B582B000AF78607B68002BF7
S214002DA014BF01230023DBB24A220B4918460B4B03
S214002DB098477B6818460A4B98470346002B02D074
S214002DC06FF0100304E07B681846064B9847002314
S214002DD018460837BD4680BD44040100D53F0000B4
S214002DE0F58F0000B18E000080B584B000AF78602B
S214002DF07B68FB60FB685B69002B03D0FB685B6944
S214002E00F868984700BF1037BD4680BD80B584B0CF
S214002E1000AF78607B68FB60FB689B69002B03D083
S214002E20FB689B69F868984700BF1037BD4680BDB1
S214002E3080B582B000AF786039607B68002B04D024
S214002E403B68002B01D0012300E0002303F00103C0
S214002E50DBB2312206491846064B98477B6839682C
S214002E601846054B9847034618460837BD4680BDAA
S214002E705C040100D53F0000BD5F000080B582B055
S214002E8000AF78607B68002B14BF01230023DBB201
S214002E903F2206491846064B98477B681846054B5E
S214002EA09847034618460837BD4680BD5C040100B7
S214002EB0D53F00003160000080B582B000AF78607A
S214002EC07B68002B14BF01230023DBB24622064991
S214002ED01846064B98477B681846054B98470346A6
S214002EE018460837BD4680BD5C040100D53F00008B
S214002EF05560000080B582B000AF786039607B68AE
S214002F00002B04D03B68002B01D0012300E00023F7
S214002F1003F00103DBB24D2206491846064B9847DC
S214002F207B6839681846054B9847034618460837A5
S214002F30BD4680BD5C040100D53F0000A1610000D5
S214002F4080B584B000AF786039600023FB607B6892
S214002F50002B04D03B68002B01D0012300E00023A7
S214002F6003F00103DBB2402210491846104B984785
S214002F707B683A685A607B680433396818460D4B9C
S214002F809847F860FB68002B01DAFB680AE07B686C
S214002F904FF400429A827B68074A1A617B68074AA8
S214002FA0DA60002318461037BD4680BD780401005D
S214002FB0D53F0000697A00003930000091300000EB
S214002FC080B582B000AF78607B68002B14BF012309
S214002FD00023DBB2572206491846064B98477B6803
S214002FE004331846044B984700BF0837BD4680BDDB
S214002FF078040100D53F0000757B000080B582B0E4
S21400300000AF78607B68002B14BF01230023DBB27F
S2140030105D2206491846064B98477B6804331846D7
S214003020044B984700BF0837BD4680BD78040100B2
S214003030D53F0000C57B000080B588B000AFF860C3
S214003040B9601346FB80FB68002B14BF01230023E6
S214003050DBB287220B4918460B4B9847FB680C3BA4
S214003060FB61BB687B6100233B61FB88BB6107F1AA
S21400307010031946F869054B98470346184620374B
S214003080BD4680BD78040100D53F0000E930000051
S21400309080B588B000AFF860B9601346FB80FB6867
S2140030A0002B14BF01230023DBB2A3220B491846D2
S2140030B00B4B9847FB680C3BFB6100237B61BB68AE
S2140030C03B61FB88BB6107F110031946F869054BA5
S2140030D09847034618462037BD4680BD7804010051
S2140030E0D53F0000E930000080B586B000AF7860BC
S2140030F039607B68002B04D03B68002B01D001238D
S21400310000E0002303F00103DBB2B3220C491846AB
S2140031100C4B98473B681B68FB603B685B683B61F1
S2140031203B689B687B617B68043307F10C021146A1
S2140031301846054B9847034618461837BD4680BDC7
S21400314078040100D53F0000697D000080B582B09C
S21400315000AF786039607B68002B04D03B68002B9A
S21400316001D0012300E0002303F00103DBB2BD22FF
S21400317006491846064B98477B6803F10C023B68E5
S2140031801A60002318460837BD4680BD7804010043
S214003190D53F000080B483B000AF78607B681B68C2
S2140031A018460C37BD465DF8047B704780B483B084
S2140031B000AF78607B68002B02D07B681B6800E05D
S2140031C0002318460C37BD465DF8047B70470000A8
S2140031D080B584B000AFF860B9607A60FB68002BF9
S2140031E007D0BB68002B04D07B68002B01D00123DE
S2140031F000E0002303F00103DBB23B220C49184633
S2140032000C4B9847FB687A681A60FB681B681B685B
S214003210FA680432B96810469847FB6800225A617B
S214003220FB68054A5A60002318461037BD4680BD25
S21400323094040100D53F0000C135000080B582B07F
S21400324000AF78607B68002B05D07B681B68002B7E
S21400325001D0012300E0002303F00103DBB2542277
S2140032600E4918460E4B98477B681B689B697A6820
S2140032700432104698470346002B02D06FF0100326
S21400328007E07B681B689B687A680432104698479C
S214003290002318460837BD4680BD00BF94040100D1
S2140032A0D53F000080B582B000AF78607B68002B09
S2140032B005D07B681B68002B01D0012300E00023AB
S2140032C003F00103DBB262220F4918460F4B984702
S2140032D07B681B689B697A680432104698470346E9
S2140032E083F00103DBB2002B02D06FF0100307E07F
S2140032F07B681B68DB687A680432104698470023B0
S21400330018460837BD4680BD94040100D53F00002E
S21400331080B584B000AF786039607B68002B08D039
S2140033203B68002B05D07B681B68002B01D001236F
S21400333000E0002303F00103DBB27B222F4918468E
S2140033402F4B98477B681B7FDBB243F00103DAB252
S2140033507B681A777B68183339681846294B984774
S2140033600346002B0FD07B681B7FDBB223F00103E4
S214003370DAB27B681A77802220490020204B9847D3
S2140033806FF0110335E07B685A693B685A607B68CA
S21400339003F118007B685B691A4639681A4B984730
S2140033A07B681B7FDBB223F00103DAB27B681A77F7
S2140033B07B681B7FDBB203F00203002B18D007F1FB
S2140033C00C031846114B98477B681B7FDBB223F033
S2140033D00203DAB27B681A777B681B68DB697A6857
S2140033E004321046984707F10C031846084B9847D6
S2140033F0002318461037BD4680BD00BF9404010068
S214003400D53F0000FD3F00001135000055C100000B
S2140034107BC1000080B584B000AF786039607B68FF
S214003420002B08D03B68002B05D07B681B68002B60
S21400343001D0012300E0002303F00103DBB2962253
S2140034402D4918462D4B98477B681B7FDBB243F00F
S2140034500103DAB27B681A777B6818333968184636
S214003460274B9847034683F00103DBB2002B0FD0AF
S2140034707B681B7FDBB223F00103DAB27B681A7726
S2140034809B221D4900201D4B98476FF009032EE034
S2140034907B681833396818461A4B98477B681B7F39
S2140034A0DBB223F00103DAB27B681A777B681B7FF6
S2140034B0DBB203F00203002B18D007F10C0318460A
S2140034C0114B98477B681B7FDBB223F00203DAB20E
S2140034D07B681A777B681B68DB697A68043210465B
S2140034E0984707F10C031846084B984700231846E0
S2140034F01037BD4680BD00BF94040100D53F0000D4
S214003500FD3F00005F41000055C100007BC1000088
S21400351080B588B000AFF860B9607A600023BB6100
S214003520F868234B984738613B69002B04D1B9688B
S214003530F868204B984737E03B69FB6122E0FB695F
S2140035405A687B689A4208D8FB699A68FB6959688A
S2140035507B68CB1A13447B6109E0FB699A68FB69B8
S2140035605B681A447B685B42134401337B61BB682B
S2140035709A687B699A4209D9FB69BB61F8690E4B68
S2140035809847F861FB69002BD9D100E000BFFA69C3
S2140035903B699A4204D1B968F868064B984703E03D
S2140035A0B968B869054B98472037BD4680BD00BF4F
S2140035B09531000035400000AD3100008D40000020
S2140035C080B586B000AF78607B68043B3B613B69A2
S2140035D018331846274B984778613B695B695A1C35
S2140035E03B695A613B695B69FB603B691B7FDBB2E9
S2140035F003F00103002B06D13B691B7FDBB203F00F
S2140036000203002B27D03B691B7FDBB243F002038B
S214003610DAB23B691A7729E07B69BB603B691833ED
S2140036201846154B9847BB681B7C012B09D1BB6815
S214003630FA685A603B691833FA68B96818460F4B3F
S21400364098473B69183318460A4B98477861BB6819
S214003650DB68B86898477B69002B07D07B695B6896
S214003660FA68D21A7B699B689A42D5D21837BD464B
S21400367080BD00BF953100002D41000011350000CF
S21400368080B485B000AF0346FB710023FB7329E0CE
S21400369097F90F30194A5B01134401331B78FA7906
S2140036A09A4202D197F90F3022E097F90F30134A69
S2140036B05B0113441B78002B0ED1FB7903F00F033C
S2140036C097F90F200D4952010A44013212789342AD
S2140036D002D197F90F300BE097F90F30DBB20133C8
S2140036E0DBB2FB7397F90F30032BD1DD4FF0FF33BE
S2140036F018461437BD465DF8047B7047B80A0020AC
S21400370080B588B000AFBA607B600346FB730B469B
S214003710BB73BB687B617B68BB61BB7B002B04D043
S214003720FB7B63F07F03DBB203E0FB7B03F00F035E
S214003730DBB23B7797F828307B7707F114031846FF
S214003740034B9847034618462037BD4680BD00BF4A
S21400375089B7000080B485B000AFF860B9607A60C1
S214003760002318461437BD465DF8047B70470000FA
S21400377080B586B000AF0346FB71FB7918462A4B2E
S21400378098470346FB7597F917305B01274A1344A1
S2140037903B613B690C33FB60FB79F9681846244BA8
S2140037A098470346FB72FB7A082B0DD0FB79012164
S2140037B01846204B9847FB7963F07F03DBB2012164
S2140037C018461C4B98472BE0FB7900211846194BEE
S2140037D09847FB7963F07F03DBB200211846154B50
S2140037E098473B6901229A703B695B69FA79F968E8
S2140037F010469847034683F00103DBB2002B0FD038
S2140038003B6905229A70FB7901211846094B9847B7
S214003810FB7963F07F03DBB201211846054B98471E
S2140038201837BD4680BD00BF81360000B80A0020AC
S214003830E1B6000059B5000080B584B000AF03467D
S2140038403960FB71FB7918460D4B98470346FB73AE
S21400385097F90F305B010B4A1344BB60BB689B783B
S214003860032B07D1BB689B69FA79396810469847DD
S214003870034600E0002318461037BD4680BD00BF53
S21400388081360000B80A002090B587B002AF786095
S2140038907B689B78FB737B681B7B03F08003002BA5
S2140038A014BF01230023BB73FB7B032B3AD17B6839
S2140038B0DB697A6850787A680C32012198470346AB
S2140038C07B737B7B002B15D07B6805229A707B6808
S2140038D00222DA70BB7B002B02D07B685B7804E0A8
S2140038E07B685B7863F07F03DBB201211846154BDB
S2140038F0984722E07B6804229A707B685878BB7BE6
S214003900002B14BF01230023DBB283F00103DBB2DC
S21400391003F00103D9B201230093002300220A4CCE
S214003920A0470AE07B68DB697A6850787A680C32D0
S214003930002198477B6802229A7000BF1437BD4664
S21400394090BD00BF59B500000137000080B586B0B5
S21400395000AF0346B9607A60FB73FB7B18462F4BBB
S21400396098470346FB7597F917305B012C4A1344BA
S2140039703B61BB68002B0ED13B690022DA703B69C5
S2140039801B78002B03D13869264B984743E03B69E8
S21400399001229A7038E0BB68012B13D13B690222E2
S2140039A0DA703B691B78002B08D13B6902229A70BB
S2140039B0FB7B002118461C4B984725E03B690522F7
S2140039C09A7021E0BB68022B0ED13B690422DA70A4
S2140039D03B691B78002B03D13B6902229A701AE0E0
S2140039E03B6901229A700FE0BB68032B06D13B6946
S2140039F000229A703B690522DA7005E03B690622D0
S214003A009A703B690622DA703B69DB693A69D178BD
S214003A107A68F87B98471837BD4680BD8136000027
S214003A20B80A00208938000059B5000080B582B079
S214003A3000AF214B984738603B68002B01DA3B68A3
S214003A4036E0802200211D481D4B98470023FB715D
S214003A501EE0FB79194A5B0113440133FF221A70FA
S214003A60FB79164A5B0113441433164A1A60FB7935
S214003A70124A5B0113441833124A1A60FB790F4A44
S214003A805B0113441C330F4A1A60FB790133FB7148
S214003A90FB79032BDDD90C4900200C4B98470C49C9
S214003AA001200A4B98470B490220084B98470023F1
S214003AB018460837BD4680BDA1AD0000B80A0020F4
S214003AC0C10101005537000071370000E9B9000058
S214003AD0393800004D39000080B582B000AF03468B
S214003AE03960FB71FB7939681846034B984700BF6D
S214003AF00837BD4680BD00BFA1B9000080B500AF45
S214003B00024B98470346184680BD00BF91AE0000A2
S214003B1080B500AF014B984700BF80BD15AF0000D1
S214003B2080B582B000AF0346FB71FB791846034BA5
S214003B30984700BF0837BD4680BD00BF29AF0000CC
S214003B4080B582B000AF0346FB71FB799BB21A4684
S214003B5000210020034B9847034618460837BD4609
S214003B6080BD00BF693B000080B586B000AF03464D
S214003B70FB710B46BB711346BB80FB7918461E4B88
S214003B8098470346FB7597F917305B011B4A1344A9
S214003B903B6197F91730002B02DB6FF0130327E029
S214003BA0FF20154B98470346FB7597F91730002BF7
S214003BB002DA6FF014031BE097F917305B010F4A27
S214003BC013443B61BA88B979FB7918460C4B984781
S214003BD0F860FB68002B01DAFB6809E03B69FA79BC
S214003BE05A70BB7903F00303DAB23B691A700023FC
S214003BF018461837BD4680BD81360000B80A00203A
S214003C00C9AF000080B584B000AF0346FB71FB79F6
S214003C1018460D4B98470346FB7397F90F305B0128
S214003C200A4A1344BB6097F90F30002B07DBFB7979
S214003C301846074B9847BB68FF225A7000E000BF43
S214003C401037BD4680BD00BF81360000B80A002090
S214003C50FDB0000080B586B000AF0346FB71FB796F
S214003C601846154B98470346FB7597F917305B01C6
S214003C70124A13443B6197F91730002B02DA6FF0B3
S214003C80110314E03B691B78002B01D1022200E0EF
S214003C9001223B699A70FB791846094B9847F860F1
S214003CA0FB68002B02DA3B6900229A70FB68184614
S214003CB01837BD4680BD00BF81360000B80A002018
S214003CC0E1B1000090B58DB002AF78607B681B7ADA
S214003CD01846514B98470346FB7797F91F305B0110
S214003CE04E4A1344BB617B681B7A03F08003002BAB
S214003CF014BF0123002387F827307B685B7A002BEC
S214003D0014BF0123002387F826307B685B683B627C
S214003D1097F91F30002B02DA6FF0110377E007F1F6
S214003D20080318463E4B9847BB699B78FB73FB7BA2
S214003D30DBB2012B0CD1BB6903229A7007F1080392
S214003D401846384B9847BB691B78002B51D117E0B3
S214003D5007F108031846334B9847FB7BDBB2052B6D
S214003D6004D0062B04D0002B05D007E002234EE03B
S214003D706FF00F034BE06FF0120348E0012346E0BC
S214003D80BB699B7C9AB2BB69DB7C9BB21B029BB275
S214003D901344FB82FB8A002B0BD1012387F82730C4
S214003DA000233B62012387F82630BB6904229A7001
S214003DB01FE0BB691B7B03F08003002B14BF0123AD
S214003DC0002387F82730FA8A3B6A9A4201D2FB8A98
S214003DD03B6297F82730002B08D0FA8A3B6A9A4253
S214003DE08CBF0123002387F8263002E0002387F8E3
S214003DF026307B68187A7B681A6897F8263097F81A
S214003E00271000933B6A084CA04738613B69184668
S214003E102C37BD4690BD00BF81360000B80A002092
S214003E2055C100007BC100000137000080B584B09A
S214003E3000AF0346FB71FB7918460E4B98470346C6
S214003E40FB7397F90F305B010B4A1344BB6097F97D
S214003E500F30002B0ADBFB791846084B9847BB68E7
S214003E6001229A70BB680422DA7000E000BF1037A7
S214003E70BD4680BD81360000B80A00204DB900005E
S214003E8080B586B000AF0346FB71FB7918461A4B27
S214003E9098470346FB7597F917305B01174A13449A
S214003EA03B6197F91730002B02DA6FF011031FE021
S214003EB0FB7902211846124B98470346002B16D072
S214003EC0FB79002118460E4B9847F860FB68002BDC
S214003ED001DAFB680CE03B6901229A703B69032219
S214003EE0DA703B69DB69F8790022032198470023E2
S214003EF018461837BD4680BD81360000B80A002037
S214003F0059B5000080B582B000AF03460A46FB7183
S214003F101346BB71BB79002B05D1FB7918460C4BB9
S214003F20984703460FE0BB79012B06D1FB790121A8
S214003F301846084B9847034605E0FB7902211846C9
S214003F40044B9847034618460837BD4680BD00BF59
S214003F50813E000059B5000080B586B000AF03462C
S214003F603A60FB710B46BB71FB791846164B9847B7
S214003F700346FB7597F917305B01144A13443B61FF
S214003F803B68002B01D03B6800E0114BFB6097F9C3
S214003F901730002B13DBBB79012B08D0022B0AD07D
S214003FA0002B00D00CE03B69FA685A6108E03B69D8
S214003FB0FA689A6104E03B69FA68DA6100E000BFDB
S214003FC01837BD4680BD00BF81360000B80A002005
S214003FD05537000080B485B000AF0346B9607A60FC
S214003FE0FB73FB7B83F00103DBB2002B00D000BE2B
S214003FF000BF1437BD465DF8047B704780B485B0BB
S21400400000AF786039607B681B68FB6008E0FA6880
S2140040103B689A4201D1012306E0FB681B68FB60FF
S214004020FB68002BF3D1002318461437BD465DF815
S214004030047B704780B582B000AF7860396039681D
S21400404078680F4B98470346002B14BF01230023C4
S214004050DBB283F00103DBB203F00103DBB23922EB
S21400406008491846084B98477B681A683B681A60E8
S2140040707B683A681A6000BF0837BD4680BD00BF3F
S214004080FD3F0000AC040100D53F000080B483B0C3
S21400409000AF786039607B681A683B681A607B6896
S2140040A03A681A6000BF0C37BD465DF8047B70475F
S2140040B080B584B000AF786039607B681B68FB60B1
S2140040C039687868164B98470346002B14BF0123BF
S2140040D00023DBB283F00103DBB203F00103DBB2A3
S2140040E04F2210491846104B98477B681B68002BD8
S2140040F009D17B683A681A603B6800221A600CE0B7
S214004100FB681B68FB60FB681B68002BF8D1FB682C
S2140041103A681A603B6800221A601037BD4680BDB8
S214004120FD3F0000AC040100D53F000080B485B020
S21400413000AF78607B681B68002B09D07B681B6823
S214004140FB607B681B681A687B681A60FB6800E087
S214004150002318461437BD465DF8047B704780B4CC
S21400416085B000AF786039603B68002B01D1002332
S21400417024E07B681A683B689A4206D17B681B6815
S2140041801A687B681A60012318E07B681B68FB606E
S21400419002E0FB681B68FB60FB68002B04D0FB6832
S2140041A01A683B689A42F4D1FB68002B05D03B683E
S2140041B01A68FB681A60012300E0002318461437CB
S2140041C0BD465DF8047B704780B483B000AF0346FD
S2140041D0FB80B7F90630002B0BDB0949B7F9063030
S2140041E05B09FA8802F01F02012000FA02F241F889
S2140041F0232000BF0C37BD465DF8047B704700BF28
S21400420000E100E080B483B000AF0346FB80B7F95E
S2140042100630002B10DB0B49B7F906305B09FA882D
S21400422002F01F02012000FA02F2203341F8232098
S214004230BFF34F8FBFF36F8F00BF0C37BD465DF8DF
S214004240047B704700E100E080B483B000AF034613
S214004250FB80B7F90630002B0CDB0949B7F90630AE
S2140042605B09FA8802F01F02012000FA02F26033AE
S21400427041F8232000BF0C37BD465DF8047B70472D
S21400428000E100E080B483B000AF78607B685B6CD0
S2140042905B0903F00103002B14BF01230023DBB2EC
S2140042A018460C37BD465DF8047B704780B483B073
S2140042B000AF786039607B683A689A6000BF0C3758
S2140042C0BD465DF8047B704780B483B000AF78606D
S2140042D039607B683A68DA6000BF0C37BD465DF827
S2140042E0047B704780B483B000AF78607B689B69BE
S2140042F043F001027B689A6100BF0C37BD465DF84B
S214004300047B704780B485B000AF78607B689B699B
S214004310FB60FB6803F00103FB60FB68002B14BF27
S21400432001230023DBB218461437BD465DF8047B34
S214004330704780B483B000AF78607B689B6923F0D9
S21400434001027B689A6100BF0C37BD465DF8047BAE
S214004350704780B483B000AF78607B689B6943F099
S21400436002027B689A6100BF0C37BD465DF8047B8D
S214004370704780B483B000AF78607B689B6923F099
S21400438002027B689A6100BF0C37BD465DF8047B6D
S214004390704780B483B000AF786039607B689A69F4
S2140043A03B681A437B689A6100BF0C37BD465DF8D0
S2140043B0047B704780B483B000AF786039607B6858
S2140043C03A68DA6100BF0C37BD465DF8047B70477B
S2140043D080B483B000AF786039607B683A681A654D
S2140043E000BF0C37BD465DF8047B704780B483B0D1
S2140043F000AF78607B681B6D18460C37BD465DF8CD
S214004400047B704780B483B000AF786039607B6807
S2140044103A68DA6500BF0C37BD465DF8047B704726
S21400442080B483B000AF786039607B683A68C3F8C0
S214004430802000BF0C37BD465DF8047B704780B413
S21400444083B000AF786039607B683A68C3F8842030
S21400445000BF0C37BD465DF8047B704780B483B060
S21400446000AF786039607B683A68C3F8882000BF80
S2140044700C37BD465DF8047B704780B483B000AF50
S214004480786039607B683A68C3F8902000BF0C37C4
S214004490BD465DF8047B704780B483B000AF78609B
S2140044A039607B683A68C3F8A02000BF0C37BD4669
S2140044B05DF8047B704780B483B000AF78603960E5
S2140044C07B683A68C3F8BC2000BF0C37BD465DF871
S2140044D0047B704780B483B000AF786039607B6837
S2140044E03A68C3F8C02000BF0C37BD465DF8047BB1
S2140044F0704780B483B000AF786039607B683A68F4
S214004500C3F8C82000BF0C37BD465DF8047B704773
S21400451080B483B000AF786039607B683A68C3F8CF
S214004520F02000BF0C37BD465DF8047B70470000E6
S21400453080B582B000AF786039607B683A681A60F0
S2140045407B681B681846554B984700BF7B681B68FE
S2140045501846534B9847034683F00103DBB2002B03
S214004560F4D17B681B6818464E4B98473B684E4A0A
S21400457093427AD14D4A7B6813607B684C4A9A61B5
S2140045807B681B684FF4407118464A4B98477B6817
S2140045901B6802211846484B98477B681B684749AA
S2140045A01846474B98477B681B6846491846464B53
S2140045B098477B681A68454B9BB243F0004343F428
S2140045C0803319461046424B98477B681B68072184
S2140045D01846404B98477B681B68072118463E4B99
S2140045E098477B681A683D4B9BB243F08073194628
S2140045F010463B4B98477B681A683A4B9BB243F48D
S214004600003319461046384B98477B681B680821CC
S2140046101846364B98477B681A68354B9BB243F46E
S214004620001319461046334B98477B681A68324B7E
S2140046309BB243F4003319461046304B98477B68CC
S2140046401B686FF0604118462D4B98474F202D4B46
S21400465098474F202C4B98474F202C4B98477B6809
S2140046601B68012118462A4B98477B681B6818462A
S214004670284B98477B681B681846274B984700BF0F
S2140046807B681B681846064B98470346002BF7D1F5
S214004690002318460837BD4680BD00BFE54200002F
S2140046A0054300005343000000040042D80B0020DE
S2140046B00400002093430000AD420000010C0100FE
S2140046C0B5430000100C0100C94200007819002014
S2140046D099440000B7440000F3440000301900205D
S2140046E0D5440000380B002011450000214400008E
S2140046F0480B00203F440000C80B00205D4400002B
S2140047007B4400000542000049420000C941000009
S21400471005440000734300003343000090B583B0A7
S21400472000AF2C4B1B687B607B681B6818462A4BC7
S214004730984738603B6803F00103002B03D07B6882
S2140047409B68786898473B6803F40073002B03D097
S2140047507B685B68786898473B6803F00073002BBB
S21400476004D07B68DB680321786898473B6803F0D1
S2140047708073002B04D07B68DB680021786898473C
S2140047803B6803F40003002B0FD07B68DC687B6873
S2140047901B681846114B98470346002B01D002238E
S2140047A000E0012319467868A0473B6803F0080339
S2140047B0002B04D07B68DB680421786898477B6808
S2140047C01B6839681846064B984700BF0C37BD462D
S2140047D090BD00BFD80B0020ED43000085420000CE
S2140047E0D143000080B483B000AF0346FB80B7F926
S2140047F00630002B0CDB0949B7F906305B09FA884E
S21400480002F01F02012000FA02F2403341F8232092
S21400481000BF0C37BD465DF8047B704700E100E042
S21400482080B582B000AF0346FB71FB791BB2184619
S214004830024B984700BF0837BD4680BDE5470000DD
S21400484080B483B000AF03463960FB8013467B71AB
S2140048507B79043B052B6BD801A252F823F000BFEE
S2140048600F490000EF480000D1480000B3480000A0
S2140048709548000079480000FB883A683549A1FB56
S2140048800212920C02FB03F30233334AA2FB032309
S2140048905B0859E0FB883A6852093049A1FB0212CE
S2140048A0D20902FB03F31D332D4AA2FB03231B0987
S2140048B04AE0FB883A682B49A1FB0212520B02FB26
S2140048C003F303F22B13284AA2FB03235B093BE006
S2140048D0FB883A682549A1FB0212920902FB03F302
S2140048E003F6B733224AA2FB03239B092CE0FB887E
S2140048F03A682049A1FB0212520902FB03F303F5B2
S214004900EA432F331C4AA2FB03235B0B1CE0FB8805
S2140049103A681A49A1FB0212D20802FB03F303F518
S214004920922303F2DF33164AA2FB03235B0C0BE051
S214004930FB883A6802FB03F303F5371303F2BF6301
S214004940104AA2FB03239B0C18460C37BD465DF8A5
S214004950047B704783DE1B43ABAAAAAAC55A7C0A0F
S214004960898888885917B7D1B5814E1BD34D6210F8
S214004970F11976051F85EB5173B2E745CDCCCCCC4B
S214004980851DD96F819F5E1680B582B000AF034645
S214004990FB80FB88092204491846044B98470346C7
S2140049A018460837BD4680BD000E27074148000060
S2140049B080B483B000AF03463960FB8013467B713A
S2140049C07B79043B052B70D801A252F823F000BF78
S2140049D08D4A0000714A0000554A0000314A000026
S2140049E00D4A0000E9490000FB883A683749A1FBF8
S2140049F00212920C02FB03F30233354AA2FB032396
S214004A005B084FF47A7202FB03F358E0FB883A68BF
S214004A1052093049A1FB0212D20902FB03F302330A
S214004A202B4AA2FB03235B08642202FB03F346E047
S214004A30FB883A682849A1FB0212520B02FB03F3DB
S214004A400233234AA2FB03235A0813469B0013444F
S214004A505B0034E0FB883A682049A1FB0212920909
S214004A6002FB03F302331A4AA2FB03235B0826E089
S214004A70FB883A681A49A1FB0212520902FB03F3AB
S214004A801D33184AA2FB03231B0918E0FB883A686B
S214004A901549A1FB0212D20802FB03F303F22B1303
S214004AA0124AA2FB03235B0909E0FB883A6802FB73
S214004AB003F303F6B7330E4AA2FB03239B091846FB
S214004AC00C37BD465DF8047B704700BF83DE1B4392
S214004AD0ABAAAAAAC55A7C0A5917B7D1D34D6210F9
S214004AE01F85EB5189888888CDCCCCCCB5814E1BF0
S214004AF0F119760580B582B000AF0346FB80FB88CF
S214004B00092204491846044B9847034618460837B6
S214004B10BD4680BD000E2707B1490000000000001A
S214004B2080B483B000AF7860396000BFAFF3008018
S214004B300139FDD800BF0C37BD465DF8047B7047D1
S214004B4080B483B000AF78600B467B807B681B88A0
S214004B509AB27B881B029BB203F470639BB213432A
S214004B609AB27B681A8000BF0C37BD465DF8047B9E
S214004B70704780B485B000AFF8600B467A60FB7271
S214004B80FB7AFA7AF968D2010A442C3211687A68FC
S214004B900A43F968DB010B442C331A6000BF143754
S214004BA0BD465DF8047B704780B500AF002200214B
S214004BB00A480B4B9847002201210848084B9847A3
S214004BC04EF6EF7202210548054B98470022032156
S214004BD00248034B984700BF80BD00BF00800041DD
S214004BE0734B000080B500AF04210B480B4B984771
S214004BF00B4B98470B4B98470B4B98474FF48460EA
S214004C000A4B98470A4B984740F6DF30074B9847C1
S214004C10084B984700BF80BD00400041414B000054
S214004C20F5560000BD5B000015560000D554000088
S214004C30FD5B0000A94B000080B483B000AF786035
S214004C4039607B683A681A60002318460C37BD4600
S214004C505DF8047B7047000080B483B000AF034665
S214004C60FB80B7F90630002B0BDB0949B7F9063095
S214004C705B09FA8802F01F02012000FA02F241F8EE
S214004C80232000BF0C37BD465DF8047B704700BF8D
S214004C9000E100E080B483B000AF0346FB80B7F9C4
S214004CA00630002B10DB0B49B7F906305B09FA8893
S214004CB002F01F02012000FA02F2203341F82320FE
S214004CC0BFF34F8FBFF36F8F00BF0C37BD465DF845
S214004CD0047B704700E100E080B483B000AF034679
S214004CE0FB80B7F90630002B0CDB0949B7F9063014
S214004CF05B09FA8802F01F02012000FA02F2603314
S214004D0041F8232000BF0C37BD465DF8047B704792
S214004D1000E100E080B483B000AF7860396000BF87
S214004D207B685A683B681340002BF9D100BF0C37EC
S214004D30BD465DF8047B704780B483B000AF7860F2
S214004D4039607B685A683B681340002B14BF012308
S214004D500023DBB218460C37BD465DF8047B70476F
S214004D6080B483B000AF78607B685B6918460C3708
S214004D70BD465DF8047B704780B483B000AF7860B2
S214004D8039607B683A685A6100BF0C37BD465DF8EB
S214004D90047B704780B483B000AF786039607B686E
S214004DA03A681A6100BF0C37BD465DF8047B704751
S214004DB080B483B000AF786039607B683A68DA60A8
S214004DC000BF0C37BD465DF8047B704780B582B0E7
S214004DD000AF78607B681B78DBB243F00203DAB280
S214004DE07B681A7003217868024B984700BF083723
S214004DF0BD4680BD154D000080B582B000AF78601E
S214004E007B681B78DBB223F00203DAB27B681A7089
S214004E1003217868024B984700BF0837BD4680BD1F
S214004E20154D000080B584B000AF78600B46FB706F
S214004E307B681B78FB73FB7B23F01003FB73FB780C
S214004E401B015AB297F90F3013435BB2FB737B68B2
S214004E50FA7B1A7003217868024B984700BF103718
S214004E60BD4680BD154D000080B584B000AF7860AB
S214004E700B46FB7003217868064B98477B681B78C7
S214004E80FB73FA7BFB781340FB73FB7B18461037EB
S214004E90BD4680BD154D000080B582B000AF78607D
S214004EA00B46FB707B68FA781A7003217868034B10
S214004EB0984700BF0837BD4680BD00BF154D0000AF
S214004EC080B483B000AF78600B46FB707B68FA78DE
S214004ED05A7000BF0C37BD465DF8047B704780B43F
S214004EE083B000AF786039607B683A689A6000BF2C
S214004EF00C37BD465DF8047B704780B483B000AFC6
S214004F00786039607B683A689A6100BF0C37BD46A6
S214004F105DF8047B704780B485B000AFF8600B4640
S214004F207A60FB72FB7AFA6806339B0013447A6851
S214004F305A6000BF1437BD465DF8047B704780B4E6
S214004F4083B000AF786039607B683A681A6300BF48
S214004F500C37BD465DF8047B704780B483B000AF65
S214004F60786039607B683A685A6300BF0C37BD4684
S214004F705DF8047B7047000080B582B000AF7860B3
S214004F8001214F484F4B9847034683F00103DBB29D
S214004F90002B11D002214A484B4B98470346002B62
S214004FA006D04748494B984702214548484B984702
S214004FB001214348474B984701214148444B9847B5
S214004FC000213F48444B984700213D48434B9847B3
S214004FD000213B48424B984740F2BB313848414B92
S214004FE0984740F23B3136483F4B984700213448BB
S214004FF03E4B98473E4A002131483E4B9847112287
S21400500001212F483B4B98472D483B4B98470C2097
S2140050103A4B98470C203A4B98470C20394B984708
S2140050200D20364B98470D20354B98470D20354BB5
S21400503098470F20314B98470F20314B98470F2049
S214005040304B984710202D4B984710202C4B9847F4
S21400505010202C4B98471120284B98471120284B9E
S21400506098471120274B98471220244B9847122028
S214005070234B98471220234B984713201F4B9847E3
S21400508013201F4B984713201E4B984714201B4B8A
S214005090984714201A4B984714201A4B9847152007
S2140050A0164B98471520164B98471520154B9847D2
S2140050B0154A7B681360002318460837BD4680BD36
S2140050C000280040394D0000694E0000F94D0000F0
S2140050D0154D0000994E0000254E0000C14E000000
S2140050E0DF4E0000FB4E00003F4F00005B4F00000D
S2140050F013909990174F0000CD4D0000954C00007E
S214005100D94C0000594C0000DC0B002080B584B060
S21400511000AF78600B46FB70FF23FB730023BB7366
S21400512010E0BB7B1C4ADB0013445A687B689A423B
S21400513005D1BB7B184A12F83330FB7305E0BB7B06
S2140051400133BB73BB7B082BEBD9FB7BFF2B02D158
S2140051504FF0FF331CE0FB78002B08D0FB7B0122CE
S21400516002FA03F319460D480D4B98470FE0FB7BF8
S214005170012202FA03F3194608480A4B9847FB7BBC
S214005180012202FA03F319460448074B9847002306
S21400519018461037BD4680BDCC04010000280040EC
S2140051A0954D0000B14D0000794D000080B584B0EB
S2140051B000AF4148414B984703463B604FF0FF33F2
S2140051C0BB603B6819463C483D4B98473D4B1B68C7
S2140051D0002B14BF01230023DBB24FF484723A493C
S2140051E018463A4B984760E03B681846384B984755
S2140051F00346DBB2013BDBB2FB7347E00023FB71E7
S2140052000923BB7124E0BA79FB7913445B107B71E8
S2140052107B79304A12F833301A4697F90F309A42A3
S21400522006D17B792B4ADB0013445B68BB6013E036
S2140052307B79284A12F833301A4697F90F309A428B
S21400524003DA7B790133FB7102E07B79013BBB71AA
S214005250BA79FB799A42D6D2BB68B3F1FF3F03D046
S214005260184B1B68B868984797F90F30012202FA66
S21400527003F3DA433B6813403B603B681846144B25
S21400528098470346DBB2013BDBB2FB7397F90F305E
S214005290B3F1FF3FB2D10848084B984703463B603E
S2140052A03B6819460448064B98473B68002B9BD141
S2140052B000BF1037BD4680BD00280040614D00008D
S2140052C0794D0000DC0B002014050100D53F0000DE
S2140052D021000100CC04010080B500AF014B9847C7
S2140052E000BF80BDAD51000080B500AF014B9847B0
S2140052F000BF80BDAD51000080B500AF014B9847A0
S21400530000BF80BDAD51000080B500AF014B98478F
S21400531000BF80BDAD51000080B500AF014B98477F
S21400532000BF80BDAD51000080B500AF014B98476F
S21400533000BF80BDAD51000080B500AF014B98475F
S21400534000BF80BDAD51000080B500AF014B98474F
S21400535000BF80BDAD51000080B500AF014B98473F
S21400536000BF80BDAD51000080B485B000AFF860CE
S2140053700B467A60FB72FA7AFB684832796843F823
S214005380221000BF1437BD465DF8047B704780B41A
S21400539083B000AF78600B46FB701346BB70FB789B
S2140053A07A680433DB001344BA785A71FB78BA780B
S2140053B0D243D1B27A680433DB0013440A461A712A
S2140053C000BF0C37BD465DF8047B704780B485B0DF
S2140053D000AFF8600B467A60FB72FA7AFB6804321C
S2140053E0796843F8321000BF1437BD465DF8047B79
S2140053F07047000080B582B000AF0023FB710BE061
S214005400FB79184AD35C1A46FB7919461648174B9F
S2140054109847FB790133FB71FB79422BF0D90023C7
S214005420FB7116E0FB79124A32F813301A46FB7904
S21400543019460D480F4B9847FB790F4A52F8233010
S214005440DAB2FB79194608480C4B9847FB790133CA
S214005450FB71FB791F2BE5D9002318460837BD469C
S21400546080BD00BF2C05010000E00041695300002C
S21400547070050100CD530000B00501008F530000F9
S21400548080B483B000AF7860396000BF7B685A682C
S2140054903B681340002BF9D100BF0C37BD465DF8C2
S2140054A0047B704780B584B000AFF8600B467A6026
S2140054B0FB72FA7AFB680832796843F8221043F6E2
S2140054C0FD71F868024B984700BF1037BD4680BD97
S2140054D08154000080B582B000AF78607B6803F02E
S2140054E00103002B04D0364A00213648364B984735
S2140054F07B6803F00203002B04D0344A01213148B4
S214005500314B98477B6803F00403002B04D0304AE5
S21400551002212C482C4B98477B6803F00803002B8D
S21400552004D02C4A03212748274B98477B6803F072
S2140055301003002B04D0284A04212248224B984707
S2140055407B6803F02003002B04D0244A05211D4865
S2140055501D4B98477B6803F04003002B04D0204A7D
S21400556006211848184B98477B6803F08003002BE9
S21400557004D01C4A07211348134B98477B6803F452
S2140055808073002B04D0184A08210E480E4B98470B
S2140055907B6803F48063002B04D0144A0A21094870
S2140055A0094B98477B6803F40063002B04D0104A2D
S2140055B00B210448044B984700BF0837BD4680BD02
S2140055C007010100001C0040A55400000709010067
S2140055D00609010008090200010901000129060068
S2140055E001290C000829080001290300050901000B
S2140055F00519040080B483B000AF78600B46FB70DA
S2140056007B68FA785A7100BF0C37BD465DF8047B9C
S2140056107047000080B582B000AF054B7B6001216B
S2140056207868044B984700BF0837BD4680BD00BF6A
S21400563000080040F555000080B483B000AF7860E5
S2140056400B46FB707B68FA781A7400BF0C37BD46B1
S2140056505DF8047B704780B483B000AF78600B467B
S2140056607B807B687A889A8200BF0C37BD465DF8DF
S214005670047B704780B483B000AF78600B46FB7045
S2140056807B68FA789A7500BF0C37BD465DF8047BD8
S214005690704780B483B000AF78600B46FB707B68C1
S2140056A0FA78DA7500BF0C37BD465DF8047B7047A4
S2140056B080B485B000AF78607B68DB69FB60FB6810
S2140056C01B0A03F03F03FB60FB6818461437BD4611
S2140056D05DF8047B704780B483B000AF78603960B3
S2140056E07B683A68DA6100BF0C37BD465DF8047B1C
S2140056F07047000080B582B000AF134B7B6000237C
S2140057007B8042F28E017868104B984700217868BB
S2140057100F4B9847002178680E4B984778680E4BD9
S214005720984703467B807B881B0203F47C5319460C
S21400573078680A4B984700217868094B984700BF5D
S2140057400837BD4680BD00BF001400405756000015
S2140057507556000093560000B1560000D75600005C
S2140057603956000080B483B000AF7860396000BF5F
S2140057707B685A683B681340002BF9D100BF0C3792
S214005780BD465DF8047B704780B483B000AF786098
S2140057907B685B689B0803F00103002B14BF0123A2
S2140057A00023DBB218460C37BD465DF8047B704715
S2140057B080B483B000AF78607B685B6818460C37AF
S2140057C0BD465DF8047B704780B586B000AFF860D4
S2140057D00B467A60FB72FA7AFB68083253F822307E
S2140057E07B617B6923F00F037B617B6803F00F030B
S2140057F07A6913437B61FA7AFB680832796943F861
S214005800221043F6FD71F868024B984700BF183720
S214005810BD4680BD6557000080B485B000AFF86017
S2140058200B467A60FB72FA7AFB682032796843F896
S214005830221000BF1437BD465DF8047B704780B465
S21400584085B000AFF8600B467A60FB7200BFFA7A4C
S214005850F96813469B0013449B000B443C331A68BC
S2140058607B681340002BF2D100BF1437BD465DF8AD
S214005870047B704780B483B000AF78600B46FB7043
S214005880FA78796813469B0013449B000B44403318
S2140058901B6803F00103002B14BF01230023DBB2B7
S2140058A018460C37BD465DF8047B704780B483B05D
S2140058B000AF78600B46FB70FA78796813469B0059
