S01500004576656E745F4D616E616765722E73726563F3
S21400000060A80120A9030000A5030000A5030000C6
S214000010A5030000A5030000A503000000000000E3
S214000020000000000000000000000000A503000023
S214000030A503000000000000A5030000A5030000C3
S214000040A5030000A5030000A5030000A50300000B
S214000050A5030000A5030000A5030000A5030000FB
S214000060A5030000A5030000A503000059610000D9
S214000070014E0000114E0000A5030000214E0000B6
S214000080314E0000414E0000514E0000614E00000F
S214000090714E0000814E0000A5030000A50300007D
S2140000A0A5030000A5030000A5030000A5030000AB
S2140000B0A5030000A5030000A5030000A50300009B
S2140000C0A5030000A5030000A5030000A50300008B
S2140000D0A5030000A5030000A5030000A50300007B
S2140000E0A5030000A50300000000000000000000BB
S2140000F000000000A5030000A5030000A503000003
S214000100A5030000A5030000A5030000A50300004A
S214000110A5030000A5030000A5030000A50300003A
S214000120A5030000A5030000A5030000A50300002A
S214000130A5030000A5030000A5030000A50300001A
S214000140A5030000A5030000A5030000A50300000A
S214000150A5030000A5030000A5030000A5030000FA
S214000160A5030000A5030000A5030000A5030000EA
S214000170A5030000A5030000A503000045420000FB
S21400018095B00000A5B00000B5B00000C5B00000F6
S214000190A5030000D57A0000A5030000A503000013
S2140001A0A5030000A5030000A5030000A5030000AA
S2140001B0F17A0000A5030000A5030000A5030000D7
S2140001C0A50300000D7B0000A5030000A5030000AA
S2140001D0A5030000A5030000A5030000A50300007A
S2140001E0A5030000A5030000A503000091870000FA
S2140001F0A5030000AD870000A5030000C987000026
S214000200E5870000018800001D880000A5030000A7
S214000210A5030000A5030000A5030000A503000039
S214000220A5030000A5030000A5030000A503000029
S214000230A5030000A5030000A5030000A503000019
S214000240A5030000A5030000A5030000A503000009
S214000250A5030000A5030000A5030000A5030000F9
S214000260A503000010B5054C237833B9044B13B131
S2140002700448AFF300800123237010BD4006002021
S21400028000000000E00C01000C4B43B10C480D4987
S21400029010B5AFF300800C48036823B910BD0A48B8
S2140002A0036833B97047094B002BF7D0BDE8104000
S2140002B01847064B002BF5D0184700BF000000007B
S2140002C0E00C010044060020E00C010000000000E5
S2140002D010B50446094B98474FF40072002104F508
S2140002E03870074B98470023C4F8E034C4F8E43469
S2140002F0044BC4F83435204610BD00BFE9DC0000CE
S214000300410401005C06002010B50446014B9847E6
S214000310204610BD25DD00000B4611B9024AC0F884
S2140003203425C0F8F03470475C060020D0F8F0049E
S2140003304030B0F5805F94BF002001207047000079
S214000340F8B505460C46134B9847C0B9D5F8343572
S214000350D5F8F01422460B44403417685668906867
S214000360D1681F605E609860D96010321033A24278
S214000370F3D1D5F8F0044030C5F8F004F8BD064EC9
S21400038031460648064B9847C5F834650023C5F83D
S214000390F034DBE72D0300005C060020D44100208B
S2140003A095FC0000FEE7000008B5174B174A9A4276
S2140003B010D0174B144A9A420CD2013B9B1A23F0DA
S2140003C0030304331344114951F8040B42F8040B99
S2140003D09A42F9D10F4B104A9A420AD2013B9B1A15
S2140003E023F0030304331344002142F8041B934212
S2140003F0FBD10A4A0A4B23F07F039360094B9847C8
S214000400094B9847FEE700BF00000020E00C010003
S2140004103C06002060A800204006002000ED00E01A
S21400042000000000BD0201000907000010B50446E8
S214000430064B40F8B43B064B984704F1B000054B1A
S21400044098472046044B9847204610BD04070100F5
S21400045009030000B706000051E1000010B504468D
S214000460084B984704F1B000074B984704F1B400D6
S214000470064B9847064B2360064BC4F8EC352046DF
S21400048010BD00BFE1E00000B5060000D10200008C
S21400049004070100601600200023A0F8063680F846
S2140004A0053680F8043680F8023680F8013680F883
S2140004B00036704710B50446084B984704F5C063ED
S2140004C093E80600D4F8EC05054B98470021C4F8DD
S2140004D0F41604F1B400034B984710BD99040000CD
S2140004E079E1000019030000F8B505460C46D0F87F
S2140004F0EC0505F5BF6703681B683946984705F1A4
S214000500B006214630461E4B9847024685F8F00650
S214000510214605F2B4601B4B9847214630461A4BDD
S214000520984795F8F016214405F2C46301F12002BD
S214000530D1F800E04E688C68C868C3F800E05E60DA
S2140005409C60D860103110339142F1D10C68486835
S2140005508A681C6058609A60D5F8EC0503685B688A
S21400056039469847C5F8F806C5F8B00605F5D661C9
S21400057005F1B400054B98470548064B9847F8BD6B
S214000580D90600000D030100B90600004103000073
S214000590F42E002071EF000008B5014B984708BD07
S2140005A0E90400002DE9F843304C04F1B005304969
S2140005B02846304FB847304EDFF8F4803246414682
S2140005C028462E4DA84704F1D0092D494846B8477D
S2140005D0324641464846A84704F1F00929494846AC
S2140005E0B847324641464846A84704F58879264922
S2140005F04846B847324641464846A84704F59879E3
S21400060022494846B847324641464846A84704F578
S214000610A8791F494846B847324641464846A84743
S21400062004F5B8791B494846B8473246414648461D
S214000630A84704F5C87918494846B847324641469F
S2140006404846A84715492046154B9847324615494F
S2140006502046A84704F5D8742046134B98473246E0
S21400066012492046A847BDE8F88300BF6016002060
S214000670A8A500206DE80000000000208902010007
S2140006803CA6002060A700205CA6002020A7002033
S21400069040A7002018A60020B8A6002080A70020AB
S2140006A015E1000051E100005D0400002D0400008B
S2140006B0A5E800007047704738B505460C46084662
S2140006C0044B98472870C0B22C28C4BF002384F877
S2140006D02C3038BD0105010008B50B7863B13A2B04
S2140006E018BF002006D0013011F8013F3A2BFAD18E
S2140006F0C0B208BD0020FBE70846024B9847C0B2D0
S21400070008BD00BF0105010070B5214B9847214E7A
S214000710214D224C3046A84738B96420A0474FF4F4
S21400072080221F4BC3F81C21F4E74FF480221C4B99
S214000730C3F818211B481C4B98476420174B984752
S2140007401A481B4B98474FF400111A481A4B984703
S214000750A8B94FF47A70114B98470E4E174D184CA7
S2140007603046A847207010F0010F14BF15491649EF
S2140007700E48164B98476420084B9847F0E70D48FC
S214000780134B984713490948104B9847E1E700BFB9
S214000790D1080000AC3000205DF8000065250000A0
S2140007A000800041F42E00202DEF000010180020DD
S2140007B0B5040000D441002049FC00005DF90000AB
S2140007C0101F0020200701003007010099050000D7
S2140007D091FB00000C0701002DE9F8432C4C251D69
S2140007E02C4928462C4FB8472C4EDFF8E08032467E
S2140007F0414628462A4DA84704F124092949484677
S214000800B847324641464846A84704F144092649B7
S2140008104846B847324641464846A84704F1640968
S21400082022494846B847324641464846A84704F15A
S21400083084091F494846B847324641464846A847B5
S21400084004F1A4091B494846B84732464146484683
S214000850A84704F1C40918494846B84732464146F5
S2140008604846A84704F1E40914494846B8473246C2
S21400087041464846A84704F5827411492046114B64
S2140008809847324610492046A847BDE8F88300BF7F
S214000890101F0020A8A500206DE800000000002022
S2140008A0890201003CA6002060A700205CA600206C
S2140008B020A7002040A7002018A60020B8A60020E9
S2140008C0D8A600206DD6000089D60000A5E8000056
S2140008D080B500AF034B9847034B9847034B9847A8
S2140008E000BF80BDD11C000099B700002DB70000E6
S2140008F080B485B000AFF8600B467A60FB72FA7A77
S214000900FB682032796843F8221000BF1437BD46D2
S2140009105DF8047B704780B483B000AF78607B6876
S2140009201B6943F480627B681A6100BF0C37BD46C2
S2140009305DF8047B704780B483B000AF78607B6856
S2140009401B6943F400527B681A6100BF0C37BD4632
S2140009505DF8047B704780B483B000AF78607B6836
S2140009601B6943F480227B681A6100BF0C37BD46C2
S2140009705DF8047B704780B483B000AF78607B6816
S2140009801B6943F400127B681A6100BF0C37BD4632
S2140009905DF8047B704780B483B000AF78607B68F6
S2140009A05B6943F480727B685A6100BF0C37BD46B2
S2140009B05DF8047B704780B483B000AF78607B68D6
S2140009C05B6943F400727B685A6100BF0C37BD4612
S2140009D05DF8047B704780B483B000AF78607B68B6
S2140009E05B6943F480627B685A6100BF0C37BD4682
S2140009F05DF8047B704780B483B000AF78607B6896
S214000A005B6943F400527B685A6100BF0C37BD46F1
S214000A105DF8047B704780B483B000AF78607B6875
S214000A205B6943F480427B685A6100BF0C37BD4661
S214000A305DF8047B704780B483B000AF78607B6855
S214000A409B6943F001027B689A6100BF0C37BD4684
S214000A505DF8047B704780B483B000AF78607B6835
S214000A609B6943F002027B689A6100BF0C37BD4663
S214000A705DF8047B704780B483B000AF78607B6815
S214000A809B6943F080027B689A6100BF0C37BD46C5
S214000A905DF8047B704780B483B000AF78607B68F5
S214000AA09B6943F400627B689A6100BF0C37BD46C1
S214000AB05DF8047B704780B483B000AF78607B68D5
S214000AC09B6943F480527B689A6100BF0C37BD4631
S214000AD05DF8047B704780B483B000AF78607B68B5
S214000AE09B6943F400527B689A6100BF0C37BD4691
S214000AF05DF8047B704780B483B000AF78607B6895
S214000B00DB6943F008027B68DA6100BF0C37BD463C
S214000B105DF8047B704780B483B000AF78607B6874
S214000B20DB6943F020027B68DA6100BF0C37BD4604
S214000B305DF8047B704780B483B000AF78607B6854
S214000B40DB6943F040027B68DA6100BF0C37BD46C4
S214000B505DF8047B704780B483B000AF78607B6834
S214000B60DB6943F400527B68DA6100BF0C37BD4690
S214000B705DF8047B704780B483B000AF78607B6814
S214000B801B6A43F001027B681A6200BF0C37BD4641
S214000B905DF8047B704780B483B000AF78607B68F4
S214000BA01B6A43F002027B681A6200BF0C37BD4620
S214000BB05DF8047B704780B483B000AF78607B68D4
S214000BC01B6A43F004027B681A6200BF0C37BD46FE
S214000BD05DF8047B704780B483B000AF78607B68B4
S214000BE01B6A43F008027B681A6200BF0C37BD46DA
S214000BF05DF8047B704780B483B000AF78607B6894
S214000C001B6A43F020027B681A6200BF0C37BD46A1
S214000C105DF8047B704780B483B000AF78607B6873
S214000C201B6A43F040027B681A6200BF0C37BD4661
S214000C305DF8047B704780B485B000AFF8600B4663
S214000C407A60FB72FB7AFA68DB01134408337A6831
S214000C501A6000BF1437BD465DF8047B704780B449
S214000C6085B000AFF8600B467A60FB72FB7AFA68D4
S214000C70DB01134404337A681A6000BF1437BD469C
S214000C805DF8047B704780B485B000AFF8600B4613
S214000C907A60FB72FB7AFA68DB01134418337A68D1
S214000CA01A6000BF1437BD465DF8047B704780B4F9
S214000CB085B000AFF8600B467A60FB72FB7AFA6884
S214000CC0DB01134414337A681A6000BF1437BD463C
S214000CD05DF8047B704780B485B000AF7860084646
S214000CE011461A460346FB700B46BB7013467B70D4
S214000CF0FA78BB787968D2010A44134430331B78FB
S214000D00FB73FB7B23F00F03FB737B7803F00F036F
S214000D10DAB2FB7B1343FB73FA78BB787968D201AF
S214000D200A4413443033FA7B1A7000BF1437BD46AA
S214000D305DF8047B704780B485B000AF78600846E5
S214000D4011461A460346FB700B46BB7013467B7073
S214000D50FA78BB787968D2010A44134430331B789A
S214000D60FB73FB7B03F00F03FB737B781B01DAB28C
S214000D70FB7B1343FB73FA78BB787968D2010A448D
S214000D8013443033FA7B1A7000BF1437BD465DF843
S214000D90047B704780B485B000AF78600846114683
S214000DA01A460346FB700B46BB7013467B70FA78F8
S214000DB0BB787968D2010A44134440331B78FB732E
S214000DC0FB7B23F00103FB737A78FB7B1343FB73F7
S214000DD0FA78BB787968D2010A4413444033FA7B28
S214000DE01A7000BF1437BD465DF8047B704790B498
S214000DF082B000AF78600B46FB701346BB70FA7883
S214000E00BB78F878B9787C68C0012044014440314A
S214000E100978C9B241F00401C8B27968D2010A441F
S214000E201344403302461A7000BF0837BD4690BCD4
S214000E30704790B482B000AF78600B46FB701346E4
S214000E40BB70FA78BB78F878B9787C68C001204423
S214000E50014440310978C9B221F00401C8B279686A
S214000E60D2010A441344403302461A7000BF0837C2
S214000E70BD4690BC704780B485B000AFF8600B46A6
S214000E807A60FB72FB7AFA68DB01134428337A68CF
S214000E901A6000BF1437BD465DF8047B704700003B
S214000EA080B582B000AF03463960FB711346BB7154
S214000EB0BB79012B1CD0022B37D0002B4ED1FB79EF
S214000EC03A6819462A482B4B98473B689BB243F032
S214000ED08042FB7919462648274B98473B681B0CEF
S214000EE043F04042FB7919462148234B98473AE0A5
S214000EF0FB793A6819461E481E4B98473B689BB2DA
S214000F0043F0804343F40033F9791A4618481A4BE5
S214000F1098473B681B0C43F0404343F40033F97991
S214000F201A461348144B98471DE0FB793A68194651
S214000F300F48124B98473B689BB243F08042FB79C0
S214000F4019460B480C4B98473B681B0C43F0404235
S214000F50FB7919460648084B984704E0462208499C
S214000F600020084B984700BF0837BD4680BD00BF2D
S214000F70008000415F0C0000770E0000370C000078
S214000F803C070100013B000080B582B000AF03467D
S214000F903960FB711346BB71BB79002B06D0FB7919
S214000FA03A6819460648074B984705E0FB793A68C1
S214000FB019460348044B984700BF0837BD4680BD16
S214000FC000800041870C0000AF0C000080B582B0A6
S214000FD000AF0346FB710B46BB7113467B717B79F2
S214000FE0012B0AD0022B1FD0002B34D1BA79FB7903
S214000FF019461E481E4B984733E0BB7901229A409B
S214001000FB79194619481B4B9847BA79FB7919465C
S2140010101648194B9847BB7901229A40FB79194626
S2140010201248164B98471CE0BB7901229A40FB7980
S21400103019460E480F4B9847BA79FB7919460B4864
S2140010400D4B9847BB7901229A40FB791946074811
S2140010500B4B984705E089220A4900200A4B98471F
S21400106000BF00BF0837BD4680BD00BF00800041FE
S214001070330E00005F0C0000EF0D0000870C000030
S214001080AF0C00003C070100013B000090B585B0A6
S21400109000AF786039607B685B09FB737B68DBB206
S2140010A003F01F03BB733B68B3F1FF3F06D1BA7B67
S2140010B0F97B00231248134CA0471DE0BA7BF97B4E
S2140010C001230F480F4CA047BB7B03F00103002B06
S2140010D009D0BB7B5B08DAB23B68DBB2F97B084819
S2140010E0094CA04708E0BB7B5B08DAB23B68DBB282
S2140010F0F97B0348054CA04700BF1437BD4690BD9A
S21400110000800041950D0000370D0000D70C000050
S21400111080B582B000AF03460A46FB711346BB712A
S214001120FB795B09D8B2FB7903F01F03DBB2BA790F
S2140011301946034B984700BF0837BD4680BD00BF21
S214001140CD0F000080B582B000AF78603960396896
S2140011507868034B984700BF0837BD4680BD00BF80
S2140011608D10000080B582B000AF03460A46FB71C2
S2140011701346BB71FB795B09D8B2FB7903F01F03FA
S214001180012202FA03F3BA791946034B984700BFC7
S2140011900837BD4680BD00BFA10E000080B582B0F6
S2140011A000AF03460A46FB711346BB71FB795B0929
S2140011B0D8B2FB7903F01F03012202FA03F3BA79CF
S2140011C01946034B984700BF0837BD4680BD00BF91
S2140011D0890F000080B500AF014B984700BF80BD67
S2140011E00D47000080B582B000AF786039607B683C
S2140011F0002B04D03B68002B01D0012300E0002325
S21400120003F00103DBB2482207491846074B98470C
S2140012107B683A681A607B681846054B9847034611
S21400122018460837BD4680BD58070100013B000040
S214001230D1B1000080B500AF0448054B984705497A
S2140012400548064B984700BF80BD00BF0008004019
S214001250570A000000200041A4A70020E524000053
S21400126080B500AF442204213F48404B9847404891
S214001270404B9847012140203F4B98470021402093
S2140012803E4B98474FF4800140203D4B9847012144
S2140012902120394B984700212120384B98474FF49E
S2140012A004112120364B984701210320324B9847E2
S2140012B002210320314B98474FF440310320304B36
S2140012C09847012104202C4B9847022104202B4BE1
S2140012D098474FF480210420294B98470121052088
S2140012E0254B984702210520244B98474FF4A02110
S2140012F00520234B9847012156201F4B9847022173
S21400130056201E4B98474FF4AC0156201C4B98476E
S21400131001215720184B984702215720174B984712
S2140013204FF4AE015720164B984701212820124B48
S214001330984700212820114B98474FF42011282069
S2140013400F4B9847012129200B4B98470021292055
S2140013500A4B98474FF424112920094B9847094B0C
S214001360984700BF80BD00BF001C0040F108000089
S21400137000080040D70900006511000011110000A8
S21400138045110000AD25000080B500AF44220B21BA
S2140013900748084B984744220C210548054B9847B8
S2140013A00548064B9847064B984700BF80BD00BFD0
S2140013B0001C0040F108000000080040770A00000A
S2140013C09925000080B500AF01212B202B4B9847B4
S2140013D000212B202A4B98472A492B202A4B984736
S2140013E002210820254B984700210820274B9847C4
S2140013F000210820224B984725490820224B984771
S214001400022109201D4B9847002109201F4B9847B1
S214001410002109201A4B98471E4909201A4B984765
S21400142002210A20154B984700210A20174B98479F
S21400143000210A20124B984717490A20124B98475A
S21400144002210B200D4B984700210B200F4B98478D
S21400145000210B200A4B984710490B200A4B98474F
S21400146001212A20054B984700212A20044B984743
S2140014700B492A20044B984700BF80BD6511000029
S2140014801111000007002B00451100009D110000FF
S214001490070008000700090007000A0007000B0005
S2140014A007002A0080B500AF0548064B9847044859
S2140014B0054B98470248054B984700BF80BD00BFC4
S2140014C0000800403709000077090000570B0000AD
S2140014D080B500AF044B984704490548054B98472C
S2140014E0054B984700BF80BDA5140000003400429D
S2140014F038A600201D2A0000C513000080B500AFE6
S2140015000248034B984700BF80BD00BF000800405C
S214001510B709000080B500AF034B9847034904485D
S214001520044B984700BF80BDFD1400000024004017
S21400153080A70020E921000080B500AF012110201F
S214001540074B984707491020074B98470121112061
S214001550034B984705491120034B984700BF80BDB1
S21400156011110000020010004511000002001100D9
S21400157080B500AF422208210648074B98474A220A
S21400158003210448044B98470448054B984700BF7E
S21400159080BD00BF001C0040F108000000080040AD
S2140015A0F709000080B500AF044B9847044905488A
S2140015B0054B9847054B984700BF80BD7115000046
S2140015C000340040D8A60020752800003915000019
S2140015D080B500AF00213B20114B984702213B20ED
S2140015E0104B984710493B20104B984700213A2053
S2140015F00B4B984702213A200A4B98470C493A2051
S2140016000A4B984701213C20064B984700213C2076
S214001610084B984708493C20044B984700BF80BDBC
S2140016209D1100006511000003003B0045110000FD
S21400163003003A001111000003003C0080B500AF23
S214001640452222210648074B98474A220321044890
S214001650044B98470448054B984700BF80BD00BF21
S214001660001C0040F108000000080040770B000056
S21400167080B500AF054B98474FF086410448054BB0
S2140016809847054B984700BF80BD00BF3D16000039
S214001690E0A500202D2B0000D115000080B500AF7E
S2140016A000211720074B984707491720074B9847F4
S2140016B000211620034B984705491620034B9847F0
S2140016C000BF80BD11110000030017004511000087
S2140016D00300160080B500AF442223210648074BBE
S2140016E098474A2203210448044B98470448054B70
S2140016F0984700BF80BD00BF001C0040F1080000F6
S21400170000080040970B000080B500AF044B9847D8
S21400171004490548054B9847054B984700BF80BDD0
S214001720D5160000000400437CA6002075280000A3
S2140017309D16000080B500AF00214420114B98474D
S21400174002214420104B984710494420104B9847DC
S214001750002145200B4B9847022145200A4B98470D
S2140017600C4945200A4B984701214720064B9847CD
S21400177000214720084B984708494720044B9847C4
S21400178000BF80BD9D1100006511000002004400EE
S214001790451100000200450011110000020047003C
S2140017A080B500AF422224210648074B98474A22BC
S2140017B003210448044B98470448054B984700BF4C
S2140017C080BD00BF001C0040F1080000000800407B
S2140017D0B70B000080B500AF044B98470449054896
S2140017E0054B9847054B984700BF80BDA1170000E2
S2140017F000080043C8A500202D2B00003517000068
S21400180080B500AF00216820074B9847074968203D
S214001810074B984700216920034B984705496920E4
S214001820034B984700BF80BD1111000002006800FE
S214001830451100000200690080B500AF4422252152
S2140018400648074B98474A2203210448044B98470A
S2140018500448054B984700BF80BD00BF001C0040F1
S214001860F108000000080040D70B000080B500AF6C
S214001870044B984704490548054B9847054B98473D
S21400188000BF80BD39180000000C0043F8A50020FA
S214001890752800000118000080B500AF0848094B05
S2140018A09847432209210848084B9847084B984711
S2140018B003461A4607490848084B984700BF80BDAC
S2140018C000080040170A0000001C0040F108000055
S2140018D0698600000038004040A70020FD2C00006C
S2140018E080B500AF0848094B984744221A2108489B
S2140018F0084B9847084B984703461A460749084836
S214001900084B984700BF80BD00080040D70A00007B
S214001910001C0040F10800006986000000A001419C
S21400192020A70020FD2C000080B500AF0848094B1A
S214001930984746221E210848084B9847084B984768
S21400194003461A4607490848084B984700BF80BD1B
S21400195000080040170B0000001C0040F1080000C3
S214001960698600000014004218A60020FD2C000026
S21400197080B500AF0848094B984746221E21084804
S214001980084B9847084B984703461A4607490848A5
S214001990084B984700BF80BD00080040370B00008A
S2140019A0001C0040F1080000698600000018004294
S2140019B05CA60020FD2C000080B500AF0848094B4F
S2140019C09847462227210848084B9847084B9847CF
S2140019D003461A4607490848084B984700BF80BD8B
S2140019E000080040F70B0000001C0040F108000053
S2140019F069860000001400433CA60020FD2C000071
S214001A0080B400AF00BFBD465DF8047B70470000A1
S214001A1080B500AF0448054B98474022272104486C
S214001A20044B984700BF80BD00080040170C00001C
S214001A30001C0040F108000080B500AF064B984738
S214001A40064B9847064B984703461A4605490648EC
S214001A50064B984700BF80BD111A0000011A00000F
S214001A607D860000001800439CA600207129000017
S214001A7080B500AF0448054B984744221921044816
S214001A80044B984700BF80BD00080040970A00003E
S214001A90001C0040F108000080B500AF054B9847D9
S214001AA0054B984703461A4604490548054B984790
S214001AB000BF80BD711A00004D7A00000060014131
S214001AC060A70020FD2C000080B500AF0448054B41
S214001AD09847442219210448044B984700BF80BD0C
S214001AE000080040B70A0000001C0040F108000093
S214001AF080B500AF054B9847054B984703461A46F6
S214001B0004490548054B984700BF80BDC91A000028
S214001B104D7A000000800141A8A50020FD2C0000A1
S214001B2080B500AF0448054B984740221D21044865
S214001B30044B984700BF80BD00080040F70A00002D
S214001B40001C0040F108000080B500AF054B984728
S214001B50054B984703461A4604490548054B9847DF
S214001B6000BF80BD211B00004D7A0000000C004223
S214001B70B8A60020FD2C000080B500AF022118207A
S214001B800F4B9847002118200E4B9847002118202D
S214001B900D4B98470D4918200D4B984702211920E8
S214001BA0074B984700211920064B9847002119201B
S214001BB0054B984707491920054B984700BF80BD3D
S214001BC0651100009D1100001111000007001800AB
S214001BD0451100000700190080B500AF42220A2117
S214001BE00548064B98470648064B98470448064B58
S214001BF0984700BF80BD00BF001C0040F1080000F1
S214001C000008004017090000370A000080B500AF42
S214001C10034B9847034B9847034B984700BF80BD3C
S214001C20D91B000059350000791B000080B500AFB5
S214001C300248034B984700BF80BD00BF0008004025
S214001C409709000080B500AF034B98470349044846
S214001C50044B984700BF80BD2D1C000000200040AC
S214001C60A0A70020E511000080B500AF04492D2094
S214001C70044B984704492C20024B984700BF80BD70
S214001C8007002D004511000007002C0080B500AFAE
S214001C900748084B984749221C210748074B984796
S214001CA007490848084B9847084B984700BF80BD2F
S214001CB00008004057090000001C0040F108000022
S214001CC000040042F8A60020F9230000691C00006A
S214001CD080B500AF5F4B9847002107205E4B9847C2
S214001CE0022107205D4B98474FF0FF3107205C4BE1
S214001CF0984701210F20584B984702210F20574B39
S214001D0098474FF0FF310F20554B9847012113207D
S214001D10514B984702211320504B98474FF0FF3104
S214001D2013204F4B984701211B204B4B984702210D
S214001D301B204A4B98474FF0FF311B20484B9847D3
S214001D4001212720444B984702212720434B9847E0
S214001D504FF0FF312720424B984701213D203E4B54
S214001D60984702213D203D4B98474FF0FF313D20DC
S214001D703B4B984701213F20384B984701213F2095
S214001D80384B98474FF0FF313F20354B984700219E
S214001D904D20314B984702214D20304B98474FF04D
S214001DA0FF314D202E4B984701214E202A4B984755
S214001DB002214E20294B98474FF0FF314E20284BEA
S214001DC0984700214F20244B984702214F20234B51
S214001DD098474FF0FF314F20214B98470021522063
S214001DE01D4B9847022152201C4B98474FF0FF315D
S214001DF052201B4B98471C4B98471C4B98471C4B34
S214001E0098471C4B98471C4B98471C4B98471C4BB5
S214001E1098471C4B98471C4B98471C4B98471C4BA5
S214001E2098471C4B98471C4B98471C4B98471C4B95
S214001E3098471C4B98471C4B98471C4B98471C4B85
S214001E4098471C4B98471C4B98471C4B984700BF1D
S214001E5080BD00BFD51100009D1100006511000077
S214001E60451100001111000035120000611200003B
S214001E7089130000D114000015150000A5150000F8
S214001E807116000009170000D51700006D18000035
S214001E9099180000E11800002919000071190000C7
S214001EA0B9190000391A0000991A0000F11A00004A
S214001EB0491B00000D1C0000451C00008D1C000086
S214001EC080B483B000AF0346FB80FB8803F00303B7
S214001ED0002B01D0002300E0012318460C37BD4636
S214001EE05DF8047B7047000080B584B000AF786072
S214001EF00B46FB700023FB607B689BB218462F4B9B
S214001F0098470346002B28D0FB78013B0B2B4CD878
S214001F1001A252F823F000BF491F00004F1F000027
S214001F20491F0000551F0000491F0000551F0000F4
S214001F30491F0000491F0000551F0000491F0000F0
S214001F40551F0000491F00001D4BFB6030E01D4B75
S214001F50FB602DE01C4BFB602AE0FB78013B0B2B63
S214001F6025D801A252F823F0991F00009F1F0000F9
S214001F70991F0000A51F0000991F0000A51F000064
S214001F80991F0000991F0000A51F0000991F000060
S214001F90A51F0000991F0000094BFB6008E00B4BD3
S214001FA0FB6005E0084BFB6002E000BF00E000BFFE
S214001FB0FB6818461037BD4680BD00BFC11E000036
S214001FC080DE2800803B2600008D270000EA2400E3
S214001FD080B58AB000AFF860B9607A60FB689B692C
S214001FE03B620123FB770123BB7700237B7700232B
S214001FF03B77BB687B623B6A9BB21846324B98477E
S2140020000346002B01D0314B00E0314BBB617A6AAE
S214002010BB699A4207D37A6ABB69D31A7B623B6A6A
S21400202001333B62E7E7FB7F1946386A294B98473E
S21400203078617A6A7B699A4207D37A6A7B69D31A8F
S2140020407B62FB7F0133FB77EDE77B6A224A934294
S21400205009D97B6AA3F5A833A3F5C0737B62BB7F5F
S2140020600133BB77F1E77B6AB3F5616F07D37B6A11
S214002070A3F561637B627B7F01337B77F3E77B6A43
S2140020803B2B06D97B6A3C3B7B623B7F01333B772D
S214002090F5E700BF3B6A9AB27B68DA807B68FA7F16
S2140020A05A717B68BA7F1A717B687A7F9A707B68F0
S2140020B03A7F5A707B6ADAB27B681A700023184639
S2140020C02837BD4680BD00BFC11E00000085E20166
S2140020D08033E101E91E00007F51010080B586B023
S2140020E000AF7860396000237B6100233B613B686A
S2140020F0DB88DAB27B689B69DBB2D31AFB733B687A
S2140021005B79BB733B681B797B733B689B783B733F
S2140021103B685B78FB723B681B78BB7200233B61B5
S2140021201AE07B689B699AB23B699BB213449BB2E8
S2140021301846294B98470346002B06D07B6903F1C7
S214002140F17303F505437B6103E07A69234B13447F
S2140021507B613B6901333B61FA7B3B699A42E0D87D
S21400216001233B610FE03B68DB881A463B69DBB224
S214002170194610461A4B984702467B6913447B6102
S2140021803B6901333B61BA7B3B699A42EBD87B7B68
S214002190013B144A02FB03F31A467B6913447B6136
S2140021A03B7B4FF4616202FB03F31A467B691344E0
S2140021B07B61FA7A13461B019B1A9B001A467B69C1
S2140021C013447B61BB7A7A6913447B617B6918464A
S2140021D01837BD4680BD00BFC11E00008033E10138
S2140021E0E91E00008051010080B584B000AF786021
S2140021F039600023FB607B68002B14BF012300239B
S214002200DBB24FF4E07211491846114B98477B68D1
S2140022101A683B689A4201D1002313E07B681B686A
S214002220002B02D06FF011030CE07B683A681A604E
S2140022307B681846074B9847F8607B6840F2B27296
S2140022409A61FB6818461037BD4680BD74070100CA
S214002250013B0000355F000080B582B000AF7860BB
S2140022607B68002B14BF01230023DBB240F2E5128B
S21400227006491846064B98477B681846054B98470C
S214002280002318460837BD4680BD00BF740701000E
S214002290013B0000ED5F000080B586B000AF7860BF
S2140022A039607B68002B14BF01230023DBB24FF498
S2140022B0037215491846154B98477B681846144B09
S2140022C09847786107F108031A4679697868114BD0
S2140022D098473B681B783B723B685B787B723B6831
S2140022E09B78BB7207F10803194678680A4B984733
S2140022F038617B6839691846084B984700231846AA
S2140023001837BD4680BD00BF74070100013B0000C2
S21400231089600000D11F0000DD2000003960000049
S21400232080B586B000AF786039607B68002B14BF3C
S21400233001230023DBB24FF4097215491846154BEA
S21400234098477B681846144B9847786107F108034E
S2140023501A4679697868114B98473B681B783B7337
S2140023603B685B787B733B685B88FB8107F10803FF
S214002370194678680A4B984738617B683969184669
S214002380084B9847002318461837BD4680BD00BF47
S21400239074070100013B000089600000D11F0000A7
S2140023A0DD2000003960000080B584B000AF7860A2
S2140023B039607B68002B14BF01230023DBB240F298
S2140023C03B2209491846094B98477B681846084B34
S2140023D09847F8603A68F9687868064B984700238B
S2140023E018461037BD4680BD74070100013B00004B
S2140023F089600000D11F000080B584B000AF78600F
S21400240039607B68002B04D03B68002B01D0012389
S21400241000E0002303F00103DBB241220E49184618
S2140024200E4B98477B68396818460D4B9847F860FE
S214002430FB68002B01D0FB6809E07B68094A5A60FC
S2140024407B68094A9A607B68084ADA600023184667
S2140024501037BD4680BD00BF90070100013B00005D
S2140024605D4000007124000095240000B92400009F
S21400247080B584B000AF78607B68FB60FB68DB6982
S214002480002B03D0FB68DB69F868984700BF10375D
S214002490BD4680BD80B584B000AF78607B68FB60C9
S2140024A0FB681B6A002B03D0FB681B6AF86898471A
S2140024B000BF1037BD4680BD80B584B000AF7860E1
S2140024C00B46FB707B68FB60FB685B6A002B05D0E5
S2140024D0FB685B6AFA781146F868984700BF1037C1
S2140024E0BD4680BD80B582B000AF786039607B683D
S2140024F0002B04D03B68002B01D0012300E0002312
S21400250003F00103DBB22B2206491846064B984718
S2140025107B6839681846054B9847034618460837BF
S214002520BD4680BDAC070100013B000061470000CE
S21400253090B583B000AF0346FB80074B1C68FB8852
S2140025401846064B9847034619462046044B9847BC
S21400255000BF0C37BD4690BD3C200020B1440000B3
S2140025604946000090B583B000AF0346FB80074B9A
S2140025701C68FB881846064B9847034619462046B3
S214002580044B984700BF0C37BD4690BD3C2000204A
S2140025901D4600004946000080B500AF024B984734
S2140025A00346184680BD00BF1D4F000080B582B0B0
S2140025B000AF0023FB800EE0FB880C4ADB001344D0
S2140025C04FF0FF325A60FB88084A002142F8331069
S2140025D0FB880133FB80FB88082BEDD90448054BAC
S2140025E09847034618460837BD4680BD4020002061
S2140025F051270000A14A000080B586B000AF786081
S21400260039600023FB750023BB7500237B7512E041
S214002610FB7D4D4ADB0013445A687B689A4207D11B
S214002620FB7D49493A6841F8332001237B7505E074
S214002630FB7D0133FB75FB7D082BE9D93B68002B3E
S2140026400ED17B7D83F00103DBB2002B02D06FF04E
S2140026500C0374E0002178683C4B984703466EE014
S2140026607B7D83F00103DBB2002B5AD00023FB7581
S21400267016E0FB7D344A52F83330002B0DD1FB7D3B
S21400268031493A6841F83320FB7D2F4ADB0013447A
S2140026907A685A6001237B7505E0FB7D0133FB7584
S2140026A0FB7D082BE5D936E0FB7D274ADB0013448B
S2140026B05A68BB7D2449DB000B445B689A4227D2EC
S2140026C0BB7D214ADB0013445B68B3F1FF3F1FD09C
S2140026D0BB7D1D4907F10C02DB000B4493E80300A9
S2140026E082E80300BB7DFA7D17481749DB000344E8
S2140026F0D2000A4492E8030083E80300FB7D124AF6
S214002700DB00134407F10C0292E8030083E80300A1
S214002710BB7D0133BB75BB7D082B02D8FB7D082B28
S214002720C2D97B7D83F00103DBB2002B02D06FF0B1
S2140027300C0304E001217868044B984703461846CA
S2140027401837BD4680BD00BF40200020354C000035
S21400275080B584B000AF78600023FB730923BB7399
S2140027602AE0BA7BFB7B13445B107B737B7B082BD6
S21400277027D87B7B164ADB0013445A687B689A424C
S2140027800BD17B7B124A52F83330002B1BD07B7B5D
S2140027900F4A52F83330984715E07B7B0C4ADB0033
S2140027A013445A687B689A4203D27B7B0133FB73DF
S2140027B002E07B7B013BBB73BA7BFB7B9A42D0D2A9
S2140027C002E000BF00E000BF1037BD4680BD00BF7E
S2140027D04020002080B58AB000AFF860B96013468C
S2140027E0FB80FB68143B7B627B6A9B8BBB82FB880F
S2140027F0BB6148F20103FB82BB68FB617B6A07F1A1
S214002800140211461846064B984738623B6A002B5E
S21400281001D03B6A00E0FB8818462837BD4680BDDD
S214002820D96C000080B58AB000AFF860B960134676
S214002830FB80FB68143B7B627B6A9B8BBB82FB88BE
S214002840BB614FF40043FB82BB68FB617B6A07F108
S214002850140211461846064B984738623B6A002B0E
S21400286001D03B6A00E0FB8818462837BD4680BD8D
S214002870D96C000080B584B000AF786039607B68A2
S214002880002B14BF01230023DBB25E220C4918463E
S2140028900C4B98477B68396818460B4B9847F8608E
S2140028A0FB68002B01D0FB6806E07B68074A9A614C
S2140028B07B68074A5A61002318461037BD4680BD1C
S2140028C0C8070100013B0000796A0000D527000018
S2140028D02528000080B582B000AF78607B68184677
S2140028E0034B9847034618460837BD4680BD00BFD1
S2140028F0C16A000080B582B000AF78607B68184679
S214002900034B9847034618460837BD4680BD00BFB0
S214002910016B000080B485B000AFF8600B467A60AB
S2140029207B817B89C3F309031AB27B681BB203F46D
S21400293080631BB213431BB29AB2FB689A83FB6890
S2140029409B8B18461437BD465DF8047B704780B4F1
S21400295083B000AF786039607B6803F114023B688F
S2140029601A60002318460C37BD465DF8047B704796
S21400297080B584B000AFF860B9607A60FB68002B61
S21400298004D0BB68002B01D0012300E0002303F035
S2140029900103DBB233220A4918460A4B9847FB6804
S2140029A0B9681846084B9847FB68084A1A60FB68DF
S2140029B0074A5A60002318461037BD4680BD00BF40
S2140029C0E4070100013B000099820000D5290000C1
S2140029D0F929000080B584B000AF78607B68FB60A2
S2140029E0FB685B69002B03D0FB685B69F868984757
S2140029F000BF1037BD4680BD80B584B000AF78609C
S214002A007B68FB60FB689B69002B03D0FB689B69B7
S214002A10F868984700BF1037BD4680BD80B582B0C5
S214002A2000AF786039607B68002B04D03B68002BD1
S214002A3001D0012300E0002303F00103DBB23122C2
S214002A4006491846064B98477B6839681846054B72
S214002A509847034618460837BD4680BDFC07010068
S214002A60013B0000FD5A000080B582B000AF7860E0
S214002A707B68002B14BF01230023DBB23F220649EC
S214002A801846064B98477B681846054B98470346FA
S214002A9018460837BD4680BDFC070100013B000014
S214002AA0715B000080B582B000AF78607B68002B59
S214002AB014BF01230023DBB2462206491846064B04
S214002AC098477B681846054B9847034618460837CC
S214002AD0BD4680BDFC070100013B0000955B000081
S214002AE080B582B000AF786039607B68002B04D078
S214002AF03B68002B01D0012300E0002303F0010314
S214002B00DBB24D2206491846064B98477B68396863
S214002B101846054B9847034618460837BD4680BDFD
S214002B20FC070100013B0000E15C000080B584B0BA
S214002B3000AF786039600023FB607B68002B04D010
S214002B403B68002B01D0012300E0002303F00103C3
S214002B50DBB2402210491846104B98477B683A680B
S214002B605A607B680433396818460D4B9847F860FE
S214002B70FB68002B01DAFB680AE07B684FF4004232
S214002B809A827B68074A1A617B68074ADA600023E4
S214002B9018461037BD4680BD18080100013B0000EE
S214002BA06D710000AD2B0000052C000080B588B0CC
S214002BB000AFF860B9601346FB80FB68002B14BFBB
S214002BC001230023DBB287220B4918460B4B98479C
S214002BD0FB680C3BFB61BB687B6100233B61FB88A9
S214002BE0BB6107F110031946F869054B9847034681
S214002BF018462037BD4680BD18080100013B00007E
S214002C005D2C000080B588B000AFF860B960134650
S214002C10FB80FB68002B14BF01230023DBB2A3223A
S214002C200B4918460B4B9847FB680C3BFB6100238F
S214002C307B61BB683B61FB88BB6107F110031946EB
S214002C40F869054B9847034618462037BD4680BDB1
S214002C5018080100013B00005D2C000080B586B01E
S214002C6000AF786039607B68002B04D03B68002B8F
S214002C7001D0012300E0002303F00103DBB2B322FE
S214002C800C4918460C4B98473B681B68FB603B6832
S214002C905B683B613B689B687B617B68043307F13C
S214002CA00C0211461846054B984703461846183737
S214002CB0BD4680BD18080100013B0000CD73000032
S214002CC080B483B000AF78607B681B6818460C370A
S214002CD0BD465DF8047B704780B483B000AF786073
S214002CE07B68002B02D07B681B6800E00023184638
S214002CF00C37BD465DF8047B7047000080B584B095
S214002D0000AFF860B9607A60FB68002B07D0BB683C
S214002D10002B04D07B68002B01D0012300E00023A9
S214002D2003F00103DBB23B220C4918460C4B9847D4
S214002D30FB687A681A60FB681B681B68FA680432CE
S214002D40B96810469847FB6800225A61FB68054A36
S214002D505A60002318461037BD4680BD340801006F
S214002D60013B0000ED30000080B582B000AF786017
S214002D707B68002B05D07B681B68002B01D00123E5
S214002D8000E0002303F00103DBB254220E4918468C
S214002D900E4B98477B681B689B697A68043210461E
S214002DA098470346002B02D06FF0100307E07B68BD
S214002DB01B689B687A6804321046984700231846BA
S214002DC00837BD4680BD00BF34080100013B000047
S214002DD080B582B000AF78607B68002B05D07B683A
S214002DE01B68002B01D0012300E0002303F0010341
S214002DF0DBB262220F4918460F4B98477B681B6868
S214002E009B697A68043210469847034683F00103AC
S214002E10DBB2002B02D06FF0100307E07B681B6864
S214002E20DB687A680432104698470023184608374D
S214002E30BD4680BD34080100013B000080B584B06B
S214002E4000AF786039607B68002B08D03B68002BA9
S214002E5005D07B681B68002B01D0012300E000230F
S214002E6003F00103DBB27B222F4918462F4B98470D
S214002E707B681B7FDBB243F00103DAB27B681A770C
S214002E807B68183339681846294B98470346002B49
S214002E900FD07B681B7FDBB223F00103DAB27B68BE
S214002EA01A77802220490020204B98476FF01103A4
S214002EB035E07B685A693B685A607B6803F1180006
S214002EC07B685B691A4639681A4B98477B681B7F94
S214002ED0DBB223F00103DAB27B681A777B681B7FCC
S214002EE0DBB203F00203002B18D007F10C031846E0
S214002EF0114B98477B681B7FDBB223F00203DAB2E4
S214002F007B681A777B681B68DB697A680432104630
S214002F10984707F10C031846084B984700231846B5
S214002F201037BD4680BD00BF34080100013B0000DD
S214002F30293B00003D300000A9B70000CFB70000D5
S214002F4080B584B000AF786039607B68002B08D00D
S214002F503B68002B05D07B681B68002B01D0012343
S214002F6000E0002303F00103DBB296222D49184649
S214002F702D4B98477B681B7FDBB243F00103DAB228
S214002F807B681A777B68183339681846274B98474A
S214002F90034683F00103DBB2002B0FD07B681B7F58
S214002FA0DBB223F00103DAB27B681A779B221D4955
S214002FB000201D4B98476FF009032EE07B681833FE
S214002FC0396818461A4B98477B681B7FDBB223F09C
S214002FD00103DAB27B681A777B681B7FDBB203F0EB
S214002FE00203002B18D007F10C031846114B984724
S214002FF07B681B7FDBB223F00203DAB27B681A77AA
S2140030007B681B68DB697A6804321046984707F1CC
S2140030100C031846084B9847002318461037BD4641
S21400302080BD00BF34080100013B0000293B0000C2
S2140030308B3C0000A9B70000CFB7000080B588B071
S21400304000AFF860B9607A600023BB61F868234B74
S214003050984738613B69002B04D1B968F868204B63
S214003060984737E03B69FB6122E0FB695A687B685A
S2140030709A4208D8FB699A68FB6959687B68CB1A3C
S21400308013447B6109E0FB699A68FB695B681A4434
S2140030907B685B42134401337B61BB689A687B693B
S2140030A09A4209D9FB69BB61F8690E4B9847F861EB
S2140030B0FB69002BD9D100E000BFFA693B699A4250
S2140030C004D1B968F868064B984703E0B968B86950
S2140030D0054B98472037BD4680BD00BFC12C000079
S2140030E0613B0000D92C0000B93B000080B586B0DB
S2140030F000AF78607B68043B3B613B691833184639
S214003100274B984778613B695B695A1C3B695A6153
S2140031103B695B69FB603B691B7FDBB203F0010325
S214003120002B06D13B691B7FDBB203F00203002BAA
S21400313027D03B691B7FDBB243F00203DAB23B6960
S2140031401A7729E07B69BB603B6918331846154B34
S2140031509847BB681B7C012B09D1BB68FA685A608C
S2140031603B691833FA68B96818460F4B98473B69AD
S214003170183318460A4B98477861BB68DB68B8680E
S21400318098477B69002B07D07B695B68FA68D21A80
S2140031907B699B689A42D5D21837BD4680BD00BF72
S2140031A0C12C0000593C00003D30000080B485B0C2
S2140031B000AF0346FB710023FB7329E097F90F303D
S2140031C0194A5B01134401331B78FA799A4202D1FB
S2140031D097F90F3022E097F90F30134A5B0113443A
S2140031E01B78002B0ED1FB7903F00F0397F90F2005
S2140031F00D4952010A4401321278934202D197F9DE
S2140032000F300BE097F90F30DBB20133DBB2FB7304
S21400321097F90F30032BD1DD4FF0FF3318461437E4
S214003220BD465DF8047B70478820002080B588B0D6
S21400323000AFBA607B600346FB730B46BB73BB688C
S2140032407B617B68BB61BB7B002B04D0FB7B63F0A0
S2140032507F03DBB203E0FB7B03F00F03DBB23B77BD
S21400326097F828307B7707F114031846034B9847E6
S214003270034618462037BD4680BD00BFDDAD0000C2
S21400328080B485B000AFF860B9607A600023184655
S2140032901437BD465DF8047B7047000080B586B0E5
S2140032A000AF0346FB71FB7918462A4B9847034646
S2140032B0FB7597F917305B01274A13443B613B695E
S2140032C00C33FB60FB79F9681846244B9847034695
S2140032D0FB72FB7A082B0DD0FB7901211846204B98
S2140032E09847FB7963F07F03DBB2012118461C4B3D
S2140032F098472BE0FB7900211846194B9847FB7935
S21400330063F07F03DBB200211846154B98473B69F4
S21400331001229A703B695B69FA79F968104698470A
S214003320034683F00103DBB2002B0FD03B69052276
S2140033309A70FB7901211846094B9847FB7963F090
S2140033407F03DBB201211846054B98471837BD4668
S21400335080BD00BFAD3100008820002035AD0000E4
S214003360ADAB000080B584B000AF03463960FB719A
S214003370FB7918460D4B98470346FB7397F90F30B9
S2140033805B010B4A1344BB60BB689B78032B07D1D9
S214003390BB689B69FA79396810469847034600E08F
S2140033A0002318461037BD4680BD00BFAD31000073
S2140033B08820002090B587B002AF78607B689B7845
S2140033C0FB737B681B7B03F08003002B14BF012379
S2140033D00023BB73FB7B032B3AD17B68DB697A68DF
S2140033E050787A680C320121984703467B737B7BC2
S2140033F0002B15D07B6805229A707B680222DA7053
S214003400BB7B002B02D07B685B7804E07B685B7834
S21400341063F07F03DBB201211846154B984722E084
S2140034207B6804229A707B685878BB7B002B14BF9D
S21400343001230023DBB283F00103DBB203F00103B8
S214003440D9B201230093002300220A4CA0470AE0C9
S2140034507B68DB697A6850787A680C320021984776
S2140034607B6802229A7000BF1437BD4690BD00BF2D
S214003470ADAB00002D32000080B586B000AF03462D
S214003480B9607A60FB73FB7B18462F4B9847034660
S214003490FB7597F917305B012C4A13443B61BB68F8
S2140034A0002B0ED13B690022DA703B691B78002B9B
S2140034B003D13869264B984743E03B6901229A704E
S2140034C038E0BB68012B13D13B690222DA703B69F6
S2140034D01B78002B08D13B6902229A70FB7B0021E7
S2140034E018461C4B984725E03B6905229A7021E058
S2140034F0BB68022B0ED13B690422DA703B691B784D
S214003500002B03D13B6902229A701AE03B69012224
S2140035109A700FE0BB68032B06D13B6900229A70B5
S2140035203B690522DA7005E03B6906229A703B6922
S2140035300622DA703B69DB693A69D1787A68F87BEB
S21400354098471837BD4680BDAD3100008820002062
S214003550B5330000ADAB000080B582B000AF214BA4
S214003560984738603B68002B01DA3B6836E08022DB
S21400357000211D481D4B98470023FB711EE0FB7978
S214003580194A5B0113440133FF221A70FB79164A6D
S2140035905B0113441433164A1A60FB79124A5B0126
S2140035A013441833124A1A60FB790F4A5B0113441E
S2140035B01C330F4A1A60FB790133FB71FB79032B2E
S2140035C0DDD90C4900200C4B98470C4901200A4BCA
S2140035D098470B490220084B98470023184608379F
S2140035E0BD4680BDF5A300008820002041040100F0
S2140035F0813200009D3200003DB0000065330000BF
S2140036007934000080B582B000AF03463960FB71A4
S214003610FB7939681846034B984700BF0837BD4604
S21400362080BD00BFF5AF000080B500AF024B9847E5
S2140036300346184680BD00BFE5A4000080B500AF75
S214003640014B984700BF80BD69A5000080B582B0D9
S21400365000AF0346FB71FB791846034B984700BF43
S2140036600837BD4680BD00BF7DA5000080B582B08E
S21400367000AF0346FB71FB799BB21A46002100207F
S214003680034B9847034618460837BD4680BD00BF23
S2140036909536000080B586B000AF0346FB710B463A
S2140036A0BB711346BB80FB7918461E4B98470346F2
S2140036B0FB7597F917305B011B4A13443B6197F97A
S2140036C01730002B02DB6FF0130327E0FF20154BAB
S2140036D098470346FB7597F91730002B02DA6FF010
S2140036E014031BE097F917305B010F4A13443B6144
S2140036F0BA88B979FB7918460C4B9847F860FB688E
S214003700002B01DAFB6809E03B69FA795A70BB794D
S21400371003F00303DAB23B691A7000231846183721
S214003720BD4680BDAD310000882000201DA60000EB
S21400373080B584B000AF0346FB71FB7918460D4B8D
S21400374098470346FB7397F90F305B010A4A134408
S214003750BB6097F90F30002B07DBFB791846074B49
S2140037609847BB68FF225A7000E000BF1037BD467E
S21400377080BD00BFAD3100008820002051A70000AA
S21400378080B586B000AF0346FB71FB791846154B33
S21400379098470346FB7597F917305B01124A1344A6
S2140037A03B6197F91730002B02DA6FF0110314E033
S2140037B03B691B78002B01D1022200E001223B6905
S2140037C09A70FB791846094B9847F860FB68002BFF
S2140037D002DA3B6900229A70FB6818461837BD4625
S2140037E080BD00BFAD3100008820002035A8000055
S2140037F090B58DB002AF78607B681B7A1846514B47
S21400380098470346FB7797F91F305B014E4A1344EF
S214003810BB617B681B7A03F08003002B14BF012377
S214003820002387F827307B685B7A002B14BF0123C0
S214003830002387F826307B685B683B6297F91F3069
S214003840002B02DA6FF0110377E007F10803184641
S2140038503E4B9847BB699B78FB73FB7BDBB2012B27
S2140038600CD1BB6903229A7007F108031846384B3F
S2140038709847BB691B78002B51D117E007F1080366
S2140038801846334B9847FB7BDBB2052B04D0062B40
S21400389004D0002B05D007E002234EE06FF00F03A4
S2140038A04BE06FF0120348E0012346E0BB699B7CC7
S2140038B09AB2BB69DB7C9BB21B029BB21344FB82B1
S2140038C0FB8A002B0BD1012387F8273000233B62AD
S2140038D0012387F82630BB6904229A701FE0BB6973
S2140038E01B7B03F08003002B14BF0123002387F803
S2140038F02730FA8A3B6A9A4201D2FB8A3B6297F8E3
S2140039002730002B08D0FA8A3B6A9A428CBF0123E4
S214003910002387F8263002E0002387F826307B68ED
S214003920187A7B681A6897F8263097F8271000935D
S2140039303B6A084CA04738613B6918462C37BD46A1
S21400394090BD00BFAD31000088200020A9B7000060
S214003950CFB700002D32000080B584B000AF03461C
S214003960FB71FB7918460E4B98470346FB7397F995
S2140039700F305B010B4A1344BB6097F90F30002BE6
S2140039800ADBFB791846084B9847BB6801229A70F9
S214003990BB680422DA7000E000BF1037BD4680BD69
S2140039A0AD31000088200020A1AF000080B586B0B1
S2140039B000AF0346FB71FB7918461A4B984703463F
S2140039C0FB7597F917305B01174A13443B6197F96B
S2140039D01730002B02DA6FF011031FE0FB7902218B
S2140039E01846124B98470346002B16D0FB79002149
S2140039F018460E4B9847F860FB68002B01DAFB6808
S214003A000CE03B6901229A703B690322DA703B693D
S214003A10DB69F879002203219847002318461837F7
S214003A20BD4680BDAD31000088200020ADAB000053
S214003A3080B582B000AF03460A46FB711346BB71E1
S214003A40BB79002B05D1FB7918460C4B98470346EB
S214003A500FE0BB79012B06D1FB7901211846084BF4
S214003A609847034605E0FB7902211846044B984721
S214003A70034618460837BD4680BD00BFAD39000076
S214003A80ADAB000080B586B000AF03463A60FB7170
S214003A900B46BB71FB791846164B98470346FB75D9
S214003AA097F917305B01144A13443B613B68002BBF
S214003AB001D03B6800E0114BFB6097F91730002BF4
S214003AC013DBBB79012B08D0022B0AD0002B00D0C9
S214003AD00CE03B69FA685A6108E03B69FA689A614B
S214003AE004E03B69FA68DA6100E000BF1837BD46BB
S214003AF080BD00BFAD31000088200020813200006C
S214003B0080B485B000AF0346B9607A60FB73FB7B78
S214003B1083F00103DBB2002B00D000BE00BF1437D9
S214003B20BD465DF8047B704780B485B000AF786012
S214003B3039607B681B68FB6008E0FA683B689A425D
S214003B4001D1012306E0FB681B68FB60FB68002BC5
S214003B50F3D1002318461437BD465DF8047B704742
S214003B6080B582B000AF78603960396878680F4BEE
S214003B7098470346002B14BF01230023DBB283F0D3
S214003B800103DBB203F00103DBB239220849184611
S214003B90084B98477B681A683B681A607B683A68E7
S214003BA01A6000BF0837BD4680BD00BF293B000035
S214003BB04C080100013B000080B483B000AF786081
S214003BC039607B681A683B681A607B683A681A60D6
S214003BD000BF0C37BD465DF8047B704780B584B0E7
S214003BE000AF786039607B681B68FB60396878686E
S214003BF0164B98470346002B14BF01230023DBB265
S214003C0083F00103DBB203F00103DBB24F2210495D
S214003C101846104B98477B681B68002B09D17B68B9
S214003C203A681A603B6800221A600CE0FB681B6862
S214003C30FB60FB681B68002BF8D1FB683A681A60CB
S214003C403B6800221A601037BD4680BD293B000045
S214003C504C080100013B000080B485B000AF7860DE
S214003C607B681B68002B09D07B681B68FB607B6841
S214003C701B681A687B681A60FB6800E00023184619
S214003C801437BD465DF8047B704780B485B000AF3E
S214003C90786039603B68002B01D1002324E07B6804
S214003CA01A683B689A4206D17B681B681A687B686C
S214003CB01A60012318E07B681B68FB6002E0FB6863
S214003CC01B68FB60FB68002B04D0FB681A683B6827
S214003CD09A42F4D1FB68002B05D03B681A68FB6853
S214003CE01A60012300E0002318461437BD465DF82D
S214003CF0047B704780B483B000AF0346FB80B7F9FF
S214003D000630002B0BDB0949B7F906305B09FA8849
S214003D1002F01F02012000FA02F241F8232000BF41
S214003D200C37BD465DF8047B704700BF00E100E03D
S214003D3080B483B000AF0346FB80B7F90630002B93
S214003D4010DB0B49B7F906305B09FA8802F01F0250
S214003D50012000FA02F2203341F82320BFF34F8FF0
S214003D60BFF36F8F00BF0C37BD465DF8047B70470E
S214003D7000E100E080B483B000AF0346FB80B7F9F3
S214003D800630002B0CDB0949B7F906305B09FA88C8
S214003D9002F01F02012000FA02F2603341F82320ED
S214003DA000BF0C37BD465DF8047B704700E100E0BD
S214003DB080B483B000AF78607B685B6C5B0903F00F
S214003DC00103002B14BF01230023DBB218460C3777
S214003DD0BD465DF8047B704780B483B000AF786062
S214003DE039607B683A689A6000BF0C37BD465DF85C
S214003DF0047B704780B483B000AF786039607B681E
S214003E003A68DA6000BF0C37BD465DF8047B704741
S214003E1080B483B000AF78607B689B6943F0010292
S214003E207B689A6100BF0C37BD465DF8047B70471F
S214003E3080B485B000AF78607B689B69FB60FB68E8
S214003E4003F00103FB60FB68002B14BF0123002373
S214003E50DBB218461437BD465DF8047B704780B465
S214003E6083B000AF78607B689B6923F001027B68B3
S214003E709A6100BF0C37BD465DF8047B704780B47E
S214003E8083B000AF78607B689B6943F002027B6872
S214003E909A6100BF0C37BD465DF8047B704780B45E
S214003EA083B000AF78607B689B6923F002027B6872
S214003EB09A6100BF0C37BD465DF8047B704780B43E
S214003EC083B000AF786039607B689A693B681A43B4
S214003ED07B689A6100BF0C37BD465DF8047B70476F
S214003EE080B483B000AF786039607B683A68DA6186
S214003EF000BF0C37BD465DF8047B704780B483B0C6
S214003F0000AF786039607B683A681A6500BF0C3786
S214003F10BD465DF8047B704780B483B000AF786020
S214003F207B681B6D18460C37BD465DF8047B7047F2
S214003F3080B483B000AF786039607B683A68DA6531
S214003F4000BF0C37BD465DF8047B704780B483B075
S214003F5000AF786039607B683A68C3F8802000BF9D
S214003F600C37BD465DF8047B704780B483B000AF65
S214003F70786039607B683A68C3F8842000BF0C37E5
S214003F80BD465DF8047B704780B483B000AF7860B0
S214003F9039607B683A68C3F8882000BF0C37BD4696
S214003FA05DF8047B704780B483B000AF78603960FA
S214003FB07B683A68C3F8902000BF0C37BD465DF8B2
S214003FC0047B704780B483B000AF786039607B684C
S214003FD03A68C3F8A02000BF0C37BD465DF8047BE6
S214003FE0704780B483B000AF786039607B683A6809
S214003FF0C3F8BC2000BF0C37BD465DF8047B704795
S21400400080B483B000AF786039607B683A68C3F8E4
S214004010C02000BF0C37BD465DF8047B704780B4F7
S21400402083B000AF786039607B683A68C3F8C82010
S21400403000BF0C37BD465DF8047B704780B483B084
S21400404000AF786039607B683A68C3F8F02000BF3C
S2140040500C37BD465DF8047B7047000080B582B023
S21400406000AF786039607B683A681A607B681B68C6
S2140040701846564B984700BF7B681B681846544B3B
S2140040809847034683F00103DBB2002BF4D17B682C
S2140040901B6818464F4B98473B684F4A93427CD163
S2140040A04E4A7B6813607B684D4A9A617B681B6842
S2140040B04FF4007118464B4B98477B681B680221EB
S2140040C01846494B98477B681B6840F603211846FC
S2140040D0464B98477B681B684FF423611846444B51
S2140040E098477B681A68434B9BB243F0004343F4FF
S2140040F0803319461046404B98477B681B6807215B
S21400410018463E4B98477B681B68072118463C4B71
S21400411098477B681A683B4B9BB243F080731946FE
S2140041201046394B98477B681A68384B9BB243F465
S214004130003319461046364B98477B681B680821A3
S2140041401846344B98477B681A68334B9BB243F447
S214004150001319461046314B98477B681A68304B57
S2140041609BB243F40033194610462E4B98477B68A3
S2140041701B686FF0604118462B4B98474F202B4B1F
S21400418098474F202A4B98474F202A4B98477B68E2
S2140041901B6801211846284B98477B681B68184601
S2140041A0264B98477B681B681846254B984700BFE8
S2140041B07B681B681846064B98470346002BF7D1CA
S2140041C0002318460837BD4680BD00BF113E0000DC
S2140041D0313E00007F3E000000040042A82100207F
S2140041E004000020BF3E0000D93D0000E13E000074
S2140041F0F53D0000F0A70020C53F0000E33F0000AB
S2140042001F400000A8A70020014000000821002051
S2140042103D4000004D3F0000182100206B3F00008D
S21400422098210020893F0000A73F0000313D000094
S214004230753D0000F53C0000313F00009F3E000049
S2140042405F3E000090B583B000AF2C4B1B687B60D0
S2140042507B681B6818462A4B984738603B6803F013
S2140042600103002B03D07B689B68786898473B68FF
S21400427003F40073002B03D07B685B68786898476C
S2140042803B6803F00073002B04D07B68DB680321D7
S214004290786898473B6803F08073002B04D07B68EF
S2140042A0DB680021786898473B6803F40003002B1E
S2140042B00FD07B68DC687B681B681846114B9847F4
S2140042C00346002B01D0022300E00123194678683C
S2140042D0A0473B6803F00803002B04D07B68DB682C
S2140042E00421786898477B681B6839681846064B2F
S2140042F0984700BF0C37BD4690BD00BFA8210020E0
S214004300193F0000B13D0000FD3E000080B483B0C0
S21400431000AF0346FB80B7F90630002B0CDB0949DB
S214004320B7F906305B09FA8802F01F02012000FA8E
S21400433002F2403341F8232000BF0C37BD465DF83B
S214004340047B704700E100E080B582B000AF034612
S214004350FB71FB791BB21846024B984700BF083723
S214004360BD4680BD0D43000080B483B000AF034659
S2140043703960FB8013467B717B79043B052B6BD839
S21400438001A252F823F000BF374400001744000093
S214004390F9430000DB430000BD430000A1430000DA
S2140043A0FB883A683549A1FB0212920C02FB03F324
S2140043B00233334AA2FB03235B0859E0FB883A68C2
S2140043C052093049A1FB0212D20902FB03F31D3346
S2140043D02D4AA2FB03231B094AE0FB883A682B49B7
S2140043E0A1FB0212520B02FB03F303F22B13284A23
S2140043F0A2FB03235B093BE0FB883A682549A1FB47
S2140044000212920902FB03F303F6B733224AA2FB19
S21400441003239B092CE0FB883A682049A1FB021283
S214004420520902FB03F303F5EA432F331C4AA2FBAF
S21400443003235B0B1CE0FB883A681A49A1FB0212B7
S214004440D20802FB03F303F5922303F2DF33164A86
S214004450A2FB03235B0C0BE0FB883A6802FB03F32A
S21400446003F5371303F2BF63104AA2FB03239B0C2A
S21400447018460C37BD465DF8047B704783DE1B4349
S214004480ABAAAAAAC55A7C0A898888885917B7D1C0
S214004490B5814E1BD34D6210F11976051F85EB5181
S2140044A073B2E745CDCCCCCC851DD96F819F5E1607
S2140044B080B582B000AF0346FB80FB880922044922
S2140044C01846044B9847034618460837BD4680BD35
S2140044D0000E27076943000080B483B000AF034690
S2140044E03960FB8013467B717B79043B052B70D8C3
S2140044F001A252F823F000BFB54500009945000020
S2140045007D45000059450000354500001145000076
S214004510FB883A683749A1FB0212920C02FB03F3B0
S2140045200233354AA2FB03235B084FF47A7202FB80
S21400453003F358E0FB883A6852093049A1FB02129F
S214004540D20902FB03F302332B4AA2FB03235B08C8
S214004550642202FB03F346E0FB883A682849A1FB85
S2140045600212520B02FB03F30233234AA2FB03237D
S2140045705A0813469B0013445B0034E0FB883A68F5
S2140045802049A1FB0212920902FB03F302331A4AE6
S214004590A2FB03235B0826E0FB883A681A49A1FBC6
S2140045A00212520902FB03F31D33184AA2FB03232F
S2140045B01B0918E0FB883A681549A1FB0212D208CD
S2140045C002FB03F303F22B13124AA2FB03235B093D
S2140045D009E0FB883A6802FB03F303F6B7330E4A9A
S2140045E0A2FB03239B0918460C37BD465DF8047BE7
S2140045F0704700BF83DE1B43ABAAAAAAC55A7C0A33
S2140046005917B7D1D34D62101F85EB51898888881A
S214004610CDCCCCCCB5814E1BF119760580B582B0D9
S21400462000AF0346FB80FB88092204491846044B6A
S2140046309847034618460837BD4680BD000E270734
S214004640D94400000000000080B483B000AF78605A
S214004650396000BFAFF300800139FDD800BF0C37CA
S214004660BD465DF8047B704780B483B000AF7860C9
S2140046700B467B807B681B889AB27B881B029BB2AA
S21400468003F470639BB213439AB27B681A8000BF30
S2140046900C37BD465DF8047B704780B485B000AF2C
S2140046A0F8600B467A60FB72FB7AFA7AF968D201F8
S2140046B00A442C3211687A680A43F968DB010B4415
S2140046C02C331A6000BF1437BD465DF8047B704774
S2140046D080B500AF002200210A480B4B9847002205
S2140046E001210848084B98474EF6EF72022105480C
S2140046F0054B9847002203210248034B984700BF0A
S21400470080BD00BF008000419B46000080B500AF22
S21400471004210B480B4B98470B4B98470B4B98477D
S2140047200B4B98474FF484600A4B98470A4B9847C0
S21400473040F6DF30074B9847084B984700BF80BDD0
S214004740004000416946000035520000FD5600005A
S21400475055510000FD4F00003D570000D1460000B7
S21400476080B483B000AF786039607B683A681A60BE
S214004770002318460C37BD465DF8047B70470000E2
S21400478080B483B000AF0346FB80B7F90630002B39
S2140047900BDB0949B7F906305B09FA8802F01F02FD
S2140047A0012000FA02F241F8232000BF0C37BD4674
S2140047B05DF8047B704700BF00E100E080B483B082
S2140047C000AF0346FB80B7F90630002B10DB0B4921
S2140047D0B7F906305B09FA8802F01F02012000FADA
S2140047E002F2203341F82320BFF34F8FBFF36F8FC1
S2140047F000BF0C37BD465DF8047B704700E100E063
S21400480080B483B000AF0346FB80B7F90630002BB8
S2140048100CDB0949B7F906305B09FA8802F01F027B
S214004820012000FA02F2603341F8232000BF0C3763
S214004830BD465DF8047B704700E100E080B483B0BD
S21400484000AF7860396000BF7B685A683B681340E9
S214004850002BF9D100BF0C37BD465DF8047B7047CE
S21400486080B483B000AF786039607B685A683B6874
S2140048701340002B14BF01230023DBB218460C376D
S214004880BD465DF8047B704780B483B000AF7860A7
S2140048907B685B6918460C37BD465DF8047B70473D
S2140048A080B483B000AF786039607B683A685A613C
S2140048B000BF0C37BD465DF8047B704780B483B0FC
S2140048C000AF786039607B683A681A6100BF0C37C1
S2140048D0BD465DF8047B704780B483B000AF786057
S2140048E039607B683A68DA6000BF0C37BD465DF811
S2140048F0047B704780B582B000AF78607B681B7819
S214004900DBB243F00203DAB27B681A7003217868E0
S214004910024B984700BF0837BD4680BD3D480000A3
S21400492080B582B000AF78607B681B78DBB223F07E
S2140049300203DAB27B681A7003217868024B984744
S21400494000BF0837BD4680BD3D48000080B584B036
S21400495000AF78600B46FB707B681B78FB73FB7BB5
S21400496023F01003FB73FB781B015AB297F90F3044
S21400497013435BB2FB737B68FA7B1A70032178687B
S214004980024B984700BF1037BD4680BD3D4800002B
S21400499080B584B000AF78600B46FB700321786862
S2140049A0064B98477B681B78FB73FA7BFB781340B3
S2140049B0FB73FB7B18461037BD4680BD3D480000A4
S2140049C080B582B000AF78600B46FB707B68FA78E3
S2140049D01A7003217868034B984700BF0837BD4616
S2140049E080BD00BF3D48000080B483B000AF786053
S2140049F00B46FB707B68FA785A7000BF0C37BD46D2
S214004A005DF8047B704780B483B000AF786039608F
S214004A107B683A689A6000BF0C37BD465DF8047B39
S214004A20704780B483B000AF786039607B683A68BE
S214004A309A6100BF0C37BD465DF8047B704780B4B2
S214004A4085B000AFF8600B467A60FB72FB7AFA68B6
S214004A5006339B0013447A685A6000BF1437BD467D
S214004A605DF8047B704780B483B000AF786039602F
S214004A707B683A681A6300BF0C37BD465DF8047B56
S214004A80704780B483B000AF786039607B683A685E
S214004A905A6300BF0C37BD465DF8047B70470000C4
S214004AA080B582B000AF786001214F484F4B9847E1
S214004AB0034683F00103DBB2002B11D002214A48E3
S214004AC04B4B98470346002B06D04748494B984720
S214004AD002214548484B984701214348474B984791
S214004AE001214148444B984700213F48444B984792
S214004AF000213D48434B984700213B48424B98478E
S214004B0040F2BB313848414B984740F23B3136487B
S214004B103F4B9847002134483E4B98473E4A002179
S214004B2031483E4B9847112201212F483B4B98476E
S214004B302D483B4B98470C203A4B98470C203A4B55
S214004B4098470C20394B98470D20364B98470D2038
S214004B50354B98470D20354B98470F20314B9847DB
S214004B600F20314B98470F20304B984710202D4B85
S214004B70984710202C4B984710202C4B9847112014
S214004B80284B98471120284B98471120274B9847C9
S214004B901220244B98471220234B98471220234B71
S214004BA0984713201F4B984713201F4B98471320F6
S214004BB01E4B984714201B4B984714201A4B9847B7
S214004BC014201A4B98471520164B98471520164B5D
S214004BD098471520154B9847154A7B6813600023A5
S214004BE018460837BD4680BD0028004061480000D2
S214004BF091490000214900003D480000C1490000DD
S214004C004D490000E9490000074A0000234A000019
S214004C10674A0000834A0000139099903F4A0000BC
S214004C20F5480000BD47000001480000814700002D
S214004C30AC21002080B584B000AF78600B46FB70D6
S214004C40FF23FB730023BB7310E0BB7B1C4ADB0017
S214004C5013445A687B689A4205D1BB7B184A12F8FF
S214004C603330FB7305E0BB7B0133BB73BB7B082B88
S214004C70EBD9FB7BFF2B02D14FF0FF331CE0FB7818
S214004C80002B08D0FB7B012202FA03F319460D48DD
S214004C900D4B98470FE0FB7B012202FA03F31946FF
S214004CA008480A4B9847FB7B012202FA03F3194691
S214004CB00448074B9847002318461037BD4680BD6A
S214004CC06C08010000280040BD480000D9480000DC
S214004CD0A148000080B584B000AF4148414B9847DA
S214004CE003463B604FF0FF33BB603B6819463C48C9
S214004CF03D4B98473D4B1B68002B14BF01230023F8
S214004D00DBB24FF484723A4918463A4B984760E053
S214004D103B681846384B98470346DBB2013BDBB28C
S214004D20FB7347E00023FB710923BB7124E0BA79CB
S214004D30FB7913445B107B717B79304A12F8333071
S214004D401A4697F90F309A4206D17B792B4ADB0038
S214004D5013445B68BB6013E07B79284A12F8333053
S214004D601A4697F90F309A4203DA7B790133FB71C2
S214004D7002E07B79013BBB71BA79FB799A42D6D2C5
S214004D80BB68B3F1FF3F03D0184B1B68B868984761
S214004D9097F90F30012202FA03F3DA433B68134017
S214004DA03B603B681846144B98470346DBB2013B12
S214004DB0DBB2FB7397F90F30B3F1FF3FB2D108486F
S214004DC0084B984703463B603B6819460448064B29
S214004DD098473B68002B9BD100BF1037BD4680BD6F
S214004DE00028004089480000A1480000AC210020AF
S214004DF0B4080100013B0000A10201006C0801009C
S214004E0080B500AF014B984700BF80BDD54C000071
S214004E1080B500AF014B984700BF80BDD54C000061
S214004E2080B500AF014B984700BF80BDD54C000051
S214004E3080B500AF014B984700BF80BDD54C000041
S214004E4080B500AF014B984700BF80BDD54C000031
S214004E5080B500AF014B984700BF80BDD54C000021
S214004E6080B500AF014B984700BF80BDD54C000011
S214004E7080B500AF014B984700BF80BDD54C000001
S214004E8080B500AF014B984700BF80BDD54C0000F1
S214004E9080B485B000AFF8600B467A60FB72FA7A91
S214004EA0FB684832796843F8221000BF1437BD46C5
S214004EB05DF8047B704780B483B000AF78600B4623
S214004EC0FB701346BB70FB787A680433DB00134430
S214004ED0BA785A71FB78BA78D243D1B27A6804337A
S214004EE0DB0013440A461A7100BF0C37BD465DF856
S214004EF0047B704780B485B000AFF8600B467A60DC
S214004F00FB72FA7AFB680432796843F8321000BF05
S214004F101437BD465DF8047B7047000080B582B04C
S214004F2000AF0023FB710BE0FB79184AD35C1A46EE
S214004F30FB7919461648174B9847FB790133FB71E6
S214004F40FB79422BF0D90023FB7116E0FB79124A5D
S214004F5032F813301A46FB7919460D480F4B98471E
S214004F60FB790F4A52F82330DAB2FB791946084823
S214004F700C4B9847FB790133FB71FB791F2BE5D966
S214004F80002318460837BD4680BD00BFCC08010088
S214004F9000E00041914E000010090100F54E0000AF
S214004FA050090100B74E000080B483B000AF7860AF
S214004FB0396000BF7B685A683B681340002BF9D104
S214004FC000BF0C37BD465DF8047B704780B584B0E3
S214004FD000AFF8600B467A60FB72FA7AFB6808321C
S214004FE0796843F8221043F6FD71F868024B98473B
S214004FF000BF1037BD4680BDA94F000080B582B007
S21400500000AF78607B6803F00103002B04D03B4AB6
S21400501000213B483B4B98477B6803F00203002B7C
S21400502004D0394A01213648364B98477B6803F04E
S2140050300403002B04D0354A02213148314B9847EF
S2140050407B6803F00803002B04D0314A03212C4868
S2140050502C4B98477B6803F01003002B04D02D4A96
S21400506004212748274B98477B6803F02003002B32
S21400507004D0294A05212248224B98477B6803F032
S2140050804003002B04D0254A06211D481D4B984797
S2140050907B6803F08003002B04D0214A07211848C0
S2140050A0184B98477B6803F48073002B04D01D4A86
S2140050B008211348134B98477B6803F40073002BB2
S2140050C004D0194A09210E480E4B98477B6803F412
S2140050D08063002B04D0154A0A210948094B9847DB
S2140050E07B6803F40063002B04D0114A0B210448AC
S2140050F0044B984700BF0837BD4680BD0701010036
S214005100001C0040CD4F0000070901000609010001
S21400511008090200010901000129060001290C0006
S21400512008290800012903000819010005090100E3
S2140051300519040080B483B000AF78600B46FB709E
S2140051407B68FA785A7100BF0C37BD465DF8047B61
S2140051507047000080B582B000AF054B7B60012130
S2140051607868044B984700BF0837BD4680BD00BF2F
S214005170000800403551000080B483B000AF78606E
S2140051800B46FB707B68FA781A7400BF0C37BD4676
S2140051905DF8047B704780B483B000AF78600B4640
S2140051A07B807B687A889A8200BF0C37BD465DF8A4
S2140051B0047B704780B483B000AF78600B46FB700A
S2140051C07B68FA789A7500BF0C37BD465DF8047B9D
S2140051D0704780B483B000AF78600B46FB707B6886
S2140051E0FA78DA7500BF0C37BD465DF8047B704769
S2140051F080B485B000AF78607B68DB69FB60FB68D5
S2140052001B0A03F03F03FB60FB6818461437BD46D5
S2140052105DF8047B704780B483B000AF7860396077
S2140052207B683A68DA6100BF0C37BD465DF8047BE0
S2140052307047000080B582B000AF134B7B60002340
S2140052407B8042F28E017868104B98470021786880
S2140052500F4B9847002178680E4B984778680E4B9E
S214005260984703467B807B881B0203F47C531946D1
S21400527078680A4B984700217868094B984700BF22
S2140052800837BD4680BD00BF00140040975100009F
S214005290B5510000D3510000F15100001752000034
S2140052A07951000080B483B000AF7860396000BFE9
S2140052B07B685A683B681340002BF9D100BF0C3757
S2140052C0BD465DF8047B704780B483B000AF78605D
S2140052D07B685B689B0803F00103002B14BF012367
S2140052E00023DBB218460C37BD465DF8047B7047DA
S2140052F080B483B000AF78607B685B6818460C3774
S214005300BD465DF8047B704780B586B000AFF86098
S2140053100B467A60FB72FA7AFB68083253F8223042
S2140053207B617B6923F00F037B617B6803F00F03CF
S2140053307A6913437B61FA7AFB680832796943F825
S214005340221043F6FD71F868024B984700BF1837E5
S214005350BD4680BDA552000080B485B000AFF860A1
S2140053600B467A60FB72FA7AFB682032796843F85B
S214005370221000BF1437BD465DF8047B704780B42A
S21400538085B000AFF8600B467A60FB7200BFFA7A11
S214005390F96813469B0013449B000B443C331A6881
S2140053A07B681340002BF2D100BF1437BD465DF872
S2140053B0047B704780B483B000AF78600B46FB7008
S2140053C0FA78796813469B0013449B000B444033DD
S2140053D01B6803F00103002B14BF01230023DBB27C
S2140053E018460C37BD465DF8047B704780B483B022
S2140053F000AF78600B46FB70FA78796813469B001E
S21400540013449B000B4440331B685B0803F0010306
S214005410002B14BF01230023DBB218460C37BD4611
S2140054205DF8047B7047000080B582B000AF7860FE
S2140054300B46FB701346BB70FA78796813469B00E0
S21400544013449B000B443033BA781A70FB78022260
S21400545019467868024B984700BF0837BD4680BD9E
S2140054607F53000080B584B000AFF8600B467A60CA
S214005470FB72FA7AF96813469B0013449B000B44B0
S21400548034337A681A60FB7A06221946F868034BAA
S214005490984700BF1037BD4680BD00BF7F53000051
S2140054A080B485B000AFF8600B467A60FB72FA7A7B
S2140054B0F96813469B0013449B000B4438337A6804
S2140054C01A6000BF1437BD465DF8047B704780B491
S2140054D083B000AF78607B681B695B0803F001034C
S2140054E0002B14BF01230023DBB218460C37BD4641
S2140054F05DF8047B704780B483B000AF78607B684B
S2140055001B691B0A03F00103002B14BF01230023B1
S214005510DBB218460C37BD465DF8047B704780B496
S21400552085B000AF786039607B681B69FB60FA68FD
S2140055303B681340FB60FB6818461437BD465DF8B1
S214005540047B704780B485B000AFF8600B467A6085
S214005550FB72FB7AFA6804339B0013447A685A603D
S21400556000BF1437BD465DF8047B704780B483B037
S21400557000AF78600B46FB707B68FA781A7700BF3E
S2140055800C37BD465DF8047B704780B485B000AF2D
S21400559078607B6893F82030FB73FB7B03F0010395
S2140055A0FB73FB7B002B14BF01230023DBB21846E2
S2140055B01437BD465DF8047B704780B483B000AFF7
S2140055C078600B46FB707B68FA7883F8202000BF73
S2140055D00C37BD465DF8047B704780B483B000AFDF
S2140055E0786039607B683A685A6200BF0C37BD46FF
S2140055F05DF8047B704780B483B000AF78607B684A
S2140056005B6A18460C37BD465DF8047B704780B46D
S21400561083B000AF786039607B683A689A6200BFF2
S2140056200C37BD465DF8047B704780B485B000AF8C
S21400563078607B6893F82C30FB73FB7B5B08DBB2EF
S21400564003F00103FB73FB7B002B14BF0123002335
S214005650DBB218461437BD465DF8047B704780B44D
S21400566085B000AF78607B6893F82C30FB73FB7BCB
S2140056709B08DBB203F00103FB73FB7B002B14BF1C
S21400568001230023DBB218461437BD465DF8047BC1
S214005690704780B485B000AF78607B6893F82C3094
S2140056A0FB73FB7BDB08DBB203F00103FB73FB7BC6
S2140056B0002B14BF01230023DBB218461437BD4667
S2140056C05DF8047B704780B485B000AF78607B6877
S2140056D093F82C30FB73FB7B1B09DBB203F0010352
S2140056E0FB73FB7B002B14BF01230023DBB21846A1
S2140056F01437BD465DF8047B7047000080B582B065
S21400570000AF0A4B7B600A4A01217868094B98472C
S21400571000BF7868084B9847034683F00103DBB266
S214005720002BF6D100BF0837BD4680BD00100040F4
S2140057304626000345550000CF54000080B584B0CF
S21400574000AF6B4BFB60042200216A486A4B984707
S21400575000BF6848694B98470346002BF9D10021E3
S214005760F868674B98476749F868674B984700BFE3
S214005770F868664B98470346002BF9D10021F86875
S214005780634B984700BFF868624B98470346002B68
S214005790F9D10223FB72FB7A1946F868584B9847F2
S2140057A000BFF8685C4B98470346002BF9D1F868B1
S2140057B05A4B984703461946F868594B984700BF16
S2140057C0F868584B98470346002BF9D11923FB720B
S2140057D0FB7A1946F8684E4B984700BFF8684D4B61
S2140057E098470346002BF9D14522012141484E4BEC
S2140057F098473B220021F8684C4B98474FF40162CB
S2140058000021F8684A4B984742220021F868494B25
S2140058109847494A0121F868444B98474FF4036279
S2140058200121F868424B984702220121F868414B53
S2140058309847F868414B98470346002B0CD04FF426
S21400584010637B6000BF7968F8683D4B9847024656
S2140058507B689A42F7D109E000BFF868394B984751
S214005860034683F00103DBB2002BF6D100BF002114
S214005870F868354B9847034683F00103DBB2002BEC
S21400588009D00021F868314B9847034683F001039E
S214005890DBB2002BEBD100BF0121F8682A4B9847FA
S2140058A0034683F00103DBB2002B09D00121F86820
S2140058B0264B9847034683F00103DBB2002BEBD15F
S2140058C000BF0C48224B98470346002BF9D107220D
