:10000000A850012065070000E9070000E90700008B
:10001000E9070000E9070000E90700000000000010
:10002000000000000000000000000000E9070000E0
:10003000E907000000000000E9070000E9070000F0
:10004000E9070000E9070000E9070000E9070000F0
:10005000E9070000E9070000E9070000E9070000E0
:10006000E9070000E9070000E90700003964000023
:1000700029520000E9070000E9070000E907000035
:1000800039520000495200005952000069520000E4
:10009000E9070000E9070000E9070000E9070000A0
:1000A000E9070000E9070000E9070000E907000090
:1000B000E9070000E9070000E9070000E907000080
:1000C000E9070000E9070000E9070000E907000070
:1000D000E9070000E9070000E9070000E907000060
:1000E000E9070000E9070000000000000000000030
:1000F00000000000E9070000E9070000E907000030
:10010000E9070000E9070000E9070000E90700002F
:10011000E9070000E9070000E9070000E90700001F
:10012000E9070000E9070000E9070000E90700000F
:10013000E9070000E907000035760000517600006D
:100140006D76000089760000A5760000C17600007B
:10015000DD760000F9760000E9070000E9070000FD
:10016000E9070000E907000015770000317700007B
:100170004D77000069770000E9070000C1460000E4
:10018000F1B0000001B1000011B1000021B1000088
:10019000E9070000E9070000E9070000E90700009F
:1001A000E9070000E9070000E9070000E90700008F
:1001B000E9070000E9070000E9070000E90700007F
:1001C000E9070000E9070000E9070000E90700006F
:1001D000E9070000E9070000E9070000E90700005F
:1001E000E9070000E9070000E9070000BD870000FB
:1001F000D9870000F5870000118800002D880000D5
:1002000049880000E907000065880000E907000050
:10021000E9070000E9070000E9070000E90700001E
:10022000E9070000E9070000E9070000E90700000E
:10023000E9070000E9070000E9070000E9070000FE
:10024000E9070000E9070000E9070000E9070000EE
:10025000E9070000E9070000E9070000E9070000DE
:10026000E907000010B5054C237833B9044B13B1EE
:100270000448AFF300800123237010BD78050020EF
:1002800000000000942201000C4B43B10C480D49C2
:1002900010B5AFF300800C48036823B910BD0A48BD
:1002A000036833B97047094B002BF7D0BDE8104005
:1002B0001847064B002BF5D0184700BF0000000080
:1002C000942201007C05002094220100000000001F
:1002D00080B483B000AF786039607B683A681A6098
:1002E0007B6818460C37BD4680BC704780B483B02D
:1002F00000AF78607B68044A1A617B6818460C3747
:10030000BD4680BC704700BF4029002080B483B048
:1003100000AF78607B6818460C37BD4680BC7047DC
:1003200080B582B000AF7860396039687868034B77
:1003300098477B6818460837BD4680BD0DEC000025
:1003400080B582B000AF786039607B68012B0CD13A
:100350003B684FF6FF72934207D10648064B984719
:10036000064A07490348074B984700BF0837BD4670
:1003700080BD00BF94050020ED02000000000020B9
:100380000D030000F5F1000080B500AF4FF6FF71DE
:100390000120014B984780BD4103000080B582B029
:1003A00000AF78607B681846094B98477B68094A1C
:1003B00011461846084B9847084A7B681A60074A56
:1003C0007B681A607B6818460837BD4680BD00BF51
:1003D000C9D60000E8100100F5D80000D0100100D7
:1003E00080B582B000AF78600A4A7B681A60094A1B
:1003F0007B681A607B68084A11461846074B984785
:100400007B681846064B98477B6818460837BD46F8
:1004100080BD00BFD0100100E8100100CDD9000060
:10042000E9D6000080B582B000AF78607868064BEE
:1004300098474FF444717868044B98477B68184696
:100440000837BD4680BD00BFE103000001F2000097
:1004500080B582B000AF786039607B68012B14D121
:100460003B684FF6FF7293420FD10A480A4B9847F8
:100470000A4A0B4907480B4B98470B48064B9847CD
:10048000064A07490848074B984700BF0837BD464A
:1004900080BD00BFE00600209D030000000000209A
:1004A000E1030000F5F10000F009002080B500AF85
:1004B0004FF6FF710120014B984780BD51040000A9
:1004C00080B483B000AF78607B6818460C37BD46B7
:1004D00080BC704780B483B000AF78607B681846FA
:1004E0000C37BD4680BC704780B582B000AF7860E5
:1004F00039607B68012B0CD13B684FF6FF72934249
:1005000007D10648064B9847064A07490348074B58
:10051000984700BF0837BD4680BD00BF040D0020CE
:10052000C104000000000020D5040000F5F1000027
:1005300080B500AF4FF6FF710120014B984780BD99
:10054000E904000080B483B000AF7860144A7B688F
:100550001A607B6800229A627B680022DA627B68FC
:1005600000221A637B684FF00002DA637B68002286
:100570001A657B6800229A647B6800225A657B6852
:100580000022DA65074B1A687B681A667B68064AA0
:100590005A607B6818460C37BD4680BC704700BF68
:1005A000541101004C210100BEBAFECA80B483B0D0
:1005B00000AF7860044A7B681A607B6818460C3785
:1005C000BD4680BC704700BF5411010080B483B0A9
:1005D00000AF78607B6818460C37BD4680BC70471A
:1005E00080B483B000AF78607B6818460C37BD4696
:1005F00080BC704780B582B000AF78607B681846D9
:10060000064B98477B6803F537731846044B9847A9
:100610007B6818460837BD4680BD00BF89E00000F2
:100620004506000080B582B000AF78607B68184650
:10063000034B98477B6818460837BD4680BD00BF0E
:10064000C5E0000080B582B000AF78607B684FF4F1
:10065000007200211846054B98477868044B98476C
:100660007B6818460837BD4680BD00BF150E0100E7
:100670007506000080B483B000AF78607B6800220C
:10068000C3F800227B680022C3F8042200BF0C37A5
:10069000BD4680BC7047000080B582B000AF786076
:1006A0007B68A8331846074B98477B681846064B6B
:1006B0009847064A7B681A607B6818460837BD462B
:1006C00080BD00BFEF07000039E1000060110100AC
:1006D00080B582B000AF7860084A7B681A607B689A
:1006E0001846074B98477B68A8331846054B984730
:1006F0007B6818460837BD4680BD00BF6011010009
:10070000A9E100000308000080B582B000AF786066
:1007100039607B68012B0CD13B684FF6FF72934226
:1007200007D10648064B9847064A07490348074B36
:10073000984700BF0837BD4680BD00BF080D0020A8
:100740009906000000000020D1060000F5F100002D
:1007500080B500AF4FF6FF710120014B984780BD77
:100760000907000080B582B000AF164B7B60164BC6
:100770003B607A683B689A420CD007E03B681A1DE0
:100780003A607A68111D796012681A603B680F4AF6
:100790009342F3D30E4B3B6004E03B681A1D3A6072
:1007A00000221A603B680B4A9342F6D30A4B7B60E7
:1007B0000A4A7B6823F07F039360094B9847094BF3
:1007C0009847FEE7942201000000002074050020F5
:1007D00078050020A85000200000000000ED00E097
:1007E000910C01002109000080B400AFFEE780B445
:1007F00083B000AF78607B6818460C37BD4680BC7C
:10080000704780B483B000AF78607B6818460C37BF
:10081000BD4680BC704780B483B000AF78607B6811
:1008200018460C37BD4680BC704780B483B000AF1B
:1008300078607B6818460C37BD4680BC7047000066
:1008400080B582B000AF786039607B68012B0CD135
:100850003B684FF6FF72934207D10648064B984714
:10086000064A07490348074B984700BF0837BD466B
:1008700080BD00BFC00D0020170800000000002050
:100880002B080000F5F1000080B500AF4FF6FF71B6
:100890000120014B984780BD4108000080B483B01F
:1008A00000AF78607B6818460C37BD4680BC704747
:1008B00080B483B000AF78607B6818460C37BD46C3
:1008C00080BC704780B582B000AF786039607B68CB
:1008D000012B0CD13B684FF6FF72934207D10648BB
:1008E000064B9847064A07490348074B984700BFFD
:1008F0000837BD4680BD00BFC40D00209D08000024
:1009000000000020B1080000F5F1000080B500AF44
:100910004FF6FF710120014B984780BDC5080000CC
:1009200080B582B000AF174B98471748174B9847D0
:100930006420174B9847144B5B7CDBB283F00103B8
:10094000DBB2002B00D0F6E70F4B1B7CDBB2002B99
:10095000FAD010490C48104B984703460D491846E9
:100960000D4B984703460D4918460D4B98470346D3
:1009700008491846084B98474FF47A70044B98473B
:10098000E2E700BF750D0000944C0020FDE7000079
:1009900029260000AC11010021030000E411010030
:1009A000A509000080B582B000AF78603960396871
:1009B0007868034B98477B6818460837BD4680BD6A
:1009C0000DEC000080B582B000AF78607B681846FF
:1009D000034B98477B6818460837BD4680BD00BF6B
:1009E000E105000080B582B000AF78607B681846F2
:1009F000174B98477B6803F2EC431846154B984712
:100A00007B6803F5D3631846134B98477B6803F55F
:100A1000D5631846114B98477B6803F264731846F8
:100A20000F4B98477B680022C3F898297B68002207
:100A3000C3F884297B684FF40072C3F89C297B6853
:100A40000022C3F8A0297B6818460837BD4680BD40
:100A5000F5050000BD0B0000EF070000110B0000C2
:100A60004506000080B582B000AF78607B6803F572
:100A7000D56318460B4B98477B6803F5D36318463C
:100A8000094B98477B6803F2EC431846074B98479D
:100A90007B681846064B98477B6818460837BD4662
:100AA00080BD00BF250B000003080000C509000041
:100AB0002506000080B582B000AF786039607B68A1
:100AC000012B0CD13B684FF6FF72934207D10648C9
:100AD000064B9847064A07490348074B984700BF0B
:100AE0000837BD4680BD00BF4C0E0020E509000060
:100AF00000000020650A0000F5F1000080B500AF9D
:100B00004FF6FF710120014B984780BDB50A0000E8
:100B100080B483B000AF78607B6818460C37BD4660
:100B200080BC704780B483B000AF78607B681846A3
:100B30000C37BD4680BC704780B483B000AF78608E
:100B40007B6818460C37BD4680BC704780B483B0C4
:100B500000AF78607B6818460C37BD4680BC704794
:100B600080B582B000AF786039607B68012B0CD112
:100B70003B684FF6FF72934207D10648064B9847F1
:100B8000064A07490348074B984700BF0837BD4648
:100B900080BD00BF40290020390B0000000000206C
:100BA0004D0B0000F5F1000080B500AF4FF6FF716E
:100BB0000120014B984780BD610B000080B582B0D9
:100BC00000AF78607B681846054B98477B68002229
:100BD00083F8A8217B6818460837BD4680BD00BF52
:100BE000CD05000080B582B000AF78607B684FF61D
:100BF000FF721A807B684FF6FF725A807B68002272
:100C00005A607B68083300211846054B98477B687B
:100C10000022DA607B6818460837BD4680BD00BFF9
:100C2000D102000090B583B000AF786039603B68B6
:100C3000002B01D100230CE07B681B6804331C6887
:100C40003868064B984703461A4639687868A047C3
:100C5000034618460C37BD4690BD00BFC10E0100CB
:100C600080B582B000AF78607B6818460D4B98471E
:100C70007B6803F5357318460B4B98470B4A7B6826
:100C80001A600B4B00225A607A687B6802F570701C
:100C900004337C221946074B98477B68184608376F
:100CA000BD4680BD450500009D080000C41201003E
:100CB0001C480020E10C010080B582B000AF7860D4
:100CC000084A7B681A607B6803F535731846064B43
:100CD00098477B681846054B98477B681846083745
:100CE000BD4680BDC4120100B1080000AD05000082
:100CF00080B582B000AF786039607B683A6803F5F0
:100D0000707311467C221846024B984700BF083783
:100D1000BD4680BDE10C010080B582B000AF7860B7
:100D200039607B68012B0CD13B684FF6FF72934210
:100D300007D10648064B9847064A07490348074B20
:100D4000984700BF0837BD4680BD00BF542900202A
:100D5000610C000000000020B90C0000F5F100005B
:100D600080B500AF4FF6FF710120014B984780BD61
:100D7000190D000080B500AF034B9847034B98470F
:100D8000034B984700BF80BD35200000F5B7000039
:100D900089B7000080B485B000AFF8600B467A6078
:100DA000FB72FA7AFB682032796843F8221000BFA0
:100DB0001437BD465DF8047B704780B483B000AF44
:100DC00078607B681B6943F480627B681A6100BFAE
:100DD0000C37BD465DF8047B704780B483B000AF2C
:100DE00078607B681B6943F400527B681A6100BF1E
:100DF0000C37BD465DF8047B704780B483B000AF0C
:100E000078607B681B6943F480227B681A6100BFAD
:100E10000C37BD465DF8047B704780B483B000AFEB
:100E200078607B681B6943F400127B681A6100BF1D
:100E30000C37BD465DF8047B704780B483B000AFCB
:100E400078607B685B6943F480727B685A6100BF9D
:100E50000C37BD465DF8047B704780B483B000AFAB
:100E600078607B685B6943F400727B685A6100BFFD
:100E70000C37BD465DF8047B704780B483B000AF8B
:100E800078607B685B6943F480627B685A6100BF6D
:100E90000C37BD465DF8047B704780B483B000AF6B
:100EA00078607B685B6943F480527B685A6100BF5D
:100EB0000C37BD465DF8047B704780B483B000AF4B
:100EC00078607B685B6943F400527B685A6100BFBD
:100ED0000C37BD465DF8047B704780B483B000AF2B
:100EE00078607B685B6943F480427B685A6100BF2D
:100EF0000C37BD465DF8047B704780B483B000AF0B
:100F000078607B685B6943F400427B685A6100BF8C
:100F10000C37BD465DF8047B704780B483B000AFEA
:100F200078607B689B6943F001027B689A6100BF2F
:100F30000C37BD465DF8047B704780B483B000AFCA
:100F400078607B689B6943F002027B689A6100BF0E
:100F50000C37BD465DF8047B704780B483B000AFAA
:100F600078607B689B6943F080027B689A6100BF70
:100F70000C37BD465DF8047B704780B483B000AF8A
:100F800078607B689B6943F400527B689A6100BF7C
:100F90000C37BD465DF8047B704780B483B000AF6A
:100FA00078607B689B6943F480427B689A6100BFEC
:100FB0000C37BD465DF8047B704780B483B000AF4A
:100FC00078607B68DB6943F020027B68DA6100BFF0
:100FD0000C37BD465DF8047B704780B483B000AF2A
:100FE00078607B68DB6943F040027B68DA6100BFB0
:100FF0000C37BD465DF8047B704780B483B000AF0A
:1010000078607B68DB6943F400527B68DA6100BF7B
:101010000C37BD465DF8047B704780B483B000AFE9
:1010200078607B681B6A43F001027B681A6200BF2C
:101030000C37BD465DF8047B704780B483B000AFC9
:1010400078607B681B6A43F002027B681A6200BF0B
:101050000C37BD465DF8047B704780B483B000AFA9
:1010600078607B681B6A43F008027B681A6200BFE5
:101070000C37BD465DF8047B704780B483B000AF89
:1010800078607B681B6A43F040027B681A6200BF8D
:101090000C37BD465DF8047B704780B485B000AF67
:1010A000F8600B467A60FB72FB7AFA68DB01134446
:1010B00008337A681A6000BF1437BD465DF8047BB8
:1010C000704780B485B000AFF8600B467A60FB7261
:1010D000FB7AFA68DB01134404337A681A6000BFB4
:1010E0001437BD465DF8047B704780B485B000AF0F
:1010F000F8600B467A60FB72FB7AFA68DB011344F6
:1011000018337A681A6000BF1437BD465DF8047B57
:10111000704780B485B000AFF8600B467A60FB7210
:10112000FB7AFA68DB01134414337A681A6000BF53
:101130001437BD465DF8047B704780B485B000AFBE
:101140007860084611461A460346FB700B46BB7092
:1011500013467B70FA78BB787968D2010A4413444D
:1011600030331B78FB73FB7B23F00F03FB737B781F
:1011700003F00F03DAB2FB7B1343FB73FA78BB78FF
:101180007968D2010A4413443033FA7B1A7000BFE5
:101190001437BD465DF8047B704780B485B000AF5E
:1011A0007860084611461A460346FB700B46BB7032
:1011B00013467B70FA78BB787968D2010A441344ED
:1011C00030331B78FB73FB7B03F00F03FB737B78DF
:1011D0001B01DAB2FB7B1343FB73FA78BB787968A7
:1011E000D2010A4413443033FA7B1A7000BF14371B
:1011F000BD465DF8047B704780B485B000AF786071
:10120000084611461A460346FB700B46BB70134650
:101210007B70FA78BB787968D2010A441344403372
:101220001B78FB73FB7B23F00103FB737A78FB7B5A
:101230001343FB73FA78BB787968D2010A441344EC
:101240004033FA7B1A7000BF1437BD465DF8047B4B
:10125000704790B482B000AF78600B46FB701346C5
:10126000BB70FA78BB78F878B9787C68C001204404
:10127000014440310978C9B241F00401C8B279682B
:10128000D2010A441344403302461A7000BF0837A3
:10129000BD4690BC704790B482B000AF78600B46FA
:1012A000FB701346BB70FA78BB78F878B9787C6825
:1012B000C0012044014440310978C9B221F0040141
:1012C000C8B27968D2010A441344403302461A7006
:1012D00000BF0837BD4690BC704780B485B000AFF2
:1012E000F8600B467A60FB72FB7AFA68DB01134404
:1012F00028337A681A6000BF1437BD465DF8047B56
:101300007047000080B582B000AF03463960FB71C2
:101310001346BB71BB79012B1CD0022B37D0002B9D
:101320004ED1FB793A6819462A482B4B98473B68BF
:101330009BB243F08042FB7919462648274B9847D9
:101340003B681B0C43F04042FB7919462148234B74
:1013500098473AE0FB793A6819461E481E4B984771
:101360003B689BB243F0804343F40033F9791A465B
:1013700018481A4B98473B681B0C43F0404343F412
:101380000033F9791A461348144B98471DE0FB794E
:101390003A6819460F48124B98473B689BB243F096
:1013A0008042FB7919460B480C4B98473B681B0C55
:1013B00043F04042FB7919460648084B984704E041
:1013C000462208490020084B984700BF0837BD4611
:1013D00080BD00BF00800041C3100000DB12000090
:1013E0009B100000C8120100793F000080B582B058
:1013F00000AF03463960FB711346BB71BB79002B0C
:1014000006D0FB793A6819460648074B984705E02D
:10141000FB793A6819460348044B984700BF0837E0
:10142000BD4680BD00800041EB100000131100009C
:1014300080B582B000AF0346FB710B46BB7113460B
:101440007B717B79012B0AD0022B1FD0002B34D16A
:10145000BA79FB7919461E481E4B984733E0BB7991
:1014600001229A40FB79194619481B4B9847BA79D3
:10147000FB7919461648194B9847BB7901229A40C7
:10148000FB7919461248164B98471CE0BB7901229C
:101490009A40FB7919460E480F4B9847BA79FB7969
:1014A00019460B480D4B9847BB7901229A40FB79AE
:1014B000194607480B4B984705E089220A49002046
:1014C0000A4B984700BF00BF0837BD4680BD00BF2C
:1014D0000080004197120000C3100000531200006A
:1014E000EB10000013110000C8120100793F00004A
:1014F00090B585B000AF786039607B685B09FB739D
:101500007B68DBB203F01F03BB733B68B3F1FF3FA3
:1015100006D1BA7BF97B00231248134CA0471DE08B
:10152000BA7BF97B01230F480F4CA047BB7B03F02C
:101530000103002B09D0BB7B5B08DAB23B68DBB24E
:10154000F97B0848094CA04708E0BB7B5B08DAB28E
:101550003B68DBB2F97B0348054CA04700BF14375A
:10156000BD4690BD00800041F91100009B110000B4
:101570003B11000080B582B000AF03460A46FB7104
:101580001346BB71FB795B09D8B2FB7903F01F03EB
:10159000DBB2BA791946034B984700BF0837BD46FE
:1015A00080BD00BF3114000080B582B000AF78600C
:1015B000396039687868034B984700BF0837BD46E3
:1015C00080BD00BFF114000080B582B000AF0346BB
:1015D0000A46FB711346BB71FB795B09D8B2FB79F4
:1015E00003F01F03012202FA03F3BA791946034BF1
:1015F000984700BF0837BD4680BD00BF05130000F7
:1016000080B582B000AF03460A46FB711346BB713A
:10161000FB795B09D8B2FB7903F01F03012202FAC0
:1016200003F3BA791946034B984700BF0837BD4604
:1016300080BD00BFED13000080B500AF014B98479F
:1016400000BF80BD814B000080B582B000AF7860E4
:1016500039607B68002B04D03B68002B01D001234C
:1016600000E0002303F00103DBB2482207491846DB
:10167000074B98477B683A681A607B681846054BA9
:101680009847034618460837BD4680BDE41201005E
:10169000793F00002DB2000080B500AF0448054B33
:1016A000984705490548064B984700BF80BD00BFD5
:1016B000000800403B0F000000200041EC4F0020DC
:1016C000A925000080B500AF442204212548264BFF
:1016D00098472648264B984701214020254B98479C
:1016E00000214020244B98474FF480014020234B99
:1016F0009847012104201F4B9847022104201E4BCC
:1017000098474FF4802104201C4B98470121052065
:10171000184B984702210520174B98474FF4A021FA
:101720000520164B984701215620124B984702215D
:101730005620114B98474FF4AC0156200F4B984759
:10174000012157200B4B9847022157200A4B9847FD
:101750004FF4AE015720094B9847094B984700BFFB
:1017600080BD00BF001C0040950D00000008004037
:101770007B0E0000C915000075150000A9150000BA
:101780007126000080B500AF44220B210448054BB0
:1017900098470548054B9847054B984700BF80BDC3
:1017A000001C0040950D0000000800405B0F000089
:1017B0005D26000080B500AF01212B202B4B984700
:1017C00000212B202A4B98472A492B202A4B984747
:1017D00002210820254B984700210820274B9847D5
:1017E00000210820224B984725490820224B984782
:1017F000022109201D4B9847002109201F4B9847C3
:10180000002109201A4B98471E4909201A4B984776
:1018100002210A20154B984700210A20174B9847B0
:1018200000210A20124B984717490A20124B98476B
:1018300002210B200D4B984700210B200F4B98479E
:1018400000210B200A4B984710490B200A4B984760
:1018500001212A20054B984700212A20044B984754
:101860000B492A20044B984700BF80BDC9150000D2
:101870007515000007002B00A915000001160000D7
:10188000070008000700090007000A0007000B0016
:1018900007002A0080B500AF0548064B984704486A
:1018A000054B98470248054B984700BF80BD00BFD5
:1018B00000080040DB0D00001B0E0000FB0F0000C5
:1018C00080B500AF044B984704490548054B98473D
:1018D000054B984700BF80BD9518000000340042BA
:1018E000744E0020152B0000B517000080B500AF26
:1018F0000248034B984700BF80BD00BF000800406E
:101900005B0E000080B500AF034B984703490448C5
:10191000044B984700BF80BDED1800000024004034
:10192000C84F0020FD23000080B500AF00215120EA
:10193000114B984702215120104B984710495120D4
:10194000104B9847002150200B4B98470221502004
:101950000A4B98470C4950200A4B98470121062012
:10196000064B984700210620084B98470849062057
:10197000044B984700BF80BD01160000C915000048
:1019800003005100A9150000030050007515000068
:101990000300060080B500AF402207210648074B30
:1019A0009847432203210448044B98470448054BB9
:1019B000984700BF80BD00BF001C0040950D00008F
:1019C000000800409B0E000080B500AF044B984714
:1019D00004490548054B9847054B984700BF80BD13
:1019E0009519000000300040F84D0020F12F000054
:1019F0002919000080B500AF00211020114B984735
:101A000002211020104B984710491020104B984786
:101A1000002111200B4B9847022111200A4B9847B7
:101A20000C4911200A4B984701211220064B984778
:101A300000211220084B984708491220044B984770
:101A400000BF80BD01160000C91500000200100093
:101A5000A915000002001100751500000200120017
:101A600080B500AF452208210648074B98474A2217
:101A700003210448044B98470448054B984700BF8E
:101A800080BD00BF001C0040950D00000008004014
:101A9000BB0E000080B500AF044B984704490548D1
:101AA000054B9847054B984700BF80BD611A000061
:101AB00000340040E04D0020F12F0000F519000037
:101AC00080B500AF00213B20114B984702213B20FD
:101AD000104B984710493B20104B984700213A2063
:101AE0000B4B984702213A200A4B98470C493A2061
:101AF0000A4B984701213C20064B984700213C2087
:101B0000084B984708493C20044B984700BF80BDCC
:101B100001160000C915000003003B00A9150000D4
:101B200003003A007515000003003C0080B500AFCB
:101B3000402222210648074B9847432203210448AC
:101B4000044B98470448054B984700BF80BD00BF31
:101B5000001C0040950D0000000800401B10000014
:101B600080B500AF054B98474FF086410448054BC0
:101B70009847054B984700BF80BD00BF2D1B000054
:101B8000104E00203D2E0000C11A000080B500AFAD
:101B900000211720074B984707491720074B984704
:101BA00000211620034B984705491620034B984700
:101BB00000BF80BD7515000003001700A9150000C7
:101BC0000300160080B500AF422223210648074BD0
:101BD0009847462203210448044B98470448054B84
:101BE000984700BF80BD00BF001C0040950D00005D
:101BF000000800403B10000080B500AF044B984740
:101C000004490548054B9847054B984700BF80BDE0
:101C1000C51B0000000400432C4F0020D529000004
:101C20008D1B000080B500AF00216820074B98474E
:101C300007496820074B984700216920034B9847C4
:101C400005496920034B984700BF80BD751500000A
:101C500002006800A91500000200690080B500AF0D
:101C6000422225210648074B984743220321044876
:101C7000044B98470448054B984700BF80BD00BF00
:101C8000001C0040950D0000000800405B100000A3
:101C900080B500AF044B984704490548054B984769
:101CA000054B984700BF80BD5D1C0000000C004341
:101CB000884F0020D5290000251C000080B500AF0A
:101CC0000848094B9847432209210848084B984780
:101CD000084B984703461A4607490848084B984757
:101CE00000BF80BD00080040DB0E0000001C00406B
:101CF000950D00009986000000380040104F00202C
:101D0000C131000080B500AF0848094B9847452213
:101D100009210848084B9847084B984703461A463C
:101D200007490848084B984700BF80BD000800409D
:101D3000FB0E0000001C0040950D0000998600007D
:101D4000003C0040784E0020C131000080B500AF5B
:101D50000848094B984744221A210848084B9847DD
:101D6000084B984703461A4607490848084B9847C6
:101D700000BF80BD000800407B0F0000001C004039
:101D8000950D00009986000000A00141F44E00204E
:101D9000C131000080B500AF0848094B9847452283
:101DA0001A210848084B9847084B984703461A469B
:101DB00007490848084B984700BF80BD000800400D
:101DC0009B0F0000001C0040950D0000998600004C
:101DD00000C001416C4F0020C131000080B500AF50
:101DE0000848094B984746221E210848084B984747
:101DF000084B984703461A4607490848084B984736
:101E000000BF80BD00080040BB0F0000001C004068
:101E1000950D00009986000000140042584E0020E5
:101E2000C131000080B500AF0848094B98474622F1
:101E30001E210848084B9847084B984703461A4606
:101E400007490848084B984700BF80BD000800407C
:101E5000DB0F0000001C0040950D0000998600007B
:101E600000180042944E0020C131000080B400AF41
:101E700000BFBD465DF8047B7047000080B500AF31
:101E80000448054B98474B2227210448044B9847A8
:101E900000BF80BD000800407B100000001C004017
:101EA000950D000080B500AF064B9847064B98474C
:101EB000064B984703461A4605490648064B98477D
:101EC00000BF80BD7D1E00006D1E0000A9860000C1
:101ED00000180043B04E0020692A000080B500AF12
:101EE000022118200F4B9847002118200E4B9847CD
:101EF000002118200D4B98470D4918200D4B98478D
:101F000002211920074B984700211920064B9847BA
:101F100000211920054B984707491920054B984780
:101F200000BF80BDC9150000011600007515000036
:101F300007001800A91500000700190080B500AFC0
:101F400042220A210548064B98470648064B984707
:101F50000448064B984700BF80BD00BF001C0040EE
:101F6000950D000000080040BB0D00001B0F000095
:101F700080B500AF034B9847034B9847034B9847F6
:101F800000BF80BD3D1F0000D1390000DD1E0000F4
:101F900080B500AF0248034B984700BF80BD00BF2B
:101FA000000800403B0E000080B500AF034B98478F
:101FB00003490448044B984700BF80BD911F0000AF
:101FC00000200040E84F00204916000080B500AF17
:101FD00004492D20044B984704492C20024B984774
:101FE00000BF80BD07002D00A915000007002C00D0
:101FF00080B500AF0748084B984743221C2107488B
:10200000074B984707490848084B9847084B98479B
:1020100000BF80BD00080040FB0D0000001C004018
:10202000950D000000040042CC4E0020BD240000AD
:10203000CD1F000080B500AF504B984701210F2005
:102040004F4B984702210F204E4B98474FF0FF31DE
:102050000F204D4B984701211320494B98470221EF
:102060001320484B98474FF0FF311320464B9847B9
:1020700001212720434B984702212720434B9847B3
:102080004FF0FF312720404B984701213D203C4B2A
:10209000984702213D203B4B98474FF0FF313D20B0
:1020A000394B984701213F20364B984701213F206B
:1020B000364B98474FF0FF313F20334B9847002174
:1020C0004D202F4B984702214D202E4B98474FF023
:1020D000FF314D202C4B984701214E20284B98472B
:1020E00002214E20274B98474FF0FF314E20264BC0
:1020F000984700214F20224B984702214F20214B27
:1021000098474FF0FF314F201F4B98470021522036
:102110001B4B9847022152201A4B98474FF0FF3132
:102120005220194B98471A4B98471A4B98471A4B0D
:1021300098471A4B98471A4B98471A4B98471A4B8F
:1021400098471A4B98471A4B98471A4B98471A4B7F
:1021500098471A4B98471A4B98471A4B98471A4B6F
:1021600098471A4B98471A4B98471A4B98471A4B5F
:1021700098471A4B984700BF80BD00BF3916000032
:1021800001160000C9150000A91500007515000012
:1021900099160000C516000085170000C118000040
:1021A00005190000C9190000951A0000611B000004
:1021B000F91B0000911C0000BD1C0000051D000063
:1021C0004D1D0000951D0000DD1D0000251E0000B6
:1021D000A51E0000711F0000A91F0000F11F0000D4
:1021E00080B483B000AF0346FB80FB8803F0030399
:1021F000002B01D0002300E0012318460C37BD4618
:102200005DF8047B7047000080B584B000AF786053
:102210000B46FB700023FB607B689BB218462F4B7C
:1022200098470346002B28D0FB78013B0B2B4CD85A
:1022300001A252F823F000BF692200006F220000C3
:10224000692200007522000069220000752200004A
:102250006922000069220000752200006922000046
:1022600075220000692200001D4BFB6030E01D4B11
:10227000FB602DE01C4BFB602AE0FB78013B0B2B45
:1022800025D801A252F823F0B9220000BF22000095
:10229000B9220000C5220000B9220000C5220000BA
:1022A000B9220000B9220000C5220000B9220000B6
:1022B000C5220000B9220000094BFB6008E00B4B6F
:1022C000FB6005E0084BFB6002E000BF00E000BFE0
:1022D000FB6818461037BD4680BD00BFE1210000F5
:1022E00080DE2800803B2600008D270000EA2400C5
:1022F00080B58AB000AFF860B9607A60FB689B690E
:102300003B620123FB770123BB7700237B7700230C
:102310003B77BB687B623B6A9BB21846324B98475F
:102320000346002B01D0314B00E0314BBB617A6A90
:10233000BB699A4207D37A6ABB69D31A7B623B6A4C
:1023400001333B62E7E7FB7F1946386A294B984720
:1023500078617A6A7B699A4207D37A6A7B69D31A71
:102360007B62FB7F0133FB77EDE77B6A224A934276
:1023700009D97B6AA3F5A833A3F5C0737B62BB7F41
:102380000133BB77F1E77B6AB3F5616F07D37B6AF3
:10239000A3F561637B627B7F01337B77F3E77B6A25
:1023A0003B2B06D97B6A3C3B7B623B7F01333B770F
:1023B000F5E700BF3B6A9AB27B68DA807B68FA7FF8
:1023C0005A717B68BA7F1A717B687A7F9A707B68D2
:1023D0003A7F5A707B6ADAB27B681A70002318461B
:1023E0002837BD4680BD00BFE12100000085E20125
:1023F0008033E101092200007F51010080B584B0E3
:1024000000AF786039600023FB607B68002B14BF4D
:1024100001230023DBB24FF4E07211491846114B3F
:1024200098477B681A683B689A4201D1002313E001
:102430007B681B68002B02D06FF011030CE07B68F7
:102440003A681A607B681846074B9847F8607B68C3
:1024500040F2B2729A61FB6818461037BD4680BDE3
:1024600000130100793F0000B162000080B584B024
:1024700000AF786039607B68002B14BF0123002314
:10248000DBB240F23B2209491846094B98477B686A
:102490001846084B9847F8603A68F9687868064B20
:1024A0009847002318461037BD4680BD0013010031
:1024B000793F000069630000F122000080B584B01C
:1024C00000AF786039607B68002B04D03B68002B3C
:1024D00001D0012300E0002303F00103DBB241221D
:1024E0000E4918460E4B98477B68396818460D4BC5
:1024F0009847F860FB68002B01D0FB6809E07B6817
:10250000094A5A607B68094A9A607B68084ADA601F
:10251000002318461037BD4680BD00BF1C130100C4
:10252000793F0000D5440000352500005925000002
:102530007D25000080B584B000AF78607B68FB60CB
:10254000FB68DB69002B03D0FB68DB69F868984700
:1025500000BF1037BD4680BD80B584B000AF786045
:102560007B68FB60FB681B6A002B03D0FB681B6A5F
:10257000F868984700BF1037BD4680BD80B584B06D
:1025800000AF78600B46FB707B68FB60FB685B6AA2
:10259000002B05D0FB685B6AFA781146F86898470B
:1025A00000BF1037BD4680BD80B582B000AF7860F7
:1025B00039607B68002B04D03B68002B01D00123DD
:1025C00000E0002303F00103DBB22B22064918468A
:1025D000064B98477B6839681846054B9847034671
:1025E00018460837BD4680BD38130100793F00000A
:1025F000D54B000090B583B000AF0346FB80074B7E
:102600001C68FB881846064B984703461946204627
:10261000044B984700BF0C37BD4690BDCC2E002020
:102620002D490000C14A000090B583B000AF0346B9
:10263000FB80074B1C68FB881846064B98470346EF
:1026400019462046044B984700BF0C37BD4690BD45
:10265000CC2E0020994A0000C14A000080B500AF8E
:10266000024B98470346184680BD00BF0553000043
:1026700080B582B000AF0023FB800EE0FB880C4ADF
:10268000DB0013444FF0FF325A60FB88084A0021F8
:1026900042F83310FB880133FB80FB88042BEDD913
:1026A0000448054B9847034618460837BD4680BD89
:1026B000D02E002015280000154F000080B586B0F0
:1026C00000AF786039600023FB750023BB750023E1
:1026D0007B7512E0FB7D4D4ADB0013445A687B6832
:1026E0009A4207D1FB7D49493A6841F833200123DA
:1026F0007B7505E0FB7D0133FB75FB7D042BE9D980
:102700003B68002B0ED17B7D83F00103DBB2002BF5
:1027100002D06FF00C0374E0002178683C4B9847BE
:1027200003466EE07B7D83F00103DBB2002B5AD0C1
:102730000023FB7516E0FB7D344A52F83330002B42
:102740000DD1FB7D31493A6841F83320FB7D2F4A9A
:10275000DB0013447A685A6001237B7505E0FB7D3A
:102760000133FB75FB7D042BE5D936E0FB7D274A61
:10277000DB0013445A68BB7D2449DB000B445B68D3
:102780009A4227D2BB7D214ADB0013445B68B3F138
:10279000FF3F1FD0BB7D1D4907F10C02DB000B443E
:1027A00093E8030082E80300BB7DFA7D17481749D0
:1027B000DB000344D2000A4492E8030083E80300EC
:1027C000FB7D124ADB00134407F10C0292E8030080
:1027D00083E80300BB7D0133BB75BB7D042B02D8AE
:1027E000FB7D042BC2D97B7D83F00103DBB2002B80
:1027F00002D06FF00C0304E001217868044B984785
:10280000034618461837BD4680BD00BFD02E0020B5
:102810005D50000080B584B000AF78600023FB738A
:102820000523BB732AE0BA7BFB7B13445B107B73ED
:102830007B7B042B27D87B7B164ADB0013445A682A
:102840007B689A420BD17B7B124A52F83330002BC3
:102850001BD07B7B0F4A52F83330984715E07B7BC7
:102860000C4ADB0013445A687B689A4203D27B7B94
:102870000133FB7302E07B7B013BBB73BA7BFB7BC9
:102880009A42D0D202E000BF00E000BF1037BD4640
:1028900080BD00BFD02E002080B584B000AF78602E
:1028A0007B68FB607B685B889BB203F48073002BC2
:1028B00007D1FB685B6B002B03D0FB685B6BF86890
:1028C000984700BF1037BD4680BD80B584B000AFCB
:1028D00078607B68FB607B685B889BB203F48073E5
:1028E000002B07D1FB689B6B002B03D0FB689B6B15
:1028F000F868984700BF1037BD4680BD80B584B0EA
:1029000000AF786039607B68FB607B685B889BB256
:1029100003F48073002B08D1FB681B6B002B04D0E1
:10292000FB681B6B3968F868984700BF1037BD46D5
:1029300080BD000080B58AB000AFF860B960134672
:10294000FB80FB68283B7B627B6A9B8FBB82FB889A
:10295000BB6148F20103FB82BB68FB617B6A07F144
:10296000140211461846064B984738623B6A002B02
:1029700001D03B6A00E0FB8818462837BD4680BD81
:102980009971000080B58AB000AFF860B960134655
:10299000FB80FB68283B7B627B6A9B8FBB82FB884A
:1029A000BB614FF40043FB82BB68FB617B6A07F1AC
:1029B000140211461846064B984738623B6A002BB2
:1029C00001D03B6A00E0FB8818462837BD4680BD31
:1029D0009971000080B584B000AF786039607B6881
:1029E000002B14BF01230023DBB2892215491846AE
:1029F000154B98477B6839681846144B9847F86020
:102A0000FB68002B01D0FB6818E07B68104ADA6293
:102A10007B68104A9A627B680F4A012118460F4B67
:102A200098477B680E4A022118460C4B98477B68F2
:102A30000C4A00211846094B9847002318461037C6
:102A4000BD4680BD54130100793F0000E96F0000CE
:102A50003529000085290000992800006D720000CA
:102A6000CB280000FD28000080B584B000AFF860DE
:102A7000B9607A60FB68002B04D0BB68002B01D0E2
:102A8000012300E0002303F00103DBB233220A49F3
:102A900018460A4B9847FB68B9681846084B984790
:102AA000FB68084A1A60FB68074A5A600023184608
:102AB0001037BD4680BD00BF74130100793F000090
:102AC0001D840000CD2A0000F12A000080B584B0EA
:102AD00000AF78607B68FB60FB685B69002B03D00C
:102AE000FB685B69F868984700BF1037BD4680BD3A
:102AF00080B584B000AF78607B68FB60FB689B6941
:102B0000002B03D0FB689B69F868984700BF10371B
:102B1000BD4680BD80B582B000AF786039607B680B
:102B2000002B04D03B68002B01D0012300E00023E0
:102B300003F00103DBB2312206491846064B9847E1
:102B40007B6839681846054B98470346184608378E
:102B5000BD4680BD8C130100793F0000CD5E0000B2
:102B600080B582B000AF78607B68002B14BF012372
:102B70000023DBB23F2206491846064B98477B6884
:102B80001846054B9847034618460837BD4680BD92
:102B90008C130100793F0000415F000080B582B0D6
:102BA00000AF78607B68002B14BF01230023DBB2E9
:102BB000462206491846064B98477B681846054B3F
:102BC0009847034618460837BD4680BD8C13010060
:102BD000793F0000655F000080B582B000AF78608B
:102BE00039607B68002B04D03B68002B01D00123A7
:102BF00000E0002303F00103DBB24D220649184632
:102C0000064B98477B6839681846054B984703463A
:102C100018460837BD4680BD8C130100793F00007F
:102C2000B160000080B584B000AF78607B68043B81
:102C3000FB607B681B79012B0ED8FB689A6BFB68E5
:102C40005B6C581CF968486413441B789BB21946A6
:102C50007868114B98470DE0FB689A6BFB685B6CDA
:102C6000581CF96848645B0013441B88194678684F
:102C7000094B9847FB685A6CFB681B6C9A4207D15A
:102C800000217868054B984701217868044B9847E4
:102C900000BF1037BD4680BDCD7C0000917B000099
:102CA000657C000090B585B000AF78607B68043B20
:102CB000FB60FB68DB6B002B21D07B681B79012B51
:102CC0000ED8FB68DA6BFB685B6C581CF9684864CB
:102CD000D41878682E4B98470346DBB2237016E071
:102CE000FB68DA6BFB685B6C581CF96848645B0036
:102CF000D4187868264B98470346238007E0786805
:102D0000234B9847FB685B6C5A1CFB685A64FB6852
:102D10005A6CFB681B6C9A4226D2FB689B6B002B9B
:102D20001BD07B681B79012B0BD8FB689A6BFB6867
:102D30005B6C13441B789BB219467868154B984717
:102D400022E0FB689A6BFB685B6C5B0013441B889A
:102D5000194678680F4B984716E07B68DB88194660
:102D600078680C4B98470FE0002178680A4B984729
:102D7000FB68002283F82C20FB681B6B002B03D020
:102D8000FB681B6BF868984700BF1437BD4690BDC1
:102D9000257D0000CD7C0000F57B000080B584B06F
:102DA00000AF78607B68043BFB60FB685A6CFB6893
:102DB0001B6C9A420FD300217868094B9847FB6837
:102DC000002283F82C20FB681B6B002B03D0FB68D0
:102DD0001B6BF868984700BF1037BD4680BD00BF29
:102DE000657C000080B584B000AF786039607B6896
:102DF000043BFB60002178680D4B98470021786800
:102E00000C4B9847002178680B4B9847FB680022D1
:102E100083F82C20FB685B6B002B04D0FB685B6B9A
:102E20003968F868984700BF1037BD4680BD00BFBD
:102E3000917B0000F57B0000657C000080B584B0CC
:102E400000AF786039600023FB607B68002B04D002
:102E50003B68002B01D0012300E0002303F00103B5
:102E6000DBB2A5221C4918461C4B98477B683A6880
:102E70005A607B68043339681846194B9847F860E4
:102E8000FB68002B23DB7B680433164A00211846BD
:102E9000154B98477B680433144A01211846124B9E
:102EA00098477B680433124A022118460E4B984714
:102EB0007B6804330F4A032118460B4B98477B6805
:102EC0000D4A9A627B680D4A5A62002300E0FB6853
:102ED00018461037BD4680BDA8130100793F000099
:102EE00091780000252C0000757D0000A52C0000C5
:102EF0009D2D0000E52D0000012F0000812F000016
:102F000080B586B000AFF860B9601346FB80FB68FF
:102F1000002B14BF01230023DBB240F20512144939
:102F20001846144B9847FB68243B7B617B69BA6861
:102F3000DA637B6900229A63FA887B691A647B6989
:102F400000225A647B69102283F82C207B690433A9
:102F500001211846084B98477B69043340F2FF1162
:102F60001846064B9847002318461837BD4680BDC3
:102F7000A8130100793F0000F57B0000CD7C000024
:102F800080B586B000AFF860B9601346FB80FB687F
:102F9000002B14BF01230023DBB240F2271211499A
:102FA0001846114B9847FB68243B7B617B690022E4
:102FB000DA637B69BA689A63FA887B691A647B6909
:102FC00000225A647B69102283F82C207B69043329
:102FD00001211846054B9847002318461837BD466F
:102FE00080BD00BFA8130100793F0000917B000065
:102FF00080B584B000AF786039600023FB607B68E7
:10300000002B04D03B68002B01D0012300E00023FB
:1030100003F00103DBB2402210491846104B9847D9
:103020007B683A685A607B680433396818460D4BF0
:103030009847F860FB68002B01DAFB680AE07B68C0
:103040004FF400429A827B68074A1A617B68074AFC
:10305000DA60002318461037BD4680BDC813010052
:10306000793F00008577000071300000C930000012
:1030700080B588B000AFF860B9601346FB80FB688C
:10308000002B14BF01230023DBB287220B49184613
:103090000B4B9847FB680C3BFB61BB687B610023D3
:1030A0003B61FB88BB6107F110031946F869054BCA
:1030B0009847034618462037BD4680BDC813010017
:1030C000793F00002131000080B588B000AFF86082
:1030D000B9601346FB80FB68002B14BF012300235B
:1030E000DBB2A3220B4918460B4B9847FB680C3BFD
:1030F000FB6100237B61BB683B61FB88BB6107F11F
:1031000010031946F869054B9847034618462037BF
:10311000BD4680BDC8130100793F00002131000089
:1031200080B586B000AF786039607B68002B04D032
:103130003B68002B01D0012300E0002303F00103D2
:10314000DBB2B3220C4918460C4B98473B681B680E
:10315000FB603B685B683B613B689B687B617B68AD
:10316000043307F10C0211461846054B98470346F5
:1031700018461837BD4680BDC8130100793F0000CE
:10318000757A000080B483B000AF78607B681B68FC
:1031900018460C37BD465DF8047B704780B483B099
:1031A00000AF78607B68002B02D07B681B6800E072
:1031B000002318460C37BD465DF8047B70470000BD
:1031C00080B584B000AFF860B9607A60FB68002B0E
:1031D00004D0BB68002B01D0012300E0002303F0E2
:1031E0000103DBB23B220A4918460A4B9847FB68A9
:1031F000B9681846084B9847FB6800221A61FB68BB
:10320000064A1A60002318461037BD4680BD00BF2D
:10321000E4130100793F00006D8100006935000072
:1032200080B582B000AF78607B68002B14BF0123AB
:103230000023DBB253220B4918460B4B98477B689F
:1032400018460A4B98470346002B02D06FF0100334
:1032500004E07B681846064B984700231846083759
:10326000BD4680BDE4130100793F0000798600006F
:103270003986000080B582B000AF78607B68002B93
:1032800014BF01230023DBB261220D4918460D4B08
:1032900098477B6818460C4B9847034683F0010318
:1032A000DBB2002B02D06FF0100304E07B681846FD
:1032B000064B9847002318460837BD4680BD00BF1F
:1032C000E4130100793F0000798600005986000070
:1032D00080B584B000AF786039607B68002B04D083
:1032E0003B68002B01D0012300E0002303F0010321
:1032F000DBB27A222D4918462D4B98477B681B7EFE
:10330000DBB243F00103DAB27B681A767B681433D0
:1033100039681846274B98470346002B0FD07B6827
:103320001B7EDBB223F00103DAB27B681A767F22C0
:103330001E4900201E4B98476FF0110332E07B6856
:103340001A693B685A607B6803F114007B681B694B
:103350001A463968184B98477B681B7EDBB223F00E
:103360000103DAB27B681A767B681B7EDBB203F05E
:103370000203002B15D007F10C0318460F4B98479A
:103380007B681B7EDBB223F00203DAB27B681A761D
:103390007B6818460A4B984707F10C031846094BFF
:1033A0009847002318461037BD4680BDE41301003E
:1033B000793F0000A13F0000B934000005B80000CB
:1033C000B98600002BB8000080B584B000AF7860EB
:1033D00039607B68002B04D03B68002B01D00123AF
:1033E00000E0002303F00103DBB295222B491846CD
:1033F0002B4B98477B681B7EDBB243F00103DAB2AC
:103400007B681A767B68143339681846254B9847D1
:10341000034683F00103DBB2002B0FD07B681B7ED9
:10342000DBB223F00103DAB27B681A769A221B49D9
:1034300000201B4B98476FF009032BE07B68143387
:1034400039681846184B98477B681B7EDBB223F01F
:103450000103DAB27B681A767B681B7EDBB203F06D
:103460000203002B15D007F10C0318460F4B9847A9
:103470007B681B7EDBB223F00203DAB27B681A762C
:103480007B6818460A4B984707F10C031846094B0E
:103490009847002318461037BD4680BDE41301004D
:1034A000793F0000A13F00000341000005B8000083
:1034B000B98600002BB8000080B588B000AFF86076
:1034C000B9607A600023BB61F868234B9847386184
:1034D0003B69002B04D1B968F868204B984737E066
:1034E0003B69FB6122E0FB695A687B689A4208D815
:1034F000FB699A68FB6959687B68CB1A13447B6146
:1035000009E0FB699A68FB695B681A447B685B4267
:10351000134401337B61BB689A687B699A4209D97D
:10352000FB69BB61F8690E4B9847F861FB69002B9A
:10353000D9D100E000BFFA693B699A4204D1B96869
:10354000F868064B984703E0B968B869054B984797
:103550002037BD4680BD00BF85310000D93F000047
:103560009D3100003140000080B586B000AF78602A
:103570007B683B613B6914331846274B9847786159
:103580003B691B695A1C3B691A613B691B69FB60FB
:103590003B691B7EDBB203F00103002B06D13B69C4
:1035A0001B7EDBB203F00203002B27D03B691B7E9E
:1035B000DBB243F00203DAB23B691A7629E07B6999
:1035C000BB603B6914331846144B9847BB681B7C9F
:1035D000012B09D1BB68FA685A603B691433FA6859
:1035E000B96818460E4B98473B69143318460A4B86
:1035F00098477861BB68DB68B86898477B69002B9F
:1036000007D07B695B68FA68D21A7B699B689A422B
:10361000D5D21837BD4680BD85310000D1400000AD
:10362000B934000080B485B000AF0346FB710023BD
:10363000FB7329E097F90F30194A5B0113440133FA
:103640001B78FA799A4202D197F90F3022E097F964
:103650000F30134A5B0113441B78002B0ED1FB790A
:1036600003F00F0397F90F200D4952010A4401326C
:103670001278934202D197F90F300BE097F90F308F
:10368000DBB20133DBB2FB7397F90F30032BD1DDD3
:103690004FF0FF3318461437BD465DF8047B704782
:1036A000F82E002080B588B000AFBA607B6003467A
:1036B000FB730B46BB73BB687B617B68BB61BB7BE9
:1036C000002B04D0FB7B63F07F03DBB203E0FB7BCA
:1036D00003F00F03DBB23B7797F828307B7707F1D5
:1036E00014031846034B9847034618462037BD4637
:1036F00080BD00BF39AE000080B485B000AFF86077
:10370000B9607A60002318461437BD465DF8047B23
:103710007047000080B586B000AF0346FB71FB79AF
:1037200018462A4B98470346FB7597F917305B01FB
:10373000274A13443B613B690C33FB60FB79F96812
:103740001846244B98470346FB72FB7A082B0DD092
:10375000FB7901211846204B9847FB7963F07F03E2
:10376000DBB2012118461C4B98472BE0FB79002166
:103770001846194B9847FB7963F07F03DBB20021B1
:103780001846154B98473B6901229A703B695B6963
:10379000FA79F96810469847034683F00103DBB2D3
:1037A000002B0FD03B6905229A70FB790121184646
:1037B000094B9847FB7963F07F03DBB20121184680
:1037C000054B98471837BD4680BD00BF2536000021
:1037D000F82E002091AD000009AC000080B584B047
:1037E00000AF03463960FB71FB7918460D4B9847D3
:1037F0000346FB7397F90F305B010B4A1344BB6020
:10380000BB689B78032B07D1BB689B69FA79396841
:1038100010469847034600E0002318461037BD467F
:1038200080BD00BF25360000F82E002090B587B07F
:1038300002AF78607B689B78FB737B681B7B03F02F
:103840008003002B14BF01230023BB73FB7B032BDE
:103850003AD17B68DB697A6850787A680C3201214A
:10386000984703467B737B7B002B15D07B68052232
:103870009A707B680222DA70BB7B002B02D07B68D7
:103880005B7804E07B685B7863F07F03DBB2012147
:103890001846154B984722E07B6804229A707B6893
:1038A0005878BB7B002B14BF01230023DBB283F0CD
:1038B0000103DBB203F00103D9B20123009300231B
:1038C00000220A4CA0470AE07B68DB697A685078DE
:1038D0007A680C32002198477B6802229A7000BFF8
:1038E0001437BD4690BD00BF09AC0000A5360000EE
:1038F00080B586B000AF0346B9607A60FB73FB7B8E
:1039000018462F4B98470346FB7597F917305B0114
:103910002C4A13443B61BB68002B0ED13B6900224B
:10392000DA703B691B78002B03D13869264B984726
:1039300043E03B6901229A7038E0BB68012B13D148
:103940003B690222DA703B691B78002B08D13B6986
:1039500002229A70FB7B002118461C4B984725E0F9
:103960003B6905229A7021E0BB68022B0ED13B69AE
:103970000422DA703B691B78002B03D13B690222D9
:103980009A701AE03B6901229A700FE0BB68032B22
:1039900006D13B6900229A703B690522DA7005E086
:1039A0003B6906229A703B690622DA703B69DB6943
:1039B0003A69D1787A68F87B98471837BD4680BD58
:1039C00025360000F82E00202D38000009AC00003C
:1039D00080B582B000AF214B984738603B68002B20
:1039E00001DA3B6836E0802200211D481D4B9847D4
:1039F0000023FB711EE0FB79194A5B01134401337C
:103A0000FF221A70FB79164A5B0113441433164ADD
:103A10001A60FB79124A5B0113441833124A1A6088
:103A2000FB790F4A5B0113441C330F4A1A60FB7980
:103A30000133FB71FB79032BDDD90C4900200C4BC2
:103A400098470C4901200A4B98470B490220084B24
:103A50009847002318460837BD4680BD51A4000092
:103A6000F82E0020150E0100F93600001537000071
:103A700099B00000DD370000F138000080B582B059
:103A800000AF03463960FB71FB7939681846034B78
:103A9000984700BF0837BD4680BD00BF51B0000049
:103AA00080B500AF024B98470346184680BD00BF63
:103AB00041A5000080B500AF014B984700BF80BD15
:103AC000C5A5000080B582B000AF0346FB71FB794D
:103AD0001846034B984700BF0837BD4680BD00BF5E
:103AE000D9A5000080B582B000AF0346FB71FB7919
:103AF0009BB21A4600210020034B98470346184604
:103B00000837BD4680BD00BF0D3B000080B586B0C4
:103B100000AF0346FB710B46BB711346BB80FB79BC
:103B200018461E4B98470346FB7597F917305B0103
:103B30001B4A13443B6197F91730002B02DB6FF0EF
:103B4000130327E0FF20154B98470346FB7597F9B1
:103B50001730002B02DA6FF014031BE097F91730CF
:103B60005B010F4A13443B61BA88B979FB79184667
:103B70000C4B9847F860FB68002B01DAFB6809E002
:103B80003B69FA795A70BB7903F00303DAB23B69F7
:103B90001A70002318461837BD4680BD2536000030
:103BA000F82E002079A6000080B584B000AF03464F
:103BB000FB71FB7918460D4B98470346FB7397F949
:103BC0000F305B010A4A1344BB6097F90F30002B9A
:103BD00007DBFB791846074B9847BB68FF225A70F2
:103BE00000E000BF1037BD4680BD00BF2536000095
:103BF000F82E0020ADA7000080B586B000AF0346C8
:103C0000FB71FB791846154B98470346FB7597F9EE
:103C100017305B01124A13443B6197F91730002BB0
:103C200002DA6FF0110314E03B691B78002B01D11D
:103C3000022200E001223B699A70FB791846094B89
:103C40009847F860FB68002B02DA3B6900229A7003
:103C5000FB6818461837BD4680BD00BF25360000FA
:103C6000F82E002091A8000090B58DB002AF7860CA
:103C70007B681B7A1846514B98470346FB7797F9A8
:103C80001F305B014E4A1344BB617B681B7A03F013
:103C90008003002B14BF0123002387F827307B68A3
:103CA0005B7A002B14BF0123002387F826307B6842
:103CB0005B683B6297F91F30002B02DA6FF011034B
:103CC00077E007F1080318463E4B9847BB699B789D
:103CD000FB73FB7BDBB2012B0CD1BB6903229A7017
:103CE00007F108031846384B9847BB691B78002B2F
:103CF00051D117E007F108031846334B9847FB7B77
:103D0000DBB2052B04D0062B04D0002B05D007E036
:103D100002234EE06FF00F034BE06FF0120348E018
:103D2000012346E0BB699B7C9AB2BB69DB7C9BB2FA
:103D30001B029BB21344FB82FB8A002B0BD1012395
:103D400087F8273000233B62012387F82630BB69C0
:103D500004229A701FE0BB691B7B03F08003002BD9
:103D600014BF0123002387F82730FA8A3B6A9A425E
:103D700001D2FB8A3B6297F82730002B08D0FA8AE1
:103D80003B6A9A428CBF0123002387F8263002E069
:103D9000002387F826307B68187A7B681A6897F8C2
:103DA000263097F8271000933B6A084CA0473861EB
:103DB0003B6918462C37BD4690BD00BF2536000034
:103DC000F82E002005B800002BB80000A536000032
:103DD00080B584B000AF0346FB71FB7918460E4BEB
:103DE00098470346FB7397F90F305B010B4A134466
:103DF000BB6097F90F30002B0ADBFB791846084BA4
:103E00009847BB6801229A70BB680422DA7000E010
:103E100000BF1037BD4680BD25360000F82E0020BB
:103E2000FDAF000080B586B000AF0346FB71FB79A3
:103E300018461A4B98470346FB7597F917305B01F4
:103E4000174A13443B6197F91730002B02DA6FF0E1
:103E500011031FE0FB7902211846124B98470346D5
:103E6000002B16D0FB79002118460E4B9847F860BE
:103E7000FB68002B01DAFB680CE03B6901229A70B9
:103E80003B690322DA703B69DB69F8790022032180
:103E90009847002318461837BD4680BD25360000D8
:103EA000F82E002009AC000080B582B000AF0346B8
:103EB0000A46FB711346BB71BB79002B05D1FB7918
:103EC00018460C4B984703460FE0BB79012B06D1EF
:103ED000FB7901211846084B9847034605E0FB791A
:103EE00002211846044B9847034618460837BD463A
:103EF00080BD00BF253E000009AC000080B586B043
:103F000000AF03463A60FB710B46BB71FB79184664
:103F1000164B98470346FB7597F917305B01144A17
:103F200013443B613B68002B01D03B6800E0114B20
:103F3000FB6097F91730002B13DBBB79012B08D0FE
:103F4000022B0AD0002B00D00CE03B69FA685A61C2
:103F500008E03B69FA689A6104E03B69FA68DA6153
:103F600000E000BF1837BD4680BD00BF2536000009
:103F7000F82E0020F936000080B485B000AF03466B
:103F8000B9607A60FB73FB7B83F00103DBB2002B2B
:103F900000D000BE00BF1437BD465DF8047B7047FB
:103FA00080B485B000AF786039607B681B68FB60C7
:103FB00008E0FA683B689A4201D1012306E0FB68F9
:103FC0001B68FB60FB68002BF3D1002318461437F5
:103FD000BD465DF8047B704780B582B000AF786065
:103FE0003960396878680F4B98470346002B14BF37
:103FF00001230023DBB283F00103DBB203F00103F2
:10400000DBB2392208491846084B98477B681A6882
:104010003B681A607B683A681A6000BF0837BD4683
:1040200080BD00BFA13F0000FC130100793F0000EC
:1040300080B483B000AF786039607B681A683B68F1
:104040001A607B683A681A6000BF0C37BD465DF89D
:10405000047B704780B584B000AF786039607B68BE
:104060001B68FB6039687868164B98470346002B3D
:1040700014BF01230023DBB283F00103DBB203F0A2
:104080000103DBB24F2210491846104B98477B685A
:104090001B68002B09D17B683A681A603B680022D4
:1040A0001A600CE0FB681B68FB60FB681B68002B58
:1040B000F8D1FB683A681A603B6800221A60103732
:1040C000BD4680BDA13F0000FC130100793F000008
:1040D00080B485B000AF78607B681B68002B09D086
:1040E0007B681B68FB607B681B681A687B681A60CA
:1040F000FB6800E0002318461437BD465DF8047BDA
:10410000704780B485B000AF786039603B68002BA1
:1041100001D1002324E07B681A683B689A4206D1EB
:104120007B681B681A687B681A60012318E07B684B
:104130001B68FB6002E0FB681B68FB60FB68002BF0
:1041400004D0FB681A683B689A42F4D1FB68002BE4
:1041500005D03B681A68FB681A60012300E0002361
:1041600018461437BD465DF8047B704780B483B0B1
:1041700000AF0346FB80B7F90630002B0BDB094983
:10418000B7F906305B09FA8802F01F02012000FA35
:1041900002F241F8232000BF0C37BD465DF8047BD6
:1041A000704700BF00E100E080B483B000AF034679
:1041B000FB80B7F90630002B10DB0B49B7F906304E
:1041C0005B09FA8802F01F02012000FA02F2203394
:1041D00041F82320BFF34F8FBFF36F8F00BF0C3721
:1041E000BD465DF8047B704700E100E080B483B019
:1041F00000AF0346FB80B7F90630002B0CDB094902
:10420000B7F906305B09FA8802F01F02012000FAB4
:1042100002F2603341F8232000BF0C37BD465DF841
:10422000047B704700E100E080B483B000AF7860A9
:104230007B685B6C5B0903F00103002B14BF012357
:104240000023DBB218460C37BD465DF8047B70478F
:1042500080B483B000AF786039607B683A689A6058
:1042600000BF0C37BD465DF8047B704780B483B057
:1042700000AF786039607B683A68DA6000BF0C375D
:10428000BD465DF8047B704780B483B000AF7860B2
:104290007B689B6943F001027B689A6100BF0C3721
:1042A000BD465DF8047B704780B485B000AF786090
:1042B0007B689B69FB60FB6803F00103FB60FB68A4
:1042C000002B14BF01230023DBB218461437BD4670
:1042D0005DF8047B704780B483B000AF78607B6882
:1042E0009B6923F001027B689A6100BF0C37BD46D1
:1042F0005DF8047B704780B483B000AF78607B6862
:104300009B6943F002027B689A6100BF0C37BD468F
:104310005DF8047B704780B483B000AF78607B6841
:104320009B6923F002027B689A6100BF0C37BD468F
:104330005DF8047B704780B483B000AF786039606B
:104340007B689A693B681A437B689A6100BF0C37A7
:10435000BD465DF8047B704780B483B000AF7860E1
:1043600039607B683A68DA6100BF0C37BD465DF89A
:10437000047B704780B483B000AF786039607B689D
:104380003A681A6500BF0C37BD465DF8047B70477C
:1043900080B483B000AF78607B681B6D18460C3723
:1043A000BD465DF8047B704780B483B000AF786091
:1043B00039607B683A68DA6500BF0C37BD465DF846
:1043C000047B704780B483B000AF786039607B684D
:1043D0003A68C3F8802000BF0C37BD465DF8047B07
:1043E000704780B483B000AF786039607B683A680A
:1043F000C3F8842000BF0C37BD465DF8047B7047CE
:1044000080B483B000AF786039607B683A68C3F8E5
:10441000882000BF0C37BD465DF8047B704780B430
:1044200083B000AF786039607B683A68C3F8902049
:1044300000BF0C37BD465DF8047B704780B483B085
:1044400000AF786039607B683A68C3F8A02000BF8D
:104450000C37BD465DF8047B704780B483B000AF75
:10446000786039607B683A68C3F8BC2000BF0C37BD
:10447000BD465DF8047B704780B483B000AF7860C0
:1044800039607B683A68C3F8C02000BF0C37BD466E
:104490005DF8047B704780B483B000AF786039600A
:1044A0007B683A68C3F8C82000BF0C37BD465DF88A
:1044B000047B704780B483B000AF786039607B685C
:1044C0003A68C3F8F02000BF0C37BD465DF8047BA6
:1044D0007047000080B582B000AF786039607B68BB
:1044E0003A681A607B681B681846554B984700BFAE
:1044F0007B681B681846534B9847034683F00103BB
:10450000DBB2002BF4D17B681B6818464E4B9847F2
:104510003B684E4A93427AD14D4A7B6813607B6870
:104520004C4A9A617B681B684FF4407118464A4BAD
:1045300098477B681B6802211846484B98477B6860
:104540001B6847491846474B98477B681B68464994
:104550001846464B98477B681A68454B9BB243F018
:10456000004343F4803319461046424B98477B681A
:104570001B6807211846404B98477B681B6807213A
:1045800018463E4B98477B681A683D4B9BB243F0F8
:104590008073194610463B4B98477B681A683A4B24
:1045A0009BB243F4003319461046384B98477B685A
:1045B0001B6808211846364B98477B681A68354BAC
:1045C0009BB243F4001319461046334B98477B685F
:1045D0001A68324B9BB243F4003319461046304BF5
:1045E00098477B681B686FF0604118462D4B9847D1
:1045F0004F202D4B98474F202C4B98474F202C4B4A
:1046000098477B681B68012118462A4B98477B68AE
:104610001B681846284B98477B681B681846274B31
:10462000984700BF7B681B681846064B98470346AF
:10463000002BF7D1002318460837BD4680BD00BFC8
:1046400089420000A9420000F74200000004004235
:1046500018300020040000203743000051420000C1
:10466000010C010059430000100C01006D420000D4
:10467000385000203D4400005B4400009744000097
:10468000F04F002079440000782F0020B54400004E
:10469000C5430000882F0020E343000008300020BD
:1046A000014400001F440000A9410000ED4100004A
:1046B0006D410000A943000017430000D7420000ED
:1046C00090B583B000AF2C4B1B687B607B681B6888
:1046D00018462A4B984738603B6803F00103002BCB
:1046E00003D07B689B68786898473B6803F4007345
:1046F000002B03D07B685B68786898473B6803F0C1
:104700000073002B04D07B68DB680321786898472E
:104710003B6803F08073002B04D07B68DB680021CA
:10472000786898473B6803F40003002B0FD07B6840
:10473000DC687B681B681846114B98470346002BC2
:1047400001D0022300E0012319467868A0473B68A6
:1047500003F00803002B04D07B68DB680421786831
:1047600098477B681B6839681846064B984700BF16
:104770000C37BD4690BD00BF1830002091430000AB
:10478000294200007543000080B483B000AF0346A7
:10479000FB80B7F90630002B0CDB0949B7F906306E
:1047A0005B09FA8802F01F02012000FA02F240338E
:1047B00041F8232000BF0C37BD465DF8047B7047ED
:1047C00000E100E080B582B000AF0346FB71FB79E9
:1047D0001BB21846024B984700BF0837BD4680BD44
:1047E0008947000080B483B000AF03463960FB8086
:1047F00013467B717B79043B052B6BD801A252F8E1
:1048000023F000BFB3480000934800007548000043
:1048100057480000394800001D480000FB883A68EE
:104820003549A1FB0212920C02FB03F30233334A17
:10483000A2FB03235B0859E0FB883A685209304920
:10484000A1FB0212D20902FB03F31D332D4AA2FB86
:1048500003231B094AE0FB883A682B49A1FB02129B
:10486000520B02FB03F303F22B13284AA2FB032390
:104870005B093BE0FB883A682549A1FB02129209DB
:1048800002FB03F303F6B733224AA2FB03239B097F
:104890002CE0FB883A682049A1FB0212520902FB76
:1048A00003F303F5EA432F331C4AA2FB03235B0BFC
:1048B0001CE0FB883A681A49A1FB0212D20802FBED
:1048C00003F303F5922303F2DF33164AA2FB03231B
:1048D0005B0C0BE0FB883A6802FB03F303F537132C
:1048E00003F2BF63104AA2FB03239B0C18460C374C
:1048F000BD465DF8047B704783DE1B43ABAAAAAAC2
:10490000C55A7C0A898888885917B7D1B5814E1B4A
:10491000D34D6210F11976051F85EB5173B2E7454F
:10492000CDCCCCCC851DD96F819F5E1680B582B071
:1049300000AF0346FB80FB88092204491846044B5C
:104940009847034618460837BD4680BD000E270726
:10495000E547000080B483B000AF03463960FB80B8
:1049600013467B717B79043B052B70D801A252F86A
:1049700023F000BF314A0000154A0000F949000049
:10498000D5490000B14900008D490000FB883A6814
:104990003749A1FB0212920C02FB03F30233354AA2
:1049A000A2FB03235B084FF47A7202FB03F358E087
:1049B000FB883A6852093049A1FB0212D20902FB76
:1049C00003F302332B4AA2FB03235B08642202FB9E
:1049D00003F346E0FB883A682849A1FB0212520B18
:1049E00002FB03F30233234AA2FB03235A081346B4
:1049F0009B0013445B0034E0FB883A682049A1FB2C
:104A00000212920902FB03F302331A4AA2FB0323A8
:104A10005B0826E0FB883A681A49A1FB021252099A
:104A200002FB03F31D33184AA2FB03231B0918E002
:104A3000FB883A681549A1FB0212D20802FB03F376
:104A400003F22B13124AA2FB03235B0909E0FB8844
:104A50003A6802FB03F303F6B7330E4AA2FB0323C3
:104A60009B0918460C37BD465DF8047B704700BFB4
:104A700083DE1B43ABAAAAAAC55A7C0A5917B7D131
:104A8000D34D62101F85EB5189888888CDCCCCCC62
:104A9000B5814E1BF119760580B582B000AF034693
:104AA000FB80FB88092204491846044B98470346BB
:104AB00018460837BD4680BD000E2707554900003F
:104AC00080B483B000AF7860396000BFAFF300807E
:104AD0000139FDD800BF0C37BD465DF8047B704737
:104AE00080B483B000AF78600B467B807B681B8806
:104AF0009AB27B881B029BB203F470639BB2134390
:104B00009AB27B681A8000BF0C37BD465DF8047B03
:104B1000704780B485B000AFF8600B467A60FB72D6
:104B2000FB7AFA7AF968D2010A442C3211687A6861
:104B30000A43F968DB010B442C331A6000BF1437B9
:104B4000BD465DF8047B704780B500AF00220021B0
:104B500009480A4B9847002201210748074B98470C
:104B6000EF2202210448054B984700220321024806
:104B7000024B984700BF80BD00800041134B0000EE
:104B800080B500AF04210B480B4B98470B4B98475F
:104B90000B4B98470B4B98474FF484600A4B984750
:104BA0000A4B984740F6DF30074B9847084B984729
:104BB00000BF80BD00400041E14A000005560000F2
:104BC000CD5A000025550000E55300000D5B0000A4
:104BD000494B000080B483B000AF786039607B68D7
:104BE0003A681A60002318460C37BD465DF8047B0E
:104BF0007047000080B483B000AF0346FB80B7F974
:104C00000630002B0BDB0949B7F906305B09FA883F
:104C100002F01F02012000FA02F241F8232000BF37
:104C20000C37BD465DF8047B704700BF00E100E033
:104C300080B483B000AF0346FB80B7F90630002B89
:104C400010DB0B49B7F906305B09FA8802F01F0246
:104C5000012000FA02F2203341F82320BFF34F8FE6
:104C6000BFF36F8F00BF0C37BD465DF8047B704704
:104C700000E100E080B483B000AF0346FB80B7F9E9
:104C80000630002B0CDB0949B7F906305B09FA88BE
:104C900002F01F02012000FA02F2603341F82320E3
:104CA00000BF0C37BD465DF8047B704700E100E0B3
:104CB00080B483B000AF7860396000BF7B685A6809
:104CC0003B681340002BF9D100BF0C37BD465DF89F
:104CD000047B704780B483B000AF786039607B6834
:104CE0005A683B681340002B14BF01230023DBB23A
:104CF00018460C37BD465DF8047B704780B483B01E
:104D000000AF78607B685B6918460C37BD465DF87C
:104D1000047B704780B483B000AF786039607B68F3
:104D20003A685A6100BF0C37BD465DF8047B704796
:104D300080B483B000AF786039607B683A681A61EC
:104D400000BF0C37BD465DF8047B704780B483B06C
:104D500000AF786039607B683A68DA6000BF0C3772
:104D6000BD465DF8047B704780B582B000AF7860C7
:104D70007B681B78DBB243F00203DAB27B681A70FF
:104D800003217868024B984700BF0837BD4680BDB5
:104D9000B14C000080B582B000AF78607B681B78B2
:104DA000DBB223F00203DAB27B681A700321786861
:104DB000024B984700BF0837BD4680BDB14C00008C
:104DC00080B584B000AF78600B46FB707B681B78C1
:104DD000FB73FB7B23F01003FB73FB781B015AB2C0
:104DE00097F90F3013435BB2FB737B68FA7B1A7041
:104DF00003217868024B984700BF1037BD4680BD3D
:104E0000B14C000080B584B000AF78600B46FB70F9
:104E100003217868064B98477B681B78FB73FA7B05
:104E2000FB781340FB73FB7B18461037BD4680BDF3
:104E3000B14C000080B582B000AF78600B46FB70CB
:104E40007B68FA781A7003217868034B984700BF93
:104E50000837BD4680BD00BFB14C000080B483B0B0
:104E600000AF78600B46FB707B68FA785A7000BF21
:104E70000C37BD465DF8047B704780B483B000AF4B
:104E8000786039607B683A689A6000BF0C37BD462D
:104E90005DF8047B704780B483B000AF7860396000
:104EA0007B683A689A6100BF0C37BD465DF8047BA9
:104EB000704780B485B000AFF8600B467A60FB7233
:104EC000FB7AFA6806339B0013447A685A6000BF85
:104ED0001437BD465DF8047B704780B483B000AFE3
:104EE000786039607B683A681A6300BF0C37BD464A
:104EF0005DF8047B704780B483B000AF78603960A0
:104F00007B683A685A6300BF0C37BD465DF8047B86
:104F10007047000080B582B000AF786001213C4846
:104F20003C4B9847034683F00103DBB2002B11D0C2
:104F300002213748384B98470346002B06D03448A7
:104F4000364B984702213248354B9847012130486B
:104F5000344B984701212E48314B984700212C486B
:104F6000314B984700212A48304B98470021284868
:104F70002F4B9847312126482E4B98473121244802
:104F80002D4B9847002122482C4B98472C4A002152
:104F90001F482C4B9847002201211D48294B984758
:104FA0001B48294B98470C20284B98470C20284B2E
:104FB00098470C20274B98471020244B98471020E7
:104FC000234B98471020234B984711201F4B98479D
:104FD00011201F4B984711201E4B984712201B4B46
:104FE000984712201A4B984712201A4B98471320C3
:104FF000164B98471320164B98471320154B98478C
:10500000154A7B681360002318460837BD4680BDEB
:1050100000280040D54C0000054E0000954D0000D2
:10502000B14C0000354E0000C14D00005D4E000047
:105030007B4E0000974E0000DB4E0000F74E000054
:1050400003009900B34E0000694D0000314C000090
:10505000754C0000F54B00001C30002080B584B07A
:1050600000AF78600B46FB70FF23FB730023BB731C
:1050700010E0BB7B1C4ADB0013445A687B689A42F1
:1050800005D1BB7B184A12F83330FB7305E0BB7BBC
:105090000133BB73BB7B042BEBD9FB7BFF2B02D112
:1050A0004FF0FF331CE0FB78002B08D0FB7B012284
:1050B00002FA03F319460D480D4B98470FE0FB7BAE
:1050C000012202FA03F3194608480A4B9847FB7B72
:1050D000012202FA03F319460448074B98470023BC
:1050E00018461037BD4680BD1C1401000028004042
:1050F000314D00004D4D0000154D000080B584B0CD
:1051000000AF4148414B984703463B604FF0FF33A7
:10511000BB603B6819463C483D4B98473D4B1B687C
:10512000002B14BF01230023DBB2F8223A491846B2
:105130003A4B984760E03B681846394B984703461E
:10514000DBB2013BDBB2FB7347E00023FB710523BD
:10515000BB7124E0BA79FB7913445B107B717B79D6
:10516000304A12F833301A4697F90F309A4206D176
:105170007B792C4ADB0013445B68BB6013E07B79CE
:10518000284A12F833301A4697F90F309A4203DA58
:105190007B790133FB7102E07B79013BBB71BA790A
:1051A000FB799A42D6D2BB68B3F1FF3F03D0194BCB
:1051B0001B68B868984797F90F30012202FA03F389
:1051C000DA433B6813403B603B681846144B9847F2
:1051D0000346DBB2013BDBB2FB7397F90F30B3F14F
:1051E000FF3FB2D10848094B984703463B603B68F4
:1051F00019460548064B98473B68002B9BD100BFDA
:105200001037BD4680BD00BF00280040FD4C0000A7
:10521000154D00001C30002044140100793F0000AF
:10522000750C01001C14010080B500AF014B9847BC
:1052300000BF80BDFD50000080B500AF014B984716
:1052400000BF80BDFD50000080B500AF014B984706
:1052500000BF80BDFD50000080B500AF014B9847F6
:1052600000BF80BDFD50000080B500AF014B9847E6
:1052700000BF80BDFD50000080B485B000AFF86075
:105280000B467A60FB72FA7AFB684832796843F819
:10529000221000BF1437BD465DF8047B704780B410
:1052A00083B000AF78600B46FB701346BB70FB7891
:1052B0007A680433DB001344BA785A71FB78BA7801
:1052C000D243D1B27A680433DB0013440A461A7120
:1052D00000BF0C37BD465DF8047B704780B485B0D5
:1052E00000AFF8600B467A60FB72FA7AFB68043212
:1052F000796843F8321000BF1437BD465DF8047B6F
:105300007047000080B582B000AF0023FB710BE056
:10531000FB79184AD35C1A46FB7919461648174B95
:105320009847FB790133FB71FB79422BF0D90023BD
:10533000FB7116E0FB79124A32F813301A46FB79FA
:1053400019460D480F4B9847FB790F4A52F8233006
:10535000DAB2FB79194608480C4B9847FB790133C0
:10536000FB71FB791F2BE5D9002318460837BD4692
:1053700080BD00BF5C14010000E0004179520000D4
:10538000A0140100DD520000E01401009F52000053
:1053900080B483B000AF7860396000BF7B685A6822
:1053A0003B681340002BF9D100BF0C37BD465DF8B8
:1053B000047B704780B584B000AFF8600B467A601C
:1053C000FB72FA7AFB680832796843F8221043F6D8
:1053D000FD71F868024B984700BF1037BD4680BD8D
:1053E0009153000080B582B000AF78607B6803F015
:1053F0000103002B04D0364A00213648364B98472B
:105400007B6803F00203002B04D0344A01213148A9
:10541000314B98477B6803F00403002B04D0304ADB
:1054200002212C482C4B98477B6803F00803002B83
:1054300004D02C4A03212748274B98477B6803F068
:105440001003002B04D0284A04212248224B9847FD
:105450007B6803F02003002B04D0244A05211D485B
:105460001D4B98477B6803F04003002B04D0204A73
:1054700006211848184B98477B6803F08003002BDF
:1054800004D01C4A07211348134B98477B6803F448
:105490008073002B04D0184A08210E480E4B984701
:1054A0007B6803F48063002B04D0144A0A21094866
:1054B000094B98477B6803F40063002B04D0104A23
:1054C0000B210448044B984700BF0837BD4680BDF8
:1054D00007010100001C0040B5530000070901004E
:1054E000060901000809020001090100012906005E
:1054F00001290C0008290800012903000509010001
:105500000519040080B483B000AF78600B46FB70CF
:105510007B68FA785A7100BF0C37BD465DF8047B92
:105520007047000080B582B000AF054B7B60012161
:105530007868044B984700BF0837BD4680BD00BF60
:10554000000800400555000080B483B000AF7860CB
:105550000B46FB707B68FA781A7400BF0C37BD46A7
:105560005DF8047B704780B483B000AF78600B4671
:105570007B807B687A889A8200BF0C37BD465DF8D5
:10558000047B704780B483B000AF78600B46FB703B
:105590007B68FA789A7500BF0C37BD465DF8047BCE
:1055A000704780B483B000AF78600B46FB707B68B7
:1055B000FA78DA7500BF0C37BD465DF8047B70479A
:1055C00080B485B000AF78607B68DB69FB60FB6806
:1055D0001B0A03F03F03FB60FB6818461437BD4607
:1055E0005DF8047B704780B483B000AF78603960A9
:1055F0007B683A68DA6100BF0C37BD465DF8047B12
:105600007047000080B582B000AF134B7B60002371
:105610007B8042F28E017868104B984700217868B1
:105620000F4B9847002178680E4B984778680E4BCF
:10563000984703467B807B881B0203F47C53194602
:1056400078680A4B984700217868094B984700BF53
:105650000837BD4680BD00BF0014004067550000FC
:1056600085550000A3550000C1550000E755000016
:105670004955000080B483B000AF7860396000BF46
:105680007B685A683B681340002BF9D100BF0C3788
:10569000BD465DF8047B704780B483B000AF78608E
:1056A0007B685B689B0803F00103002B14BF012398
:1056B0000023DBB218460C37BD465DF8047B70470B
:1056C00080B483B000AF78607B685B6818460C37A5
:1056D000BD465DF8047B704780B586B000AFF860CA
:1056E0000B467A60FB72FA7AFB68083253F8223074
:1056F0007B617B6923F00F037B617B6803F00F0301
:105700007A6913437B61FA7AFB680832796943F856
:10571000221043F6FD71F868024B984700BF183716
:10572000BD4680BD7556000080B485B000AFF860FE
:105730000B467A60FB72FA7AFB682032796843F88C
:10574000221000BF1437BD465DF8047B704780B45B
:1057500085B000AFF8600B467A60FB7200BFFA7A42
:10576000F96813469B0013449B000B443C331A68B2
:105770007B681340002BF2D100BF1437BD465DF8A3
:10578000047B704780B483B000AF78600B46FB7039
:10579000FA78796813469B0013449B000B4440330E
:1057A0001B6803F00103002B14BF01230023DBB2AD
:1057B00018460C37BD465DF8047B704780B483B053
:1057C00000AF78600B46FB70FA78796813469B004F
:1057D00013449B000B4440331B685B0803F0010338
:1057E000002B14BF01230023DBB218460C37BD4643
:1057F0005DF8047B7047000080B582B000AF786030
:105800000B46FB701346BB70FA78796813469B0011
:1058100013449B000B443033BA781A70FB78022291
:1058200019467868024B984700BF0837BD4680BDCF
:105830004F57000080B584B000AFF8600B467A6027
:10584000FB72FA7AF96813469B0013449B000B44E1
:1058500034337A681A60FB7A06221946F868034BDB
:10586000984700BF1037BD4680BD00BF4F570000AE
:1058700080B485B000AFF8600B467A60FB72FA7AAC
:10588000F96813469B0013449B000B4438337A6835
:105890001A6000BF1437BD465DF8047B704780B4C2
:1058A00083B000AF78607B681B695B0803F001037D
:1058B000002B14BF01230023DBB218460C37BD4672
:1058C0005DF8047B704780B483B000AF78607B687C
:1058D0001B691B0A03F00103002B14BF01230023E3
:1058E000DBB218460C37BD465DF8047B704780B4C8
:1058F00085B000AF786039607B681B69FB60FA682F
:105900003B681340FB60FB6818461437BD465DF8E2
:10591000047B704780B485B000AFF8600B467A60B6
:10592000FB72FB7AFA6804339B0013447A685A606E
:1059300000BF1437BD465DF8047B704780B483B068
:1059400000AF78600B46FB707B68FA781A7700BF6F
:105950000C37BD465DF8047B704780B485B000AF5E
:1059600078607B6893F82030FB73FB7B03F00103C6
:10597000FB73FB7B002B14BF01230023DBB2184613
:105980001437BD465DF8047B704780B483B000AF28
:1059900078600B46FB707B68FA7883F8202000BFA4
:1059A0000C37BD465DF8047B704780B483B000AF10
:1059B000786039607B683A685A6200BF0C37BD4630
:1059C0005DF8047B704780B483B000AF78607B687B
:1059D0005B6A18460C37BD465DF8047B704780B49F
:1059E00083B000AF786039607B683A689A6200BF24
:1059F0000C37BD465DF8047B704780B485B000AFBE
:105A000078607B6893F82C30FB73FB7B5B08DBB220
:105A100003F00103FB73FB7B002B14BF0123002366
:105A2000DBB218461437BD465DF8047B704780B47E
:105A300085B000AF78607B6893F82C30FB73FB7BFC
:105A40009B08DBB203F00103FB73FB7B002B14BF4D
:105A500001230023DBB218461437BD465DF8047BF2
:105A6000704780B485B000AF78607B6893F82C30C5
:105A7000FB73FB7BDB08DBB203F00103FB73FB7BF7
:105A8000002B14BF01230023DBB218461437BD4698
:105A90005DF8047B704780B485B000AF78607B68A8
:105AA00093F82C30FB73FB7B1B09DBB203F0010383
:105AB000FB73FB7B002B14BF01230023DBB21846D2
:105AC0001437BD465DF8047B7047000080B582B096
:105AD00000AF0A4B7B600A4A01217868094B98475E
