S00F0000537461727455702E7372656342
S214000000C0580120CD0F0000511000005110000014
S21400001051100000511000005110000000000000B8
S214000020000000000000000000000000511000006A
S2140000305110000000000000511000005110000098
S2140000405110000051100000511000005110000027
S2140000505110000051100000511000005110000017
S214000060511000005110000051100000A99400002B
S2140000709D7E00005110000051100000511000003D
S214000080AD7E0000BD7E0000CD7E0000DD7E00005F
S21400009051100000511000005110000051100000D7
S2140000A051100000511000005110000051100000C7
S2140000B051100000511000005110000051100000B7
S2140000C051100000511000005110000051100000A7
S2140000D05110000051100000511000005110000097
S2140000E05110000051100000000000000000000049
S2140000F000000000511000005110000051100000D8
S2140001005110000051100000511000005110000066
S2140001105110000051100000511000005110000056
S2140001205110000051100000511000005110000046
S214000130511000005110000065AC000081AC0000BA
S2140001409DAC0000B9AC0000D5AC0000F1AC0000DE
S2140001500DAD000029AD0000511000005110000048
S214000160511000005110000045AD000061AD0000C8
S2140001707DAD000099AD000051100000D970000060
S21400018001E8000011E8000021E8000031E8000066
S21400019051100000511000005110000051100000D6
S2140001A051100000511000005110000051100000C6
S2140001B051100000511000005110000051100000B6
S2140001C051100000511000005110000051100000A6
S2140001D05110000051100000511000005110000096
S2140001E0511000005110000051100000CDBE00005C
S2140001F0E9BE000005BF000021BF00003DBF0000B3
S21400020059BF00005110000075BF000051100000DB
S2140002105110000051100000511000005110000055
S2140002205110000051100000511000005110000045
S2140002305110000051100000511000005110000035
S2140002405110000051100000511000005110000025
S2140002505110000051100000511000005110000015
S2140002605110000010B5054C237833B9044B13B178
S2140002700448AFF300800123237010BDD80B002084
S21400028000000000C0E801000C4B43B10C480D49CB
S21400029010B5AFF300800C48036823B910BD0A48B8
S2140002A0036833B97047094B002BF7D0BDE8104000
S2140002B01847064B002BF5D0184700BF000000007B
S2140002C0C0E80100DC0B0020C0E8010000000000D0
S2140002D080B483B000AF786039607B683A681A6093
S2140002E07B6818460C37BD4680BC704780B483B028
S2140002F000AF7860044B1B6801221A7500BF0C37EC
S214000300BD4680BC704700BFF40B002080B483B0AD
S21400031000AF78607B68054A1A61054A7B681360FF
S2140003207B6818460C37BD4680BC7047342F0020CB
S214000330F40B002080B483B000AF78607B6818466A
S2140003400C37BD4680BC704780B586B000AF78607D
S21400035078682F4B98472F482F4B984703461A46E6
S2140003602E4B1A702B482E4B98477B681C33194629
S21400037078682C4B98472C482C4B984725482C4B94
S21400038098472C482C4B984722482C4B98472C488B
S2140003902C4B9847034683F00103DBB2002B0ED0AC
S2140003A007F10C0379691846274B984707F10C03A9
S2140003B01A4600217868254B98477B6924E04FF45D
S2140003C0FA7223492348244B98477B6803F59473B5
S2140003D019462248224B984778617B69002B0ED03D
S2140003E007F1100379691846174B984707F1100371
S2140003F01A4601217868154B98477B6904E000216E
S2140004000448184B98477B6918461837BD4680BD88
S21400041049050000482F00205524000050130020F6
S2140004204130000095050000001B0020F11D000073
S214000430590A000058130020250F0000E92E00007E
S21400044018140020AD120000D1020000BD06000006
S214000450ED020000E0520020C5510100342F0020BC
S214000460911F0000C124000080B584B000AF786002
S2140004707B681B7DDBB283F00103DBB2002B18D058
S2140004800F48104B9847034683F00103DBB2002B5E
S21400049004D000210C480D4B984703E000210A4881
S2140004A00B4B984707F108030A4918460A4B98472A
S2140004B0DEE70A480A4B98477B6800221A75D7E79A
S2140004C0342F0020791F0000482F0020792F0000CD
S2140004D075240000181400202D1300004C3A00204C
S2140004E0E516010080B582B000AF78601148124B67
S2140004F0984703461A467B6883F830217B6893F852
S2140005003031012B02D0022B04D007E00B4B0C4AF3
S2140005101A6007E0094B0B4A1A6003E0074B084ACB
S2140005201A6000BF7B6893F8303118460837BD461E
S21400053080BD00BF4C3A0020D32101004C130020A0
S2140005402C0D00203C10002080B584B000AF7860F1
S21400055009490A480A4B984703460A4918460A4B6F
S21400056098470A480A4B98470346FB60FB68DBB28D
S21400057018461037BD4680BDDCC701000453002076
S21400058031070000D8C7010011070000A45600205C
S214000590D153000080B588B000AF78603960002382
S2140005A0BB6139683548364B9847F8613548364B55
S2140005B098470346002B07D07B681C3319462F4804
S2140005C0324B9847F8614DE0AC2239682D48304BE5
S2140005D09847786129482F4B984738617A693B6974
S2140005E09A4208D17B683A681C331146AC221846FA
S2140005F0294B984736E07B681C3319461F48274B23
S2140006009847F8617B681C33AC2219461D48204B7E
S21400061098477861224BD3F8D0247B699A4205D15B
S214000620796916481F4B9847B8611BE07B681E4ADD
S2140006301C331146AC221846174B984700211B481E
S2140006401B4B9847F8607B681C3319460B48194BC0
S2140006509847B861124BD3F8D03419460748114B67
S2140006609847B8617B681C3319460D48124B98476B
S214000670FB6918462037BD4680BD00BF001B002022
S214000680811C00007C190020C5210000B11C000060
S214000690990D0000191D0000598B0100511C000027
S2140006A0482F0020551E0000A4C80100E44E00207C
S2140006B0E1420100C11D0000F12F000080B584B0AA
S2140006C000AFF8600B467A60FB72FB7A9BB27A68E2
S2140006D019460348034B984700BF1037BD4680BDF8
S2140006E09C4D00203528010080B582B000AF7860B0
S2140006F039603B681B780A2219467868034B98478E
S2140007007B6818460837BD4680BD00BF0D5A0100FD
S21400071080B582B000AF7860396039687868034B7E
S21400072098477B6818460837BD4680BDC959010002
S21400073080B582B000AF7860396039687868034B5E
S21400074098477B6818460837BD4680BDC9590100E2
S21400075080B582B000AF786039607B68012B0CD121
S2140007603B684FF6FF72934207D10648064B984700
S214000770064A07490348074B984700BF0837BD4657
S21400078080BD00BFF80B00200D0300000000002015
S21400079035030000BD67010080B500AF4FF6FF715E
S2140007A00120014B984780BD5107000080B582B0FC
S2140007B000AF78607B6803F5417318460A4B98478C
S2140007C07B680A4A11461846094B9847094A7B68CF
S2140007D01A607B6803F54173074A1A607B681846FF
S2140007E00837BD4680BD00BFD90E010030C80100E5
S2140007F01513010008C8010024C8010080B582B0A6
S21400080000AF78600C4A7B681A607B6803F541731A
S2140008100A4A1A607B680A4A11461846094B9847E6
S2140008207B6803F541731846074B98477B68184664
S2140008300837BD4680BD00BF08C8010024C80100B7
S21400084030C80100D9130100F90E010080B582B04E
S21400085000AF78607868064B98474FF44471786824
S214000860044B98477B6818460837BD4680BD00BFD6
S214000870FD070000C967010080B582B000AF786050
S21400088039607B68012B14D13B684FF6FF729342A8
S2140008900FD10A480A4B98470A4A0B4907480B4BA0
S2140008A098470B48064B9847064A07490848074B9F
S2140008B0984700BF0837BD4680BD00BF2C0D0020FE
S2140008C0AD07000000000020FD070000BD67010026
S2140008D03C10002080B500AF4FF6FF710120014BA1
S2140008E0984780BD7908000080B483B000AF786078
S2140008F07B6818460C37BD4680BC704780B483B012
S21400090000AF78607B6818460C37BD4680BC7047E1
S21400091080B483B000AF78607B685B78DBB2184643
S2140009200C37BD4680BC704780B582B000AF78609B
S21400093039607B68012B0CD13B684FF6FF729342FF
S21400094007D10648064B9847064A07490348074B0F
S214000950984700BF0837BD4680BD00BF5013002033
S214000960E908000000000020FD080000BD67010047
S21400097080B500AF4FF6FF710120014B984780BD50
S2140009802909000080B483B000AF7860124A7B6803
S2140009901A607B6800221A627B6800225A627B68B3
S2140009A000229A627B680022DA637B6800225A6320
S2140009B07B6800221A647B6800229A64074B1A68D8
S2140009C07B68DA647B68064A5A607B6818460C3790
S2140009D0BD4680BC704700BF48CC010078E40100EB
S2140009E0BEBAFECA80B483B000AF7860044A7B68A3
S2140009F01A607B6818460C37BD4680BC704700BF3F
S214000A0048CC010080B584B000AFF860B9601146EC
S214000A101A460B46FB711346BB71FB79002B0FD0B1
S214000A20FB686433AC2208491846084B9847FB68B5
S214000A30BA681A67FB68643319460548054B984739
S214000A4000BF1037BD4680BDA4C80100598B010009
S214000A507C1900207520000080B584B000AF786057
S214000A607B6803F5DE7319462348244B9847F860E5
S214000A707B6803F5DE7319462148224B98470346E8
S214000A80002B07D07B6803F5DE7319461E481F4B04
S214000A9098472BE07B6803F5DE7319461C481D4B10
S214000AA09847F8607B6803F5DE73194614481A4BBE
S214000AB098470346002B0ED07B6803F5DE73194675
S214000AC01148124B98477B6803F5DE7319461348A6
S214000AD0134B98470AE00C48124B984712490F48A8
S214000AE0124B984710490A48114B9847FB6818461E
S214000AF01037BD4680BD00BF001B0020C51E00008D
S214000B007C19002079220000482F002019300000B0
S214000B10F01A0020C1100000BD2200009014002032
S214000B20211B0000850C00004C2F0020811A0000BD
S214000B300911000080B5A0B000AF7860002387F8E8
S214000B407F3007F10C0319464048414B98473B69F4
S214000B50BB6007F1080318463E4B9847B8677B68AA
S214000B60062283F87E227B68002283F87C227B683C
S214000B7093F87C321A467B6893F87E329A4261DAA2
S214000B807B6893F87C329B00334A134419463348FB
S214000B90334B9847034633491846334B98477B6890
S214000BA093F87C32052B3AD801A252F823F000BF06
S214000BB0C90B0000DB0B0000ED0B0000290C000049
S214000BC0FF0B0000090C0000BB6AFB6607F16C0314
S214000BD019462248254B984727E07B6C3B6707F170
S214000BE0700319461D48214B98471EE0BB6C7B6777
S214000BF007F17403194619481C4B984715E0B96F5E
S214000C0016481B4B984710E01A4914481A4B984749
S214000C10FB68102219461148184B984705E07B6878
S214000C20182283F87C2200E000BF15490B48124BBF
S214000C3098477B6893F87C320133DAB27B6883F896
S214000C407C2294E700BF8037BD4680BD482F002039
S214000C50C92F0000718801005000002004530020B6
S214000C60A90C000034CC0100CD0C0000ED0C0000F7
S214000C70C959010038CC010011070000355A01009F
S214000C803CCC010080B582B000AF78607B6804334E
S214000C9019460348034B984700BF0837BD4680BD3A
S214000CA0482F00201930000080B582B000AF786071
S214000CB039603B681B6819467868034B98477B6821
S214000CC018460837BD4680BDC959010080B582B0B8
S214000CD000AF7860396039687868034B98477B685E
S214000CE018460837BD4680BDC959010080B582B098
S214000CF000AF786039603B681B680A22194678683E
S214000D00034B98477B6818460837BD4680BD00BF32
S214000D10355A010080B483B000AF78607B6818460F
S214000D200C37BD4680BC704780B483B000AF786097
S214000D307B6818460C37BD4680BC704780B582B0CD
S214000D4000AF786039600648064B98477B683A687B
S214000D501A607B681B6818460837BD4680BD00BF12
S214000D60005800204D4D000090B583B000AF78606D
S214000D70074B7868984703460C4618462146054BAD
S214000D80984703460C46184621460C37BD4690BD8C
S214000D90B97C0100D167010090B587B000AFF8605C
S214000DA0B9607A607B689B0818460F4B98470A46DE
S214000DB001460E4B08461146984703467B614FF0A6
S214000DC0FF31F8680A4B984703463B6107F110036A
S214000DD07A69B9680748084CA0473B69DB43184660
S214000DE01C37BD4690BD00BF690D0000058301009D
S214000DF03D0D000000580020894D000080B582B0EF
S214000E0000AF78607B681846064B98477B6803F50A
S214000E1037731846044B98477B6818460837BD4614
S214000E2080BD00BF25420100610E000080B582B083
S214000E3000AF78607B681846034B98477B68184677
S214000E400837BD4680BD00BF6142010080B483B054
S214000E5000AF7860002318460C37BD4680BC70474C
S214000E6080B582B000AF78607B684FF400720021D6
S214000E701846054B98477868044B98477B68184691
S214000E800837BD4680BD00BF8D8C0100910E000066
S214000E9080B483B000AF78607B680022C3F800227D
S214000EA07B680022C3F8042200BF0C37BD4680BC16
S214000EB07047000080B582B000AF78607B68A833CA
S214000EC01846074B98477B681846064B9847064ACD
S214000ED07B681A607B6818460837BD4680BD00BF31
S214000EE0571000003546010054CC010080B582B092
S214000EF000AF7860084A7B681A607B681846074B24
S214000F0098477B68A8331846054B98477B68184671
S214000F100837BD4680BD00BF54CC0100A546010081
S214000F206B10000080B584B000AF78600B4B1B6878
S214000F306833FB60F9680A480A4B9847074B1B68FA
S214000F406C33BB60B9680648074B98470448074BA4
S214000F50984700BF1037BD4680BD00BF1014002064
S214000F6020510020A54F0100C54F0100CD460100CD
S214000F7080B582B000AF786039607B68012B0CD1F9
S214000F803B684FF6FF72934207D10648064B9847D8
S214000F90064A07490348074B984700BF0837BD462F
S214000FA080BD00BF58130020B50E000000000020D2
S214000FB0ED0E0000BD67010080B500AF4FF6FF7173
S214000FC00120014B984780BD710F000080B582B0AC
S214000FD000AF164B7B60164B3B607A683B689A42C4
S214000FE00CD007E03B681A1D3A607A68111D7960DC
S214000FF012681A603B680F4A9342F3D30E4B3B606D
S21400100004E03B681A1D3A6000221A603B680B4AEF
S2140010109342F6D30A4B7B600A4A7B6823F07F0331
S2140010209360094B9847094B9847FEE7C0E80100D4
S21400103000000020D40B0020D80B0020C058002051
S2140010400000000000ED00E0C18801000916000065
S21400105080B400AFFEE780B483B000AF78607B68F2
S21400106018460C37BD4680BC704780B483B000AFCE
S21400107078607B6818460C37BD4680BC7047000019
S21400108090B587B000AF78600A4B1B6804337B616D
S2140010907B699AB27B689A817B689A8907F10C0112
S2140010A004230548054CA0473861FB6818461C37E2
S2140010B0BD4690BD10140020704E0020253B010058
S2140010C090B585B000AF786039600C4B1B6808336C
S2140010D0FB60FB689AB27B689A813A687B681A6004
S2140010E07B6819687B689A8960230548054CA04789
S2140010F0B860BB6818461437BD4690BD1014002073
S214001100704E0020253B010080B584B000AF7860AB
S2140011103960124B1B680833FB60FB689AB27B6829
S2140011209A817B689B891A46396878680C4B984781
S214001130B860602239680B480B4B984702467B68BC
S2140011409A607B689B6819467868084B9847B86031
S214001150BB6818461037BD4680BD00BF101400207F
S214001160711100007C190020990D0000A9110000E3
S21400117090B587B000AFF860B9607A60BA68FB686F
S2140011801A60FB6819687B689AB260230448054CAD
S214001190A04778617B6918461C37BD4690BD00BFE6
S2140011A0704E0020213A010090B585B000AF7860FF
S2140011B03960084B1B680433FB81FA8939460423DF
S2140011C00548064CA047B860BB6818461437BD46AD
S2140011D090BD00BF10140020704E0020213A010080
S2140011E080B483B000AF78607B6818460C37BD4685
S2140011F080BC704780B483B000AF78607B681846C8
S2140012000C37BD4680BC704780B582B000AF7860B2
S2140012100348044B9847034618460837BD4680BD2A
S214001220BC4D0020F529010080B582B000AF786083
S21400123039607B68012B0CD13B684FF6FF729342F6
S21400124007D10648064B9847064A07490348074B06
S214001250984700BF0837BD4680BD00BF1414002065
S214001260E111000000000020F5110000BD6701003C
S21400127080B500AF4FF6FF710120014B984780BD47
S2140012802912000080B483B000AF78607B681846EF
S2140012900C37BD4680BC704780B483B000AF786022
S2140012A07B6818460C37BD4680BC704780B584B056
S2140012B000AF78601548164B984703461A467B6879
S2140012C0DA667B68DB6E012B06D11048114B984717
S2140012D01148124B98470EE07B68DA6E07F10C0354
S2140012E0114618460E4B984707F10C031A46002184
S2140012F00C480D4B98477B68DB6E002B14BF012310
S2140013000023DBB218461037BD4680BD4C3A00209D
S214001310B9140100E5160100585400206966010062
S214001320D1020000F80B0020BD06000080B582B098
S21400133000AF786039603868084B98473868084BC3
S21400134098477A683B687033186810601B79137189
S21400135000BF78680837BD4680BD00BF6513000033
S214001360A513000080B584B000AF78600023FB6052
S21400137001217868094B984703461A467B6883F82C
S21400138071207868064B984703461A467B6883F8B0
S2140013907020002318461037BD4680BDED130000B0
S2140013A0A914000080B584B000AF78600023FB600D
S2140013B00C4B1B7CDAB27B6883F87220094B5B7C93
S2140013C0DAB27B6883F872207868074B9847034642
S2140013D01A467B6883F87420002318461037BD46EB
S2140013E080BD00BF4C3A00202514000080B582B0B6
S2140013F000AF78600B46FB70084B5B78DBB2002BC7
S21400140005D00648064B9847044B00225A70034BFB
S2140014105B78DBB218460837BD4680BDBC4D002061
S2140014200D30010080B582B000AF7860134B1B7C96
S214001430DBB2002B1BD01248124B98470346002BFA
S21400144009D011490D48114B9847034610491846D4
S214001450104B984708E010490848104B9847034639
S2140014600B4918460B4B98470D480E4B9847034BB5
S2140014701B7CDBB218460837BD4680BD04530020EF
S21400148058540020696601005CCC01006D15000010
S21400149074CC01001107000078CC01008D15000007
S2140014A0482F0020350B000080B582B000AF786072
S2140014B0154B5B7ADBB2002B1FD07B68002283F8CB
S2140014C069207B6893F86930022B13DC7B6893F8FD
S2140014D069301A460C4B13449B7A19460A480B4B44
S2140014E098477B6893F869300133DAB27B6883F8F3
S2140014F06920E6E7044B00225A72034B5B7ADBB2A4
S21400150018460837BD4680BD044E00201D32010037
S21400151080B485B000AF786039603A687B68603325
S21400152093E8030082E803003B68FB600023BB608F
S214001530BB68032B12D83B685A68FB681B680120FF
S214001540B96800FA01F10B401A443B685A60FB6820
S2140015500433FB60BB680133BB60E9E77B685B6E06
S21400156018461437BD4680BC7047000080B582B070
S21400157000AF7860396039687868034B98477B68B5
S21400158018460837BD4680BDC959010080B582B0EF
S21400159000AF7860396039687868034B98477B6895
S2140015A018460837BD4680BDC959010080B582B0CF
S2140015B000AF786039607B68012B0CD13B684FF632
S2140015C0FF72934207D10648064B9847064A0749DA
S2140015D00348074B984700BF0837BD4680BD00BF8D
S2140015E01814002085120000000000209912000048
S2140015F0BD67010080B500AF4FF6FF710120014BBB
S214001600984780BDAD15000080B582B000AF404B56
S21400161098474048404B98476420404B984740497D
S2140016203C48404B984703463D4918463D4B984733
S21400163003463D4918463D4B9847034638491846E9
S214001640384B98473A4933483A4B984703463A4905
S2140016501846384B9847034638491846384B98473B
S214001660034638491846384B984703462C491846CF
S2140016702C4B984703462A4918462A4B98474FF45E
S21400168000113248324B98473248334B984731481E
S214001690324B984732491F48324B984703462049F9
S2140016A01846204B98472B482F4B98470346FB710C
S2140016B02E4918482E4B98470246FB1D19461046E1
S2140016C02C4B9847034616491846164B98472A4807
S2140016D02A4B9847034683F00103DBB2002B04D065
S2140016E000212748274B984703E000212448264B33
S2140016F098474FF47A70094B98470B4905480B4BAF
S2140017009847034606491846064B9847F1E700BF38
S214001710B131000004530020695501001D4E000041
S214001720D8CC01001107000010CD01008D17000075
S21400173034CD0100AD17000040CD01004CCD0100B6
S214001740CD17000054CD0100ED17000090140020C6
S2140017503D190000F80B0020490300006904000052
S21400176060CD01000D180000E504000078CD0100F2
S2140017702D180000E9060000342F0020791F000015
S214001780482F0020792F0000C124000080B582B0C9
S21400179000AF7860396039687868034B98477B6893
S2140017A018460837BD4680BDC959010080B582B0CD
S2140017B000AF7860396039687868034B98477B6873
S2140017C018460837BD4680BDC959010080B582B0AD
S2140017D000AF7860396039687868034B98477B6853
S2140017E018460837BD4680BDC959010080B582B08D
S2140017F000AF7860396039687868034B98477B6833
S21400180018460837BD4680BDC959010080B582B06C
S21400181000AF7860396039687868034B98477B6812
S21400182018460837BD4680BDC959010080B582B04C
S21400183000AF7860396039687868034B98477B68F2
S21400184018460837BD4680BDC959010080B582B02C
S21400185000AF78607B681846034B98477B6818464D
S2140018600837BD4680BD00BF290D000080B582B098
S21400187000AF78607B681846174B98477B6803F282
S214001880EC431846154B98477B6803F5CC6318461F
S214001890134B98477B6803F5CE631846114B984761
S2140018A07B6803F22C7318460F4B98477B68002220
S2140018B0C3F860297B680022C3F84C297B684FF484
S2140018C00072C3F864297B680022C3F868297B6825
S2140018D018460837BD4680BDFD0D00004D200000AF
S2140018E057100000291C0000610E000080B582B071
S2140018F000AF78607B6803F5CE6318460B4B9847BD
S2140019007B6803F5CC631846094B98477B6803F25F
S214001910EC431846074B98477B681846064B984793
S2140019207B6818460837BD4680BD00BF3D1C0000DA
S2140019306B1000004D1800002D0E000080B582B020
S21400194000AF786039601D481D4B98470346002B52
S21400195009D01C491C481D4B984703461C4918468D
S2140019601C4B984708E01C491748184B98470346F5
S21400197017491846174B98471848194B9847034677
S214001980002B09D017491048174B984703461049B3
S2140019901846104B984708E014490B48124B9847D6
S2140019A003460B4918460B4B984739687868104B26
S2140019B0984700BF18460837BD4680BDE44E002055
S2140019C07542010088CD010004530020AD1B0000C5
S2140019D0A8CD010011070000ACCD0100704E00201C
S2140019E0BD380100CCCD010031070000ECCD010070
S2140019F0211A000080B582B000AF78600B46FB70FD
S214001A001346BB70BA78FB7819460348034B9847D1
S214001A1000BF0837BD4680BD803D0020B9220100CA
S214001A2080B582B000AF786039607B681846124B8C
S214001A30984702467B68C3F858297B68D3F858391C
S214001A40002B13D13B68002B09D07B683A68C3F89B
S214001A5058297B68002283F85029012307E00022DA
S214001A6003217868054B9847002300E001231846B9
S214001A700837BD4680BD00BFF5430100F5190000DC
S214001A8080B584B000AF786039607B6803F5CE63BC
S214001A90396818460F4B9847F8607B6803F2EC43AA
S214001AA06022396818460C4B984702467B68C3F894
S214001AB09C2A7B6803F5CE627B68D3F89C3A19466D
S214001AC01046064B9847F860FB6818461037BD4628
S214001AD080BD00BF251E0000990D00008D1E000071
S214001AE080B584B000AF786039600B4B1B68CC3390
S214001AF0FB607B6803F52A63BB60BA68FB68134427
S214001B00BB60BB68602239681846044B9847BB68C0
S214001B1018461037BD4680BD302F0020598B010077
S214001B2080B584B000AF78603960396878680E4B4D
S214001B309847F8607B6803F2EC43602239681846E1
S214001B400A4B984702467B68C3F89C2A7B68D3F802
S214001B509C3A19467868064B9847F860FB68184622
S214001B601037BD4680BD00BFE11A0000990D000089
S214001B70751B000080B485B000AF786039600A4BF2
S214001B801B68CC33FB607B6803F52A631A46FB6848
S214001B901344BB60BB683A681A60BB6818461437C3
S214001BA0BD4680BC704700BF302F002080B582B095
S214001BB000AF7860396039687868034B98477B686F
S214001BC018460837BD4680BDC959010080B582B0A9
S214001BD000AF786039607B68012B0CD13B684FF60C
S214001BE0FF72934207D10648064B9847064A0749B4
S214001BF00348074B984700BF0837BD4680BD00BF67
S214001C00901400206D18000000000020ED18000061
S214001C10BD67010080B500AF4FF6FF710120014B94
S214001C20984780BDCD1B000080B483B000AF7860BD
S214001C307B6818460C37BD4680BC704780B483B0BE
S214001C4000AF78607B6818460C37BD4680BC70478E
S214001C5080B584B000AF78603960074B1B681033DE
S214001C60FB60FA6839687868044B9847B860BB68C8
S214001C7018461037BD4680BD302F0020E11C0000FE
S214001C8080B584B000AF78603960074B1B681033AE
S214001C90FB60FA6839687868044B9847B860BB6898
S214001CA018461037BD4680BD302F0020E11C0000CE
S214001CB080B584B000AF78603960074B1B6810337E
S214001CC0FB60FA6839687868044B9847B860BB6868
S214001CD018461037BD4680BD302F0020E11C00009E
S214001CE090B587B000AFF860B9607A60BA68FB68F4
S214001CF0C3F8AC20FB68D3F8AC10AC237A68044871
S214001D00044CA04778617B6918461C37BD4690BDD9
S214001D10E44E00204543010090B587B000AF7860E0
S214001D20084B1B6810337B6107F10C0104237A69AA
S214001D300548064CA0473861FB6818461C37BD4668
S214001D4090BD00BF302F0020E44E00204543010028
S214001D5090B587B000AFF860B9607A60BA68FB6883
S214001D60C3F8AC20FB68D3F8AC10AC237A68044800
S214001D70044CA04778617B6918461C37BD4690BD69
S214001D80E44E00201143010090B587B000AFF86024
S214001D90B9607A60BA68FB68C3F8B020FB68D3F80D
S214001DA0B01060237A680448044CA04778617B69C9
S214001DB018461C37BD4690BDE44E00201143010076
S214001DC080B584B000AF78603960074B1B6810336D
S214001DD0FB60FA6839687868044B9847B860BB6857
S214001DE018461037BD4680BD302F0020511D00001C
S214001DF080B584B000AF7860074B1B68CC33FB60BF
S214001E00FA6806497868064B9847B860BB68184673
S214001E101037BD4680BD00BF302F00204C2F00205D
S214001E20891D000080B584B000AF78603960074B2C
S214001E301B68CC33FB60FA6839687868044B9847AF
S214001E40B860BB6818461037BD4680BD302F0020EE
S214001E50891D000090B585B000AF78603960084BEA
S214001E601B681033FB6039460423FA680548064CA5
S214001E70A047B860BB6818461437BD4690BD00BF83
S214001E80302F0020E44E00201143010090B585B0AD
S214001E9000AF78603960084B1B68CC33FB6039466E
S214001EA00423FA680548064CA047B860BB68184685
S214001EB01437BD4690BD00BF302F0020E44E0020F2
S214001EC01143010090B585B000AF786039600D4BC6
S214001ED01B68CC331A467B68C3F8B4203A687B6824
S214001EE0C3F8B0207B68D3F8B0107B68D3F8B42072
S214001EF060230548054CA047F860FB681846143771
S214001F00BD4690BD302F0020E44E00204543010022
S214001F1090B585B000AF78600A4B1B68CC331A4684
S214001F207B68C3F8B4207B68D3F8B42007F10801B7
S214001F3004230548054CA047F860BB6818461437CC
S214001F40BD4690BD302F0020E44E002045430100E2
S214001F5080B483B000AF78607B6818460C37BD4607
S214001F6080BC704780B483B000AF78607B6818464A
S214001F700C37BD4680BC704780B483B000AF786035
S214001F807B681B78DBB218460C37BD4680BC7047B2
S214001F9080B586B000AF7860396039681248134B58
S214001FA098473B683B613B691B68FB6000237B618D
S214001FB07B691F2B0DDC01227B6902FA03F31A46AC
S214001FC0FB681A40FB681344FB607B6901337B6146
S214001FD0EEE7FB68002B02D17B6801221A70FB68D3
S214001FE018461837BD4680BD18140020111500008D
S214001FF080B582B000AF786039607B68012B0CD169
S2140020003B684FF6FF72934207D10648064B984747
S214002010064A07490348074B984700BF0837BD469E
S21400202080BD00BF342F0020511F0000000000209C
S214002030651F0000BD67010080B500AF4FF6FF7159
S2140020400120014B984780BDF11F000080B582B08B
S21400205000AF78607B681846054B98477B6800227F
S21400206083F870217B6818460837BD4680BD00BFE0
S214002070150D000080B485B000AF7860396001238C
S214002080FB733B6804225A603B68AC221A603B68CC
S21400209040F20C729A60FB7B18461437BD4680BC33
S2140020A0704780B487B000AFF860B9601346FB7124
S2140020B00023FB75FB7D18461C37BD4680BC704769
S2140020C090B585B000AF78603960002303F5A16253
S2140020D04423022178681E4CA0470346FB73FB7B13
S2140020E0002B03D0002303F21453BB60FB7B3A683B
S2140020F05268022A0CBF01220022D2B21340002BE3
S21400210014BF01230023FB73FB7B3A681268382A4E
S2140021100CBF01220022D2B21340002B14BF0123B1
S2140021200023FB73FB7B3A68926840F20C718A428C
S2140021300CBF01220022D2B21340002B14BF012391
S2140021400023FB73FB7B18461437BD4690BD00BFCB
S2140021504122000090B585B000AF78603960012359
S214002160FB733B6802225A603B6838221A603B6861
S21400217040F20C729A60002303F21453BB600023F3
S21400218003F5A1631A4602217868074B9847002397
S21400219003F5A162442302217868044CA047FB7B28
S2140021A018461437BD4690BD0123000021230000C9
S2140021B080B483B000AF7860396000BF0C37BD468E
S2140021C080BC704780B586B000AF7860174B5B6800
S2140021D07B617B68C43319461548164B98473861AF
S2140021E03B69002B01D000231CE01148124B984796
S2140021F0F86078687B68C433AC2219460F4B984762
S214002200B860FA68BB689A420BD17B68D3F8C830CE
S2140022103B613A697B699A428CBF01230023DBB29B
S21400222000E0002318461837BD4680BDA4C801004C
S214002230001B0020B11C0000191D0000990D0000B5
S21400224080B489B000AFF8607A603B600B46FB72E2
S2140022503B69084A934205D17A693B689A4201D1A4
S214002260012300E00023FB77FB7F18462437BD469A
S21400227080BC70476918031480B584B000AF7860DE
S21400228039600B480B4B9847F8607B6860223968CA
S2140022901846094B9847B860FA68BB689A420CBF64
S2140022A001230023DBB218461037BD4680BD00BFB1
S2140022B0001B0020111F0000990D000080B584B09F
S2140022C000AF786039600B480B4B9847F8607B6826
S2140022D0602239681846094B9847B860FA68BB68A8
S2140022E09A420CBF01230023DBB218461037BD46C6
S2140022F080BD00BFF01A002081100000990D00007C
S21400230080B489B000AFF8600B467A60FB72002399
S2140023107B610023BB6100BF2437BD4680BC70478D
S21400232080B489B000AFF8607A603B600B46FB7201
S214002330044B7B613B68BB6100BF2437BD4680BC55
S214002340704700BF6918031480B582B000AF78608C
S2140023507B684FF6FF721A807B684FF6FF725A80D2
S2140023607B6800225A607B68083300211846054BBC
S21400237098477B680022DA607B6818460837BD46B7
S21400238080BD00BFD102000090B583B000AF78607A
S21400239039603B68002B01D100230CE07B681B688A
S2140023A004331C683868064B984703461A46396853
S2140023B07868A047034618460C37BD4690BD00BF58
S2140023C0818D010080B582B000AF78607B681846CA
S2140023D00D4B98477B6803F5207318460B4B9847C0
S2140023E00B4A7B681A600B4B00225A607A687B683F
S2140023F002F55770043360221946074B98477B68EE
S21400240018460837BD4680BD8509000085120000C5
S2140024102CCF01009C4D0020598B010080B582B066
S21400242000AF7860084A7B681A607B6803F5207303
S2140024301846064B98477B681846054B98477B68B6
S21400244018460837BD4680BD2CCF01009912000003
S214002450E509000080B582B000AF78600348044B01
S2140024609847034618460837BD4680BD141400201A
S2140024700912000080B582B000AF78600B46FB7092
S214002480FB78002B0DD108490848094B98470346AE
S21400249008491846084B98474FF47A70074B9847F8
S2140024A000BF0837BD4680BD0CCE01000453002097
S2140024B07130000030CE0100110700001D4E0000F4
S2140024C090B58BB002AF78600B46FB70FB78002BA4
S2140024D00DD15A495A485B4B984703465A49184605
S2140024E05A4B98474FF47A70594B9847A2E007F139
S2140024F008031846574B98470023FB610023FB76DA
S2140025007B6803F56F7319465348544B98477B68AE
S2140025100022C3F878235248524B98470346002BB4
S21400252019D04F48504B984702467B68C3F81C2486
S2140025307B68D3F81C34002B08DB7B68D3F81C348C
S21400254041F28732934201DC012200E000227B68E0
S21400255083F8202402E04548454B98477B68184698
S214002560444B98470023002B03D07B681846424B09
S21400257098477B6803F2244319464048404B9847E7
S21400258002467B68C3F8D4247B68D3F8D434002B87
S21400259005D078680023012200213A4CA0477B68CA
S2140025A003F5477319463848384B9847034683F077
S2140025B00103DBB2002B02D07868354B98473548CC
S2140025C0354B9847FB7E002B07D007F10801002308
S2140025D002227868314CA04706E007F10801002384
S2140025E0012278682D4CA04707F1080319462C48AD
S2140025F02C4B98472C482D4B98470346002B15D05C
S2140026002B4B1B6807F1080100934FF400734FF43F
S21400261000722348274CA0470346002BEAD007F158
S214002620080319467868244B9847E3E70021786842
S214002630224B98472437BD4690BD00BF34CE0100DC
S214002640045300209130000030CE01001107000036
S2140026501D4E000049230000F01A0020C1100000A3
S21400266020510020994E0100C14D01009014002019
S2140026704D0E0000590A0000850C0000001B0020CB
S214002680811C0000050A00007C190020C120000003
S214002690C12600001814002065130000892E0000D3
S2140026A09C4D0020912701005013002011090000C6
S2140026B078E40100B925010065270000792F0000A5
S2140026C080B582B000AF786000217868024B9847EA
S2140026D000BF0837BD4680BDDD26000080B582B04D
S2140026E000AF78600B46FB70FA787B68C3F8282347
S2140026F07B6803F54B717B68D3F82833DBB21A4648
S2140027007868094B98477B6803F54773194607486E
S214002710074B984703461A467B68C3F8D82400BF81
S2140027200837BD4680BD00BF352700007C19002055
S2140027305521000080B586B000AFF860B96013463A
S214002740FB71FB791A46B9680448054B984703465F
S214002750FB75FB7D18461837BD4680BD7C190020EA
S214002760A320000080B584B000AF786039607B6835
S214002770D3F87833022B05D07B68D3F878237B68B0
S214002780C3F87C233B681B891A467B68C3F878230A
S2140027903B685B891A467B68C3F884236A486B4BA0
S2140027A0984703461A467B68C3F8882368496948F1
S2140027B0694B98477B68D3F87C33684A52F82330D5
S2140027C019466448664B984766496248664B984780
S2140027D07B68D3F87833614A52F8233019465D484F
S2140027E05F4B984761495B48614B984702467B6858
S2140027F003F56173194610465E4B98470246292337
S214002800FB7307F10F03194610465B4B98470346C8
S2140028105A4918465A4B984778685A4B98477B68E7
S214002820D3F87833013B0F2B00F2848001A252F8D4
S21400283023F000BF752800008528000095280000BA
S214002840A5280000B5280000C5280000352900008E
S21400285035290000D5280000F5280000352900009D
S214002860E52800003529000005290000152900008C
S214002870252900007B68D3F8843319467868424BD4
S21400288098475CE07B68D3F88433194678683F4BFA
S214002890984754E07B68D3F88433194678683C4BF5
S2140028A098474CE07B68D3F8843319467868394BF0
S2140028B0984744E07B68D3F8843319467868364BEB
S2140028C098473CE07B68D3F8843319467868334BE6
S2140028D0984734E07B68D3F8843319467868304BE1
S2140028E098472CE07B68D3F88433194678682D4BDC
S2140028F0984724E07B68D3F88433194678682A4BD7
S21400290098471CE07B68D3F8843319467868274BD1
S214002910984714E07B68D3F8843319467868244BCC
S21400292098470CE07B68D3F8843319467868214BC7
S214002930984704E0022178681D4B984700BF00BF07
S2140029401037BD4680BD00BFA0520020595201007E
S21400295054CE010004530020B130000004000020D3
S2140029608923000080CE0100D130000088CE01000F
S214002970AD170000ED0C0000F130000030CE010075
S21400298011070000E92E0000B9290000952A000072
S214002990552B0000ED2B00007D2C0000E52C0000E0
S2140029A01D2D0000692D0000A12D0000E12D000066
S2140029B0192E0000512E000090B589B000AF786047
S2140029C0396007F10C031846224B98470023FB8317
S2140029D021492248224B984702463B461946104654
S2140029E0204B9847034620491846204B98472048D6
S2140029F0204B9847204B1B78DBB2002B21D01F4979
S214002A0016481F4B9847034617491846174B9847D2
S214002A1078681C4B98470346FB83FB8B002B0CD136
S214002A2007F10C01002303227868174CA04707F132
S214002A300C0319460E48154B98470D480D4B984702
S214002A4003E000217868124B984700BF2437BD4644
S214002A5090BD00BF4923000094CE0100045300201F
S214002A6015310000ED0C000030CE0100110700000B
S214002A709C4D002079280100342F0020B8CE01009C
S214002A800D180000C52E0000892E000091270100B9
S214002A90792F000090B589B000AF7860396007F1F3
S214002AA00C031846244B98477B68D3F87833FB779B
S214002AB00023BB837B6803F5577319461F48204BDA
S214002AC09847BB8B002B25D17B68D3F87833092B2E
S214002AD002D00A2B0BD012E07B68D3F878339AB278
S214002AE007F10C0101237868164CA04712E007F1A5
S214002AF00C0100230A227868124CA0470AE07B6883
S214002B00D3F878339AB207F10C01002378680D4C9D
S214002B10A04700BFFA7F7B68C3F878230A480B4BB0
S214002B20984707F10C0319460748094B984700BF1A
S214002B302437BD4690BD00BF492300007C19002005
S214002B40B1210000892E00009C4D0020792801004C
S214002B509127010080B588B000AF7860396007F132
S214002B600C031846184B98470023FB77174918485C
S214002B70184B9847034618491846184B98477A68E2
S214002B8092F8B8336FF3410382F8B8337A6892F854
S214002B90B8336FF3C30382F8B8337A6892F8B83361
S214002BA06FF3820382F8B8330D4B1A687B68C3F85C
S214002BB0B02307F10C0319460A480B4B984700BF91
S214002BC02037BD4680BD00BF49230000D0CE01009F
S214002BD0045300200D18000030CE0100110700003D
S214002BE078E401009C4D00209127010080B58AB052
S214002BF000AF7860396007F10C031846154B98470C
S214002C00002387F827307B6893F8B833C3F3801324
S214002C10DBB2002B01D0012300E000233B620E490B
S214002C200E480F4B984703460E4918460E4B9847DA
S214002C300E480F4B9847034603F57A63FB6107F18E
S214002C400C0319460B480C4B984700BF2837BD4667
S214002C5080BD00BF49230000E8CE010004530020D9
S214002C603531000030CE010011070000A0520020D0
S214002C70595201009C4D00209127010080B588B074
S214002C8000AF7860396007F10C031846124B98477E
S214002C900023FB777A6892F8B8336FF3451382F80F
S214002CA0B8337B68D3F848334FF47A7202FB03F2EA
S214002CB07B68C3F898237A6892F8B8336FF30413E6
S214002CC082F8B83307F10C0319460448044B9847BA
S214002CD000BF2037BD4680BD492300009C4D002024
S214002CE09127010080B588B000AF7860396007F1A1
S214002CF00C031846064B98470023FB7707F10C0396
S214002D0019460448044B984700BF2037BD4680BD8F
S214002D10492300009C4D00209127010080B588B013
S214002D2000AF7860396007F10C0318460B4B9847E4
S214002D300023FB770123BB7701237B773B68002BBF
S214002D4014BF012300233B7707F10C031946044800
S214002D50044B984700BF2037BD4680BD492300007E
S214002D609C4D00209127010080B588B000AF7860A8
S214002D70396007F10C031846064B98470023FB778B
S214002D8007F10C0319460448044B984700BF203748
S214002D90BD4680BD492300009C4D002091270100C0
S214002DA080B588B000AF7860396007F10C0318462C
S214002DB0084B98470023FB770123BB773B68BB8310
S214002DC007F10C0319460448044B984700BF203708
S214002DD0BD4680BD492300009C4D00209127010080
S214002DE080B588B000AF7860396007F10C031846EC
S214002DF0064B98470023FB7707F10C031946044857
S214002E00044B984700BF2037BD4680BD49230000CD
S214002E109C4D00209127010080B588B000AF7860F7
S214002E20396007F10C031846064B98470023FB77DA
S214002E3007F10C0319460448044B984700BF203797
S214002E40BD4680BD492300009C4D0020912701000F
S214002E5080B588B000AF7860396007F10C0318467B
S214002E60064B98470023FB7707F10C0319460448E6
S214002E70044B984700BF2037BD4680BD492300005D
S214002E809C4D00209127010080B485B000AFF8600B
S214002E90B96011461A460B46FB801346BB80BB68DA
S214002EA04FF400721A80BB684FF400725A80BB68F9
S214002EB0FA881A81BB68BA885A8100BF1437BD46A3
S214002EC080BC704780B588B000AF786007F10C030F
S214002ED01846044B98470023FB83FB8B1846203785
S214002EE0BD4680BD4923000080B584B000AF786041
S214002EF007F1080319461948194B98477B6803F5EC
S214002F00597307F1080292E8030083E8030007F10B
S214002F10080319461148134B984703461A467B6820
S214002F20C3F860237B68D3F87833102B12D07B6805
S214002F3003F5577319460C480C4B98477B68D3F833
S214002F407833002B06D17B6803F55773194608487B
S214002F50084B984700BF1037BD4680BD2051002063
S214002F60314A0100214B0100F01A0020091100002F
S214002F7090140020211B000080B582B000AF78605E
S214002F800B46FB70FB78002B0DD1094909480A4B0C
S214002F909847034609491846094B98476420094B49
S214002FA09847FB7800E0FB7818460837BD4680BD9A
S214002FB004CF0100045300209130000030CE010001
S214002FC0110700001D4E000080B582B000AF78608B
S214002FD039603A687B68104603F5577360221946D5
S214002FE0024B984700BF0837BD4680BD598B01008D
S214002FF080B582B000AF786039607B683A6803F2CB
S21400300024431146AC221846024B984700BF0837A7
S214003010BD4680BD598B010080B582B000AF786098
S21400302039607B683A6803F5577311466022184684
S214003030024B984700BF0837BD4680BD598B01003C
S21400304080B582B000AF7860AC2206490648074BD0
S214003050984702467B68C3F8D02400BF0837BD46B1
S21400306080BD00BFA4C801007C190020990D000097
S21400307080B582B000AF7860396039687868034BF5
S21400308098477B6818460837BD4680BDC959010079
S21400309080B582B000AF7860396039687868034BD5
S2140030A098477B6818460837BD4680BDC959010059
S2140030B080B582B000AF7860396039687868034BB5
S2140030C098477B6818460837BD4680BDC959010039
S2140030D080B582B000AF7860396039687868034B95
S2140030E098477B6818460837BD4680BDC959010019
S2140030F080B582B000AF786039603B681B781946AF
S2140031007868034B98477B6818460837BD4680BDED
S214003110E959010080B582B000AF7860396039683F
S2140031207868034B98477B6818460837BD4680BDCD
S214003130C959010080B582B000AF7860396039683F
S2140031407868034B98477B6818460837BD4680BDAD
S214003150C959010080B582B000AF786039607B68DD
S214003160012B0CD13B684FF6FF72934207D10648FD
S214003170064B9847064A07490348074B984700BF3F
S2140031800837BD4680BD00BF482F0020C52300007D
S214003190000000201D240000BD67010080B500AFC0
S2140031A04FF6FF710120014B984780BD5531000056
S2140031B080B500AF034B9847034B9847034B98479F
S2140031C000BF80BD2945000005EF000099EE000015
S2140031D080B485B000AFF8600B467A60FB72FA7A6E
S2140031E0FB682032796843F8221000BF1437BD46CA
S2140031F05DF8047B704780B483B000AF78607B686E
S2140032001B6943F480627B681A6100BF0C37BD46B9
S2140032105DF8047B704780B483B000AF78607B684D
S2140032201B6943F400527B681A6100BF0C37BD4629
S2140032305DF8047B704780B483B000AF78607B682D
S2140032401B6943F480227B681A6100BF0C37BD46B9
S2140032505DF8047B704780B483B000AF78607B680D
S2140032601B6943F400127B681A6100BF0C37BD4629
S2140032705DF8047B704780B483B000AF78607B68ED
S2140032805B6943F480727B685A6100BF0C37BD46A9
S2140032905DF8047B704780B483B000AF78607B68CD
S2140032A05B6943F400727B685A6100BF0C37BD4609
S2140032B05DF8047B704780B483B000AF78607B68AD
S2140032C05B6943F480627B685A6100BF0C37BD4679
S2140032D05DF8047B704780B483B000AF78607B688D
S2140032E05B6943F400527B685A6100BF0C37BD46E9
S2140032F05DF8047B704780B483B000AF78607B686D
S2140033005B6943F480427B685A6100BF0C37BD4658
S2140033105DF8047B704780B483B000AF78607B684C
S2140033205B6943F400427B685A6100BF0C37BD46B8
S2140033305DF8047B704780B483B000AF78607B682C
S2140033409B6943F001027B689A6100BF0C37BD465B
S2140033505DF8047B704780B483B000AF78607B680C
S2140033609B6943F002027B689A6100BF0C37BD463A
S2140033705DF8047B704780B483B000AF78607B68EC
S2140033809B6943F080027B689A6100BF0C37BD469C
S2140033905DF8047B704780B483B000AF78607B68CC
S2140033A09B6943F400727B689A6100BF0C37BD4688
S2140033B05DF8047B704780B483B000AF78607B68AC
S2140033C09B6943F400527B689A6100BF0C37BD4688
S2140033D05DF8047B704780B483B000AF78607B688C
S2140033E09B6943F480427B689A6100BF0C37BD46F8
S2140033F05DF8047B704780B483B000AF78607B686C
S214003400DB6943F020027B68DA6100BF0C37BD46FB
S2140034105DF8047B704780B483B000AF78607B684B
S214003420DB6943F040027B68DA6100BF0C37BD46BB
S2140034305DF8047B704780B483B000AF78607B682B
S214003440DB6943F400527B68DA6100BF0C37BD4687
S2140034505DF8047B704780B483B000AF78607B680B
S2140034601B6A43F001027B681A6200BF0C37BD4638
S2140034705DF8047B704780B483B000AF78607B68EB
S2140034801B6A43F002027B681A6200BF0C37BD4617
S2140034905DF8047B704780B483B000AF78607B68CB
S2140034A01B6A43F004027B681A6200BF0C37BD46F5
S2140034B05DF8047B704780B483B000AF78607B68AB
S2140034C01B6A43F008027B681A6200BF0C37BD46D1
S2140034D05DF8047B704780B483B000AF78607B688B
S2140034E01B6A43F040027B681A6200BF0C37BD4679
S2140034F05DF8047B704780B485B000AFF8600B467B
S2140035007A60FB72FB7AFA68DB01134408337A6848
S2140035101A6000BF1437BD465DF8047B704780B460
S21400352085B000AFF8600B467A60FB72FB7AFA68EB
S214003530DB01134404337A681A6000BF1437BD46B3
S2140035405DF8047B704780B485B000AFF8600B462A
S2140035507A60FB72FB7AFA68DB01134418337A68E8
S2140035601A6000BF1437BD465DF8047B704780B410
S21400357085B000AFF8600B467A60FB72FB7AFA689B
S214003580DB01134414337A681A6000BF1437BD4653
S2140035905DF8047B704780B485B000AF786008465D
S2140035A011461A460346FB700B46BB7013467B70EB
S2140035B0FA78BB787968D2010A44134430331B7812
S2140035C0FB73FB7B23F00F03FB737B7803F00F0387
S2140035D0DAB2FB7B1343FB73FA78BB787968D201C7
S2140035E00A4413443033FA7B1A7000BF1437BD46C2
S2140035F05DF8047B704780B485B000AF78600846FD
S21400360011461A460346FB700B46BB7013467B708A
S214003610FA78BB787968D2010A44134430331B78B1
S214003620FB73FB7B03F00F03FB737B781B01DAB2A3
S214003630FB7B1343FB73FA78BB787968D2010A44A4
S21400364013443033FA7B1A7000BF1437BD465DF85A
S214003650047B704780B485B000AF7860084611469A
S2140036601A460346FB700B46BB7013467B70FA780F
S214003670BB787968D2010A44134440331B78FB7345
S214003680FB7B23F00103FB737A78FB7B1343FB730E
S214003690FA78BB787968D2010A4413444033FA7B3F
S2140036A01A7000BF1437BD465DF8047B704790B4AF
S2140036B082B000AF78600B46FB701346BB70FA789A
S2140036C0BB78F878B9787C68C00120440144403162
S2140036D00978C9B241F00401C8B27968D2010A4437
S2140036E01344403302461A7000BF0837BD4690BCEC
S2140036F0704790B482B000AF78600B46FB701346FC
S214003700BB70FA78BB78F878B9787C68C00120443A
S214003710014440310978C9B221F00401C8B2796881
S214003720D2010A441344403302461A7000BF0837D9
S214003730BD4690BC704780B485B000AFF8600B46BD
S2140037407A60FB72FB7AFA68DB01134428337A68E6
S2140037501A6000BF1437BD465DF8047B7047000052
S21400376080B582B000AF03463960FB711346BB716B
S214003770BB79012B1CD0022B37D0002B4ED1FB7906
S2140037803A6819462A482B4B98473B689BB243F049
S2140037908042FB7919462648274B98473B681B0C06
S2140037A043F04042FB7919462148234B98473AE0BC
S2140037B0FB793A6819461E481E4B98473B689BB2F1
S2140037C043F0804343F40033F9791A4618481A4BFD
S2140037D098473B681B0C43F0404343F40033F979A9
S2140037E01A461348144B98471DE0FB793A68194669
S2140037F00F48124B98473B689BB243F08042FB79D8
S21400380019460B480C4B98473B681B0C43F040424C
S214003810FB7919460648084B984704E046220849B3
S2140038200020084B984700BF0837BD4680BD00BF44
S214003830008000411F35000037370000F7340000D5
S21400384030CF01009169000080B582B000AF03461A
S2140038503960FB711346BB71BB79002B06D0FB7930
S2140038603A6819460648074B984705E0FB793A68D8
S21400387019460348044B984700BF0837BD4680BD2D
S21400388000800041473500006F35000080B582B0EB
S21400389000AF0346FB710B46BB7113467B717B7909
S2140038A0012B0AD0022B1FD0002B34D1BA79FB791A
S2140038B019461E481E4B984733E0BB7901229A40B2
S2140038C0FB79194619481B4B9847BA79FB79194674
S2140038D01648194B9847BB7901229A40FB7919463E
S2140038E01248164B98471CE0BB7901229A40FB7998
S2140038F019460E480F4B9847BA79FB7919460B487C
S2140039000D4B9847BB7901229A40FB791946074828
S2140039100B4B984705E089220A4900200A4B984736
S21400392000BF00BF0837BD4680BD00BF0080004115
S214003930F33600001F350000AF36000047350000A4
S2140039406F35000030CF01009169000090B585B05A
S21400395000AF786039607B685B09FB737B68DBB21D
S21400396003F01F03BB733B68B3F1FF3F06D1BA7B7E
S214003970F97B00231248134CA0471DE0BA7BF97B65
S21400398001230F480F4CA047BB7B03F00103002B1D
S21400399009D0BB7B5B08DAB23B68DBB2F97B084830
S2140039A0094CA04708E0BB7B5B08DAB23B68DBB299
S2140039B0F97B0348054CA04700BF1437BD4690BDB1
S2140039C00080004155360000F735000097350000AE
S2140039D080B582B000AF03460A46FB711346BB7142
S2140039E0FB795B09D8B2FB7903F01F03DBB2BA7927
S2140039F01946034B984700BF0837BD4680BD00BF39
S214003A008D38000080B582B000AF786039603968C4
S214003A107868034B984700BF0837BD4680BD00BF97
S214003A204D39000080B582B000AF03460A46FB71F0
S214003A301346BB71FB795B09D8B2FB7903F01F0311
S214003A40012202FA03F3BA791946034B984700BFDE
S214003A500837BD4680BD00BF6137000080B582B024
S214003A6000AF03460A46FB711346BB71FB795B0940
S214003A70D8B2FB7903F01F03012202FA03F3BA79E6
S214003A801946034B984700BF0837BD4680BD00BFA8
S214003A904938000080B500AF014B984700BF80BD95
S214003AA09975000080B582B000AF786039607B6899
S214003AB0002B04D03B68002B01D0012300E000233C
S214003AC003F00103DBB2482207491846074B984724
S214003AD07B683A681A607B681846054B9847034629
S214003AE018460837BD4680BD4CCF010091690000DE
S214003AF03DE9000080B500AF0448054B98470549EE
S214003B000548064B984700BF80BD00BF0008004030
S214003B10573300000020004100580020014D0000EF
S214003B2080B500AF442204212548264B98472648F6
S214003B30264B984701214020254B984700214020DE
S214003B40244B98474FF480014020234B984701218F
S214003B5004201F4B9847022104201E4B98474FF421
S214003B60802104201C4B984701210520184B9847BC
S214003B7002210520174B98474FF4A0210520164B2D
S214003B80984701215620124B984702215620114B88
S214003B9098474FF4AC0156200F4B98470121572009
S214003BA00B4B9847022157200A4B98474FF4AE011B
S214003BB05720094B9847094B984700BF80BD00BF68
S214003BC0001C0040D131000000080040B732000061
S214003BD0253A0000D1390000053A0000654E000085
S214003BE080B500AF44220B210448054B9847054892
S214003BF0054B9847054B984700BF80BD001C00400A
S214003C00D13100000008004077330000514E00001C
S214003C1080B500AF01212B202B4B984700212B208D
S214003C202A4B98472A492B202A4B984702210820DE
S214003C30254B984700210820274B9847002108204D
S214003C40224B984725490820224B984702210920F5
S214003C501D4B9847002109201F4B9847002109203B
S214003C601A4B98471E4909201A4B984702210A20EA
S214003C70154B984700210A20174B984700210A2029
S214003C80124B984717490A20124B984702210B20DF
S214003C900D4B984700210B200F4B984700210B2017
S214003CA00A4B984710490B200A4B984701212A20B7
S214003CB0054B984700212A20044B98470B492A2099
S214003CC0044B984700BF80BD253A0000D13900005C
S214003CD007002B00053A00005D3A000007000800C8
S214003CE00700090007000A0007000B0007002A006B
S214003CF080B500AF0548064B98470448054B9847E3
S214003D000248054B984700BF80BD00BF0008004032
S214003D1017320000573200003734000080B500AF7D
S214003D20044B984704490548054B9847054B984768
S214003D3000BF80BDF13C0000003400426856002001
S214003D406D540000113C000080B500AF0248034BE4
S214003D50984700BF80BD00BF0008004097320000B3
S214003D6080B500AF034B984703490448044B984777
S214003D7000BF80BD493D000000240040DC57002005
S214003D80054A000080B500AF00211020114B98476F
S214003D9002211020104B984710491020104B9847CE
S214003DA0002111200B4B9847022111200A4B9847FF
S214003DB00C4911200A4B984701211220064B9847C0
S214003DC000211220084B984708491220044B9847B8
S214003DD000BF80BD5D3A0000253A000002001000DA
S214003DE0053A000002001100D1390000020012005E
S214003DF080B500AF452208210648074B98474A225F
S214003E0003210448044B98470448054B984700BFD5
S214003E1080BD00BF001C0040D131000000080040FB
S214003E20D732000080B500AF044B984704490548D8
S214003E30054B9847054B984700BF80BDF13D0000F5
S214003E4000340040D455002049590000853D00004C
S214003E5080B500AF00210C20074B984707490C207F
S214003E60074B984700210D20034B984705490D2026
S214003E70034B984700BF80BDD139000002000C00FC
S214003E80053A000002000D0080B500AF422217215F
S214003E900648074B98474A2203210448044B984794
S214003EA00448054B984700BF80BD00BF001C00407B
S214003EB0D1310000000800409733000080B500AF05
S214003EC0044B984704490548054B9847054B9847C7
S214003ED000BF80BD893E00000020014160570020E1
S214003EE0B5EF0000513E000080B500AF00213B203A
S214003EF0114B984702213B20104B984710493B2016
S214003F00104B984700213A200B4B984702213A2045
S214003F100A4B98470C493A200A4B984701213C2007
S214003F20064B984700213C20084B984708493C2000
S214003F30044B984700BF80BD5D3A0000253A00005C
S214003F4003003B00053A000003003A00D1390000A8
S214003F5003003C0080B500AF422222210648074BF2
S214003F6098474A2203210448044B98470448054BC7
S214003F70984700BF80BD00BF001C0040D131000044
S214003F80000800405734000080B500AF054B984746
S214003F904FF086410448054B9847054B984700BFAD
S214003FA080BD00BF553F0000045600209557000016
S214003FB0E93E000080B500AF00211720074B984768
S214003FC007491720074B984700211620034B9847B0
S214003FD005491620034B984700BF80BDD139000025
S214003FE003001700053A00000300160080B500AF76
S214003FF0422223210648074B9847462203210448BD
S214004000044B98470448054B984700BF80BD00BF47
S214004010001C0040D131000000080040773400004A
S21400402080B500AF044B984704490548054B9847B0
S214004030054B984700BF80BDED3F000000040043DD
S21400404020570020C9510000B53F000080B500AFE2
S21400405000214420114B984702214420104B9847DA
S21400406010494420104B9847002145200B4B984799
S214004070022145200A4B98470C4945200A4B984791
S21400408001214720064B984700214720084B9847B8
S21400409008494720044B984700BF80BD5D3A0000A2
S2140040A0253A000002004400053A000002004500E0
S2140040B0D13900000200470080B500AF422224211B
S2140040C00648074B98474A2203210448044B984762
S2140040D00448054B984700BF80BD00BF001C004049
S2140040E0D1310000000800409734000080B500AFD2
S2140040F0044B984704490548054B9847054B984795
S21400410000BF80BDB940000000080043EC55002009
S214004110495900004D40000080B500AF00216820DE
S214004120074B984707496820074B984700216920A6
S214004130034B984705496920034B984700BF80BD4D
S214004140D139000002006800053A0000020069004C
S21400415080B500AF422225210648074B98474A22E1
S21400416003210448044B98470448054B984700BF72
S21400417080BD00BF001C0040D13100000008004098
S214004180B734000080B500AF044B98470449054893
S214004190054B9847054B984700BF80BD514100002E
S2140041A0000C00439C570020C95100001941000034
S2140041B080B500AF0848094B9847432209210848B4
S2140041C0084B9847084B984703461A46074908483D
S2140041D0084B984700BF80BD00080040F73200003B
S2140041E0001C0040D1310000A9BD0000003800408E
S2140041F004570020D95B000080B500AF0848094B83
S2140042009847452209210848084B9847084B984785
S21400421003461A4607490848084B984700BF80BD22
S2140042200008004017330000001C0040D131000099
S214004230A9BD0000003C00406C560020D95B000081
S21400424080B500AF0848094B984744221A21084811
S214004250084B9847084B984703461A4607490848AC
S214004260084B984700BF80BD00080040B7330000E9
S214004270001C0040D1310000A9BD000000A0014193
S214004280E8560020D95B000080B500AF0848094B0F
S214004290984745221A210848084B9847084B9847E4
S2140042A003461A4607490848084B984700BF80BD92
S2140042B000080040D7330000001C0040D131000049
S2140042C0A9BD000000C0014180570020D95B000056
S2140042D080B500AF0848094B984746221E2108487B
S2140042E0084B9847084B984703461A46074908481C
S2140042F0084B984700BF80BD00080040F733000019
S214004300001C0040D1310000A9BD0000001400428E
S2140043104C560020D95B000080B500AF0848094B1A
S214004320984746221E210848084B9847084B98474E
S21400433003461A4607490848084B984700BF80BD01
S2140043400008004017340000001C0040D131000077
S214004350A9BD00000018004288560020D95B000066
S21400436080B400AF00BFBD465DF8047B7047000018
S21400437080B500AF0448054B98474B2227210448D8
S214004380044B984700BF80BD00080040D7340000AB
S214004390001C0040D131000080B500AF064B9847A6
S2140043A0064B9847064B984703461A460549064863
S2140043B0064B984700BF80BD714300006143000074
S2140043C0B9BD000000180043A45600206D5300003D
S2140043D080B500AF022118200F4B98470021182007
S2140043E00E4B9847002118200D4B98470D49182072
S2140043F00D4B984702211920074B9847002119209A
S214004400064B984700211920054B98470749192065
S214004410054B984700BF80BD253A00005D3A000076
S214004420D139000007001800053A000007001900FF
S21400443080B500AF42220A210548064B9847064839
S214004440064B98470448064B984700BF80BD00BF00
S214004450001C0040D131000000080040F731000089
S2140044603733000080B500AF034B9847034B98479F
S214004470034B984700BF80BD31440000E96300004D
S214004480D143000080B500AF0248034B984700BFF9
S21400449080BD00BF000800407732000080B500AF46
S2140044A0034B984703490448044B984700BF80BD18
S2140044B08544000000200040FC570020A53A00007C
S2140044C080B500AF04492D20044B984704492C20A2
S2140044D0024B984700BF80BD07002D00053A00003C
S2140044E007002C0080B500AF0748084B98474322CA
S2140044F01C210748074B984707490848084B984728
S214004500084B984700BF80BD0008004037320000C7
S214004510001C0040D131000000040042C0560020BC
S214004520154C0000C144000080B500AF514B9847C1
S21400453001210F20504B984702210F204F4B9847E0
S2140045404FF0FF310F204E4B9847012113204A4B66
S214004550984702211320494B98474FF0FF3113200C
S214004560474B984701212720444B98470221272094
S214004570444B98474FF0FF312720414B9847012185
S2140045803D203D4B984702213D203C4B98474FF03D
S214004590FF313D203A4B984701213F20374B984743
S2140045A001213F20374B98474FF0FF313F20344BD7
S2140045B0984700214D20304B984702214D202F4B25
S2140045C098474FF0FF314D202D4B984701214E2044
S2140045D0294B984702214E20284B98474FF0FF3131
S2140045E04E20274B984700214F20234B9847022107
S2140045F04F20224B98474FF0FF314F20204B9847D3
S214004600002152201C4B9847022152201B4B9847F2
S2140046104FF0FF3152201A4B98471B4B98471B4BC5
S21400462098471B4B98471B4B98471B4B98471B4B71
S21400463098471B4B98471B4B98471B4B98471B4B61
S21400464098471B4B98471B4B98471B4B98471B4B51
S21400465098471B4B98471B4B98471B4B98471B4B41
S21400466098471B4B98471B4B98471B4B984700BFD8
S21400467080BD00BF953A00005D3A0000253A000074
S214004680053A0000D1390000F53A0000213B000051
S214004690E13B00001D3D0000613D0000253E00009E
S2140046A0BD3E0000893F000021400000ED400000B4
S2140046B085410000B1410000F94100004142000080
S2140046C089420000D14200001943000099430000CF
S2140046D0654400009D440000E544000080B483B0BB
S2140046E000AF0346FB80FB8803F00303002B01D0DA
S2140046F0002300E0012318460C37BD465DF8047B16
S2140047007047000080B584B000AF78600B46FB7041
S2140047100023FB607B689BB218462F4B98470346E6
S214004720002B28D0FB78013B0B2B4CD801A252F86B
S21400473023F000BF654700006B4700006547000098
S214004740714700006547000071470000654700009C
S214004750654700007147000065470000714700008C
S214004760654700001D4BFB6030E01D4BFB602DE0F5
S2140047701C4BFB602AE0FB78013B0B2B25D801A2E3
S21400478052F823F0B5470000BB470000B5470000CD
S214004790C1470000B5470000C1470000B54700000C
S2140047A0B5470000C1470000B5470000C1470000FC
S2140047B0B5470000094BFB6008E00B4BFB6005E0CB
S2140047C0084BFB6002E000BF00E000BFFB68184635
S2140047D01037BD4680BD00BFDD46000080DE2800E5
S2140047E0803B2600008D270000EA240080B58AB0B2
S2140047F000AFF860B9607A60FB689B693B62012392
S214004800FB770123BB7700237B7700233B77BB68CE
S2140048107B623B6A9BB21846324B98470346002B96
S21400482001D0314B00E0314BBB617A6ABB699A42DA
S21400483007D37A6ABB69D31A7B623B6A01333B6251
S214004840E7E7FB7F1946386A294B984778617A6A0A
S2140048507B699A4207D37A6A7B69D31A7B62FB7FAD
S2140048600133FB77EDE77B6A224A934209D97B6ADC
S214004870A3F5A833A3F5C0737B62BB7F0133BB7778
S214004880F1E77B6AB3F5616F07D37B6AA3F56163D3
S2140048907B627B7F01337B77F3E77B6A3B2B06D912
S2140048A07B6A3C3B7B623B7F01333B77F5E700BF8F
S2140048B03B6A9AB27B68DA807B68FA7F5A717B68BB
S2140048C0BA7F1A717B687A7F9A707B683A7F5A70D3
S2140048D07B6ADAB27B681A70002318462837BD4612
S2140048E080BD00BFDD4600000085E2018033E101A7
S2140048F0054700007F51010080B586B000AF7860A4
S214004900396000237B6100233B613B68DB88DAB2B9
S2140049107B689B69DBB2D31AFB733B685B79BB731E
S2140049203B681B797B733B689B783B733B685B7883
S214004930FB723B681B78BB7200233B611AE07B6806
S2140049409B699AB23B699BB213449BB21846294BAB
S21400495098470346002B06D07B6903F1F17303F5F5
S21400496005437B6103E07A69234B13447B613B6913
S21400497001333B61FA7B3B699A42E0D801233B61F5
S2140049800FE03B68DB881A463B69DBB219461046E7
S2140049901A4B984702467B6913447B613B69013397
S2140049A03B61BA7B3B699A42EBD87B7B013B144A5E
S2140049B002FB03F31A467B6913447B613B7B4FF48F
S2140049C0616202FB03F31A467B6913447B61FA7A41
S2140049D013461B019B1A9B001A467B6913447B6196
S2140049E0BB7A7A6913447B617B6918461837BD46E3
S2140049F080BD00BFDD4600008033E10105470000B2
S214004A008051010080B584B000AF78603960002323
S214004A10FB607B68002B14BF01230023DBB24FF43E
S214004A20E07211491846114B98477B681A683B6834
S214004A309A4201D1002313E07B681B68002B02D04A
S214004A406FF011030CE07B683A681A607B681846C2
S214004A50074B9847F8607B6840F2B2729A61FB6831
S214004A6018461037BD4680BD68CF0100916900002A
S214004A708592000080B582B000AF78607B68002B1E
S214004A8014BF01230023DBB240F2E51206491846A4
S214004A90064B98477B681846054B984700231846F0
S214004AA00837BD4680BD00BF68CF01009169000091
S214004AB03D93000080B586B000AF786039607B68B3
S214004AC0002B14BF01230023DBB24FF403721549F9
S214004AD01846154B98477B681846144B98477861DC
S214004AE007F108031A4679697868114B98473B68BE
S214004AF01B783B723B685B787B723B689B78BB722B
S214004B0007F10803194678680A4B984738617B68AE
S214004B1039691846084B9847002318461837BD468B
S214004B2080BD00BF68CF010091690000D9930000E6
S214004B30ED470000F94800008993000080B586B074
S214004B4000AF786039607B68002B14BF0123002318
S214004B50DBB24FF4097215491846154B98477B6827
S214004B601846144B9847786107F108031A46796986
S214004B707868114B98473B681B783B733B685B78BB
S214004B807B733B685B88FB8107F1080319467868EE
S214004B900A4B984738617B6839691846084B98472E
S214004BA0002318461837BD4680BD00BF68CF0100F9
S214004BB091690000D9930000ED470000F948000015
S214004BC08993000080B584B000AF786039607B6858
S214004BD0002B14BF01230023DBB240F23B2209491D
S214004BE01846094B98477B681846084B9847F86064
S214004BF03A68F9687868064B9847002318461037D5
S214004C00BD4680BD68CF010091690000D9930000C1
S214004C10ED47000080B584B000AF786039607B68EF
S214004C20002B04D03B68002B01D0012300E00023BA
S214004C3003F00103DBB241220E4918460E4B98479B
S214004C407B68396818460D4B9847F860FB68002B60
S214004C5001D0FB6809E07B68094A5A607B68094A0C
S214004C609A607B68084ADA60002318461037BD460B
S214004C7080BD00BF84CF010091690000ED6E00008A
S214004C808D4C0000B14C0000D54C000080B584B0BF
S214004C9000AF78607B68FB60FB68DB69002B03D0A5
S214004CA0FB68DB69F868984700BF1037BD4680BDD3
S214004CB080B584B000AF78607B68FB60FB681B6AD9
S214004CC0002B03D0FB681B6AF868984700BF1037B4
S214004CD0BD4680BD80B584B000AF78600B46FB70E3
S214004CE07B68FB60FB685B6A002B05D0FB685B6A31
S214004CF0FA781146F868984700BF1037BD4680BD61
S214004D0080B582B000AF786039607B68002B04D035
S214004D103B68002B01D0012300E0002303F00103D1
S214004D20DBB22B2206491846064B98477B68396843
S214004D301846054B9847034618460837BD4680BDBB
S214004D40A0CF0100916900001577000080B582B001
S214004D5000AF78607B68002B14BF01230023DBB212
S214004D603F2206491846064B98477B681846054B6F
S214004D709847034618460837BD4680BDA0CF0100B9
S214004D80916900003377000090B585B000AFF860F9
S214004D90B9607A603B60FB68002B0AD0BB68002BCA
S214004DA007D07B68002B04D03B68002B01D0012382
S214004DB000E0002303F00103DBB253220749184644
S214004DC0074B9847F8683B687A68B968054CA0476F
S214004DD0034618461437BD4690BD00BFA0CF01005D
S214004DE0916900004977000090B583B000AF034694
S214004DF0FB80074B1C68FB881846064B9847034603
S214004E0019462046044B984700BF0C37BD4690BD58
S214004E102434002045730000D974000090B583B098
S214004E2000AF0346FB80074B1C68FB881846064B02
S214004E309847034619462046044B984700BF0C3750
S214004E40BD4690BD24340020B1740000D974000023
S214004E5080B500AF024B98470346184680BD00BF9A
S214004E60797F000080B582B000AF0023FB800EE0A3
S214004E70FB880C4ADB0013444FF0FF325A60FB8875
S214004E80084A002142F83310FB880133FB80FB8878
S214004E90042BEDD90448054B9847034618460837B7
S214004EA0BD4680BD2834002009500000857B0000E8
S214004EB080B586B000AF786039600023FB750023AC
S214004EC0BB7500237B7512E0FB7D4D4ADB00134467
S214004ED05A687B689A4207D1FB7D49493A6841F88F
S214004EE0332001237B7505E0FB7D0133FB75FB7DDD
S214004EF0042BE9D93B68002B0ED17B7D83F00103A0
S214004F00DBB2002B02D06FF00C0374E0002178684F
S214004F103C4B984703466EE07B7D83F00103DBB293
S214004F20002B5AD00023FB7516E0FB7D344A52F85E
S214004F303330002B0DD1FB7D31493A6841F83320E0
S214004F40FB7D2F4ADB0013447A685A6001237B7589
S214004F5005E0FB7D0133FB75FB7D042BE5D936E0D0
S214004F60FB7D274ADB0013445A68BB7D2449DB00DF
S214004F700B445B689A4227D2BB7D214ADB00134470
S214004F805B68B3F1FF3F1FD0BB7D1D4907F10C02E4
S214004F90DB000B4493E8030082E80300BB7DFA7D48
S214004FA017481749DB000344D2000A4492E803007E
S214004FB083E80300FB7D124ADB00134407F10C0272
S214004FC092E8030083E80300BB7D0133BB75BB7D1D
S214004FD0042B02D8FB7D042BC2D97B7D83F0010312
S214004FE0DBB2002B02D06FF00C0304E001217868DE
S214004FF0044B9847034618461837BD4680BD00BF89
S21400500028340020D17C000080B584B000AF7860E2
S2140050100023FB730523BB732AE0BA7BFB7B134498
S2140050205B107B737B7B042B27D87B7B164ADB00CD
S21400503013445A687B689A420BD17B7B124A52F81B
S2140050403330002B1BD07B7B0F4A52F83330984707
S21400505015E07B7B0C4ADB0013445A687B689A4257
S21400506003D27B7B0133FB7302E07B7B013BBB738C
S214005070BA7BFB7B9A42D0D202E000BF00E000BFC2
S2140050801037BD4680BD00BF2834002080B584B0F0
S21400509000AF78607B68FB607B685B889BB203F43C
S2140050A08073002B07D1FB685B6B002B03D0FB687B
S2140050B05B6BF868984700BF1037BD4680BD80B56B
S2140050C084B000AF78607B68FB607B685B889BB2CF
S2140050D003F48073002B07D1FB689B6B002B03D077
S2140050E0FB689B6BF868984700BF1037BD4680BDCD
S2140050F080B584B000AF786039607B68FB607B6801
S2140051005B889BB203F48073002B08D1FB681B6B93
S214005110002B04D0FB681B6B3968F868984700BF03
S2140051201037BD4680BD000080B58AB000AFF8607D
S214005130B9601346FB80FB68283B7B627B6A9B8FCB
S214005140BB82FB88BB6148F20103FB82BB68FB6144
S2140051507B6A07F1140211461846064B98473862D8
S2140051603B6A002B01D03B6A00E0FB8818462837D4
S214005170BD4680BD81A3000080B58AB000AFF86050
S214005180B9601346FB80FB68283B7B627B6A9B8F7B
S214005190BB82FB88BB614FF40043FB82BB68FB61AC
S2140051A07B6A07F1140211461846064B9847386288
S2140051B03B6A002B01D03B6A00E0FB881846283784
S2140051C0BD4680BD81A3000080B584B000AF786086
S2140051D039607B68002B14BF01230023DBB28922D1
S2140051E015491846154B98477B6839681846144B7E
S2140051F09847F860FB68002B01D0FB6818E07B68D6
S214005200104ADA627B68104A9A627B680F4A01216C
S21400521018460F4B98477B680E4A022118460C4BDF
S21400522098477B680C4A00211846094B984700238C
S21400523018461037BD4680BDBCCF010091690000FE
S214005240D1A1000029510000795100008D500000C6
S21400525055A40000BF500000F150000080B584B097
S21400526000AF78607B68002B14BF01230023DBB2FD
S214005270B92211491846114B98477B681846104BBF
S2140052809847F860FB68002B11D17B68012201214A
S21400529018460C4B98477B68012202211846094B9A
S2140052A098477B68012200211846064B9847FB6802
S2140052B018461037BD4680BDBCCF0100916900007E
S2140052C06DA10000E1A4000080B485B000AFF860D6
S2140052D00B467A607B817B89C3F309031AB27B682D
S2140052E01BB203F480631BB213431BB29AB2FB6873
S2140052F09A87FB689B8F18461437BD465DF8047B7B
S214005300704780B485B000AFF8600B467A60FB72D9
S214005310FB7A012B07D0022B09D0002B0BD1FB68A0
S2140053207A681A630AE0FB687A685A6306E0FB68E4
S2140053307A689A6302E06FF00C0300E000231846D8
S2140053401437BD465DF8047B704780B483B000AF69
S214005350786039607B6803F128023B681A60002396
S21400536018460C37BD465DF8047B704780B584B0A0
S21400537000AFF860B9607A60FB68002B04D0BB68A9
S214005380002B01D0012300E0002303F00103DBB271
S21400539033220A4918460A4B9847FB68B9681846EC
S2140053A0084B9847FB68084A1A60FB68074A5A6029
S2140053B0002318461037BD4680BD00BFDCCF010075
S2140053C091690000EDBA0000255400004954000021
S2140053D080B582B000AF78607B68002B14BF0123D5
S2140053E00023DBB24A220B4918460B4B98477B68D2
S2140053F018460A4B98470346002B02D06FF010035E
S21400540004E07B681846064B984700231846083782
S214005410BD4680BDDCCF01009169000089BD00005B
S21400542029BD000080B584B000AF78607B68FB6063
S214005430FB685B69002B03D0FB685B69F8689847DC
S21400544000BF1037BD4680BD80B584B000AF786021
S2140054507B68FB60FB689B69002B03D0FB689B693D
S214005460F868984700BF1037BD4680BD80B582B04B
S21400547000AF786039607B68002B04D03B68002B57
S21400548001D0012300E0002303F00103DBB2312248
S21400549006491846064B98477B6839681846054BF8
S2140054A09847034618460837BD4680BDF4CF01002E
S2140054B0916900004D8E000080B582B000AF786024
S2140054C07B68002B14BF01230023DBB23F22064972
S2140054D01846064B98477B681846054B9847034680
S2140054E018460837BD4680BDF4CF0100916900001C
S2140054F0C18E000080B582B000AF78607B68002B5C
S21400550014BF01230023DBB2462206491846064B89
S21400551098477B681846054B984703461846083751
S214005520BD4680BDF4CF010091690000E58E000005
S21400553080B582B000AF786039607B68002B04D0FD
S2140055403B68002B01D0012300E0002303F0010399
S214005550DBB24D2206491846064B98477B683968E9
S2140055601846054B9847034618460837BD4680BD83
S214005570F4CF0100916900003190000080B584B03E
S21400558000AF78607B68043BFB607B681B79012B6F
S2140055900ED8FB689A6BFB685B6C581CF96848640D
S2140055A013441B789BB219467868114B98470DE058
S2140055B0FB689A6BFB685B6C581CF96848645B0078
S2140055C013441B8819467868094B9847FB685A6C41
S2140055D0FB681B6C9A4207D100217868054B9847F8
S2140055E001217868044B984700BF1037BD4680BD40
S2140055F09DB3000061B2000035B3000090B585B0E1
S21400560000AF78607B68043BFB60FB68DB6B002BBD
S21400561021D07B681B79012B0ED8FB68DA6BFB6800
S2140056205B6C581CF9684864D41878682E4B984709
S2140056300346DBB2237016E0FB68DA6BFB685B6C34
S214005640581CF96848645B00D4187868264B98475D
S2140056500346238007E07868234B9847FB685B6C1B
S2140056605A1CFB685A64FB685A6CFB681B6C9A42AF
S21400567026D2FB689B6B002B1BD07B681B79012B0B
S2140056800BD8FB689A6BFB685B6C13441B789BB269
S21400569019467868154B984722E0FB689A6BFB68BA
S2140056A05B6C5B0013441B88194678680F4B984761
S2140056B016E07B68DB88194678680C4B98470FE045
S2140056C0002178680A4B9847FB68002283F82C2054
S2140056D0FB681B6B002B03D0FB681B6BF8689847B6
S2140056E000BF1437BD4690BDF5B300009DB3000063
S2140056F0C5B2000080B584B000AF78607B68043B1C
S214005700FB60FB685A6CFB681B6C9A420FD3002147
S2140057107868094B9847FB68002283F82C20FB68C2
S2140057201B6B002B03D0FB681B6BF868984700BF09
S2140057301037BD4680BD00BF35B3000080B584B0CD
S21400574000AF786039607B68043BFB6000217868B6
S2140057500D4B9847002178680C4B984700217868D5
S2140057600B4B9847FB68002283F82C20FB685B6B8A
S214005770002B04D0FB685B6B3968F868984700BF5D
S2140057801037BD4680BD00BF61B20000C5B2000044
S21400579035B3000080B584B000AF78603960002370
S2140057A0FB607B68002B04D03B68002B01D00123F4
S2140057B000E0002303F00103DBB2A5221C491846D3
S2140057C01C4B98477B683A685A607B680433396894
S2140057D01846194B9847F860FB68002B23DB7B685C
S2140057E00433164A00211846154B98477B68043345
S2140057F0144A01211846124B98477B680433124A14
S214005800022118460E4B98477B6804330F4A032143
S21400581018460B4B98477B680D4A9A627B680D4A80
S2140058205A62002300E0FB6818461037BD4680BD6C
S21400583010D0010091690000C1AE00007D55000047
S21400584045B40000FD550000F55600003D57000029
S21400585059580000D958000080B586B000AFF860EF
S214005860B9601346FB80FB68002B14BF012300239E
S214005870DBB240F2051214491846144B9847FB68F1
S214005880243B7B617B69BA68DA637B6900229A6392
S214005890FA887B691A647B6900225A647B69102245
S2140058A083F82C207B69043301211846084B98475F
S2140058B07B69043340F2FF111846064B98470023D5
S2140058C018461837BD4680BD10D00100916900000B
