:1000000050000120E1020000DD020000DD020000DE
:10001000DD020000DD020000DD0200000000000043
:10002000000000000000000000000000DD020000F1
:10003000DD02000000000000DD020000DD02000023
:10004000DD020000DD020000DD020000DD02000034
:10005000DD020000DD020000DD020000DD02000024
:10006000DD020000DD020000DD0200007907000073
:10007000DD020000DD020000DD020000DD02000004
:10008000DD020000DD020000DD020000DD020000F4
:10009000DD020000DD020000DD020000DD020000E4
:1000A000DD020000DD020000DD020000DD020000D4
:1000B000DD020000DD020000DD020000DD020000C4
:1000C000DD020000DD020000DD020000DD020000B4
:1000D000DD020000DD020000DD020000DD020000A4
:1000E000DD020000DD020000000000000000000052
:1000F00000000000BD060000DD020000DD0200007F
:10010000DD020000DD020000DD020000DD02000073
:10011000DD020000DD020000DD020000DD02000063
:10012000DD020000DD020000DD020000DD02000053
:10013000DD020000DD020000DD020000DD02000043
:10014000DD020000DD020000DD020000DD02000033
:10015000DD020000DD020000DD020000DD02000023
:10016000DD020000DD020000DD020000DD02000013
:10017000DD020000DD020000DD020000DD02000003
:10018000DD020000DD020000DD020000DD020000F3
:10019000DD020000DD020000DD020000DD020000E3
:1001A000DD020000DD020000DD020000DD020000D3
:1001B000DD020000DD020000DD020000DD020000C3
:1001C000DD020000DD020000DD020000DD020000B3
:1001D000DD020000DD020000DD020000DD020000A3
:1001E000DD020000DD020000DD020000DD02000093
:1001F000DD020000DD020000DD020000DD02000083
:10020000DD020000DD020000DD020000DD02000072
:10021000DD020000DD020000DD020000DD02000062
:10022000DD020000DD020000DD020000DD02000052
:10023000DD020000DD020000DD020000DD02000042
:10024000DD020000DD020000DD020000DD02000032
:10025000DD020000DD020000DD020000DD02000022
:10026000DD02000010B5054C237833B9044B13B1FF
:100270000448AFF300800123237010BD000000206C
:10028000000000007C0900000C4B43B10C480D49F4
:1002900010B5AFF300800C48036823B910BD0A48BD
:1002A000036833B97047094B002BF7D0BDE8104005
:1002B0001847064B002BF5D0184700BF0000000080
:1002C0007C090000040000207C0900000000000000
:1002D00008B5014B984708BDB5030000FEE70000D4
:1002E00008B51C4B1C4A9A4210D01C4B194A9A4222
:1002F0000CD2013B9B1A23F0030304331344164929
:1003000051F8040B42F8040B9A42F9D1144B154AE8
:100310009A420AD2013B9B1A23F00303043313448D
:10032000002142F8041B9342FBD10F4B0F4A22F0ED
:100330007F029A60D3F8882042F47002C3F88820C4
:10034000BFF34F8FBFF36F8F094B9847094B984707
:10035000FEE700BF000000207C0900000000002034
:10036000500000200000002000ED00E00000000030
:10037000C1070000B507000008B54022054BC3F8CF
:10038000AC20054A936943F080039361034B98477F
:1003900008BD00BF001C0040000800401104000020
:1003A00008B50248024B984708BD00BF10E000E0C6
:1003B000FD03000008B5094B9847094B9847094AC7
:1003C000536943F400735361074B9847024607494A
:1003D0000748084B9847084B984708BD9905000007
:1003E0007903000000080040750700000024004069
:1003F00024000020F5040000A103000008B5024B12
:100400001860024B984708BD1C000020A10700009F
:1004100008B5014B984708BDFD050000F8B58446B6
:1004200007682FB18D683C460026C2F1010E0BE033
:100430000E4B9847F8BD7344A0680344AB420AD200
:100440002368264653B11C4663689342F3D8A068DC
:1004500003449B1AF2E7A74204D034462046044BDB
:100460009847F8BD6046014B9847F8BD5905000014
:10047000850500002DE9F0474469076901370761E8
:10048000037E13F0010F13D1037E13F0020F0FD17F
:1004900054B36368FB1AA268934207D3064600F17F
:1004A0001408DFF84890DFF848A012E0BDE8F087B4
:1004B000037E43F002030376BDE8F0877569E368C5
:1004C0002046984785B12C466B68FB1AAA68934270
:1004D0000AD34046C847237C012BEFD167603A46D8
:1004E00021464046D047E9E7BDE8F0878D0500008A
:1004F0001D04000038B50D46044678B1081C18BF2D
:1005000001203B220649074B984729462046064BC7
:10051000984700202061054B236038BD0020F0E79C
:100520000808000031050000010700007504000004
:1005300000B900BE704703684BB18B4209D01B68FD
:100540001BB19942FBD10120704700207047002069
:10055000704701207047000038B504460D46064B31
:10056000984780F0010039220449C0B2044B9847F3
:1005700023682B60256038BD370500002008000087
:100580003105000003680B600160704703680BB120
:100590001A6802601846704708B5114A13889BB262
:1005A0001380104B9847104B9847104B9847104BAF
:1005B000984740F6FF700F4B98470F4BDA6ADA62A4
:1005C000D3F8AC20C3F8AC20D3F82C2142F0F202CF
:1005D000C3F82C21D3F8AC21C3F8AC2108BD00BF6F
:1005E00000400041890600009D0600007D060000D5
:1005F000B9060000590600000080004130B41448DC
:1006000000F143050346134C1A1A13F8011B483234
:1006100044F82210AB42F7D10D4800F1420480307B
:10062000002134F8023FCA0002F1824202F5604222
:10063000136250F8043FDBB282F82530DB43DBB2B3
:1006400082F8243001312029EBD1002030BC7047E2
:100650004008000000E0004110F0010F08D0054AFA
:10066000054B1A62194643F6FD724B681342FCD1E2
:10067000704700BF01010100001C00400122014B36
:100680005A71704700080040034BDA6902F47C524B
:10069000DA6100221A74704700140040044A054BC6
:1006A0009A611A46136913F0020FFBD0704700BF1E
:1006B00006260003001000407047000000B583B01C
:1006C0000D4B9B78DBB20193019B13F0020F06D018
:1006D0000A4B1B681BB1084A5068984709E0019B08
:1006E00013F0010F05D0054B5B6813B1024A506847
:1006F000984703B05DF804FB000002414000002071
:1007000038B50C46054630221749003018BF012085
:10071000164B9847EC600123238048F203022369BB
:100720001342FCD1EA68136913F0010FFBD14FF4B7
:1007300080735360EA6848F28003138048F2030133
:1007400013690B42FCD1EA684FF4806313621369AA
:1007500013F0600FFBD1EB684FF480725A81044BA9
:100760001D60002038BD00BF4409000031050000B5
:10077000200000200020704710B5084B1C68E3687B
:100780009B8913F4807F07D023680BB120469847DC
:10079000E3684FF480729A8110BD00BF20000020F2
:1007A000034B6FF07F425A6005221A60704700BF0A
:1007B00010E000E008B5014B9847FEE7D1020000C9
:1007C00070B50D4E0D4CA41BA4100025A54209D1F7
:1007D0000B4E0C4C00F0C2F8A41BA4100025A5423F
:1007E00005D170BD56F8253098470135EEE756F82B
:1007F000253098470135F2E76809000068090000D4
:10080000680900006C0900002E2E2F68616C2F73A0
:1008100072632F68616C5F74696D65722E6300008E
:100820002E2E2F68616C2F7574696C732F73726331
:100830002F7574696C735F6C6973742E63000000AC
:1008400000010000000000000000000000000000A7
:100850000000000000000000000000000000000098
:100860000000000000000000000000000000000088
:100870000000000000000000000000000000000078
:10088000000000000C060000000000000000000056
:100890000000000000000000000000000000000058
:1008A0000000000000000000000000000000000048
:1008B0000000000000000000000000000000000038
:1008C0000000000000000000000000000000000028
:1008D0000000000000000000000000000000000018
:1008E0000000000000000000000000000000000008
:1008F00000000000000000000000000000000000F8
:1009000000000000000000000000000000000000E7
:1009100000000000000000000000000000000000D7
:1009200000000000000000000000000000000000C7
:1009300000000000000000000000000000000000B7
:10094000000000002E2E2F68706C2F7274632F68C9
:10095000706C5F7274632E6300000000F8B500BF16
:10096000F8BC08BC9E46704789020000F8B500BF7D
:0C097000F8BC08BC9E4670476502000001
:00000001FF
